{
  "contractName": "AcLedger",
  "abi": [
    {
      "constant": false,
      "inputs": [
        {
          "name": "name",
          "type": "string"
        },
        {
          "name": "unit",
          "type": "string"
        }
      ],
      "name": "addCcyType",
      "outputs": [],
      "payable": false,
      "stateMutability": "nonpayable",
      "type": "function"
    },
    {
      "constant": true,
      "inputs": [],
      "name": "getCcyTypes",
      "outputs": [
        {
          "components": [
            {
              "components": [
                {
                  "name": "id",
                  "type": "uint256"
                },
                {
                  "name": "name",
                  "type": "string"
                },
                {
                  "name": "unit",
                  "type": "string"
                }
              ],
              "name": "ccyTypes",
              "type": "tuple[]"
            }
          ],
          "name": "",
          "type": "tuple"
        }
      ],
      "payable": false,
      "stateMutability": "view",
      "type": "function"
    },
    {
      "constant": false,
      "inputs": [
        {
          "name": "name",
          "type": "string"
        }
      ],
      "name": "addEeuType",
      "outputs": [],
      "payable": false,
      "stateMutability": "nonpayable",
      "type": "function"
    },
    {
      "constant": true,
      "inputs": [],
      "name": "getEeuTypes",
      "outputs": [
        {
          "components": [
            {
              "components": [
                {
                  "name": "id",
                  "type": "uint256"
                },
                {
                  "name": "name",
                  "type": "string"
                }
              ],
              "name": "eeuTypes",
              "type": "tuple[]"
            }
          ],
          "name": "",
          "type": "tuple"
        }
      ],
      "payable": false,
      "stateMutability": "view",
      "type": "function"
    },
    {
      "anonymous": false,
      "inputs": [
        {
          "indexed": false,
          "name": "id",
          "type": "uint256"
        },
        {
          "indexed": false,
          "name": "name",
          "type": "string"
        },
        {
          "indexed": false,
          "name": "unit",
          "type": "string"
        }
      ],
      "name": "AddedCcyType",
      "type": "event"
    },
    {
      "anonymous": false,
      "inputs": [
        {
          "indexed": false,
          "name": "id",
          "type": "uint256"
        },
        {
          "indexed": false,
          "name": "name",
          "type": "string"
        }
      ],
      "name": "AddedEeuType",
      "type": "event"
    },
    {
      "constant": true,
      "inputs": [],
      "name": "getLedgerOwners",
      "outputs": [
        {
          "name": "",
          "type": "address[]"
        }
      ],
      "payable": false,
      "stateMutability": "view",
      "type": "function"
    },
    {
      "constant": true,
      "inputs": [
        {
          "name": "id",
          "type": "uint256"
        }
      ],
      "name": "getEeu",
      "outputs": [
        {
          "components": [
            {
              "name": "exists",
              "type": "bool"
            },
            {
              "name": "id",
              "type": "uint256"
            },
            {
              "name": "mintedKG",
              "type": "uint256"
            },
            {
              "name": "KG",
              "type": "uint256"
            },
            {
              "name": "batchId",
              "type": "uint256"
            }
          ],
          "name": "",
          "type": "tuple"
        }
      ],
      "payable": false,
      "stateMutability": "view",
      "type": "function"
    },
    {
      "constant": true,
      "inputs": [
        {
          "name": "account",
          "type": "address"
        }
      ],
      "name": "getLedgerEntry",
      "outputs": [
        {
          "components": [
            {
              "name": "exists",
              "type": "bool"
            },
            {
              "components": [
                {
                  "name": "eeuId",
                  "type": "uint256"
                },
                {
                  "name": "eeuTypeId",
                  "type": "uint256"
                },
                {
                  "name": "eeuTypeName",
                  "type": "string"
                },
                {
                  "name": "batchId",
                  "type": "uint256"
                },
                {
                  "name": "eeuKG",
                  "type": "uint256"
                }
              ],
              "name": "eeus",
              "type": "tuple[]"
            },
            {
              "name": "eeu_sumKG",
              "type": "uint256"
            },
            {
              "components": [
                {
                  "name": "typeId",
                  "type": "uint256"
                },
                {
                  "name": "name",
                  "type": "string"
                },
                {
                  "name": "unit",
                  "type": "string"
                },
                {
                  "name": "balance",
                  "type": "int256"
                }
              ],
              "name": "ccys",
              "type": "tuple[]"
            }
          ],
          "name": "",
          "type": "tuple"
        }
      ],
      "payable": false,
      "stateMutability": "view",
      "type": "function"
    },
    {
      "constant": true,
      "inputs": [],
      "name": "getEeuBatchCount",
      "outputs": [
        {
          "name": "",
          "type": "uint256"
        }
      ],
      "payable": false,
      "stateMutability": "view",
      "type": "function"
    },
    {
      "constant": true,
      "inputs": [
        {
          "name": "id",
          "type": "uint256"
        }
      ],
      "name": "getEeuBatch",
      "outputs": [
        {
          "components": [
            {
              "name": "id",
              "type": "uint256"
            },
            {
              "name": "mintedTimestamp",
              "type": "uint256"
            },
            {
              "name": "eeuTypeId",
              "type": "uint256"
            },
            {
              "name": "mintedKG",
              "type": "uint256"
            },
            {
              "name": "burnedKG",
              "type": "uint256"
            }
          ],
          "name": "",
          "type": "tuple"
        }
      ],
      "payable": false,
      "stateMutability": "view",
      "type": "function"
    }
  ],
  "bytecode": "0x60008054600160a060020a0319163317815560c0604052600660808190527f554e46434343000000000000000000000000000000000000000000000000000060a0908152918052600160205262000078917fa6eef7e35abe7026729641147f7915573c7e97b47efa546f5f6e3230263bcb499162000308565b5060408051808201909152600381527f564353000000000000000000000000000000000000000000000000000000000060208083019182526001600081905290529051620000e8917fcc69885fda6bcc1a4ace058b4a62bf5e179ea78fd58a1ccd71c22cc9b688792f9162000308565b50600280556040805160608101825260008082528251808401845260038082527f555344000000000000000000000000000000000000000000000000000000000060208381019190915280850192835285518087018752600581527f63656e7473000000000000000000000000000000000000000000000000000000818301529585019590955291805290835281517f3617319a054d772f909f7c479a2cebe5066e836a939412e32403c99029b92eff9081559051805192939192620001d2927f3617319a054d772f909f7c479a2cebe5066e836a939412e32403c99029b92f0092019062000308565b5060408201518051620001f091600284019160209091019062000308565b50506040805160608101825260018082528251808401845260038082527f4554480000000000000000000000000000000000000000000000000000000000602083810191909152808501928352855180870187528281527f5765690000000000000000000000000000000000000000000000000000000000818301529585019590955260009290925290835281517fa15bc60c955c405d20d9149c709e2460f1c2d9a497496a7f46004d1772c3054c908155905180519294509092620002dc927fa15bc60c955c405d20d9149c709e2460f1c2d9a497496a7f46004d1772c3054d929091019062000308565b5060408201518051620002fa91600284019160209091019062000308565b5050600260045550620003ad565b828054600181600116156101000203166002900490600052602060002090601f016020900481019282601f106200034b57805160ff19168380011785556200037b565b828001600101855582156200037b579182015b828111156200037b5782518255916020019190600101906200035e565b50620003899291506200038d565b5090565b620003aa91905b8082111562000389576000815560010162000394565b90565b6118b880620003bd6000396000f3fe608060405234801561001057600080fd5b506004361061009f577c010000000000000000000000000000000000000000000000000000000060003504630722a4ee81146100a45780630834e864146100cd57806319b67615146100e25780634dc26ae8146100f757806351664b261461010c578063963030df1461011f5780639ce9a4a614610134578063a89a888414610154578063bcc376c614610174575b600080fd5b6100b76100b236600461100e565b610189565b6040516100c491906116dc565b60405180910390f35b6100e06100db366004610fa5565b6101e0565b005b6100ea610359565b6040516100c4919061172b565b6100ff610360565b6040516100c491906116f8565b6100e061011a366004610f70565b61054a565b610127610671565b6040516100c49190611709565b61014761014236600461100e565b61078f565b6040516100c491906116ea565b610167610162366004610f4a565b6107eb565b6040516100c4919061171a565b61017c610c83565b6040516100c4919061169b565b610191610d13565b50600090815260056020908152604091829020825160a0810184528154815260018201549281019290925260028101549282019290925260038201546060820152600490910154608082015290565b600054600160a060020a031633146102165760405160e560020a62461bcd02815260040161020d906116ac565b60405180910390fd5b60005b6004548110156102a857826040516020016102349190611683565b60408051601f19818403018152828252805160209182012060008581526003835292909220919261026992600101910161168f565b6040516020818303038152906040528051906020012014156102a05760405160e560020a62461bcd02815260040161020d906116bc565b600101610219565b506040805160608101825260045480825260208083018681528385018690526000928352600382529390912082518155925180519293926102ef9260018501920190610d42565b506040820151805161030b916002840191602090910190610d42565b509050507f41c4a4be5d1fed810ab0ace2ffe78022538a72356773c24ed010e06bdf6454b7600454838360405161034493929190611759565b60405180910390a15050600480546001019055565b6006545b90565b610368610dc0565b60606004546040519080825280602002602001820160405280156103a657816020015b610393610dd3565b81526020019060019003908161038b5790505b50905060005b60045481101561052d57604080516060810182526000838152600360208181528483208054855292869052908152600191820180548551600294821615610100026000190190911693909304601f8101839004830284018301909552848352929381850193918301828280156104635780601f1061043857610100808354040283529160200191610463565b820191906000526020600020905b81548152906001019060200180831161044657829003601f168201915b50505091835250506000838152600360209081526040918290206002908101805484516001821615610100026000190190911692909204601f810184900484028301840190945283825293820193909290918301828280156105065780601f106104db57610100808354040283529160200191610506565b820191906000526020600020905b8154815290600101906020018083116104e957829003601f168201915b505050505081525082828151811061051a57fe5b60209081029190910101526001016103ac565b50610536610dc0565b506040805160208101909152908152905090565b600054600160a060020a031633146105775760405160e560020a62461bcd02815260040161020d906116ac565b60005b60025481101561060657816040516020016105959190611683565b60408051601f1981840301815282825280516020918201206000858152600183529290922091926105c792910161168f565b6040516020818303038152906040528051906020012014156105fe5760405160e560020a62461bcd02815260040161020d906116cc565b60010161057a565b506002546000908152600160209081526040909120825161062992840190610d42565b507ff42a31d05ee5f17e0f159b94b9402293e9cf2265c806b4a55168aeaa3fe275e26002548260405161065d929190611739565b60405180910390a150600280546001019055565b610679610dc0565b60606002546040519080825280602002602001820160405280156106b757816020015b6106a4610df4565b81526020019060019003908161069c5790505b50905060005b60025481101561052d576040805180820182528281526000838152600160208181529184902080548551600293821615610100026000190190911692909204601f810184900484028301840190955284825292938285019391928301828280156107685780601f1061073d57610100808354040283529160200191610768565b820191906000526020600020905b81548152906001019060200180831161074b57829003601f168201915b505050505081525082828151811061077c57fe5b60209081029190910101526001016106bd565b610797610e0e565b506040805160a0810182526000838152600760208181528483205480151585528185018790528684526008825285842054858701528684526009825294832054606085015294909152909252608082015290565b6107f3610e3f565b606080600080805b60025481101561083a57600160a060020a0387166000908152600e602090815260408083208484526001908101909252909120549290920191016107fb565b508060405190808252806020026020018201604052801561087557816020015b610862610e69565b81526020019060019003908161085a5790505b5093506000805b600254811015610a3557600160a060020a0388166000908152600e602090815260408083208484526001018252918290208054835181840281018401909452808452606093928301828280156108f157602002820191906000526020600020905b8154815260200190600101908083116108dd575b50939450600093505050505b8151811015610a2b57600082828151811061091457fe5b602090810291909101810151600081815260098352604080822054815160a0810183528481528086018a905289845260018087529383902080548451600296821615610100026000190190911695909504601f810188900488028601880185528086529d9092019c949650949185019390918301828280156109d75780601f106109ac576101008083540402835291602001916109d7565b820191906000526020600020905b8154815290600101906020018083116109ba57829003601f168201915b5050509183525050600083815260076020908152604080832054828501528583526009909152908190205491015289518a9087908110610a1357fe5b602090810291909101015250600193840193016108fd565b505060010161087c565b50600454604051908082528060200260200182016040528015610a7257816020015b610a5f610e98565b815260200190600190039081610a575790505b50935060005b600454811015610c33576040518060800160405280828152602001600360008481526020019081526020016000206001018054600181600116156101000203166002900480601f016020809104026020016040519081016040528092919081815260200182805460018160011615610100020316600290048015610b3d5780601f10610b1257610100808354040283529160200191610b3d565b820191906000526020600020905b815481529060010190602001808311610b2057829003601f168201915b50505091835250506000838152600360209081526040918290206002908101805484516001821615610100026000190190911692909204601f81018490048402830184019094528382529382019390929091830182828015610be05780601f10610bb557610100808354040283529160200191610be0565b820191906000526020600020905b815481529060010190602001808311610bc357829003601f168201915b5050509183525050600160a060020a038a166000908152600e602090815260408083208684526002018252909120549101528551869083908110610c2057fe5b6020908102919091010152600101610a78565b50610c3c610e3f565b505060408051608081018252600160a060020a0388166000908152600e6020908152908390205460ff16151582528101959095528401919091525060608201529050919050565b600054606090600160a060020a03163314610cb35760405160e560020a62461bcd02815260040161020d906116ac565b600f805480602002602001604051908101604052809291908181526020018280548015610d0957602002820191906000526020600020905b8154600160a060020a03168152600190910190602001808311610ceb575b5050505050905090565b6040518060a0016040528060008152602001600081526020016000815260200160008152602001600081525090565b828054600181600116156101000203166002900490600052602060002090601f016020900481019282601f10610d8357805160ff1916838001178555610db0565b82800160010185558215610db0579182015b82811115610db0578251825591602001919060010190610d95565b50610dbc929150610ec0565b5090565b6040518060200160405280606081525090565b60405180606001604052806000815260200160608152602001606081525090565b604051806040016040528060008152602001606081525090565b6040518060a00160405280600015158152602001600081526020016000815260200160008152602001600081525090565b60405180608001604052806000151581526020016060815260200160008152602001606081525090565b6040518060a0016040528060008152602001600081526020016060815260200160008152602001600081525090565b6040518060800160405280600081526020016060815260200160608152602001600081525090565b61035d91905b80821115610dbc5760008155600101610ec6565b8035610ee58161185e565b92915050565b600082601f830112610efc57600080fd5b8135610f0f610f0a826117b4565b61178d565b91508082526020830160208301858383011115610f2b57600080fd5b610f3683828461181c565b50505092915050565b8035610ee581611875565b600060208284031215610f5c57600080fd5b6000610f688484610eda565b949350505050565b600060208284031215610f8257600080fd5b813567ffffffffffffffff811115610f9957600080fd5b610f6884828501610eeb565b60008060408385031215610fb857600080fd5b823567ffffffffffffffff811115610fcf57600080fd5b610fdb85828601610eeb565b925050602083013567ffffffffffffffff811115610ff857600080fd5b61100485828601610eeb565b9150509250929050565b60006020828403121561102057600080fd5b6000610f688484610f3f565b60006110388383611077565b505060200190565b600061104c8383611441565b9392505050565b600061104c8383611504565b600061104c8383611560565b600061104c83836115c3565b61108081611800565b82525050565b6000611091826117ee565b61109b81856117f2565b93506110a6836117dc565b8060005b838110156110d45781516110be888261102c565b97506110c9836117dc565b9250506001016110aa565b509495945050505050565b60006110ea826117ee565b6110f481856117f2565b935083602082028501611106856117dc565b8060005b8581101561114057848403895281516111238582611040565b945061112e836117dc565b60209a909a019992505060010161110a565b5091979650505050505050565b6000611158826117ee565b61116281856117f2565b935083602082028501611174856117dc565b8060005b8581101561114057848403895281516111918582611053565b945061119c836117dc565b60209a909a0199925050600101611178565b60006111b9826117ee565b6111c381856117f2565b9350836020820285016111d5856117dc565b8060005b8581101561114057848403895281516111f2858261105f565b94506111fd836117dc565b60209a909a01999250506001016111d9565b600061121a826117ee565b61122481856117f2565b935083602082028501611236856117dc565b8060005b858110156111405784840389528151611253858261106b565b945061125e836117dc565b60209a909a019992505060010161123a565b6110808161180b565b6110808161035d565b600061128d826117ee565b61129781856117f2565b93506112a7818560208601611828565b6112b081611854565b9093019392505050565b60006112c5826117ee565b6112cf81856117fb565b93506112df818560208601611828565b9290920192915050565b600081546001811660008114611306576001811461132957611368565b607f600283041661131781876117fb565b60ff1984168152955085019250611368565b6002820461133781876117fb565b9550611342856117e2565b60005b8281101561136157815488820152600190910190602001611345565b5050850192505b505092915050565b600061137d6011836117f2565b7f52657374726963746564206d6574686f64000000000000000000000000000000815260200192915050565b60006113b66021836117f2565b7f43757272656e63792074797065206e616d6520616c726561647920657869737481527f7300000000000000000000000000000000000000000000000000000000000000602082015260400192915050565b6000611415601c836117f2565b7f4545552074797065206e616d6520616c72656164792065786973747300000000815260200192915050565b805160009060608401906114558582611279565b506020830151848203602086015261146d8282611282565b915050604083015184820360408601526114878282611282565b95945050505050565b805160a08301906114a18482611279565b5060208201516114b46020850182611279565b5060408201516114c76040850182611279565b5060608201516114da6060850182611279565b5060808201516114ed6080850182611279565b50505050565b805160a08301906114a18482611270565b805160009060408401906115188582611279565b50602083015184820360208601526114878282611282565b805160208084526000919084019061148782826110df565b8051602080845260009190840190611487828261114d565b805160009060808401906115748582611279565b506020830151848203602086015261158c8282611282565b915050604083015184820360408601526115a68282611282565b91505060608301516115bb6060860182611279565b509392505050565b805160009060a08401906115d78582611279565b5060208301516115ea6020860182611279565b50604083015184820360408601526116028282611282565b91505060608301516116176060860182611279565b5060808301516115bb6080860182611279565b8051600090608084019061163e8582611270565b5060208301518482036020860152611656828261120f565b915050604083015161166b6040860182611279565b506060830151848203606086015261148782826111ae565b600061104c82846112ba565b600061104c82846112e9565b6020808252810161104c8184611086565b60208082528101610ee581611370565b60208082528101610ee5816113a9565b60208082528101610ee581611408565b60a08101610ee58284611490565b60a08101610ee582846114f3565b6020808252810161104c8184611530565b6020808252810161104c8184611548565b6020808252810161104c818461162a565b60208101610ee58284611279565b604081016117478285611279565b8181036020830152610f688184611282565b606081016117678286611279565b81810360208301526117798185611282565b905081810360408301526114878184611282565b60405181810167ffffffffffffffff811182821017156117ac57600080fd5b604052919050565b600067ffffffffffffffff8211156117cb57600080fd5b506020601f91909101601f19160190565b60200190565b60009081526020902090565b5190565b90815260200190565b919050565b6000610ee582611810565b151590565b600160a060020a031690565b82818337506000910152565b60005b8381101561184357818101518382015260200161182b565b838111156114ed5750506000910152565b601f01601f191690565b61186781611800565b811461187257600080fd5b50565b6118678161035d56fea265627a7a7230582050ed9597e3c61e4163cc901659abe9fff0b3179652b144bcda5dfcfd05c859956c6578706572696d656e74616cf50037",
  "source": "pragma solidity 0.5.8;\npragma experimental ABIEncoderV2;\n\nimport \"./Owned.sol\";\nimport \"./EeuTypes.sol\";\nimport \"./CcyTypes.sol\";\n\ncontract AcLedger is Owned, EeuTypes, CcyTypes {\n\n    // *** BATCH LIST\n    mapping(uint256 => EeuBatch) _eeuBatches;                   // main batch list: all EEU batches, by ID\n    uint256 _batchCurMaxId;                                     // 1-based\n    struct EeuBatch {\n        uint256 id;                                             // global sequential id: 1-based\n        uint256 mintedTimestamp;                                // minting block.timestamp\n        uint256 eeuTypeId;                                      // EEU-type of the batch\n        uint256 mintedKG;                                       // total KG of carbon minted in the batch EEUs\n        uint256 burnedKG;                                       // total KG of carbon burned from the batch EEUs\n    }\n\n    // *** EEU LIST (slightly more gas effecient than mapping(uint => Eeu))\n    mapping(uint256 => uint256) _eeus_batchId;\n    mapping(uint256 => uint256) _eeus_mintedKG;\n    mapping(uint256 => uint256) _eeus_KG;                       // == 0 indicates fully burned, != _eeus_mintedKG indicates partially burned\n    //mapping(uint256 => uint256) _eeus_mintedTimestamp;          // creation time - full initial minting, or transfer soft-minting (split) time\n    //mapping(uint256 => uint256) _eeus_splitFromEeuId;           // the parent EEU ID, if the EEU was soft-minted in a transfer split\n    //mapping(uint256 => uint256) _eeus_splitToEeuId;             // the child EEU ID, if the EEU was a parent in a transfer split\n    uint256 _eeu_totalMintedKG;\n    uint256 _eeu_totalBurnedKG;\n    uint256 _eeu_totalTransferedKG;\n    uint256 _eeuCurMaxId;                                       // 1-based - TODO: to be updated by Mint() **and Split()** ...\n        // return structs\n        struct EeuReturn {\n            bool    exists;                                     // for existence check by id\n            uint256 id;                                         // global sequential id: 1-based\n            uint256 mintedKG;                                   // initial KG minted in the EEU\n            uint256 KG;                                         // current variable KG in the EEU (i.e. burned = KG - mintedKG)\n            uint256 batchId;                                    // parent batch ID\n            //uint256 mintedTimestamp;                            // minting block.timestamp\n            //uint256 splitFromId;                                // the parent EEU ID, if any\n            //uint256 splitToId;                                  // the child EEU ID, if any\n        }\n\n    // *** LEDGER\n    mapping(address => Ledger) _ledger;                         // main ledger list: all entries, by account\n    address[] _ledgerOwners;                                    // list of ledger owners (accounts)\n    //mapping(bytes32 => bool) _ownsEeuId;                      // old: for EEU ownership lookup: by keccak256(ledgerOwner, EEU ID)\n    struct Ledger {\n        bool                          exists;                   // for existance check by address\n        mapping(uint256 => uint256[]) eeuType_eeuIds;           // EeuTypeId -> eeuId[] of all owned vEEU(s)\n        //mapping(uint256 => uint256)   eeuType_sumKG;            // EeuTypeId -> sum KG carbon in all owned vEEU(s)\n        mapping(uint256 => int256)    ccyType_balance;          // CcyTypeId -> balance\n    }\n    mapping(uint256 => uint256) _ccyType_totalFunded;\n    mapping(uint256 => uint256) _ccyType_totalWithdrawn;\n    mapping(uint256 => uint256) _ccyType_totalTransfered;\n        // return structs\n        struct LedgerEeuReturn {                                // ledger return structure\n            uint256 eeuId;\n            uint256 eeuTypeId;\n            string  eeuTypeName;\n            uint256 batchId;\n            uint256 eeuKG;\n            //uint256 mintedTimestamp;\n            //uint256 splitFromId;\n            //uint256 splitToId;\n        }\n        struct LedgerCcyReturn {\n            uint256 typeId;\n            string  name;\n            string  unit;\n            int256  balance;\n        }\n        struct LedgerReturn {\n            bool              exists;\n            LedgerEeuReturn[] eeus;                             // EEUs with type & size (KG) information - v2\n            uint256           eeu_sumKG;                        // retained for caller convenience - v1\n            LedgerCcyReturn[] ccys;                             // currency balances\n        }\n\n    /**\n     * @dev Returns all accounts in the ledger\n     */\n    function getLedgerOwners() external view returns (address[] memory) {\n        require(msg.sender == owner, \"Restricted method\");\n        return _ledgerOwners;\n    }\n    \n    /**\n     * @dev Returns an EEU by ID\n     */\n    function getEeu(uint256 id) external view returns (EeuReturn memory) {\n        return EeuReturn({\n                exists: _eeus_batchId[id] != 0,\n                    id: id,\n              mintedKG: _eeus_mintedKG[id],\n                    KG: _eeus_KG[id],\n               batchId: _eeus_batchId[id]\n       //mintedTimestamp: _eeus_mintedTimestamp[id],\n           //splitFromId: _eeus_splitFromEeuId[id],\n             //splitToId: _eeus_splitToEeuId[id]\n            });\n    }\n\n    /**\n     * @dev Returns the ledger entry for a single account\n     */\n    function getLedgerEntry(address account) external view returns (LedgerReturn memory) {\n        LedgerEeuReturn[] memory eeus;\n        LedgerCcyReturn[] memory ccys;\n        uint256 eeu_sumKG = 0;\n\n        // count total # of eeus across all types\n        uint256 countAllEeus = 0;\n        for (uint256 eeuTypeId = 0; eeuTypeId < _count_eeuTypes; eeuTypeId++) {\n            countAllEeus += _ledger[account].eeuType_eeuIds[eeuTypeId].length;\n        }\n\n        // flatten EEU IDs and sum sizes across types\n        eeus = new LedgerEeuReturn[](countAllEeus);\n        uint256 flatEeuNdx = 0;\n        for (uint256 eeuTypeId = 0; eeuTypeId < _count_eeuTypes; eeuTypeId++) {\n            uint256[] memory eeuType_eeuIds = _ledger[account].eeuType_eeuIds[eeuTypeId];\n            for (uint256 ndx = 0; ndx < eeuType_eeuIds.length; ndx++) {\n                uint256 eeuId = eeuType_eeuIds[ndx];\n\n                // sum EEU sizes - convenience for caller\n                eeu_sumKG += _eeus_KG[eeuId];\n\n                // EEUs by type\n                eeus[flatEeuNdx] = LedgerEeuReturn({\n                        eeuId: eeuId,\n                    eeuTypeId: eeuTypeId,\n                  eeuTypeName: _eeuTypeNames[eeuTypeId],\n                      batchId: _eeus_batchId[eeuId],\n                        eeuKG: _eeus_KG[eeuId]\n              //mintedTimestamp: _eeus_mintedTimestamp[eeuId],\n                  //splitFromId: _eeus_splitFromEeuId[eeuId],\n                    //splitToId: _eeus_splitToEeuId[eeuId]\n                });\n                flatEeuNdx++;\n            }\n        }\n\n        // populate balances for each currency type\n        ccys = new LedgerCcyReturn[](_count_ccyTypes);\n        for (uint256 ccyTypeId = 0; ccyTypeId < _count_ccyTypes; ccyTypeId++) {\n            ccys[ccyTypeId] = LedgerCcyReturn({\n                      typeId: ccyTypeId,\n                        name: _ccyTypes[ccyTypeId].name,\n                        unit: _ccyTypes[ccyTypeId].unit,\n                     balance: _ledger[account].ccyType_balance[ccyTypeId]\n            });\n        }\n\n        LedgerReturn memory ret = LedgerReturn({\n            exists: _ledger[account].exists,\n              eeus: eeus,\n         eeu_sumKG: eeu_sumKG,\n              ccys: ccys\n        });\n        return ret;\n    }\n\n    /**\n     * @dev Returns the global EEU batch count\n     */\n    function getEeuBatchCount() external view returns (uint256) {\n        return _batchCurMaxId; // 1-based\n    }\n\n    /**\n     * @dev Returns an EEU batch by ID\n     */\n    function getEeuBatch(uint256 id) external view returns (EeuBatch memory) {\n        return _eeuBatches[id];\n    }\n\n    /**\n     * @dev Validates if the supplied ledger owner holds the specified quantity or more of supplied EEU type\n     * @param ledger Ledger owner for which to validate\n     * @param eeuTypeId EEU type for which to validate\n     * @param amount Amount in KG to check for\n     */\n    function sufficientKg(address ledger, uint256 eeuTypeId, uint256 amount) internal view returns (bool) {\n        uint256 kgAvailable = 0;\n        for (uint i = 0; i < _ledger[ledger].eeuType_eeuIds[eeuTypeId].length; i++) {\n            kgAvailable += _eeus_KG[_ledger[ledger].eeuType_eeuIds[eeuTypeId][i]];\n        }\n        return kgAvailable >= amount;\n    }\n\n    /**\n     * @dev Validates if the supplied ledger owner holds the specified quantity or more of the supplied currency type\n     * @param ledger Ledger owner for which to validate\n     * @param ccyTypeId currency type for which to validate\n     * @param amount Amount in currency type units to check for\n     */\n    function sufficientCcy(address ledger, uint256 ccyTypeId, int256 amount) internal view returns (bool) {\n        return _ledger[ledger].ccyType_balance[ccyTypeId] >= amount;\n    }\n}\n",
  "sourcePath": "/Users/dom/ac/ac-monorepo/packages/erc20/contracts/AcMaster/AcLedger.sol",
  "compiler": {
    "name": "solc",
    "version": "0.5.8+commit.23d335f2.Emscripten.clang"
  },
  "schemaVersion": "3.0.11",
  "updatedAt": "2019-08-16T17:54:25.149Z",
  "devdoc": {
    "methods": {
      "addCcyType(string,string)": {
        "details": "Adds a new currency type",
        "params": {
          "name": "The new currency type name",
          "unit": "The base unit of the new currency type"
        }
      },
      "addEeuType(string)": {
        "details": "Adds a new EEU type",
        "params": {
          "name": "The new EEU type name"
        }
      },
      "getCcyTypes()": {
        "details": "Returns current currency types"
      },
      "getEeu(uint256)": {
        "details": "Returns an EEU by ID"
      },
      "getEeuBatch(uint256)": {
        "details": "Returns an EEU batch by ID"
      },
      "getEeuBatchCount()": {
        "details": "Returns the global EEU batch count"
      },
      "getEeuTypes()": {
        "details": "Returns current EEU types"
      },
      "getLedgerEntry(address)": {
        "details": "Returns the ledger entry for a single account"
      },
      "getLedgerOwners()": {
        "details": "Returns all accounts in the ledger"
      }
    }
  },
  "userdoc": {
    "methods": {}
  }
}