{
  "contractName": "AcLedger",
  "abi": [
    {
      "constant": true,
      "inputs": [],
      "name": "getEeuTypeIds",
      "outputs": [
        {
          "components": [
            {
              "components": [
                {
                  "name": "eeuTypeId",
                  "type": "uint256"
                },
                {
                  "name": "eeuTypeName",
                  "type": "string"
                }
              ],
              "name": "eeuTypes",
              "type": "tuple[]"
            }
          ],
          "name": "retData",
          "type": "tuple"
        }
      ],
      "payable": false,
      "stateMutability": "view",
      "type": "function"
    },
    {
      "constant": true,
      "inputs": [],
      "name": "getLedgerOwners",
      "outputs": [
        {
          "name": "",
          "type": "address[]"
        }
      ],
      "payable": false,
      "stateMutability": "view",
      "type": "function"
    },
    {
      "constant": true,
      "inputs": [
        {
          "name": "account",
          "type": "address"
        }
      ],
      "name": "getLedgerEntry",
      "outputs": [
        {
          "components": [
            {
              "name": "exists",
              "type": "bool"
            },
            {
              "components": [
                {
                  "name": "eeuId",
                  "type": "uint256"
                },
                {
                  "name": "eeuTypeId",
                  "type": "uint256"
                },
                {
                  "name": "eeuTypeName",
                  "type": "string"
                },
                {
                  "name": "batchId",
                  "type": "uint256"
                },
                {
                  "name": "eeuKG",
                  "type": "uint256"
                }
              ],
              "name": "eeus",
              "type": "tuple[]"
            },
            {
              "name": "eeuIds",
              "type": "uint256[]"
            },
            {
              "name": "eeu_sumKG",
              "type": "uint256"
            },
            {
              "name": "usdCents",
              "type": "uint256"
            },
            {
              "name": "ethWei",
              "type": "uint256"
            }
          ],
          "name": "",
          "type": "tuple"
        }
      ],
      "payable": false,
      "stateMutability": "view",
      "type": "function"
    },
    {
      "constant": true,
      "inputs": [],
      "name": "getEeuBatchCount",
      "outputs": [
        {
          "name": "count",
          "type": "uint256"
        }
      ],
      "payable": false,
      "stateMutability": "view",
      "type": "function"
    },
    {
      "constant": true,
      "inputs": [
        {
          "name": "id",
          "type": "uint256"
        }
      ],
      "name": "getEeuBatch",
      "outputs": [
        {
          "components": [
            {
              "name": "id",
              "type": "uint256"
            },
            {
              "name": "mintedTimestamp",
              "type": "uint256"
            },
            {
              "name": "eeuTypeId",
              "type": "uint256"
            },
            {
              "name": "mintedKG",
              "type": "uint256"
            },
            {
              "name": "burnedKG",
              "type": "uint256"
            }
          ],
          "name": "batch",
          "type": "tuple"
        }
      ],
      "payable": false,
      "stateMutability": "view",
      "type": "function"
    },
    {
      "constant": true,
      "inputs": [
        {
          "name": "id",
          "type": "uint256"
        }
      ],
      "name": "getEeu",
      "outputs": [
        {
          "components": [
            {
              "name": "exists",
              "type": "bool"
            },
            {
              "name": "id",
              "type": "uint256"
            },
            {
              "name": "mintedKG",
              "type": "uint256"
            },
            {
              "name": "KG",
              "type": "uint256"
            },
            {
              "name": "batchId",
              "type": "uint256"
            },
            {
              "name": "mintedTimestamp",
              "type": "uint256"
            }
          ],
          "name": "eeu",
          "type": "tuple"
        }
      ],
      "payable": false,
      "stateMutability": "view",
      "type": "function"
    }
  ],
  "bytecode": "0x6080604052336000806101000a81548173ffffffffffffffffffffffffffffffffffffffff021916908373ffffffffffffffffffffffffffffffffffffffff1602179055506040518060400160405280600681526020017f554e464343430000000000000000000000000000000000000000000000000000815250600160008081526020019081526020016000209080519060200190620000a292919062000110565b506040518060400160405280600381526020017f5643530000000000000000000000000000000000000000000000000000000000815250600160006001815260200190815260200160002090805190602001906200010292919062000110565b5060028081905550620001bf565b828054600181600116156101000203166002900490600052602060002090601f016020900481019282601f106200015357805160ff191683800117855562000184565b8280016001018555821562000184579182015b828111156200018357825182559160200191906001019062000166565b5b50905062000193919062000197565b5090565b620001bc91905b80821115620001b85760008160009055506001016200019e565b5090565b90565b61124c80620001cf6000396000f3fe608060405234801561001057600080fd5b50600436106100625760003560e01c80630722a4ee1461006757806319b676151461009757806332de10e4146100b55780639ce9a4a6146100d3578063a89a888414610103578063bcc376c614610133575b600080fd5b610081600480360361007c9190810190610ac1565b610151565b60405161008e9190610fcf565b60405180910390f35b61009f6101b0565b6040516100ac9190611049565b60405180910390f35b6100bd6101ba565b6040516100ca9190611005565b60405180910390f35b6100ed60048036036100e89190810190610ac1565b610319565b6040516100fa9190610fea565b60405180910390f35b61011d60048036036101189190810190610a98565b6103ba565b60405161012a9190611027565b60405180910390f35b61013b6108e5565b6040516101489190610fad565b60405180910390f35b610159610973565b600360008381526020019081526020016000206040518060a0016040529081600082015481526020016001820154815260200160028201548152602001600382015481526020016004820154815250509050919050565b6000600454905090565b6101c26109a2565b606060025460405190808252806020026020018201604052801561020057816020015b6101ed6109b5565b8152602001906001900390816101e55790505b50905060008090505b6002548110156102f7576040518060400160405280828152602001600160008481526020019081526020016000208054600181600116156101000203166002900480601f0160208091040260200160405190810160405280929190818152602001828054600181600116156101000203166002900480156102cb5780601f106102a0576101008083540402835291602001916102cb565b820191906000526020600020905b8154815290600101906020018083116102ae57829003601f168201915b50505050508152508282815181106102df57fe5b60200260200101819052508080600101915050610209565b506103006109a2565b6040518060200160405280838152509050809250505090565b6103216109cf565b6040518060c001604052806000600560008681526020019081526020016000205414151515815260200183815260200160066000858152602001908152602001600020548152602001600760008581526020019081526020016000205481526020016005600085815260200190815260200160002054815260200160086000858152602001908152602001600020548152509050919050565b6103c2610a07565b6060806000809050600c60008673ffffffffffffffffffffffffffffffffffffffff1673ffffffffffffffffffffffffffffffffffffffff16815260200190815260200160002060000160009054906101000a900460ff161561075b57600080905060008090505b60025481101561049c57600c60008873ffffffffffffffffffffffffffffffffffffffff1673ffffffffffffffffffffffffffffffffffffffff16815260200190815260200160002060010160008281526020019081526020016000208054905082019150808060010191505061042a565b50806040519080825280602002602001820160405280156104d757816020015b6104c4610a3f565b8152602001906001900390816104bc5790505b509350806040519080825280602002602001820160405280156105095781602001602082028038833980820191505090505b509250600080905060008090505b600254811015610753576060600c60008a73ffffffffffffffffffffffffffffffffffffffff1673ffffffffffffffffffffffffffffffffffffffff16815260200190815260200160002060010160008381526020019081526020016000208054806020026020016040519081016040528092919081815260200182805480156105c057602002820191906000526020600020905b8154815260200190600101908083116105ac575b5050505050905060008090505b81518110156107445760008282815181106105e457fe5b60200260200101519050808886815181106105fb57fe5b6020026020010181815250506007600082815260200190815260200160002054870196506040518060a00160405280828152602001858152602001600160008781526020019081526020016000208054600181600116156101000203166002900480601f0160208091040260200160405190810160405280929190818152602001828054600181600116156101000203166002900480156106dd5780601f106106b2576101008083540402835291602001916106dd565b820191906000526020600020905b8154815290600101906020018083116106c057829003601f168201915b5050505050815260200160056000848152602001908152602001600020548152602001600760008481526020019081526020016000205481525089868151811061072357fe5b602002602001018190525084806001019550505080806001019150506105cd565b50508080600101915050610517565b5050506107cd565b600060405190808252806020026020018201604052801561079657816020015b610783610a3f565b81526020019060019003908161077b5790505b50925060006040519080825280602002602001820160405280156107c95781602001602082028038833980820191505090505b5091505b6107d5610a07565b6040518060c00160405280600c60008973ffffffffffffffffffffffffffffffffffffffff1673ffffffffffffffffffffffffffffffffffffffff16815260200190815260200160002060000160009054906101000a900460ff1615158152602001858152602001848152602001838152602001600c60008973ffffffffffffffffffffffffffffffffffffffff1673ffffffffffffffffffffffffffffffffffffffff168152602001908152602001600020600301548152602001600c60008973ffffffffffffffffffffffffffffffffffffffff1673ffffffffffffffffffffffffffffffffffffffff16815260200190815260200160002060040154815250905080945050505050919050565b6060600d80548060200260200160405190810160405280929190818152602001828054801561096957602002820191906000526020600020905b8160009054906101000a900473ffffffffffffffffffffffffffffffffffffffff1673ffffffffffffffffffffffffffffffffffffffff168152602001906001019080831161091f575b5050505050905090565b6040518060a0016040528060008152602001600081526020016000815260200160008152602001600081525090565b6040518060200160405280606081525090565b604051806040016040528060008152602001606081525090565b6040518060c0016040528060001515815260200160008152602001600081526020016000815260200160008152602001600081525090565b6040518060c0016040528060001515815260200160608152602001606081526020016000815260200160008152602001600081525090565b6040518060a0016040528060008152602001600081526020016060815260200160008152602001600081525090565b600081359050610a7d816111e4565b92915050565b600081359050610a92816111fb565b92915050565b600060208284031215610aaa57600080fd5b6000610ab884828501610a6e565b91505092915050565b600060208284031215610ad357600080fd5b6000610ae184828501610a83565b91505092915050565b6000610af68383610b42565b60208301905092915050565b6000610b0e8383610e22565b905092915050565b6000610b228383610e89565b905092915050565b6000610b368383610f8f565b60208301905092915050565b610b4b81611158565b82525050565b6000610b5c82611098565b610b668185611103565b9350610b7183611064565b8060005b83811015610ba2578151610b898882610aea565b9750610b94836110cf565b925050600181019050610b75565b5085935050505092915050565b6000610bba826110a3565b610bc48185611114565b935083602082028501610bd685611071565b8060005b85811015610c125784840389528151610bf38582610b02565b9450610bfe836110dc565b925060208a01995050600181019050610bda565b50829750879550505050505092915050565b6000610c2f826110ae565b610c398185611125565b935083602082028501610c4b8561107e565b8060005b85811015610c875784840389528151610c688582610b16565b9450610c73836110e9565b925060208a01995050600181019050610c4f565b50829750879550505050505092915050565b6000610ca4826110b9565b610cae8185611136565b9350610cb98361108b565b8060005b83811015610cea578151610cd18882610b2a565b9750610cdc836110f6565b925050600181019050610cbd565b5085935050505092915050565b610d008161116a565b82525050565b6000610d11826110c4565b610d1b8185611147565b9350610d2b8185602086016111a0565b610d34816111d3565b840191505092915050565b60a082016000820151610d556000850182610f8f565b506020820151610d686020850182610f8f565b506040820151610d7b6040850182610f8f565b506060820151610d8e6060850182610f8f565b506080820151610da16080850182610f8f565b50505050565b60c082016000820151610dbd6000850182610cf7565b506020820151610dd06020850182610f8f565b506040820151610de36040850182610f8f565b506060820151610df66060850182610f8f565b506080820151610e096080850182610f8f565b5060a0820151610e1c60a0850182610f8f565b50505050565b6000604083016000830151610e3a6000860182610f8f565b5060208301518482036020860152610e528282610d06565b9150508091505092915050565b60006020830160008301518482036000860152610e7c8282610baf565b9150508091505092915050565b600060a083016000830151610ea16000860182610f8f565b506020830151610eb46020860182610f8f565b5060408301518482036040860152610ecc8282610d06565b9150506060830151610ee16060860182610f8f565b506080830151610ef46080860182610f8f565b508091505092915050565b600060c083016000830151610f176000860182610cf7565b5060208301518482036020860152610f2f8282610c24565b91505060408301518482036040860152610f498282610c99565b9150506060830151610f5e6060860182610f8f565b506080830151610f716080860182610f8f565b5060a0830151610f8460a0860182610f8f565b508091505092915050565b610f9881611196565b82525050565b610fa781611196565b82525050565b60006020820190508181036000830152610fc78184610b51565b905092915050565b600060a082019050610fe46000830184610d3f565b92915050565b600060c082019050610fff6000830184610da7565b92915050565b6000602082019050818103600083015261101f8184610e5f565b905092915050565b600060208201905081810360008301526110418184610eff565b905092915050565b600060208201905061105e6000830184610f9e565b92915050565b6000602082019050919050565b6000602082019050919050565b6000602082019050919050565b6000602082019050919050565b600081519050919050565b600081519050919050565b600081519050919050565b600081519050919050565b600081519050919050565b6000602082019050919050565b6000602082019050919050565b6000602082019050919050565b6000602082019050919050565b600082825260208201905092915050565b600082825260208201905092915050565b600082825260208201905092915050565b600082825260208201905092915050565b600082825260208201905092915050565b600061116382611176565b9050919050565b60008115159050919050565b600073ffffffffffffffffffffffffffffffffffffffff82169050919050565b6000819050919050565b60005b838110156111be5780820151818401526020810190506111a3565b838111156111cd576000848401525b50505050565b6000601f19601f8301169050919050565b6111ed81611158565b81146111f857600080fd5b50565b61120481611196565b811461120f57600080fd5b5056fea265627a7a7230582023d9d79f7c3d10eca8003e8b10a91f69b58991bfdac6ebc79990fe55688782766c6578706572696d656e74616cf50037",
  "source": "pragma solidity 0.5.8;\r\npragma experimental ABIEncoderV2;\r\n\r\nimport \"./Owned.sol\";\r\nimport \"./StaticExtendable.sol\";\r\n\r\ncontract AcLedger is Owned, StaticExtendable {\r\n    // EEU types\r\n    // enum EeuType {\r\n    //     UNFCCC, // https://cdm.unfccc.int -- CERs\r\n    //     VCS,    // https://www.vcsprojectdatabase.org -- VCUs\r\n    //     dummy_end\r\n    // }\r\n\r\n    // *** BATCH LIST\r\n    mapping(uint256 => EeuBatch) _eeuBatches;                   // main batch list: all EEU batches, by ID\r\n    uint256 _batchCurMaxId;\r\n    struct EeuBatch {\r\n        uint256 id;                                             // global sequential id: 1-based\r\n        uint256 mintedTimestamp;                                // minting block.timestamp\r\n        /*EeuType*/uint256 eeuTypeId;                           // EEU-type of the batch\r\n        uint256 mintedKG;                                       // total KG of carbon minted in the batch EEUs\r\n        uint256 burnedKG;                                       // total KG of carbon burned from the batch EEUs\r\n    }\r\n\r\n    // *** EEU LIST (slightly more gas effecient than mapping(uint => Eeu))\r\n    mapping(uint256 => uint256) _eeus_batchId;\r\n    mapping(uint256 => uint256) _eeus_mintedKG;\r\n    mapping(uint256 => uint256) _eeus_KG;                       // == 0 indicates fully burned, != _eeus_mintedKG indicates partially burned\r\n    mapping(uint256 => uint256) _eeus_mintedTimestamp;\r\n    uint256 _eeuKgMinted;\r\n    uint256 _eeuKgBurned;\r\n    uint256 _eeuCurMaxId;                                       // TODO: to be updated by Mint() **and Split()** ...\r\n        // return structs\r\n        struct EeuReturn {\r\n            bool    exists;                                     // for existence check by id\r\n            uint256 id;                                         // global sequential id: 1-based\r\n            uint256 mintedKG;                                   // initial KG minted in the EEU\r\n            uint256 KG;                                         // current variable KG in the EEU (i.e. burned = KG - mintedKG)\r\n            uint256 batchId;                                    // parent batch ID\r\n            uint256 mintedTimestamp;                            // minting block.timestamp\r\n        }\r\n\r\n    // *** LEDGER\r\n    mapping(address => Ledger) _ledger;                         // main ledger list: all entries, by account\r\n    address[] _ledgerOwners;                                    // list of ledger owners (accounts)\r\n    //mapping(bytes32 => bool) _ownsEeuId;                      // old: for EEU ownership lookup: by keccak256(ledgerOwner, EEU ID)\r\n    struct Ledger {\r\n        bool                                       exists;      // for existance check by address\r\n        mapping(uint256/*EeuTypeId*/ => uint256[]) type_eeuIds;\r\n        mapping(uint256/*EeuTypeId*/ => uint256)   type_sumKG;\r\n        uint256                                    usdCents;    // owned USD quantity\r\n        uint256                                    ethWei;      // owned ETH quantity\r\n    }\r\n        // return structs\r\n        struct LedgerEeuReturn {                                // _ledger return structure (can't pass out nested arrays)\r\n            uint256 eeuId;\r\n            uint256 eeuTypeId;\r\n            string eeuTypeName;\r\n            uint256 batchId;\r\n            uint256 eeuKG;\r\n        }\r\n        struct LedgerReturn {\r\n            bool exists;\r\n            LedgerEeuReturn[] eeus;                             // EEUs with type & size (KG) information - v2\r\n            uint256[] eeuIds;                                   // TODO: remove - v1\r\n            uint256 eeu_sumKG;                                  // TODO: remove - v1\r\n            uint256 usdCents;\r\n            uint256 ethWei;\r\n        }\r\n\r\n    /**\r\n     * @dev Returns all accounts in the ledger\r\n     */\r\n    function getLedgerOwners() external view returns (address[] memory) {\r\n        return _ledgerOwners;\r\n    }\r\n\r\n    /**\r\n     * @dev Returns the _ledger entry for a single account\r\n     */\r\n    function getLedgerEntry(address account) external view returns (LedgerReturn memory) {\r\n        LedgerEeuReturn[] memory eeus;\r\n        uint256[] memory eeuIds;\r\n        uint256 eeu_sumKG = 0;\r\n        if (_ledger[account].exists) {\r\n            // count total # of eeus across all types\r\n            uint256 countAllEeus = 0;\r\n            //for (uint256 eeuType = 0; eeuType < uint256(EeuType.dummy_end); eeuType++) {\r\n            for (uint256 eeuTypeId = 0; eeuTypeId < _count_eeuTypeIds; eeuTypeId++) {\r\n                countAllEeus += _ledger[account].type_eeuIds[eeuTypeId].length;\r\n            }\r\n            eeus = new LedgerEeuReturn[](countAllEeus);\r\n            eeuIds = new uint256[](countAllEeus);\r\n\r\n            // flatten IDs and sum sizes across types\r\n            uint256 flatEeuNdx = 0;\r\n            //for (uint256 eeuType = 0; eeuType < uint256(EeuType.dummy_end); eeuType++) {\r\n            for (uint256 eeuTypeId = 0; eeuTypeId < _count_eeuTypeIds; eeuTypeId++) {\r\n                uint256[] memory type_eeuIds = _ledger[account].type_eeuIds[eeuTypeId];\r\n                for (uint256 ndx = 0; ndx < type_eeuIds.length; ndx++) {\r\n                    uint256 eeuId = type_eeuIds[ndx];\r\n\r\n                    // flattened EEU IDs\r\n                    eeuIds[flatEeuNdx] = eeuId;\r\n\r\n                    // sum EEU sizes\r\n                    eeu_sumKG += _eeus_KG[eeuId];\r\n\r\n                    // EEUs by type\r\n                    eeus[flatEeuNdx] = LedgerEeuReturn({\r\n                          eeuId: eeuId,\r\n                      eeuTypeId: eeuTypeId,\r\n                    eeuTypeName: _eeuTypeIds[eeuTypeId],\r\n                        batchId: _eeus_batchId[eeuId],\r\n                          eeuKG: _eeus_KG[eeuId]\r\n                    });\r\n\r\n                    flatEeuNdx++;\r\n                }\r\n            }\r\n        } else {\r\n            eeus = new LedgerEeuReturn[](0);\r\n            eeuIds = new uint256[](0);\r\n        }\r\n\r\n        LedgerReturn memory ret = LedgerReturn({\r\n            exists: _ledger[account].exists,\r\n              eeus: eeus,\r\n            eeuIds: eeuIds,\r\n         eeu_sumKG: eeu_sumKG,\r\n          usdCents: _ledger[account].usdCents,\r\n            ethWei: _ledger[account].ethWei\r\n        });\r\n        return ret;\r\n    }\r\n\r\n    /**\r\n     * @dev Returns the global EEU batch count\r\n     */\r\n    function getEeuBatchCount() external view returns (uint256 count) {\r\n        return _batchCurMaxId;\r\n    }\r\n\r\n    /**\r\n     * @dev Returns an EEU batch by ID\r\n     */\r\n    function getEeuBatch(uint256 id) external view returns (EeuBatch memory batch) {\r\n        return _eeuBatches[id];\r\n    }\r\n\r\n    /**\r\n     * @dev Returns an EEU by ID\r\n     */\r\n    function getEeu(uint256 id) external view returns (EeuReturn memory eeu) {\r\n        return\r\n            EeuReturn({\r\n                exists: _eeus_batchId[id] != 0,\r\n                    id: id,\r\n              mintedKG: _eeus_mintedKG[id],\r\n                    KG: _eeus_KG[id],\r\n               batchId: _eeus_batchId[id],\r\n       mintedTimestamp: _eeus_mintedTimestamp[id]\r\n            });\r\n    }\r\n}\r\n",
  "sourcePath": "C:\\ac\\src\\ac-monorepo\\packages\\erc20\\contracts\\AcMaster\\AcLedger.sol",
  "compiler": {
    "name": "solc",
    "version": "0.5.8+commit.23d335f2.Emscripten.clang"
  },
  "schemaVersion": "3.0.11",
  "updatedAt": "2019-08-05T11:21:19.587Z",
  "devdoc": {
    "methods": {
      "getEeu(uint256)": {
        "details": "Returns an EEU by ID\r"
      },
      "getEeuBatch(uint256)": {
        "details": "Returns an EEU batch by ID\r"
      },
      "getEeuBatchCount()": {
        "details": "Returns the global EEU batch count\r"
      },
      "getEeuTypeIds()": {
        "details": "Returns EEU types\r"
      },
      "getLedgerEntry(address)": {
        "details": "Returns the _ledger entry for a single account\r"
      },
      "getLedgerOwners()": {
        "details": "Returns all accounts in the ledger\r"
      }
    }
  },
  "userdoc": {
    "methods": {}
  }
}