{
  "contractName": "AcLedger",
  "abi": [
    {
      "constant": false,
      "inputs": [
        {
          "name": "name",
          "type": "string"
        },
        {
          "name": "unit",
          "type": "string"
        }
      ],
      "name": "addCcyType",
      "outputs": [],
      "payable": false,
      "stateMutability": "nonpayable",
      "type": "function"
    },
    {
      "constant": true,
      "inputs": [],
      "name": "getCcyTypes",
      "outputs": [
        {
          "components": [
            {
              "components": [
                {
                  "name": "id",
                  "type": "uint256"
                },
                {
                  "name": "name",
                  "type": "string"
                },
                {
                  "name": "unit",
                  "type": "string"
                }
              ],
              "name": "ccyTypes",
              "type": "tuple[]"
            }
          ],
          "name": "",
          "type": "tuple"
        }
      ],
      "payable": false,
      "stateMutability": "view",
      "type": "function"
    },
    {
      "constant": false,
      "inputs": [
        {
          "name": "name",
          "type": "string"
        }
      ],
      "name": "addEeuType",
      "outputs": [],
      "payable": false,
      "stateMutability": "nonpayable",
      "type": "function"
    },
    {
      "constant": true,
      "inputs": [],
      "name": "getEeuTypes",
      "outputs": [
        {
          "components": [
            {
              "components": [
                {
                  "name": "id",
                  "type": "uint256"
                },
                {
                  "name": "name",
                  "type": "string"
                }
              ],
              "name": "eeuTypes",
              "type": "tuple[]"
            }
          ],
          "name": "",
          "type": "tuple"
        }
      ],
      "payable": false,
      "stateMutability": "view",
      "type": "function"
    },
    {
      "anonymous": false,
      "inputs": [
        {
          "indexed": false,
          "name": "id",
          "type": "uint256"
        },
        {
          "indexed": false,
          "name": "name",
          "type": "string"
        },
        {
          "indexed": false,
          "name": "unit",
          "type": "string"
        }
      ],
      "name": "AddedCcyType",
      "type": "event"
    },
    {
      "anonymous": false,
      "inputs": [
        {
          "indexed": false,
          "name": "id",
          "type": "uint256"
        },
        {
          "indexed": false,
          "name": "name",
          "type": "string"
        }
      ],
      "name": "AddedEeuType",
      "type": "event"
    },
    {
      "constant": true,
      "inputs": [],
      "name": "getLedgerOwners",
      "outputs": [
        {
          "name": "",
          "type": "address[]"
        }
      ],
      "payable": false,
      "stateMutability": "view",
      "type": "function"
    },
    {
      "constant": true,
      "inputs": [
        {
          "name": "account",
          "type": "address"
        }
      ],
      "name": "getLedgerEntry",
      "outputs": [
        {
          "components": [
            {
              "name": "exists",
              "type": "bool"
            },
            {
              "components": [
                {
                  "name": "eeuId",
                  "type": "uint256"
                },
                {
                  "name": "eeuTypeId",
                  "type": "uint256"
                },
                {
                  "name": "eeuTypeName",
                  "type": "string"
                },
                {
                  "name": "batchId",
                  "type": "uint256"
                },
                {
                  "name": "eeuKG",
                  "type": "uint256"
                }
              ],
              "name": "eeus",
              "type": "tuple[]"
            },
            {
              "name": "eeu_sumKG",
              "type": "uint256"
            },
            {
              "components": [
                {
                  "name": "typeId",
                  "type": "uint256"
                },
                {
                  "name": "name",
                  "type": "string"
                },
                {
                  "name": "unit",
                  "type": "string"
                },
                {
                  "name": "balance",
                  "type": "int256"
                }
              ],
              "name": "ccys",
              "type": "tuple[]"
            }
          ],
          "name": "",
          "type": "tuple"
        }
      ],
      "payable": false,
      "stateMutability": "view",
      "type": "function"
    },
    {
      "constant": true,
      "inputs": [],
      "name": "getEeuBatchCount",
      "outputs": [
        {
          "name": "",
          "type": "uint256"
        }
      ],
      "payable": false,
      "stateMutability": "view",
      "type": "function"
    },
    {
      "constant": true,
      "inputs": [
        {
          "name": "id",
          "type": "uint256"
        }
      ],
      "name": "getEeuBatch",
      "outputs": [
        {
          "components": [
            {
              "name": "id",
              "type": "uint256"
            },
            {
              "name": "mintedTimestamp",
              "type": "uint256"
            },
            {
              "name": "eeuTypeId",
              "type": "uint256"
            },
            {
              "name": "mintedKG",
              "type": "uint256"
            },
            {
              "name": "burnedKG",
              "type": "uint256"
            }
          ],
          "name": "",
          "type": "tuple"
        }
      ],
      "payable": false,
      "stateMutability": "view",
      "type": "function"
    },
    {
      "constant": true,
      "inputs": [
        {
          "name": "id",
          "type": "uint256"
        }
      ],
      "name": "getEeu",
      "outputs": [
        {
          "components": [
            {
              "name": "exists",
              "type": "bool"
            },
            {
              "name": "id",
              "type": "uint256"
            },
            {
              "name": "mintedKG",
              "type": "uint256"
            },
            {
              "name": "KG",
              "type": "uint256"
            },
            {
              "name": "batchId",
              "type": "uint256"
            },
            {
              "name": "mintedTimestamp",
              "type": "uint256"
            }
          ],
          "name": "",
          "type": "tuple"
        }
      ],
      "payable": false,
      "stateMutability": "view",
      "type": "function"
    }
  ],
  "bytecode": "0x6080604052336000806101000a81548173ffffffffffffffffffffffffffffffffffffffff021916908373ffffffffffffffffffffffffffffffffffffffff1602179055506040518060400160405280600681526020017f554e464343430000000000000000000000000000000000000000000000000000815250600160008081526020019081526020016000209080519060200190620000a2929190620002e1565b506040518060400160405280600381526020017f56435300000000000000000000000000000000000000000000000000000000008152506001600060018152602001908152602001600020908051906020019062000102929190620002e1565b50600280819055506040518060600160405280600081526020016040518060400160405280600381526020017f555344000000000000000000000000000000000000000000000000000000000081525081526020016040518060400160405280600581526020017f63656e747300000000000000000000000000000000000000000000000000000081525081525060036000808152602001908152602001600020600082015181600001556020820151816001019080519060200190620001cb92919062000368565b506040820151816002019080519060200190620001ea92919062000368565b509050506040518060600160405280600181526020016040518060400160405280600381526020017f455448000000000000000000000000000000000000000000000000000000000081525081526020016040518060400160405280600381526020017f57656900000000000000000000000000000000000000000000000000000000008152508152506003600060018152602001908152602001600020600082015181600001556020820151816001019080519060200190620002b092919062000368565b506040820151816002019080519060200190620002cf92919062000368565b50905050600260048190555062000417565b828054600181600116156101000203166002900490600052602060002090601f016020900481019282601f106200032457805160ff191683800117855562000355565b8280016001018555821562000355579182015b828111156200035457825182559160200191906001019062000337565b5b509050620003649190620003ef565b5090565b828054600181600116156101000203166002900490600052602060002090601f016020900481019282601f10620003ab57805160ff1916838001178555620003dc565b82800160010185558215620003dc579182015b82811115620003db578251825591602001919060010190620003be565b5b509050620003eb9190620003ef565b5090565b6200041491905b8082111562000410576000816000905550600101620003f6565b5090565b90565b6121d880620004276000396000f3fe608060405234801561001057600080fd5b50600436106100935760003560e01c806351664b261161006657806351664b2614610120578063963030df1461013c5780639ce9a4a61461015a578063a89a88841461018a578063bcc376c6146101ba57610093565b80630722a4ee146100985780630834e864146100c857806319b67615146100e45780634dc26ae814610102575b600080fd5b6100b260048036036100ad91908101906114f9565b6101d8565b6040516100bf9190611de3565b60405180910390f35b6100e260048036036100dd919081019061148d565b610237565b005b6100ec610454565b6040516100f99190611e7f565b60405180910390f35b61010a61045e565b6040516101179190611e19565b60405180910390f35b61013a6004803603610135919081019061144c565b61068a565b005b610144610852565b6040516101519190611e3b565b60405180910390f35b610174600480360361016f91908101906114f9565b6109b1565b6040516101819190611dfe565b60405180910390f35b6101a4600480360361019f9190810190611423565b610a52565b6040516101b19190611e5d565b60405180910390f35b6101c261101a565b6040516101cf9190611d61565b60405180910390f35b6101e0611137565b600560008381526020019081526020016000206040518060a0016040529081600082015481526020016001820154815260200160028201548152602001600382015481526020016004820154815250509050919050565b6000809054906101000a900473ffffffffffffffffffffffffffffffffffffffff1673ffffffffffffffffffffffffffffffffffffffff163373ffffffffffffffffffffffffffffffffffffffff16146102c6576040517f08c379a00000000000000000000000000000000000000000000000000000000081526004016102bd90611d83565b60405180910390fd5b60008090505b60045481101561038757826040516020016102e79190611d33565b60405160208183030381529060405280519060200120600360008381526020019081526020016000206001016040516020016103239190611d4a565b60405160208183030381529060405280519060200120141561037a576040517f08c379a000000000000000000000000000000000000000000000000000000000815260040161037190611da3565b60405180910390fd5b80806001019150506102cc565b5060405180606001604052806004548152602001838152602001828152506003600060045481526020019081526020016000206000820151816000015560208201518160010190805190602001906103e0929190611166565b5060408201518160020190805190602001906103fd929190611166565b509050507f41c4a4be5d1fed810ab0ace2ffe78022538a72356773c24ed010e06bdf6454b7600454838360405161043693929190611eca565b60405180910390a16004600081548092919060010191905055505050565b6000600654905090565b6104666111e6565b60606004546040519080825280602002602001820160405280156104a457816020015b6104916111f9565b8152602001906001900390816104895790505b50905060008090505b60045481101561066857604051806060016040528060036000848152602001908152602001600020600001548152602001600360008481526020019081526020016000206001018054600181600116156101000203166002900480601f0160208091040260200160405190810160405280929190818152602001828054600181600116156101000203166002900480156105885780601f1061055d57610100808354040283529160200191610588565b820191906000526020600020905b81548152906001019060200180831161056b57829003601f168201915b50505050508152602001600360008481526020019081526020016000206002018054600181600116156101000203166002900480601f01602080910402602001604051908101604052809291908181526020018280546001816001161561010002031660029004801561063c5780601f106106115761010080835404028352916020019161063c565b820191906000526020600020905b81548152906001019060200180831161061f57829003601f168201915b505050505081525082828151811061065057fe5b602002602001018190525080806001019150506104ad565b506106716111e6565b6040518060200160405280838152509050809250505090565b6000809054906101000a900473ffffffffffffffffffffffffffffffffffffffff1673ffffffffffffffffffffffffffffffffffffffff163373ffffffffffffffffffffffffffffffffffffffff1614610719576040517f08c379a000000000000000000000000000000000000000000000000000000000815260040161071090611d83565b60405180910390fd5b60008090505b6002548110156107d7578160405160200161073a9190611d33565b60405160208183030381529060405280519060200120600160008381526020019081526020016000206040516020016107739190611d4a565b6040516020818303038152906040528051906020012014156107ca576040517f08c379a00000000000000000000000000000000000000000000000000000000081526004016107c190611dc3565b60405180910390fd5b808060010191505061071f565b5080600160006002548152602001908152602001600020908051906020019061080192919061121a565b507ff42a31d05ee5f17e0f159b94b9402293e9cf2265c806b4a55168aeaa3fe275e260025482604051610835929190611e9a565b60405180910390a160026000815480929190600101919050555050565b61085a61129a565b606060025460405190808252806020026020018201604052801561089857816020015b6108856112ad565b81526020019060019003908161087d5790505b50905060008090505b60025481101561098f576040518060400160405280828152602001600160008481526020019081526020016000208054600181600116156101000203166002900480601f0160208091040260200160405190810160405280929190818152602001828054600181600116156101000203166002900480156109635780601f1061093857610100808354040283529160200191610963565b820191906000526020600020905b81548152906001019060200180831161094657829003601f168201915b505050505081525082828151811061097757fe5b602002602001018190525080806001019150506108a1565b5061099861129a565b6040518060200160405280838152509050809250505090565b6109b96112c7565b6040518060c0016040528060006007600086815260200190815260200160002054141515158152602001838152602001600860008581526020019081526020016000205481526020016009600085815260200190815260200160002054815260200160076000858152602001908152602001600020548152602001600a6000858152602001908152602001600020548152509050919050565b610a5a6112ff565b6060806000809050600080905060008090505b600254811015610adf57600e60008873ffffffffffffffffffffffffffffffffffffffff1673ffffffffffffffffffffffffffffffffffffffff168152602001908152602001600020600101600082815260200190815260200160002080549050820191508080600101915050610a6d565b5080604051908082528060200260200182016040528015610b1a57816020015b610b07611329565b815260200190600190039081610aff5790505b509350600080905060008090505b600254811015610d4b576060600e60008a73ffffffffffffffffffffffffffffffffffffffff1673ffffffffffffffffffffffffffffffffffffffff1681526020019081526020016000206001016000838152602001908152602001600020805480602002602001604051908101604052809291908181526020018280548015610bd157602002820191906000526020600020905b815481526020019060010190808311610bbd575b5050505050905060008090505b8151811015610d3c576000828281518110610bf557fe5b602002602001015190506009600082815260200190815260200160002054870196506040518060a00160405280828152602001858152602001600160008781526020019081526020016000208054600181600116156101000203166002900480601f016020809104026020016040519081016040528092919081815260200182805460018160011615610100020316600290048015610cd55780601f10610caa57610100808354040283529160200191610cd5565b820191906000526020600020905b815481529060010190602001808311610cb857829003601f168201915b50505050508152602001600760008481526020019081526020016000205481526020016009600084815260200190815260200160002054815250898681518110610d1b57fe5b60200260200101819052508480600101955050508080600101915050610bde565b50508080600101915050610b28565b50600454604051908082528060200260200182016040528015610d8857816020015b610d75611358565b815260200190600190039081610d6d5790505b50935060008090505b600454811015610f8f576040518060800160405280828152602001600360008481526020019081526020016000206001018054600181600116156101000203166002900480601f016020809104026020016040519081016040528092919081815260200182805460018160011615610100020316600290048015610e565780601f10610e2b57610100808354040283529160200191610e56565b820191906000526020600020905b815481529060010190602001808311610e3957829003601f168201915b50505050508152602001600360008481526020019081526020016000206002018054600181600116156101000203166002900480601f016020809104026020016040519081016040528092919081815260200182805460018160011615610100020316600290048015610f0a5780601f10610edf57610100808354040283529160200191610f0a565b820191906000526020600020905b815481529060010190602001808311610eed57829003601f168201915b50505050508152602001600e60008b73ffffffffffffffffffffffffffffffffffffffff1673ffffffffffffffffffffffffffffffffffffffff168152602001908152602001600020600301600084815260200190815260200160002054815250858281518110610f7757fe5b60200260200101819052508080600101915050610d91565b50610f986112ff565b6040518060800160405280600e60008b73ffffffffffffffffffffffffffffffffffffffff1673ffffffffffffffffffffffffffffffffffffffff16815260200190815260200160002060000160009054906101000a900460ff1615158152602001878152602001858152602001868152509050809650505050505050919050565b60606000809054906101000a900473ffffffffffffffffffffffffffffffffffffffff1673ffffffffffffffffffffffffffffffffffffffff163373ffffffffffffffffffffffffffffffffffffffff16146110ab576040517f08c379a00000000000000000000000000000000000000000000000000000000081526004016110a290611d83565b60405180910390fd5b600f80548060200260200160405190810160405280929190818152602001828054801561112d57602002820191906000526020600020905b8160009054906101000a900473ffffffffffffffffffffffffffffffffffffffff1673ffffffffffffffffffffffffffffffffffffffff16815260200190600101908083116110e3575b5050505050905090565b6040518060a0016040528060008152602001600081526020016000815260200160008152602001600081525090565b828054600181600116156101000203166002900490600052602060002090601f016020900481019282601f106111a757805160ff19168380011785556111d5565b828001600101855582156111d5579182015b828111156111d45782518255916020019190600101906111b9565b5b5090506111e29190611380565b5090565b6040518060200160405280606081525090565b60405180606001604052806000815260200160608152602001606081525090565b828054600181600116156101000203166002900490600052602060002090601f016020900481019282601f1061125b57805160ff1916838001178555611289565b82800160010185558215611289579182015b8281111561128857825182559160200191906001019061126d565b5b5090506112969190611380565b5090565b6040518060200160405280606081525090565b604051806040016040528060008152602001606081525090565b6040518060c0016040528060001515815260200160008152602001600081526020016000815260200160008152602001600081525090565b60405180608001604052806000151581526020016060815260200160008152602001606081525090565b6040518060a0016040528060008152602001600081526020016060815260200160008152602001600081525090565b6040518060800160405280600081526020016060815260200160608152602001600081525090565b6113a291905b8082111561139e576000816000905550600101611386565b5090565b90565b6000813590506113b481612170565b92915050565b600082601f8301126113cb57600080fd5b81356113de6113d982611f3c565b611f0f565b915080825260208301602083018583830111156113fa57600080fd5b61140583828461211d565b50505092915050565b60008135905061141d81612187565b92915050565b60006020828403121561143557600080fd5b6000611443848285016113a5565b91505092915050565b60006020828403121561145e57600080fd5b600082013567ffffffffffffffff81111561147857600080fd5b611484848285016113ba565b91505092915050565b600080604083850312156114a057600080fd5b600083013567ffffffffffffffff8111156114ba57600080fd5b6114c6858286016113ba565b925050602083013567ffffffffffffffff8111156114e357600080fd5b6114ef858286016113ba565b9150509250929050565b60006020828403121561150b57600080fd5b60006115198482850161140e565b91505092915050565b600061152e838361158a565b60208301905092915050565b60006115468383611a00565b905092915050565b600061155a8383611b3a565b905092915050565b600061156e8383611bcb565b905092915050565b60006115828383611c35565b905092915050565b611593816120cb565b82525050565b60006115a482611fbb565b6115ae8185612049565b93506115b983611f68565b8060005b838110156115ea5781516115d18882611522565b97506115dc83612008565b9250506001810190506115bd565b5085935050505092915050565b600061160282611fc6565b61160c818561205a565b93508360208202850161161e85611f75565b8060005b8581101561165a578484038952815161163b858261153a565b945061164683612015565b925060208a01995050600181019050611622565b50829750879550505050505092915050565b600061167782611fd1565b611681818561206b565b93508360208202850161169385611f82565b8060005b858110156116cf57848403895281516116b0858261154e565b94506116bb83612022565b925060208a01995050600181019050611697565b50829750879550505050505092915050565b60006116ec82611fdc565b6116f6818561207c565b93508360208202850161170885611f8f565b8060005b8581101561174457848403895281516117258582611562565b94506117308361202f565b925060208a0199505060018101905061170c565b50829750879550505050505092915050565b600061176182611fe7565b61176b818561208d565b93508360208202850161177d85611f9c565b8060005b858110156117b9578484038952815161179a8582611576565b94506117a58361203c565b925060208a01995050600181019050611781565b50829750879550505050505092915050565b6117d4816120dd565b82525050565b6117e3816120e9565b82525050565b60006117f482611ffd565b6117fe81856120af565b935061180e81856020860161212c565b6118178161215f565b840191505092915050565b600061182d82611ffd565b61183781856120c0565b935061184781856020860161212c565b80840191505092915050565b600061185e82611ff2565b611868818561209e565b935061187881856020860161212c565b6118818161215f565b840191505092915050565b6000815460018116600081146118a957600181146118ce57611912565b607f60028304166118ba81876120c0565b955060ff1983168652808601935050611912565b600282046118dc81876120c0565b95506118e785611fa9565b60005b82811015611909578154818901526001820191506020810190506118ea565b82880195505050505b505092915050565b60006119276011836120af565b91507f52657374726963746564206d6574686f640000000000000000000000000000006000830152602082019050919050565b60006119676021836120af565b91507f43757272656e63792074797065206e616d6520616c726561647920657869737460008301527f73000000000000000000000000000000000000000000000000000000000000006020830152604082019050919050565b60006119cd601c836120af565b91507f4545552074797065206e616d6520616c726561647920657869737473000000006000830152602082019050919050565b6000606083016000830151611a186000860182611d15565b5060208301518482036020860152611a308282611853565b91505060408301518482036040860152611a4a8282611853565b9150508091505092915050565b60a082016000820151611a6d6000850182611d15565b506020820151611a806020850182611d15565b506040820151611a936040850182611d15565b506060820151611aa66060850182611d15565b506080820151611ab96080850182611d15565b50505050565b60c082016000820151611ad560008501826117cb565b506020820151611ae86020850182611d15565b506040820151611afb6040850182611d15565b506060820151611b0e6060850182611d15565b506080820151611b216080850182611d15565b5060a0820151611b3460a0850182611d15565b50505050565b6000604083016000830151611b526000860182611d15565b5060208301518482036020860152611b6a8282611853565b9150508091505092915050565b60006020830160008301518482036000860152611b9482826115f7565b9150508091505092915050565b60006020830160008301518482036000860152611bbe828261166c565b9150508091505092915050565b6000608083016000830151611be36000860182611d15565b5060208301518482036020860152611bfb8282611853565b91505060408301518482036040860152611c158282611853565b9150506060830151611c2a60608601826117da565b508091505092915050565b600060a083016000830151611c4d6000860182611d15565b506020830151611c606020860182611d15565b5060408301518482036040860152611c788282611853565b9150506060830151611c8d6060860182611d15565b506080830151611ca06080860182611d15565b508091505092915050565b6000608083016000830151611cc360008601826117cb565b5060208301518482036020860152611cdb8282611756565b9150506040830151611cf06040860182611d15565b5060608301518482036060860152611d0882826116e1565b9150508091505092915050565b611d1e81612113565b82525050565b611d2d81612113565b82525050565b6000611d3f8284611822565b915081905092915050565b6000611d56828461188c565b915081905092915050565b60006020820190508181036000830152611d7b8184611599565b905092915050565b60006020820190508181036000830152611d9c8161191a565b9050919050565b60006020820190508181036000830152611dbc8161195a565b9050919050565b60006020820190508181036000830152611ddc816119c0565b9050919050565b600060a082019050611df86000830184611a57565b92915050565b600060c082019050611e136000830184611abf565b92915050565b60006020820190508181036000830152611e338184611b77565b905092915050565b60006020820190508181036000830152611e558184611ba1565b905092915050565b60006020820190508181036000830152611e778184611cab565b905092915050565b6000602082019050611e946000830184611d24565b92915050565b6000604082019050611eaf6000830185611d24565b8181036020830152611ec181846117e9565b90509392505050565b6000606082019050611edf6000830186611d24565b8181036020830152611ef181856117e9565b90508181036040830152611f0581846117e9565b9050949350505050565b6000604051905081810181811067ffffffffffffffff82111715611f3257600080fd5b8060405250919050565b600067ffffffffffffffff821115611f5357600080fd5b601f19601f8301169050602081019050919050565b6000602082019050919050565b6000602082019050919050565b6000602082019050919050565b6000602082019050919050565b6000602082019050919050565b60008160005260206000209050919050565b600081519050919050565b600081519050919050565b600081519050919050565b600081519050919050565b600081519050919050565b600081519050919050565b600081519050919050565b6000602082019050919050565b6000602082019050919050565b6000602082019050919050565b6000602082019050919050565b6000602082019050919050565b600082825260208201905092915050565b600082825260208201905092915050565b600082825260208201905092915050565b600082825260208201905092915050565b600082825260208201905092915050565b600082825260208201905092915050565b600082825260208201905092915050565b600081905092915050565b60006120d6826120f3565b9050919050565b60008115159050919050565b6000819050919050565b600073ffffffffffffffffffffffffffffffffffffffff82169050919050565b6000819050919050565b82818337600083830152505050565b60005b8381101561214a57808201518184015260208101905061212f565b83811115612159576000848401525b50505050565b6000601f19601f8301169050919050565b612179816120cb565b811461218457600080fd5b50565b61219081612113565b811461219b57600080fd5b5056fea265627a7a72305820c78e6b7860734a7e325c4493984e2ad422bce6d3714b4cfc8d4df19782f6c9116c6578706572696d656e74616cf50037",
  "source": "pragma solidity 0.5.8;\r\npragma experimental ABIEncoderV2;\r\n\r\nimport \"./Owned.sol\";\r\nimport \"./EeuTypes.sol\";\r\nimport \"./CcyTypes.sol\";\r\n\r\ncontract AcLedger is Owned, EeuTypes, CcyTypes {\r\n\r\n    // *** BATCH LIST\r\n    mapping(uint256 => EeuBatch) _eeuBatches;                   // main batch list: all EEU batches, by ID\r\n    uint256 _batchCurMaxId;                                     // 1-based\r\n    struct EeuBatch {\r\n        uint256 id;                                             // global sequential id: 1-based\r\n        uint256 mintedTimestamp;                                // minting block.timestamp\r\n        uint256 eeuTypeId;                                      // EEU-type of the batch\r\n        uint256 mintedKG;                                       // total KG of carbon minted in the batch EEUs\r\n        uint256 burnedKG;                                       // total KG of carbon burned from the batch EEUs\r\n    }\r\n\r\n    // *** EEU LIST (slightly more gas effecient than mapping(uint => Eeu))\r\n    mapping(uint256 => uint256) _eeus_batchId;\r\n    mapping(uint256 => uint256) _eeus_mintedKG;\r\n    mapping(uint256 => uint256) _eeus_KG;                       // == 0 indicates fully burned, != _eeus_mintedKG indicates partially burned\r\n    mapping(uint256 => uint256) _eeus_mintedTimestamp;\r\n    uint256 _eeu_totalMintedKG;\r\n    uint256 _eeu_totalBurnedKG;\r\n    uint256 _eeuCurMaxId;                                       // 1-based - TODO: to be updated by Mint() **and Split()** ...\r\n        // return structs\r\n        struct EeuReturn {\r\n            bool    exists;                                     // for existence check by id\r\n            uint256 id;                                         // global sequential id: 1-based\r\n            uint256 mintedKG;                                   // initial KG minted in the EEU\r\n            uint256 KG;                                         // current variable KG in the EEU (i.e. burned = KG - mintedKG)\r\n            uint256 batchId;                                    // parent batch ID\r\n            uint256 mintedTimestamp;                            // minting block.timestamp\r\n        }\r\n\r\n    // *** LEDGER\r\n    mapping(address => Ledger) _ledger;                         // main ledger list: all entries, by account\r\n    address[] _ledgerOwners;                                    // list of ledger owners (accounts)\r\n    //mapping(bytes32 => bool) _ownsEeuId;                      // old: for EEU ownership lookup: by keccak256(ledgerOwner, EEU ID)\r\n    struct Ledger {\r\n        bool                          exists;                   // for existance check by address\r\n        mapping(uint256 => uint256[]) eeuType_eeuIds;           // EeuTypeId -> eeuId[] of all owned vEEU(s)\r\n        mapping(uint256 => uint256)   eeuType_sumKG;            // EeuTypeId -> sum KG carbon in all owned vEEU(s)\r\n        mapping(uint256 => int256)    ccyType_balance;          // CcyTypeId -> balance (allows -ve balance, will overflow at ~5*10^76 (2^256/2))\r\n    }\r\n    mapping(uint256 => int256) _ccyType_totalFunded;\r\n    mapping(uint256 => int256) _ccyType_totalWithdrawn;\r\n        // return structs\r\n        struct LedgerEeuReturn {                                // ledger return structure (can't pass out nested arrays)\r\n            uint256 eeuId;\r\n            uint256 eeuTypeId;\r\n            string  eeuTypeName;\r\n            uint256 batchId;\r\n            uint256 eeuKG;\r\n        }\r\n        struct LedgerCcyReturn {\r\n            uint256 typeId;\r\n            string  name;\r\n            string  unit;\r\n            int256  balance;\r\n        }\r\n        struct LedgerReturn {\r\n            bool              exists;\r\n            LedgerEeuReturn[] eeus;                             // EEUs with type & size (KG) information - v2\r\n            uint256           eeu_sumKG;                        // retained for caller convenience - v1\r\n            LedgerCcyReturn[] ccys;                             // currency balances\r\n        }\r\n\r\n    /**\r\n     * @dev Returns all accounts in the ledger\r\n     */\r\n    function getLedgerOwners() external view returns (address[] memory) {\r\n        require(msg.sender == owner, \"Restricted method\");\r\n        return _ledgerOwners;\r\n    }\r\n\r\n    /**\r\n     * @dev Returns the ledger entry for a single account\r\n     */\r\n    function getLedgerEntry(address account) external view returns (LedgerReturn memory) {\r\n        LedgerEeuReturn[] memory eeus;\r\n        LedgerCcyReturn[] memory ccys;\r\n        uint256 eeu_sumKG = 0;\r\n        \r\n        //if (_ledger[account].exists) {\r\n\r\n            // count total # of eeus across all types\r\n            uint256 countAllEeus = 0;\r\n            for (uint256 eeuTypeId = 0; eeuTypeId < _count_eeuTypes; eeuTypeId++) {\r\n                countAllEeus += _ledger[account].eeuType_eeuIds[eeuTypeId].length;\r\n            }\r\n\r\n            // flatten EEU IDs and sum sizes across types\r\n            eeus = new LedgerEeuReturn[](countAllEeus);\r\n            uint256 flatEeuNdx = 0;\r\n            for (uint256 eeuTypeId = 0; eeuTypeId < _count_eeuTypes; eeuTypeId++) {\r\n                uint256[] memory eeuType_eeuIds = _ledger[account].eeuType_eeuIds[eeuTypeId];\r\n                for (uint256 ndx = 0; ndx < eeuType_eeuIds.length; ndx++) {\r\n                    uint256 eeuId = eeuType_eeuIds[ndx];\r\n\r\n                    // sum EEU sizes - convenience for caller\r\n                    eeu_sumKG += _eeus_KG[eeuId];\r\n\r\n                    // EEUs by type\r\n                    eeus[flatEeuNdx] = LedgerEeuReturn({\r\n                          eeuId: eeuId,\r\n                      eeuTypeId: eeuTypeId,\r\n                    eeuTypeName: _eeuTypeNames[eeuTypeId],\r\n                        batchId: _eeus_batchId[eeuId],\r\n                          eeuKG: _eeus_KG[eeuId]\r\n                    });\r\n                    flatEeuNdx++;\r\n                }\r\n            }\r\n\r\n            // populate balances for each currency type\r\n            ccys = new LedgerCcyReturn[](_count_ccyTypes);\r\n            for (uint256 ccyTypeId = 0; ccyTypeId < _count_ccyTypes; ccyTypeId++) {\r\n                ccys[ccyTypeId] = LedgerCcyReturn({\r\n                       typeId: ccyTypeId,\r\n                         name: _ccyTypes[ccyTypeId].name,\r\n                         unit: _ccyTypes[ccyTypeId].unit,\r\n                      balance: _ledger[account].ccyType_balance[ccyTypeId]\r\n                });\r\n            }\r\n        //}\r\n        /*else {\r\n            eeus = new LedgerEeuReturn[](0);\r\n            ccys = new LedgerCcyReturn[](_count_ccyTypes);\r\n            for (uint256 ccyTypeId = 0; ccyTypeId < _count_ccyTypes; ccyTypeId++) {\r\n                //...\r\n            }\r\n        }*/\r\n\r\n        LedgerReturn memory ret = LedgerReturn({\r\n            exists: _ledger[account].exists,\r\n              eeus: eeus,\r\n         eeu_sumKG: eeu_sumKG,\r\n              ccys: ccys\r\n        });\r\n        return ret;\r\n    }\r\n\r\n    /**\r\n     * @dev Returns the global EEU batch count\r\n     */\r\n    function getEeuBatchCount() external view returns (uint256) {\r\n        return _batchCurMaxId; // 1-based\r\n    }\r\n\r\n    /**\r\n     * @dev Returns an EEU batch by ID\r\n     */\r\n    function getEeuBatch(uint256 id) external view returns (EeuBatch memory) {\r\n        return _eeuBatches[id];\r\n    }\r\n\r\n    /**\r\n     * @dev Returns an EEU by ID\r\n     */\r\n    function getEeu(uint256 id) external view returns (EeuReturn memory) {\r\n        return\r\n            EeuReturn({\r\n                exists: _eeus_batchId[id] != 0,\r\n                    id: id,\r\n              mintedKG: _eeus_mintedKG[id],\r\n                    KG: _eeus_KG[id],\r\n               batchId: _eeus_batchId[id],\r\n       mintedTimestamp: _eeus_mintedTimestamp[id]\r\n            });\r\n    }\r\n}\r\n",
  "sourcePath": "C:\\ac\\src\\ac-monorepo\\packages\\erc20\\contracts\\AcMaster\\AcLedger.sol",
  "compiler": {
    "name": "solc",
    "version": "0.5.8+commit.23d335f2.Emscripten.clang"
  },
  "schemaVersion": "3.0.11",
  "updatedAt": "2019-08-07T04:54:44.753Z",
  "devdoc": {
    "methods": {
      "addCcyType(string,string)": {
        "details": "Adds a new currency type\r",
        "params": {
          "name": "The new currency type name\r",
          "unit": "The base unit of the new currency type\r"
        }
      },
      "addEeuType(string)": {
        "details": "Adds a new EEU type\r",
        "params": {
          "name": "The new EEU type name\r"
        }
      },
      "getCcyTypes()": {
        "details": "Returns current currency types\r"
      },
      "getEeu(uint256)": {
        "details": "Returns an EEU by ID\r"
      },
      "getEeuBatch(uint256)": {
        "details": "Returns an EEU batch by ID\r"
      },
      "getEeuBatchCount()": {
        "details": "Returns the global EEU batch count\r"
      },
      "getEeuTypes()": {
        "details": "Returns current EEU types\r"
      },
      "getLedgerEntry(address)": {
        "details": "Returns the ledger entry for a single account\r"
      },
      "getLedgerOwners()": {
        "details": "Returns all accounts in the ledger\r"
      }
    }
  },
  "userdoc": {
    "methods": {}
  }
}