{
  "contractName": "AcMaster",
  "abi": [
    {
      "constant": true,
      "inputs": [
        {
          "name": "id",
          "type": "uint256"
        }
      ],
      "name": "getEeuBatch",
      "outputs": [
        {
          "components": [
            {
              "name": "id",
              "type": "uint256"
            },
            {
              "name": "mintedTimestamp",
              "type": "uint256"
            },
            {
              "name": "eeuType",
              "type": "uint8"
            },
            {
              "name": "mintedKG",
              "type": "uint256"
            },
            {
              "name": "burnedKG",
              "type": "uint256"
            }
          ],
          "name": "batch",
          "type": "tuple"
        }
      ],
      "payable": false,
      "stateMutability": "view",
      "type": "function"
    },
    {
      "constant": true,
      "inputs": [],
      "name": "getEeuBatchCount",
      "outputs": [
        {
          "name": "count",
          "type": "uint256"
        }
      ],
      "payable": false,
      "stateMutability": "view",
      "type": "function"
    },
    {
      "constant": true,
      "inputs": [],
      "name": "getEeuMintedCount",
      "outputs": [
        {
          "name": "count",
          "type": "uint256"
        }
      ],
      "payable": false,
      "stateMutability": "view",
      "type": "function"
    },
    {
      "constant": false,
      "inputs": [
        {
          "name": "eeuType",
          "type": "uint8"
        },
        {
          "name": "qtyKG",
          "type": "int256"
        },
        {
          "name": "qtyEeus",
          "type": "int256"
        },
        {
          "name": "batchOwner",
          "type": "address"
        }
      ],
      "name": "mintEeuBatch",
      "outputs": [],
      "payable": false,
      "stateMutability": "nonpayable",
      "type": "function"
    },
    {
      "constant": true,
      "inputs": [],
      "name": "version",
      "outputs": [
        {
          "name": "",
          "type": "string"
        }
      ],
      "payable": false,
      "stateMutability": "view",
      "type": "function"
    },
    {
      "constant": false,
      "inputs": [
        {
          "name": "ledgerOwner",
          "type": "address"
        },
        {
          "name": "eeuType",
          "type": "uint8"
        },
        {
          "name": "qtyKG",
          "type": "int256"
        }
      ],
      "name": "burnEeus",
      "outputs": [],
      "payable": false,
      "stateMutability": "nonpayable",
      "type": "function"
    },
    {
      "constant": true,
      "inputs": [
        {
          "name": "id",
          "type": "uint256"
        }
      ],
      "name": "getEeu",
      "outputs": [
        {
          "components": [
            {
              "name": "exists",
              "type": "bool"
            },
            {
              "name": "id",
              "type": "uint256"
            },
            {
              "name": "mintedKG",
              "type": "uint256"
            },
            {
              "name": "KG",
              "type": "uint256"
            },
            {
              "name": "batchId",
              "type": "uint256"
            },
            {
              "name": "mintedTimestamp",
              "type": "uint256"
            }
          ],
          "name": "eeu",
          "type": "tuple"
        }
      ],
      "payable": false,
      "stateMutability": "view",
      "type": "function"
    },
    {
      "constant": true,
      "inputs": [
        {
          "name": "account",
          "type": "address"
        }
      ],
      "name": "getLedgerEntry",
      "outputs": [
        {
          "components": [
            {
              "name": "exists",
              "type": "bool"
            },
            {
              "components": [
                {
                  "name": "eeuType",
                  "type": "uint8"
                },
                {
                  "name": "batchId",
                  "type": "uint256"
                },
                {
                  "name": "eeuId",
                  "type": "uint256"
                },
                {
                  "name": "eeuKG",
                  "type": "uint256"
                }
              ],
              "name": "eeus",
              "type": "tuple[]"
            },
            {
              "name": "eeuIds",
              "type": "uint256[]"
            },
            {
              "name": "eeu_sumKG",
              "type": "uint256"
            },
            {
              "name": "usdCents",
              "type": "uint256"
            },
            {
              "name": "ethWei",
              "type": "uint256"
            }
          ],
          "name": "entry",
          "type": "tuple"
        }
      ],
      "payable": false,
      "stateMutability": "view",
      "type": "function"
    },
    {
      "constant": true,
      "inputs": [],
      "name": "getKgCarbonMinted",
      "outputs": [
        {
          "name": "count",
          "type": "uint256"
        }
      ],
      "payable": false,
      "stateMutability": "view",
      "type": "function"
    },
    {
      "constant": true,
      "inputs": [],
      "name": "getKgCarbonBurned",
      "outputs": [
        {
          "name": "count",
          "type": "uint256"
        }
      ],
      "payable": false,
      "stateMutability": "view",
      "type": "function"
    },
    {
      "inputs": [],
      "payable": false,
      "stateMutability": "nonpayable",
      "type": "constructor"
    },
    {
      "anonymous": false,
      "inputs": [
        {
          "indexed": false,
          "name": "id",
          "type": "uint256"
        }
      ],
      "name": "BurnedFullEeu",
      "type": "event"
    },
    {
      "anonymous": false,
      "inputs": [
        {
          "indexed": false,
          "name": "id",
          "type": "uint256"
        }
      ],
      "name": "BurnedPartialEeu",
      "type": "event"
    },
    {
      "anonymous": false,
      "inputs": [
        {
          "indexed": false,
          "name": "id",
          "type": "uint256"
        }
      ],
      "name": "MintedEeuBatch",
      "type": "event"
    },
    {
      "anonymous": false,
      "inputs": [
        {
          "indexed": false,
          "name": "id",
          "type": "uint256"
        }
      ],
      "name": "MintedEeu",
      "type": "event"
    }
  ],
  "bytecode": "0x60806040523480156200001157600080fd5b50336000806101000a81548173ffffffffffffffffffffffffffffffffffffffff021916908373ffffffffffffffffffffffffffffffffffffffff1602179055506040518060400160405280600581526020017f302e302e34000000000000000000000000000000000000000000000000000000815250600c90805190602001906200009f929190620000a6565b5062000155565b828054600181600116156101000203166002900490600052602060002090601f016020900481019282601f10620000e957805160ff19168380011785556200011a565b828001600101855582156200011a579182015b8281111562000119578251825591602001919060010190620000fc565b5b5090506200012991906200012d565b5090565b6200015291905b808211156200014e57600081600090555060010162000134565b5090565b90565b611fb380620001656000396000f3fe608060405234801561001057600080fd5b506004361061009e5760003560e01c806371f2b1471161006657806371f2b147146101495780639ce9a4a614610165578063a89a888414610195578063ba0138cb146101c5578063e3f64b35146101e35761009e565b80630722a4ee146100a357806319b67615146100d35780633846d448146100f15780633dc741141461010f57806354fd4d501461012b575b600080fd5b6100bd60048036036100b89190810190611646565b610201565b6040516100ca9190611d26565b60405180910390f35b6100db610283565b6040516100e89190611d7e565b60405180910390f35b6100f961028d565b6040516101069190611d7e565b60405180910390f35b610129600480360361012491908101906115e3565b610297565b005b610133610884565b6040516101409190611c24565b60405180910390f35b610163600480360361015e9190810190611594565b610922565b005b61017f600480360361017a9190810190611646565b610e92565b60405161018c9190611d41565b60405180910390f35b6101af60048036036101aa919081019061156b565b610f33565b6040516101bc9190611d5c565b60405180910390f35b6101cd6113d5565b6040516101da9190611d7e565b60405180910390f35b6101eb6113df565b6040516101f89190611d7e565b60405180910390f35b6102096113e9565b600160008381526020019081526020016000206040518060a001604052908160008201548152602001600182015481526020016002820160009054906101000a900460ff16600281111561025957fe5b600281111561026457fe5b8152602001600382015481526020016004820154815250509050919050565b6000600254905090565b6000600954905090565b6000809054906101000a900473ffffffffffffffffffffffffffffffffffffffff1673ffffffffffffffffffffffffffffffffffffffff163373ffffffffffffffffffffffffffffffffffffffff1614610326576040517f08c379a000000000000000000000000000000000000000000000000000000000815260040161031d90611c86565b60405180910390fd5b6103e883121561036b576040517f08c379a000000000000000000000000000000000000000000000000000000000815260040161036290611cc6565b60405180910390fd5b60028081111561037757fe5b84600281111561038357fe5b14156103c4576040517f08c379a00000000000000000000000000000000000000000000000000000000081526004016103bb90611c66565b60405180910390fd5b6001821215610408576040517f08c379a00000000000000000000000000000000000000000000000000000000081526004016103ff90611d06565b60405180910390fd5b600082848161041357fe5b0714610454576040517f08c379a000000000000000000000000000000000000000000000000000000000815260040161044b90611ca6565b60405180910390fd5b61045c6113e9565b6040518060a00160405280600160025401815260200142815260200186600281111561048457fe5b815260200185815260200160008152509050806001600083600001518152602001908152602001600020600082015181600001556020820151816001015560408201518160020160006101000a81548160ff021916908360028111156104e657fe5b021790555060608201518160030155608082015181600401559050506002600081548092919060010191905055507fba7d8b85a9434f2fd64b297bb950e65e9e5ecb740a5849858b2d0feaa060dc7f81600001516040516105479190611d7e565b60405180910390a160001515600a60008473ffffffffffffffffffffffffffffffffffffffff1673ffffffffffffffffffffffffffffffffffffffff16815260200190815260200160002060000160009054906101000a900460ff1615151415610642576040518060600160405280600115158152602001600081526020016000815250600a60008473ffffffffffffffffffffffffffffffffffffffff1673ffffffffffffffffffffffffffffffffffffffff16815260200190815260200160002060008201518160000160006101000a81548160ff02191690831515021790555060208201518160030155604082015181600401559050505b60008090505b838112156107f057600081600160095401019050600085878161066757fe5b049050836000015160036000848152602001908152602001600020819055508060046000848152602001908152602001600020819055508060056000848152602001908152602001600020819055504260066000848152602001908152602001600020819055507f1caa6478e2895200416932562f54b40f7cb48c9b101106ba5872fa749e116977826040516106fd9190611d7e565b60405180910390a1600a60008673ffffffffffffffffffffffffffffffffffffffff1673ffffffffffffffffffffffffffffffffffffffff168152602001908152602001600020600101600089600281111561075557fe5b81526020019081526020016000208290806001815401808255809150509060018203906000526020600020016000909192909190915055506001600b600087856040516020016107a6929190611bf8565b60405160208183030381529060405280519060200120815260200190815260200160002060006101000a81548160ff02191690831515021790555050508080600101915050610648565b5083600a60008473ffffffffffffffffffffffffffffffffffffffff1673ffffffffffffffffffffffffffffffffffffffff168152602001908152602001600020600201600087600281111561084257fe5b81526020019081526020016000206000828254019250508190555082600960008282540192505081905550836007600082825401925050819055505050505050565b600c8054600181600116156101000203166002900480601f01602080910402602001604051908101604052809291908181526020018280546001816001161561010002031660029004801561091a5780601f106108ef5761010080835404028352916020019161091a565b820191906000526020600020905b8154815290600101906020018083116108fd57829003601f168201915b505050505081565b6000809054906101000a900473ffffffffffffffffffffffffffffffffffffffff1673ffffffffffffffffffffffffffffffffffffffff163373ffffffffffffffffffffffffffffffffffffffff16146109b1576040517f08c379a00000000000000000000000000000000000000000000000000000000081526004016109a890611c86565b60405180910390fd5b60011515600a60008573ffffffffffffffffffffffffffffffffffffffff1673ffffffffffffffffffffffffffffffffffffffff16815260200190815260200160002060000160009054906101000a900460ff16151514610a47576040517f08c379a0000000000000000000000000000000000000000000000000000000008152600401610a3e90611c46565b60405180910390fd5b6103e8811215610a8c576040517f08c379a0000000000000000000000000000000000000000000000000000000008152600401610a8390611cc6565b60405180910390fd5b600280811115610a9857fe5b826002811115610aa457fe5b1415610ae5576040517f08c379a0000000000000000000000000000000000000000000000000000000008152600401610adc90611c66565b60405180910390fd5b80600a60008573ffffffffffffffffffffffffffffffffffffffff1673ffffffffffffffffffffffffffffffffffffffff1681526020019081526020016000206002016000846002811115610b3657fe5b8152602001908152602001600020541015610b86576040517f08c379a0000000000000000000000000000000000000000000000000000000008152600401610b7d90611ce6565b60405180910390fd5b600080905060008290505b6000811115610e7b576000600a60008773ffffffffffffffffffffffffffffffffffffffff1673ffffffffffffffffffffffffffffffffffffffff1681526020019081526020016000206001016000866002811115610bec57fe5b815260200190815260200160002090506000818481548110610c0a57fe5b90600052602060002001549050600060056000838152602001908152602001600020549050600060036000848152602001908152602001600020549050818510610d85576000600560008581526020019081526020016000208190555083600185805490500381548110610c7a57fe5b9060005260206000200154848781548110610c9157fe5b906000526020600020018190555083805480919060019003610cb39190611423565b5081600a60008b73ffffffffffffffffffffffffffffffffffffffff1673ffffffffffffffffffffffffffffffffffffffff16815260200190815260200160002060020160008a6002811115610d0557fe5b81526020019081526020016000206000828254039250508190555081600160008381526020019081526020016000206004016000828254019250508190555081850394507f44d48a2d499b338571c4e4b0c39583cb65555390c814c6b5e16413725794d96483604051610d789190611d7e565b60405180910390a1610e72565b84600560008581526020019081526020016000206000828254039250508190555084600a60008b73ffffffffffffffffffffffffffffffffffffffff1673ffffffffffffffffffffffffffffffffffffffff16815260200190815260200160002060020160008a6002811115610df757fe5b815260200190815260200160002060008282540392505081905550846001600083815260200190815260200160002060040160008282540192505081905550600094507fa5851f1622aa71caf9f97a923b1cc1710d7dad8784c6b8d52c7f1dcf760e96d783604051610e699190611d7e565b60405180910390a15b50505050610b91565b826008600082825401925050819055505050505050565b610e9a61144f565b6040518060c001604052806000600360008681526020019081526020016000205414151515815260200183815260200160046000858152602001908152602001600020548152602001600560008581526020019081526020016000205481526020016003600085815260200190815260200160002054815260200160066000858152602001908152602001600020548152509050919050565b610f3b611487565b6060806000809050600a60008673ffffffffffffffffffffffffffffffffffffffff1673ffffffffffffffffffffffffffffffffffffffff16815260200190815260200160002060000160009054906101000a900460ff161561124b57600080905060008090505b600280811115610faf57fe5b81101561101e57600a60008873ffffffffffffffffffffffffffffffffffffffff1673ffffffffffffffffffffffffffffffffffffffff168152602001908152602001600020600101600082815260200190815260200160002080549050820191508080600101915050610fa3565b508060405190808252806020026020018201604052801561105957816020015b6110466114bf565b81526020019060019003908161103e5790505b5093508060405190808252806020026020018201604052801561108b5781602001602082028038833980820191505090505b509250600080905060008090505b6002808111156110a557fe5b811015611243576060600a60008a73ffffffffffffffffffffffffffffffffffffffff1673ffffffffffffffffffffffffffffffffffffffff168152602001908152602001600020600101600083815260200190815260200160002080548060200260200160405190810160405280929190818152602001828054801561114b57602002820191906000526020600020905b815481526020019060010190808311611137575b5050505050905060008090505b815181101561123457600082828151811061116f57fe5b602002602001015190508088868151811061118657fe5b60200260200101818152505060056000828152602001908152602001600020548701965060405180608001604052808560028111156111c157fe5b60028111156111cc57fe5b815260200160036000848152602001908152602001600020548152602001828152602001600560008481526020019081526020016000205481525089868151811061121357fe5b60200260200101819052508480600101955050508080600101915050611158565b50508080600101915050611099565b5050506112bd565b600060405190808252806020026020018201604052801561128657816020015b6112736114bf565b81526020019060019003908161126b5790505b50925060006040519080825280602002602001820160405280156112b95781602001602082028038833980820191505090505b5091505b6112c5611487565b6040518060c00160405280600a60008973ffffffffffffffffffffffffffffffffffffffff1673ffffffffffffffffffffffffffffffffffffffff16815260200190815260200160002060000160009054906101000a900460ff1615158152602001858152602001848152602001838152602001600a60008973ffffffffffffffffffffffffffffffffffffffff1673ffffffffffffffffffffffffffffffffffffffff168152602001908152602001600020600301548152602001600a60008973ffffffffffffffffffffffffffffffffffffffff1673ffffffffffffffffffffffffffffffffffffffff16815260200190815260200160002060040154815250905080945050505050919050565b6000600754905090565b6000600854905090565b6040518060a0016040528060008152602001600081526020016000600281111561140f57fe5b815260200160008152602001600081525090565b81548183558181111561144a5781836000526020600020918201910161144991906114f2565b5b505050565b6040518060c0016040528060001515815260200160008152602001600081526020016000815260200160008152602001600081525090565b6040518060c0016040528060001515815260200160608152602001606081526020016000815260200160008152602001600081525090565b6040518060800160405280600060028111156114d757fe5b81526020016000815260200160008152602001600081525090565b61151491905b808211156115105760008160009055506001016114f8565b5090565b90565b60008135905061152681611f24565b92915050565b60008135905061153b81611f3b565b92915050565b60008135905061155081611f4b565b92915050565b60008135905061156581611f62565b92915050565b60006020828403121561157d57600080fd5b600061158b84828501611517565b91505092915050565b6000806000606084860312156115a957600080fd5b60006115b786828701611517565b93505060206115c88682870161152c565b92505060406115d986828701611541565b9150509250925092565b600080600080608085870312156115f957600080fd5b60006116078782880161152c565b945050602061161887828801611541565b935050604061162987828801611541565b925050606061163a87828801611517565b91505092959194509250565b60006020828403121561165857600080fd5b600061166684828501611556565b91505092915050565b600061167b8383611ade565b60808301905092915050565b60006116938383611bc3565b60208301905092915050565b6116b06116ab82611e21565b611ecb565b82525050565b60006116c182611db3565b6116cb8185611dee565b93506116d683611d99565b8060005b838110156117075781516116ee888261166f565b97506116f983611dd4565b9250506001810190506116da565b5085935050505092915050565b600061171f82611dbe565b6117298185611dff565b935061173483611da6565b8060005b8381101561176557815161174c8882611687565b975061175783611de1565b925050600181019050611738565b5085935050505092915050565b61177b81611e33565b82525050565b61178a81611e86565b82525050565b600061179b82611dc9565b6117a58185611e10565b93506117b5818560208601611e98565b6117be81611ef9565b840191505092915050565b60006117d6601483611e10565b91507f496e76616c6964206c6564676572206f776e65720000000000000000000000006000830152602082019050919050565b6000611816601083611e10565b91507f496e76616c6964204545552074797065000000000000000000000000000000006000830152602082019050919050565b6000611856601183611e10565b91507f52657374726963746564206d6574686f640000000000000000000000000000006000830152602082019050919050565b6000611896602a83611e10565b91507f436172626f6e20776569676874206d75737420646976696465206576656e6c7960008301527f20696e746f2045455573000000000000000000000000000000000000000000006020830152604082019050919050565b60006118fc602983611e10565b91507f4d696e696d756d206f6e65206d657472696320746f6e206f6620636172626f6e60008301527f20726571756972656400000000000000000000000000000000000000000000006020830152604082019050919050565b6000611962602883611e10565b91507f496e73756666696369656e7420636172626f6e2068656c64206279206c65646760008301527f6572206f776e65720000000000000000000000000000000000000000000000006020830152604082019050919050565b60006119c8601883611e10565b91507f4d696e696d756d206f6e652045455520726571756972656400000000000000006000830152602082019050919050565b60a082016000820151611a116000850182611bc3565b506020820151611a246020850182611bc3565b506040820151611a376040850182611781565b506060820151611a4a6060850182611bc3565b506080820151611a5d6080850182611bc3565b50505050565b60c082016000820151611a796000850182611772565b506020820151611a8c6020850182611bc3565b506040820151611a9f6040850182611bc3565b506060820151611ab26060850182611bc3565b506080820151611ac56080850182611bc3565b5060a0820151611ad860a0850182611bc3565b50505050565b608082016000820151611af46000850182611781565b506020820151611b076020850182611bc3565b506040820151611b1a6040850182611bc3565b506060820151611b2d6060850182611bc3565b50505050565b600060c083016000830151611b4b6000860182611772565b5060208301518482036020860152611b6382826116b6565b91505060408301518482036040860152611b7d8282611714565b9150506060830151611b926060860182611bc3565b506080830151611ba56080860182611bc3565b5060a0830151611bb860a0860182611bc3565b508091505092915050565b611bcc81611e7c565b82525050565b611bdb81611e7c565b82525050565b611bf2611bed82611e7c565b611eef565b82525050565b6000611c04828561169f565b601482019150611c148284611be1565b6020820191508190509392505050565b60006020820190508181036000830152611c3e8184611790565b905092915050565b60006020820190508181036000830152611c5f816117c9565b9050919050565b60006020820190508181036000830152611c7f81611809565b9050919050565b60006020820190508181036000830152611c9f81611849565b9050919050565b60006020820190508181036000830152611cbf81611889565b9050919050565b60006020820190508181036000830152611cdf816118ef565b9050919050565b60006020820190508181036000830152611cff81611955565b9050919050565b60006020820190508181036000830152611d1f816119bb565b9050919050565b600060a082019050611d3b60008301846119fb565b92915050565b600060c082019050611d566000830184611a63565b92915050565b60006020820190508181036000830152611d768184611b33565b905092915050565b6000602082019050611d936000830184611bd2565b92915050565b6000602082019050919050565b6000602082019050919050565b600081519050919050565b600081519050919050565b600081519050919050565b6000602082019050919050565b6000602082019050919050565b600082825260208201905092915050565b600082825260208201905092915050565b600082825260208201905092915050565b6000611e2c82611e5c565b9050919050565b60008115159050919050565b6000819050611e4d82611f17565b919050565b6000819050919050565b600073ffffffffffffffffffffffffffffffffffffffff82169050919050565b6000819050919050565b6000611e9182611e3f565b9050919050565b60005b83811015611eb6578082015181840152602081019050611e9b565b83811115611ec5576000848401525b50505050565b6000611ed682611edd565b9050919050565b6000611ee882611f0a565b9050919050565b6000819050919050565b6000601f19601f8301169050919050565b60008160601b9050919050565b60038110611f2157fe5b50565b611f2d81611e21565b8114611f3857600080fd5b50565b60038110611f4857600080fd5b50565b611f5481611e52565b8114611f5f57600080fd5b50565b611f6b81611e7c565b8114611f7657600080fd5b5056fea265627a7a72305820e9bc23d8f9f63cf8a01f6ecdbca0b95e5246b7ccb96af8619f8e5815ad232f796c6578706572696d656e74616cf50037",
  "source": "pragma solidity 0.5.8;\r\npragma experimental ABIEncoderV2;\r\n\r\nimport \"./EeuMintable.sol\";\r\nimport \"./EeuBurnable.sol\";\r\nimport \"./EeuTradable.sol\";\r\n\r\ncontract AcMaster is EeuMintable, EeuBurnable, EeuTradable {\r\n    string public version;\r\n\r\n    /**\r\n     * ctor\r\n     */\r\n    constructor() public {\r\n        version = \"0.0.4\";\r\n    }\r\n\r\n}\r\n",
  "sourcePath": "C:/ac/src/ac-monorepo/packages/erc20/contracts/AcMaster/AcMaster.sol",
  "compiler": {
    "name": "solc",
    "version": "0.5.8+commit.23d335f2.Emscripten.clang"
  },
  "schemaVersion": "3.0.11",
  "updatedAt": "2019-08-05T05:27:40.334Z",
  "devdoc": {
    "methods": {
      "burnEeus(address,uint8,int256)": {
        "params": {
          "eeuType": "EEU type\r",
          "ledgerOwner": "owner address of the EEUs in the _ledger\r",
          "qtyKG": "tonnage to burn\r"
        }
      },
      "getEeu(uint256)": {
        "details": "Returns an EEU by ID\r"
      },
      "getEeuBatch(uint256)": {
        "details": "Returns an EEU batch by ID\r"
      },
      "getEeuBatchCount()": {
        "details": "Returns the global EEU batch count\r"
      },
      "getEeuMintedCount()": {
        "details": "Returns the global no. of EEUs minted\r"
      },
      "getKgCarbonBurned()": {
        "details": "Returns the global no. of KGs carbon burned in EEUs\r"
      },
      "getKgCarbonMinted()": {
        "details": "Returns the global no. of KGs carbon minted in EEUs\r"
      },
      "getLedgerEntry(address)": {
        "details": "Returns the _ledger entry for an account\r"
      },
      "mintEeuBatch(uint8,int256,int256,address)": {
        "params": {
          "batchOwner": "who to assign the minted EEUs to\r",
          "eeuType": "EEU-type for the batch\r",
          "qtyEeus": "quantity of EEUs in the batch\r",
          "qtyKG": "KG quanity of carbon to mint across the EEUs\r"
        }
      }
    }
  },
  "userdoc": {
    "methods": {
      "burnEeus(address,uint8,int256)": {
        "notice": "burns carbons by resizing EEUs, and/or removing EEUs from the _ledger.\r removes EEUs (or fractions thereof) from the main list and from the _ledger, resizing as necessary.\r the supplied _ledger owner must hold the supplied quantity of carbon in aggregate across _ledger EEUs, and of the supplied type.\r"
      },
      "constructor": "ctor\r",
      "mintEeuBatch(uint8,int256,int256,address)": {
        "notice": "mint and assign ownership new EEU batch\r"
      }
    }
  }
}