{
  "contractName": "AcMaster",
  "abi": [
    {
      "constant": true,
      "inputs": [
        {
          "name": "",
          "type": "uint256"
        }
      ],
      "name": "fee_eeuType_Fixed",
      "outputs": [
        {
          "name": "",
          "type": "uint256"
        }
      ],
      "payable": false,
      "stateMutability": "view",
      "type": "function"
    },
    {
      "constant": true,
      "inputs": [
        {
          "name": "id",
          "type": "uint256"
        }
      ],
      "name": "getEeuBatch",
      "outputs": [
        {
          "components": [
            {
              "name": "id",
              "type": "uint256"
            },
            {
              "name": "mintedTimestamp",
              "type": "uint256"
            },
            {
              "name": "eeuTypeId",
              "type": "uint256"
            },
            {
              "name": "mintedKG",
              "type": "uint256"
            },
            {
              "name": "burnedKG",
              "type": "uint256"
            }
          ],
          "name": "",
          "type": "tuple"
        }
      ],
      "payable": false,
      "stateMutability": "view",
      "type": "function"
    },
    {
      "constant": false,
      "inputs": [
        {
          "name": "name",
          "type": "string"
        },
        {
          "name": "unit",
          "type": "string"
        }
      ],
      "name": "addCcyType",
      "outputs": [],
      "payable": false,
      "stateMutability": "nonpayable",
      "type": "function"
    },
    {
      "constant": false,
      "inputs": [
        {
          "name": "ccyTypeId",
          "type": "uint256"
        },
        {
          "name": "amount",
          "type": "int256"
        },
        {
          "name": "ledgerOwner",
          "type": "address"
        }
      ],
      "name": "withdraw",
      "outputs": [],
      "payable": false,
      "stateMutability": "nonpayable",
      "type": "function"
    },
    {
      "constant": true,
      "inputs": [],
      "name": "getEeuBatchCount",
      "outputs": [
        {
          "name": "",
          "type": "uint256"
        }
      ],
      "payable": false,
      "stateMutability": "view",
      "type": "function"
    },
    {
      "constant": false,
      "inputs": [
        {
          "name": "ccyTypeId",
          "type": "uint256"
        },
        {
          "name": "amount",
          "type": "int256"
        },
        {
          "name": "ledgerOwner",
          "type": "address"
        }
      ],
      "name": "fund",
      "outputs": [],
      "payable": false,
      "stateMutability": "nonpayable",
      "type": "function"
    },
    {
      "constant": true,
      "inputs": [],
      "name": "getEeuMintedCount",
      "outputs": [
        {
          "name": "",
          "type": "uint256"
        }
      ],
      "payable": false,
      "stateMutability": "view",
      "type": "function"
    },
    {
      "constant": true,
      "inputs": [
        {
          "name": "ccyTypeId",
          "type": "uint256"
        }
      ],
      "name": "getTotalWithdrawn",
      "outputs": [
        {
          "name": "",
          "type": "uint256"
        }
      ],
      "payable": false,
      "stateMutability": "view",
      "type": "function"
    },
    {
      "constant": false,
      "inputs": [
        {
          "name": "ccyTypeId",
          "type": "uint256"
        },
        {
          "name": "new_fee_ccyTx_Fixed",
          "type": "uint256"
        }
      ],
      "name": "setFee_CcyType_Fixed",
      "outputs": [],
      "payable": false,
      "stateMutability": "nonpayable",
      "type": "function"
    },
    {
      "constant": true,
      "inputs": [
        {
          "name": "ccyTypeId",
          "type": "uint256"
        }
      ],
      "name": "getTotalFunded",
      "outputs": [
        {
          "name": "",
          "type": "uint256"
        }
      ],
      "payable": false,
      "stateMutability": "view",
      "type": "function"
    },
    {
      "constant": true,
      "inputs": [],
      "name": "getCcyTypes",
      "outputs": [
        {
          "components": [
            {
              "components": [
                {
                  "name": "id",
                  "type": "uint256"
                },
                {
                  "name": "name",
                  "type": "string"
                },
                {
                  "name": "unit",
                  "type": "string"
                }
              ],
              "name": "ccyTypes",
              "type": "tuple[]"
            }
          ],
          "name": "",
          "type": "tuple"
        }
      ],
      "payable": false,
      "stateMutability": "view",
      "type": "function"
    },
    {
      "constant": false,
      "inputs": [
        {
          "name": "name",
          "type": "string"
        }
      ],
      "name": "addEeuType",
      "outputs": [],
      "payable": false,
      "stateMutability": "nonpayable",
      "type": "function"
    },
    {
      "constant": true,
      "inputs": [],
      "name": "version",
      "outputs": [
        {
          "name": "",
          "type": "string"
        }
      ],
      "payable": false,
      "stateMutability": "view",
      "type": "function"
    },
    {
      "constant": false,
      "inputs": [
        {
          "name": "eeuTypeId",
          "type": "uint256"
        },
        {
          "name": "new_fee_kgTx_Fixed",
          "type": "uint256"
        }
      ],
      "name": "setFee_EeuType_Fixed",
      "outputs": [],
      "payable": false,
      "stateMutability": "nonpayable",
      "type": "function"
    },
    {
      "constant": false,
      "inputs": [
        {
          "name": "eeuTypeId",
          "type": "uint256"
        },
        {
          "name": "qtyKG",
          "type": "int256"
        },
        {
          "name": "qtyEeus",
          "type": "int256"
        },
        {
          "name": "batchOwner",
          "type": "address"
        }
      ],
      "name": "mintEeuBatch",
      "outputs": [],
      "payable": false,
      "stateMutability": "nonpayable",
      "type": "function"
    },
    {
      "constant": false,
      "inputs": [
        {
          "name": "ledger_A",
          "type": "address"
        },
        {
          "name": "ledger_B",
          "type": "address"
        },
        {
          "name": "kg_A",
          "type": "uint256"
        },
        {
          "name": "eeuTypeId_A",
          "type": "uint256"
        },
        {
          "name": "kg_B",
          "type": "uint256"
        },
        {
          "name": "eeuTypeId_B",
          "type": "uint256"
        },
        {
          "name": "ccy_amount_A",
          "type": "int256"
        },
        {
          "name": "ccyTypeId_A",
          "type": "uint256"
        },
        {
          "name": "ccy_amount_B",
          "type": "int256"
        },
        {
          "name": "ccyTypeId_B",
          "type": "uint256"
        },
        {
          "name": "applyFees",
          "type": "bool"
        }
      ],
      "name": "transfer",
      "outputs": [],
      "payable": false,
      "stateMutability": "nonpayable",
      "type": "function"
    },
    {
      "constant": true,
      "inputs": [],
      "name": "getEeuTypes",
      "outputs": [
        {
          "components": [
            {
              "components": [
                {
                  "name": "id",
                  "type": "uint256"
                },
                {
                  "name": "name",
                  "type": "string"
                }
              ],
              "name": "eeuTypes",
              "type": "tuple[]"
            }
          ],
          "name": "",
          "type": "tuple"
        }
      ],
      "payable": false,
      "stateMutability": "view",
      "type": "function"
    },
    {
      "constant": true,
      "inputs": [
        {
          "name": "id",
          "type": "uint256"
        }
      ],
      "name": "getEeu",
      "outputs": [
        {
          "components": [
            {
              "name": "exists",
              "type": "bool"
            },
            {
              "name": "id",
              "type": "uint256"
            },
            {
              "name": "mintedKG",
              "type": "uint256"
            },
            {
              "name": "KG",
              "type": "uint256"
            },
            {
              "name": "batchId",
              "type": "uint256"
            }
          ],
          "name": "",
          "type": "tuple"
        }
      ],
      "payable": false,
      "stateMutability": "view",
      "type": "function"
    },
    {
      "constant": true,
      "inputs": [
        {
          "name": "account",
          "type": "address"
        }
      ],
      "name": "getLedgerEntry",
      "outputs": [
        {
          "components": [
            {
              "name": "exists",
              "type": "bool"
            },
            {
              "components": [
                {
                  "name": "eeuId",
                  "type": "uint256"
                },
                {
                  "name": "eeuTypeId",
                  "type": "uint256"
                },
                {
                  "name": "eeuTypeName",
                  "type": "string"
                },
                {
                  "name": "batchId",
                  "type": "uint256"
                },
                {
                  "name": "eeuKG",
                  "type": "uint256"
                }
              ],
              "name": "eeus",
              "type": "tuple[]"
            },
            {
              "name": "eeu_sumKG",
              "type": "uint256"
            },
            {
              "components": [
                {
                  "name": "typeId",
                  "type": "uint256"
                },
                {
                  "name": "name",
                  "type": "string"
                },
                {
                  "name": "unit",
                  "type": "string"
                },
                {
                  "name": "balance",
                  "type": "int256"
                }
              ],
              "name": "ccys",
              "type": "tuple[]"
            }
          ],
          "name": "",
          "type": "tuple"
        }
      ],
      "payable": false,
      "stateMutability": "view",
      "type": "function"
    },
    {
      "constant": true,
      "inputs": [
        {
          "name": "",
          "type": "uint256"
        }
      ],
      "name": "fee_ccyType_Fixed",
      "outputs": [
        {
          "name": "",
          "type": "uint256"
        }
      ],
      "payable": false,
      "stateMutability": "view",
      "type": "function"
    },
    {
      "constant": true,
      "inputs": [],
      "name": "getKgCarbonMinted",
      "outputs": [
        {
          "name": "",
          "type": "uint256"
        }
      ],
      "payable": false,
      "stateMutability": "view",
      "type": "function"
    },
    {
      "constant": true,
      "inputs": [],
      "name": "getLedgerOwners",
      "outputs": [
        {
          "name": "",
          "type": "address[]"
        }
      ],
      "payable": false,
      "stateMutability": "view",
      "type": "function"
    },
    {
      "constant": false,
      "inputs": [
        {
          "name": "ledgerOwner",
          "type": "address"
        },
        {
          "name": "eeuTypeId",
          "type": "uint256"
        },
        {
          "name": "qtyKG",
          "type": "int256"
        }
      ],
      "name": "retireCarbon",
      "outputs": [],
      "payable": false,
      "stateMutability": "nonpayable",
      "type": "function"
    },
    {
      "constant": true,
      "inputs": [],
      "name": "getKgCarbonBurned",
      "outputs": [
        {
          "name": "count",
          "type": "uint256"
        }
      ],
      "payable": false,
      "stateMutability": "view",
      "type": "function"
    },
    {
      "constant": true,
      "inputs": [],
      "name": "getTotalKgTransfered",
      "outputs": [
        {
          "name": "",
          "type": "uint256"
        }
      ],
      "payable": false,
      "stateMutability": "view",
      "type": "function"
    },
    {
      "constant": true,
      "inputs": [
        {
          "name": "ccyTypeId",
          "type": "uint256"
        }
      ],
      "name": "getTotalCcyTransfered",
      "outputs": [
        {
          "name": "",
          "type": "uint256"
        }
      ],
      "payable": false,
      "stateMutability": "view",
      "type": "function"
    },
    {
      "inputs": [],
      "payable": false,
      "stateMutability": "nonpayable",
      "type": "constructor"
    },
    {
      "anonymous": false,
      "inputs": [
        {
          "indexed": false,
          "name": "from",
          "type": "address"
        },
        {
          "indexed": false,
          "name": "to",
          "type": "address"
        },
        {
          "indexed": false,
          "name": "ccyTypeId",
          "type": "uint256"
        },
        {
          "indexed": false,
          "name": "amount",
          "type": "int256"
        }
      ],
      "name": "TransferedLedgerCcy",
      "type": "event"
    },
    {
      "anonymous": false,
      "inputs": [
        {
          "indexed": false,
          "name": "from",
          "type": "address"
        },
        {
          "indexed": false,
          "name": "to",
          "type": "address"
        },
        {
          "indexed": false,
          "name": "eeuId",
          "type": "uint256"
        },
        {
          "indexed": false,
          "name": "mergedToEeuId",
          "type": "uint256"
        },
        {
          "indexed": false,
          "name": "eeuTypeId",
          "type": "uint256"
        }
      ],
      "name": "TransferedFullEeu",
      "type": "event"
    },
    {
      "anonymous": false,
      "inputs": [
        {
          "indexed": false,
          "name": "from",
          "type": "address"
        },
        {
          "indexed": false,
          "name": "to",
          "type": "address"
        },
        {
          "indexed": false,
          "name": "splitFromEeuId",
          "type": "uint256"
        },
        {
          "indexed": false,
          "name": "newEeuId",
          "type": "uint256"
        },
        {
          "indexed": false,
          "name": "mergedToEeuId",
          "type": "uint256"
        },
        {
          "indexed": false,
          "name": "eeuTypeId",
          "type": "uint256"
        }
      ],
      "name": "TransferedPartialEeu",
      "type": "event"
    },
    {
      "anonymous": false,
      "inputs": [
        {
          "indexed": false,
          "name": "eeuTypeId",
          "type": "uint256"
        },
        {
          "indexed": false,
          "name": "new_fee_kgTx_Fixed",
          "type": "uint256"
        }
      ],
      "name": "SetFeeEeuTypeFixed",
      "type": "event"
    },
    {
      "anonymous": false,
      "inputs": [
        {
          "indexed": false,
          "name": "ccyTypeId",
          "type": "uint256"
        },
        {
          "indexed": false,
          "name": "new_fee_ccyTx_Fixed",
          "type": "uint256"
        }
      ],
      "name": "SetFeeCcyTypeFixed",
      "type": "event"
    },
    {
      "anonymous": false,
      "inputs": [
        {
          "indexed": false,
          "name": "ccyTypeId",
          "type": "uint256"
        },
        {
          "indexed": false,
          "name": "ledgerOwner",
          "type": "address"
        },
        {
          "indexed": false,
          "name": "amount",
          "type": "int256"
        }
      ],
      "name": "CcyWithdrewLedger",
      "type": "event"
    },
    {
      "anonymous": false,
      "inputs": [
        {
          "indexed": false,
          "name": "ccyTypeId",
          "type": "uint256"
        },
        {
          "indexed": false,
          "name": "ledgerOwner",
          "type": "address"
        },
        {
          "indexed": false,
          "name": "amount",
          "type": "int256"
        }
      ],
      "name": "CcyFundedLedger",
      "type": "event"
    },
    {
      "anonymous": false,
      "inputs": [
        {
          "indexed": false,
          "name": "eeuId",
          "type": "uint256"
        },
        {
          "indexed": false,
          "name": "eeuTypeId",
          "type": "uint256"
        },
        {
          "indexed": false,
          "name": "ledgerOwner",
          "type": "address"
        },
        {
          "indexed": false,
          "name": "burnedKG",
          "type": "uint256"
        }
      ],
      "name": "BurnedFullEeu",
      "type": "event"
    },
    {
      "anonymous": false,
      "inputs": [
        {
          "indexed": false,
          "name": "eeuId",
          "type": "uint256"
        },
        {
          "indexed": false,
          "name": "eeuTypeId",
          "type": "uint256"
        },
        {
          "indexed": false,
          "name": "ledgerOwner",
          "type": "address"
        },
        {
          "indexed": false,
          "name": "burnedKG",
          "type": "uint256"
        }
      ],
      "name": "BurnedPartialEeu",
      "type": "event"
    },
    {
      "anonymous": false,
      "inputs": [
        {
          "indexed": false,
          "name": "batchId",
          "type": "uint256"
        },
        {
          "indexed": false,
          "name": "eeuTypeId",
          "type": "uint256"
        },
        {
          "indexed": false,
          "name": "batchOwner",
          "type": "address"
        },
        {
          "indexed": false,
          "name": "qtyKG",
          "type": "uint256"
        },
        {
          "indexed": false,
          "name": "qtyEeus",
          "type": "uint256"
        }
      ],
      "name": "MintedEeuBatch",
      "type": "event"
    },
    {
      "anonymous": false,
      "inputs": [
        {
          "indexed": false,
          "name": "eeuId",
          "type": "uint256"
        },
        {
          "indexed": false,
          "name": "batchId",
          "type": "uint256"
        },
        {
          "indexed": false,
          "name": "eeuTypeId",
          "type": "uint256"
        },
        {
          "indexed": false,
          "name": "ledgerOwner",
          "type": "address"
        },
        {
          "indexed": false,
          "name": "mintedKG",
          "type": "uint256"
        }
      ],
      "name": "MintedEeu",
      "type": "event"
    },
    {
      "anonymous": false,
      "inputs": [
        {
          "indexed": false,
          "name": "id",
          "type": "uint256"
        },
        {
          "indexed": false,
          "name": "name",
          "type": "string"
        },
        {
          "indexed": false,
          "name": "unit",
          "type": "string"
        }
      ],
      "name": "AddedCcyType",
      "type": "event"
    },
    {
      "anonymous": false,
      "inputs": [
        {
          "indexed": false,
          "name": "id",
          "type": "uint256"
        },
        {
          "indexed": false,
          "name": "name",
          "type": "string"
        }
      ],
      "name": "AddedEeuType",
      "type": "event"
    }
  ],
  "bytecode": "0x60806040523480156200001157600080fd5b5060008054600160a060020a0319163317815560408051808201909152600681527f554e464343430000000000000000000000000000000000000000000000000000602080830191825292805260019092525162000091917fa6eef7e35abe7026729641147f7915573c7e97b47efa546f5f6e3230263bcb4991620003ea565b5060408051808201909152600381527f56435300000000000000000000000000000000000000000000000000000000006020808301918252600160008190529052905162000101917fcc69885fda6bcc1a4ace058b4a62bf5e179ea78fd58a1ccd71c22cc9b688792f91620003ea565b50600280556040805160608101825260008082528251808401845260038082527f555344000000000000000000000000000000000000000000000000000000000060208381019190915280850192835285518087018752600581527f63656e7473000000000000000000000000000000000000000000000000000000818301529585019590955291805290835281517f3617319a054d772f909f7c479a2cebe5066e836a939412e32403c99029b92eff9081559051805192939192620001eb927f3617319a054d772f909f7c479a2cebe5066e836a939412e32403c99029b92f00920190620003ea565b506040820151805162000209916002840191602090910190620003ea565b50506040805160608101825260018082528251808401845260038082527f4554480000000000000000000000000000000000000000000000000000000000602083810191909152808501928352855180870187528281527f5765690000000000000000000000000000000000000000000000000000000000818301529585019590955260009290925290835281517fa15bc60c955c405d20d9149c709e2460f1c2d9a497496a7f46004d1772c3054c908155905180519294509092620002f5927fa15bc60c955c405d20d9149c709e2460f1c2d9a497496a7f46004d1772c3054d9290910190620003ea565b506040820151805162000313916002840191602090910190620003ea565b50506002600455506040805180820190915260058082527f302e302e3700000000000000000000000000000000000000000000000000000060209092019182526200036191601591620003ea565b506040805160208082018352600180835260008054600160a060020a039081168252600e9093529384209251835490151560ff19909116179092558254600f805493840181559093527f8d1108e10bcb7c27dddfc02ed9d693a074039d026cf4ea4240b40f7d581ac8029091018054600160a060020a031916929091169190911790556200048f565b828054600181600116156101000203166002900490600052602060002090601f016020900481019282601f106200042d57805160ff19168380011785556200045d565b828001600101855582156200045d579182015b828111156200045d57825182559160200191906001019062000440565b506200046b9291506200046f565b5090565b6200048c91905b808211156200046b576000815560010162000476565b90565b613b5a806200049f6000396000f3fe608060405234801561001057600080fd5b506004361061018b576000357c010000000000000000000000000000000000000000000000000000000090048063629e38f6116100eb578063b08a9c89116100a4578063b08a9c8914610328578063ba0138cb1461033b578063bcc376c614610343578063c7e60f9f14610358578063e3f64b351461036b578063e87b886c14610373578063e9b85fd31461037b5761018b565b8063629e38f61461029a57806370f753de146102ad578063829839a0146102c0578063963030df146102d35780639ce9a4a6146102e8578063a89a8884146103085761018b565b80633846d448116101485780633846d4481461021c5780633e726e051461022457806343492c1714610237578063448d74381461024a5780634dc26ae81461025d57806351664b261461027257806354fd4d50146102855761018b565b806305522b00146101905780630722a4ee146101b95780630834e864146101d95780630b503ab7146101ee57806319b67615146102015780633368402b14610209575b600080fd5b6101a361019e3660046128a2565b61038e565b6040516101b091906138c4565b60405180910390f35b6101cc6101c73660046128a2565b6103a0565b6040516101b09190613875565b6101ec6101e7366004612839565b6103f7565b005b6101ec6101fc3660046128c0565b610570565b6101a36106e8565b6101ec6102173660046128c0565b6106ef565b6101a3610873565b6101a36102323660046128a2565b6108a8565b6101ec610245366004612964565b6108e9565b6101a36102583660046128a2565b610989565b6102656109ca565b6040516101b09190613891565b6101ec610280366004612804565b610bb4565b61028d610cdb565b6040516101b091906136f4565b6101ec6102a8366004612964565b610d69565b6101ec6102bb366004612903565b610dfd565b6101ec6102ce3660046126c9565b611105565b6102db61152b565b6040516101b091906138a2565b6102fb6102f63660046128a2565b611649565b6040516101b09190613883565b61031b6103163660046126ab565b6116a5565b6040516101b091906138b3565b6101a36103363660046128a2565b611b3d565b6101a3611b4f565b61034b611b84565b6040516101b091906136e3565b6101ec6103663660046127b7565b611c14565b6101a3611ea5565b6101a3611eda565b6101a36103893660046128a2565b611f0f565b60136020526000908152604090205481565b6103a8612440565b50600090815260056020908152604091829020825160a0810184528154815260018201549281019290925260028101549282019290925260038201546060820152600490910154608082015290565b600054600160a060020a0316331461042d5760405160e560020a62461bcd028152600401610424906137c5565b60405180910390fd5b60005b6004548110156104bf578260405160200161044b91906135ae565b60408051601f1981840301815282825280516020918201206000858152600383529290922091926104809260010191016135ba565b6040516020818303038152906040528051906020012014156104b75760405160e560020a62461bcd028152600401610424906137e5565b600101610430565b50604080516060810182526004548082526020808301868152838501869052600092835260038252939091208251815592518051929392610506926001850192019061246f565b506040820151805161052291600284019160209091019061246f565b509050507f41c4a4be5d1fed810ab0ace2ffe78022538a72356773c24ed010e06bdf6454b7600454838360405161055b9392919061391a565b60405180910390a15050600480546001019055565b600054600160a060020a0316331461059d5760405160e560020a62461bcd028152600401610424906137c5565b60045483106105c15760405160e560020a62461bcd028152600401610424906137b5565b600082136105e45760405160e560020a62461bcd02815260040161042490613805565b600160a060020a0381166000908152600e602052604090205460ff1615156001146106245760405160e560020a62461bcd02815260040161042490613715565b600160a060020a0381166000908152600e6020908152604080832086845260020190915290205482131561066d5760405160e560020a62461bcd02815260040161042490613795565b600160a060020a0381166000908152600e60209081526040808320868452600201825280832080548690039055601190915290819020805484019055517fbc646e7e255ad4c6743251f213af7cae7d0cecfbf159c99ded6b6d7f85666a3f906106db908590849086906138d2565b60405180910390a1505050565b6006545b90565b600054600160a060020a0316331461071c5760405160e560020a62461bcd028152600401610424906137c5565b60045483106107405760405160e560020a62461bcd028152600401610424906137b5565b60008212156107645760405160e560020a62461bcd02815260040161042490613755565b600160a060020a0381166000908152600e602052604090205460ff166108065760408051602080820183526001808352600160a060020a0385166000818152600e9093529382209251835460ff191690151517909255600f8054928301815590527f8d1108e10bcb7c27dddfc02ed9d693a074039d026cf4ea4240b40f7d581ac80201805473ffffffffffffffffffffffffffffffffffffffff191690911790555b600160a060020a0381166000908152600e602090815260408083208684526002018252808320805486019055601090915290819020805484019055517fbf9c9c4358c50927dd4152801ee5586a421fee0e6dd1c019635a6c4d0af91587906106db908590849086906138d2565b60008054600160a060020a031633146108a15760405160e560020a62461bcd028152600401610424906137c5565b50600d5490565b60008054600160a060020a031633146108d65760405160e560020a62461bcd028152600401610424906137c5565b5060009081526011602052604090205490565b600054600160a060020a031633146109165760405160e560020a62461bcd028152600401610424906137c5565b600454821061093a5760405160e560020a62461bcd028152600401610424906137b5565b60008281526014602052604090819020829055517fa411126980623a59f4c6fcdd0b7aec89ee96cc58daa4afdedbcbb2f0d369c8469061097d908490849061394e565b60405180910390a15050565b60008054600160a060020a031633146109b75760405160e560020a62461bcd028152600401610424906137c5565b5060009081526010602052604090205490565b6109d26124ed565b6060600454604051908082528060200260200182016040528015610a1057816020015b6109fd612500565b8152602001906001900390816109f55790505b50905060005b600454811015610b9757604080516060810182526000838152600360208181528483208054855292869052908152600191820180548551600294821615610100026000190190911693909304601f810183900483028401830190955284835292938185019391830182828015610acd5780601f10610aa257610100808354040283529160200191610acd565b820191906000526020600020905b815481529060010190602001808311610ab057829003601f168201915b50505091835250506000838152600360209081526040918290206002908101805484516001821615610100026000190190911692909204601f81018490048402830184019094528382529382019390929091830182828015610b705780601f10610b4557610100808354040283529160200191610b70565b820191906000526020600020905b815481529060010190602001808311610b5357829003601f168201915b5050505050815250828281518110610b8457fe5b6020908102919091010152600101610a16565b50610ba06124ed565b506040805160208101909152908152905090565b600054600160a060020a03163314610be15760405160e560020a62461bcd028152600401610424906137c5565b60005b600254811015610c705781604051602001610bff91906135ae565b60408051601f198184030181528282528051602091820120600085815260018352929092209192610c319291016135ba565b604051602081830303815290604052805190602001201415610c685760405160e560020a62461bcd02815260040161042490613865565b600101610be4565b5060025460009081526001602090815260409091208251610c939284019061246f565b507ff42a31d05ee5f17e0f159b94b9402293e9cf2265c806b4a55168aeaa3fe275e260025482604051610cc79291906138fa565b60405180910390a150600280546001019055565b6015805460408051602060026001851615610100026000190190941693909304601f81018490048402820184019092528181529291830182828015610d615780601f10610d3657610100808354040283529160200191610d61565b820191906000526020600020905b815481529060010190602001808311610d4457829003601f168201915b505050505081565b600054600160a060020a03163314610d965760405160e560020a62461bcd028152600401610424906137c5565b6002548210610dba5760405160e560020a62461bcd02815260040161042490613785565b60008281526013602052604090819020829055517fab885df8e6a2b16204165083f0949734dd341e6b0fa8657e00a20a3c5d9fea1b9061097d908490849061394e565b600054600160a060020a03163314610e2a5760405160e560020a62461bcd028152600401610424906137c5565b6002548410610e4e5760405160e560020a62461bcd02815260040161042490613785565b81600114610e715760405160e560020a62461bcd028152600401610424906137d5565b6103e8831215610e965760405160e560020a62461bcd02815260040161042490613825565b818381610e9f57fe5b0715610ec05760405160e560020a62461bcd02815260040161042490613815565b610ec8612440565b506040805160a0810182526006805460019081018084524260208086019182528587018b8152606087018b81526000608089018181529581526005909352918890208751808255935181870155905160028201559051600382015591516004909201919091558254909101909155915190917f3b2a5f1232ad8fb6334d75c56a235d50209dc23e6b0b51325b2e98e17a6ffc3d91610f6e91908890869089908990613991565b60405180910390a1600160a060020a0382166000908152600e602052604090205460ff166110185760408051602080820183526001808352600160a060020a0386166000818152600e9093529382209251835460ff191690151517909255600f8054928301815590527f8d1108e10bcb7c27dddfc02ed9d693a074039d026cf4ea4240b40f7d581ac80201805473ffffffffffffffffffffffffffffffffffffffff191690911790555b60005b838112156110ec57600d548101600101600085878161103657fe5b8551600085815260076020908152604080832093909355600881528282209490930493849055600990925290819020829055855190519192507fbdf1b0fbadd676a593dc51c25399111b5cf1795fd1315c7545271c18c1b265cd916110a29185918c908a9087906139c6565b60405180910390a150600160a060020a0384166000908152600e602090815260408083208a845260019081018352908320805480830182559084529190922001919091550161101b565b5050600d805490920190915550600a8054909101905550565b600054600160a060020a031633146111325760405160e560020a62461bcd028152600401610424906137c5565b600160a060020a038b166000908152600e602052604090205460ff1615156001146111725760405160e560020a62461bcd02815260040161042490613705565b600160a060020a038a166000908152600e602052604090205460ff1615156001146111b25760405160e560020a62461bcd02815260040161042490613745565b89600160a060020a03168b600160a060020a031614156111e75760405160e560020a62461bcd02815260040161042490613765565b60008911806111f65750600087115b806112015750600085135b8061120c5750600083135b61122b5760405160e560020a62461bcd02815260040161042490613725565b600085128061123a5750600083125b1561125a5760405160e560020a62461bcd028152600401610424906137f5565b60008911801561126a5750600085135b8061128057506000871180156112805750600083135b156112a05760405160e560020a62461bcd02815260040161042490613845565b6112dc8b85878480156112b35750600089135b6112be5760006112c1565b60015b60008981526014602052604090205460ff9190911602611f50565b6112fb5760405160e560020a62461bcd02815260040161042490613735565b6113378a838584801561130e5750600087135b61131957600061131c565b60015b60008781526014602052604090205460ff9190911602611f50565b6113565760405160e560020a62461bcd02815260040161042490613775565b6113928b898b848015611369575060008d115b611374576000611377565b60015b60008d81526013602052604090205460ff9190911602611f85565b6113b15760405160e560020a62461bcd028152600401610424906137a5565b6113ed8a87898480156113c4575060008b115b6113cf5760006113d2565b60015b60008b81526013602052604090205460ff9190911602611f85565b61140c5760405160e560020a62461bcd02815260040161042490613835565b600085131561145257801561144657600080548582526014602052604090912054611446918d91600160a060020a03909116908790612028565b6114528b8b8688612028565b600083131561149857801561148c5760008054838252601460205260409091205461148c918c91600160a060020a03909116908590612028565b6114988a8c8486612028565b88156114db5780156114cf576000805489825260136020526040909120546114cf918d91600160a060020a03909116908b906120c4565b6114db8b8b8a8c6120c4565b861561151e57801561151257600080548782526013602052604090912054611512918c91600160a060020a039091169089906120c4565b61151e8a8c888a6120c4565b5050505050505050505050565b6115336124ed565b606060025460405190808252806020026020018201604052801561157157816020015b61155e612521565b8152602001906001900390816115565790505b50905060005b600254811015610b97576040805180820182528281526000838152600160208181529184902080548551600293821615610100026000190190911692909204601f810184900484028301840190955284825292938285019391928301828280156116225780601f106115f757610100808354040283529160200191611622565b820191906000526020600020905b81548152906001019060200180831161160557829003601f168201915b505050505081525082828151811061163657fe5b6020908102919091010152600101611577565b61165161253b565b506040805160a0810182526000838152600760208181528483205480151585528185018790528684526008825285842054858701528684526009825294832054606085015294909152909252608082015290565b6116ad61256c565b606080600080805b6002548110156116f457600160a060020a0387166000908152600e602090815260408083208484526001908101909252909120549290920191016116b5565b508060405190808252806020026020018201604052801561172f57816020015b61171c612596565b8152602001906001900390816117145790505b5093506000805b6002548110156118ef57600160a060020a0388166000908152600e602090815260408083208484526001018252918290208054835181840281018401909452808452606093928301828280156117ab57602002820191906000526020600020905b815481526020019060010190808311611797575b50939450600093505050505b81518110156118e55760008282815181106117ce57fe5b602090810291909101810151600081815260098352604080822054815160a0810183528481528086018a905289845260018087529383902080548451600296821615610100026000190190911695909504601f810188900488028601880185528086529d9092019c949650949185019390918301828280156118915780601f1061186657610100808354040283529160200191611891565b820191906000526020600020905b81548152906001019060200180831161187457829003601f168201915b5050509183525050600083815260076020908152604080832054828501528583526009909152908190205491015289518a90879081106118cd57fe5b602090810291909101015250600193840193016117b7565b5050600101611736565b5060045460405190808252806020026020018201604052801561192c57816020015b6119196125c5565b8152602001906001900390816119115790505b50935060005b600454811015611aed576040518060800160405280828152602001600360008481526020019081526020016000206001018054600181600116156101000203166002900480601f0160208091040260200160405190810160405280929190818152602001828054600181600116156101000203166002900480156119f75780601f106119cc576101008083540402835291602001916119f7565b820191906000526020600020905b8154815290600101906020018083116119da57829003601f168201915b50505091835250506000838152600360209081526040918290206002908101805484516001821615610100026000190190911692909204601f81018490048402830184019094528382529382019390929091830182828015611a9a5780601f10611a6f57610100808354040283529160200191611a9a565b820191906000526020600020905b815481529060010190602001808311611a7d57829003601f168201915b5050509183525050600160a060020a038a166000908152600e602090815260408083208684526002018252909120549101528551869083908110611ada57fe5b6020908102919091010152600101611932565b50611af661256c565b505060408051608081018252600160a060020a0388166000908152600e6020908152908390205460ff16151582528101959095528401919091525060608201529050919050565b60146020526000908152604090205481565b60008054600160a060020a03163314611b7d5760405160e560020a62461bcd028152600401610424906137c5565b50600a5490565b600054606090600160a060020a03163314611bb45760405160e560020a62461bcd028152600401610424906137c5565b600f805480602002602001604051908101604052809291908181526020018280548015611c0a57602002820191906000526020600020905b8154600160a060020a03168152600190910190602001808311611bec575b5050505050905090565b600054600160a060020a03163314611c415760405160e560020a62461bcd028152600401610424906137c5565b600160a060020a0383166000908152600e602052604090205460ff161515600114611c815760405160e560020a62461bcd02815260040161042490613715565b6103e8811215611ca65760405160e560020a62461bcd02815260040161042490613825565b6002548210611cca5760405160e560020a62461bcd02815260040161042490613785565b611cd78383836000611f85565b1515600114611cfb5760405160e560020a62461bcd02815260040161042490613855565b6000815b8015611e9657600160a060020a0385166000908152600e6020908152604080832087845260010190915281208054909190829085908110611d3c57fe5b60009182526020808320909101548083526009825260408084205460079093529092205491925090818510611e1f57600083815260096020526040812055835484906000198101908110611d8c57fe5b9060005260206000200154848781548110611da357fe5b6000918252602090912001558354611dbf8560001983016125ed565b50600081815260056020526040908190206004018054840190555194829003947ff214be5dc9cf391efd4738b59af95842784d47fd41a2b9057df440d144f3c67d90611e129085908b908d908790613969565b60405180910390a1611e8d565b600083815260096020908152604080832080548990039055838352600590915290819020600401805487019055517fe304852108e009cdefa218a22b44f9a1f921fb5692ead9b6fb815d388e24869f90611e809085908b908d908a90613969565b60405180910390a1600094505b50505050611cff565b5050600b805490910190555050565b60008054600160a060020a03163314611ed35760405160e560020a62461bcd028152600401610424906137c5565b50600b5490565b60008054600160a060020a03163314611f085760405160e560020a62461bcd028152600401610424906137c5565b50600c5490565b60008054600160a060020a03163314611f3d5760405160e560020a62461bcd028152600401610424906137c5565b5060009081526012602052604090205490565b600160a060020a0384166000908152600e6020908152604080832086845260020190915290205482820113155b949350505050565b600080805b600160a060020a0387166000908152600e6020908152604080832089845260010190915290205481101561201a57600160a060020a0387166000908152600e6020908152604080832089845260010190915281208054600992919084908110611fef57fe5b9060005260206000200154815260200190815260200160002054820191508080600101915050611f8a565b509190920111159392505050565b600160a060020a038085166000908152600e602081815260408084208785526002908101835281852080548890039055948816845291815281832086845290930183528082208054850190556012909252819020805483019055517f84fefdcd41e7655d9681d6df648b41c6d93853951da1b10ad434fcea00fbd6d1906120b69086908690869086906135c6565b60405180910390a150505050565b6000815b801561243057600160a060020a038087166000908152600e6020818152604080842089855260019081018352818520958b16855292825280842089855290920190528120825490919083908690811061211d57fe5b600091825260208083209091015480835260099091526040909120549091508085106121e95783548490600019810190811061215557fe5b906000526020600020015484878154811061216c57fe5b60009182526020909120015583546121888560001983016125ed565b5082546001810184556000848152602081209091018390556040517f4dd67c0d2d6c24f530078a5bbf15da227fa94f864c3972dedd57c09d08e729ed916121d7918d918d918791908e906135fb565b60405180910390a18085039450612427565b6000805b84548110156123115760076000858152602001908152602001600020546007600087848154811061221a57fe5b9060005260206000200154815260200190815260200160002054141561230957866009600087848154811061224b57fe5b9060005260206000200154815260200190815260200160002060008282540192505081905550866008600087848154811061228257fe5b9060005260206000200154815260200190815260200160002060008282540192505081905550600191507f1653cd545a5ccf5e3c0fdc2847e305f5e5ec5f6036337b0c96dab0a78a0386778c8c8660008986815481106122de57fe5b90600052602060002001548f6040516122fc96959493929190613647565b60405180910390a1612311565b6001016121ed565b50806123fd576000600d5460010190506007600085815260200190815260200160002054600760008381526020019081526020016000208190555086600960008381526020019081526020016000208190555086600860008381526020019081526020016000208190555084819080600181540180825580915050906001820390600052602060002001600090919290919091505550600d600081548092919060010191905055507f1653cd545a5ccf5e3c0fdc2847e305f5e5ec5f6036337b0c96dab0a78a0386778c8c868460008f6040516123f3969594939291906136a1565b60405180910390a1505b50600082815260096020908152604080832080548990039055600890915281208054969096039095555b505050506120c8565b5050600c80549091019055505050565b6040518060a0016040528060008152602001600081526020016000815260200160008152602001600081525090565b828054600181600116156101000203166002900490600052602060002090601f016020900481019282601f106124b057805160ff19168380011785556124dd565b828001600101855582156124dd579182015b828111156124dd5782518255916020019190600101906124c2565b506124e9929150612616565b5090565b6040518060200160405280606081525090565b60405180606001604052806000815260200160608152602001606081525090565b604051806040016040528060008152602001606081525090565b6040518060a00160405280600015158152602001600081526020016000815260200160008152602001600081525090565b60405180608001604052806000151581526020016060815260200160008152602001606081525090565b6040518060a0016040528060008152602001600081526020016060815260200160008152602001600081525090565b6040518060800160405280600081526020016060815260200160608152602001600081525090565b81548183558181111561261157600083815260209020612611918101908301612616565b505050565b6106ec91905b808211156124e9576000815560010161261c565b803561263b81613ad7565b92915050565b803561263b81613aee565b803561263b81613af7565b600082601f83011261266857600080fd5b813561267b61267682613a22565b6139fb565b9150808252602083016020830185838301111561269757600080fd5b6126a2838284613a95565b50505092915050565b6000602082840312156126bd57600080fd5b6000611f7d8484612630565b60008060008060008060008060008060006101608c8e0312156126eb57600080fd5b60006126f78e8e612630565b9b505060206127088e828f01612630565b9a505060406127198e828f0161264c565b995050606061272a8e828f0161264c565b985050608061273b8e828f0161264c565b97505060a061274c8e828f0161264c565b96505060c061275d8e828f0161264c565b95505060e061276e8e828f0161264c565b9450506101006127808e828f0161264c565b9350506101206127928e828f0161264c565b9250506101406127a48e828f01612641565b9150509295989b509295989b9093969950565b6000806000606084860312156127cc57600080fd5b60006127d88686612630565b93505060206127e98682870161264c565b92505060406127fa8682870161264c565b9150509250925092565b60006020828403121561281657600080fd5b813567ffffffffffffffff81111561282d57600080fd5b611f7d84828501612657565b6000806040838503121561284c57600080fd5b823567ffffffffffffffff81111561286357600080fd5b61286f85828601612657565b925050602083013567ffffffffffffffff81111561288c57600080fd5b61289885828601612657565b9150509250929050565b6000602082840312156128b457600080fd5b6000611f7d848461264c565b6000806000606084860312156128d557600080fd5b60006128e1868661264c565b93505060206128f28682870161264c565b92505060406127fa86828701612630565b6000806000806080858703121561291957600080fd5b6000612925878761264c565b94505060206129368782880161264c565b93505060406129478782880161264c565b925050606061295887828801612630565b91505092959194509250565b6000806040838503121561297757600080fd5b6000612983858561264c565b92505060206128988582860161264c565b60006129a083836129df565b505060200190565b60006129b4838361336c565b9392505050565b60006129b4838361342f565b60006129b4838361348b565b60006129b483836134ee565b6129e881613a6e565b82525050565b60006129f982613a5c565b612a038185613a60565b9350612a0e83613a4a565b8060005b83811015612a3c578151612a268882612994565b9750612a3183613a4a565b925050600101612a12565b509495945050505050565b6000612a5282613a5c565b612a5c8185613a60565b935083602082028501612a6e85613a4a565b8060005b85811015612aa85784840389528151612a8b85826129a8565b9450612a9683613a4a565b60209a909a0199925050600101612a72565b5091979650505050505050565b6000612ac082613a5c565b612aca8185613a60565b935083602082028501612adc85613a4a565b8060005b85811015612aa85784840389528151612af985826129bb565b9450612b0483613a4a565b60209a909a0199925050600101612ae0565b6000612b2182613a5c565b612b2b8185613a60565b935083602082028501612b3d85613a4a565b8060005b85811015612aa85784840389528151612b5a85826129c7565b9450612b6583613a4a565b60209a909a0199925050600101612b41565b6000612b8282613a5c565b612b8c8185613a60565b935083602082028501612b9e85613a4a565b8060005b85811015612aa85784840389528151612bbb85826129d3565b9450612bc683613a4a565b60209a909a0199925050600101612ba2565b6129e881613a79565b6129e8816106ec565b6129e881613a8a565b6000612bfe82613a5c565b612c088185613a60565b9350612c18818560208601613aa1565b612c2181613acd565b9093019392505050565b6000612c3682613a5c565b612c408185613a69565b9350612c50818560208601613aa1565b9290920192915050565b600081546001811660008114612c775760018114612c9a57612cd9565b607f6002830416612c888187613a69565b60ff1984168152955085019250612cd9565b60028204612ca88187613a69565b9550612cb385613a50565b60005b82811015612cd257815488820152600190910190602001612cb6565b5050850192505b505092915050565b6000612cee601683613a60565b7f496e76616c6964206c6564676572206f776e6572204100000000000000000000815260200192915050565b6000612d27601483613a60565b7f496e76616c6964206c6564676572206f776e6572000000000000000000000000815260200192915050565b6000612d60601083613a60565b7f496e76616c6964207472616e7366657200000000000000000000000000000000815260200192915050565b6000612d99602c83613a60565b7f496e73756666696369656e742063757272656e63792068656c64206279206c6581527f64676572206f776e657220410000000000000000000000000000000000000000602082015260400192915050565b6000612df8601683613a60565b7f496e76616c6964206c6564676572206f776e6572204200000000000000000000815260200192915050565b6000612e31600e83613a60565b7f496e76616c696420616d6f756e74000000000000000000000000000000000000815260200192915050565b6000612e6a601883613a60565b7f53656c66207472616e7366657220646973616c6c6f7765640000000000000000815260200192915050565b6000612ea3602c83613a60565b7f496e73756666696369656e742063757272656e63792068656c64206279206c6581527f64676572206f776e657220420000000000000000000000000000000000000000602082015260400192915050565b6000612f02601083613a60565b7f496e76616c696420454555207479706500000000000000000000000000000000815260200192915050565b6000612f3b602183613a60565b7f496e73756666696369656e74206c6564676572206f776e65722062616c616e6381527f6500000000000000000000000000000000000000000000000000000000000000602082015260400192915050565b6000612f9a602a83613a60565b600080516020613b0183398151915281527f6572206f776e6572204100000000000000000000000000000000000000000000602082015260400192915050565b6000612fe7601583613a60565b7f496e76616c69642063757272656e637920747970650000000000000000000000815260200192915050565b6000613020601183613a60565b7f52657374726963746564206d6574686f64000000000000000000000000000000815260200192915050565b6000613059601883613a60565b7f45786163746c79206f6e65204545552072657175697265640000000000000000815260200192915050565b6000613092602183613a60565b7f43757272656e63792074797065206e616d6520616c726561647920657869737481527f7300000000000000000000000000000000000000000000000000000000000000602082015260400192915050565b60006130f1601883613a60565b7f496e76616c69642063757272656e637920616d6f756e74730000000000000000815260200192915050565b600061312a602283613a60565b7f4d696e696d756d206f6e652063757272656e637920756e69742072657175697281527f6564000000000000000000000000000000000000000000000000000000000000602082015260400192915050565b6000613189602a83613a60565b7f436172626f6e20776569676874206d75737420646976696465206576656e6c7981527f20696e746f204545557300000000000000000000000000000000000000000000602082015260400192915050565b60006131e8602983613a60565b7f4d696e696d756d206f6e65206d657472696320746f6e206f6620636172626f6e81527f2072657175697265640000000000000000000000000000000000000000000000602082015260400192915050565b6000613247602a83613a60565b600080516020613b0183398151915281527f6572206f776e6572204200000000000000000000000000000000000000000000602082015260400192915050565b6000613294602783613a60565b7f53696e676c652d6f726967696e206d756c7469706c652d61737365742064697381527f616c6c6f77656400000000000000000000000000000000000000000000000000602082015260400192915050565b60006132f3602883613a60565b600080516020613b0183398151915281527f6572206f776e6572000000000000000000000000000000000000000000000000602082015260400192915050565b6000613340601c83613a60565b7f4545552074797065206e616d6520616c72656164792065786973747300000000815260200192915050565b805160009060608401906133808582612be1565b50602083015184820360208601526133988282612bf3565b915050604083015184820360408601526133b28282612bf3565b95945050505050565b805160a08301906133cc8482612be1565b5060208201516133df6020850182612be1565b5060408201516133f26040850182612be1565b5060608201516134056060850182612be1565b5060808201516134186080850182612be1565b50505050565b805160a08301906133cc8482612bd8565b805160009060408401906134438582612be1565b50602083015184820360208601526133b28282612bf3565b80516020808452600091908401906133b28282612a47565b80516020808452600091908401906133b28282612ab5565b8051600090608084019061349f8582612be1565b50602083015184820360208601526134b78282612bf3565b915050604083015184820360408601526134d18282612bf3565b91505060608301516134e66060860182612be1565b509392505050565b805160009060a08401906135028582612be1565b5060208301516135156020860182612be1565b506040830151848203604086015261352d8282612bf3565b91505060608301516135426060860182612be1565b5060808301516134e66080860182612be1565b805160009060808401906135698582612bd8565b50602083015184820360208601526135818282612b77565b91505060408301516135966040860182612be1565b50606083015184820360608601526133b28282612b16565b60006129b48284612c2b565b60006129b48284612c5a565b608081016135d482876129df565b6135e160208301866129df565b6135ee6040830185612be1565b6133b26060830184612be1565b60a0810161360982886129df565b61361660208301876129df565b6136236040830186612be1565b6136306060830185612bea565b61363d6080830184612be1565b9695505050505050565b60c0810161365582896129df565b61366260208301886129df565b61366f6040830187612be1565b61367c6060830186612bea565b6136896080830185612be1565b61369660a0830184612be1565b979650505050505050565b60c081016136af82896129df565b6136bc60208301886129df565b6136c96040830187612be1565b6136d66060830186612be1565b6136896080830185612bea565b602080825281016129b481846129ee565b602080825281016129b48184612bf3565b6020808252810161263b81612ce1565b6020808252810161263b81612d1a565b6020808252810161263b81612d53565b6020808252810161263b81612d8c565b6020808252810161263b81612deb565b6020808252810161263b81612e24565b6020808252810161263b81612e5d565b6020808252810161263b81612e96565b6020808252810161263b81612ef5565b6020808252810161263b81612f2e565b6020808252810161263b81612f8d565b6020808252810161263b81612fda565b6020808252810161263b81613013565b6020808252810161263b8161304c565b6020808252810161263b81613085565b6020808252810161263b816130e4565b6020808252810161263b8161311d565b6020808252810161263b8161317c565b6020808252810161263b816131db565b6020808252810161263b8161323a565b6020808252810161263b81613287565b6020808252810161263b816132e6565b6020808252810161263b81613333565b60a0810161263b82846133bb565b60a0810161263b828461341e565b602080825281016129b4818461345b565b602080825281016129b48184613473565b602080825281016129b48184613555565b6020810161263b8284612be1565b606081016138e08286612be1565b6138ed60208301856129df565b611f7d6040830184612be1565b604081016139088285612be1565b8181036020830152611f7d8184612bf3565b606081016139288286612be1565b818103602083015261393a8185612bf3565b905081810360408301526133b28184612bf3565b6040810161395c8285612be1565b6129b46020830184612be1565b608081016139778287612be1565b6139846020830186612be1565b6135ee60408301856129df565b60a0810161399f8288612be1565b6139ac6020830187612be1565b6139b960408301866129df565b6136306060830185612be1565b60a081016139d48288612be1565b6139e16020830187612be1565b6139ee6040830186612be1565b61363060608301856129df565b60405181810167ffffffffffffffff81118282101715613a1a57600080fd5b604052919050565b600067ffffffffffffffff821115613a3957600080fd5b506020601f91909101601f19160190565b60200190565b60009081526020902090565b5190565b90815260200190565b919050565b600061263b82613a7e565b151590565b600160a060020a031690565b600061263b826106ec565b82818337506000910152565b60005b83811015613abc578181015183820152602001613aa4565b838111156134185750506000910152565b601f01601f191690565b613ae081613a6e565b8114613aeb57600080fd5b50565b613ae081613a79565b613ae0816106ec56fe496e73756666696369656e7420636172626f6e2068656c64206279206c656467a265627a7a72305820d9063c2f840cd30fa06513cc97ef8a93082c3c68da1c4ba23191f4dc3e72907e6c6578706572696d656e74616cf50037",
  "source": "pragma solidity 0.5.8;\npragma experimental ABIEncoderV2;\n\nimport \"./EeuMintable.sol\";\nimport \"./EeuBurnable.sol\";\nimport \"./CcyFundable.sol\";\nimport \"./CcyWithdrawable.sol\";\nimport \"./EeuTransferable.sol\";\n\ncontract AcMaster is EeuMintable, EeuBurnable, CcyFundable, CcyWithdrawable, EeuTransferable {\n    string public version;\n\n    /**\n     * ctor\n     */\n    constructor() public {\n        version = \"0.0.7\";\n\n         // create ledger entry for contract owner - transfer fees are paid to this ledger entry\n        _ledger[owner] = Ledger({\n            exists: true\n        });\n        _ledgerOwners.push(owner);\n    }\n}\n",
  "sourcePath": "/Users/dom/ac/ac-monorepo/packages/erc20/contracts/AcMaster/AcMaster.sol",
  "compiler": {
    "name": "solc",
    "version": "0.5.8+commit.23d335f2.Emscripten.clang"
  },
  "schemaVersion": "3.0.11",
  "updatedAt": "2019-09-04T12:40:47.960Z",
  "devdoc": {
    "methods": {
      "addCcyType(string,string)": {
        "details": "Adds a new currency type",
        "params": {
          "name": "The new currency type name",
          "unit": "The base unit of the new currency type"
        }
      },
      "addEeuType(string)": {
        "details": "Adds a new EEU type",
        "params": {
          "name": "The new EEU type name"
        }
      },
      "fund(uint256,int256,address)": {
        "details": "Funds a ledger entry with a currency amount",
        "params": {
          "amount": "The mount of the currency to fund, in currency base units",
          "ccyTypeId": "The currency type ID",
          "ledgerOwner": "The ledger owner to fund"
        }
      },
      "getCcyTypes()": {
        "details": "Returns current currency types"
      },
      "getEeu(uint256)": {
        "details": "Returns an EEU by ID"
      },
      "getEeuBatch(uint256)": {
        "details": "Returns an EEU batch by ID"
      },
      "getEeuBatchCount()": {
        "details": "Returns the global EEU batch count"
      },
      "getEeuMintedCount()": {
        "details": "Returns the total global number of EEUs minted"
      },
      "getEeuTypes()": {
        "details": "Returns current EEU types"
      },
      "getKgCarbonBurned()": {
        "details": "Returns the total global tonnage of carbon burned"
      },
      "getKgCarbonMinted()": {
        "details": "Returns the total global tonnage of carbon minted"
      },
      "getLedgerEntry(address)": {
        "details": "Returns the ledger entry for a single account"
      },
      "getLedgerOwners()": {
        "details": "Returns all accounts in the ledger"
      },
      "getTotalCcyTransfered(uint256)": {
        "details": "Returns the total global currency amount transfered for the supplied currency"
      },
      "getTotalFunded(uint256)": {
        "details": "Returns the total global amount funded for the supplied currency"
      },
      "getTotalKgTransfered()": {
        "details": "Returns the total global tonnage of carbon transfered"
      },
      "getTotalWithdrawn(uint256)": {
        "details": "Returns the total global amount withdrawn for the supplied currency"
      },
      "mintEeuBatch(uint256,int256,int256,address)": {
        "details": "Mints and assigns initial ownership of a new EEU batch",
        "params": {
          "batchOwner": "The ledger owner to assign the minted EEUs to",
          "eeuTypeId": "The EEU-type for the batch",
          "qtyEeus": "The quantity of EEUs to mint - recommended, due to memory & gas cost, always set to 1",
          "qtyKG": "The KG quanity of carbon to mint across the EEUs"
        }
      },
      "retireCarbon(address,uint256,int256)": {
        "details": "Burns carbons by resizing EEUs, and/or removing EEUs from the ledgerRemoves EEUs (or fractions thereof) from the main list and from the ledger, resizing as necessaryThe supplied ledger owner must hold the supplied quantity of carbon in aggregate across ledger EEUs, and of the supplied type",
        "params": {
          "eeuTypeId": "The EEU type to burn",
          "ledgerOwner": "The ledger owner to burn",
          "qtyKG": "The tonnage to burn"
        }
      },
      "transfer(address,address,uint256,uint256,uint256,uint256,int256,uint256,int256,uint256,bool)": {
        "details": "Transfers or trades assets between ledger accountsallows: one-sided transfers, allows transfers of same asset types and transfers (trades) of different asset typesdisallows: movement from a single origin of more than one asset-typeoptionally applies: fees per the current fee structure, and paying them to contract owner's ledger entry",
        "params": {
          "applyFees": "Whether or not to apply fees (both legs) per the contract's current fee structure     * fees TODO: both sides - fixed value or % value FEE - with system/exchange account passed in as receiver      take fees (both sides possibly) before applying main transfer      throw if insufficient to cover fees",
          "ccyTypeId_A": "The currency type to move from A to B",
          "ccyTypeId_B": "The currency type to move from B to A",
          "ccy_amount_A": "The amount of currency to move from A to B",
          "ccy_amount_B": "The amount of currency to move from B to A",
          "eeuTypeId_A": "The EEU type to move from A to B",
          "eeuTypeId_B": "The EEU type to move from A to B",
          "kg_A": "The KG quantity of carbon to move from A to B",
          "kg_B": "The KG quanity of carbon to move from B to A",
          "ledger_A": "Ledger owner A",
          "ledger_B": "Ledger owner B"
        }
      },
      "withdraw(uint256,int256,address)": {
        "details": "Withdraws currency from a ledger entry",
        "params": {
          "amount": "The mount of the currency to withdraw, in currency base units",
          "ccyTypeId": "The currency type ID",
          "ledgerOwner": "The withdrawing ledger owner"
        }
      }
    }
  },
  "userdoc": {
    "methods": {
      "constructor": "ctor"
    }
  }
}