{
  "contractName": "AcMaster",
  "abi": [
    {
      "constant": true,
      "inputs": [
        {
          "name": "id",
          "type": "uint256"
        }
      ],
      "name": "getEeuBatch",
      "outputs": [
        {
          "components": [
            {
              "name": "id",
              "type": "uint256"
            },
            {
              "name": "mintedTimestamp",
              "type": "uint256"
            },
            {
              "name": "eeuTypeId",
              "type": "uint256"
            },
            {
              "name": "mintedKG",
              "type": "uint256"
            },
            {
              "name": "burnedKG",
              "type": "uint256"
            }
          ],
          "name": "",
          "type": "tuple"
        }
      ],
      "payable": false,
      "stateMutability": "view",
      "type": "function"
    },
    {
      "constant": false,
      "inputs": [
        {
          "name": "name",
          "type": "string"
        },
        {
          "name": "unit",
          "type": "string"
        }
      ],
      "name": "addCcyType",
      "outputs": [],
      "payable": false,
      "stateMutability": "nonpayable",
      "type": "function"
    },
    {
      "constant": true,
      "inputs": [],
      "name": "getEeuBatchCount",
      "outputs": [
        {
          "name": "",
          "type": "uint256"
        }
      ],
      "payable": false,
      "stateMutability": "view",
      "type": "function"
    },
    {
      "constant": false,
      "inputs": [
        {
          "name": "ccyTypeId",
          "type": "uint256"
        },
        {
          "name": "amount",
          "type": "int256"
        },
        {
          "name": "ledgerOwner",
          "type": "address"
        }
      ],
      "name": "fund",
      "outputs": [],
      "payable": false,
      "stateMutability": "nonpayable",
      "type": "function"
    },
    {
      "constant": true,
      "inputs": [],
      "name": "getEeuMintedCount",
      "outputs": [
        {
          "name": "",
          "type": "uint256"
        }
      ],
      "payable": false,
      "stateMutability": "view",
      "type": "function"
    },
    {
      "constant": true,
      "inputs": [
        {
          "name": "ccyTypeId",
          "type": "uint256"
        }
      ],
      "name": "getTotalFunded",
      "outputs": [
        {
          "name": "",
          "type": "int256"
        }
      ],
      "payable": false,
      "stateMutability": "view",
      "type": "function"
    },
    {
      "constant": true,
      "inputs": [],
      "name": "getCcyTypes",
      "outputs": [
        {
          "components": [
            {
              "components": [
                {
                  "name": "id",
                  "type": "uint256"
                },
                {
                  "name": "name",
                  "type": "string"
                },
                {
                  "name": "unit",
                  "type": "string"
                }
              ],
              "name": "ccyTypes",
              "type": "tuple[]"
            }
          ],
          "name": "",
          "type": "tuple"
        }
      ],
      "payable": false,
      "stateMutability": "view",
      "type": "function"
    },
    {
      "constant": false,
      "inputs": [
        {
          "name": "name",
          "type": "string"
        }
      ],
      "name": "addEeuType",
      "outputs": [],
      "payable": false,
      "stateMutability": "nonpayable",
      "type": "function"
    },
    {
      "constant": true,
      "inputs": [],
      "name": "version",
      "outputs": [
        {
          "name": "",
          "type": "string"
        }
      ],
      "payable": false,
      "stateMutability": "view",
      "type": "function"
    },
    {
      "constant": false,
      "inputs": [
        {
          "name": "eeuTypeId",
          "type": "uint256"
        },
        {
          "name": "qtyKG",
          "type": "int256"
        },
        {
          "name": "qtyEeus",
          "type": "int256"
        },
        {
          "name": "batchOwner",
          "type": "address"
        }
      ],
      "name": "mintEeuBatch",
      "outputs": [],
      "payable": false,
      "stateMutability": "nonpayable",
      "type": "function"
    },
    {
      "constant": false,
      "inputs": [
        {
          "name": "ledgerOwner",
          "type": "address"
        },
        {
          "name": "eeuTypeId",
          "type": "uint256"
        },
        {
          "name": "qtyKG",
          "type": "int256"
        }
      ],
      "name": "burnEeus",
      "outputs": [],
      "payable": false,
      "stateMutability": "nonpayable",
      "type": "function"
    },
    {
      "constant": true,
      "inputs": [],
      "name": "getEeuTypes",
      "outputs": [
        {
          "components": [
            {
              "components": [
                {
                  "name": "id",
                  "type": "uint256"
                },
                {
                  "name": "name",
                  "type": "string"
                }
              ],
              "name": "eeuTypes",
              "type": "tuple[]"
            }
          ],
          "name": "",
          "type": "tuple"
        }
      ],
      "payable": false,
      "stateMutability": "view",
      "type": "function"
    },
    {
      "constant": true,
      "inputs": [
        {
          "name": "id",
          "type": "uint256"
        }
      ],
      "name": "getEeu",
      "outputs": [
        {
          "components": [
            {
              "name": "exists",
              "type": "bool"
            },
            {
              "name": "id",
              "type": "uint256"
            },
            {
              "name": "mintedKG",
              "type": "uint256"
            },
            {
              "name": "KG",
              "type": "uint256"
            },
            {
              "name": "batchId",
              "type": "uint256"
            },
            {
              "name": "mintedTimestamp",
              "type": "uint256"
            }
          ],
          "name": "",
          "type": "tuple"
        }
      ],
      "payable": false,
      "stateMutability": "view",
      "type": "function"
    },
    {
      "constant": true,
      "inputs": [
        {
          "name": "account",
          "type": "address"
        }
      ],
      "name": "getLedgerEntry",
      "outputs": [
        {
          "components": [
            {
              "name": "exists",
              "type": "bool"
            },
            {
              "components": [
                {
                  "name": "eeuId",
                  "type": "uint256"
                },
                {
                  "name": "eeuTypeId",
                  "type": "uint256"
                },
                {
                  "name": "eeuTypeName",
                  "type": "string"
                },
                {
                  "name": "batchId",
                  "type": "uint256"
                },
                {
                  "name": "eeuKG",
                  "type": "uint256"
                }
              ],
              "name": "eeus",
              "type": "tuple[]"
            },
            {
              "name": "eeu_sumKG",
              "type": "uint256"
            },
            {
              "components": [
                {
                  "name": "typeId",
                  "type": "uint256"
                },
                {
                  "name": "name",
                  "type": "string"
                },
                {
                  "name": "unit",
                  "type": "string"
                },
                {
                  "name": "balance",
                  "type": "int256"
                }
              ],
              "name": "ccys",
              "type": "tuple[]"
            }
          ],
          "name": "",
          "type": "tuple"
        }
      ],
      "payable": false,
      "stateMutability": "view",
      "type": "function"
    },
    {
      "constant": true,
      "inputs": [],
      "name": "getKgCarbonMinted",
      "outputs": [
        {
          "name": "",
          "type": "uint256"
        }
      ],
      "payable": false,
      "stateMutability": "view",
      "type": "function"
    },
    {
      "constant": true,
      "inputs": [],
      "name": "getLedgerOwners",
      "outputs": [
        {
          "name": "",
          "type": "address[]"
        }
      ],
      "payable": false,
      "stateMutability": "view",
      "type": "function"
    },
    {
      "constant": true,
      "inputs": [],
      "name": "getKgCarbonBurned",
      "outputs": [
        {
          "name": "count",
          "type": "uint256"
        }
      ],
      "payable": false,
      "stateMutability": "view",
      "type": "function"
    },
    {
      "inputs": [],
      "payable": false,
      "stateMutability": "nonpayable",
      "type": "constructor"
    },
    {
      "anonymous": false,
      "inputs": [
        {
          "indexed": false,
          "name": "ccyTypeId",
          "type": "uint256"
        },
        {
          "indexed": false,
          "name": "ledgerOwner",
          "type": "address"
        },
        {
          "indexed": false,
          "name": "amount",
          "type": "int256"
        }
      ],
      "name": "FundedLedger",
      "type": "event"
    },
    {
      "anonymous": false,
      "inputs": [
        {
          "indexed": false,
          "name": "id",
          "type": "uint256"
        },
        {
          "indexed": false,
          "name": "eeuTypeId",
          "type": "uint256"
        },
        {
          "indexed": false,
          "name": "ledgerOwner",
          "type": "address"
        },
        {
          "indexed": false,
          "name": "burnedKG",
          "type": "uint256"
        }
      ],
      "name": "BurnedFullEeu",
      "type": "event"
    },
    {
      "anonymous": false,
      "inputs": [
        {
          "indexed": false,
          "name": "id",
          "type": "uint256"
        },
        {
          "indexed": false,
          "name": "eeuTypeId",
          "type": "uint256"
        },
        {
          "indexed": false,
          "name": "ledgerOwner",
          "type": "address"
        },
        {
          "indexed": false,
          "name": "burnedKG",
          "type": "uint256"
        }
      ],
      "name": "BurnedPartialEeu",
      "type": "event"
    },
    {
      "anonymous": false,
      "inputs": [
        {
          "indexed": false,
          "name": "id",
          "type": "uint256"
        },
        {
          "indexed": false,
          "name": "eeuTypeId",
          "type": "uint256"
        },
        {
          "indexed": false,
          "name": "batchOwner",
          "type": "address"
        },
        {
          "indexed": false,
          "name": "qtyKG",
          "type": "uint256"
        },
        {
          "indexed": false,
          "name": "qtyEeus",
          "type": "uint256"
        }
      ],
      "name": "MintedEeuBatch",
      "type": "event"
    },
    {
      "anonymous": false,
      "inputs": [
        {
          "indexed": false,
          "name": "id",
          "type": "uint256"
        },
        {
          "indexed": false,
          "name": "batchId",
          "type": "uint256"
        },
        {
          "indexed": false,
          "name": "eeuTypeId",
          "type": "uint256"
        },
        {
          "indexed": false,
          "name": "ledgerOwner",
          "type": "address"
        },
        {
          "indexed": false,
          "name": "mintedKG",
          "type": "uint256"
        }
      ],
      "name": "MintedEeu",
      "type": "event"
    },
    {
      "anonymous": false,
      "inputs": [
        {
          "indexed": false,
          "name": "id",
          "type": "uint256"
        },
        {
          "indexed": false,
          "name": "name",
          "type": "string"
        },
        {
          "indexed": false,
          "name": "unit",
          "type": "string"
        }
      ],
      "name": "AddedCcyType",
      "type": "event"
    },
    {
      "anonymous": false,
      "inputs": [
        {
          "indexed": false,
          "name": "id",
          "type": "uint256"
        },
        {
          "indexed": false,
          "name": "name",
          "type": "string"
        }
      ],
      "name": "AddedEeuType",
      "type": "event"
    }
  ],
  "bytecode": "0x60806040523480156200001157600080fd5b50336000806101000a81548173ffffffffffffffffffffffffffffffffffffffff021916908373ffffffffffffffffffffffffffffffffffffffff1602179055506040518060400160405280600681526020017f554e464343430000000000000000000000000000000000000000000000000000815250600160008081526020019081526020016000209080519060200190620000b09291906200033d565b506040518060400160405280600381526020017f564353000000000000000000000000000000000000000000000000000000000081525060016000600181526020019081526020016000209080519060200190620001109291906200033d565b50600280819055506040518060600160405280600081526020016040518060400160405280600381526020017f555344000000000000000000000000000000000000000000000000000000000081525081526020016040518060400160405280600581526020017f63656e747300000000000000000000000000000000000000000000000000000081525081525060036000808152602001908152602001600020600082015181600001556020820151816001019080519060200190620001d9929190620003c4565b506040820151816002019080519060200190620001f8929190620003c4565b509050506040518060600160405280600181526020016040518060400160405280600381526020017f455448000000000000000000000000000000000000000000000000000000000081525081526020016040518060400160405280600381526020017f57656900000000000000000000000000000000000000000000000000000000008152508152506003600060018152602001908152602001600020600082015181600001556020820151816001019080519060200190620002be929190620003c4565b506040820151816002019080519060200190620002dd929190620003c4565b5090505060026004819055506040518060400160405280600581526020017f302e302e3400000000000000000000000000000000000000000000000000000081525060129080519060200190620003369291906200033d565b5062000473565b828054600181600116156101000203166002900490600052602060002090601f016020900481019282601f106200038057805160ff1916838001178555620003b1565b82800160010185558215620003b1579182015b82811115620003b057825182559160200191906001019062000393565b5b509050620003c091906200044b565b5090565b828054600181600116156101000203166002900490600052602060002090601f016020900481019282601f106200040757805160ff191683800117855562000438565b8280016001018555821562000438579182015b82811115620004375782518255916020019190600101906200041a565b5b5090506200044791906200044b565b5090565b6200047091905b808211156200046c57600081600090555060010162000452565b5090565b90565b61396880620004836000396000f3fe608060405234801561001057600080fd5b506004361061010b5760003560e01c806354fd4d50116100a25780639ce9a4a6116100715780639ce9a4a614610292578063a89a8884146102c2578063ba0138cb146102f2578063bcc376c614610310578063e3f64b351461032e5761010b565b806354fd4d501461021e57806370f753de1461023c5780637b2d412a14610258578063963030df146102745761010b565b80633846d448116100de5780633846d44814610196578063448d7438146101b45780634dc26ae8146101e457806351664b26146102025761010b565b80630722a4ee146101105780630834e8641461014057806319b676151461015c5780633368402b1461017a575b600080fd5b61012a60048036036101259190810190612672565b61034c565b604051610137919061343a565b60405180910390f35b61015a60048036036101559190810190612606565b6103ab565b005b6101646105c8565b60405161017191906134d6565b60405180910390f35b610194600480360361018f919081019061269b565b6105d2565b005b61019e6108ee565b6040516101ab91906134d6565b60405180910390f35b6101ce60048036036101c99190810190612672565b6108f8565b6040516101db919061329d565b60405180910390f35b6101ec6109a4565b6040516101f99190613470565b60405180910390f35b61021c600480360361021791908101906125c5565b610bd0565b005b610226610d98565b60405161023391906132b8565b60405180910390f35b610256600480360361025191908101906126ea565b610e36565b005b610272600480360361026d9190810190612576565b6113df565b005b61027c611927565b6040516102899190613492565b60405180910390f35b6102ac60048036036102a79190810190612672565b611a86565b6040516102b99190613455565b60405180910390f35b6102dc60048036036102d7919081019061254d565b611b27565b6040516102e991906134b4565b60405180910390f35b6102fa6120ef565b60405161030791906134d6565b60405180910390f35b6103186120f9565b604051610325919061327b565b60405180910390f35b610336612216565b60405161034391906134d6565b60405180910390f35b610354612220565b600560008381526020019081526020016000206040518060a0016040529081600082015481526020016001820154815260200160028201548152602001600382015481526020016004820154815250509050919050565b6000809054906101000a900473ffffffffffffffffffffffffffffffffffffffff1673ffffffffffffffffffffffffffffffffffffffff163373ffffffffffffffffffffffffffffffffffffffff161461043a576040517f08c379a00000000000000000000000000000000000000000000000000000000081526004016104319061333a565b60405180910390fd5b60008090505b6004548110156104fb578260405160200161045b919061324d565b60405160208183030381529060405280519060200120600360008381526020019081526020016000206001016040516020016104979190613264565b6040516020818303038152906040528051906020012014156104ee576040517f08c379a00000000000000000000000000000000000000000000000000000000081526004016104e59061335a565b60405180910390fd5b8080600101915050610440565b50604051806060016040528060045481526020018381526020018281525060036000600454815260200190815260200160002060008201518160000155602082015181600101908051906020019061055492919061224f565b50604082015181600201908051906020019061057192919061224f565b509050507f41c4a4be5d1fed810ab0ace2ffe78022538a72356773c24ed010e06bdf6454b760045483836040516105aa93929190613558565b60405180910390a16004600081548092919060010191905055505050565b6000600654905090565b6000809054906101000a900473ffffffffffffffffffffffffffffffffffffffff1673ffffffffffffffffffffffffffffffffffffffff163373ffffffffffffffffffffffffffffffffffffffff1614610661576040517f08c379a00000000000000000000000000000000000000000000000000000000081526004016106589061333a565b60405180910390fd5b60008310158015610673575060045483105b6106b2576040517f08c379a00000000000000000000000000000000000000000000000000000000081526004016106a99061331a565b60405180910390fd5b600082136106f5576040517f08c379a00000000000000000000000000000000000000000000000000000000081526004016106ec9061337a565b60405180910390fd5b60001515600e60008373ffffffffffffffffffffffffffffffffffffffff1673ffffffffffffffffffffffffffffffffffffffff16815260200190815260200160002060000160009054906101000a900460ff161515141561082c57604051806020016040528060011515815250600e60008373ffffffffffffffffffffffffffffffffffffffff1673ffffffffffffffffffffffffffffffffffffffff16815260200190815260200160002060008201518160000160006101000a81548160ff021916908315150217905550905050600f8190806001815401808255809150509060018203906000526020600020016000909192909190916101000a81548173ffffffffffffffffffffffffffffffffffffffff021916908373ffffffffffffffffffffffffffffffffffffffff160217905550505b81600e60008373ffffffffffffffffffffffffffffffffffffffff1673ffffffffffffffffffffffffffffffffffffffff1681526020019081526020016000206003016000858152602001908152602001600020600082825401925050819055508160106000858152602001908152602001600020600082825401925050819055507fceb4f5d8370296e7ddd351240de1fb42e223b0153c6f09143f97a5c9926726d08382846040516108e1939291906134f1565b60405180910390a1505050565b6000600d54905090565b60008060009054906101000a900473ffffffffffffffffffffffffffffffffffffffff1673ffffffffffffffffffffffffffffffffffffffff163373ffffffffffffffffffffffffffffffffffffffff1614610989576040517f08c379a00000000000000000000000000000000000000000000000000000000081526004016109809061333a565b60405180910390fd5b60106000838152602001908152602001600020549050919050565b6109ac6122cf565b60606004546040519080825280602002602001820160405280156109ea57816020015b6109d76122e2565b8152602001906001900390816109cf5790505b50905060008090505b600454811015610bae57604051806060016040528060036000848152602001908152602001600020600001548152602001600360008481526020019081526020016000206001018054600181600116156101000203166002900480601f016020809104026020016040519081016040528092919081815260200182805460018160011615610100020316600290048015610ace5780601f10610aa357610100808354040283529160200191610ace565b820191906000526020600020905b815481529060010190602001808311610ab157829003601f168201915b50505050508152602001600360008481526020019081526020016000206002018054600181600116156101000203166002900480601f016020809104026020016040519081016040528092919081815260200182805460018160011615610100020316600290048015610b825780601f10610b5757610100808354040283529160200191610b82565b820191906000526020600020905b815481529060010190602001808311610b6557829003601f168201915b5050505050815250828281518110610b9657fe5b602002602001018190525080806001019150506109f3565b50610bb76122cf565b6040518060200160405280838152509050809250505090565b6000809054906101000a900473ffffffffffffffffffffffffffffffffffffffff1673ffffffffffffffffffffffffffffffffffffffff163373ffffffffffffffffffffffffffffffffffffffff1614610c5f576040517f08c379a0000000000000000000000000000000000000000000000000000000008152600401610c569061333a565b60405180910390fd5b60008090505b600254811015610d1d5781604051602001610c80919061324d565b6040516020818303038152906040528051906020012060016000838152602001908152602001600020604051602001610cb99190613264565b604051602081830303815290604052805190602001201415610d10576040517f08c379a0000000000000000000000000000000000000000000000000000000008152600401610d07906133fa565b60405180910390fd5b8080600101915050610c65565b50806001600060025481526020019081526020016000209080519060200190610d47929190612303565b507ff42a31d05ee5f17e0f159b94b9402293e9cf2265c806b4a55168aeaa3fe275e260025482604051610d7b929190613528565b60405180910390a160026000815480929190600101919050555050565b60128054600181600116156101000203166002900480601f016020809104026020016040519081016040528092919081815260200182805460018160011615610100020316600290048015610e2e5780601f10610e0357610100808354040283529160200191610e2e565b820191906000526020600020905b815481529060010190602001808311610e1157829003601f168201915b505050505081565b6000809054906101000a900473ffffffffffffffffffffffffffffffffffffffff1673ffffffffffffffffffffffffffffffffffffffff163373ffffffffffffffffffffffffffffffffffffffff1614610ec5576040517f08c379a0000000000000000000000000000000000000000000000000000000008152600401610ebc9061333a565b60405180910390fd5b60008410158015610ed7575060025484105b610f16576040517f08c379a0000000000000000000000000000000000000000000000000000000008152600401610f0d906132fa565b60405180910390fd5b6001821215610f5a576040517f08c379a0000000000000000000000000000000000000000000000000000000008152600401610f519061341a565b60405180910390fd5b6103e8831215610f9f576040517f08c379a0000000000000000000000000000000000000000000000000000000008152600401610f96906133ba565b60405180910390fd5b6000828481610faa57fe5b0714610feb576040517f08c379a0000000000000000000000000000000000000000000000000000000008152600401610fe29061339a565b60405180910390fd5b610ff3612220565b6040518060a0016040528060016006540181526020014281526020018681526020018581526020016000815250905080600560008360000151815260200190815260200160002060008201518160000155602082015181600101556040820151816002015560608201518160030155608082015181600401559050506006600081548092919060010191905055507f3b2a5f1232ad8fb6334d75c56a235d50209dc23e6b0b51325b2e98e17a6ffc3d8160000151868487876040516110bc9594939291906135e2565b60405180910390a160001515600e60008473ffffffffffffffffffffffffffffffffffffffff1673ffffffffffffffffffffffffffffffffffffffff16815260200190815260200160002060000160009054906101000a900460ff16151514156111fb57604051806020016040528060011515815250600e60008473ffffffffffffffffffffffffffffffffffffffff1673ffffffffffffffffffffffffffffffffffffffff16815260200190815260200160002060008201518160000160006101000a81548160ff021916908315150217905550905050600f8290806001815401808255809150509060018203906000526020600020016000909192909190916101000a81548173ffffffffffffffffffffffffffffffffffffffff021916908373ffffffffffffffffffffffffffffffffffffffff160217905550505b60008090505b83811215611356576000816001600d5401019050600085878161122057fe5b0490508360000151600760008481526020019081526020016000208190555080600860008481526020019081526020016000208190555080600960008481526020019081526020016000208190555042600a6000848152602001908152602001600020819055507fbdf1b0fbadd676a593dc51c25399111b5cf1795fd1315c7545271c18c1b265cd8285600001518a88856040516112c2959493929190613635565b60405180910390a1600e60008673ffffffffffffffffffffffffffffffffffffffff1673ffffffffffffffffffffffffffffffffffffffff168152602001908152602001600020600101600089815260200190815260200160002082908060018154018082558091505090600182039060005260206000200160009091929091909150555050508080600101915050611201565b5083600e60008473ffffffffffffffffffffffffffffffffffffffff1673ffffffffffffffffffffffffffffffffffffffff16815260200190815260200160002060020160008781526020019081526020016000206000828254019250508190555082600d6000828254019250508190555083600b600082825401925050819055505050505050565b6000809054906101000a900473ffffffffffffffffffffffffffffffffffffffff1673ffffffffffffffffffffffffffffffffffffffff163373ffffffffffffffffffffffffffffffffffffffff161461146e576040517f08c379a00000000000000000000000000000000000000000000000000000000081526004016114659061333a565b60405180910390fd5b60011515600e60008573ffffffffffffffffffffffffffffffffffffffff1673ffffffffffffffffffffffffffffffffffffffff16815260200190815260200160002060000160009054906101000a900460ff16151514611504576040517f08c379a00000000000000000000000000000000000000000000000000000000081526004016114fb906132da565b60405180910390fd5b6103e8811215611549576040517f08c379a0000000000000000000000000000000000000000000000000000000008152600401611540906133ba565b60405180910390fd5b6000821015801561155b575060025482105b61159a576040517f08c379a0000000000000000000000000000000000000000000000000000000008152600401611591906132fa565b60405180910390fd5b80600e60008573ffffffffffffffffffffffffffffffffffffffff1673ffffffffffffffffffffffffffffffffffffffff1681526020019081526020016000206002016000848152602001908152602001600020541015611630576040517f08c379a0000000000000000000000000000000000000000000000000000000008152600401611627906133da565b60405180910390fd5b600080905060008290505b6000811115611910576000600e60008773ffffffffffffffffffffffffffffffffffffffff1673ffffffffffffffffffffffffffffffffffffffff1681526020019081526020016000206001016000868152602001908152602001600020905060008184815481106116a957fe5b9060005260206000200154905060006009600083815260200190815260200160002054905060006007600084815260200190815260200160002054905081851061181f57600060096000858152602001908152602001600020819055508360018580549050038154811061171957fe5b906000526020600020015484878154811061173057fe5b9060005260206000200181905550838054809190600190036117529190612383565b5081600e60008b73ffffffffffffffffffffffffffffffffffffffff1673ffffffffffffffffffffffffffffffffffffffff16815260200190815260200160002060020160008a81526020019081526020016000206000828254039250508190555081600560008381526020019081526020016000206004016000828254019250508190555081850394507ff214be5dc9cf391efd4738b59af95842784d47fd41a2b9057df440d144f3c67d83898b85604051611812949392919061359d565b60405180910390a1611907565b84600960008581526020019081526020016000206000828254039250508190555084600e60008b73ffffffffffffffffffffffffffffffffffffffff1673ffffffffffffffffffffffffffffffffffffffff16815260200190815260200160002060020160008a8152602001908152602001600020600082825403925050819055508460056000838152602001908152602001600020600401600082825401925050819055507fe304852108e009cdefa218a22b44f9a1f921fb5692ead9b6fb815d388e24869f83898b886040516118fa949392919061359d565b60405180910390a1600094505b5050505061163b565b82600c600082825401925050819055505050505050565b61192f6123af565b606060025460405190808252806020026020018201604052801561196d57816020015b61195a6123c2565b8152602001906001900390816119525790505b50905060008090505b600254811015611a64576040518060400160405280828152602001600160008481526020019081526020016000208054600181600116156101000203166002900480601f016020809104026020016040519081016040528092919081815260200182805460018160011615610100020316600290048015611a385780601f10611a0d57610100808354040283529160200191611a38565b820191906000526020600020905b815481529060010190602001808311611a1b57829003601f168201915b5050505050815250828281518110611a4c57fe5b60200260200101819052508080600101915050611976565b50611a6d6123af565b6040518060200160405280838152509050809250505090565b611a8e6123dc565b6040518060c0016040528060006007600086815260200190815260200160002054141515158152602001838152602001600860008581526020019081526020016000205481526020016009600085815260200190815260200160002054815260200160076000858152602001908152602001600020548152602001600a6000858152602001908152602001600020548152509050919050565b611b2f612414565b6060806000809050600080905060008090505b600254811015611bb457600e60008873ffffffffffffffffffffffffffffffffffffffff1673ffffffffffffffffffffffffffffffffffffffff168152602001908152602001600020600101600082815260200190815260200160002080549050820191508080600101915050611b42565b5080604051908082528060200260200182016040528015611bef57816020015b611bdc61243e565b815260200190600190039081611bd45790505b509350600080905060008090505b600254811015611e20576060600e60008a73ffffffffffffffffffffffffffffffffffffffff1673ffffffffffffffffffffffffffffffffffffffff1681526020019081526020016000206001016000838152602001908152602001600020805480602002602001604051908101604052809291908181526020018280548015611ca657602002820191906000526020600020905b815481526020019060010190808311611c92575b5050505050905060008090505b8151811015611e11576000828281518110611cca57fe5b602002602001015190506009600082815260200190815260200160002054870196506040518060a00160405280828152602001858152602001600160008781526020019081526020016000208054600181600116156101000203166002900480601f016020809104026020016040519081016040528092919081815260200182805460018160011615610100020316600290048015611daa5780601f10611d7f57610100808354040283529160200191611daa565b820191906000526020600020905b815481529060010190602001808311611d8d57829003601f168201915b50505050508152602001600760008481526020019081526020016000205481526020016009600084815260200190815260200160002054815250898681518110611df057fe5b60200260200101819052508480600101955050508080600101915050611cb3565b50508080600101915050611bfd565b50600454604051908082528060200260200182016040528015611e5d57816020015b611e4a61246d565b815260200190600190039081611e425790505b50935060008090505b600454811015612064576040518060800160405280828152602001600360008481526020019081526020016000206001018054600181600116156101000203166002900480601f016020809104026020016040519081016040528092919081815260200182805460018160011615610100020316600290048015611f2b5780601f10611f0057610100808354040283529160200191611f2b565b820191906000526020600020905b815481529060010190602001808311611f0e57829003601f168201915b50505050508152602001600360008481526020019081526020016000206002018054600181600116156101000203166002900480601f016020809104026020016040519081016040528092919081815260200182805460018160011615610100020316600290048015611fdf5780601f10611fb457610100808354040283529160200191611fdf565b820191906000526020600020905b815481529060010190602001808311611fc257829003601f168201915b50505050508152602001600e60008b73ffffffffffffffffffffffffffffffffffffffff1673ffffffffffffffffffffffffffffffffffffffff16815260200190815260200160002060030160008481526020019081526020016000205481525085828151811061204c57fe5b60200260200101819052508080600101915050611e66565b5061206d612414565b6040518060800160405280600e60008b73ffffffffffffffffffffffffffffffffffffffff1673ffffffffffffffffffffffffffffffffffffffff16815260200190815260200160002060000160009054906101000a900460ff1615158152602001878152602001858152602001868152509050809650505050505050919050565b6000600b54905090565b60606000809054906101000a900473ffffffffffffffffffffffffffffffffffffffff1673ffffffffffffffffffffffffffffffffffffffff163373ffffffffffffffffffffffffffffffffffffffff161461218a576040517f08c379a00000000000000000000000000000000000000000000000000000000081526004016121819061333a565b60405180910390fd5b600f80548060200260200160405190810160405280929190818152602001828054801561220c57602002820191906000526020600020905b8160009054906101000a900473ffffffffffffffffffffffffffffffffffffffff1673ffffffffffffffffffffffffffffffffffffffff16815260200190600101908083116121c2575b5050505050905090565b6000600c54905090565b6040518060a0016040528060008152602001600081526020016000815260200160008152602001600081525090565b828054600181600116156101000203166002900490600052602060002090601f016020900481019282601f1061229057805160ff19168380011785556122be565b828001600101855582156122be579182015b828111156122bd5782518255916020019190600101906122a2565b5b5090506122cb9190612495565b5090565b6040518060200160405280606081525090565b60405180606001604052806000815260200160608152602001606081525090565b828054600181600116156101000203166002900490600052602060002090601f016020900481019282601f1061234457805160ff1916838001178555612372565b82800160010185558215612372579182015b82811115612371578251825591602001919060010190612356565b5b50905061237f9190612495565b5090565b8154818355818111156123aa578183600052602060002091820191016123a99190612495565b5b505050565b6040518060200160405280606081525090565b604051806040016040528060008152602001606081525090565b6040518060c0016040528060001515815260200160008152602001600081526020016000815260200160008152602001600081525090565b60405180608001604052806000151581526020016060815260200160008152602001606081525090565b6040518060a0016040528060008152602001600081526020016060815260200160008152602001600081525090565b6040518060800160405280600081526020016060815260200160608152602001600081525090565b6124b791905b808211156124b357600081600090555060010161249b565b5090565b90565b6000813590506124c9816138e9565b92915050565b6000813590506124de81613900565b92915050565b600082601f8301126124f557600080fd5b8135612508612503826136b5565b613688565b9150808252602083016020830185838301111561252457600080fd5b61252f838284613896565b50505092915050565b60008135905061254781613917565b92915050565b60006020828403121561255f57600080fd5b600061256d848285016124ba565b91505092915050565b60008060006060848603121561258b57600080fd5b6000612599868287016124ba565b93505060206125aa86828701612538565b92505060406125bb868287016124cf565b9150509250925092565b6000602082840312156125d757600080fd5b600082013567ffffffffffffffff8111156125f157600080fd5b6125fd848285016124e4565b91505092915050565b6000806040838503121561261957600080fd5b600083013567ffffffffffffffff81111561263357600080fd5b61263f858286016124e4565b925050602083013567ffffffffffffffff81111561265c57600080fd5b612668858286016124e4565b9150509250929050565b60006020828403121561268457600080fd5b600061269284828501612538565b91505092915050565b6000806000606084860312156126b057600080fd5b60006126be86828701612538565b93505060206126cf868287016124cf565b92505060406126e0868287016124ba565b9150509250925092565b6000806000806080858703121561270057600080fd5b600061270e87828801612538565b945050602061271f878288016124cf565b9350506040612730878288016124cf565b9250506060612741878288016124ba565b91505092959194509250565b600061275983836127b5565b60208301905092915050565b60006127718383612f1a565b905092915050565b60006127858383613054565b905092915050565b600061279983836130e5565b905092915050565b60006127ad838361314f565b905092915050565b6127be81613844565b82525050565b6127cd81613844565b82525050565b60006127de82613734565b6127e881856137c2565b93506127f3836136e1565b8060005b8381101561282457815161280b888261274d565b975061281683613781565b9250506001810190506127f7565b5085935050505092915050565b600061283c8261373f565b61284681856137d3565b935083602082028501612858856136ee565b8060005b8581101561289457848403895281516128758582612765565b94506128808361378e565b925060208a0199505060018101905061285c565b50829750879550505050505092915050565b60006128b18261374a565b6128bb81856137e4565b9350836020820285016128cd856136fb565b8060005b8581101561290957848403895281516128ea8582612779565b94506128f58361379b565b925060208a019950506001810190506128d1565b50829750879550505050505092915050565b600061292682613755565b61293081856137f5565b93508360208202850161294285613708565b8060005b8581101561297e578484038952815161295f858261278d565b945061296a836137a8565b925060208a01995050600181019050612946565b50829750879550505050505092915050565b600061299b82613760565b6129a58185613806565b9350836020820285016129b785613715565b8060005b858110156129f357848403895281516129d485826127a1565b94506129df836137b5565b925060208a019950506001810190506129bb565b50829750879550505050505092915050565b612a0e81613856565b82525050565b612a1d81613862565b82525050565b612a2c81613862565b82525050565b6000612a3d82613776565b612a478185613828565b9350612a578185602086016138a5565b612a60816138d8565b840191505092915050565b6000612a7682613776565b612a808185613839565b9350612a908185602086016138a5565b80840191505092915050565b6000612aa78261376b565b612ab18185613817565b9350612ac18185602086016138a5565b612aca816138d8565b840191505092915050565b6000612ae08261376b565b612aea8185613828565b9350612afa8185602086016138a5565b612b03816138d8565b840191505092915050565b600081546001811660008114612b2b5760018114612b5057612b94565b607f6002830416612b3c8187613839565b955060ff1983168652808601935050612b94565b60028204612b5e8187613839565b9550612b6985613722565b60005b82811015612b8b57815481890152600182019150602081019050612b6c565b82880195505050505b505092915050565b6000612ba9601483613828565b91507f496e76616c6964206c6564676572206f776e65720000000000000000000000006000830152602082019050919050565b6000612be9601083613828565b91507f496e76616c6964204545552074797065000000000000000000000000000000006000830152602082019050919050565b6000612c29601583613828565b91507f496e76616c69642063757272656e6379207479706500000000000000000000006000830152602082019050919050565b6000612c69601183613828565b91507f52657374726963746564206d6574686f640000000000000000000000000000006000830152602082019050919050565b6000612ca9602183613828565b91507f43757272656e63792074797065206e616d6520616c726561647920657869737460008301527f73000000000000000000000000000000000000000000000000000000000000006020830152604082019050919050565b6000612d0f602283613828565b91507f4d696e696d756d206f6e652063757272656e637920756e69742072657175697260008301527f65640000000000000000000000000000000000000000000000000000000000006020830152604082019050919050565b6000612d75602a83613828565b91507f436172626f6e20776569676874206d75737420646976696465206576656e6c7960008301527f20696e746f2045455573000000000000000000000000000000000000000000006020830152604082019050919050565b6000612ddb602983613828565b91507f4d696e696d756d206f6e65206d657472696320746f6e206f6620636172626f6e60008301527f20726571756972656400000000000000000000000000000000000000000000006020830152604082019050919050565b6000612e41602883613828565b91507f496e73756666696369656e7420636172626f6e2068656c64206279206c65646760008301527f6572206f776e65720000000000000000000000000000000000000000000000006020830152604082019050919050565b6000612ea7601c83613828565b91507f4545552074797065206e616d6520616c726561647920657869737473000000006000830152602082019050919050565b6000612ee7601883613828565b91507f4d696e696d756d206f6e652045455520726571756972656400000000000000006000830152602082019050919050565b6000606083016000830151612f32600086018261322f565b5060208301518482036020860152612f4a8282612a9c565b91505060408301518482036040860152612f648282612a9c565b9150508091505092915050565b60a082016000820151612f87600085018261322f565b506020820151612f9a602085018261322f565b506040820151612fad604085018261322f565b506060820151612fc0606085018261322f565b506080820151612fd3608085018261322f565b50505050565b60c082016000820151612fef6000850182612a05565b506020820151613002602085018261322f565b506040820151613015604085018261322f565b506060820151613028606085018261322f565b50608082015161303b608085018261322f565b5060a082015161304e60a085018261322f565b50505050565b600060408301600083015161306c600086018261322f565b50602083015184820360208601526130848282612a9c565b9150508091505092915050565b600060208301600083015184820360008601526130ae8282612831565b9150508091505092915050565b600060208301600083015184820360008601526130d882826128a6565b9150508091505092915050565b60006080830160008301516130fd600086018261322f565b50602083015184820360208601526131158282612a9c565b9150506040830151848203604086015261312f8282612a9c565b91505060608301516131446060860182612a14565b508091505092915050565b600060a083016000830151613167600086018261322f565b50602083015161317a602086018261322f565b50604083015184820360408601526131928282612a9c565b91505060608301516131a7606086018261322f565b5060808301516131ba608086018261322f565b508091505092915050565b60006080830160008301516131dd6000860182612a05565b50602083015184820360208601526131f58282612990565b915050604083015161320a604086018261322f565b5060608301518482036060860152613222828261291b565b9150508091505092915050565b6132388161388c565b82525050565b6132478161388c565b82525050565b60006132598284612a6b565b915081905092915050565b60006132708284612b0e565b915081905092915050565b6000602082019050818103600083015261329581846127d3565b905092915050565b60006020820190506132b26000830184612a23565b92915050565b600060208201905081810360008301526132d28184612ad5565b905092915050565b600060208201905081810360008301526132f381612b9c565b9050919050565b6000602082019050818103600083015261331381612bdc565b9050919050565b6000602082019050818103600083015261333381612c1c565b9050919050565b6000602082019050818103600083015261335381612c5c565b9050919050565b6000602082019050818103600083015261337381612c9c565b9050919050565b6000602082019050818103600083015261339381612d02565b9050919050565b600060208201905081810360008301526133b381612d68565b9050919050565b600060208201905081810360008301526133d381612dce565b9050919050565b600060208201905081810360008301526133f381612e34565b9050919050565b6000602082019050818103600083015261341381612e9a565b9050919050565b6000602082019050818103600083015261343381612eda565b9050919050565b600060a08201905061344f6000830184612f71565b92915050565b600060c08201905061346a6000830184612fd9565b92915050565b6000602082019050818103600083015261348a8184613091565b905092915050565b600060208201905081810360008301526134ac81846130bb565b905092915050565b600060208201905081810360008301526134ce81846131c5565b905092915050565b60006020820190506134eb600083018461323e565b92915050565b6000606082019050613506600083018661323e565b61351360208301856127c4565b6135206040830184612a23565b949350505050565b600060408201905061353d600083018561323e565b818103602083015261354f8184612a32565b90509392505050565b600060608201905061356d600083018661323e565b818103602083015261357f8185612a32565b905081810360408301526135938184612a32565b9050949350505050565b60006080820190506135b2600083018761323e565b6135bf602083018661323e565b6135cc60408301856127c4565b6135d9606083018461323e565b95945050505050565b600060a0820190506135f7600083018861323e565b613604602083018761323e565b61361160408301866127c4565b61361e606083018561323e565b61362b608083018461323e565b9695505050505050565b600060a08201905061364a600083018861323e565b613657602083018761323e565b613664604083018661323e565b61367160608301856127c4565b61367e608083018461323e565b9695505050505050565b6000604051905081810181811067ffffffffffffffff821117156136ab57600080fd5b8060405250919050565b600067ffffffffffffffff8211156136cc57600080fd5b601f19601f8301169050602081019050919050565b6000602082019050919050565b6000602082019050919050565b6000602082019050919050565b6000602082019050919050565b6000602082019050919050565b60008160005260206000209050919050565b600081519050919050565b600081519050919050565b600081519050919050565b600081519050919050565b600081519050919050565b600081519050919050565b600081519050919050565b6000602082019050919050565b6000602082019050919050565b6000602082019050919050565b6000602082019050919050565b6000602082019050919050565b600082825260208201905092915050565b600082825260208201905092915050565b600082825260208201905092915050565b600082825260208201905092915050565b600082825260208201905092915050565b600082825260208201905092915050565b600082825260208201905092915050565b600081905092915050565b600061384f8261386c565b9050919050565b60008115159050919050565b6000819050919050565b600073ffffffffffffffffffffffffffffffffffffffff82169050919050565b6000819050919050565b82818337600083830152505050565b60005b838110156138c35780820151818401526020810190506138a8565b838111156138d2576000848401525b50505050565b6000601f19601f8301169050919050565b6138f281613844565b81146138fd57600080fd5b50565b61390981613862565b811461391457600080fd5b50565b6139208161388c565b811461392b57600080fd5b5056fea265627a7a7230582053f2598539110fed3749f3a93a6acc7e7ea9121574464613a608c8dfc45175626c6578706572696d656e74616cf50037",
  "source": "pragma solidity 0.5.8;\r\npragma experimental ABIEncoderV2;\r\n\r\nimport \"./EeuMintable.sol\";\r\nimport \"./EeuBurnable.sol\";\r\nimport \"./EeuTradable.sol\";\r\nimport \"./CcyFundable.sol\";\r\n\r\ncontract AcMaster is EeuMintable, EeuBurnable, CcyFundable, EeuTradable {\r\n    string public version;\r\n\r\n    /**\r\n     * ctor\r\n     */\r\n    constructor() public {\r\n        version = \"0.0.4\";\r\n    }\r\n}\r\n",
  "sourcePath": "C:/ac/src/ac-monorepo/packages/erc20/contracts/AcMaster/AcMaster.sol",
  "compiler": {
    "name": "solc",
    "version": "0.5.8+commit.23d335f2.Emscripten.clang"
  },
  "schemaVersion": "3.0.11",
  "updatedAt": "2019-08-08T05:38:37.035Z",
  "devdoc": {
    "methods": {
      "addCcyType(string,string)": {
        "details": "Adds a new currency type\r",
        "params": {
          "name": "The new currency type name\r",
          "unit": "The base unit of the new currency type\r"
        }
      },
      "addEeuType(string)": {
        "details": "Adds a new EEU type\r",
        "params": {
          "name": "The new EEU type name\r"
        }
      },
      "burnEeus(address,uint256,int256)": {
        "details": "Burns carbons by resizing EEUs, and/or removing EEUs from the ledger\rRemoves EEUs (or fractions thereof) from the main list and from the ledger, resizing as necessary\rThe supplied ledger owner must hold the supplied quantity of carbon in aggregate across ledger EEUs, and of the supplied type\r",
        "params": {
          "eeuTypeId": "The EEU type to burn\r",
          "ledgerOwner": "The ledger owner to burn\r",
          "qtyKG": "The tonnage to burn\r"
        }
      },
      "fund(uint256,int256,address)": {
        "details": "Funds a ledger entry with a currency amount\r",
        "params": {
          "amount": "The mount of the currency to fund, in currency base units\r",
          "ccyTypeId": "The currency type ID\r",
          "ledgerOwner": "The ledger owner to fund\r"
        }
      },
      "getCcyTypes()": {
        "details": "Returns current currency types\r"
      },
      "getEeu(uint256)": {
        "details": "Returns an EEU by ID\r"
      },
      "getEeuBatch(uint256)": {
        "details": "Returns an EEU batch by ID\r"
      },
      "getEeuBatchCount()": {
        "details": "Returns the global EEU batch count\r"
      },
      "getEeuMintedCount()": {
        "details": "Returns the global no. of EEUs minted\r"
      },
      "getEeuTypes()": {
        "details": "Returns current EEU types\r"
      },
      "getKgCarbonBurned()": {
        "details": "Returns the global no. of KGs carbon burned in EEUs\r"
      },
      "getKgCarbonMinted()": {
        "details": "Returns the global no. of KGs carbon minted in EEUs\r"
      },
      "getLedgerEntry(address)": {
        "details": "Returns the ledger entry for a single account\r"
      },
      "getLedgerOwners()": {
        "details": "Returns all accounts in the ledger\r"
      },
      "getTotalFunded(uint256)": {
        "details": "Returns the total amount funded for the supplied currency\r"
      },
      "mintEeuBatch(uint256,int256,int256,address)": {
        "details": "Mints and assigns initial ownership of a new EEU batch\r",
        "params": {
          "batchOwner": "The ledger owner to assign the minted EEUs to\r",
          "eeuTypeId": "The EEU-type for the batch\r",
          "qtyEeus": "The quantity of EEUs to mint - recommended, due to memory & gas cost, always set to 1\r",
          "qtyKG": "The KG quanity of carbon to mint across the EEUs\r"
        }
      }
    }
  },
  "userdoc": {
    "methods": {
      "constructor": "ctor\r"
    }
  }
}