{
  "contractName": "AcMaster",
  "abi": [
    {
      "constant": true,
      "inputs": [
        {
          "name": "id",
          "type": "uint256"
        }
      ],
      "name": "getEeuBatch",
      "outputs": [
        {
          "components": [
            {
              "name": "id",
              "type": "uint256"
            },
            {
              "name": "mintedTimestamp",
              "type": "uint256"
            },
            {
              "name": "eeuTypeId",
              "type": "uint256"
            },
            {
              "name": "mintedKG",
              "type": "uint256"
            },
            {
              "name": "burnedKG",
              "type": "uint256"
            }
          ],
          "name": "",
          "type": "tuple"
        }
      ],
      "payable": false,
      "stateMutability": "view",
      "type": "function"
    },
    {
      "constant": false,
      "inputs": [
        {
          "name": "name",
          "type": "string"
        },
        {
          "name": "unit",
          "type": "string"
        }
      ],
      "name": "addCcyType",
      "outputs": [],
      "payable": false,
      "stateMutability": "nonpayable",
      "type": "function"
    },
    {
      "constant": true,
      "inputs": [],
      "name": "getEeuBatchCount",
      "outputs": [
        {
          "name": "",
          "type": "uint256"
        }
      ],
      "payable": false,
      "stateMutability": "view",
      "type": "function"
    },
    {
      "constant": true,
      "inputs": [],
      "name": "getEeuMintedCount",
      "outputs": [
        {
          "name": "count",
          "type": "uint256"
        }
      ],
      "payable": false,
      "stateMutability": "view",
      "type": "function"
    },
    {
      "constant": true,
      "inputs": [],
      "name": "getCcyTypes",
      "outputs": [
        {
          "components": [
            {
              "components": [
                {
                  "name": "id",
                  "type": "uint256"
                },
                {
                  "name": "name",
                  "type": "string"
                },
                {
                  "name": "unit",
                  "type": "string"
                }
              ],
              "name": "ccyTypes",
              "type": "tuple[]"
            }
          ],
          "name": "",
          "type": "tuple"
        }
      ],
      "payable": false,
      "stateMutability": "view",
      "type": "function"
    },
    {
      "constant": false,
      "inputs": [
        {
          "name": "name",
          "type": "string"
        }
      ],
      "name": "addEeuType",
      "outputs": [],
      "payable": false,
      "stateMutability": "nonpayable",
      "type": "function"
    },
    {
      "constant": true,
      "inputs": [],
      "name": "version",
      "outputs": [
        {
          "name": "",
          "type": "string"
        }
      ],
      "payable": false,
      "stateMutability": "view",
      "type": "function"
    },
    {
      "constant": false,
      "inputs": [
        {
          "name": "eeuTypeId",
          "type": "uint256"
        },
        {
          "name": "qtyKG",
          "type": "int256"
        },
        {
          "name": "qtyEeus",
          "type": "int256"
        },
        {
          "name": "batchOwner",
          "type": "address"
        }
      ],
      "name": "mintEeuBatch",
      "outputs": [],
      "payable": false,
      "stateMutability": "nonpayable",
      "type": "function"
    },
    {
      "constant": false,
      "inputs": [
        {
          "name": "ledgerOwner",
          "type": "address"
        },
        {
          "name": "eeuTypeId",
          "type": "uint256"
        },
        {
          "name": "qtyKG",
          "type": "int256"
        }
      ],
      "name": "burnEeus",
      "outputs": [],
      "payable": false,
      "stateMutability": "nonpayable",
      "type": "function"
    },
    {
      "constant": true,
      "inputs": [],
      "name": "getEeuTypes",
      "outputs": [
        {
          "components": [
            {
              "components": [
                {
                  "name": "typeId",
                  "type": "uint256"
                },
                {
                  "name": "typeName",
                  "type": "string"
                }
              ],
              "name": "eeuTypes",
              "type": "tuple[]"
            }
          ],
          "name": "",
          "type": "tuple"
        }
      ],
      "payable": false,
      "stateMutability": "view",
      "type": "function"
    },
    {
      "constant": true,
      "inputs": [
        {
          "name": "id",
          "type": "uint256"
        }
      ],
      "name": "getEeu",
      "outputs": [
        {
          "components": [
            {
              "name": "exists",
              "type": "bool"
            },
            {
              "name": "id",
              "type": "uint256"
            },
            {
              "name": "mintedKG",
              "type": "uint256"
            },
            {
              "name": "KG",
              "type": "uint256"
            },
            {
              "name": "batchId",
              "type": "uint256"
            },
            {
              "name": "mintedTimestamp",
              "type": "uint256"
            }
          ],
          "name": "",
          "type": "tuple"
        }
      ],
      "payable": false,
      "stateMutability": "view",
      "type": "function"
    },
    {
      "constant": true,
      "inputs": [
        {
          "name": "account",
          "type": "address"
        }
      ],
      "name": "getLedgerEntry",
      "outputs": [
        {
          "components": [
            {
              "name": "exists",
              "type": "bool"
            },
            {
              "components": [
                {
                  "name": "eeuId",
                  "type": "uint256"
                },
                {
                  "name": "eeuTypeId",
                  "type": "uint256"
                },
                {
                  "name": "eeuTypeName",
                  "type": "string"
                },
                {
                  "name": "batchId",
                  "type": "uint256"
                },
                {
                  "name": "eeuKG",
                  "type": "uint256"
                }
              ],
              "name": "eeus",
              "type": "tuple[]"
            },
            {
              "name": "eeu_sumKG",
              "type": "uint256"
            },
            {
              "components": [
                {
                  "name": "ccyTypeId",
                  "type": "uint256"
                },
                {
                  "name": "ccyBalance",
                  "type": "int256"
                }
              ],
              "name": "ccys",
              "type": "tuple[]"
            }
          ],
          "name": "",
          "type": "tuple"
        }
      ],
      "payable": false,
      "stateMutability": "view",
      "type": "function"
    },
    {
      "constant": true,
      "inputs": [],
      "name": "getKgCarbonMinted",
      "outputs": [
        {
          "name": "count",
          "type": "uint256"
        }
      ],
      "payable": false,
      "stateMutability": "view",
      "type": "function"
    },
    {
      "constant": true,
      "inputs": [],
      "name": "getLedgerOwners",
      "outputs": [
        {
          "name": "",
          "type": "address[]"
        }
      ],
      "payable": false,
      "stateMutability": "view",
      "type": "function"
    },
    {
      "constant": true,
      "inputs": [],
      "name": "getKgCarbonBurned",
      "outputs": [
        {
          "name": "count",
          "type": "uint256"
        }
      ],
      "payable": false,
      "stateMutability": "view",
      "type": "function"
    },
    {
      "inputs": [],
      "payable": false,
      "stateMutability": "nonpayable",
      "type": "constructor"
    },
    {
      "anonymous": false,
      "inputs": [
        {
          "indexed": false,
          "name": "id",
          "type": "uint256"
        }
      ],
      "name": "BurnedFullEeu",
      "type": "event"
    },
    {
      "anonymous": false,
      "inputs": [
        {
          "indexed": false,
          "name": "id",
          "type": "uint256"
        }
      ],
      "name": "BurnedPartialEeu",
      "type": "event"
    },
    {
      "anonymous": false,
      "inputs": [
        {
          "indexed": false,
          "name": "id",
          "type": "uint256"
        }
      ],
      "name": "MintedEeuBatch",
      "type": "event"
    },
    {
      "anonymous": false,
      "inputs": [
        {
          "indexed": false,
          "name": "id",
          "type": "uint256"
        }
      ],
      "name": "MintedEeu",
      "type": "event"
    }
  ],
  "bytecode": "0x60806040523480156200001157600080fd5b50336000806101000a81548173ffffffffffffffffffffffffffffffffffffffff021916908373ffffffffffffffffffffffffffffffffffffffff1602179055506040518060400160405280600681526020017f554e464343430000000000000000000000000000000000000000000000000000815250600160008081526020019081526020016000209080519060200190620000b092919062000232565b506040518060400160405280600381526020017f5643530000000000000000000000000000000000000000000000000000000000815250600160006001815260200190815260200160002090805190602001906200011092919062000232565b50600280819055506040518060400160405280600581526020017f302e302e34000000000000000000000000000000000000000000000000000000815250601090805190602001906200016592919062000232565b506040518060400160405280600681526020017f554e464343430000000000000000000000000000000000000000000000000000815250600160008081526020019081526020016000209080519060200190620001c492919062000232565b506040518060400160405280600381526020017f5643530000000000000000000000000000000000000000000000000000000000815250600160006001815260200190815260200160002090805190602001906200022492919062000232565b5060028081905550620002e1565b828054600181600116156101000203166002900490600052602060002090601f016020900481019282601f106200027557805160ff1916838001178555620002a6565b82800160010185558215620002a6579182015b82811115620002a557825182559160200191906001019062000288565b5b509050620002b59190620002b9565b5090565b620002de91905b80821115620002da576000816000905550600101620002c0565b5090565b90565b612cdb80620002f16000396000f3fe608060405234801561001057600080fd5b50600436106100f55760003560e01c806370f753de11610097578063a89a888411610066578063a89a888414610260578063ba0138cb14610290578063bcc376c6146102ae578063e3f64b35146102cc576100f5565b806370f753de146101da5780637b2d412a146101f6578063963030df146102125780639ce9a4a614610230576100f5565b80633846d448116100d35780633846d448146101645780634dc26ae81461018257806351664b26146101a057806354fd4d50146101bc576100f5565b80630722a4ee146100fa5780630834e8641461012a57806319b6761514610146575b600080fd5b610114600480360361010f9190810190611df7565b6102ea565b6040516101219190612944565b60405180910390f35b610144600480360361013f9190810190611d8b565b610349565b005b61014e6103fa565b60405161015b91906129e0565b60405180910390f35b61016c610404565b60405161017991906129e0565b60405180910390f35b61018a61040e565b604051610197919061297a565b60405180910390f35b6101ba60048036036101b59190810190611d4a565b61063a565b005b6101c46107c7565b6040516101d19190612822565b60405180910390f35b6101f460048036036101ef9190810190611e20565b610865565b005b610210600480360361020b9190810190611cfb565b610dfa565b005b61021a611336565b604051610227919061299c565b60405180910390f35b61024a60048036036102459190810190611df7565b611495565b604051610257919061295f565b60405180910390f35b61027a60048036036102759190810190611cd2565b611536565b60405161028791906129be565b60405180910390f35b610298611991565b6040516102a591906129e0565b60405180910390f35b6102b661199b565b6040516102c39190612800565b60405180910390f35b6102d4611a29565b6040516102e191906129e0565b60405180910390f35b6102f2611a33565b600560008381526020019081526020016000206040518060a0016040529081600082015481526020016001820154815260200160028201548152602001600382015481526020016004820154815250509050919050565b6000809054906101000a900473ffffffffffffffffffffffffffffffffffffffff1673ffffffffffffffffffffffffffffffffffffffff163373ffffffffffffffffffffffffffffffffffffffff16146103d8576040517f08c379a00000000000000000000000000000000000000000000000000000000081526004016103cf90612884565b60405180910390fd5b60008090505b6004548110156103f55780806001019150506103de565b505050565b6000600654905090565b6000600d54905090565b610416611a62565b606060045460405190808252806020026020018201604052801561045457816020015b610441611a75565b8152602001906001900390816104395790505b50905060008090505b60045481101561061857604051806060016040528060036000848152602001908152602001600020600001548152602001600360008481526020019081526020016000206001018054600181600116156101000203166002900480601f0160208091040260200160405190810160405280929190818152602001828054600181600116156101000203166002900480156105385780601f1061050d57610100808354040283529160200191610538565b820191906000526020600020905b81548152906001019060200180831161051b57829003601f168201915b50505050508152602001600360008481526020019081526020016000206002018054600181600116156101000203166002900480601f0160208091040260200160405190810160405280929190818152602001828054600181600116156101000203166002900480156105ec5780601f106105c1576101008083540402835291602001916105ec565b820191906000526020600020905b8154815290600101906020018083116105cf57829003601f168201915b505050505081525082828151811061060057fe5b6020026020010181905250808060010191505061045d565b50610621611a62565b6040518060200160405280838152509050809250505090565b6000809054906101000a900473ffffffffffffffffffffffffffffffffffffffff1673ffffffffffffffffffffffffffffffffffffffff163373ffffffffffffffffffffffffffffffffffffffff16146106c9576040517f08c379a00000000000000000000000000000000000000000000000000000000081526004016106c090612884565b60405180910390fd5b60008090505b60025481101561078757816040516020016106ea91906127d2565b604051602081830303815290604052805190602001206001600083815260200190815260200160002060405160200161072391906127e9565b60405160208183030381529060405280519060200120141561077a576040517f08c379a000000000000000000000000000000000000000000000000000000000815260040161077190612904565b60405180910390fd5b80806001019150506106cf565b508060016000600254815260200190815260200160002090805190602001906107b1929190611a96565b5060026000815480929190600101919050555050565b60108054600181600116156101000203166002900480601f01602080910402602001604051908101604052809291908181526020018280546001816001161561010002031660029004801561085d5780601f106108325761010080835404028352916020019161085d565b820191906000526020600020905b81548152906001019060200180831161084057829003601f168201915b505050505081565b6000809054906101000a900473ffffffffffffffffffffffffffffffffffffffff1673ffffffffffffffffffffffffffffffffffffffff163373ffffffffffffffffffffffffffffffffffffffff16146108f4576040517f08c379a00000000000000000000000000000000000000000000000000000000081526004016108eb90612884565b60405180910390fd5b6103e8831215610939576040517f08c379a0000000000000000000000000000000000000000000000000000000008152600401610930906128e4565b60405180910390fd5b6000841015801561094b575060025484105b61098a576040517f08c379a000000000000000000000000000000000000000000000000000000000815260040161098190612864565b60405180910390fd5b60018212156109ce576040517f08c379a00000000000000000000000000000000000000000000000000000000081526004016109c590612924565b60405180910390fd5b60008284816109d957fe5b0714610a1a576040517f08c379a0000000000000000000000000000000000000000000000000000000008152600401610a11906128c4565b60405180910390fd5b610a22611a33565b6040518060a0016040528060016006540181526020014281526020018681526020018581526020016000815250905080600560008360000151815260200190815260200160002060008201518160000155602082015181600101556040820151816002015560608201518160030155608082015181600401559050506006600081548092919060010191905055507fba7d8b85a9434f2fd64b297bb950e65e9e5ecb740a5849858b2d0feaa060dc7f8160000151604051610ae391906129e0565b60405180910390a160001515600e60008473ffffffffffffffffffffffffffffffffffffffff1673ffffffffffffffffffffffffffffffffffffffff16815260200190815260200160002060000160009054906101000a900460ff1615151415610c2257604051806020016040528060011515815250600e60008473ffffffffffffffffffffffffffffffffffffffff1673ffffffffffffffffffffffffffffffffffffffff16815260200190815260200160002060008201518160000160006101000a81548160ff021916908315150217905550905050600f8290806001815401808255809150509060018203906000526020600020016000909192909190916101000a81548173ffffffffffffffffffffffffffffffffffffffff021916908373ffffffffffffffffffffffffffffffffffffffff160217905550505b60008090505b83811215610d71576000816001600d54010190506000858781610c4757fe5b0490508360000151600760008481526020019081526020016000208190555080600860008481526020019081526020016000208190555080600960008481526020019081526020016000208190555042600a6000848152602001908152602001600020819055507f1caa6478e2895200416932562f54b40f7cb48c9b101106ba5872fa749e11697782604051610cdd91906129e0565b60405180910390a1600e60008673ffffffffffffffffffffffffffffffffffffffff1673ffffffffffffffffffffffffffffffffffffffff168152602001908152602001600020600101600089815260200190815260200160002082908060018154018082558091505090600182039060005260206000200160009091929091909150555050508080600101915050610c28565b5083600e60008473ffffffffffffffffffffffffffffffffffffffff1673ffffffffffffffffffffffffffffffffffffffff16815260200190815260200160002060020160008781526020019081526020016000206000828254019250508190555082600d6000828254019250508190555083600b600082825401925050819055505050505050565b6000809054906101000a900473ffffffffffffffffffffffffffffffffffffffff1673ffffffffffffffffffffffffffffffffffffffff163373ffffffffffffffffffffffffffffffffffffffff1614610e89576040517f08c379a0000000000000000000000000000000000000000000000000000000008152600401610e8090612884565b60405180910390fd5b60011515600e60008573ffffffffffffffffffffffffffffffffffffffff1673ffffffffffffffffffffffffffffffffffffffff16815260200190815260200160002060000160009054906101000a900460ff16151514610f1f576040517f08c379a0000000000000000000000000000000000000000000000000000000008152600401610f16906128a4565b60405180910390fd5b6103e8811215610f64576040517f08c379a0000000000000000000000000000000000000000000000000000000008152600401610f5b906128e4565b60405180910390fd5b60008210158015610f76575060025482105b610fb5576040517f08c379a0000000000000000000000000000000000000000000000000000000008152600401610fac90612864565b60405180910390fd5b80600e60008573ffffffffffffffffffffffffffffffffffffffff1673ffffffffffffffffffffffffffffffffffffffff168152602001908152602001600020600201600084815260200190815260200160002054101561104b576040517f08c379a000000000000000000000000000000000000000000000000000000000815260040161104290612844565b60405180910390fd5b600080905060008290505b600081111561131f576000600e60008773ffffffffffffffffffffffffffffffffffffffff1673ffffffffffffffffffffffffffffffffffffffff1681526020019081526020016000206001016000868152602001908152602001600020905060008184815481106110c457fe5b9060005260206000200154905060006009600083815260200190815260200160002054905060006007600084815260200190815260200160002054905081851061123457600060096000858152602001908152602001600020819055508360018580549050038154811061113457fe5b906000526020600020015484878154811061114b57fe5b90600052602060002001819055508380548091906001900361116d9190611b16565b5081600e60008b73ffffffffffffffffffffffffffffffffffffffff1673ffffffffffffffffffffffffffffffffffffffff16815260200190815260200160002060020160008a81526020019081526020016000206000828254039250508190555081600560008381526020019081526020016000206004016000828254019250508190555081850394507f44d48a2d499b338571c4e4b0c39583cb65555390c814c6b5e16413725794d9648360405161122791906129e0565b60405180910390a1611316565b84600960008581526020019081526020016000206000828254039250508190555084600e60008b73ffffffffffffffffffffffffffffffffffffffff1673ffffffffffffffffffffffffffffffffffffffff16815260200190815260200160002060020160008a815260200190815260200160002060008282540392505081905550846005600083815260200190815260200160002060040160008282540192505081905550600094507fa5851f1622aa71caf9f97a923b1cc1710d7dad8784c6b8d52c7f1dcf760e96d78360405161130d91906129e0565b60405180910390a15b50505050611056565b82600c600082825401925050819055505050505050565b61133e611b42565b606060025460405190808252806020026020018201604052801561137c57816020015b611369611b55565b8152602001906001900390816113615790505b50905060008090505b600254811015611473576040518060400160405280828152602001600160008481526020019081526020016000208054600181600116156101000203166002900480601f0160208091040260200160405190810160405280929190818152602001828054600181600116156101000203166002900480156114475780601f1061141c57610100808354040283529160200191611447565b820191906000526020600020905b81548152906001019060200180831161142a57829003601f168201915b505050505081525082828151811061145b57fe5b60200260200101819052508080600101915050611385565b5061147c611b42565b6040518060200160405280838152509050809250505090565b61149d611b6f565b6040518060c0016040528060006007600086815260200190815260200160002054141515158152602001838152602001600860008581526020019081526020016000205481526020016009600085815260200190815260200160002054815260200160076000858152602001908152602001600020548152602001600a6000858152602001908152602001600020548152509050919050565b61153e611ba7565b6060806000809050600e60008673ffffffffffffffffffffffffffffffffffffffff1673ffffffffffffffffffffffffffffffffffffffff16815260200190815260200160002060000160009054906101000a900460ff161561188c57600080905060008090505b60025481101561161857600e60008873ffffffffffffffffffffffffffffffffffffffff1673ffffffffffffffffffffffffffffffffffffffff1681526020019081526020016000206001016000828152602001908152602001600020805490508201915080806001019150506115a6565b508060405190808252806020026020018201604052801561165357816020015b611640611bd1565b8152602001906001900390816116385790505b509350600080905060008090505b600254811015611884576060600e60008a73ffffffffffffffffffffffffffffffffffffffff1673ffffffffffffffffffffffffffffffffffffffff168152602001908152602001600020600101600083815260200190815260200160002080548060200260200160405190810160405280929190818152602001828054801561170a57602002820191906000526020600020905b8154815260200190600101908083116116f6575b5050505050905060008090505b815181101561187557600082828151811061172e57fe5b602002602001015190506009600082815260200190815260200160002054870196506040518060a00160405280828152602001858152602001600160008781526020019081526020016000208054600181600116156101000203166002900480601f01602080910402602001604051908101604052809291908181526020018280546001816001161561010002031660029004801561180e5780601f106117e35761010080835404028352916020019161180e565b820191906000526020600020905b8154815290600101906020018083116117f157829003601f168201915b5050505050815260200160076000848152602001908152602001600020548152602001600960008481526020019081526020016000205481525089868151811061185457fe5b60200260200101819052508480600101955050508080600101915050611717565b50508080600101915050611661565b505050611909565b60006040519080825280602002602001820160405280156118c757816020015b6118b4611bd1565b8152602001906001900390816118ac5790505b509250600060405190808252806020026020018201604052801561190557816020015b6118f2611c00565b8152602001906001900390816118ea5790505b5091505b611911611ba7565b6040518060800160405280600e60008973ffffffffffffffffffffffffffffffffffffffff1673ffffffffffffffffffffffffffffffffffffffff16815260200190815260200160002060000160009054906101000a900460ff161515815260200185815260200183815260200184815250905080945050505050919050565b6000600b54905090565b6060600f805480602002602001604051908101604052809291908181526020018280548015611a1f57602002820191906000526020600020905b8160009054906101000a900473ffffffffffffffffffffffffffffffffffffffff1673ffffffffffffffffffffffffffffffffffffffff16815260200190600101908083116119d5575b5050505050905090565b6000600c54905090565b6040518060a0016040528060008152602001600081526020016000815260200160008152602001600081525090565b6040518060200160405280606081525090565b60405180606001604052806000815260200160608152602001606081525090565b828054600181600116156101000203166002900490600052602060002090601f016020900481019282601f10611ad757805160ff1916838001178555611b05565b82800160010185558215611b05579182015b82811115611b04578251825591602001919060010190611ae9565b5b509050611b129190611c1a565b5090565b815481835581811115611b3d57818360005260206000209182019101611b3c9190611c1a565b5b505050565b6040518060200160405280606081525090565b604051806040016040528060008152602001606081525090565b6040518060c0016040528060001515815260200160008152602001600081526020016000815260200160008152602001600081525090565b60405180608001604052806000151581526020016060815260200160008152602001606081525090565b6040518060a0016040528060008152602001600081526020016060815260200160008152602001600081525090565b604051806040016040528060008152602001600081525090565b611c3c91905b80821115611c38576000816000905550600101611c20565b5090565b90565b600081359050611c4e81612c5c565b92915050565b600081359050611c6381612c73565b92915050565b600082601f830112611c7a57600080fd5b8135611c8d611c8882612a28565b6129fb565b91508082526020830160208301858383011115611ca957600080fd5b611cb4838284612c09565b50505092915050565b600081359050611ccc81612c8a565b92915050565b600060208284031215611ce457600080fd5b6000611cf284828501611c3f565b91505092915050565b600080600060608486031215611d1057600080fd5b6000611d1e86828701611c3f565b9350506020611d2f86828701611cbd565b9250506040611d4086828701611c54565b9150509250925092565b600060208284031215611d5c57600080fd5b600082013567ffffffffffffffff811115611d7657600080fd5b611d8284828501611c69565b91505092915050565b60008060408385031215611d9e57600080fd5b600083013567ffffffffffffffff811115611db857600080fd5b611dc485828601611c69565b925050602083013567ffffffffffffffff811115611de157600080fd5b611ded85828601611c69565b9150509250929050565b600060208284031215611e0957600080fd5b6000611e1784828501611cbd565b91505092915050565b60008060008060808587031215611e3657600080fd5b6000611e4487828801611cbd565b9450506020611e5587828801611c54565b9350506040611e6687828801611c54565b9250506060611e7787828801611c3f565b91505092959194509250565b6000611e8f8383611eef565b60208301905092915050565b6000611ea783836124da565b905092915050565b6000611ebb8383612614565b905092915050565b6000611ecf83836126a5565b60408301905092915050565b6000611ee783836126d4565b905092915050565b611ef881612bb7565b82525050565b6000611f0982612aa7565b611f138185612b35565b9350611f1e83612a54565b8060005b83811015611f4f578151611f368882611e83565b9750611f4183612af4565b925050600181019050611f22565b5085935050505092915050565b6000611f6782612ab2565b611f718185612b46565b935083602082028501611f8385612a61565b8060005b85811015611fbf5784840389528151611fa08582611e9b565b9450611fab83612b01565b925060208a01995050600181019050611f87565b50829750879550505050505092915050565b6000611fdc82612abd565b611fe68185612b57565b935083602082028501611ff885612a6e565b8060005b8581101561203457848403895281516120158582611eaf565b945061202083612b0e565b925060208a01995050600181019050611ffc565b50829750879550505050505092915050565b600061205182612ac8565b61205b8185612b68565b935061206683612a7b565b8060005b8381101561209757815161207e8882611ec3565b975061208983612b1b565b92505060018101905061206a565b5085935050505092915050565b60006120af82612ad3565b6120b98185612b79565b9350836020820285016120cb85612a88565b8060005b8581101561210757848403895281516120e88582611edb565b94506120f383612b28565b925060208a019950506001810190506120cf565b50829750879550505050505092915050565b61212281612bc9565b82525050565b61213181612bd5565b82525050565b600061214282612ae9565b61214c8185612bac565b935061215c818560208601612c18565b80840191505092915050565b600061217382612ade565b61217d8185612b8a565b935061218d818560208601612c18565b61219681612c4b565b840191505092915050565b60006121ac82612ade565b6121b68185612b9b565b93506121c6818560208601612c18565b6121cf81612c4b565b840191505092915050565b6000815460018116600081146121f7576001811461221c57612260565b607f60028304166122088187612bac565b955060ff1983168652808601935050612260565b6002820461222a8187612bac565b955061223585612a95565b60005b8281101561225757815481890152600182019150602081019050612238565b82880195505050505b505092915050565b6000612275602983612b9b565b91507f496e73756666696369656e7420636172626f6e2068656c64206279205f6c656460008301527f676572206f776e657200000000000000000000000000000000000000000000006020830152604082019050919050565b60006122db601083612b9b565b91507f496e76616c6964204545552074797065000000000000000000000000000000006000830152602082019050919050565b600061231b601183612b9b565b91507f52657374726963746564206d6574686f640000000000000000000000000000006000830152602082019050919050565b600061235b601583612b9b565b91507f496e76616c6964205f6c6564676572206f776e657200000000000000000000006000830152602082019050919050565b600061239b602a83612b9b565b91507f436172626f6e20776569676874206d75737420646976696465206576656e6c7960008301527f20696e746f2045455573000000000000000000000000000000000000000000006020830152604082019050919050565b6000612401602983612b9b565b91507f4d696e696d756d206f6e65206d657472696320746f6e206f6620636172626f6e60008301527f20726571756972656400000000000000000000000000000000000000000000006020830152604082019050919050565b6000612467601c83612b9b565b91507f4545552074797065206e616d6520616c726561647920657869737473000000006000830152602082019050919050565b60006124a7601883612b9b565b91507f4d696e696d756d206f6e652045455520726571756972656400000000000000006000830152602082019050919050565b60006060830160008301516124f260008601826127b4565b506020830151848203602086015261250a8282612168565b915050604083015184820360408601526125248282612168565b9150508091505092915050565b60a08201600082015161254760008501826127b4565b50602082015161255a60208501826127b4565b50604082015161256d60408501826127b4565b50606082015161258060608501826127b4565b50608082015161259360808501826127b4565b50505050565b60c0820160008201516125af6000850182612119565b5060208201516125c260208501826127b4565b5060408201516125d560408501826127b4565b5060608201516125e860608501826127b4565b5060808201516125fb60808501826127b4565b5060a082015161260e60a08501826127b4565b50505050565b600060408301600083015161262c60008601826127b4565b50602083015184820360208601526126448282612168565b9150508091505092915050565b6000602083016000830151848203600086015261266e8282611f5c565b9150508091505092915050565b600060208301600083015184820360008601526126988282611fd1565b9150508091505092915050565b6040820160008201516126bb60008501826127b4565b5060208201516126ce6020850182612128565b50505050565b600060a0830160008301516126ec60008601826127b4565b5060208301516126ff60208601826127b4565b50604083015184820360408601526127178282612168565b915050606083015161272c60608601826127b4565b50608083015161273f60808601826127b4565b508091505092915050565b60006080830160008301516127626000860182612119565b506020830151848203602086015261277a82826120a4565b915050604083015161278f60408601826127b4565b50606083015184820360608601526127a78282612046565b9150508091505092915050565b6127bd81612bff565b82525050565b6127cc81612bff565b82525050565b60006127de8284612137565b915081905092915050565b60006127f582846121da565b915081905092915050565b6000602082019050818103600083015261281a8184611efe565b905092915050565b6000602082019050818103600083015261283c81846121a1565b905092915050565b6000602082019050818103600083015261285d81612268565b9050919050565b6000602082019050818103600083015261287d816122ce565b9050919050565b6000602082019050818103600083015261289d8161230e565b9050919050565b600060208201905081810360008301526128bd8161234e565b9050919050565b600060208201905081810360008301526128dd8161238e565b9050919050565b600060208201905081810360008301526128fd816123f4565b9050919050565b6000602082019050818103600083015261291d8161245a565b9050919050565b6000602082019050818103600083015261293d8161249a565b9050919050565b600060a0820190506129596000830184612531565b92915050565b600060c0820190506129746000830184612599565b92915050565b600060208201905081810360008301526129948184612651565b905092915050565b600060208201905081810360008301526129b6818461267b565b905092915050565b600060208201905081810360008301526129d8818461274a565b905092915050565b60006020820190506129f560008301846127c3565b92915050565b6000604051905081810181811067ffffffffffffffff82111715612a1e57600080fd5b8060405250919050565b600067ffffffffffffffff821115612a3f57600080fd5b601f19601f8301169050602081019050919050565b6000602082019050919050565b6000602082019050919050565b6000602082019050919050565b6000602082019050919050565b6000602082019050919050565b60008160005260206000209050919050565b600081519050919050565b600081519050919050565b600081519050919050565b600081519050919050565b600081519050919050565b600081519050919050565b600081519050919050565b6000602082019050919050565b6000602082019050919050565b6000602082019050919050565b6000602082019050919050565b6000602082019050919050565b600082825260208201905092915050565b600082825260208201905092915050565b600082825260208201905092915050565b600082825260208201905092915050565b600082825260208201905092915050565b600082825260208201905092915050565b600082825260208201905092915050565b600081905092915050565b6000612bc282612bdf565b9050919050565b60008115159050919050565b6000819050919050565b600073ffffffffffffffffffffffffffffffffffffffff82169050919050565b6000819050919050565b82818337600083830152505050565b60005b83811015612c36578082015181840152602081019050612c1b565b83811115612c45576000848401525b50505050565b6000601f19601f8301169050919050565b612c6581612bb7565b8114612c7057600080fd5b50565b612c7c81612bd5565b8114612c8757600080fd5b50565b612c9381612bff565b8114612c9e57600080fd5b5056fea265627a7a7230582042ba6ebb07d5abb616efabd736859c5b61c3bb723dad6214f88f43a8785b65b36c6578706572696d656e74616cf50037",
  "source": "pragma solidity 0.5.8;\r\npragma experimental ABIEncoderV2;\r\n\r\nimport \"./EeuMintable.sol\";\r\nimport \"./EeuBurnable.sol\";\r\nimport \"./EeuTradable.sol\";\r\n\r\ncontract AcMaster is EeuMintable, EeuBurnable, EeuTradable {\r\n    string public version;\r\n\r\n    /**\r\n     * ctor\r\n     */\r\n    constructor() public {\r\n        version = \"0.0.4\";\r\n\r\n        // default EEU types\r\n        _eeuTypeIds[0] = 'UNFCCC';\r\n        _eeuTypeIds[1] = 'VCS';\r\n        _count_eeuTypeIds = 2;\r\n    }\r\n}\r\n",
  "sourcePath": "C:/ac/src/ac-monorepo/packages/erc20/contracts/AcMaster/AcMaster.sol",
  "compiler": {
    "name": "solc",
    "version": "0.5.8+commit.23d335f2.Emscripten.clang"
  },
  "schemaVersion": "3.0.11",
  "updatedAt": "2019-08-05T15:35:04.397Z",
  "devdoc": {
    "methods": {
      "addCcyType(string,string)": {
        "details": "Adds a new currency type\r",
        "params": {
          "name": "The new currency type name\r",
          "unit": "The base unit of the new currency type\r"
        }
      },
      "addEeuType(string)": {
        "details": "Adds a new EEU type\r",
        "params": {
          "name": "The new EEU type name\r"
        }
      },
      "burnEeus(address,uint256,int256)": {
        "params": {
          "eeuTypeId": "EEU type\r",
          "ledgerOwner": "owner address of the EEUs in the _ledger\r",
          "qtyKG": "tonnage to burn\r"
        }
      },
      "getCcyTypes()": {
        "details": "Returns current currency types\r"
      },
      "getEeu(uint256)": {
        "details": "Returns an EEU by ID\r"
      },
      "getEeuBatch(uint256)": {
        "details": "Returns an EEU batch by ID\r"
      },
      "getEeuBatchCount()": {
        "details": "Returns the global EEU batch count\r"
      },
      "getEeuMintedCount()": {
        "details": "Returns the global no. of EEUs minted\r"
      },
      "getEeuTypes()": {
        "details": "Returns current EEU types\r"
      },
      "getKgCarbonBurned()": {
        "details": "Returns the global no. of KGs carbon burned in EEUs\r"
      },
      "getKgCarbonMinted()": {
        "details": "Returns the global no. of KGs carbon minted in EEUs\r"
      },
      "getLedgerEntry(address)": {
        "details": "Returns the _ledger entry for a single account\r"
      },
      "getLedgerOwners()": {
        "details": "Returns all accounts in the ledger\r"
      },
      "mintEeuBatch(uint256,int256,int256,address)": {
        "params": {
          "batchOwner": "who to assign the minted EEUs to\r",
          "eeuTypeId": "EEU-type for the batch\r",
          "qtyEeus": "quantity of EEUs in the batch\r",
          "qtyKG": "KG quanity of carbon to mint across the EEUs\r"
        }
      }
    }
  },
  "userdoc": {
    "methods": {
      "burnEeus(address,uint256,int256)": {
        "notice": "burns carbons by resizing EEUs, and/or removing EEUs from the _ledger.\r removes EEUs (or fractions thereof) from the main list and from the _ledger, resizing as necessary.\r the supplied _ledger owner must hold the supplied quantity of carbon in aggregate across _ledger EEUs, and of the supplied type.\r"
      },
      "constructor": "ctor\r",
      "mintEeuBatch(uint256,int256,int256,address)": {
        "notice": "mint and assign ownership new EEU batch\r"
      }
    }
  }
}