{
  "contractName": "AcMaster",
  "abi": [
    {
      "constant": true,
      "inputs": [
        {
          "name": "id",
          "type": "uint256"
        }
      ],
      "name": "getEeuBatch",
      "outputs": [
        {
          "components": [
            {
              "name": "id",
              "type": "uint256"
            },
            {
              "name": "mintedTimestamp",
              "type": "uint256"
            },
            {
              "name": "eeuTypeId",
              "type": "uint256"
            },
            {
              "name": "mintedKG",
              "type": "uint256"
            },
            {
              "name": "burnedKG",
              "type": "uint256"
            }
          ],
          "name": "batch",
          "type": "tuple"
        }
      ],
      "payable": false,
      "stateMutability": "view",
      "type": "function"
    },
    {
      "constant": true,
      "inputs": [],
      "name": "getEeuBatchCount",
      "outputs": [
        {
          "name": "count",
          "type": "uint256"
        }
      ],
      "payable": false,
      "stateMutability": "view",
      "type": "function"
    },
    {
      "constant": true,
      "inputs": [],
      "name": "getEeuTypeIds",
      "outputs": [
        {
          "components": [
            {
              "components": [
                {
                  "name": "eeuTypeId",
                  "type": "uint256"
                },
                {
                  "name": "eeuTypeName",
                  "type": "string"
                }
              ],
              "name": "eeuTypes",
              "type": "tuple[]"
            }
          ],
          "name": "retData",
          "type": "tuple"
        }
      ],
      "payable": false,
      "stateMutability": "view",
      "type": "function"
    },
    {
      "constant": true,
      "inputs": [],
      "name": "getEeuMintedCount",
      "outputs": [
        {
          "name": "count",
          "type": "uint256"
        }
      ],
      "payable": false,
      "stateMutability": "view",
      "type": "function"
    },
    {
      "constant": true,
      "inputs": [],
      "name": "version",
      "outputs": [
        {
          "name": "",
          "type": "string"
        }
      ],
      "payable": false,
      "stateMutability": "view",
      "type": "function"
    },
    {
      "constant": false,
      "inputs": [
        {
          "name": "eeuTypeId",
          "type": "uint256"
        },
        {
          "name": "qtyKG",
          "type": "int256"
        },
        {
          "name": "qtyEeus",
          "type": "int256"
        },
        {
          "name": "batchOwner",
          "type": "address"
        }
      ],
      "name": "mintEeuBatch",
      "outputs": [],
      "payable": false,
      "stateMutability": "nonpayable",
      "type": "function"
    },
    {
      "constant": false,
      "inputs": [
        {
          "name": "ledgerOwner",
          "type": "address"
        },
        {
          "name": "eeuTypeId",
          "type": "uint256"
        },
        {
          "name": "qtyKG",
          "type": "int256"
        }
      ],
      "name": "burnEeus",
      "outputs": [],
      "payable": false,
      "stateMutability": "nonpayable",
      "type": "function"
    },
    {
      "constant": true,
      "inputs": [
        {
          "name": "id",
          "type": "uint256"
        }
      ],
      "name": "getEeu",
      "outputs": [
        {
          "components": [
            {
              "name": "exists",
              "type": "bool"
            },
            {
              "name": "id",
              "type": "uint256"
            },
            {
              "name": "mintedKG",
              "type": "uint256"
            },
            {
              "name": "KG",
              "type": "uint256"
            },
            {
              "name": "batchId",
              "type": "uint256"
            },
            {
              "name": "mintedTimestamp",
              "type": "uint256"
            }
          ],
          "name": "eeu",
          "type": "tuple"
        }
      ],
      "payable": false,
      "stateMutability": "view",
      "type": "function"
    },
    {
      "constant": true,
      "inputs": [
        {
          "name": "account",
          "type": "address"
        }
      ],
      "name": "getLedgerEntry",
      "outputs": [
        {
          "components": [
            {
              "name": "exists",
              "type": "bool"
            },
            {
              "components": [
                {
                  "name": "eeuId",
                  "type": "uint256"
                },
                {
                  "name": "eeuTypeId",
                  "type": "uint256"
                },
                {
                  "name": "eeuTypeName",
                  "type": "string"
                },
                {
                  "name": "batchId",
                  "type": "uint256"
                },
                {
                  "name": "eeuKG",
                  "type": "uint256"
                }
              ],
              "name": "eeus",
              "type": "tuple[]"
            },
            {
              "name": "eeuIds",
              "type": "uint256[]"
            },
            {
              "name": "eeu_sumKG",
              "type": "uint256"
            },
            {
              "name": "usdCents",
              "type": "uint256"
            },
            {
              "name": "ethWei",
              "type": "uint256"
            }
          ],
          "name": "",
          "type": "tuple"
        }
      ],
      "payable": false,
      "stateMutability": "view",
      "type": "function"
    },
    {
      "constant": true,
      "inputs": [],
      "name": "getKgCarbonMinted",
      "outputs": [
        {
          "name": "count",
          "type": "uint256"
        }
      ],
      "payable": false,
      "stateMutability": "view",
      "type": "function"
    },
    {
      "constant": true,
      "inputs": [],
      "name": "getLedgerOwners",
      "outputs": [
        {
          "name": "",
          "type": "address[]"
        }
      ],
      "payable": false,
      "stateMutability": "view",
      "type": "function"
    },
    {
      "constant": true,
      "inputs": [],
      "name": "getKgCarbonBurned",
      "outputs": [
        {
          "name": "count",
          "type": "uint256"
        }
      ],
      "payable": false,
      "stateMutability": "view",
      "type": "function"
    },
    {
      "inputs": [],
      "payable": false,
      "stateMutability": "nonpayable",
      "type": "constructor"
    },
    {
      "anonymous": false,
      "inputs": [
        {
          "indexed": false,
          "name": "id",
          "type": "uint256"
        }
      ],
      "name": "BurnedFullEeu",
      "type": "event"
    },
    {
      "anonymous": false,
      "inputs": [
        {
          "indexed": false,
          "name": "id",
          "type": "uint256"
        }
      ],
      "name": "BurnedPartialEeu",
      "type": "event"
    },
    {
      "anonymous": false,
      "inputs": [
        {
          "indexed": false,
          "name": "id",
          "type": "uint256"
        }
      ],
      "name": "MintedEeuBatch",
      "type": "event"
    },
    {
      "anonymous": false,
      "inputs": [
        {
          "indexed": false,
          "name": "id",
          "type": "uint256"
        }
      ],
      "name": "MintedEeu",
      "type": "event"
    }
  ],
  "bytecode": "0x60806040523480156200001157600080fd5b50336000806101000a81548173ffffffffffffffffffffffffffffffffffffffff021916908373ffffffffffffffffffffffffffffffffffffffff1602179055506040518060400160405280600681526020017f554e464343430000000000000000000000000000000000000000000000000000815250600160008081526020019081526020016000209080519060200190620000b09291906200016c565b506040518060400160405280600381526020017f564353000000000000000000000000000000000000000000000000000000000081525060016000600181526020019081526020016000209080519060200190620001109291906200016c565b50600280819055506040518060400160405280600581526020017f302e302e34000000000000000000000000000000000000000000000000000000815250600e9080519060200190620001659291906200016c565b506200021b565b828054600181600116156101000203166002900490600052602060002090601f016020900481019282601f10620001af57805160ff1916838001178555620001e0565b82800160010185558215620001e0579182015b82811115620001df578251825591602001919060010190620001c2565b5b509050620001ef9190620001f3565b5090565b6200021891905b8082111562000214576000816000905550600101620001fa565b5090565b90565b6123b2806200022b6000396000f3fe608060405234801561001057600080fd5b50600436106100b45760003560e01c80637b2d412a116100715780637b2d412a1461017d5780639ce9a4a614610199578063a89a8884146101c9578063ba0138cb146101f9578063bcc376c614610217578063e3f64b3514610235576100b4565b80630722a4ee146100b957806319b67615146100e957806332de10e4146101075780633846d4481461012557806354fd4d501461014357806370f753de14610161575b600080fd5b6100d360048036036100ce9190810190611825565b610253565b6040516100e09190612103565b60405180910390f35b6100f16102b2565b6040516100fe919061217d565b60405180910390f35b61010f6102bc565b60405161011c9190612139565b60405180910390f35b61012d61041b565b60405161013a919061217d565b60405180910390f35b61014b610425565b6040516101589190612001565b60405180910390f35b61017b6004803603610176919081019061184e565b6104c3565b005b610197600480360361019291908101906117d6565b610a79565b005b6101b360048036036101ae9190810190611825565b610fb4565b6040516101c0919061211e565b60405180910390f35b6101e360048036036101de91908101906117ad565b611055565b6040516101f0919061215b565b60405180910390f35b610201611580565b60405161020e919061217d565b60405180910390f35b61021f61158a565b60405161022c9190611fdf565b60405180910390f35b61023d611618565b60405161024a919061217d565b60405180910390f35b61025b611622565b600360008381526020019081526020016000206040518060a0016040529081600082015481526020016001820154815260200160028201548152602001600382015481526020016004820154815250509050919050565b6000600454905090565b6102c4611651565b606060025460405190808252806020026020018201604052801561030257816020015b6102ef611664565b8152602001906001900390816102e75790505b50905060008090505b6002548110156103f9576040518060400160405280828152602001600160008481526020019081526020016000208054600181600116156101000203166002900480601f0160208091040260200160405190810160405280929190818152602001828054600181600116156101000203166002900480156103cd5780601f106103a2576101008083540402835291602001916103cd565b820191906000526020600020905b8154815290600101906020018083116103b057829003601f168201915b50505050508152508282815181106103e157fe5b6020026020010181905250808060010191505061030b565b50610402611651565b6040518060200160405280838152509050809250505090565b6000600b54905090565b600e8054600181600116156101000203166002900480601f0160208091040260200160405190810160405280929190818152602001828054600181600116156101000203166002900480156104bb5780601f10610490576101008083540402835291602001916104bb565b820191906000526020600020905b81548152906001019060200180831161049e57829003601f168201915b505050505081565b6000809054906101000a900473ffffffffffffffffffffffffffffffffffffffff1673ffffffffffffffffffffffffffffffffffffffff163373ffffffffffffffffffffffffffffffffffffffff1614610552576040517f08c379a000000000000000000000000000000000000000000000000000000000815260040161054990612063565b60405180910390fd5b6103e8831215610597576040517f08c379a000000000000000000000000000000000000000000000000000000000815260040161058e906120c3565b60405180910390fd5b6000841180156105a8575060025484105b6105e7576040517f08c379a00000000000000000000000000000000000000000000000000000000081526004016105de90612043565b60405180910390fd5b600182121561062b576040517f08c379a0000000000000000000000000000000000000000000000000000000008152600401610622906120e3565b60405180910390fd5b600082848161063657fe5b0714610677576040517f08c379a000000000000000000000000000000000000000000000000000000000815260040161066e906120a3565b60405180910390fd5b61067f611622565b6040518060a0016040528060016004540181526020014281526020018681526020018581526020016000815250905080600360008360000151815260200190815260200160002060008201518160000155602082015181600101556040820151816002015560608201518160030155608082015181600401559050506004600081548092919060010191905055507fba7d8b85a9434f2fd64b297bb950e65e9e5ecb740a5849858b2d0feaa060dc7f8160000151604051610740919061217d565b60405180910390a160001515600c60008473ffffffffffffffffffffffffffffffffffffffff1673ffffffffffffffffffffffffffffffffffffffff16815260200190815260200160002060000160009054906101000a900460ff16151514156108a1576040518060600160405280600115158152602001600081526020016000815250600c60008473ffffffffffffffffffffffffffffffffffffffff1673ffffffffffffffffffffffffffffffffffffffff16815260200190815260200160002060008201518160000160006101000a81548160ff0219169083151502179055506020820151816003015560408201518160040155905050600d8290806001815401808255809150509060018203906000526020600020016000909192909190916101000a81548173ffffffffffffffffffffffffffffffffffffffff021916908373ffffffffffffffffffffffffffffffffffffffff160217905550505b60008090505b838112156109f0576000816001600b540101905060008587816108c657fe5b049050836000015160056000848152602001908152602001600020819055508060066000848152602001908152602001600020819055508060076000848152602001908152602001600020819055504260086000848152602001908152602001600020819055507f1caa6478e2895200416932562f54b40f7cb48c9b101106ba5872fa749e1169778260405161095c919061217d565b60405180910390a1600c60008673ffffffffffffffffffffffffffffffffffffffff1673ffffffffffffffffffffffffffffffffffffffff1681526020019081526020016000206001016000898152602001908152602001600020829080600181540180825580915050906001820390600052602060002001600090919290919091505550505080806001019150506108a7565b5083600c60008473ffffffffffffffffffffffffffffffffffffffff1673ffffffffffffffffffffffffffffffffffffffff16815260200190815260200160002060020160008781526020019081526020016000206000828254019250508190555082600b60008282540192505081905550836009600082825401925050819055505050505050565b6000809054906101000a900473ffffffffffffffffffffffffffffffffffffffff1673ffffffffffffffffffffffffffffffffffffffff163373ffffffffffffffffffffffffffffffffffffffff1614610b08576040517f08c379a0000000000000000000000000000000000000000000000000000000008152600401610aff90612063565b60405180910390fd5b60011515600c60008573ffffffffffffffffffffffffffffffffffffffff1673ffffffffffffffffffffffffffffffffffffffff16815260200190815260200160002060000160009054906101000a900460ff16151514610b9e576040517f08c379a0000000000000000000000000000000000000000000000000000000008152600401610b9590612083565b60405180910390fd5b6103e8811215610be3576040517f08c379a0000000000000000000000000000000000000000000000000000000008152600401610bda906120c3565b60405180910390fd5b600082118015610bf4575060025482105b610c33576040517f08c379a0000000000000000000000000000000000000000000000000000000008152600401610c2a90612043565b60405180910390fd5b80600c60008573ffffffffffffffffffffffffffffffffffffffff1673ffffffffffffffffffffffffffffffffffffffff1681526020019081526020016000206002016000848152602001908152602001600020541015610cc9576040517f08c379a0000000000000000000000000000000000000000000000000000000008152600401610cc090612023565b60405180910390fd5b600080905060008290505b6000811115610f9d576000600c60008773ffffffffffffffffffffffffffffffffffffffff1673ffffffffffffffffffffffffffffffffffffffff168152602001908152602001600020600101600086815260200190815260200160002090506000818481548110610d4257fe5b90600052602060002001549050600060076000838152602001908152602001600020549050600060056000848152602001908152602001600020549050818510610eb2576000600760008581526020019081526020016000208190555083600185805490500381548110610db257fe5b9060005260206000200154848781548110610dc957fe5b906000526020600020018190555083805480919060019003610deb919061167e565b5081600c60008b73ffffffffffffffffffffffffffffffffffffffff1673ffffffffffffffffffffffffffffffffffffffff16815260200190815260200160002060020160008a81526020019081526020016000206000828254039250508190555081600360008381526020019081526020016000206004016000828254019250508190555081850394507f44d48a2d499b338571c4e4b0c39583cb65555390c814c6b5e16413725794d96483604051610ea5919061217d565b60405180910390a1610f94565b84600760008581526020019081526020016000206000828254039250508190555084600c60008b73ffffffffffffffffffffffffffffffffffffffff1673ffffffffffffffffffffffffffffffffffffffff16815260200190815260200160002060020160008a815260200190815260200160002060008282540392505081905550846003600083815260200190815260200160002060040160008282540192505081905550600094507fa5851f1622aa71caf9f97a923b1cc1710d7dad8784c6b8d52c7f1dcf760e96d783604051610f8b919061217d565b60405180910390a15b50505050610cd4565b82600a600082825401925050819055505050505050565b610fbc6116aa565b6040518060c001604052806000600560008681526020019081526020016000205414151515815260200183815260200160066000858152602001908152602001600020548152602001600760008581526020019081526020016000205481526020016005600085815260200190815260200160002054815260200160086000858152602001908152602001600020548152509050919050565b61105d6116e2565b6060806000809050600c60008673ffffffffffffffffffffffffffffffffffffffff1673ffffffffffffffffffffffffffffffffffffffff16815260200190815260200160002060000160009054906101000a900460ff16156113f657600080905060008090505b60025481101561113757600c60008873ffffffffffffffffffffffffffffffffffffffff1673ffffffffffffffffffffffffffffffffffffffff1681526020019081526020016000206001016000828152602001908152602001600020805490508201915080806001019150506110c5565b508060405190808252806020026020018201604052801561117257816020015b61115f61171a565b8152602001906001900390816111575790505b509350806040519080825280602002602001820160405280156111a45781602001602082028038833980820191505090505b509250600080905060008090505b6002548110156113ee576060600c60008a73ffffffffffffffffffffffffffffffffffffffff1673ffffffffffffffffffffffffffffffffffffffff168152602001908152602001600020600101600083815260200190815260200160002080548060200260200160405190810160405280929190818152602001828054801561125b57602002820191906000526020600020905b815481526020019060010190808311611247575b5050505050905060008090505b81518110156113df57600082828151811061127f57fe5b602002602001015190508088868151811061129657fe5b6020026020010181815250506007600082815260200190815260200160002054870196506040518060a00160405280828152602001858152602001600160008781526020019081526020016000208054600181600116156101000203166002900480601f0160208091040260200160405190810160405280929190818152602001828054600181600116156101000203166002900480156113785780601f1061134d57610100808354040283529160200191611378565b820191906000526020600020905b81548152906001019060200180831161135b57829003601f168201915b505050505081526020016005600084815260200190815260200160002054815260200160076000848152602001908152602001600020548152508986815181106113be57fe5b60200260200101819052508480600101955050508080600101915050611268565b505080806001019150506111b2565b505050611468565b600060405190808252806020026020018201604052801561143157816020015b61141e61171a565b8152602001906001900390816114165790505b50925060006040519080825280602002602001820160405280156114645781602001602082028038833980820191505090505b5091505b6114706116e2565b6040518060c00160405280600c60008973ffffffffffffffffffffffffffffffffffffffff1673ffffffffffffffffffffffffffffffffffffffff16815260200190815260200160002060000160009054906101000a900460ff1615158152602001858152602001848152602001838152602001600c60008973ffffffffffffffffffffffffffffffffffffffff1673ffffffffffffffffffffffffffffffffffffffff168152602001908152602001600020600301548152602001600c60008973ffffffffffffffffffffffffffffffffffffffff1673ffffffffffffffffffffffffffffffffffffffff16815260200190815260200160002060040154815250905080945050505050919050565b6000600954905090565b6060600d80548060200260200160405190810160405280929190818152602001828054801561160e57602002820191906000526020600020905b8160009054906101000a900473ffffffffffffffffffffffffffffffffffffffff1673ffffffffffffffffffffffffffffffffffffffff16815260200190600101908083116115c4575b5050505050905090565b6000600a54905090565b6040518060a0016040528060008152602001600081526020016000815260200160008152602001600081525090565b6040518060200160405280606081525090565b604051806040016040528060008152602001606081525090565b8154818355818111156116a5578183600052602060002091820191016116a49190611749565b5b505050565b6040518060c0016040528060001515815260200160008152602001600081526020016000815260200160008152602001600081525090565b6040518060c0016040528060001515815260200160608152602001606081526020016000815260200160008152602001600081525090565b6040518060a0016040528060008152602001600081526020016060815260200160008152602001600081525090565b61176b91905b8082111561176757600081600090555060010161174f565b5090565b90565b60008135905061177d81612333565b92915050565b6000813590506117928161234a565b92915050565b6000813590506117a781612361565b92915050565b6000602082840312156117bf57600080fd5b60006117cd8482850161176e565b91505092915050565b6000806000606084860312156117eb57600080fd5b60006117f98682870161176e565b935050602061180a86828701611798565b925050604061181b86828701611783565b9150509250925092565b60006020828403121561183757600080fd5b600061184584828501611798565b91505092915050565b6000806000806080858703121561186457600080fd5b600061187287828801611798565b945050602061188387828801611783565b935050604061189487828801611783565b92505060606118a58782880161176e565b91505092959194509250565b60006118bd8383611909565b60208301905092915050565b60006118d58383611e54565b905092915050565b60006118e98383611ebb565b905092915050565b60006118fd8383611fc1565b60208301905092915050565b6119128161229d565b82525050565b6000611923826121cc565b61192d8185612237565b935061193883612198565b8060005b8381101561196957815161195088826118b1565b975061195b83612203565b92505060018101905061193c565b5085935050505092915050565b6000611981826121d7565b61198b8185612248565b93508360208202850161199d856121a5565b8060005b858110156119d957848403895281516119ba85826118c9565b94506119c583612210565b925060208a019950506001810190506119a1565b50829750879550505050505092915050565b60006119f6826121e2565b611a008185612259565b935083602082028501611a12856121b2565b8060005b85811015611a4e5784840389528151611a2f85826118dd565b9450611a3a8361221d565b925060208a01995050600181019050611a16565b50829750879550505050505092915050565b6000611a6b826121ed565b611a75818561226a565b9350611a80836121bf565b8060005b83811015611ab1578151611a9888826118f1565b9750611aa38361222a565b925050600181019050611a84565b5085935050505092915050565b611ac7816122af565b82525050565b6000611ad8826121f8565b611ae2818561227b565b9350611af28185602086016122ef565b611afb81612322565b840191505092915050565b6000611b11826121f8565b611b1b818561228c565b9350611b2b8185602086016122ef565b611b3481612322565b840191505092915050565b6000611b4c60298361228c565b91507f496e73756666696369656e7420636172626f6e2068656c64206279205f6c656460008301527f676572206f776e657200000000000000000000000000000000000000000000006020830152604082019050919050565b6000611bb260108361228c565b91507f496e76616c6964204545552074797065000000000000000000000000000000006000830152602082019050919050565b6000611bf260118361228c565b91507f52657374726963746564206d6574686f640000000000000000000000000000006000830152602082019050919050565b6000611c3260158361228c565b91507f496e76616c6964205f6c6564676572206f776e657200000000000000000000006000830152602082019050919050565b6000611c72602a8361228c565b91507f436172626f6e20776569676874206d75737420646976696465206576656e6c7960008301527f20696e746f2045455573000000000000000000000000000000000000000000006020830152604082019050919050565b6000611cd860298361228c565b91507f4d696e696d756d206f6e65206d657472696320746f6e206f6620636172626f6e60008301527f20726571756972656400000000000000000000000000000000000000000000006020830152604082019050919050565b6000611d3e60188361228c565b91507f4d696e696d756d206f6e652045455520726571756972656400000000000000006000830152602082019050919050565b60a082016000820151611d876000850182611fc1565b506020820151611d9a6020850182611fc1565b506040820151611dad6040850182611fc1565b506060820151611dc06060850182611fc1565b506080820151611dd36080850182611fc1565b50505050565b60c082016000820151611def6000850182611abe565b506020820151611e026020850182611fc1565b506040820151611e156040850182611fc1565b506060820151611e286060850182611fc1565b506080820151611e3b6080850182611fc1565b5060a0820151611e4e60a0850182611fc1565b50505050565b6000604083016000830151611e6c6000860182611fc1565b5060208301518482036020860152611e848282611acd565b9150508091505092915050565b60006020830160008301518482036000860152611eae8282611976565b9150508091505092915050565b600060a083016000830151611ed36000860182611fc1565b506020830151611ee66020860182611fc1565b5060408301518482036040860152611efe8282611acd565b9150506060830151611f136060860182611fc1565b506080830151611f266080860182611fc1565b508091505092915050565b600060c083016000830151611f496000860182611abe565b5060208301518482036020860152611f6182826119eb565b91505060408301518482036040860152611f7b8282611a60565b9150506060830151611f906060860182611fc1565b506080830151611fa36080860182611fc1565b5060a0830151611fb660a0860182611fc1565b508091505092915050565b611fca816122e5565b82525050565b611fd9816122e5565b82525050565b60006020820190508181036000830152611ff98184611918565b905092915050565b6000602082019050818103600083015261201b8184611b06565b905092915050565b6000602082019050818103600083015261203c81611b3f565b9050919050565b6000602082019050818103600083015261205c81611ba5565b9050919050565b6000602082019050818103600083015261207c81611be5565b9050919050565b6000602082019050818103600083015261209c81611c25565b9050919050565b600060208201905081810360008301526120bc81611c65565b9050919050565b600060208201905081810360008301526120dc81611ccb565b9050919050565b600060208201905081810360008301526120fc81611d31565b9050919050565b600060a0820190506121186000830184611d71565b92915050565b600060c0820190506121336000830184611dd9565b92915050565b600060208201905081810360008301526121538184611e91565b905092915050565b600060208201905081810360008301526121758184611f31565b905092915050565b60006020820190506121926000830184611fd0565b92915050565b6000602082019050919050565b6000602082019050919050565b6000602082019050919050565b6000602082019050919050565b600081519050919050565b600081519050919050565b600081519050919050565b600081519050919050565b600081519050919050565b6000602082019050919050565b6000602082019050919050565b6000602082019050919050565b6000602082019050919050565b600082825260208201905092915050565b600082825260208201905092915050565b600082825260208201905092915050565b600082825260208201905092915050565b600082825260208201905092915050565b600082825260208201905092915050565b60006122a8826122c5565b9050919050565b60008115159050919050565b6000819050919050565b600073ffffffffffffffffffffffffffffffffffffffff82169050919050565b6000819050919050565b60005b8381101561230d5780820151818401526020810190506122f2565b8381111561231c576000848401525b50505050565b6000601f19601f8301169050919050565b61233c8161229d565b811461234757600080fd5b50565b612353816122bb565b811461235e57600080fd5b50565b61236a816122e5565b811461237557600080fd5b5056fea265627a7a723058207fcb2349352f32956b1dc18ab387a5f2039c4d7e196fa8fafe647eb82e02f2a56c6578706572696d656e74616cf50037",
  "source": "pragma solidity 0.5.8;\r\npragma experimental ABIEncoderV2;\r\n\r\nimport \"./EeuMintable.sol\";\r\nimport \"./EeuBurnable.sol\";\r\nimport \"./EeuTradable.sol\";\r\n\r\ncontract AcMaster is EeuMintable, EeuBurnable, EeuTradable {\r\n    string public version;\r\n\r\n    /**\r\n     * ctor\r\n     */\r\n    constructor() public {\r\n        version = \"0.0.4\";\r\n    }\r\n}\r\n",
  "sourcePath": "C:/ac/src/ac-monorepo/packages/erc20/contracts/AcMaster/AcMaster.sol",
  "compiler": {
    "name": "solc",
    "version": "0.5.8+commit.23d335f2.Emscripten.clang"
  },
  "schemaVersion": "3.0.11",
  "updatedAt": "2019-08-05T11:21:19.592Z",
  "devdoc": {
    "methods": {
      "burnEeus(address,uint256,int256)": {
        "params": {
          "eeuTypeId": "EEU type\r",
          "ledgerOwner": "owner address of the EEUs in the _ledger\r",
          "qtyKG": "tonnage to burn\r"
        }
      },
      "getEeu(uint256)": {
        "details": "Returns an EEU by ID\r"
      },
      "getEeuBatch(uint256)": {
        "details": "Returns an EEU batch by ID\r"
      },
      "getEeuBatchCount()": {
        "details": "Returns the global EEU batch count\r"
      },
      "getEeuMintedCount()": {
        "details": "Returns the global no. of EEUs minted\r"
      },
      "getEeuTypeIds()": {
        "details": "Returns EEU types\r"
      },
      "getKgCarbonBurned()": {
        "details": "Returns the global no. of KGs carbon burned in EEUs\r"
      },
      "getKgCarbonMinted()": {
        "details": "Returns the global no. of KGs carbon minted in EEUs\r"
      },
      "getLedgerEntry(address)": {
        "details": "Returns the _ledger entry for a single account\r"
      },
      "getLedgerOwners()": {
        "details": "Returns all accounts in the ledger\r"
      },
      "mintEeuBatch(uint256,int256,int256,address)": {
        "params": {
          "batchOwner": "who to assign the minted EEUs to\r",
          "eeuTypeId": "EEU-type for the batch\r",
          "qtyEeus": "quantity of EEUs in the batch\r",
          "qtyKG": "KG quanity of carbon to mint across the EEUs\r"
        }
      }
    }
  },
  "userdoc": {
    "methods": {
      "burnEeus(address,uint256,int256)": {
        "notice": "burns carbons by resizing EEUs, and/or removing EEUs from the _ledger.\r removes EEUs (or fractions thereof) from the main list and from the _ledger, resizing as necessary.\r the supplied _ledger owner must hold the supplied quantity of carbon in aggregate across _ledger EEUs, and of the supplied type.\r"
      },
      "constructor": "ctor\r",
      "mintEeuBatch(uint256,int256,int256,address)": {
        "notice": "mint and assign ownership new EEU batch\r"
      }
    }
  }
}