{
  "contractName": "AcMaster",
  "abi": [
    {
      "constant": true,
      "inputs": [
        {
          "name": "id",
          "type": "uint256"
        }
      ],
      "name": "getEeuBatch",
      "outputs": [
        {
          "components": [
            {
              "name": "id",
              "type": "uint256"
            },
            {
              "name": "mintedTimestamp",
              "type": "uint256"
            },
            {
              "name": "eeuTypeId",
              "type": "uint256"
            },
            {
              "name": "mintedKG",
              "type": "uint256"
            },
            {
              "name": "burnedKG",
              "type": "uint256"
            }
          ],
          "name": "",
          "type": "tuple"
        }
      ],
      "payable": false,
      "stateMutability": "view",
      "type": "function"
    },
    {
      "constant": false,
      "inputs": [
        {
          "name": "name",
          "type": "string"
        },
        {
          "name": "unit",
          "type": "string"
        }
      ],
      "name": "addCcyType",
      "outputs": [],
      "payable": false,
      "stateMutability": "nonpayable",
      "type": "function"
    },
    {
      "constant": false,
      "inputs": [
        {
          "name": "ccyTypeId",
          "type": "uint256"
        },
        {
          "name": "amount",
          "type": "int256"
        },
        {
          "name": "ledgerOwner",
          "type": "address"
        }
      ],
      "name": "withdraw",
      "outputs": [],
      "payable": false,
      "stateMutability": "nonpayable",
      "type": "function"
    },
    {
      "constant": true,
      "inputs": [],
      "name": "getEeuBatchCount",
      "outputs": [
        {
          "name": "",
          "type": "uint256"
        }
      ],
      "payable": false,
      "stateMutability": "view",
      "type": "function"
    },
    {
      "constant": false,
      "inputs": [
        {
          "name": "ccyTypeId",
          "type": "uint256"
        },
        {
          "name": "amount",
          "type": "int256"
        },
        {
          "name": "ledgerOwner",
          "type": "address"
        }
      ],
      "name": "fund",
      "outputs": [],
      "payable": false,
      "stateMutability": "nonpayable",
      "type": "function"
    },
    {
      "constant": true,
      "inputs": [],
      "name": "getEeuMintedCount",
      "outputs": [
        {
          "name": "",
          "type": "uint256"
        }
      ],
      "payable": false,
      "stateMutability": "view",
      "type": "function"
    },
    {
      "constant": true,
      "inputs": [
        {
          "name": "ccyTypeId",
          "type": "uint256"
        }
      ],
      "name": "getTotalWithdrawn",
      "outputs": [
        {
          "name": "",
          "type": "int256"
        }
      ],
      "payable": false,
      "stateMutability": "view",
      "type": "function"
    },
    {
      "constant": true,
      "inputs": [
        {
          "name": "ccyTypeId",
          "type": "uint256"
        }
      ],
      "name": "getTotalFunded",
      "outputs": [
        {
          "name": "",
          "type": "int256"
        }
      ],
      "payable": false,
      "stateMutability": "view",
      "type": "function"
    },
    {
      "constant": true,
      "inputs": [],
      "name": "getCcyTypes",
      "outputs": [
        {
          "components": [
            {
              "components": [
                {
                  "name": "id",
                  "type": "uint256"
                },
                {
                  "name": "name",
                  "type": "string"
                },
                {
                  "name": "unit",
                  "type": "string"
                }
              ],
              "name": "ccyTypes",
              "type": "tuple[]"
            }
          ],
          "name": "",
          "type": "tuple"
        }
      ],
      "payable": false,
      "stateMutability": "view",
      "type": "function"
    },
    {
      "constant": false,
      "inputs": [
        {
          "name": "name",
          "type": "string"
        }
      ],
      "name": "addEeuType",
      "outputs": [],
      "payable": false,
      "stateMutability": "nonpayable",
      "type": "function"
    },
    {
      "constant": true,
      "inputs": [],
      "name": "version",
      "outputs": [
        {
          "name": "",
          "type": "string"
        }
      ],
      "payable": false,
      "stateMutability": "view",
      "type": "function"
    },
    {
      "constant": false,
      "inputs": [
        {
          "name": "eeuTypeId",
          "type": "uint256"
        },
        {
          "name": "qtyKG",
          "type": "int256"
        },
        {
          "name": "qtyEeus",
          "type": "int256"
        },
        {
          "name": "batchOwner",
          "type": "address"
        }
      ],
      "name": "mintEeuBatch",
      "outputs": [],
      "payable": false,
      "stateMutability": "nonpayable",
      "type": "function"
    },
    {
      "constant": false,
      "inputs": [
        {
          "name": "ledgerOwner",
          "type": "address"
        },
        {
          "name": "eeuTypeId",
          "type": "uint256"
        },
        {
          "name": "qtyKG",
          "type": "int256"
        }
      ],
      "name": "burnEeus",
      "outputs": [],
      "payable": false,
      "stateMutability": "nonpayable",
      "type": "function"
    },
    {
      "constant": true,
      "inputs": [],
      "name": "getEeuTypes",
      "outputs": [
        {
          "components": [
            {
              "components": [
                {
                  "name": "id",
                  "type": "uint256"
                },
                {
                  "name": "name",
                  "type": "string"
                }
              ],
              "name": "eeuTypes",
              "type": "tuple[]"
            }
          ],
          "name": "",
          "type": "tuple"
        }
      ],
      "payable": false,
      "stateMutability": "view",
      "type": "function"
    },
    {
      "constant": true,
      "inputs": [
        {
          "name": "id",
          "type": "uint256"
        }
      ],
      "name": "getEeu",
      "outputs": [
        {
          "components": [
            {
              "name": "exists",
              "type": "bool"
            },
            {
              "name": "id",
              "type": "uint256"
            },
            {
              "name": "mintedKG",
              "type": "uint256"
            },
            {
              "name": "KG",
              "type": "uint256"
            },
            {
              "name": "batchId",
              "type": "uint256"
            },
            {
              "name": "mintedTimestamp",
              "type": "uint256"
            }
          ],
          "name": "",
          "type": "tuple"
        }
      ],
      "payable": false,
      "stateMutability": "view",
      "type": "function"
    },
    {
      "constant": true,
      "inputs": [
        {
          "name": "account",
          "type": "address"
        }
      ],
      "name": "getLedgerEntry",
      "outputs": [
        {
          "components": [
            {
              "name": "exists",
              "type": "bool"
            },
            {
              "components": [
                {
                  "name": "eeuId",
                  "type": "uint256"
                },
                {
                  "name": "eeuTypeId",
                  "type": "uint256"
                },
                {
                  "name": "eeuTypeName",
                  "type": "string"
                },
                {
                  "name": "batchId",
                  "type": "uint256"
                },
                {
                  "name": "eeuKG",
                  "type": "uint256"
                }
              ],
              "name": "eeus",
              "type": "tuple[]"
            },
            {
              "name": "eeu_sumKG",
              "type": "uint256"
            },
            {
              "components": [
                {
                  "name": "typeId",
                  "type": "uint256"
                },
                {
                  "name": "name",
                  "type": "string"
                },
                {
                  "name": "unit",
                  "type": "string"
                },
                {
                  "name": "balance",
                  "type": "int256"
                }
              ],
              "name": "ccys",
              "type": "tuple[]"
            }
          ],
          "name": "",
          "type": "tuple"
        }
      ],
      "payable": false,
      "stateMutability": "view",
      "type": "function"
    },
    {
      "constant": true,
      "inputs": [],
      "name": "getKgCarbonMinted",
      "outputs": [
        {
          "name": "",
          "type": "uint256"
        }
      ],
      "payable": false,
      "stateMutability": "view",
      "type": "function"
    },
    {
      "constant": true,
      "inputs": [],
      "name": "getLedgerOwners",
      "outputs": [
        {
          "name": "",
          "type": "address[]"
        }
      ],
      "payable": false,
      "stateMutability": "view",
      "type": "function"
    },
    {
      "constant": true,
      "inputs": [],
      "name": "getKgCarbonBurned",
      "outputs": [
        {
          "name": "count",
          "type": "uint256"
        }
      ],
      "payable": false,
      "stateMutability": "view",
      "type": "function"
    },
    {
      "inputs": [],
      "payable": false,
      "stateMutability": "nonpayable",
      "type": "constructor"
    },
    {
      "anonymous": false,
      "inputs": [
        {
          "indexed": false,
          "name": "ccyTypeId",
          "type": "uint256"
        },
        {
          "indexed": false,
          "name": "ledgerOwner",
          "type": "address"
        },
        {
          "indexed": false,
          "name": "amount",
          "type": "int256"
        }
      ],
      "name": "CcyWithdrewLedger",
      "type": "event"
    },
    {
      "anonymous": false,
      "inputs": [
        {
          "indexed": false,
          "name": "ccyTypeId",
          "type": "uint256"
        },
        {
          "indexed": false,
          "name": "ledgerOwner",
          "type": "address"
        },
        {
          "indexed": false,
          "name": "amount",
          "type": "int256"
        }
      ],
      "name": "CcyFundedLedger",
      "type": "event"
    },
    {
      "anonymous": false,
      "inputs": [
        {
          "indexed": false,
          "name": "id",
          "type": "uint256"
        },
        {
          "indexed": false,
          "name": "eeuTypeId",
          "type": "uint256"
        },
        {
          "indexed": false,
          "name": "ledgerOwner",
          "type": "address"
        },
        {
          "indexed": false,
          "name": "burnedKG",
          "type": "uint256"
        }
      ],
      "name": "BurnedFullEeu",
      "type": "event"
    },
    {
      "anonymous": false,
      "inputs": [
        {
          "indexed": false,
          "name": "id",
          "type": "uint256"
        },
        {
          "indexed": false,
          "name": "eeuTypeId",
          "type": "uint256"
        },
        {
          "indexed": false,
          "name": "ledgerOwner",
          "type": "address"
        },
        {
          "indexed": false,
          "name": "burnedKG",
          "type": "uint256"
        }
      ],
      "name": "BurnedPartialEeu",
      "type": "event"
    },
    {
      "anonymous": false,
      "inputs": [
        {
          "indexed": false,
          "name": "id",
          "type": "uint256"
        },
        {
          "indexed": false,
          "name": "eeuTypeId",
          "type": "uint256"
        },
        {
          "indexed": false,
          "name": "batchOwner",
          "type": "address"
        },
        {
          "indexed": false,
          "name": "qtyKG",
          "type": "uint256"
        },
        {
          "indexed": false,
          "name": "qtyEeus",
          "type": "uint256"
        }
      ],
      "name": "MintedEeuBatch",
      "type": "event"
    },
    {
      "anonymous": false,
      "inputs": [
        {
          "indexed": false,
          "name": "id",
          "type": "uint256"
        },
        {
          "indexed": false,
          "name": "batchId",
          "type": "uint256"
        },
        {
          "indexed": false,
          "name": "eeuTypeId",
          "type": "uint256"
        },
        {
          "indexed": false,
          "name": "ledgerOwner",
          "type": "address"
        },
        {
          "indexed": false,
          "name": "mintedKG",
          "type": "uint256"
        }
      ],
      "name": "MintedEeu",
      "type": "event"
    },
    {
      "anonymous": false,
      "inputs": [
        {
          "indexed": false,
          "name": "id",
          "type": "uint256"
        },
        {
          "indexed": false,
          "name": "name",
          "type": "string"
        },
        {
          "indexed": false,
          "name": "unit",
          "type": "string"
        }
      ],
      "name": "AddedCcyType",
      "type": "event"
    },
    {
      "anonymous": false,
      "inputs": [
        {
          "indexed": false,
          "name": "id",
          "type": "uint256"
        },
        {
          "indexed": false,
          "name": "name",
          "type": "string"
        }
      ],
      "name": "AddedEeuType",
      "type": "event"
    }
  ],
  "bytecode": "0x60806040523480156200001157600080fd5b5060008054600160a060020a0319163317815560408051808201909152600681527f554e464343430000000000000000000000000000000000000000000000000000602080830191825292805260019092525162000091917fa6eef7e35abe7026729641147f7915573c7e97b47efa546f5f6e3230263bcb499162000368565b5060408051808201909152600381527f56435300000000000000000000000000000000000000000000000000000000006020808301918252600160008190529052905162000101917fcc69885fda6bcc1a4ace058b4a62bf5e179ea78fd58a1ccd71c22cc9b688792f9162000368565b50600280556040805160608101825260008082528251808401845260038082527f555344000000000000000000000000000000000000000000000000000000000060208381019190915280850192835285518087018752600581527f63656e7473000000000000000000000000000000000000000000000000000000818301529585019590955291805290835281517f3617319a054d772f909f7c479a2cebe5066e836a939412e32403c99029b92eff9081559051805192939192620001eb927f3617319a054d772f909f7c479a2cebe5066e836a939412e32403c99029b92f0092019062000368565b50604082015180516200020991600284019160209091019062000368565b50506040805160608101825260018082528251808401845260038082527f4554480000000000000000000000000000000000000000000000000000000000602083810191909152808501928352855180870187528281527f5765690000000000000000000000000000000000000000000000000000000000818301529585019590955260009290925290835281517fa15bc60c955c405d20d9149c709e2460f1c2d9a497496a7f46004d1772c3054c908155905180519294509092620002f5927fa15bc60c955c405d20d9149c709e2460f1c2d9a497496a7f46004d1772c3054d929091019062000368565b50604082015180516200031391600284019160209091019062000368565b50506002600455506040805180820190915260058082527f302e302e340000000000000000000000000000000000000000000000000000006020909201918252620003619160129162000368565b506200040d565b828054600181600116156101000203166002900490600052602060002090601f016020900481019282601f10620003ab57805160ff1916838001178555620003db565b82800160010185558215620003db579182015b82811115620003db578251825591602001919060010190620003be565b50620003e9929150620003ed565b5090565b6200040a91905b80821115620003e95760008155600101620003f4565b90565b612906806200041d6000396000f3fe608060405234801561001057600080fd5b50600436106100f45760e060020a60003504630722a4ee81146100f95780630834e864146101225780630b503ab71461013757806319b676151461014a5780633368402b1461015f5780633846d448146101725780633e726e051461017a578063448d74381461018d5780634dc26ae8146101a057806351664b26146101b557806354fd4d50146101c857806370f753de146101dd5780637b2d412a146101f0578063963030df146102035780639ce9a4a614610218578063a89a888414610238578063ba0138cb14610258578063bcc376c614610260578063e3f64b3514610275575b600080fd5b61010c610107366004611b9a565b61027d565b604051610119919061263c565b60405180910390f35b610135610130366004611b33565b6102d4565b005b610135610145366004611bb8565b61044d565b6101526105c5565b604051610119919061255d565b61013561016d366004611bb8565b6105cc565b610152610730565b610152610188366004611b9a565b610736565b61015261019b366004611b9a565b610777565b6101a86107b8565b6040516101199190612658565b6101356101c3366004611aff565b6109a2565b6101d0610ac9565b604051610119919061256b565b6101356101eb366004611bfb565b610b57565b6101356101fe366004611ab2565b610e77565b61020b61116e565b6040516101199190612669565b61022b610226366004611b9a565b61128c565b604051610119919061264a565b61024b610246366004611a8c565b6112f1565b604051610119919061267a565b610152611789565b61026861178f565b604051610119919061254c565b61015261181f565b610285611825565b50600090815260056020908152604091829020825160a0810184528154815260018201549281019290925260028101549282019290925260038201546060820152600490910154608082015290565b600054600160a060020a0316331461030a5760405160e560020a62461bcd028152600401610301906125bc565b60405180910390fd5b60005b60045481101561039c57826040516020016103289190612534565b60408051601f19818403018152828252805160209182012060008581526003835292909220919261035d926001019101612540565b6040516020818303038152906040528051906020012014156103945760405160e560020a62461bcd028152600401610301906125cc565b60010161030d565b506040805160608101825260045480825260208083018681528385018690526000928352600382529390912082518155925180519293926103e39260018501920190611854565b50604082015180516103ff916002840191602090910190611854565b509050507f41c4a4be5d1fed810ab0ace2ffe78022538a72356773c24ed010e06bdf6454b76004548383604051610438939291906126d3565b60405180910390a15050600480546001019055565b600054600160a060020a0316331461047a5760405160e560020a62461bcd028152600401610301906125bc565b600454831061049e5760405160e560020a62461bcd028152600401610301906125ac565b600082136104c15760405160e560020a62461bcd028152600401610301906125dc565b600160a060020a0381166000908152600e602052604090205460ff1615156001146105015760405160e560020a62461bcd0281526004016103019061257c565b600160a060020a0381166000908152600e6020908152604080832086845260030190915290205482131561054a5760405160e560020a62461bcd0281526004016103019061259c565b600160a060020a0381166000908152600e60209081526040808320868452600301825280832080548690039055601190915290819020805484019055517fbc646e7e255ad4c6743251f213af7cae7d0cecfbf159c99ded6b6d7f85666a3f906105b89085908490869061268b565b60405180910390a1505050565b6006545b90565b600054600160a060020a031633146105f95760405160e560020a62461bcd028152600401610301906125bc565b600454831061061d5760405160e560020a62461bcd028152600401610301906125ac565b600082136106405760405160e560020a62461bcd028152600401610301906125dc565b600160a060020a0381166000908152600e602052604090205460ff166106c35760408051602080820183526001808352600160a060020a0385166000818152600e9093529382209251835460ff191690151517909255600f8054928301815590526000805160206128ad833981519152018054600160a060020a03191690911790555b600160a060020a0381166000908152600e602090815260408083208684526003018252808320805486019055601090915290819020805484019055517fbf9c9c4358c50927dd4152801ee5586a421fee0e6dd1c019635a6c4d0af91587906105b89085908490869061268b565b600d5490565b60008054600160a060020a031633146107645760405160e560020a62461bcd028152600401610301906125bc565b5060009081526011602052604090205490565b60008054600160a060020a031633146107a55760405160e560020a62461bcd028152600401610301906125bc565b5060009081526010602052604090205490565b6107c06118d2565b60606004546040519080825280602002602001820160405280156107fe57816020015b6107eb6118e5565b8152602001906001900390816107e35790505b50905060005b60045481101561098557604080516060810182526000838152600360208181528483208054855292869052908152600191820180548551600294821615610100026000190190911693909304601f8101839004830284018301909552848352929381850193918301828280156108bb5780601f10610890576101008083540402835291602001916108bb565b820191906000526020600020905b81548152906001019060200180831161089e57829003601f168201915b50505091835250506000838152600360209081526040918290206002908101805484516001821615610100026000190190911692909204601f8101849004840283018401909452838252938201939092909183018282801561095e5780601f106109335761010080835404028352916020019161095e565b820191906000526020600020905b81548152906001019060200180831161094157829003601f168201915b505050505081525082828151811061097257fe5b6020908102919091010152600101610804565b5061098e6118d2565b506040805160208101909152908152905090565b600054600160a060020a031633146109cf5760405160e560020a62461bcd028152600401610301906125bc565b60005b600254811015610a5e57816040516020016109ed9190612534565b60408051601f198184030181528282528051602091820120600085815260018352929092209192610a1f929101612540565b604051602081830303815290604052805190602001201415610a565760405160e560020a62461bcd0281526004016103019061261c565b6001016109d2565b5060025460009081526001602090815260409091208251610a8192840190611854565b507ff42a31d05ee5f17e0f159b94b9402293e9cf2265c806b4a55168aeaa3fe275e260025482604051610ab59291906126b3565b60405180910390a150600280546001019055565b6012805460408051602060026001851615610100026000190190941693909304601f81018490048402820184019092528181529291830182828015610b4f5780601f10610b2457610100808354040283529160200191610b4f565b820191906000526020600020905b815481529060010190602001808311610b3257829003601f168201915b505050505081565b600054600160a060020a03163314610b845760405160e560020a62461bcd028152600401610301906125bc565b6002548410610ba85760405160e560020a62461bcd0281526004016103019061258c565b6001821215610bcc5760405160e560020a62461bcd0281526004016103019061262c565b6103e8831215610bf15760405160e560020a62461bcd028152600401610301906125fc565b818381610bfa57fe5b0715610c1b5760405160e560020a62461bcd028152600401610301906125ec565b610c23611825565b506040805160a0810182526006805460019081018084524260208086019182528587018b8152606087018b81526000608089018181529581526005909352918890208751808255935181870155905160028201559051600382015591516004909201919091558254909101909155915190917f3b2a5f1232ad8fb6334d75c56a235d50209dc23e6b0b51325b2e98e17a6ffc3d91610cc99190889086908990899061273c565b60405180910390a1600160a060020a0382166000908152600e602052604090205460ff16610d545760408051602080820183526001808352600160a060020a0386166000818152600e9093529382209251835460ff191690151517909255600f8054928301815590526000805160206128ad833981519152018054600160a060020a03191690911790555b60005b83811215610e3257600d5481016001016000858781610d7257fe5b855160008581526007602090815260408083209390935560088152828220949093049384905560098352818120849055600a90925290819020429055855190519192507fbdf1b0fbadd676a593dc51c25399111b5cf1795fd1315c7545271c18c1b265cd91610de89185918c908a908790612788565b60405180910390a150600160a060020a0384166000908152600e602090815260408083208a8452600190810183529083208054808301825590845291909220019190915501610d57565b5050600160a060020a03166000908152600e602090815260408083209583526002909501905292909220805482019055600d8054909201909155600b80549091019055565b600054600160a060020a03163314610ea45760405160e560020a62461bcd028152600401610301906125bc565b600160a060020a0383166000908152600e602052604090205460ff161515600114610ee45760405160e560020a62461bcd0281526004016103019061257c565b6103e8811215610f095760405160e560020a62461bcd028152600401610301906125fc565b6002548210610f2d5760405160e560020a62461bcd0281526004016103019061258c565b600160a060020a0383166000908152600e60209081526040808320858452600201909152902054811115610f765760405160e560020a62461bcd0281526004016103019061260c565b6000815b801561115f57600160a060020a0385166000908152600e6020908152604080832087845260010190915281208054909190829085908110610fb757fe5b600091825260208083209091015480835260098252604080842054600790935290922054919250908185106110c35760008381526009602052604081205583548490600019810190811061100757fe5b906000526020600020015484878154811061101e57fe5b600091825260209091200155835461103a856000198301611906565b50600160a060020a0389166000908152600e602090815260408083208b84526002018252808320805486900390558383526005909152908190206004018054840190555194829003947ff214be5dc9cf391efd4738b59af95842784d47fd41a2b9057df440d144f3c67d906110b69085908b908d908790612707565b60405180910390a1611156565b600083815260096020908152604080832080548990039055600160a060020a038c168352600e82528083208b8452600201825280832080548990039055838352600590915290819020600401805487019055517fe304852108e009cdefa218a22b44f9a1f921fb5692ead9b6fb815d388e24869f906111499085908b908d908a90612707565b60405180910390a1600094505b50505050610f7a565b5050600c805490910190555050565b6111766118d2565b60606002546040519080825280602002602001820160405280156111b457816020015b6111a161192f565b8152602001906001900390816111995790505b50905060005b600254811015610985576040805180820182528281526000838152600160208181529184902080548551600293821615610100026000190190911692909204601f810184900484028301840190955284825292938285019391928301828280156112655780601f1061123a57610100808354040283529160200191611265565b820191906000526020600020905b81548152906001019060200180831161124857829003601f168201915b505050505081525082828151811061127957fe5b60209081029190910101526001016111ba565b611294611949565b506040805160c081018252600083815260076020908152838220548015158452818401869052858352600882528483205484860152858352600982528483205460608501526080840152938152600a90935291205460a082015290565b6112f9611981565b606080600080805b60025481101561134057600160a060020a0387166000908152600e60209081526040808320848452600190810190925290912054929092019101611301565b508060405190808252806020026020018201604052801561137b57816020015b6113686119ab565b8152602001906001900390816113605790505b5093506000805b60025481101561153b57600160a060020a0388166000908152600e602090815260408083208484526001018252918290208054835181840281018401909452808452606093928301828280156113f757602002820191906000526020600020905b8154815260200190600101908083116113e3575b50939450600093505050505b815181101561153157600082828151811061141a57fe5b602090810291909101810151600081815260098352604080822054815160a0810183528481528086018a905289845260018087529383902080548451600296821615610100026000190190911695909504601f810188900488028601880185528086529d9092019c949650949185019390918301828280156114dd5780601f106114b2576101008083540402835291602001916114dd565b820191906000526020600020905b8154815290600101906020018083116114c057829003601f168201915b5050509183525050600083815260076020908152604080832054828501528583526009909152908190205491015289518a908790811061151957fe5b60209081029190910101525060019384019301611403565b5050600101611382565b5060045460405190808252806020026020018201604052801561157857816020015b6115656119da565b81526020019060019003908161155d5790505b50935060005b600454811015611739576040518060800160405280828152602001600360008481526020019081526020016000206001018054600181600116156101000203166002900480601f0160208091040260200160405190810160405280929190818152602001828054600181600116156101000203166002900480156116435780601f1061161857610100808354040283529160200191611643565b820191906000526020600020905b81548152906001019060200180831161162657829003601f168201915b50505091835250506000838152600360209081526040918290206002908101805484516001821615610100026000190190911692909204601f810184900484028301840190945283825293820193909290918301828280156116e65780601f106116bb576101008083540402835291602001916116e6565b820191906000526020600020905b8154815290600101906020018083116116c957829003601f168201915b5050509183525050600160a060020a038a166000908152600e60209081526040808320868452600301825290912054910152855186908390811061172657fe5b602090810291909101015260010161157e565b50611742611981565b505060408051608081018252600160a060020a0388166000908152600e6020908152908390205460ff16151582528101959095528401919091525060608201529050919050565b600b5490565b600054606090600160a060020a031633146117bf5760405160e560020a62461bcd028152600401610301906125bc565b600f80548060200260200160405190810160405280929190818152602001828054801561181557602002820191906000526020600020905b8154600160a060020a031681526001909101906020018083116117f7575b5050505050905090565b600c5490565b6040518060a0016040528060008152602001600081526020016000815260200160008152602001600081525090565b828054600181600116156101000203166002900490600052602060002090601f016020900481019282601f1061189557805160ff19168380011785556118c2565b828001600101855582156118c2579182015b828111156118c25782518255916020019190600101906118a7565b506118ce929150611a02565b5090565b6040518060200160405280606081525090565b60405180606001604052806000815260200160608152602001606081525090565b81548183558181111561192a5760008381526020902061192a918101908301611a02565b505050565b604051806040016040528060008152602001606081525090565b6040518060c0016040528060001515815260200160008152602001600081526020016000815260200160008152602001600081525090565b60405180608001604052806000151581526020016060815260200160008152602001606081525090565b6040518060a0016040528060008152602001600081526020016060815260200160008152602001600081525090565b6040518060800160405280600081526020016060815260200160608152602001600081525090565b6105c991905b808211156118ce5760008155600101611a08565b8035611a278161288c565b92915050565b8035611a27816128a3565b600082601f830112611a4957600080fd5b8135611a5c611a57826127e3565b6127bd565b91508082526020830160208301858383011115611a7857600080fd5b611a8383828461284a565b50505092915050565b600060208284031215611a9e57600080fd5b6000611aaa8484611a1c565b949350505050565b600080600060608486031215611ac757600080fd5b6000611ad38686611a1c565b9350506020611ae486828701611a2d565b9250506040611af586828701611a2d565b9150509250925092565b600060208284031215611b1157600080fd5b81356001604060020a03811115611b2757600080fd5b611aaa84828501611a38565b60008060408385031215611b4657600080fd5b82356001604060020a03811115611b5c57600080fd5b611b6885828601611a38565b92505060208301356001604060020a03811115611b8457600080fd5b611b9085828601611a38565b9150509250929050565b600060208284031215611bac57600080fd5b6000611aaa8484611a2d565b600080600060608486031215611bcd57600080fd5b6000611bd98686611a2d565b9350506020611bea86828701611a2d565b9250506040611af586828701611a1c565b60008060008060808587031215611c1157600080fd5b6000611c1d8787611a2d565b9450506020611c2e87828801611a2d565b9350506040611c3f87828801611a2d565b9250506060611c5087828801611a1c565b91505092959194509250565b6000611c688383611ca7565b505060200190565b6000611c7c8383612293565b9392505050565b6000611c7c83836123b5565b6000611c7c8383612411565b6000611c7c8383612474565b611cb08161282e565b82525050565b6000611cc18261281c565b611ccb8185612820565b9350611cd68361280a565b8060005b83811015611d04578151611cee8882611c5c565b9750611cf98361280a565b925050600101611cda565b509495945050505050565b6000611d1a8261281c565b611d248185612820565b935083602082028501611d368561280a565b8060005b85811015611d705784840389528151611d538582611c70565b9450611d5e8361280a565b60209a909a0199925050600101611d3a565b5091979650505050505050565b6000611d888261281c565b611d928185612820565b935083602082028501611da48561280a565b8060005b85811015611d705784840389528151611dc18582611c83565b9450611dcc8361280a565b60209a909a0199925050600101611da8565b6000611de98261281c565b611df38185612820565b935083602082028501611e058561280a565b8060005b85811015611d705784840389528151611e228582611c8f565b9450611e2d8361280a565b60209a909a0199925050600101611e09565b6000611e4a8261281c565b611e548185612820565b935083602082028501611e668561280a565b8060005b85811015611d705784840389528151611e838582611c9b565b9450611e8e8361280a565b60209a909a0199925050600101611e6a565b611cb081612839565b611cb0816105c9565b6000611ebd8261281c565b611ec78185612820565b9350611ed7818560208601612856565b611ee081612882565b9093019392505050565b6000611ef58261281c565b611eff8185612829565b9350611f0f818560208601612856565b9290920192915050565b600081546001811660008114611f365760018114611f5957611f98565b607f6002830416611f478187612829565b60ff1984168152955085019250611f98565b60028204611f678187612829565b9550611f7285612810565b60005b82811015611f9157815488820152600190910190602001611f75565b5050850192505b505092915050565b6000611fad601483612820565b606160020a7324b73b30b634b2103632b233b2b91037bbb732b902815260200192915050565b6000611fe0601083612820565b608060020a6f496e76616c696420454555207479706502815260200192915050565b600061200f602183612820565b7f496e73756666696369656e74206c6564676572206f776e65722062616c616e63815260f860020a606502602082015260400192915050565b6000612055601583612820565b605860020a74496e76616c69642063757272656e6379207479706502815260200192915050565b6000612089601183612820565b607a60020a7014995cdd1c9a58dd1959081b595d1a1bd902815260200192915050565b60006120b9602183612820565b7f43757272656e63792074797065206e616d6520616c7265616479206578697374815260f860020a607302602082015260400192915050565b60006120ff602283612820565b7f4d696e696d756d206f6e652063757272656e637920756e697420726571756972815260f260020a61195902602082015260400192915050565b6000612146602a83612820565b7f436172626f6e20776569676874206d75737420646976696465206576656e6c79815260b060020a6920696e746f204545557302602082015260400192915050565b6000612195602983612820565b7f4d696e696d756d206f6e65206d657472696320746f6e206f6620636172626f6e815260ba60020a68081c995c5d5a5c995902602082015260400192915050565b60006121e3602883612820565b7f496e73756666696369656e7420636172626f6e2068656c64206279206c656467815260c160020a6732b91037bbb732b902602082015260400192915050565b6000612230601c83612820565b7f4545552074797065206e616d6520616c72656164792065786973747300000000815260200192915050565b6000612269601883612820565b604260020a77135a5b9a5b5d5b481bdb9948115155481c995c5d5a5c995902815260200192915050565b805160009060608401906122a78582611ea9565b50602083015184820360208601526122bf8282611eb2565b915050604083015184820360408601526122d98282611eb2565b95945050505050565b805160a08301906122f38482611ea9565b5060208201516123066020850182611ea9565b5060408201516123196040850182611ea9565b50606082015161232c6060850182611ea9565b50608082015161233f6080850182611ea9565b50505050565b805160c08301906123568482611ea0565b5060208201516123696020850182611ea9565b50604082015161237c6040850182611ea9565b50606082015161238f6060850182611ea9565b5060808201516123a26080850182611ea9565b5060a082015161233f60a0850182611ea9565b805160009060408401906123c98582611ea9565b50602083015184820360208601526122d98282611eb2565b80516020808452600091908401906122d98282611d0f565b80516020808452600091908401906122d98282611d7d565b805160009060808401906124258582611ea9565b506020830151848203602086015261243d8282611eb2565b915050604083015184820360408601526124578282611eb2565b915050606083015161246c6060860182611ea9565b509392505050565b805160009060a08401906124888582611ea9565b50602083015161249b6020860182611ea9565b50604083015184820360408601526124b38282611eb2565b91505060608301516124c86060860182611ea9565b50608083015161246c6080860182611ea9565b805160009060808401906124ef8582611ea0565b50602083015184820360208601526125078282611e3f565b915050604083015161251c6040860182611ea9565b50606083015184820360608601526122d98282611dde565b6000611c7c8284611eea565b6000611c7c8284611f19565b60208082528101611c7c8184611cb6565b60208101611a278284611ea9565b60208082528101611c7c8184611eb2565b60208082528101611a2781611fa0565b60208082528101611a2781611fd3565b60208082528101611a2781612002565b60208082528101611a2781612048565b60208082528101611a278161207c565b60208082528101611a27816120ac565b60208082528101611a27816120f2565b60208082528101611a2781612139565b60208082528101611a2781612188565b60208082528101611a27816121d6565b60208082528101611a2781612223565b60208082528101611a278161225c565b60a08101611a2782846122e2565b60c08101611a278284612345565b60208082528101611c7c81846123e1565b60208082528101611c7c81846123f9565b60208082528101611c7c81846124db565b606081016126998286611ea9565b6126a66020830185611ca7565b611aaa6040830184611ea9565b604081016126c18285611ea9565b8181036020830152611aaa8184611eb2565b606081016126e18286611ea9565b81810360208301526126f38185611eb2565b905081810360408301526122d98184611eb2565b608081016127158287611ea9565b6127226020830186611ea9565b61272f6040830185611ca7565b6122d96060830184611ea9565b60a0810161274a8288611ea9565b6127576020830187611ea9565b6127646040830186611ca7565b6127716060830185611ea9565b61277e6080830184611ea9565b9695505050505050565b60a081016127968288611ea9565b6127a36020830187611ea9565b6127b06040830186611ea9565b6127716060830185611ca7565b6040518181016001604060020a03811182821017156127db57600080fd5b604052919050565b60006001604060020a038211156127f957600080fd5b506020601f91909101601f19160190565b60200190565b60009081526020902090565b5190565b90815260200190565b919050565b6000611a278261283e565b151590565b600160a060020a031690565b82818337506000910152565b60005b83811015612871578181015183820152602001612859565b8381111561233f5750506000910152565b601f01601f191690565b6128958161282e565b81146128a057600080fd5b50565b612895816105c956fe8d1108e10bcb7c27dddfc02ed9d693a074039d026cf4ea4240b40f7d581ac802a265627a7a72305820cf80bdbeba14a690a6ee7f64f006bced16439ae179e73b83f48473286f5653d16c6578706572696d656e74616cf50037",
  "source": "pragma solidity 0.5.8;\r\npragma experimental ABIEncoderV2;\r\n\r\nimport \"./EeuMintable.sol\";\r\nimport \"./EeuBurnable.sol\";\r\nimport \"./EeuTradable.sol\";\r\nimport \"./CcyFundable.sol\";\r\nimport \"./CcyWithdrawable.sol\";\r\n\r\ncontract AcMaster is EeuMintable, EeuBurnable, CcyFundable, CcyWithdrawable, EeuTradable {\r\n    string public version;\r\n\r\n    /**\r\n     * ctor\r\n     */\r\n    constructor() public {\r\n        version = \"0.0.4\";\r\n    }\r\n}\r\n",
  "sourcePath": "C:/ac/src/ac-monorepo/packages/erc20/contracts/AcMaster/AcMaster.sol",
  "compiler": {
    "name": "solc",
    "version": "0.5.8+commit.23d335f2.Emscripten.clang"
  },
  "schemaVersion": "3.0.11",
  "updatedAt": "2019-08-09T14:19:48.141Z",
  "devdoc": {
    "methods": {
      "addCcyType(string,string)": {
        "details": "Adds a new currency type\r",
        "params": {
          "name": "The new currency type name\r",
          "unit": "The base unit of the new currency type\r"
        }
      },
      "addEeuType(string)": {
        "details": "Adds a new EEU type\r",
        "params": {
          "name": "The new EEU type name\r"
        }
      },
      "burnEeus(address,uint256,int256)": {
        "details": "Burns carbons by resizing EEUs, and/or removing EEUs from the ledger\rRemoves EEUs (or fractions thereof) from the main list and from the ledger, resizing as necessary\rThe supplied ledger owner must hold the supplied quantity of carbon in aggregate across ledger EEUs, and of the supplied type\r",
        "params": {
          "eeuTypeId": "The EEU type to burn\r",
          "ledgerOwner": "The ledger owner to burn\r",
          "qtyKG": "The tonnage to burn\r"
        }
      },
      "fund(uint256,int256,address)": {
        "details": "Funds a ledger entry with a currency amount\r",
        "params": {
          "amount": "The mount of the currency to fund, in currency base units\r",
          "ccyTypeId": "The currency type ID\r",
          "ledgerOwner": "The ledger owner to fund\r"
        }
      },
      "getCcyTypes()": {
        "details": "Returns current currency types\r"
      },
      "getEeu(uint256)": {
        "details": "Returns an EEU by ID\r"
      },
      "getEeuBatch(uint256)": {
        "details": "Returns an EEU batch by ID\r"
      },
      "getEeuBatchCount()": {
        "details": "Returns the global EEU batch count\r"
      },
      "getEeuMintedCount()": {
        "details": "Returns the global no. of EEUs minted\r"
      },
      "getEeuTypes()": {
        "details": "Returns current EEU types\r"
      },
      "getKgCarbonBurned()": {
        "details": "Returns the global no. of KGs carbon burned in EEUs\r"
      },
      "getKgCarbonMinted()": {
        "details": "Returns the global no. of KGs carbon minted in EEUs\r"
      },
      "getLedgerEntry(address)": {
        "details": "Returns the ledger entry for a single account\r"
      },
      "getLedgerOwners()": {
        "details": "Returns all accounts in the ledger\r"
      },
      "getTotalFunded(uint256)": {
        "details": "Returns the total amount funded for the supplied currency\r"
      },
      "getTotalWithdrawn(uint256)": {
        "details": "Returns the total amount funded for the supplied currency\r"
      },
      "mintEeuBatch(uint256,int256,int256,address)": {
        "details": "Mints and assigns initial ownership of a new EEU batch\r",
        "params": {
          "batchOwner": "The ledger owner to assign the minted EEUs to\r",
          "eeuTypeId": "The EEU-type for the batch\r",
          "qtyEeus": "The quantity of EEUs to mint - recommended, due to memory & gas cost, always set to 1\r",
          "qtyKG": "The KG quanity of carbon to mint across the EEUs\r"
        }
      },
      "withdraw(uint256,int256,address)": {
        "details": "Withdraws currency from a ledger entry\r",
        "params": {
          "amount": "The mount of the currency to withdraw, in currency base units\r",
          "ccyTypeId": "The currency type ID\r",
          "ledgerOwner": "The withdrawing ledger owner\r"
        }
      }
    }
  },
  "userdoc": {
    "methods": {
      "constructor": "ctor\r"
    }
  }
}