{
  "contractName": "AcMaster",
  "abi": [
    {
      "constant": true,
      "inputs": [
        {
          "name": "id",
          "type": "uint256"
        }
      ],
      "name": "getEeuBatch",
      "outputs": [
        {
          "components": [
            {
              "name": "id",
              "type": "uint256"
            },
            {
              "name": "mintedTimestamp",
              "type": "uint256"
            },
            {
              "name": "eeuTypeId",
              "type": "uint256"
            },
            {
              "name": "mintedKG",
              "type": "uint256"
            },
            {
              "name": "burnedKG",
              "type": "uint256"
            }
          ],
          "name": "",
          "type": "tuple"
        }
      ],
      "payable": false,
      "stateMutability": "view",
      "type": "function"
    },
    {
      "constant": false,
      "inputs": [
        {
          "name": "name",
          "type": "string"
        },
        {
          "name": "unit",
          "type": "string"
        }
      ],
      "name": "addCcyType",
      "outputs": [],
      "payable": false,
      "stateMutability": "nonpayable",
      "type": "function"
    },
    {
      "constant": false,
      "inputs": [
        {
          "name": "ccyTypeId",
          "type": "uint256"
        },
        {
          "name": "amount",
          "type": "int256"
        },
        {
          "name": "ledgerOwner",
          "type": "address"
        }
      ],
      "name": "withdraw",
      "outputs": [],
      "payable": false,
      "stateMutability": "nonpayable",
      "type": "function"
    },
    {
      "constant": true,
      "inputs": [],
      "name": "getEeuBatchCount",
      "outputs": [
        {
          "name": "",
          "type": "uint256"
        }
      ],
      "payable": false,
      "stateMutability": "view",
      "type": "function"
    },
    {
      "constant": false,
      "inputs": [
        {
          "name": "ccyTypeId",
          "type": "uint256"
        },
        {
          "name": "amount",
          "type": "int256"
        },
        {
          "name": "ledgerOwner",
          "type": "address"
        }
      ],
      "name": "fund",
      "outputs": [],
      "payable": false,
      "stateMutability": "nonpayable",
      "type": "function"
    },
    {
      "constant": true,
      "inputs": [],
      "name": "getEeuMintedCount",
      "outputs": [
        {
          "name": "",
          "type": "uint256"
        }
      ],
      "payable": false,
      "stateMutability": "view",
      "type": "function"
    },
    {
      "constant": true,
      "inputs": [
        {
          "name": "ccyTypeId",
          "type": "uint256"
        }
      ],
      "name": "getTotalWithdrawn",
      "outputs": [
        {
          "name": "",
          "type": "uint256"
        }
      ],
      "payable": false,
      "stateMutability": "view",
      "type": "function"
    },
    {
      "constant": true,
      "inputs": [
        {
          "name": "ccyTypeId",
          "type": "uint256"
        }
      ],
      "name": "getTotalFunded",
      "outputs": [
        {
          "name": "",
          "type": "uint256"
        }
      ],
      "payable": false,
      "stateMutability": "view",
      "type": "function"
    },
    {
      "constant": true,
      "inputs": [],
      "name": "getCcyTypes",
      "outputs": [
        {
          "components": [
            {
              "components": [
                {
                  "name": "id",
                  "type": "uint256"
                },
                {
                  "name": "name",
                  "type": "string"
                },
                {
                  "name": "unit",
                  "type": "string"
                }
              ],
              "name": "ccyTypes",
              "type": "tuple[]"
            }
          ],
          "name": "",
          "type": "tuple"
        }
      ],
      "payable": false,
      "stateMutability": "view",
      "type": "function"
    },
    {
      "constant": false,
      "inputs": [
        {
          "name": "name",
          "type": "string"
        }
      ],
      "name": "addEeuType",
      "outputs": [],
      "payable": false,
      "stateMutability": "nonpayable",
      "type": "function"
    },
    {
      "constant": true,
      "inputs": [],
      "name": "version",
      "outputs": [
        {
          "name": "",
          "type": "string"
        }
      ],
      "payable": false,
      "stateMutability": "view",
      "type": "function"
    },
    {
      "constant": false,
      "inputs": [
        {
          "name": "eeuTypeId",
          "type": "uint256"
        },
        {
          "name": "qtyKG",
          "type": "int256"
        },
        {
          "name": "qtyEeus",
          "type": "int256"
        },
        {
          "name": "batchOwner",
          "type": "address"
        }
      ],
      "name": "mintEeuBatch",
      "outputs": [],
      "payable": false,
      "stateMutability": "nonpayable",
      "type": "function"
    },
    {
      "constant": false,
      "inputs": [
        {
          "name": "ledgerOwner",
          "type": "address"
        },
        {
          "name": "eeuTypeId",
          "type": "uint256"
        },
        {
          "name": "qtyKG",
          "type": "int256"
        }
      ],
      "name": "burnEeus",
      "outputs": [],
      "payable": false,
      "stateMutability": "nonpayable",
      "type": "function"
    },
    {
      "constant": false,
      "inputs": [
        {
          "name": "ledger_A",
          "type": "address"
        },
        {
          "name": "ledger_B",
          "type": "address"
        },
        {
          "name": "kg_A",
          "type": "uint256"
        },
        {
          "name": "eeuTypeId_A",
          "type": "uint256"
        },
        {
          "name": "kg_B",
          "type": "uint256"
        },
        {
          "name": "eeuTypeId_B",
          "type": "uint256"
        },
        {
          "name": "ccy_amount_A",
          "type": "int256"
        },
        {
          "name": "ccyTypeId_A",
          "type": "uint256"
        },
        {
          "name": "ccy_amount_B",
          "type": "int256"
        },
        {
          "name": "ccyTypeId_B",
          "type": "uint256"
        }
      ],
      "name": "transfer",
      "outputs": [],
      "payable": false,
      "stateMutability": "nonpayable",
      "type": "function"
    },
    {
      "constant": true,
      "inputs": [],
      "name": "getEeuTypes",
      "outputs": [
        {
          "components": [
            {
              "components": [
                {
                  "name": "id",
                  "type": "uint256"
                },
                {
                  "name": "name",
                  "type": "string"
                }
              ],
              "name": "eeuTypes",
              "type": "tuple[]"
            }
          ],
          "name": "",
          "type": "tuple"
        }
      ],
      "payable": false,
      "stateMutability": "view",
      "type": "function"
    },
    {
      "constant": true,
      "inputs": [
        {
          "name": "id",
          "type": "uint256"
        }
      ],
      "name": "getEeu",
      "outputs": [
        {
          "components": [
            {
              "name": "exists",
              "type": "bool"
            },
            {
              "name": "id",
              "type": "uint256"
            },
            {
              "name": "mintedKG",
              "type": "uint256"
            },
            {
              "name": "KG",
              "type": "uint256"
            },
            {
              "name": "batchId",
              "type": "uint256"
            },
            {
              "name": "mintedTimestamp",
              "type": "uint256"
            },
            {
              "name": "splitFromId",
              "type": "uint256"
            },
            {
              "name": "splitToId",
              "type": "uint256"
            }
          ],
          "name": "",
          "type": "tuple"
        }
      ],
      "payable": false,
      "stateMutability": "view",
      "type": "function"
    },
    {
      "constant": true,
      "inputs": [
        {
          "name": "account",
          "type": "address"
        }
      ],
      "name": "getLedgerEntry",
      "outputs": [
        {
          "components": [
            {
              "name": "exists",
              "type": "bool"
            },
            {
              "components": [
                {
                  "name": "eeuId",
                  "type": "uint256"
                },
                {
                  "name": "eeuTypeId",
                  "type": "uint256"
                },
                {
                  "name": "eeuTypeName",
                  "type": "string"
                },
                {
                  "name": "batchId",
                  "type": "uint256"
                },
                {
                  "name": "eeuKG",
                  "type": "uint256"
                },
                {
                  "name": "mintedTimestamp",
                  "type": "uint256"
                },
                {
                  "name": "splitFromId",
                  "type": "uint256"
                },
                {
                  "name": "splitToId",
                  "type": "uint256"
                }
              ],
              "name": "eeus",
              "type": "tuple[]"
            },
            {
              "name": "eeu_sumKG",
              "type": "uint256"
            },
            {
              "components": [
                {
                  "name": "typeId",
                  "type": "uint256"
                },
                {
                  "name": "name",
                  "type": "string"
                },
                {
                  "name": "unit",
                  "type": "string"
                },
                {
                  "name": "balance",
                  "type": "int256"
                }
              ],
              "name": "ccys",
              "type": "tuple[]"
            }
          ],
          "name": "",
          "type": "tuple"
        }
      ],
      "payable": false,
      "stateMutability": "view",
      "type": "function"
    },
    {
      "constant": true,
      "inputs": [],
      "name": "getKgCarbonMinted",
      "outputs": [
        {
          "name": "",
          "type": "uint256"
        }
      ],
      "payable": false,
      "stateMutability": "view",
      "type": "function"
    },
    {
      "constant": true,
      "inputs": [],
      "name": "getLedgerOwners",
      "outputs": [
        {
          "name": "",
          "type": "address[]"
        }
      ],
      "payable": false,
      "stateMutability": "view",
      "type": "function"
    },
    {
      "constant": true,
      "inputs": [],
      "name": "getKgCarbonBurned",
      "outputs": [
        {
          "name": "count",
          "type": "uint256"
        }
      ],
      "payable": false,
      "stateMutability": "view",
      "type": "function"
    },
    {
      "constant": true,
      "inputs": [],
      "name": "getTotalKgTransfered",
      "outputs": [
        {
          "name": "",
          "type": "uint256"
        }
      ],
      "payable": false,
      "stateMutability": "view",
      "type": "function"
    },
    {
      "constant": true,
      "inputs": [
        {
          "name": "ccyTypeId",
          "type": "uint256"
        }
      ],
      "name": "getTotalCcyTransfered",
      "outputs": [
        {
          "name": "",
          "type": "uint256"
        }
      ],
      "payable": false,
      "stateMutability": "view",
      "type": "function"
    },
    {
      "inputs": [],
      "payable": false,
      "stateMutability": "nonpayable",
      "type": "constructor"
    },
    {
      "anonymous": false,
      "inputs": [
        {
          "indexed": false,
          "name": "ccyTypeId",
          "type": "uint256"
        },
        {
          "indexed": false,
          "name": "ledgerOwner",
          "type": "address"
        },
        {
          "indexed": false,
          "name": "amount",
          "type": "int256"
        }
      ],
      "name": "CcyWithdrewLedger",
      "type": "event"
    },
    {
      "anonymous": false,
      "inputs": [
        {
          "indexed": false,
          "name": "ccyTypeId",
          "type": "uint256"
        },
        {
          "indexed": false,
          "name": "ledgerOwner",
          "type": "address"
        },
        {
          "indexed": false,
          "name": "amount",
          "type": "int256"
        }
      ],
      "name": "CcyFundedLedger",
      "type": "event"
    },
    {
      "anonymous": false,
      "inputs": [
        {
          "indexed": false,
          "name": "id",
          "type": "uint256"
        },
        {
          "indexed": false,
          "name": "eeuTypeId",
          "type": "uint256"
        },
        {
          "indexed": false,
          "name": "ledgerOwner",
          "type": "address"
        },
        {
          "indexed": false,
          "name": "burnedKG",
          "type": "uint256"
        }
      ],
      "name": "BurnedFullEeu",
      "type": "event"
    },
    {
      "anonymous": false,
      "inputs": [
        {
          "indexed": false,
          "name": "id",
          "type": "uint256"
        },
        {
          "indexed": false,
          "name": "eeuTypeId",
          "type": "uint256"
        },
        {
          "indexed": false,
          "name": "ledgerOwner",
          "type": "address"
        },
        {
          "indexed": false,
          "name": "burnedKG",
          "type": "uint256"
        }
      ],
      "name": "BurnedPartialEeu",
      "type": "event"
    },
    {
      "anonymous": false,
      "inputs": [
        {
          "indexed": false,
          "name": "id",
          "type": "uint256"
        },
        {
          "indexed": false,
          "name": "eeuTypeId",
          "type": "uint256"
        },
        {
          "indexed": false,
          "name": "batchOwner",
          "type": "address"
        },
        {
          "indexed": false,
          "name": "qtyKG",
          "type": "uint256"
        },
        {
          "indexed": false,
          "name": "qtyEeus",
          "type": "uint256"
        }
      ],
      "name": "MintedEeuBatch",
      "type": "event"
    },
    {
      "anonymous": false,
      "inputs": [
        {
          "indexed": false,
          "name": "id",
          "type": "uint256"
        },
        {
          "indexed": false,
          "name": "batchId",
          "type": "uint256"
        },
        {
          "indexed": false,
          "name": "eeuTypeId",
          "type": "uint256"
        },
        {
          "indexed": false,
          "name": "ledgerOwner",
          "type": "address"
        },
        {
          "indexed": false,
          "name": "mintedKG",
          "type": "uint256"
        }
      ],
      "name": "MintedEeu",
      "type": "event"
    },
    {
      "anonymous": false,
      "inputs": [
        {
          "indexed": false,
          "name": "id",
          "type": "uint256"
        },
        {
          "indexed": false,
          "name": "name",
          "type": "string"
        },
        {
          "indexed": false,
          "name": "unit",
          "type": "string"
        }
      ],
      "name": "AddedCcyType",
      "type": "event"
    },
    {
      "anonymous": false,
      "inputs": [
        {
          "indexed": false,
          "name": "id",
          "type": "uint256"
        },
        {
          "indexed": false,
          "name": "name",
          "type": "string"
        }
      ],
      "name": "AddedEeuType",
      "type": "event"
    }
  ],
  "bytecode": "0x60806040523480156200001157600080fd5b5060008054600160a060020a0319163317815560408051808201909152600681527f554e464343430000000000000000000000000000000000000000000000000000602080830191825292805260019092525162000091917fa6eef7e35abe7026729641147f7915573c7e97b47efa546f5f6e3230263bcb499162000368565b5060408051808201909152600381527f56435300000000000000000000000000000000000000000000000000000000006020808301918252600160008190529052905162000101917fcc69885fda6bcc1a4ace058b4a62bf5e179ea78fd58a1ccd71c22cc9b688792f9162000368565b50600280556040805160608101825260008082528251808401845260038082527f555344000000000000000000000000000000000000000000000000000000000060208381019190915280850192835285518087018752600581527f63656e7473000000000000000000000000000000000000000000000000000000818301529585019590955291805290835281517f3617319a054d772f909f7c479a2cebe5066e836a939412e32403c99029b92eff9081559051805192939192620001eb927f3617319a054d772f909f7c479a2cebe5066e836a939412e32403c99029b92f0092019062000368565b50604082015180516200020991600284019160209091019062000368565b50506040805160608101825260018082528251808401845260038082527f4554480000000000000000000000000000000000000000000000000000000000602083810191909152808501928352855180870187528281527f5765690000000000000000000000000000000000000000000000000000000000818301529585019590955260009290925290835281517fa15bc60c955c405d20d9149c709e2460f1c2d9a497496a7f46004d1772c3054c908155905180519294509092620002f5927fa15bc60c955c405d20d9149c709e2460f1c2d9a497496a7f46004d1772c3054d929091019062000368565b50604082015180516200031391600284019160209091019062000368565b50506002600455506040805180820190915260058082527f302e302e340000000000000000000000000000000000000000000000000000006020909201918252620003619160169162000368565b506200040d565b828054600181600116156101000203166002900490600052602060002090601f016020900481019282601f10620003ab57805160ff1916838001178555620003db565b82800160010185558215620003db579182015b82811115620003db578251825591602001919060010190620003be565b50620003e9929150620003ed565b5090565b6200040a91905b80821115620003e95760008155600101620003f4565b90565b613625806200041d6000396000f3fe608060405234801561001057600080fd5b506004361061019f576000357c01000000000000000000000000000000000000000000000000000000009004806370f753de116100f5578063a89a8884116100a9578063e3f64b3511610083578063e3f64b3514610333578063e87b886c1461033b578063e9b85fd3146103435761019f565b8063a89a8884146102f6578063ba0138cb14610316578063bcc376c61461031e5761019f565b80638de389b6116100da5780638de389b6146102ae578063963030df146102c15780639ce9a4a6146102d65761019f565b806370f753de146102885780637b2d412a1461029b5761019f565b80633846d448116101575780634dc26ae8116101315780634dc26ae81461024b57806351664b261461026057806354fd4d50146102735761019f565b80633846d4481461021d5780633e726e0514610225578063448d7438146102385761019f565b80630b503ab7116101885780630b503ab7146101e257806319b67615146101f55780633368402b1461020a5761019f565b80630722a4ee146101a45780630834e864146101cd575b600080fd5b6101b76101b2366004612541565b610356565b6040516101c4919061336a565b60405180910390f35b6101e06101db3660046124d8565b6103ad565b005b6101e06101f036600461255f565b610526565b6101fd61069e565b6040516101c491906133ba565b6101e061021836600461255f565b6106a5565b6101fd610828565b6101fd610233366004612541565b61085d565b6101fd610246366004612541565b61089e565b6102536108df565b6040516101c49190613387565b6101e061026e3660046124a3565b610ac9565b61027b610bf0565b6040516101c49190613229565b6101e06102963660046125a2565b610c7e565b6101e06102a9366004612456565b610fbd565b6101e06102bc36600461237d565b6112b4565b6102c961159c565b6040516101c49190613398565b6102e96102e4366004612541565b6116ba565b6040516101c49190613378565b610309610304366004612357565b611740565b6040516101c491906133a9565b6101fd611c26565b610326611c5b565b6040516101c49190613218565b6101fd611ceb565b6101fd611d20565b6101fd610351366004612541565b611d55565b61035e6120cb565b50600090815260056020908152604091829020825160a0810184528154815260018201549281019290925260028101549282019290925260038201546060820152600490910154608082015290565b600054600160a060020a031633146103e35760405160e560020a62461bcd0281526004016103da906132ca565b60405180910390fd5b60005b60045481101561047557826040516020016104019190613200565b60408051601f19818403018152828252805160209182012060008581526003835292909220919261043692600101910161320c565b60405160208183030381529060405280519060200120141561046d5760405160e560020a62461bcd0281526004016103da906132da565b6001016103e6565b506040805160608101825260045480825260208083018681528385018690526000928352600382529390912082518155925180519293926104bc92600185019201906120fa565b50604082015180516104d89160028401916020909101906120fa565b509050507f41c4a4be5d1fed810ab0ace2ffe78022538a72356773c24ed010e06bdf6454b7600454838360405161051193929190613410565b60405180910390a15050600480546001019055565b600054600160a060020a031633146105535760405160e560020a62461bcd0281526004016103da906132ca565b60045483106105775760405160e560020a62461bcd0281526004016103da906132ba565b6000821361059a5760405160e560020a62461bcd0281526004016103da906132fa565b600160a060020a03811660009081526011602052604090205460ff1615156001146105da5760405160e560020a62461bcd0281526004016103da9061324a565b600160a060020a03811660009081526011602090815260408083208684526003019091529020548213156106235760405160e560020a62461bcd0281526004016103da9061329a565b600160a060020a0381166000908152601160209081526040808320868452600301825280832080548690039055601490915290819020805484019055517fbc646e7e255ad4c6743251f213af7cae7d0cecfbf159c99ded6b6d7f85666a3f90610691908590849086906133c8565b60405180910390a1505050565b6006545b90565b600054600160a060020a031633146106d25760405160e560020a62461bcd0281526004016103da906132ca565b60045483106106f65760405160e560020a62461bcd0281526004016103da906132ba565b600082136107195760405160e560020a62461bcd0281526004016103da906132fa565b600160a060020a03811660009081526011602052604090205460ff166107bb5760408051602080820183526001808352600160a060020a038516600081815260119093529382209251835460ff19169015151790925560128054928301815590527fbb8a6a4669ba250d26cd7a459eca9d215f8307e33aebe50379bc5a3617ec344401805473ffffffffffffffffffffffffffffffffffffffff191690911790555b600160a060020a03811660009081526011602090815260408083208684526003018252808320805486019055601390915290819020805484019055517fbf9c9c4358c50927dd4152801ee5586a421fee0e6dd1c019635a6c4d0af9158790610691908590849086906133c8565b60008054600160a060020a031633146108565760405160e560020a62461bcd0281526004016103da906132ca565b5060105490565b60008054600160a060020a0316331461088b5760405160e560020a62461bcd0281526004016103da906132ca565b5060009081526014602052604090205490565b60008054600160a060020a031633146108cc5760405160e560020a62461bcd0281526004016103da906132ca565b5060009081526013602052604090205490565b6108e7612178565b606060045460405190808252806020026020018201604052801561092557816020015b61091261218b565b81526020019060019003908161090a5790505b50905060005b600454811015610aac57604080516060810182526000838152600360208181528483208054855292869052908152600191820180548551600294821615610100026000190190911693909304601f8101839004830284018301909552848352929381850193918301828280156109e25780601f106109b7576101008083540402835291602001916109e2565b820191906000526020600020905b8154815290600101906020018083116109c557829003601f168201915b50505091835250506000838152600360209081526040918290206002908101805484516001821615610100026000190190911692909204601f81018490048402830184019094528382529382019390929091830182828015610a855780601f10610a5a57610100808354040283529160200191610a85565b820191906000526020600020905b815481529060010190602001808311610a6857829003601f168201915b5050505050815250828281518110610a9957fe5b602090810291909101015260010161092b565b50610ab5612178565b506040805160208101909152908152905090565b600054600160a060020a03163314610af65760405160e560020a62461bcd0281526004016103da906132ca565b60005b600254811015610b855781604051602001610b149190613200565b60408051601f198184030181528282528051602091820120600085815260018352929092209192610b4692910161320c565b604051602081830303815290604052805190602001201415610b7d5760405160e560020a62461bcd0281526004016103da9061334a565b600101610af9565b5060025460009081526001602090815260409091208251610ba8928401906120fa565b507ff42a31d05ee5f17e0f159b94b9402293e9cf2265c806b4a55168aeaa3fe275e260025482604051610bdc9291906133f0565b60405180910390a150600280546001019055565b6016805460408051602060026001851615610100026000190190941693909304601f81018490048402820184019092528181529291830182828015610c765780601f10610c4b57610100808354040283529160200191610c76565b820191906000526020600020905b815481529060010190602001808311610c5957829003601f168201915b505050505081565b600054600160a060020a03163314610cab5760405160e560020a62461bcd0281526004016103da906132ca565b6002548410610ccf5760405160e560020a62461bcd0281526004016103da9061328a565b6001821215610cf35760405160e560020a62461bcd0281526004016103da9061335a565b6103e8831215610d185760405160e560020a62461bcd0281526004016103da9061331a565b818381610d2157fe5b0715610d425760405160e560020a62461bcd0281526004016103da9061330a565b610d4a6120cb565b506040805160a0810182526006805460019081018084524260208086019182528587018b8152606087018b81526000608089018181529581526005909352918890208751808255935181870155905160028201559051600382015591516004909201919091558254909101909155915190917f3b2a5f1232ad8fb6334d75c56a235d50209dc23e6b0b51325b2e98e17a6ffc3d91610df091908890869089908990613479565b60405180910390a1600160a060020a03821660009081526011602052604090205460ff16610e9a5760408051602080820183526001808352600160a060020a038616600081815260119093529382209251835460ff19169015151790925560128054928301815590527fbb8a6a4669ba250d26cd7a459eca9d215f8307e33aebe50379bc5a3617ec344401805473ffffffffffffffffffffffffffffffffffffffff191690911790555b60005b83811215610f785760105481016001016000858781610eb857fe5b855160008581526007602090815260408083209390935560088152828220949093049384905560098352818120849055600a90925290819020429055855190519192507fbdf1b0fbadd676a593dc51c25399111b5cf1795fd1315c7545271c18c1b265cd91610f2e9185918c908a9087906134c5565b60405180910390a150600160a060020a03841660009081526011602090815260408083208a8452600190810183529083208054808301825590845291909220019190915501610e9d565b5050600160a060020a03166000908152601160209081526040808320958352600290950190529290922080548201905560108054909201909155600d80549091019055565b600054600160a060020a03163314610fea5760405160e560020a62461bcd0281526004016103da906132ca565b600160a060020a03831660009081526011602052604090205460ff16151560011461102a5760405160e560020a62461bcd0281526004016103da9061324a565b6103e881121561104f5760405160e560020a62461bcd0281526004016103da9061331a565b60025482106110735760405160e560020a62461bcd0281526004016103da9061328a565b600160a060020a03831660009081526011602090815260408083208584526002019091529020548111156110bc5760405160e560020a62461bcd0281526004016103da9061333a565b6000815b80156112a557600160a060020a0385166000908152601160209081526040808320878452600101909152812080549091908290859081106110fd57fe5b600091825260208083209091015480835260098252604080842054600790935290922054919250908185106112095760008381526009602052604081205583548490600019810190811061114d57fe5b906000526020600020015484878154811061116457fe5b60009182526020909120015583546111808560001983016121ac565b50600160a060020a03891660009081526011602090815260408083208b84526002018252808320805486900390558383526005909152908190206004018054840190555194829003947ff214be5dc9cf391efd4738b59af95842784d47fd41a2b9057df440d144f3c67d906111fc9085908b908d908790613444565b60405180910390a161129c565b600083815260096020908152604080832080548990039055600160a060020a038c168352601182528083208b8452600201825280832080548990039055838352600590915290819020600401805487019055517fe304852108e009cdefa218a22b44f9a1f921fb5692ead9b6fb815d388e24869f9061128f9085908b908d908a90613444565b60405180910390a1600094505b505050506110c0565b5050600e805490910190555050565b600054600160a060020a031633146112e15760405160e560020a62461bcd0281526004016103da906132ca565b600160a060020a038a1660009081526011602052604090205460ff1615156001146113215760405160e560020a62461bcd0281526004016103da9061323a565b600160a060020a03891660009081526011602052604090205460ff1615156001146113615760405160e560020a62461bcd0281526004016103da9061326a565b60008412806113705750600082125b156113905760405160e560020a62461bcd0281526004016103da906132ea565b600160a060020a038a1660009081526011602090815260408083208a84526002019091529020548811156113d95760405160e560020a62461bcd0281526004016103da906132aa565b600160a060020a03891660009081526011602090815260408083208884526002019091529020548611156114225760405160e560020a62461bcd0281526004016103da9061332a565b600160a060020a038a16600090815260116020908152604080832086845260030190915290205484131561146b5760405160e560020a62461bcd0281526004016103da9061325a565b600160a060020a03891660009081526011602090815260408083208484526003019091529020548213156114b45760405160e560020a62461bcd0281526004016103da9061327a565b600084131561151657600160a060020a03808b1660009081526011602081815260408084208885526003908101835281852080548b90039055948e16845291815281832087845290930183528082208054880190556015909252208054850190555b600082131561157857600160a060020a03808a1660009081526011602081815260408084208685526003908101835281852080548990039055948f16845291815281832085845290930183528082208054860190556015909252208054830190555b6115848a8a8a8a611d96565b611590898b8888611d96565b50505050505050505050565b6115a4612178565b60606002546040519080825280602002602001820160405280156115e257816020015b6115cf6121d5565b8152602001906001900390816115c75790505b50905060005b600254811015610aac576040805180820182528281526000838152600160208181529184902080548551600293821615610100026000190190911692909204601f810184900484028301840190955284825292938285019391928301828280156116935780601f1061166857610100808354040283529160200191611693565b820191906000526020600020905b81548152906001019060200180831161167657829003601f168201915b50505050508152508282815181106116a757fe5b60209081029190910101526001016115e8565b6116c26121ef565b506040805161010081018252600083815260076020908152838220548015158452818401869052858352600882528483205484860152858352600982528483205460608501526080840152848252600a81528382205460a0840152848252600b81528382205460c0840152938152600c90935291205460e082015290565b611748612236565b606080600080805b60025481101561178f57600160a060020a0387166000908152601160209081526040808320848452600190810190925290912054929092019101611750565b50806040519080825280602002602001820160405280156117ca57816020015b6117b7612260565b8152602001906001900390816117af5790505b5093506000805b6002548110156119d857600160a060020a038816600090815260116020908152604080832084845260010182529182902080548351818402810184019094528084526060939283018282801561184657602002820191906000526020600020905b815481526020019060010190808311611832575b50939450600093505050505b81518110156119ce57600082828151811061186957fe5b60200260200101519050600960008281526020019081526020016000205487019650604051806101000160405280828152602001858152602001600160008781526020019081526020016000208054600181600116156101000203166002900480601f01602080910402602001604051908101604052809291908181526020018280546001816001161561010002031660029004801561194a5780601f1061191f5761010080835404028352916020019161194a565b820191906000526020600020905b81548152906001019060200180831161192d57829003601f168201915b505050918352505060008381526007602090815260408083205482850152858352600982528083205481850152858352600a8252808320546060850152858352600b8252808320546080850152858352600c90915290205460a09091015289518a90879081106119b657fe5b60209081029190910101525060019384019301611852565b50506001016117d1565b50600454604051908082528060200260200182016040528015611a1557816020015b611a026122a5565b8152602001906001900390816119fa5790505b50935060005b600454811015611bd6576040518060800160405280828152602001600360008481526020019081526020016000206001018054600181600116156101000203166002900480601f016020809104026020016040519081016040528092919081815260200182805460018160011615610100020316600290048015611ae05780601f10611ab557610100808354040283529160200191611ae0565b820191906000526020600020905b815481529060010190602001808311611ac357829003601f168201915b50505091835250506000838152600360209081526040918290206002908101805484516001821615610100026000190190911692909204601f81018490048402830184019094528382529382019390929091830182828015611b835780601f10611b5857610100808354040283529160200191611b83565b820191906000526020600020905b815481529060010190602001808311611b6657829003601f168201915b5050509183525050600160a060020a038a1660009081526011602090815260408083208684526003018252909120549101528551869083908110611bc357fe5b6020908102919091010152600101611a1b565b50611bdf612236565b505060408051608081018252600160a060020a038816600090815260116020908152908390205460ff16151582528101959095528401919091525060608201529050919050565b60008054600160a060020a03163314611c545760405160e560020a62461bcd0281526004016103da906132ca565b50600d5490565b600054606090600160a060020a03163314611c8b5760405160e560020a62461bcd0281526004016103da906132ca565b6012805480602002602001604051908101604052809291908181526020018280548015611ce157602002820191906000526020600020905b8154600160a060020a03168152600190910190602001808311611cc3575b5050505050905090565b60008054600160a060020a03163314611d195760405160e560020a62461bcd0281526004016103da906132ca565b50600e5490565b60008054600160a060020a03163314611d4e5760405160e560020a62461bcd0281526004016103da906132ca565b50600f5490565b60008054600160a060020a03163314611d835760405160e560020a62461bcd0281526004016103da906132ca565b5060009081526015602052604090205490565b6000825b80156120ba57600160a060020a03808716600090815260116020818152604080842088855260019081018352818520958b168552928252808420888552909201905281208254909190839086908110611def57fe5b60009182526020808320909101548083526009825260408084205460079093529092205491925090818610611ecb57845485906000198101908110611e3057fe5b9060005260206000200154858881548110611e4757fe5b6000918252602090912001558454611e638660001983016121ac565b50600160a060020a03808c1660009081526011602081815260408084208d855260029081018352818520805489900390558954600181018b558a865283862001899055948f1684529181528183208c84529093019092522080548301905594819003946120b0565b6000601054600101905081600760008381526020019081526020016000208190555086600860008381526020019081526020016000208190555086600960008381526020019081526020016000208190555042600a60008381526020019081526020016000208190555083600b60008381526020019081526020016000208190555060106000815480929190600101919050555086600960008681526020019081526020016000206000828254039250508190555086600860008681526020019081526020016000206000828254039250508190555080600c60008681526020019081526020016000208190555086601160008e600160a060020a0316600160a060020a0316815260200190815260200160002060020160008b815260200190815260200160002060008282540392505081905550601160008c600160a060020a0316600160a060020a0316815260200190815260200160002060010160008a815260200190815260200160002081908060018154018082558091505090600182039060005260206000200160009091929091909150555086601160008d600160a060020a0316600160a060020a0316815260200190815260200160002060020160008b81526020019081526020016000206000828254019250508190555060009650505b5050505050611d9a565b5050600f8054909201909155505050565b6040518060a0016040528060008152602001600081526020016000815260200160008152602001600081525090565b828054600181600116156101000203166002900490600052602060002090601f016020900481019282601f1061213b57805160ff1916838001178555612168565b82800160010185558215612168579182015b8281111561216857825182559160200191906001019061214d565b506121749291506122cd565b5090565b6040518060200160405280606081525090565b60405180606001604052806000815260200160608152602001606081525090565b8154818355818111156121d0576000838152602090206121d09181019083016122cd565b505050565b604051806040016040528060008152602001606081525090565b604051806101000160405280600015158152602001600081526020016000815260200160008152602001600081526020016000815260200160008152602001600081525090565b60405180608001604052806000151581526020016060815260200160008152602001606081525090565b60405180610100016040528060008152602001600081526020016060815260200160008152602001600081526020016000815260200160008152602001600081525090565b6040518060800160405280600081526020016060815260200160608152602001600081525090565b6106a291905b8082111561217457600081556001016122d3565b80356122f2816135cb565b92915050565b80356122f2816135e2565b600082601f83011261231457600080fd5b813561232761232282613521565b6134fa565b9150808252602083016020830185838301111561234357600080fd5b61234e838284613589565b50505092915050565b60006020828403121561236957600080fd5b600061237584846122e7565b949350505050565b6000806000806000806000806000806101408b8d03121561239d57600080fd5b60006123a98d8d6122e7565b9a505060206123ba8d828e016122e7565b99505060406123cb8d828e016122f8565b98505060606123dc8d828e016122f8565b97505060806123ed8d828e016122f8565b96505060a06123fe8d828e016122f8565b95505060c061240f8d828e016122f8565b94505060e06124208d828e016122f8565b9350506101006124328d828e016122f8565b9250506101206124448d828e016122f8565b9150509295989b9194979a5092959850565b60008060006060848603121561246b57600080fd5b600061247786866122e7565b9350506020612488868287016122f8565b9250506040612499868287016122f8565b9150509250925092565b6000602082840312156124b557600080fd5b813567ffffffffffffffff8111156124cc57600080fd5b61237584828501612303565b600080604083850312156124eb57600080fd5b823567ffffffffffffffff81111561250257600080fd5b61250e85828601612303565b925050602083013567ffffffffffffffff81111561252b57600080fd5b61253785828601612303565b9150509250929050565b60006020828403121561255357600080fd5b600061237584846122f8565b60008060006060848603121561257457600080fd5b600061258086866122f8565b9350506020612591868287016122f8565b9250506040612499868287016122e7565b600080600080608085870312156125b857600080fd5b60006125c487876122f8565b94505060206125d5878288016122f8565b93505060406125e6878288016122f8565b92505060606125f7878288016122e7565b91505092959194509250565b600061260f838361264e565b505060200190565b60006126238383612efe565b9392505050565b60006126238383613047565b600061262383836130a3565b60006126238383613106565b6126578161356d565b82525050565b60006126688261355b565b612672818561355f565b935061267d83613549565b8060005b838110156126ab5781516126958882612603565b97506126a083613549565b925050600101612681565b509495945050505050565b60006126c18261355b565b6126cb818561355f565b9350836020820285016126dd85613549565b8060005b8581101561271757848403895281516126fa8582612617565b945061270583613549565b60209a909a01999250506001016126e1565b5091979650505050505050565b600061272f8261355b565b612739818561355f565b93508360208202850161274b85613549565b8060005b858110156127175784840389528151612768858261262a565b945061277383613549565b60209a909a019992505060010161274f565b60006127908261355b565b61279a818561355f565b9350836020820285016127ac85613549565b8060005b8581101561271757848403895281516127c98582612636565b94506127d483613549565b60209a909a01999250506001016127b0565b60006127f18261355b565b6127fb818561355f565b93508360208202850161280d85613549565b8060005b85811015612717578484038952815161282a8582612642565b945061283583613549565b60209a909a0199925050600101612811565b61265781613578565b612657816106a2565b60006128648261355b565b61286e818561355f565b935061287e818560208601613595565b612887816135c1565b9093019392505050565b600061289c8261355b565b6128a68185613568565b93506128b6818560208601613595565b9290920192915050565b6000815460018116600081146128dd57600181146129005761293f565b607f60028304166128ee8187613568565b60ff198416815295508501925061293f565b6002820461290e8187613568565b95506129198561354f565b60005b828110156129385781548882015260019091019060200161291c565b5050850192505b505092915050565b600061295460168361355f565b7f496e76616c6964206c6564676572206f776e6572204100000000000000000000815260200192915050565b600061298d60148361355f565b7f496e76616c6964206c6564676572206f776e6572000000000000000000000000815260200192915050565b60006129c6602c8361355f565b7f496e73756666696369656e742063757272656e63792068656c64206279206c6581527f64676572206f776e657220410000000000000000000000000000000000000000602082015260400192915050565b6000612a2560168361355f565b7f496e76616c6964206c6564676572206f776e6572204200000000000000000000815260200192915050565b6000612a5e602c8361355f565b7f496e73756666696369656e742063757272656e63792068656c64206279206c6581527f64676572206f776e657220420000000000000000000000000000000000000000602082015260400192915050565b6000612abd60108361355f565b7f496e76616c696420454555207479706500000000000000000000000000000000815260200192915050565b6000612af660218361355f565b7f496e73756666696369656e74206c6564676572206f776e65722062616c616e6381527f6500000000000000000000000000000000000000000000000000000000000000602082015260400192915050565b6000612b55602a8361355f565b7f496e73756666696369656e7420636172626f6e2068656c64206279206c65646781527f6572206f776e6572204100000000000000000000000000000000000000000000602082015260400192915050565b6000612bb460158361355f565b7f496e76616c69642063757272656e637920747970650000000000000000000000815260200192915050565b6000612bed60118361355f565b7f52657374726963746564206d6574686f64000000000000000000000000000000815260200192915050565b6000612c2660218361355f565b7f43757272656e63792074797065206e616d6520616c726561647920657869737481527f7300000000000000000000000000000000000000000000000000000000000000602082015260400192915050565b6000612c8560188361355f565b7f496e76616c69642063757272656e637920616d6f756e74730000000000000000815260200192915050565b6000612cbe60228361355f565b7f4d696e696d756d206f6e652063757272656e637920756e69742072657175697281527f6564000000000000000000000000000000000000000000000000000000000000602082015260400192915050565b6000612d1d602a8361355f565b7f436172626f6e20776569676874206d75737420646976696465206576656e6c7981527f20696e746f204545557300000000000000000000000000000000000000000000602082015260400192915050565b6000612d7c60298361355f565b7f4d696e696d756d206f6e65206d657472696320746f6e206f6620636172626f6e81527f2072657175697265640000000000000000000000000000000000000000000000602082015260400192915050565b6000612ddb602a8361355f565b7f496e73756666696369656e7420636172626f6e2068656c64206279206c65646781527f6572206f776e6572204200000000000000000000000000000000000000000000602082015260400192915050565b6000612e3a60288361355f565b7f496e73756666696369656e7420636172626f6e2068656c64206279206c65646781527f6572206f776e6572000000000000000000000000000000000000000000000000602082015260400192915050565b6000612e99601c8361355f565b7f4545552074797065206e616d6520616c72656164792065786973747300000000815260200192915050565b6000612ed260188361355f565b7f4d696e696d756d206f6e65204545552072657175697265640000000000000000815260200192915050565b80516000906060840190612f128582612850565b5060208301518482036020860152612f2a8282612859565b91505060408301518482036040860152612f448282612859565b95945050505050565b805160a0830190612f5e8482612850565b506020820151612f716020850182612850565b506040820151612f846040850182612850565b506060820151612f976060850182612850565b506080820151612faa6080850182612850565b50505050565b8051610100830190612fc28482612847565b506020820151612fd56020850182612850565b506040820151612fe86040850182612850565b506060820151612ffb6060850182612850565b50608082015161300e6080850182612850565b5060a082015161302160a0850182612850565b5060c082015161303460c0850182612850565b5060e0820151612faa60e0850182612850565b8051600090604084019061305b8582612850565b5060208301518482036020860152612f448282612859565b8051602080845260009190840190612f4482826126b6565b8051602080845260009190840190612f448282612724565b805160009060808401906130b78582612850565b50602083015184820360208601526130cf8282612859565b915050604083015184820360408601526130e98282612859565b91505060608301516130fe6060860182612850565b509392505050565b805160009061010084019061311b8582612850565b50602083015161312e6020860182612850565b50604083015184820360408601526131468282612859565b915050606083015161315b6060860182612850565b50608083015161316e6080860182612850565b5060a083015161318160a0860182612850565b5060c083015161319460c0860182612850565b5060e08301516130fe60e0860182612850565b805160009060808401906131bb8582612847565b50602083015184820360208601526131d382826127e6565b91505060408301516131e86040860182612850565b5060608301518482036060860152612f448282612785565b60006126238284612891565b600061262382846128c0565b60208082528101612623818461265d565b602080825281016126238184612859565b602080825281016122f281612947565b602080825281016122f281612980565b602080825281016122f2816129b9565b602080825281016122f281612a18565b602080825281016122f281612a51565b602080825281016122f281612ab0565b602080825281016122f281612ae9565b602080825281016122f281612b48565b602080825281016122f281612ba7565b602080825281016122f281612be0565b602080825281016122f281612c19565b602080825281016122f281612c78565b602080825281016122f281612cb1565b602080825281016122f281612d10565b602080825281016122f281612d6f565b602080825281016122f281612dce565b602080825281016122f281612e2d565b602080825281016122f281612e8c565b602080825281016122f281612ec5565b60a081016122f28284612f4d565b61010081016122f28284612fb0565b602080825281016126238184613073565b60208082528101612623818461308b565b6020808252810161262381846131a7565b602081016122f28284612850565b606081016133d68286612850565b6133e3602083018561264e565b6123756040830184612850565b604081016133fe8285612850565b81810360208301526123758184612859565b6060810161341e8286612850565b81810360208301526134308185612859565b90508181036040830152612f448184612859565b608081016134528287612850565b61345f6020830186612850565b61346c604083018561264e565b612f446060830184612850565b60a081016134878288612850565b6134946020830187612850565b6134a1604083018661264e565b6134ae6060830185612850565b6134bb6080830184612850565b9695505050505050565b60a081016134d38288612850565b6134e06020830187612850565b6134ed6040830186612850565b6134ae606083018561264e565b60405181810167ffffffffffffffff8111828210171561351957600080fd5b604052919050565b600067ffffffffffffffff82111561353857600080fd5b506020601f91909101601f19160190565b60200190565b60009081526020902090565b5190565b90815260200190565b919050565b60006122f28261357d565b151590565b600160a060020a031690565b82818337506000910152565b60005b838110156135b0578181015183820152602001613598565b83811115612faa5750506000910152565b601f01601f191690565b6135d48161356d565b81146135df57600080fd5b50565b6135d4816106a256fea265627a7a72305820e0530b5cc1d379df4089fd6e2f8a37eb77f5de1c74f31a6c83962a39015ae6d26c6578706572696d656e74616cf50037",
  "source": "pragma solidity 0.5.8;\r\npragma experimental ABIEncoderV2;\r\n\r\nimport \"./EeuMintable.sol\";\r\nimport \"./EeuBurnable.sol\";\r\nimport \"./EeuTradable.sol\";\r\nimport \"./CcyFundable.sol\";\r\nimport \"./CcyWithdrawable.sol\";\r\n\r\ncontract AcMaster is EeuMintable, EeuBurnable, CcyFundable, CcyWithdrawable, EeuTradable {\r\n    string public version;\r\n\r\n    /**\r\n     * ctor\r\n     */\r\n    constructor() public {\r\n        version = \"0.0.4\";\r\n    }\r\n}\r\n",
  "sourcePath": "C:/ac/src/ac-monorepo/packages/erc20/contracts/AcMaster/AcMaster.sol",
  "compiler": {
    "name": "solc",
    "version": "0.5.8+commit.23d335f2.Emscripten.clang"
  },
  "schemaVersion": "3.0.11",
  "updatedAt": "2019-08-09T20:27:42.890Z",
  "devdoc": {
    "methods": {
      "addCcyType(string,string)": {
        "details": "Adds a new currency type\r",
        "params": {
          "name": "The new currency type name\r",
          "unit": "The base unit of the new currency type\r"
        }
      },
      "addEeuType(string)": {
        "details": "Adds a new EEU type\r",
        "params": {
          "name": "The new EEU type name\r"
        }
      },
      "burnEeus(address,uint256,int256)": {
        "details": "Burns carbons by resizing EEUs, and/or removing EEUs from the ledger\rRemoves EEUs (or fractions thereof) from the main list and from the ledger, resizing as necessary\rThe supplied ledger owner must hold the supplied quantity of carbon in aggregate across ledger EEUs, and of the supplied type\r",
        "params": {
          "eeuTypeId": "The EEU type to burn\r",
          "ledgerOwner": "The ledger owner to burn\r",
          "qtyKG": "The tonnage to burn\r"
        }
      },
      "fund(uint256,int256,address)": {
        "details": "Funds a ledger entry with a currency amount\r",
        "params": {
          "amount": "The mount of the currency to fund, in currency base units\r",
          "ccyTypeId": "The currency type ID\r",
          "ledgerOwner": "The ledger owner to fund\r"
        }
      },
      "getCcyTypes()": {
        "details": "Returns current currency types\r"
      },
      "getEeu(uint256)": {
        "details": "Returns an EEU by ID\r"
      },
      "getEeuBatch(uint256)": {
        "details": "Returns an EEU batch by ID\r"
      },
      "getEeuBatchCount()": {
        "details": "Returns the global EEU batch count\r"
      },
      "getEeuMintedCount()": {
        "details": "Returns the total global number of EEUs minted\r"
      },
      "getEeuTypes()": {
        "details": "Returns current EEU types\r"
      },
      "getKgCarbonBurned()": {
        "details": "Returns the total global tonnage of carbon burned\r"
      },
      "getKgCarbonMinted()": {
        "details": "Returns the total global tonnage of carbon minted\r"
      },
      "getLedgerEntry(address)": {
        "details": "Returns the ledger entry for a single account\r"
      },
      "getLedgerOwners()": {
        "details": "Returns all accounts in the ledger\r"
      },
      "getTotalCcyTransfered(uint256)": {
        "details": "Returns the total global currency amount transfered for the supplied currency\r"
      },
      "getTotalFunded(uint256)": {
        "details": "Returns the total global amount funded for the supplied currency\r"
      },
      "getTotalKgTransfered()": {
        "details": "Returns the total global tonnage of carbon transfered\r"
      },
      "getTotalWithdrawn(uint256)": {
        "details": "Returns the total global amount withdrawn for the supplied currency\r"
      },
      "mintEeuBatch(uint256,int256,int256,address)": {
        "details": "Mints and assigns initial ownership of a new EEU batch\r",
        "params": {
          "batchOwner": "The ledger owner to assign the minted EEUs to\r",
          "eeuTypeId": "The EEU-type for the batch\r",
          "qtyEeus": "The quantity of EEUs to mint - recommended, due to memory & gas cost, always set to 1\r",
          "qtyKG": "The KG quanity of carbon to mint across the EEUs\r"
        }
      },
      "transfer(address,address,uint256,uint256,uint256,uint256,int256,uint256,int256,uint256)": {
        "details": "Transfers or trades assets between ledger accounts\r(allows one-sided transfers, and allows transfers of same asset types)\r",
        "params": {
          "ccyTypeId_A": "The currency type to move from A to B\r",
          "ccyTypeId_B": "The currency type to move from B to A\r",
          "ccy_amount_A": "The amount of currency to move from A to B\r",
          "ccy_amount_B": "The amount of currency to move from B to A\r",
          "eeuTypeId_A": "The EEU type to move from A to B\r",
          "eeuTypeId_B": "The EEU type to move from A to B\r",
          "kg_A": "The KG quantity of carbon to move from A to B\r",
          "kg_B": "The KG quanity of carbon to move from B to A\r",
          "ledger_A": "Ledger owner A\r",
          "ledger_B": "Ledger owner B\r"
        }
      },
      "withdraw(uint256,int256,address)": {
        "details": "Withdraws currency from a ledger entry\r",
        "params": {
          "amount": "The mount of the currency to withdraw, in currency base units\r",
          "ccyTypeId": "The currency type ID\r",
          "ledgerOwner": "The withdrawing ledger owner\r"
        }
      }
    }
  },
  "userdoc": {
    "methods": {
      "constructor": "ctor\r"
    }
  }
}