{
  "contractName": "AcMaster",
  "abi": [
    {
      "constant": true,
      "inputs": [
        {
          "name": "",
          "type": "uint256"
        }
      ],
      "name": "fee_eeuType_Fixed",
      "outputs": [
        {
          "name": "",
          "type": "uint256"
        }
      ],
      "payable": false,
      "stateMutability": "view",
      "type": "function"
    },
    {
      "constant": true,
      "inputs": [
        {
          "name": "id",
          "type": "uint256"
        }
      ],
      "name": "getEeuBatch",
      "outputs": [
        {
          "components": [
            {
              "name": "id",
              "type": "uint256"
            },
            {
              "name": "mintedTimestamp",
              "type": "uint256"
            },
            {
              "name": "eeuTypeId",
              "type": "uint256"
            },
            {
              "name": "mintedKG",
              "type": "uint256"
            },
            {
              "name": "burnedKG",
              "type": "uint256"
            }
          ],
          "name": "",
          "type": "tuple"
        }
      ],
      "payable": false,
      "stateMutability": "view",
      "type": "function"
    },
    {
      "constant": false,
      "inputs": [
        {
          "name": "name",
          "type": "string"
        },
        {
          "name": "unit",
          "type": "string"
        }
      ],
      "name": "addCcyType",
      "outputs": [],
      "payable": false,
      "stateMutability": "nonpayable",
      "type": "function"
    },
    {
      "constant": false,
      "inputs": [
        {
          "name": "ccyTypeId",
          "type": "uint256"
        },
        {
          "name": "amount",
          "type": "int256"
        },
        {
          "name": "ledgerOwner",
          "type": "address"
        }
      ],
      "name": "withdraw",
      "outputs": [],
      "payable": false,
      "stateMutability": "nonpayable",
      "type": "function"
    },
    {
      "constant": true,
      "inputs": [],
      "name": "getEeuBatchCount",
      "outputs": [
        {
          "name": "",
          "type": "uint256"
        }
      ],
      "payable": false,
      "stateMutability": "view",
      "type": "function"
    },
    {
      "constant": false,
      "inputs": [
        {
          "name": "ccyTypeId",
          "type": "uint256"
        },
        {
          "name": "amount",
          "type": "int256"
        },
        {
          "name": "ledgerOwner",
          "type": "address"
        }
      ],
      "name": "fund",
      "outputs": [],
      "payable": false,
      "stateMutability": "nonpayable",
      "type": "function"
    },
    {
      "constant": true,
      "inputs": [],
      "name": "getEeuMintedCount",
      "outputs": [
        {
          "name": "",
          "type": "uint256"
        }
      ],
      "payable": false,
      "stateMutability": "view",
      "type": "function"
    },
    {
      "constant": true,
      "inputs": [
        {
          "name": "ccyTypeId",
          "type": "uint256"
        }
      ],
      "name": "getTotalWithdrawn",
      "outputs": [
        {
          "name": "",
          "type": "uint256"
        }
      ],
      "payable": false,
      "stateMutability": "view",
      "type": "function"
    },
    {
      "constant": false,
      "inputs": [
        {
          "name": "ccyTypeId",
          "type": "uint256"
        },
        {
          "name": "new_fee_ccyTx_Fixed",
          "type": "uint256"
        }
      ],
      "name": "setFee_CcyType_Fixed",
      "outputs": [],
      "payable": false,
      "stateMutability": "nonpayable",
      "type": "function"
    },
    {
      "constant": true,
      "inputs": [
        {
          "name": "ccyTypeId",
          "type": "uint256"
        }
      ],
      "name": "getTotalFunded",
      "outputs": [
        {
          "name": "",
          "type": "uint256"
        }
      ],
      "payable": false,
      "stateMutability": "view",
      "type": "function"
    },
    {
      "constant": true,
      "inputs": [],
      "name": "getCcyTypes",
      "outputs": [
        {
          "components": [
            {
              "components": [
                {
                  "name": "id",
                  "type": "uint256"
                },
                {
                  "name": "name",
                  "type": "string"
                },
                {
                  "name": "unit",
                  "type": "string"
                }
              ],
              "name": "ccyTypes",
              "type": "tuple[]"
            }
          ],
          "name": "",
          "type": "tuple"
        }
      ],
      "payable": false,
      "stateMutability": "view",
      "type": "function"
    },
    {
      "constant": false,
      "inputs": [
        {
          "name": "name",
          "type": "string"
        }
      ],
      "name": "addEeuType",
      "outputs": [],
      "payable": false,
      "stateMutability": "nonpayable",
      "type": "function"
    },
    {
      "constant": true,
      "inputs": [],
      "name": "version",
      "outputs": [
        {
          "name": "",
          "type": "string"
        }
      ],
      "payable": false,
      "stateMutability": "view",
      "type": "function"
    },
    {
      "constant": false,
      "inputs": [
        {
          "name": "eeuTypeId",
          "type": "uint256"
        },
        {
          "name": "new_fee_kgTx_Fixed",
          "type": "uint256"
        }
      ],
      "name": "setFee_EeuType_Fixed",
      "outputs": [],
      "payable": false,
      "stateMutability": "nonpayable",
      "type": "function"
    },
    {
      "constant": false,
      "inputs": [
        {
          "name": "eeuTypeId",
          "type": "uint256"
        },
        {
          "name": "qtyKG",
          "type": "int256"
        },
        {
          "name": "qtyEeus",
          "type": "int256"
        },
        {
          "name": "batchOwner",
          "type": "address"
        }
      ],
      "name": "mintEeuBatch",
      "outputs": [],
      "payable": false,
      "stateMutability": "nonpayable",
      "type": "function"
    },
    {
      "constant": false,
      "inputs": [
        {
          "name": "ledger_A",
          "type": "address"
        },
        {
          "name": "ledger_B",
          "type": "address"
        },
        {
          "name": "kg_A",
          "type": "uint256"
        },
        {
          "name": "eeuTypeId_A",
          "type": "uint256"
        },
        {
          "name": "kg_B",
          "type": "uint256"
        },
        {
          "name": "eeuTypeId_B",
          "type": "uint256"
        },
        {
          "name": "ccy_amount_A",
          "type": "int256"
        },
        {
          "name": "ccyTypeId_A",
          "type": "uint256"
        },
        {
          "name": "ccy_amount_B",
          "type": "int256"
        },
        {
          "name": "ccyTypeId_B",
          "type": "uint256"
        },
        {
          "name": "applyFees",
          "type": "bool"
        }
      ],
      "name": "transfer",
      "outputs": [],
      "payable": false,
      "stateMutability": "nonpayable",
      "type": "function"
    },
    {
      "constant": true,
      "inputs": [],
      "name": "getEeuTypes",
      "outputs": [
        {
          "components": [
            {
              "components": [
                {
                  "name": "id",
                  "type": "uint256"
                },
                {
                  "name": "name",
                  "type": "string"
                }
              ],
              "name": "eeuTypes",
              "type": "tuple[]"
            }
          ],
          "name": "",
          "type": "tuple"
        }
      ],
      "payable": false,
      "stateMutability": "view",
      "type": "function"
    },
    {
      "constant": true,
      "inputs": [
        {
          "name": "id",
          "type": "uint256"
        }
      ],
      "name": "getEeu",
      "outputs": [
        {
          "components": [
            {
              "name": "exists",
              "type": "bool"
            },
            {
              "name": "id",
              "type": "uint256"
            },
            {
              "name": "mintedKG",
              "type": "uint256"
            },
            {
              "name": "KG",
              "type": "uint256"
            },
            {
              "name": "batchId",
              "type": "uint256"
            }
          ],
          "name": "",
          "type": "tuple"
        }
      ],
      "payable": false,
      "stateMutability": "view",
      "type": "function"
    },
    {
      "constant": true,
      "inputs": [
        {
          "name": "account",
          "type": "address"
        }
      ],
      "name": "getLedgerEntry",
      "outputs": [
        {
          "components": [
            {
              "name": "exists",
              "type": "bool"
            },
            {
              "components": [
                {
                  "name": "eeuId",
                  "type": "uint256"
                },
                {
                  "name": "eeuTypeId",
                  "type": "uint256"
                },
                {
                  "name": "eeuTypeName",
                  "type": "string"
                },
                {
                  "name": "batchId",
                  "type": "uint256"
                },
                {
                  "name": "eeuKG",
                  "type": "uint256"
                }
              ],
              "name": "eeus",
              "type": "tuple[]"
            },
            {
              "name": "eeu_sumKG",
              "type": "uint256"
            },
            {
              "components": [
                {
                  "name": "typeId",
                  "type": "uint256"
                },
                {
                  "name": "name",
                  "type": "string"
                },
                {
                  "name": "unit",
                  "type": "string"
                },
                {
                  "name": "balance",
                  "type": "int256"
                }
              ],
              "name": "ccys",
              "type": "tuple[]"
            }
          ],
          "name": "",
          "type": "tuple"
        }
      ],
      "payable": false,
      "stateMutability": "view",
      "type": "function"
    },
    {
      "constant": true,
      "inputs": [
        {
          "name": "",
          "type": "uint256"
        }
      ],
      "name": "fee_ccyType_Fixed",
      "outputs": [
        {
          "name": "",
          "type": "uint256"
        }
      ],
      "payable": false,
      "stateMutability": "view",
      "type": "function"
    },
    {
      "constant": true,
      "inputs": [],
      "name": "getKgCarbonMinted",
      "outputs": [
        {
          "name": "",
          "type": "uint256"
        }
      ],
      "payable": false,
      "stateMutability": "view",
      "type": "function"
    },
    {
      "constant": true,
      "inputs": [],
      "name": "getLedgerOwners",
      "outputs": [
        {
          "name": "",
          "type": "address[]"
        }
      ],
      "payable": false,
      "stateMutability": "view",
      "type": "function"
    },
    {
      "constant": false,
      "inputs": [
        {
          "name": "ledgerOwner",
          "type": "address"
        },
        {
          "name": "eeuTypeId",
          "type": "uint256"
        },
        {
          "name": "qtyKG",
          "type": "int256"
        }
      ],
      "name": "retireCarbon",
      "outputs": [],
      "payable": false,
      "stateMutability": "nonpayable",
      "type": "function"
    },
    {
      "constant": true,
      "inputs": [],
      "name": "getKgCarbonBurned",
      "outputs": [
        {
          "name": "count",
          "type": "uint256"
        }
      ],
      "payable": false,
      "stateMutability": "view",
      "type": "function"
    },
    {
      "constant": true,
      "inputs": [],
      "name": "getTotalKgTransfered",
      "outputs": [
        {
          "name": "",
          "type": "uint256"
        }
      ],
      "payable": false,
      "stateMutability": "view",
      "type": "function"
    },
    {
      "constant": true,
      "inputs": [
        {
          "name": "ccyTypeId",
          "type": "uint256"
        }
      ],
      "name": "getTotalCcyTransfered",
      "outputs": [
        {
          "name": "",
          "type": "uint256"
        }
      ],
      "payable": false,
      "stateMutability": "view",
      "type": "function"
    },
    {
      "inputs": [],
      "payable": false,
      "stateMutability": "nonpayable",
      "type": "constructor"
    },
    {
      "anonymous": false,
      "inputs": [
        {
          "indexed": false,
          "name": "from",
          "type": "address"
        },
        {
          "indexed": false,
          "name": "to",
          "type": "address"
        },
        {
          "indexed": false,
          "name": "ccyTypeId",
          "type": "uint256"
        },
        {
          "indexed": false,
          "name": "amount",
          "type": "int256"
        }
      ],
      "name": "TransferedLedgerCcy",
      "type": "event"
    },
    {
      "anonymous": false,
      "inputs": [
        {
          "indexed": false,
          "name": "from",
          "type": "address"
        },
        {
          "indexed": false,
          "name": "to",
          "type": "address"
        },
        {
          "indexed": false,
          "name": "eeuId",
          "type": "uint256"
        },
        {
          "indexed": false,
          "name": "mergedToEeuId",
          "type": "uint256"
        },
        {
          "indexed": false,
          "name": "eeuTypeId",
          "type": "uint256"
        }
      ],
      "name": "TransferedFullEeu",
      "type": "event"
    },
    {
      "anonymous": false,
      "inputs": [
        {
          "indexed": false,
          "name": "from",
          "type": "address"
        },
        {
          "indexed": false,
          "name": "to",
          "type": "address"
        },
        {
          "indexed": false,
          "name": "splitFromEeuId",
          "type": "uint256"
        },
        {
          "indexed": false,
          "name": "newEeuId",
          "type": "uint256"
        },
        {
          "indexed": false,
          "name": "mergedToEeuId",
          "type": "uint256"
        },
        {
          "indexed": false,
          "name": "eeuTypeId",
          "type": "uint256"
        }
      ],
      "name": "TransferedPartialEeu",
      "type": "event"
    },
    {
      "anonymous": false,
      "inputs": [
        {
          "indexed": false,
          "name": "eeuTypeId",
          "type": "uint256"
        },
        {
          "indexed": false,
          "name": "new_fee_kgTx_Fixed",
          "type": "uint256"
        }
      ],
      "name": "SetFeeEeuTypeFixed",
      "type": "event"
    },
    {
      "anonymous": false,
      "inputs": [
        {
          "indexed": false,
          "name": "ccyTypeId",
          "type": "uint256"
        },
        {
          "indexed": false,
          "name": "new_fee_ccyTx_Fixed",
          "type": "uint256"
        }
      ],
      "name": "SetFeeCcyTypeFixed",
      "type": "event"
    },
    {
      "anonymous": false,
      "inputs": [
        {
          "indexed": false,
          "name": "ccyTypeId",
          "type": "uint256"
        },
        {
          "indexed": false,
          "name": "ledgerOwner",
          "type": "address"
        },
        {
          "indexed": false,
          "name": "amount",
          "type": "int256"
        }
      ],
      "name": "CcyWithdrewLedger",
      "type": "event"
    },
    {
      "anonymous": false,
      "inputs": [
        {
          "indexed": false,
          "name": "ccyTypeId",
          "type": "uint256"
        },
        {
          "indexed": false,
          "name": "ledgerOwner",
          "type": "address"
        },
        {
          "indexed": false,
          "name": "amount",
          "type": "int256"
        }
      ],
      "name": "CcyFundedLedger",
      "type": "event"
    },
    {
      "anonymous": false,
      "inputs": [
        {
          "indexed": false,
          "name": "eeuId",
          "type": "uint256"
        },
        {
          "indexed": false,
          "name": "eeuTypeId",
          "type": "uint256"
        },
        {
          "indexed": false,
          "name": "ledgerOwner",
          "type": "address"
        },
        {
          "indexed": false,
          "name": "burnedKG",
          "type": "uint256"
        }
      ],
      "name": "BurnedFullEeu",
      "type": "event"
    },
    {
      "anonymous": false,
      "inputs": [
        {
          "indexed": false,
          "name": "eeuId",
          "type": "uint256"
        },
        {
          "indexed": false,
          "name": "eeuTypeId",
          "type": "uint256"
        },
        {
          "indexed": false,
          "name": "ledgerOwner",
          "type": "address"
        },
        {
          "indexed": false,
          "name": "burnedKG",
          "type": "uint256"
        }
      ],
      "name": "BurnedPartialEeu",
      "type": "event"
    },
    {
      "anonymous": false,
      "inputs": [
        {
          "indexed": false,
          "name": "batchId",
          "type": "uint256"
        },
        {
          "indexed": false,
          "name": "eeuTypeId",
          "type": "uint256"
        },
        {
          "indexed": false,
          "name": "batchOwner",
          "type": "address"
        },
        {
          "indexed": false,
          "name": "qtyKG",
          "type": "uint256"
        },
        {
          "indexed": false,
          "name": "qtyEeus",
          "type": "uint256"
        }
      ],
      "name": "MintedEeuBatch",
      "type": "event"
    },
    {
      "anonymous": false,
      "inputs": [
        {
          "indexed": false,
          "name": "eeuId",
          "type": "uint256"
        },
        {
          "indexed": false,
          "name": "batchId",
          "type": "uint256"
        },
        {
          "indexed": false,
          "name": "eeuTypeId",
          "type": "uint256"
        },
        {
          "indexed": false,
          "name": "ledgerOwner",
          "type": "address"
        },
        {
          "indexed": false,
          "name": "mintedKG",
          "type": "uint256"
        }
      ],
      "name": "MintedEeu",
      "type": "event"
    },
    {
      "anonymous": false,
      "inputs": [
        {
          "indexed": false,
          "name": "id",
          "type": "uint256"
        },
        {
          "indexed": false,
          "name": "name",
          "type": "string"
        },
        {
          "indexed": false,
          "name": "unit",
          "type": "string"
        }
      ],
      "name": "AddedCcyType",
      "type": "event"
    },
    {
      "anonymous": false,
      "inputs": [
        {
          "indexed": false,
          "name": "id",
          "type": "uint256"
        },
        {
          "indexed": false,
          "name": "name",
          "type": "string"
        }
      ],
      "name": "AddedEeuType",
      "type": "event"
    }
  ],
  "bytecode": "0x60806040523480156200001157600080fd5b5060008054600160a060020a0319163317815560408051808201909152600681527f554e464343430000000000000000000000000000000000000000000000000000602080830191825292805260019092525162000091917fa6eef7e35abe7026729641147f7915573c7e97b47efa546f5f6e3230263bcb4991620003ea565b5060408051808201909152600381527f56435300000000000000000000000000000000000000000000000000000000006020808301918252600160008190529052905162000101917fcc69885fda6bcc1a4ace058b4a62bf5e179ea78fd58a1ccd71c22cc9b688792f91620003ea565b50600280556040805160608101825260008082528251808401845260038082527f555344000000000000000000000000000000000000000000000000000000000060208381019190915280850192835285518087018752600581527f63656e7473000000000000000000000000000000000000000000000000000000818301529585019590955291805290835281517f3617319a054d772f909f7c479a2cebe5066e836a939412e32403c99029b92eff9081559051805192939192620001eb927f3617319a054d772f909f7c479a2cebe5066e836a939412e32403c99029b92f00920190620003ea565b506040820151805162000209916002840191602090910190620003ea565b50506040805160608101825260018082528251808401845260038082527f4554480000000000000000000000000000000000000000000000000000000000602083810191909152808501928352855180870187528281527f5765690000000000000000000000000000000000000000000000000000000000818301529585019590955260009290925290835281517fa15bc60c955c405d20d9149c709e2460f1c2d9a497496a7f46004d1772c3054c908155905180519294509092620002f5927fa15bc60c955c405d20d9149c709e2460f1c2d9a497496a7f46004d1772c3054d9290910190620003ea565b506040820151805162000313916002840191602090910190620003ea565b50506002600455506040805180820190915260058082527f302e302e3600000000000000000000000000000000000000000000000000000060209092019182526200036191601591620003ea565b506040805160208082018352600180835260008054600160a060020a039081168252600e9093529384209251835490151560ff19909116179092558254600f805493840181559093527f8d1108e10bcb7c27dddfc02ed9d693a074039d026cf4ea4240b40f7d581ac8029091018054600160a060020a031916929091169190911790556200048f565b828054600181600116156101000203166002900490600052602060002090601f016020900481019282601f106200042d57805160ff19168380011785556200045d565b828001600101855582156200045d579182015b828111156200045d57825182559160200191906001019062000440565b506200046b9291506200046f565b5090565b6200048c91905b808211156200046b576000815560010162000476565b90565b613960806200049f6000396000f3fe608060405234801561001057600080fd5b506004361061018b576000357c010000000000000000000000000000000000000000000000000000000090048063629e38f6116100eb578063b08a9c89116100a4578063b08a9c8914610328578063ba0138cb1461033b578063bcc376c614610343578063c7e60f9f14610358578063e3f64b351461036b578063e87b886c14610373578063e9b85fd31461037b5761018b565b8063629e38f61461029a57806370f753de146102ad578063829839a0146102c0578063963030df146102d35780639ce9a4a6146102e8578063a89a8884146103085761018b565b80633846d448116101485780633846d4481461021c5780633e726e051461022457806343492c1714610237578063448d74381461024a5780634dc26ae81461025d57806351664b261461027257806354fd4d50146102855761018b565b806305522b00146101905780630722a4ee146101b95780630834e864146101d95780630b503ab7146101ee57806319b67615146102015780633368402b14610209575b600080fd5b6101a361019e3660046126f8565b61038e565b6040516101b091906136ca565b60405180910390f35b6101cc6101c73660046126f8565b6103a0565b6040516101b0919061367b565b6101ec6101e736600461268f565b6103f7565b005b6101ec6101fc366004612716565b610570565b6101a36106e8565b6101ec610217366004612716565b6106ef565b6101a3610873565b6101a36102323660046126f8565b6108a8565b6101ec6102453660046127ba565b6108e9565b6101a36102583660046126f8565b610989565b6102656109ca565b6040516101b09190613697565b6101ec61028036600461265a565b610bb4565b61028d610cdb565b6040516101b0919061350a565b6101ec6102a83660046127ba565b610d69565b6101ec6102bb366004612759565b610dfd565b6101ec6102ce36600461251f565b611105565b6102db611382565b6040516101b091906136a8565b6102fb6102f63660046126f8565b6114a0565b6040516101b09190613689565b61031b6103163660046124f9565b6114fc565b6040516101b091906136b9565b6101a36103363660046126f8565b611994565b6101a36119a6565b61034b6119db565b6040516101b091906134f9565b6101ec61036636600461260d565b611a6b565b6101a3611cfa565b6101a3611d2f565b6101a36103893660046126f8565b611d64565b60136020526000908152604090205481565b6103a861228e565b50600090815260056020908152604091829020825160a0810184528154815260018201549281019290925260028101549282019290925260038201546060820152600490910154608082015290565b600054600160a060020a0316331461042d5760405160e560020a62461bcd028152600401610424906135cb565b60405180910390fd5b60005b6004548110156104bf578260405160200161044b91906133c4565b60408051601f1981840301815282825280516020918201206000858152600383529290922091926104809260010191016133d0565b6040516020818303038152906040528051906020012014156104b75760405160e560020a62461bcd028152600401610424906135eb565b600101610430565b5060408051606081018252600454808252602080830186815283850186905260009283526003825293909120825181559251805192939261050692600185019201906122bd565b50604082015180516105229160028401916020909101906122bd565b509050507f41c4a4be5d1fed810ab0ace2ffe78022538a72356773c24ed010e06bdf6454b7600454838360405161055b93929190613720565b60405180910390a15050600480546001019055565b600054600160a060020a0316331461059d5760405160e560020a62461bcd028152600401610424906135cb565b60045483106105c15760405160e560020a62461bcd028152600401610424906135bb565b600082136105e45760405160e560020a62461bcd0281526004016104249061360b565b600160a060020a0381166000908152600e602052604090205460ff1615156001146106245760405160e560020a62461bcd0281526004016104249061352b565b600160a060020a0381166000908152600e6020908152604080832086845260020190915290205482131561066d5760405160e560020a62461bcd0281526004016104249061359b565b600160a060020a0381166000908152600e60209081526040808320868452600201825280832080548690039055601190915290819020805484019055517fbc646e7e255ad4c6743251f213af7cae7d0cecfbf159c99ded6b6d7f85666a3f906106db908590849086906136d8565b60405180910390a1505050565b6006545b90565b600054600160a060020a0316331461071c5760405160e560020a62461bcd028152600401610424906135cb565b60045483106107405760405160e560020a62461bcd028152600401610424906135bb565b60008212156107645760405160e560020a62461bcd0281526004016104249061356b565b600160a060020a0381166000908152600e602052604090205460ff166108065760408051602080820183526001808352600160a060020a0385166000818152600e9093529382209251835460ff191690151517909255600f8054928301815590527f8d1108e10bcb7c27dddfc02ed9d693a074039d026cf4ea4240b40f7d581ac80201805473ffffffffffffffffffffffffffffffffffffffff191690911790555b600160a060020a0381166000908152600e602090815260408083208684526002018252808320805486019055601090915290819020805484019055517fbf9c9c4358c50927dd4152801ee5586a421fee0e6dd1c019635a6c4d0af91587906106db908590849086906136d8565b60008054600160a060020a031633146108a15760405160e560020a62461bcd028152600401610424906135cb565b50600d5490565b60008054600160a060020a031633146108d65760405160e560020a62461bcd028152600401610424906135cb565b5060009081526011602052604090205490565b600054600160a060020a031633146109165760405160e560020a62461bcd028152600401610424906135cb565b600454821061093a5760405160e560020a62461bcd028152600401610424906135bb565b60008281526014602052604090819020829055517fa411126980623a59f4c6fcdd0b7aec89ee96cc58daa4afdedbcbb2f0d369c8469061097d9084908490613754565b60405180910390a15050565b60008054600160a060020a031633146109b75760405160e560020a62461bcd028152600401610424906135cb565b5060009081526010602052604090205490565b6109d261233b565b6060600454604051908082528060200260200182016040528015610a1057816020015b6109fd61234e565b8152602001906001900390816109f55790505b50905060005b600454811015610b9757604080516060810182526000838152600360208181528483208054855292869052908152600191820180548551600294821615610100026000190190911693909304601f810183900483028401830190955284835292938185019391830182828015610acd5780601f10610aa257610100808354040283529160200191610acd565b820191906000526020600020905b815481529060010190602001808311610ab057829003601f168201915b50505091835250506000838152600360209081526040918290206002908101805484516001821615610100026000190190911692909204601f81018490048402830184019094528382529382019390929091830182828015610b705780601f10610b4557610100808354040283529160200191610b70565b820191906000526020600020905b815481529060010190602001808311610b5357829003601f168201915b5050505050815250828281518110610b8457fe5b6020908102919091010152600101610a16565b50610ba061233b565b506040805160208101909152908152905090565b600054600160a060020a03163314610be15760405160e560020a62461bcd028152600401610424906135cb565b60005b600254811015610c705781604051602001610bff91906133c4565b60408051601f198184030181528282528051602091820120600085815260018352929092209192610c319291016133d0565b604051602081830303815290604052805190602001201415610c685760405160e560020a62461bcd0281526004016104249061366b565b600101610be4565b5060025460009081526001602090815260409091208251610c93928401906122bd565b507ff42a31d05ee5f17e0f159b94b9402293e9cf2265c806b4a55168aeaa3fe275e260025482604051610cc7929190613700565b60405180910390a150600280546001019055565b6015805460408051602060026001851615610100026000190190941693909304601f81018490048402820184019092528181529291830182828015610d615780601f10610d3657610100808354040283529160200191610d61565b820191906000526020600020905b815481529060010190602001808311610d4457829003601f168201915b505050505081565b600054600160a060020a03163314610d965760405160e560020a62461bcd028152600401610424906135cb565b6002548210610dba5760405160e560020a62461bcd0281526004016104249061358b565b60008281526013602052604090819020829055517fab885df8e6a2b16204165083f0949734dd341e6b0fa8657e00a20a3c5d9fea1b9061097d9084908490613754565b600054600160a060020a03163314610e2a5760405160e560020a62461bcd028152600401610424906135cb565b6002548410610e4e5760405160e560020a62461bcd0281526004016104249061358b565b81600114610e715760405160e560020a62461bcd028152600401610424906135db565b6103e8831215610e965760405160e560020a62461bcd0281526004016104249061362b565b818381610e9f57fe5b0715610ec05760405160e560020a62461bcd0281526004016104249061361b565b610ec861228e565b506040805160a0810182526006805460019081018084524260208086019182528587018b8152606087018b81526000608089018181529581526005909352918890208751808255935181870155905160028201559051600382015591516004909201919091558254909101909155915190917f3b2a5f1232ad8fb6334d75c56a235d50209dc23e6b0b51325b2e98e17a6ffc3d91610f6e91908890869089908990613797565b60405180910390a1600160a060020a0382166000908152600e602052604090205460ff166110185760408051602080820183526001808352600160a060020a0386166000818152600e9093529382209251835460ff191690151517909255600f8054928301815590527f8d1108e10bcb7c27dddfc02ed9d693a074039d026cf4ea4240b40f7d581ac80201805473ffffffffffffffffffffffffffffffffffffffff191690911790555b60005b838112156110ec57600d548101600101600085878161103657fe5b8551600085815260076020908152604080832093909355600881528282209490930493849055600990925290819020829055855190519192507fbdf1b0fbadd676a593dc51c25399111b5cf1795fd1315c7545271c18c1b265cd916110a29185918c908a9087906137cc565b60405180910390a150600160a060020a0384166000908152600e602090815260408083208a845260019081018352908320805480830182559084529190922001919091550161101b565b5050600d805490920190915550600a8054909101905550565b600054600160a060020a031633146111325760405160e560020a62461bcd028152600401610424906135cb565b600160a060020a038b166000908152600e602052604090205460ff1615156001146111725760405160e560020a62461bcd0281526004016104249061351b565b600160a060020a038a166000908152600e602052604090205460ff1615156001146111b25760405160e560020a62461bcd0281526004016104249061355b565b60008911806111c15750600087115b806111cc5750600085135b806111d75750600083135b6111f65760405160e560020a62461bcd0281526004016104249061353b565b60008512806112055750600083125b156112255760405160e560020a62461bcd028152600401610424906135fb565b6000891180156112355750600085135b8061124b575060008711801561124b5750600083135b1561126b5760405160e560020a62461bcd0281526004016104249061363b565b6112768b898b611da5565b151560011461129a5760405160e560020a62461bcd028152600401610424906135ab565b6112a58a8789611da5565b15156001146112c95760405160e560020a62461bcd0281526004016104249061364b565b6112d48b8587611e48565b15156001146112f85760405160e560020a62461bcd0281526004016104249061354b565b6113038a8385611e48565b15156001146113275760405160e560020a62461bcd0281526004016104249061357b565b600085131561133c5761133c8b8b8688611e76565b6000831315611351576113518a8c8486611e76565b8815611363576113638b8b8a8c611f12565b8615611375576113758a8c888a611f12565b5050505050505050505050565b61138a61233b565b60606002546040519080825280602002602001820160405280156113c857816020015b6113b561236f565b8152602001906001900390816113ad5790505b50905060005b600254811015610b97576040805180820182528281526000838152600160208181529184902080548551600293821615610100026000190190911692909204601f810184900484028301840190955284825292938285019391928301828280156114795780601f1061144e57610100808354040283529160200191611479565b820191906000526020600020905b81548152906001019060200180831161145c57829003601f168201915b505050505081525082828151811061148d57fe5b60209081029190910101526001016113ce565b6114a8612389565b506040805160a0810182526000838152600760208181528483205480151585528185018790528684526008825285842054858701528684526009825294832054606085015294909152909252608082015290565b6115046123ba565b606080600080805b60025481101561154b57600160a060020a0387166000908152600e6020908152604080832084845260019081019092529091205492909201910161150c565b508060405190808252806020026020018201604052801561158657816020015b6115736123e4565b81526020019060019003908161156b5790505b5093506000805b60025481101561174657600160a060020a0388166000908152600e6020908152604080832084845260010182529182902080548351818402810184019094528084526060939283018282801561160257602002820191906000526020600020905b8154815260200190600101908083116115ee575b50939450600093505050505b815181101561173c57600082828151811061162557fe5b602090810291909101810151600081815260098352604080822054815160a0810183528481528086018a905289845260018087529383902080548451600296821615610100026000190190911695909504601f810188900488028601880185528086529d9092019c949650949185019390918301828280156116e85780601f106116bd576101008083540402835291602001916116e8565b820191906000526020600020905b8154815290600101906020018083116116cb57829003601f168201915b5050509183525050600083815260076020908152604080832054828501528583526009909152908190205491015289518a908790811061172457fe5b6020908102919091010152506001938401930161160e565b505060010161158d565b5060045460405190808252806020026020018201604052801561178357816020015b611770612413565b8152602001906001900390816117685790505b50935060005b600454811015611944576040518060800160405280828152602001600360008481526020019081526020016000206001018054600181600116156101000203166002900480601f01602080910402602001604051908101604052809291908181526020018280546001816001161561010002031660029004801561184e5780601f106118235761010080835404028352916020019161184e565b820191906000526020600020905b81548152906001019060200180831161183157829003601f168201915b50505091835250506000838152600360209081526040918290206002908101805484516001821615610100026000190190911692909204601f810184900484028301840190945283825293820193909290918301828280156118f15780601f106118c6576101008083540402835291602001916118f1565b820191906000526020600020905b8154815290600101906020018083116118d457829003601f168201915b5050509183525050600160a060020a038a166000908152600e60209081526040808320868452600201825290912054910152855186908390811061193157fe5b6020908102919091010152600101611789565b5061194d6123ba565b505060408051608081018252600160a060020a0388166000908152600e6020908152908390205460ff16151582528101959095528401919091525060608201529050919050565b60146020526000908152604090205481565b60008054600160a060020a031633146119d45760405160e560020a62461bcd028152600401610424906135cb565b50600a5490565b600054606090600160a060020a03163314611a0b5760405160e560020a62461bcd028152600401610424906135cb565b600f805480602002602001604051908101604052809291908181526020018280548015611a6157602002820191906000526020600020905b8154600160a060020a03168152600190910190602001808311611a43575b5050505050905090565b600054600160a060020a03163314611a985760405160e560020a62461bcd028152600401610424906135cb565b600160a060020a0383166000908152600e602052604090205460ff161515600114611ad85760405160e560020a62461bcd0281526004016104249061352b565b6103e8811215611afd5760405160e560020a62461bcd0281526004016104249061362b565b6002548210611b215760405160e560020a62461bcd0281526004016104249061358b565b611b2c838383611da5565b1515600114611b505760405160e560020a62461bcd0281526004016104249061365b565b6000815b8015611ceb57600160a060020a0385166000908152600e6020908152604080832087845260010190915281208054909190829085908110611b9157fe5b60009182526020808320909101548083526009825260408084205460079093529092205491925090818510611c7457600083815260096020526040812055835484906000198101908110611be157fe5b9060005260206000200154848781548110611bf857fe5b6000918252602090912001558354611c1485600019830161243b565b50600081815260056020526040908190206004018054840190555194829003947ff214be5dc9cf391efd4738b59af95842784d47fd41a2b9057df440d144f3c67d90611c679085908b908d90879061376f565b60405180910390a1611ce2565b600083815260096020908152604080832080548990039055838352600590915290819020600401805487019055517fe304852108e009cdefa218a22b44f9a1f921fb5692ead9b6fb815d388e24869f90611cd59085908b908d908a9061376f565b60405180910390a1600094505b50505050611b54565b5050600b805490910190555050565b60008054600160a060020a03163314611d285760405160e560020a62461bcd028152600401610424906135cb565b50600b5490565b60008054600160a060020a03163314611d5d5760405160e560020a62461bcd028152600401610424906135cb565b50600c5490565b60008054600160a060020a03163314611d925760405160e560020a62461bcd028152600401610424906135cb565b5060009081526012602052604090205490565b600080805b600160a060020a0386166000908152600e60209081526040808320888452600101909152902054811015611e3a57600160a060020a0386166000908152600e6020908152604080832088845260010190915281208054600992919084908110611e0f57fe5b9060005260206000200154815260200190815260200160002054820191508080600101915050611daa565b5082111590505b9392505050565b600160a060020a03929092166000908152600e60209081526040808320938352600290930190522054121590565b600160a060020a038085166000908152600e602081815260408084208785526002908101835281852080548890039055948816845291815281832086845290930183528082208054850190556012909252819020805483019055517f84fefdcd41e7655d9681d6df648b41c6d93853951da1b10ad434fcea00fbd6d190611f049086908690869086906133dc565b60405180910390a150505050565b6000815b801561227e57600160a060020a038087166000908152600e6020818152604080842089855260019081018352818520958b168552928252808420898552909201905281208254909190839086908110611f6b57fe5b6000918252602080832090910154808352600990915260409091205490915080851061203757835484906000198101908110611fa357fe5b9060005260206000200154848781548110611fba57fe5b6000918252602090912001558354611fd685600019830161243b565b5082546001810184556000848152602081209091018390556040517f4dd67c0d2d6c24f530078a5bbf15da227fa94f864c3972dedd57c09d08e729ed91612025918d918d918791908e90613411565b60405180910390a18085039450612275565b6000805b845481101561215f5760076000858152602001908152602001600020546007600087848154811061206857fe5b9060005260206000200154815260200190815260200160002054141561215757866009600087848154811061209957fe5b906000526020600020015481526020019081526020016000206000828254019250508190555086600860008784815481106120d057fe5b9060005260206000200154815260200190815260200160002060008282540192505081905550600191507f1653cd545a5ccf5e3c0fdc2847e305f5e5ec5f6036337b0c96dab0a78a0386778c8c86600089868154811061212c57fe5b90600052602060002001548f60405161214a9695949392919061345d565b60405180910390a161215f565b60010161203b565b508061224b576000600d5460010190506007600085815260200190815260200160002054600760008381526020019081526020016000208190555086600960008381526020019081526020016000208190555086600860008381526020019081526020016000208190555084819080600181540180825580915050906001820390600052602060002001600090919290919091505550600d600081548092919060010191905055507f1653cd545a5ccf5e3c0fdc2847e305f5e5ec5f6036337b0c96dab0a78a0386778c8c868460008f604051612241969594939291906134b7565b60405180910390a1505b50600082815260096020908152604080832080548990039055600890915281208054969096039095555b50505050611f16565b5050600c80549091019055505050565b6040518060a0016040528060008152602001600081526020016000815260200160008152602001600081525090565b828054600181600116156101000203166002900490600052602060002090601f016020900481019282601f106122fe57805160ff191683800117855561232b565b8280016001018555821561232b579182015b8281111561232b578251825591602001919060010190612310565b50612337929150612464565b5090565b6040518060200160405280606081525090565b60405180606001604052806000815260200160608152602001606081525090565b604051806040016040528060008152602001606081525090565b6040518060a00160405280600015158152602001600081526020016000815260200160008152602001600081525090565b60405180608001604052806000151581526020016060815260200160008152602001606081525090565b6040518060a0016040528060008152602001600081526020016060815260200160008152602001600081525090565b6040518060800160405280600081526020016060815260200160608152602001600081525090565b81548183558181111561245f5760008381526020902061245f918101908301612464565b505050565b6106ec91905b80821115612337576000815560010161246a565b8035612489816138dd565b92915050565b8035612489816138f4565b8035612489816138fd565b600082601f8301126124b657600080fd5b81356124c96124c482613828565b613801565b915080825260208301602083018583830111156124e557600080fd5b6124f083828461389b565b50505092915050565b60006020828403121561250b57600080fd5b6000612517848461247e565b949350505050565b60008060008060008060008060008060006101608c8e03121561254157600080fd5b600061254d8e8e61247e565b9b5050602061255e8e828f0161247e565b9a5050604061256f8e828f0161249a565b99505060606125808e828f0161249a565b98505060806125918e828f0161249a565b97505060a06125a28e828f0161249a565b96505060c06125b38e828f0161249a565b95505060e06125c48e828f0161249a565b9450506101006125d68e828f0161249a565b9350506101206125e88e828f0161249a565b9250506101406125fa8e828f0161248f565b9150509295989b509295989b9093969950565b60008060006060848603121561262257600080fd5b600061262e868661247e565b935050602061263f8682870161249a565b92505060406126508682870161249a565b9150509250925092565b60006020828403121561266c57600080fd5b813567ffffffffffffffff81111561268357600080fd5b612517848285016124a5565b600080604083850312156126a257600080fd5b823567ffffffffffffffff8111156126b957600080fd5b6126c5858286016124a5565b925050602083013567ffffffffffffffff8111156126e257600080fd5b6126ee858286016124a5565b9150509250929050565b60006020828403121561270a57600080fd5b6000612517848461249a565b60008060006060848603121561272b57600080fd5b6000612737868661249a565b93505060206127488682870161249a565b92505060406126508682870161247e565b6000806000806080858703121561276f57600080fd5b600061277b878761249a565b945050602061278c8782880161249a565b935050604061279d8782880161249a565b92505060606127ae8782880161247e565b91505092959194509250565b600080604083850312156127cd57600080fd5b60006127d9858561249a565b92505060206126ee8582860161249a565b60006127f6838361282e565b505060200190565b6000611e418383613182565b6000611e418383613245565b6000611e4183836132a1565b6000611e418383613304565b61283781613874565b82525050565b600061284882613862565b6128528185613866565b935061285d83613850565b8060005b8381101561288b57815161287588826127ea565b975061288083613850565b925050600101612861565b509495945050505050565b60006128a182613862565b6128ab8185613866565b9350836020820285016128bd85613850565b8060005b858110156128f757848403895281516128da85826127fe565b94506128e583613850565b60209a909a01999250506001016128c1565b5091979650505050505050565b600061290f82613862565b6129198185613866565b93508360208202850161292b85613850565b8060005b858110156128f75784840389528151612948858261280a565b945061295383613850565b60209a909a019992505060010161292f565b600061297082613862565b61297a8185613866565b93508360208202850161298c85613850565b8060005b858110156128f757848403895281516129a98582612816565b94506129b483613850565b60209a909a0199925050600101612990565b60006129d182613862565b6129db8185613866565b9350836020820285016129ed85613850565b8060005b858110156128f75784840389528151612a0a8582612822565b9450612a1583613850565b60209a909a01999250506001016129f1565b6128378161387f565b612837816106ec565b61283781613890565b6000612a4d82613862565b612a578185613866565b9350612a678185602086016138a7565b612a70816138d3565b9093019392505050565b6000612a8582613862565b612a8f818561386f565b9350612a9f8185602086016138a7565b9290920192915050565b600081546001811660008114612ac65760018114612ae957612b28565b607f6002830416612ad7818761386f565b60ff1984168152955085019250612b28565b60028204612af7818761386f565b9550612b0285613856565b60005b82811015612b2157815488820152600190910190602001612b05565b5050850192505b505092915050565b6000612b3d601683613866565b7f496e76616c6964206c6564676572206f776e6572204100000000000000000000815260200192915050565b6000612b76601483613866565b7f496e76616c6964206c6564676572206f776e6572000000000000000000000000815260200192915050565b6000612baf601083613866565b7f496e76616c6964207472616e7366657200000000000000000000000000000000815260200192915050565b6000612be8602c83613866565b7f496e73756666696369656e742063757272656e63792068656c64206279206c6581527f64676572206f776e657220410000000000000000000000000000000000000000602082015260400192915050565b6000612c47601683613866565b7f496e76616c6964206c6564676572206f776e6572204200000000000000000000815260200192915050565b6000612c80600e83613866565b7f496e76616c696420616d6f756e74000000000000000000000000000000000000815260200192915050565b6000612cb9602c83613866565b7f496e73756666696369656e742063757272656e63792068656c64206279206c6581527f64676572206f776e657220420000000000000000000000000000000000000000602082015260400192915050565b6000612d18601083613866565b7f496e76616c696420454555207479706500000000000000000000000000000000815260200192915050565b6000612d51602183613866565b7f496e73756666696369656e74206c6564676572206f776e65722062616c616e6381527f6500000000000000000000000000000000000000000000000000000000000000602082015260400192915050565b6000612db0602a83613866565b60008051602061390783398151915281527f6572206f776e6572204100000000000000000000000000000000000000000000602082015260400192915050565b6000612dfd601583613866565b7f496e76616c69642063757272656e637920747970650000000000000000000000815260200192915050565b6000612e36601183613866565b7f52657374726963746564206d6574686f64000000000000000000000000000000815260200192915050565b6000612e6f601883613866565b7f45786163746c79206f6e65204545552072657175697265640000000000000000815260200192915050565b6000612ea8602183613866565b7f43757272656e63792074797065206e616d6520616c726561647920657869737481527f7300000000000000000000000000000000000000000000000000000000000000602082015260400192915050565b6000612f07601883613866565b7f496e76616c69642063757272656e637920616d6f756e74730000000000000000815260200192915050565b6000612f40602283613866565b7f4d696e696d756d206f6e652063757272656e637920756e69742072657175697281527f6564000000000000000000000000000000000000000000000000000000000000602082015260400192915050565b6000612f9f602a83613866565b7f436172626f6e20776569676874206d75737420646976696465206576656e6c7981527f20696e746f204545557300000000000000000000000000000000000000000000602082015260400192915050565b6000612ffe602983613866565b7f4d696e696d756d206f6e65206d657472696320746f6e206f6620636172626f6e81527f2072657175697265640000000000000000000000000000000000000000000000602082015260400192915050565b600061305d602783613866565b7f53696e676c652d6f726967696e206d756c7469706c652061737365742064697381527f616c6c6f77656400000000000000000000000000000000000000000000000000602082015260400192915050565b60006130bc602a83613866565b60008051602061390783398151915281527f6572206f776e6572204200000000000000000000000000000000000000000000602082015260400192915050565b6000613109602883613866565b60008051602061390783398151915281527f6572206f776e6572000000000000000000000000000000000000000000000000602082015260400192915050565b6000613156601c83613866565b7f4545552074797065206e616d6520616c72656164792065786973747300000000815260200192915050565b805160009060608401906131968582612a30565b50602083015184820360208601526131ae8282612a42565b915050604083015184820360408601526131c88282612a42565b95945050505050565b805160a08301906131e28482612a30565b5060208201516131f56020850182612a30565b5060408201516132086040850182612a30565b50606082015161321b6060850182612a30565b50608082015161322e6080850182612a30565b50505050565b805160a08301906131e28482612a27565b805160009060408401906132598582612a30565b50602083015184820360208601526131c88282612a42565b80516020808452600091908401906131c88282612896565b80516020808452600091908401906131c88282612904565b805160009060808401906132b58582612a30565b50602083015184820360208601526132cd8282612a42565b915050604083015184820360408601526132e78282612a42565b91505060608301516132fc6060860182612a30565b509392505050565b805160009060a08401906133188582612a30565b50602083015161332b6020860182612a30565b50604083015184820360408601526133438282612a42565b91505060608301516133586060860182612a30565b5060808301516132fc6080860182612a30565b8051600090608084019061337f8582612a27565b506020830151848203602086015261339782826129c6565b91505060408301516133ac6040860182612a30565b50606083015184820360608601526131c88282612965565b6000611e418284612a7a565b6000611e418284612aa9565b608081016133ea828761282e565b6133f7602083018661282e565b6134046040830185612a30565b6131c86060830184612a30565b60a0810161341f828861282e565b61342c602083018761282e565b6134396040830186612a30565b6134466060830185612a39565b6134536080830184612a30565b9695505050505050565b60c0810161346b828961282e565b613478602083018861282e565b6134856040830187612a30565b6134926060830186612a39565b61349f6080830185612a30565b6134ac60a0830184612a30565b979650505050505050565b60c081016134c5828961282e565b6134d2602083018861282e565b6134df6040830187612a30565b6134ec6060830186612a30565b61349f6080830185612a39565b60208082528101611e41818461283d565b60208082528101611e418184612a42565b6020808252810161248981612b30565b6020808252810161248981612b69565b6020808252810161248981612ba2565b6020808252810161248981612bdb565b6020808252810161248981612c3a565b6020808252810161248981612c73565b6020808252810161248981612cac565b6020808252810161248981612d0b565b6020808252810161248981612d44565b6020808252810161248981612da3565b6020808252810161248981612df0565b6020808252810161248981612e29565b6020808252810161248981612e62565b6020808252810161248981612e9b565b6020808252810161248981612efa565b6020808252810161248981612f33565b6020808252810161248981612f92565b6020808252810161248981612ff1565b6020808252810161248981613050565b60208082528101612489816130af565b60208082528101612489816130fc565b6020808252810161248981613149565b60a0810161248982846131d1565b60a081016124898284613234565b60208082528101611e418184613271565b60208082528101611e418184613289565b60208082528101611e41818461336b565b602081016124898284612a30565b606081016136e68286612a30565b6136f3602083018561282e565b6125176040830184612a30565b6040810161370e8285612a30565b81810360208301526125178184612a42565b6060810161372e8286612a30565b81810360208301526137408185612a42565b905081810360408301526131c88184612a42565b604081016137628285612a30565b611e416020830184612a30565b6080810161377d8287612a30565b61378a6020830186612a30565b613404604083018561282e565b60a081016137a58288612a30565b6137b26020830187612a30565b6137bf604083018661282e565b6134466060830185612a30565b60a081016137da8288612a30565b6137e76020830187612a30565b6137f46040830186612a30565b613446606083018561282e565b60405181810167ffffffffffffffff8111828210171561382057600080fd5b604052919050565b600067ffffffffffffffff82111561383f57600080fd5b506020601f91909101601f19160190565b60200190565b60009081526020902090565b5190565b90815260200190565b919050565b600061248982613884565b151590565b600160a060020a031690565b6000612489826106ec565b82818337506000910152565b60005b838110156138c25781810151838201526020016138aa565b8381111561322e5750506000910152565b601f01601f191690565b6138e681613874565b81146138f157600080fd5b50565b6138e68161387f565b6138e6816106ec56fe496e73756666696369656e7420636172626f6e2068656c64206279206c656467a265627a7a723058201b85894fdbd063838b8e573935a5c4201ea9b34449c8a131d4c06c2c5149e06f6c6578706572696d656e74616cf50037",
  "source": "pragma solidity 0.5.8;\npragma experimental ABIEncoderV2;\n\nimport \"./EeuMintable.sol\";\nimport \"./EeuBurnable.sol\";\nimport \"./CcyFundable.sol\";\nimport \"./CcyWithdrawable.sol\";\nimport \"./EeuTransferable.sol\";\n\ncontract AcMaster is EeuMintable, EeuBurnable, CcyFundable, CcyWithdrawable, EeuTransferable {\n    string public version;\n\n    /**\n     * ctor\n     */\n    constructor() public {\n        version = \"0.0.6\";\n\n         // create ledger entry for contract owner - transfer fees are paid to this ledger entry\n        _ledger[owner] = Ledger({\n            exists: true\n        });\n        _ledgerOwners.push(owner);\n    }\n}\n",
  "sourcePath": "/Users/dom/ac/ac-monorepo/packages/erc20/contracts/AcMaster/AcMaster.sol",
  "compiler": {
    "name": "solc",
    "version": "0.5.8+commit.23d335f2.Emscripten.clang"
  },
  "schemaVersion": "3.0.11",
  "updatedAt": "2019-08-16T17:55:49.717Z",
  "devdoc": {
    "methods": {
      "addCcyType(string,string)": {
        "details": "Adds a new currency type",
        "params": {
          "name": "The new currency type name",
          "unit": "The base unit of the new currency type"
        }
      },
      "addEeuType(string)": {
        "details": "Adds a new EEU type",
        "params": {
          "name": "The new EEU type name"
        }
      },
      "fund(uint256,int256,address)": {
        "details": "Funds a ledger entry with a currency amount",
        "params": {
          "amount": "The mount of the currency to fund, in currency base units",
          "ccyTypeId": "The currency type ID",
          "ledgerOwner": "The ledger owner to fund"
        }
      },
      "getCcyTypes()": {
        "details": "Returns current currency types"
      },
      "getEeu(uint256)": {
        "details": "Returns an EEU by ID"
      },
      "getEeuBatch(uint256)": {
        "details": "Returns an EEU batch by ID"
      },
      "getEeuBatchCount()": {
        "details": "Returns the global EEU batch count"
      },
      "getEeuMintedCount()": {
        "details": "Returns the total global number of EEUs minted"
      },
      "getEeuTypes()": {
        "details": "Returns current EEU types"
      },
      "getKgCarbonBurned()": {
        "details": "Returns the total global tonnage of carbon burned"
      },
      "getKgCarbonMinted()": {
        "details": "Returns the total global tonnage of carbon minted"
      },
      "getLedgerEntry(address)": {
        "details": "Returns the ledger entry for a single account"
      },
      "getLedgerOwners()": {
        "details": "Returns all accounts in the ledger"
      },
      "getTotalCcyTransfered(uint256)": {
        "details": "Returns the total global currency amount transfered for the supplied currency"
      },
      "getTotalFunded(uint256)": {
        "details": "Returns the total global amount funded for the supplied currency"
      },
      "getTotalKgTransfered()": {
        "details": "Returns the total global tonnage of carbon transfered"
      },
      "getTotalWithdrawn(uint256)": {
        "details": "Returns the total global amount withdrawn for the supplied currency"
      },
      "mintEeuBatch(uint256,int256,int256,address)": {
        "details": "Mints and assigns initial ownership of a new EEU batch",
        "params": {
          "batchOwner": "The ledger owner to assign the minted EEUs to",
          "eeuTypeId": "The EEU-type for the batch",
          "qtyEeus": "The quantity of EEUs to mint - recommended, due to memory & gas cost, always set to 1",
          "qtyKG": "The KG quanity of carbon to mint across the EEUs"
        }
      },
      "retireCarbon(address,uint256,int256)": {
        "details": "Burns carbons by resizing EEUs, and/or removing EEUs from the ledgerRemoves EEUs (or fractions thereof) from the main list and from the ledger, resizing as necessaryThe supplied ledger owner must hold the supplied quantity of carbon in aggregate across ledger EEUs, and of the supplied type",
        "params": {
          "eeuTypeId": "The EEU type to burn",
          "ledgerOwner": "The ledger owner to burn",
          "qtyKG": "The tonnage to burn"
        }
      },
      "transfer(address,address,uint256,uint256,uint256,uint256,int256,uint256,int256,uint256,bool)": {
        "details": "Transfers or trades assets between ledger accountsallows: one-sided transfers, allows transfers of same asset types and transfers (trades) of different asset typesdisallows: movement from a single origin of more than one asset-typeoptionally applies: fees per current fee structure, paying fees to contract owner's ledger entry",
        "params": {
          "applyFees": "Whether or not to apply fees (both legs) per contract current fee structure     * fees TODO: both sides - fixed value or % value FEE - with system/exchange account passed in as receiver      take fees (both sides possibly) before applying main transfer      throw if insufficient to cover fees",
          "ccyTypeId_A": "The currency type to move from A to B",
          "ccyTypeId_B": "The currency type to move from B to A",
          "ccy_amount_A": "The amount of currency to move from A to B",
          "ccy_amount_B": "The amount of currency to move from B to A",
          "eeuTypeId_A": "The EEU type to move from A to B",
          "eeuTypeId_B": "The EEU type to move from A to B",
          "kg_A": "The KG quantity of carbon to move from A to B",
          "kg_B": "The KG quanity of carbon to move from B to A",
          "ledger_A": "Ledger owner A",
          "ledger_B": "Ledger owner B"
        }
      },
      "withdraw(uint256,int256,address)": {
        "details": "Withdraws currency from a ledger entry",
        "params": {
          "amount": "The mount of the currency to withdraw, in currency base units",
          "ccyTypeId": "The currency type ID",
          "ledgerOwner": "The withdrawing ledger owner"
        }
      }
    }
  },
  "userdoc": {
    "methods": {
      "constructor": "ctor"
    }
  }
}