{
  "contractName": "AcMaster",
  "abi": [
    {
      "constant": true,
      "inputs": [
        {
          "name": "id",
          "type": "uint256"
        }
      ],
      "name": "getEeuBatch",
      "outputs": [
        {
          "components": [
            {
              "name": "id",
              "type": "uint256"
            },
            {
              "name": "mintedTimestamp",
              "type": "uint256"
            },
            {
              "name": "eeuTypeId",
              "type": "uint256"
            },
            {
              "name": "mintedKG",
              "type": "uint256"
            },
            {
              "name": "burnedKG",
              "type": "uint256"
            }
          ],
          "name": "",
          "type": "tuple"
        }
      ],
      "payable": false,
      "stateMutability": "view",
      "type": "function"
    },
    {
      "constant": false,
      "inputs": [
        {
          "name": "name",
          "type": "string"
        },
        {
          "name": "unit",
          "type": "string"
        }
      ],
      "name": "addCcyType",
      "outputs": [],
      "payable": false,
      "stateMutability": "nonpayable",
      "type": "function"
    },
    {
      "constant": false,
      "inputs": [
        {
          "name": "ccyTypeId",
          "type": "uint256"
        },
        {
          "name": "amount",
          "type": "int256"
        },
        {
          "name": "ledgerOwner",
          "type": "address"
        }
      ],
      "name": "withdraw",
      "outputs": [],
      "payable": false,
      "stateMutability": "nonpayable",
      "type": "function"
    },
    {
      "constant": true,
      "inputs": [],
      "name": "getEeuBatchCount",
      "outputs": [
        {
          "name": "",
          "type": "uint256"
        }
      ],
      "payable": false,
      "stateMutability": "view",
      "type": "function"
    },
    {
      "constant": false,
      "inputs": [
        {
          "name": "ccyTypeId",
          "type": "uint256"
        },
        {
          "name": "amount",
          "type": "int256"
        },
        {
          "name": "ledgerOwner",
          "type": "address"
        }
      ],
      "name": "fund",
      "outputs": [],
      "payable": false,
      "stateMutability": "nonpayable",
      "type": "function"
    },
    {
      "constant": true,
      "inputs": [],
      "name": "getEeuMintedCount",
      "outputs": [
        {
          "name": "",
          "type": "uint256"
        }
      ],
      "payable": false,
      "stateMutability": "view",
      "type": "function"
    },
    {
      "constant": true,
      "inputs": [
        {
          "name": "ccyTypeId",
          "type": "uint256"
        }
      ],
      "name": "getTotalWithdrawn",
      "outputs": [
        {
          "name": "",
          "type": "uint256"
        }
      ],
      "payable": false,
      "stateMutability": "view",
      "type": "function"
    },
    {
      "constant": true,
      "inputs": [
        {
          "name": "ccyTypeId",
          "type": "uint256"
        }
      ],
      "name": "getTotalFunded",
      "outputs": [
        {
          "name": "",
          "type": "uint256"
        }
      ],
      "payable": false,
      "stateMutability": "view",
      "type": "function"
    },
    {
      "constant": true,
      "inputs": [],
      "name": "getCcyTypes",
      "outputs": [
        {
          "components": [
            {
              "components": [
                {
                  "name": "id",
                  "type": "uint256"
                },
                {
                  "name": "name",
                  "type": "string"
                },
                {
                  "name": "unit",
                  "type": "string"
                }
              ],
              "name": "ccyTypes",
              "type": "tuple[]"
            }
          ],
          "name": "",
          "type": "tuple"
        }
      ],
      "payable": false,
      "stateMutability": "view",
      "type": "function"
    },
    {
      "constant": false,
      "inputs": [
        {
          "name": "name",
          "type": "string"
        }
      ],
      "name": "addEeuType",
      "outputs": [],
      "payable": false,
      "stateMutability": "nonpayable",
      "type": "function"
    },
    {
      "constant": true,
      "inputs": [],
      "name": "version",
      "outputs": [
        {
          "name": "",
          "type": "string"
        }
      ],
      "payable": false,
      "stateMutability": "view",
      "type": "function"
    },
    {
      "constant": false,
      "inputs": [
        {
          "name": "eeuTypeId",
          "type": "uint256"
        },
        {
          "name": "qtyKG",
          "type": "int256"
        },
        {
          "name": "qtyEeus",
          "type": "int256"
        },
        {
          "name": "batchOwner",
          "type": "address"
        }
      ],
      "name": "mintEeuBatch",
      "outputs": [],
      "payable": false,
      "stateMutability": "nonpayable",
      "type": "function"
    },
    {
      "constant": false,
      "inputs": [
        {
          "name": "ledger_A",
          "type": "address"
        },
        {
          "name": "ledger_B",
          "type": "address"
        },
        {
          "name": "kg_A",
          "type": "uint256"
        },
        {
          "name": "eeuTypeId_A",
          "type": "uint256"
        },
        {
          "name": "kg_B",
          "type": "uint256"
        },
        {
          "name": "eeuTypeId_B",
          "type": "uint256"
        },
        {
          "name": "ccy_amount_A",
          "type": "int256"
        },
        {
          "name": "ccyTypeId_A",
          "type": "uint256"
        },
        {
          "name": "ccy_amount_B",
          "type": "int256"
        },
        {
          "name": "ccyTypeId_B",
          "type": "uint256"
        }
      ],
      "name": "transfer",
      "outputs": [],
      "payable": false,
      "stateMutability": "nonpayable",
      "type": "function"
    },
    {
      "constant": true,
      "inputs": [],
      "name": "getEeuTypes",
      "outputs": [
        {
          "components": [
            {
              "components": [
                {
                  "name": "id",
                  "type": "uint256"
                },
                {
                  "name": "name",
                  "type": "string"
                }
              ],
              "name": "eeuTypes",
              "type": "tuple[]"
            }
          ],
          "name": "",
          "type": "tuple"
        }
      ],
      "payable": false,
      "stateMutability": "view",
      "type": "function"
    },
    {
      "constant": true,
      "inputs": [
        {
          "name": "id",
          "type": "uint256"
        }
      ],
      "name": "getEeu",
      "outputs": [
        {
          "components": [
            {
              "name": "exists",
              "type": "bool"
            },
            {
              "name": "id",
              "type": "uint256"
            },
            {
              "name": "mintedKG",
              "type": "uint256"
            },
            {
              "name": "KG",
              "type": "uint256"
            },
            {
              "name": "batchId",
              "type": "uint256"
            },
            {
              "name": "mintedTimestamp",
              "type": "uint256"
            },
            {
              "name": "splitFromId",
              "type": "uint256"
            },
            {
              "name": "splitToId",
              "type": "uint256"
            }
          ],
          "name": "",
          "type": "tuple"
        }
      ],
      "payable": false,
      "stateMutability": "view",
      "type": "function"
    },
    {
      "constant": true,
      "inputs": [
        {
          "name": "account",
          "type": "address"
        }
      ],
      "name": "getLedgerEntry",
      "outputs": [
        {
          "components": [
            {
              "name": "exists",
              "type": "bool"
            },
            {
              "components": [
                {
                  "name": "eeuId",
                  "type": "uint256"
                },
                {
                  "name": "eeuTypeId",
                  "type": "uint256"
                },
                {
                  "name": "eeuTypeName",
                  "type": "string"
                },
                {
                  "name": "batchId",
                  "type": "uint256"
                },
                {
                  "name": "eeuKG",
                  "type": "uint256"
                },
                {
                  "name": "mintedTimestamp",
                  "type": "uint256"
                },
                {
                  "name": "splitFromId",
                  "type": "uint256"
                },
                {
                  "name": "splitToId",
                  "type": "uint256"
                }
              ],
              "name": "eeus",
              "type": "tuple[]"
            },
            {
              "name": "eeu_sumKG",
              "type": "uint256"
            },
            {
              "components": [
                {
                  "name": "typeId",
                  "type": "uint256"
                },
                {
                  "name": "name",
                  "type": "string"
                },
                {
                  "name": "unit",
                  "type": "string"
                },
                {
                  "name": "balance",
                  "type": "int256"
                }
              ],
              "name": "ccys",
              "type": "tuple[]"
            }
          ],
          "name": "",
          "type": "tuple"
        }
      ],
      "payable": false,
      "stateMutability": "view",
      "type": "function"
    },
    {
      "constant": true,
      "inputs": [],
      "name": "getKgCarbonMinted",
      "outputs": [
        {
          "name": "",
          "type": "uint256"
        }
      ],
      "payable": false,
      "stateMutability": "view",
      "type": "function"
    },
    {
      "constant": true,
      "inputs": [],
      "name": "getLedgerOwners",
      "outputs": [
        {
          "name": "",
          "type": "address[]"
        }
      ],
      "payable": false,
      "stateMutability": "view",
      "type": "function"
    },
    {
      "constant": false,
      "inputs": [
        {
          "name": "ledgerOwner",
          "type": "address"
        },
        {
          "name": "eeuTypeId",
          "type": "uint256"
        },
        {
          "name": "qtyKG",
          "type": "int256"
        }
      ],
      "name": "retireCarbon",
      "outputs": [],
      "payable": false,
      "stateMutability": "nonpayable",
      "type": "function"
    },
    {
      "constant": true,
      "inputs": [],
      "name": "getKgCarbonBurned",
      "outputs": [
        {
          "name": "count",
          "type": "uint256"
        }
      ],
      "payable": false,
      "stateMutability": "view",
      "type": "function"
    },
    {
      "constant": true,
      "inputs": [],
      "name": "getTotalKgTransfered",
      "outputs": [
        {
          "name": "",
          "type": "uint256"
        }
      ],
      "payable": false,
      "stateMutability": "view",
      "type": "function"
    },
    {
      "constant": true,
      "inputs": [
        {
          "name": "ccyTypeId",
          "type": "uint256"
        }
      ],
      "name": "getTotalCcyTransfered",
      "outputs": [
        {
          "name": "",
          "type": "uint256"
        }
      ],
      "payable": false,
      "stateMutability": "view",
      "type": "function"
    },
    {
      "inputs": [],
      "payable": false,
      "stateMutability": "nonpayable",
      "type": "constructor"
    },
    {
      "anonymous": false,
      "inputs": [
        {
          "indexed": false,
          "name": "from",
          "type": "address"
        },
        {
          "indexed": false,
          "name": "to",
          "type": "address"
        },
        {
          "indexed": false,
          "name": "ccyTypeId",
          "type": "uint256"
        },
        {
          "indexed": false,
          "name": "amount",
          "type": "int256"
        }
      ],
      "name": "TransferedLedgerCcy",
      "type": "event"
    },
    {
      "anonymous": false,
      "inputs": [
        {
          "indexed": false,
          "name": "from",
          "type": "address"
        },
        {
          "indexed": false,
          "name": "to",
          "type": "address"
        },
        {
          "indexed": false,
          "name": "eeuId",
          "type": "uint256"
        },
        {
          "indexed": false,
          "name": "eeuTypeId",
          "type": "uint256"
        }
      ],
      "name": "TransferedFullEeu",
      "type": "event"
    },
    {
      "anonymous": false,
      "inputs": [
        {
          "indexed": false,
          "name": "from",
          "type": "address"
        },
        {
          "indexed": false,
          "name": "to",
          "type": "address"
        },
        {
          "indexed": false,
          "name": "splitFromEeuId",
          "type": "uint256"
        },
        {
          "indexed": false,
          "name": "newEeuId",
          "type": "uint256"
        },
        {
          "indexed": false,
          "name": "eeuTypeId",
          "type": "uint256"
        }
      ],
      "name": "TransferedPartialEeu",
      "type": "event"
    },
    {
      "anonymous": false,
      "inputs": [
        {
          "indexed": false,
          "name": "ccyTypeId",
          "type": "uint256"
        },
        {
          "indexed": false,
          "name": "ledgerOwner",
          "type": "address"
        },
        {
          "indexed": false,
          "name": "amount",
          "type": "int256"
        }
      ],
      "name": "CcyWithdrewLedger",
      "type": "event"
    },
    {
      "anonymous": false,
      "inputs": [
        {
          "indexed": false,
          "name": "ccyTypeId",
          "type": "uint256"
        },
        {
          "indexed": false,
          "name": "ledgerOwner",
          "type": "address"
        },
        {
          "indexed": false,
          "name": "amount",
          "type": "int256"
        }
      ],
      "name": "CcyFundedLedger",
      "type": "event"
    },
    {
      "anonymous": false,
      "inputs": [
        {
          "indexed": false,
          "name": "eeuId",
          "type": "uint256"
        },
        {
          "indexed": false,
          "name": "eeuTypeId",
          "type": "uint256"
        },
        {
          "indexed": false,
          "name": "ledgerOwner",
          "type": "address"
        },
        {
          "indexed": false,
          "name": "burnedKG",
          "type": "uint256"
        }
      ],
      "name": "BurnedFullEeu",
      "type": "event"
    },
    {
      "anonymous": false,
      "inputs": [
        {
          "indexed": false,
          "name": "eeuId",
          "type": "uint256"
        },
        {
          "indexed": false,
          "name": "eeuTypeId",
          "type": "uint256"
        },
        {
          "indexed": false,
          "name": "ledgerOwner",
          "type": "address"
        },
        {
          "indexed": false,
          "name": "burnedKG",
          "type": "uint256"
        }
      ],
      "name": "BurnedPartialEeu",
      "type": "event"
    },
    {
      "anonymous": false,
      "inputs": [
        {
          "indexed": false,
          "name": "batchId",
          "type": "uint256"
        },
        {
          "indexed": false,
          "name": "eeuTypeId",
          "type": "uint256"
        },
        {
          "indexed": false,
          "name": "batchOwner",
          "type": "address"
        },
        {
          "indexed": false,
          "name": "qtyKG",
          "type": "uint256"
        },
        {
          "indexed": false,
          "name": "qtyEeus",
          "type": "uint256"
        }
      ],
      "name": "MintedEeuBatch",
      "type": "event"
    },
    {
      "anonymous": false,
      "inputs": [
        {
          "indexed": false,
          "name": "eeuId",
          "type": "uint256"
        },
        {
          "indexed": false,
          "name": "batchId",
          "type": "uint256"
        },
        {
          "indexed": false,
          "name": "eeuTypeId",
          "type": "uint256"
        },
        {
          "indexed": false,
          "name": "ledgerOwner",
          "type": "address"
        },
        {
          "indexed": false,
          "name": "mintedKG",
          "type": "uint256"
        }
      ],
      "name": "MintedEeu",
      "type": "event"
    },
    {
      "anonymous": false,
      "inputs": [
        {
          "indexed": false,
          "name": "id",
          "type": "uint256"
        },
        {
          "indexed": false,
          "name": "name",
          "type": "string"
        },
        {
          "indexed": false,
          "name": "unit",
          "type": "string"
        }
      ],
      "name": "AddedCcyType",
      "type": "event"
    },
    {
      "anonymous": false,
      "inputs": [
        {
          "indexed": false,
          "name": "id",
          "type": "uint256"
        },
        {
          "indexed": false,
          "name": "name",
          "type": "string"
        }
      ],
      "name": "AddedEeuType",
      "type": "event"
    }
  ],
  "bytecode": "0x60806040523480156200001157600080fd5b5060008054600160a060020a0319163317815560408051808201909152600681527f554e464343430000000000000000000000000000000000000000000000000000602080830191825292805260019092525162000091917fa6eef7e35abe7026729641147f7915573c7e97b47efa546f5f6e3230263bcb499162000368565b5060408051808201909152600381527f56435300000000000000000000000000000000000000000000000000000000006020808301918252600160008190529052905162000101917fcc69885fda6bcc1a4ace058b4a62bf5e179ea78fd58a1ccd71c22cc9b688792f9162000368565b50600280556040805160608101825260008082528251808401845260038082527f555344000000000000000000000000000000000000000000000000000000000060208381019190915280850192835285518087018752600581527f63656e7473000000000000000000000000000000000000000000000000000000818301529585019590955291805290835281517f3617319a054d772f909f7c479a2cebe5066e836a939412e32403c99029b92eff9081559051805192939192620001eb927f3617319a054d772f909f7c479a2cebe5066e836a939412e32403c99029b92f0092019062000368565b50604082015180516200020991600284019160209091019062000368565b50506040805160608101825260018082528251808401845260038082527f4554480000000000000000000000000000000000000000000000000000000000602083810191909152808501928352855180870187528281527f5765690000000000000000000000000000000000000000000000000000000000818301529585019590955260009290925290835281517fa15bc60c955c405d20d9149c709e2460f1c2d9a497496a7f46004d1772c3054c908155905180519294509092620002f5927fa15bc60c955c405d20d9149c709e2460f1c2d9a497496a7f46004d1772c3054d929091019062000368565b50604082015180516200031391600284019160209091019062000368565b50506002600455506040805180820190915260058082527f302e302e350000000000000000000000000000000000000000000000000000006020909201918252620003619160169162000368565b506200040d565b828054600181600116156101000203166002900490600052602060002090601f016020900481019282601f10620003ab57805160ff1916838001178555620003db565b82800160010185558215620003db579182015b82811115620003db578251825591602001919060010190620003be565b50620003e9929150620003ed565b5090565b6200040a91905b80821115620003e95760008155600101620003f4565b90565b613815806200041d6000396000f3fe608060405234801561001057600080fd5b506004361061019f576000357c01000000000000000000000000000000000000000000000000000000009004806370f753de116100f5578063ba0138cb116100a9578063e3f64b3511610083578063e3f64b3514610333578063e87b886c1461033b578063e9b85fd3146103435761019f565b8063ba0138cb14610303578063bcc376c61461030b578063c7e60f9f146103205761019f565b8063963030df116100da578063963030df146102ae5780639ce9a4a6146102c3578063a89a8884146102e35761019f565b806370f753de146102885780638de389b61461029b5761019f565b80633846d448116101575780634dc26ae8116101315780634dc26ae81461024b57806351664b261461026057806354fd4d50146102735761019f565b80633846d4481461021d5780633e726e0514610225578063448d7438146102385761019f565b80630b503ab7116101885780630b503ab7146101e257806319b67615146101f55780633368402b1461020a5761019f565b80630722a4ee146101a45780630834e864146101cd575b600080fd5b6101b76101b236600461264f565b610356565b6040516101c4919061358b565b60405180910390f35b6101e06101db3660046125e6565b6103ad565b005b6101e06101f036600461266d565b610526565b6101fd61069e565b6040516101c491906135db565b6101e061021836600461266d565b6106a5565b6101fd610829565b6101fd61023336600461264f565b61085e565b6101fd61024636600461264f565b61089f565b6102536108e0565b6040516101c491906135a8565b6101e061026e3660046125b1565b610aca565b61027b610bf1565b6040516101c4919061342a565b6101e06102963660046126b0565b610c7f565b6101e06102a936600461248b565b610f92565b6102b66114d2565b6040516101c491906135b9565b6102d66102d136600461264f565b6115f0565b6040516101c49190613599565b6102f66102f1366004612465565b611676565b6040516101c491906135ca565b6101fd611b5c565b610313611b91565b6040516101c49190613419565b6101e061032e366004612564565b611c21565b6101fd611f3b565b6101fd611f70565b6101fd61035136600461264f565b611fa5565b61035e6121d9565b50600090815260056020908152604091829020825160a0810184528154815260018201549281019290925260028101549282019290925260038201546060820152600490910154608082015290565b600054600160a060020a031633146103e35760405160e560020a62461bcd0281526004016103da906134eb565b60405180910390fd5b60005b60045481101561047557826040516020016104019190613380565b60408051601f19818403018152828252805160209182012060008581526003835292909220919261043692600101910161338c565b60405160208183030381529060405280519060200120141561046d5760405160e560020a62461bcd0281526004016103da906134fb565b6001016103e6565b506040805160608101825260045480825260208083018681528385018690526000928352600382529390912082518155925180519293926104bc9260018501920190612208565b50604082015180516104d8916002840191602090910190612208565b509050507f41c4a4be5d1fed810ab0ace2ffe78022538a72356773c24ed010e06bdf6454b7600454838360405161051193929190613631565b60405180910390a15050600480546001019055565b600054600160a060020a031633146105535760405160e560020a62461bcd0281526004016103da906134eb565b60045483106105775760405160e560020a62461bcd0281526004016103da906134db565b6000821361059a5760405160e560020a62461bcd0281526004016103da9061351b565b600160a060020a03811660009081526011602052604090205460ff1615156001146105da5760405160e560020a62461bcd0281526004016103da9061344b565b600160a060020a03811660009081526011602090815260408083208684526002019091529020548213156106235760405160e560020a62461bcd0281526004016103da906134bb565b600160a060020a0381166000908152601160209081526040808320868452600201825280832080548690039055601490915290819020805484019055517fbc646e7e255ad4c6743251f213af7cae7d0cecfbf159c99ded6b6d7f85666a3f90610691908590849086906135e9565b60405180910390a1505050565b6006545b90565b600054600160a060020a031633146106d25760405160e560020a62461bcd0281526004016103da906134eb565b60045483106106f65760405160e560020a62461bcd0281526004016103da906134db565b600082121561071a5760405160e560020a62461bcd0281526004016103da9061348b565b600160a060020a03811660009081526011602052604090205460ff166107bc5760408051602080820183526001808352600160a060020a038516600081815260119093529382209251835460ff19169015151790925560128054928301815590527fbb8a6a4669ba250d26cd7a459eca9d215f8307e33aebe50379bc5a3617ec344401805473ffffffffffffffffffffffffffffffffffffffff191690911790555b600160a060020a03811660009081526011602090815260408083208684526002018252808320805486019055601390915290819020805484019055517fbf9c9c4358c50927dd4152801ee5586a421fee0e6dd1c019635a6c4d0af9158790610691908590849086906135e9565b60008054600160a060020a031633146108575760405160e560020a62461bcd0281526004016103da906134eb565b5060105490565b60008054600160a060020a0316331461088c5760405160e560020a62461bcd0281526004016103da906134eb565b5060009081526014602052604090205490565b60008054600160a060020a031633146108cd5760405160e560020a62461bcd0281526004016103da906134eb565b5060009081526013602052604090205490565b6108e8612286565b606060045460405190808252806020026020018201604052801561092657816020015b610913612299565b81526020019060019003908161090b5790505b50905060005b600454811015610aad57604080516060810182526000838152600360208181528483208054855292869052908152600191820180548551600294821615610100026000190190911693909304601f8101839004830284018301909552848352929381850193918301828280156109e35780601f106109b8576101008083540402835291602001916109e3565b820191906000526020600020905b8154815290600101906020018083116109c657829003601f168201915b50505091835250506000838152600360209081526040918290206002908101805484516001821615610100026000190190911692909204601f81018490048402830184019094528382529382019390929091830182828015610a865780601f10610a5b57610100808354040283529160200191610a86565b820191906000526020600020905b815481529060010190602001808311610a6957829003601f168201915b5050505050815250828281518110610a9a57fe5b602090810291909101015260010161092c565b50610ab6612286565b506040805160208101909152908152905090565b600054600160a060020a03163314610af75760405160e560020a62461bcd0281526004016103da906134eb565b60005b600254811015610b865781604051602001610b159190613380565b60408051601f198184030181528282528051602091820120600085815260018352929092209192610b4792910161338c565b604051602081830303815290604052805190602001201415610b7e5760405160e560020a62461bcd0281526004016103da9061356b565b600101610afa565b5060025460009081526001602090815260409091208251610ba992840190612208565b507ff42a31d05ee5f17e0f159b94b9402293e9cf2265c806b4a55168aeaa3fe275e260025482604051610bdd929190613611565b60405180910390a150600280546001019055565b6016805460408051602060026001851615610100026000190190941693909304601f81018490048402820184019092528181529291830182828015610c775780601f10610c4c57610100808354040283529160200191610c77565b820191906000526020600020905b815481529060010190602001808311610c5a57829003601f168201915b505050505081565b600054600160a060020a03163314610cac5760405160e560020a62461bcd0281526004016103da906134eb565b6002548410610cd05760405160e560020a62461bcd0281526004016103da906134ab565b6001821215610cf45760405160e560020a62461bcd0281526004016103da9061357b565b6103e8831215610d195760405160e560020a62461bcd0281526004016103da9061353b565b818381610d2257fe5b0715610d435760405160e560020a62461bcd0281526004016103da9061352b565b610d4b6121d9565b506040805160a0810182526006805460019081018084524260208086019182528587018b8152606087018b81526000608089018181529581526005909352918890208751808255935181870155905160028201559051600382015591516004909201919091558254909101909155915190917f3b2a5f1232ad8fb6334d75c56a235d50209dc23e6b0b51325b2e98e17a6ffc3d91610df19190889086908990899061368d565b60405180910390a1600160a060020a03821660009081526011602052604090205460ff16610e9b5760408051602080820183526001808352600160a060020a038616600081815260119093529382209251835460ff19169015151790925560128054928301815590527fbb8a6a4669ba250d26cd7a459eca9d215f8307e33aebe50379bc5a3617ec344401805473ffffffffffffffffffffffffffffffffffffffff191690911790555b60005b83811215610f795760105481016001016000858781610eb957fe5b855160008581526007602090815260408083209390935560088152828220949093049384905560098352818120849055600a90925290819020429055855190519192507fbdf1b0fbadd676a593dc51c25399111b5cf1795fd1315c7545271c18c1b265cd91610f2f9185918c908a9087906136b5565b60405180910390a150600160a060020a03841660009081526011602090815260408083208a8452600190810183529083208054808301825590845291909220019190915501610e9e565b50506010805490920190915550600d8054909101905550565b600054600160a060020a03163314610fbf5760405160e560020a62461bcd0281526004016103da906134eb565b600160a060020a038a1660009081526011602052604090205460ff161515600114610fff5760405160e560020a62461bcd0281526004016103da9061343b565b600160a060020a03891660009081526011602052604090205460ff16151560011461103f5760405160e560020a62461bcd0281526004016103da9061347b565b600088118061104e5750600086115b806110595750600084135b806110645750600082135b6110835760405160e560020a62461bcd0281526004016103da9061345b565b60008412806110925750600082125b156110b25760405160e560020a62461bcd0281526004016103da9061350b565b6000805b600160a060020a038c1660009081526011602090815260408083208c845260010190915290205481101561114657600160a060020a038c1660009081526011602090815260408083208c84526001019091528120805460099291908490811061111b57fe5b90600052602060002001548152602001908152602001600020548201915080806001019150506110b6565b508881101561116a5760405160e560020a62461bcd0281526004016103da906134cb565b6000805b600160a060020a038c1660009081526011602090815260408083208584526001019091529020548110156111fe57600160a060020a038c166000908152601160209081526040808320858452600101909152812080546009929190849081106111d357fe5b906000526020600020015481526020019081526020016000205483019250808060010191505061116e565b50878110156112225760405160e560020a62461bcd0281526004016103da9061354b565b600160a060020a038c16600090815260116020908152604080832088845260020190915290205486131561126b5760405160e560020a62461bcd0281526004016103da9061346b565b600160a060020a038b1660009081526011602090815260408083208684526002019091529020548413156112b45760405160e560020a62461bcd0281526004016103da9061349b565b60008613156113aa5785601160008e600160a060020a0316600160a060020a0316815260200190815260200160002060020160008781526020019081526020016000206000828254039250508190555085601160008d600160a060020a0316600160a060020a031681526020019081526020016000206002016000878152602001908152602001600020600082825401925050819055508560156000878152602001908152602001600020600082825401925050819055507f84fefdcd41e7655d9681d6df648b41c6d93853951da1b10ad434fcea00fbd6d18c8c87896040516113a19493929190613398565b60405180910390a15b60008413156114a05783601160008d600160a060020a0316600160a060020a0316815260200190815260200160002060020160008581526020019081526020016000206000828254039250508190555083601160008e600160a060020a0316600160a060020a031681526020019081526020016000206002016000858152602001908152602001600020600082825401925050819055508360156000858152602001908152602001600020600082825401925050819055507f84fefdcd41e7655d9681d6df648b41c6d93853951da1b10ad434fcea00fbd6d18b8d85876040516114979493929190613398565b60405180910390a15b89156114b2576114b28c8c8c8c611fe6565b87156114c4576114c48b8d8a8a611fe6565b505050505050505050505050565b6114da612286565b606060025460405190808252806020026020018201604052801561151857816020015b6115056122ba565b8152602001906001900390816114fd5790505b50905060005b600254811015610aad576040805180820182528281526000838152600160208181529184902080548551600293821615610100026000190190911692909204601f810184900484028301840190955284825292938285019391928301828280156115c95780601f1061159e576101008083540402835291602001916115c9565b820191906000526020600020905b8154815290600101906020018083116115ac57829003601f168201915b50505050508152508282815181106115dd57fe5b602090810291909101015260010161151e565b6115f86122d4565b506040805161010081018252600083815260076020908152838220548015158452818401869052858352600882528483205484860152858352600982528483205460608501526080840152848252600a81528382205460a0840152848252600b81528382205460c0840152938152600c90935291205460e082015290565b61167e61231b565b606080600080805b6002548110156116c557600160a060020a0387166000908152601160209081526040808320848452600190810190925290912054929092019101611686565b508060405190808252806020026020018201604052801561170057816020015b6116ed612345565b8152602001906001900390816116e55790505b5093506000805b60025481101561190e57600160a060020a038816600090815260116020908152604080832084845260010182529182902080548351818402810184019094528084526060939283018282801561177c57602002820191906000526020600020905b815481526020019060010190808311611768575b50939450600093505050505b815181101561190457600082828151811061179f57fe5b60200260200101519050600960008281526020019081526020016000205487019650604051806101000160405280828152602001858152602001600160008781526020019081526020016000208054600181600116156101000203166002900480601f0160208091040260200160405190810160405280929190818152602001828054600181600116156101000203166002900480156118805780601f1061185557610100808354040283529160200191611880565b820191906000526020600020905b81548152906001019060200180831161186357829003601f168201915b505050918352505060008381526007602090815260408083205482850152858352600982528083205481850152858352600a8252808320546060850152858352600b8252808320546080850152858352600c90915290205460a09091015289518a90879081106118ec57fe5b60209081029190910101525060019384019301611788565b5050600101611707565b5060045460405190808252806020026020018201604052801561194b57816020015b61193861238a565b8152602001906001900390816119305790505b50935060005b600454811015611b0c576040518060800160405280828152602001600360008481526020019081526020016000206001018054600181600116156101000203166002900480601f016020809104026020016040519081016040528092919081815260200182805460018160011615610100020316600290048015611a165780601f106119eb57610100808354040283529160200191611a16565b820191906000526020600020905b8154815290600101906020018083116119f957829003601f168201915b50505091835250506000838152600360209081526040918290206002908101805484516001821615610100026000190190911692909204601f81018490048402830184019094528382529382019390929091830182828015611ab95780601f10611a8e57610100808354040283529160200191611ab9565b820191906000526020600020905b815481529060010190602001808311611a9c57829003601f168201915b5050509183525050600160a060020a038a1660009081526011602090815260408083208684526002018252909120549101528551869083908110611af957fe5b6020908102919091010152600101611951565b50611b1561231b565b505060408051608081018252600160a060020a038816600090815260116020908152908390205460ff16151582528101959095528401919091525060608201529050919050565b60008054600160a060020a03163314611b8a5760405160e560020a62461bcd0281526004016103da906134eb565b50600d5490565b600054606090600160a060020a03163314611bc15760405160e560020a62461bcd0281526004016103da906134eb565b6012805480602002602001604051908101604052809291908181526020018280548015611c1757602002820191906000526020600020905b8154600160a060020a03168152600190910190602001808311611bf9575b5050505050905090565b600054600160a060020a03163314611c4e5760405160e560020a62461bcd0281526004016103da906134eb565b600160a060020a03831660009081526011602052604090205460ff161515600114611c8e5760405160e560020a62461bcd0281526004016103da9061344b565b6103e8811215611cb35760405160e560020a62461bcd0281526004016103da9061353b565b6002548210611cd75760405160e560020a62461bcd0281526004016103da906134ab565b6000805b600160a060020a0385166000908152601160209081526040808320878452600101909152902054811015611d6b57600160a060020a038516600090815260116020908152604080832087845260010190915281208054600992919084908110611d4057fe5b9060005260206000200154815260200190815260200160002054820191508080600101915050611cdb565b5081811015611d8f5760405160e560020a62461bcd0281526004016103da9061355b565b6000825b8015611f2a57600160a060020a038616600090815260116020908152604080832088845260010190915281208054909190829085908110611dd057fe5b60009182526020808320909101548083526009825260408084205460079093529092205491925090818510611eb357600083815260096020526040812055835484906000198101908110611e2057fe5b9060005260206000200154848781548110611e3757fe5b6000918252602090912001558354611e538560001983016123b2565b50600081815260056020526040908190206004018054840190555194829003947ff214be5dc9cf391efd4738b59af95842784d47fd41a2b9057df440d144f3c67d90611ea69085908c908e908790613665565b60405180910390a1611f21565b600083815260096020908152604080832080548990039055838352600590915290819020600401805487019055517fe304852108e009cdefa218a22b44f9a1f921fb5692ead9b6fb815d388e24869f90611f149085908c908e908a90613665565b60405180910390a1600094505b50505050611d93565b5050600e8054909201909155505050565b60008054600160a060020a03163314611f695760405160e560020a62461bcd0281526004016103da906134eb565b50600e5490565b60008054600160a060020a03163314611f9e5760405160e560020a62461bcd0281526004016103da906134eb565b50600f5490565b60008054600160a060020a03163314611fd35760405160e560020a62461bcd0281526004016103da906134eb565b5060009081526015602052604090205490565b6000825b80156121c857600160a060020a03808716600090815260116020818152604080842088855260019081018352818520958b16855292825280842088855290920190528120825490919083908690811061203f57fe5b600091825260208083209091015480835260098252604080842054600790935290922054919250908186106121115784548590600019810190811061208057fe5b906000526020600020015485888154811061209757fe5b60009182526020909120015584546120b38660001983016123b2565b5083546001810185556000858152602090200183905560405195829003957f2e643d54bcb73242d44b7cd7d32d1c0b80881197e3130624c7a6b45fd147144990612104908d908d9087908d90613398565b60405180910390a16121be565b601080546001908101600081815260076020908152604080832087905560098083528184208d905560088084528285208e905587548701909755898452825280832080548d9003905594815284822080548c9003905588549384018955888252902090910181905590517f5a5dc97f86977a981061cef57a0da80676bc743389e5e79ce33489764158b0bd906121b0908e908e90889086908f906133cd565b60405180910390a160009650505b5050505050611fea565b5050600f8054909201909155505050565b6040518060a0016040528060008152602001600081526020016000815260200160008152602001600081525090565b828054600181600116156101000203166002900490600052602060002090601f016020900481019282601f1061224957805160ff1916838001178555612276565b82800160010185558215612276579182015b8281111561227657825182559160200191906001019061225b565b506122829291506123db565b5090565b6040518060200160405280606081525090565b60405180606001604052806000815260200160608152602001606081525090565b604051806040016040528060008152602001606081525090565b604051806101000160405280600015158152602001600081526020016000815260200160008152602001600081526020016000815260200160008152602001600081525090565b60405180608001604052806000151581526020016060815260200160008152602001606081525090565b60405180610100016040528060008152602001600081526020016060815260200160008152602001600081526020016000815260200160008152602001600081525090565b6040518060800160405280600081526020016060815260200160608152602001600081525090565b8154818355818111156123d6576000838152602090206123d69181019083016123db565b505050565b6106a291905b8082111561228257600081556001016123e1565b8035612400816137bb565b92915050565b8035612400816137d2565b600082601f83011261242257600080fd5b813561243561243082613711565b6136ea565b9150808252602083016020830185838301111561245157600080fd5b61245c838284613779565b50505092915050565b60006020828403121561247757600080fd5b600061248384846123f5565b949350505050565b6000806000806000806000806000806101408b8d0312156124ab57600080fd5b60006124b78d8d6123f5565b9a505060206124c88d828e016123f5565b99505060406124d98d828e01612406565b98505060606124ea8d828e01612406565b97505060806124fb8d828e01612406565b96505060a061250c8d828e01612406565b95505060c061251d8d828e01612406565b94505060e061252e8d828e01612406565b9350506101006125408d828e01612406565b9250506101206125528d828e01612406565b9150509295989b9194979a5092959850565b60008060006060848603121561257957600080fd5b600061258586866123f5565b935050602061259686828701612406565b92505060406125a786828701612406565b9150509250925092565b6000602082840312156125c357600080fd5b813567ffffffffffffffff8111156125da57600080fd5b61248384828501612411565b600080604083850312156125f957600080fd5b823567ffffffffffffffff81111561261057600080fd5b61261c85828601612411565b925050602083013567ffffffffffffffff81111561263957600080fd5b61264585828601612411565b9150509250929050565b60006020828403121561266157600080fd5b60006124838484612406565b60008060006060848603121561268257600080fd5b600061268e8686612406565b935050602061269f86828701612406565b92505060406125a7868287016123f5565b600080600080608085870312156126c657600080fd5b60006126d28787612406565b94505060206126e387828801612406565b93505060406126f487828801612406565b9250506060612705878288016123f5565b91505092959194509250565b600061271d838361275c565b505060200190565b6000612731838361307e565b9392505050565b600061273183836131c7565b60006127318383613223565b60006127318383613286565b6127658161375d565b82525050565b60006127768261374b565b612780818561374f565b935061278b83613739565b8060005b838110156127b95781516127a38882612711565b97506127ae83613739565b92505060010161278f565b509495945050505050565b60006127cf8261374b565b6127d9818561374f565b9350836020820285016127eb85613739565b8060005b8581101561282557848403895281516128088582612725565b945061281383613739565b60209a909a01999250506001016127ef565b5091979650505050505050565b600061283d8261374b565b612847818561374f565b93508360208202850161285985613739565b8060005b8581101561282557848403895281516128768582612738565b945061288183613739565b60209a909a019992505060010161285d565b600061289e8261374b565b6128a8818561374f565b9350836020820285016128ba85613739565b8060005b8581101561282557848403895281516128d78582612744565b94506128e283613739565b60209a909a01999250506001016128be565b60006128ff8261374b565b612909818561374f565b93508360208202850161291b85613739565b8060005b8581101561282557848403895281516129388582612750565b945061294383613739565b60209a909a019992505060010161291f565b61276581613768565b612765816106a2565b60006129728261374b565b61297c818561374f565b935061298c818560208601613785565b612995816137b1565b9093019392505050565b60006129aa8261374b565b6129b48185613758565b93506129c4818560208601613785565b9290920192915050565b6000815460018116600081146129eb5760018114612a0e57612a4d565b607f60028304166129fc8187613758565b60ff1984168152955085019250612a4d565b60028204612a1c8187613758565b9550612a278561373f565b60005b82811015612a4657815488820152600190910190602001612a2a565b5050850192505b505092915050565b6000612a6260168361374f565b7f496e76616c6964206c6564676572206f776e6572204100000000000000000000815260200192915050565b6000612a9b60148361374f565b7f496e76616c6964206c6564676572206f776e6572000000000000000000000000815260200192915050565b6000612ad460108361374f565b7f496e76616c6964207472616e7366657200000000000000000000000000000000815260200192915050565b6000612b0d602c8361374f565b7f496e73756666696369656e742063757272656e63792068656c64206279206c6581527f64676572206f776e657220410000000000000000000000000000000000000000602082015260400192915050565b6000612b6c60168361374f565b7f496e76616c6964206c6564676572206f776e6572204200000000000000000000815260200192915050565b6000612ba5600e8361374f565b7f496e76616c696420616d6f756e74000000000000000000000000000000000000815260200192915050565b6000612bde602c8361374f565b7f496e73756666696369656e742063757272656e63792068656c64206279206c6581527f64676572206f776e657220420000000000000000000000000000000000000000602082015260400192915050565b6000612c3d60108361374f565b7f496e76616c696420454555207479706500000000000000000000000000000000815260200192915050565b6000612c7660218361374f565b7f496e73756666696369656e74206c6564676572206f776e65722062616c616e6381527f6500000000000000000000000000000000000000000000000000000000000000602082015260400192915050565b6000612cd5602a8361374f565b7f496e73756666696369656e7420636172626f6e2068656c64206279206c65646781527f6572206f776e6572204100000000000000000000000000000000000000000000602082015260400192915050565b6000612d3460158361374f565b7f496e76616c69642063757272656e637920747970650000000000000000000000815260200192915050565b6000612d6d60118361374f565b7f52657374726963746564206d6574686f64000000000000000000000000000000815260200192915050565b6000612da660218361374f565b7f43757272656e63792074797065206e616d6520616c726561647920657869737481527f7300000000000000000000000000000000000000000000000000000000000000602082015260400192915050565b6000612e0560188361374f565b7f496e76616c69642063757272656e637920616d6f756e74730000000000000000815260200192915050565b6000612e3e60228361374f565b7f4d696e696d756d206f6e652063757272656e637920756e69742072657175697281527f6564000000000000000000000000000000000000000000000000000000000000602082015260400192915050565b6000612e9d602a8361374f565b7f436172626f6e20776569676874206d75737420646976696465206576656e6c7981527f20696e746f204545557300000000000000000000000000000000000000000000602082015260400192915050565b6000612efc60298361374f565b7f4d696e696d756d206f6e65206d657472696320746f6e206f6620636172626f6e81527f2072657175697265640000000000000000000000000000000000000000000000602082015260400192915050565b6000612f5b602a8361374f565b7f496e73756666696369656e7420636172626f6e2068656c64206279206c65646781527f6572206f776e6572204200000000000000000000000000000000000000000000602082015260400192915050565b6000612fba60288361374f565b7f496e73756666696369656e7420636172626f6e2068656c64206279206c65646781527f6572206f776e6572000000000000000000000000000000000000000000000000602082015260400192915050565b6000613019601c8361374f565b7f4545552074797065206e616d6520616c72656164792065786973747300000000815260200192915050565b600061305260188361374f565b7f4d696e696d756d206f6e65204545552072657175697265640000000000000000815260200192915050565b80516000906060840190613092858261295e565b50602083015184820360208601526130aa8282612967565b915050604083015184820360408601526130c48282612967565b95945050505050565b805160a08301906130de848261295e565b5060208201516130f1602085018261295e565b506040820151613104604085018261295e565b506060820151613117606085018261295e565b50608082015161312a608085018261295e565b50505050565b80516101008301906131428482612955565b506020820151613155602085018261295e565b506040820151613168604085018261295e565b50606082015161317b606085018261295e565b50608082015161318e608085018261295e565b5060a08201516131a160a085018261295e565b5060c08201516131b460c085018261295e565b5060e082015161312a60e085018261295e565b805160009060408401906131db858261295e565b50602083015184820360208601526130c48282612967565b80516020808452600091908401906130c482826127c4565b80516020808452600091908401906130c48282612832565b80516000906080840190613237858261295e565b506020830151848203602086015261324f8282612967565b915050604083015184820360408601526132698282612967565b915050606083015161327e606086018261295e565b509392505050565b805160009061010084019061329b858261295e565b5060208301516132ae602086018261295e565b50604083015184820360408601526132c68282612967565b91505060608301516132db606086018261295e565b5060808301516132ee608086018261295e565b5060a083015161330160a086018261295e565b5060c083015161331460c086018261295e565b5060e083015161327e60e086018261295e565b8051600090608084019061333b8582612955565b506020830151848203602086015261335382826128f4565b9150506040830151613368604086018261295e565b50606083015184820360608601526130c48282612893565b6000612731828461299f565b600061273182846129ce565b608081016133a6828761275c565b6133b3602083018661275c565b6133c0604083018561295e565b6130c4606083018461295e565b60a081016133db828861275c565b6133e8602083018761275c565b6133f5604083018661295e565b613402606083018561295e565b61340f608083018461295e565b9695505050505050565b60208082528101612731818461276b565b602080825281016127318184612967565b6020808252810161240081612a55565b6020808252810161240081612a8e565b6020808252810161240081612ac7565b6020808252810161240081612b00565b6020808252810161240081612b5f565b6020808252810161240081612b98565b6020808252810161240081612bd1565b6020808252810161240081612c30565b6020808252810161240081612c69565b6020808252810161240081612cc8565b6020808252810161240081612d27565b6020808252810161240081612d60565b6020808252810161240081612d99565b6020808252810161240081612df8565b6020808252810161240081612e31565b6020808252810161240081612e90565b6020808252810161240081612eef565b6020808252810161240081612f4e565b6020808252810161240081612fad565b602080825281016124008161300c565b6020808252810161240081613045565b60a0810161240082846130cd565b61010081016124008284613130565b6020808252810161273181846131f3565b60208082528101612731818461320b565b602080825281016127318184613327565b60208101612400828461295e565b606081016135f7828661295e565b613604602083018561275c565b612483604083018461295e565b6040810161361f828561295e565b81810360208301526124838184612967565b6060810161363f828661295e565b81810360208301526136518185612967565b905081810360408301526130c48184612967565b60808101613673828761295e565b613680602083018661295e565b6133c0604083018561275c565b60a0810161369b828861295e565b6136a8602083018761295e565b6133f5604083018661275c565b60a081016136c3828861295e565b6136d0602083018761295e565b6136dd604083018661295e565b613402606083018561275c565b60405181810167ffffffffffffffff8111828210171561370957600080fd5b604052919050565b600067ffffffffffffffff82111561372857600080fd5b506020601f91909101601f19160190565b60200190565b60009081526020902090565b5190565b90815260200190565b919050565b60006124008261376d565b151590565b600160a060020a031690565b82818337506000910152565b60005b838110156137a0578181015183820152602001613788565b8381111561312a5750506000910152565b601f01601f191690565b6137c48161375d565b81146137cf57600080fd5b50565b6137c4816106a256fea265627a7a72305820c0097214eaabc130111603c8fd0feaa7f9f458b65c200e450bc9c5b6803035be6c6578706572696d656e74616cf50037",
  "source": "pragma solidity 0.5.8;\r\npragma experimental ABIEncoderV2;\r\n\r\nimport \"./EeuMintable.sol\";\r\nimport \"./EeuBurnable.sol\";\r\nimport \"./CcyFundable.sol\";\r\nimport \"./CcyWithdrawable.sol\";\r\nimport \"./EeuTransferable.sol\";\r\n\r\ncontract AcMaster is EeuMintable, EeuBurnable, CcyFundable, CcyWithdrawable, EeuTransferable {\r\n    string public version;\r\n\r\n    /**\r\n     * ctor\r\n     */\r\n    constructor() public {\r\n        version = \"0.0.5\";\r\n    }\r\n}\r\n",
  "sourcePath": "C:/ac/src/ac-monorepo/packages/erc20/contracts/AcMaster/AcMaster.sol",
  "compiler": {
    "name": "solc",
    "version": "0.5.8+commit.23d335f2.Emscripten.clang"
  },
  "schemaVersion": "3.0.11",
  "updatedAt": "2019-08-11T14:08:45.331Z",
  "devdoc": {
    "methods": {
      "addCcyType(string,string)": {
        "details": "Adds a new currency type\r",
        "params": {
          "name": "The new currency type name\r",
          "unit": "The base unit of the new currency type\r"
        }
      },
      "addEeuType(string)": {
        "details": "Adds a new EEU type\r",
        "params": {
          "name": "The new EEU type name\r"
        }
      },
      "fund(uint256,int256,address)": {
        "details": "Funds a ledger entry with a currency amount\r",
        "params": {
          "amount": "The mount of the currency to fund, in currency base units\r",
          "ccyTypeId": "The currency type ID\r",
          "ledgerOwner": "The ledger owner to fund\r"
        }
      },
      "getCcyTypes()": {
        "details": "Returns current currency types\r"
      },
      "getEeu(uint256)": {
        "details": "Returns an EEU by ID\r"
      },
      "getEeuBatch(uint256)": {
        "details": "Returns an EEU batch by ID\r"
      },
      "getEeuBatchCount()": {
        "details": "Returns the global EEU batch count\r"
      },
      "getEeuMintedCount()": {
        "details": "Returns the total global number of EEUs minted\r"
      },
      "getEeuTypes()": {
        "details": "Returns current EEU types\r"
      },
      "getKgCarbonBurned()": {
        "details": "Returns the total global tonnage of carbon burned\r"
      },
      "getKgCarbonMinted()": {
        "details": "Returns the total global tonnage of carbon minted\r"
      },
      "getLedgerEntry(address)": {
        "details": "Returns the ledger entry for a single account\r"
      },
      "getLedgerOwners()": {
        "details": "Returns all accounts in the ledger\r"
      },
      "getTotalCcyTransfered(uint256)": {
        "details": "Returns the total global currency amount transfered for the supplied currency\r"
      },
      "getTotalFunded(uint256)": {
        "details": "Returns the total global amount funded for the supplied currency\r"
      },
      "getTotalKgTransfered()": {
        "details": "Returns the total global tonnage of carbon transfered\r"
      },
      "getTotalWithdrawn(uint256)": {
        "details": "Returns the total global amount withdrawn for the supplied currency\r"
      },
      "mintEeuBatch(uint256,int256,int256,address)": {
        "details": "Mints and assigns initial ownership of a new EEU batch\r",
        "params": {
          "batchOwner": "The ledger owner to assign the minted EEUs to\r",
          "eeuTypeId": "The EEU-type for the batch\r",
          "qtyEeus": "The quantity of EEUs to mint - recommended, due to memory & gas cost, always set to 1\r",
          "qtyKG": "The KG quanity of carbon to mint across the EEUs\r"
        }
      },
      "retireCarbon(address,uint256,int256)": {
        "details": "Burns carbons by resizing EEUs, and/or removing EEUs from the ledger\rRemoves EEUs (or fractions thereof) from the main list and from the ledger, resizing as necessary\rThe supplied ledger owner must hold the supplied quantity of carbon in aggregate across ledger EEUs, and of the supplied type\r",
        "params": {
          "eeuTypeId": "The EEU type to burn\r",
          "ledgerOwner": "The ledger owner to burn\r",
          "qtyKG": "The tonnage to burn\r"
        }
      },
      "transfer(address,address,uint256,uint256,uint256,uint256,int256,uint256,int256,uint256)": {
        "details": "Transfers or trades assets between ledger accounts\r(allows one-sided transfers, and allows transfers of same asset types)\r",
        "params": {
          "ccyTypeId_A": "The currency type to move from A to B\r",
          "ccyTypeId_B": "The currency type to move from B to A\r",
          "ccy_amount_A": "The amount of currency to move from A to B\r",
          "ccy_amount_B": "The amount of currency to move from B to A\r",
          "eeuTypeId_A": "The EEU type to move from A to B\r",
          "eeuTypeId_B": "The EEU type to move from A to B\r",
          "kg_A": "The KG quantity of carbon to move from A to B\r",
          "kg_B": "The KG quanity of carbon to move from B to A\r",
          "ledger_A": "Ledger owner A\r",
          "ledger_B": "Ledger owner B\r"
        }
      },
      "withdraw(uint256,int256,address)": {
        "details": "Withdraws currency from a ledger entry\r",
        "params": {
          "amount": "The mount of the currency to withdraw, in currency base units\r",
          "ccyTypeId": "The currency type ID\r",
          "ledgerOwner": "The withdrawing ledger owner\r"
        }
      }
    }
  },
  "userdoc": {
    "methods": {
      "constructor": "ctor\r"
    }
  }
}