{
  "contractName": "AcMaster",
  "abi": [
    {
      "constant": true,
      "inputs": [
        {
          "name": "id",
          "type": "uint256"
        }
      ],
      "name": "getEeuBatch",
      "outputs": [
        {
          "components": [
            {
              "name": "id",
              "type": "uint256"
            },
            {
              "name": "mintedTimestamp",
              "type": "uint256"
            },
            {
              "name": "eeuTypeId",
              "type": "uint256"
            },
            {
              "name": "mintedKG",
              "type": "uint256"
            },
            {
              "name": "burnedKG",
              "type": "uint256"
            }
          ],
          "name": "",
          "type": "tuple"
        }
      ],
      "payable": false,
      "stateMutability": "view",
      "type": "function"
    },
    {
      "constant": false,
      "inputs": [
        {
          "name": "name",
          "type": "string"
        },
        {
          "name": "unit",
          "type": "string"
        }
      ],
      "name": "addCcyType",
      "outputs": [],
      "payable": false,
      "stateMutability": "nonpayable",
      "type": "function"
    },
    {
      "constant": false,
      "inputs": [
        {
          "name": "ccyTypeId",
          "type": "uint256"
        },
        {
          "name": "amount",
          "type": "int256"
        },
        {
          "name": "ledgerOwner",
          "type": "address"
        }
      ],
      "name": "withdraw",
      "outputs": [],
      "payable": false,
      "stateMutability": "nonpayable",
      "type": "function"
    },
    {
      "constant": true,
      "inputs": [],
      "name": "getEeuBatchCount",
      "outputs": [
        {
          "name": "",
          "type": "uint256"
        }
      ],
      "payable": false,
      "stateMutability": "view",
      "type": "function"
    },
    {
      "constant": false,
      "inputs": [
        {
          "name": "ledger_A",
          "type": "address"
        },
        {
          "name": "ledger_B",
          "type": "address"
        },
        {
          "name": "kg_A",
          "type": "uint256"
        },
        {
          "name": "eeuTypeId_A",
          "type": "uint256"
        },
        {
          "name": "kg_B",
          "type": "uint256"
        },
        {
          "name": "eeuTypeId_B",
          "type": "uint256"
        },
        {
          "name": "ccy_amount_A",
          "type": "int256"
        },
        {
          "name": "ccyTypeId_A",
          "type": "uint256"
        },
        {
          "name": "ccy_amount_B",
          "type": "int256"
        },
        {
          "name": "ccyTypeId_B",
          "type": "uint256"
        },
        {
          "name": "fee_ccy_B",
          "type": "uint256"
        }
      ],
      "name": "transfer",
      "outputs": [],
      "payable": false,
      "stateMutability": "nonpayable",
      "type": "function"
    },
    {
      "constant": false,
      "inputs": [
        {
          "name": "ccyTypeId",
          "type": "uint256"
        },
        {
          "name": "amount",
          "type": "int256"
        },
        {
          "name": "ledgerOwner",
          "type": "address"
        }
      ],
      "name": "fund",
      "outputs": [],
      "payable": false,
      "stateMutability": "nonpayable",
      "type": "function"
    },
    {
      "constant": true,
      "inputs": [],
      "name": "getEeuMintedCount",
      "outputs": [
        {
          "name": "",
          "type": "uint256"
        }
      ],
      "payable": false,
      "stateMutability": "view",
      "type": "function"
    },
    {
      "constant": true,
      "inputs": [
        {
          "name": "ccyTypeId",
          "type": "uint256"
        }
      ],
      "name": "getTotalWithdrawn",
      "outputs": [
        {
          "name": "",
          "type": "uint256"
        }
      ],
      "payable": false,
      "stateMutability": "view",
      "type": "function"
    },
    {
      "constant": true,
      "inputs": [
        {
          "name": "ccyTypeId",
          "type": "uint256"
        }
      ],
      "name": "getTotalFunded",
      "outputs": [
        {
          "name": "",
          "type": "uint256"
        }
      ],
      "payable": false,
      "stateMutability": "view",
      "type": "function"
    },
    {
      "constant": true,
      "inputs": [],
      "name": "getCcyTypes",
      "outputs": [
        {
          "components": [
            {
              "components": [
                {
                  "name": "id",
                  "type": "uint256"
                },
                {
                  "name": "name",
                  "type": "string"
                },
                {
                  "name": "unit",
                  "type": "string"
                }
              ],
              "name": "ccyTypes",
              "type": "tuple[]"
            }
          ],
          "name": "",
          "type": "tuple"
        }
      ],
      "payable": false,
      "stateMutability": "view",
      "type": "function"
    },
    {
      "constant": false,
      "inputs": [
        {
          "name": "name",
          "type": "string"
        }
      ],
      "name": "addEeuType",
      "outputs": [],
      "payable": false,
      "stateMutability": "nonpayable",
      "type": "function"
    },
    {
      "constant": true,
      "inputs": [],
      "name": "version",
      "outputs": [
        {
          "name": "",
          "type": "string"
        }
      ],
      "payable": false,
      "stateMutability": "view",
      "type": "function"
    },
    {
      "constant": false,
      "inputs": [
        {
          "name": "eeuTypeId",
          "type": "uint256"
        },
        {
          "name": "qtyKG",
          "type": "int256"
        },
        {
          "name": "qtyEeus",
          "type": "int256"
        },
        {
          "name": "batchOwner",
          "type": "address"
        }
      ],
      "name": "mintEeuBatch",
      "outputs": [],
      "payable": false,
      "stateMutability": "nonpayable",
      "type": "function"
    },
    {
      "constant": true,
      "inputs": [],
      "name": "getEeuTypes",
      "outputs": [
        {
          "components": [
            {
              "components": [
                {
                  "name": "id",
                  "type": "uint256"
                },
                {
                  "name": "name",
                  "type": "string"
                }
              ],
              "name": "eeuTypes",
              "type": "tuple[]"
            }
          ],
          "name": "",
          "type": "tuple"
        }
      ],
      "payable": false,
      "stateMutability": "view",
      "type": "function"
    },
    {
      "constant": true,
      "inputs": [
        {
          "name": "id",
          "type": "uint256"
        }
      ],
      "name": "getEeu",
      "outputs": [
        {
          "components": [
            {
              "name": "exists",
              "type": "bool"
            },
            {
              "name": "id",
              "type": "uint256"
            },
            {
              "name": "mintedKG",
              "type": "uint256"
            },
            {
              "name": "KG",
              "type": "uint256"
            },
            {
              "name": "batchId",
              "type": "uint256"
            }
          ],
          "name": "",
          "type": "tuple"
        }
      ],
      "payable": false,
      "stateMutability": "view",
      "type": "function"
    },
    {
      "constant": true,
      "inputs": [
        {
          "name": "account",
          "type": "address"
        }
      ],
      "name": "getLedgerEntry",
      "outputs": [
        {
          "components": [
            {
              "name": "exists",
              "type": "bool"
            },
            {
              "components": [
                {
                  "name": "eeuId",
                  "type": "uint256"
                },
                {
                  "name": "eeuTypeId",
                  "type": "uint256"
                },
                {
                  "name": "eeuTypeName",
                  "type": "string"
                },
                {
                  "name": "batchId",
                  "type": "uint256"
                },
                {
                  "name": "eeuKG",
                  "type": "uint256"
                }
              ],
              "name": "eeus",
              "type": "tuple[]"
            },
            {
              "name": "eeu_sumKG",
              "type": "uint256"
            },
            {
              "components": [
                {
                  "name": "typeId",
                  "type": "uint256"
                },
                {
                  "name": "name",
                  "type": "string"
                },
                {
                  "name": "unit",
                  "type": "string"
                },
                {
                  "name": "balance",
                  "type": "int256"
                }
              ],
              "name": "ccys",
              "type": "tuple[]"
            }
          ],
          "name": "",
          "type": "tuple"
        }
      ],
      "payable": false,
      "stateMutability": "view",
      "type": "function"
    },
    {
      "constant": true,
      "inputs": [],
      "name": "getKgCarbonMinted",
      "outputs": [
        {
          "name": "",
          "type": "uint256"
        }
      ],
      "payable": false,
      "stateMutability": "view",
      "type": "function"
    },
    {
      "constant": true,
      "inputs": [],
      "name": "getLedgerOwners",
      "outputs": [
        {
          "name": "",
          "type": "address[]"
        }
      ],
      "payable": false,
      "stateMutability": "view",
      "type": "function"
    },
    {
      "constant": false,
      "inputs": [
        {
          "name": "ledgerOwner",
          "type": "address"
        },
        {
          "name": "eeuTypeId",
          "type": "uint256"
        },
        {
          "name": "qtyKG",
          "type": "int256"
        }
      ],
      "name": "retireCarbon",
      "outputs": [],
      "payable": false,
      "stateMutability": "nonpayable",
      "type": "function"
    },
    {
      "constant": true,
      "inputs": [],
      "name": "getKgCarbonBurned",
      "outputs": [
        {
          "name": "count",
          "type": "uint256"
        }
      ],
      "payable": false,
      "stateMutability": "view",
      "type": "function"
    },
    {
      "constant": true,
      "inputs": [],
      "name": "getTotalKgTransfered",
      "outputs": [
        {
          "name": "",
          "type": "uint256"
        }
      ],
      "payable": false,
      "stateMutability": "view",
      "type": "function"
    },
    {
      "constant": true,
      "inputs": [
        {
          "name": "ccyTypeId",
          "type": "uint256"
        }
      ],
      "name": "getTotalCcyTransfered",
      "outputs": [
        {
          "name": "",
          "type": "uint256"
        }
      ],
      "payable": false,
      "stateMutability": "view",
      "type": "function"
    },
    {
      "inputs": [],
      "payable": false,
      "stateMutability": "nonpayable",
      "type": "constructor"
    },
    {
      "anonymous": false,
      "inputs": [
        {
          "indexed": false,
          "name": "from",
          "type": "address"
        },
        {
          "indexed": false,
          "name": "to",
          "type": "address"
        },
        {
          "indexed": false,
          "name": "ccyTypeId",
          "type": "uint256"
        },
        {
          "indexed": false,
          "name": "amount",
          "type": "int256"
        }
      ],
      "name": "TransferedLedgerCcy",
      "type": "event"
    },
    {
      "anonymous": false,
      "inputs": [
        {
          "indexed": false,
          "name": "from",
          "type": "address"
        },
        {
          "indexed": false,
          "name": "to",
          "type": "address"
        },
        {
          "indexed": false,
          "name": "eeuId",
          "type": "uint256"
        },
        {
          "indexed": false,
          "name": "mergedToEeuId",
          "type": "uint256"
        },
        {
          "indexed": false,
          "name": "eeuTypeId",
          "type": "uint256"
        }
      ],
      "name": "TransferedFullEeu",
      "type": "event"
    },
    {
      "anonymous": false,
      "inputs": [
        {
          "indexed": false,
          "name": "from",
          "type": "address"
        },
        {
          "indexed": false,
          "name": "to",
          "type": "address"
        },
        {
          "indexed": false,
          "name": "splitFromEeuId",
          "type": "uint256"
        },
        {
          "indexed": false,
          "name": "newEeuId",
          "type": "uint256"
        },
        {
          "indexed": false,
          "name": "mergedToEeuId",
          "type": "uint256"
        },
        {
          "indexed": false,
          "name": "eeuTypeId",
          "type": "uint256"
        }
      ],
      "name": "TransferedPartialEeu",
      "type": "event"
    },
    {
      "anonymous": false,
      "inputs": [
        {
          "indexed": false,
          "name": "ccyTypeId",
          "type": "uint256"
        },
        {
          "indexed": false,
          "name": "ledgerOwner",
          "type": "address"
        },
        {
          "indexed": false,
          "name": "amount",
          "type": "int256"
        }
      ],
      "name": "CcyWithdrewLedger",
      "type": "event"
    },
    {
      "anonymous": false,
      "inputs": [
        {
          "indexed": false,
          "name": "ccyTypeId",
          "type": "uint256"
        },
        {
          "indexed": false,
          "name": "ledgerOwner",
          "type": "address"
        },
        {
          "indexed": false,
          "name": "amount",
          "type": "int256"
        }
      ],
      "name": "CcyFundedLedger",
      "type": "event"
    },
    {
      "anonymous": false,
      "inputs": [
        {
          "indexed": false,
          "name": "eeuId",
          "type": "uint256"
        },
        {
          "indexed": false,
          "name": "eeuTypeId",
          "type": "uint256"
        },
        {
          "indexed": false,
          "name": "ledgerOwner",
          "type": "address"
        },
        {
          "indexed": false,
          "name": "burnedKG",
          "type": "uint256"
        }
      ],
      "name": "BurnedFullEeu",
      "type": "event"
    },
    {
      "anonymous": false,
      "inputs": [
        {
          "indexed": false,
          "name": "eeuId",
          "type": "uint256"
        },
        {
          "indexed": false,
          "name": "eeuTypeId",
          "type": "uint256"
        },
        {
          "indexed": false,
          "name": "ledgerOwner",
          "type": "address"
        },
        {
          "indexed": false,
          "name": "burnedKG",
          "type": "uint256"
        }
      ],
      "name": "BurnedPartialEeu",
      "type": "event"
    },
    {
      "anonymous": false,
      "inputs": [
        {
          "indexed": false,
          "name": "batchId",
          "type": "uint256"
        },
        {
          "indexed": false,
          "name": "eeuTypeId",
          "type": "uint256"
        },
        {
          "indexed": false,
          "name": "batchOwner",
          "type": "address"
        },
        {
          "indexed": false,
          "name": "qtyKG",
          "type": "uint256"
        },
        {
          "indexed": false,
          "name": "qtyEeus",
          "type": "uint256"
        }
      ],
      "name": "MintedEeuBatch",
      "type": "event"
    },
    {
      "anonymous": false,
      "inputs": [
        {
          "indexed": false,
          "name": "eeuId",
          "type": "uint256"
        },
        {
          "indexed": false,
          "name": "batchId",
          "type": "uint256"
        },
        {
          "indexed": false,
          "name": "eeuTypeId",
          "type": "uint256"
        },
        {
          "indexed": false,
          "name": "ledgerOwner",
          "type": "address"
        },
        {
          "indexed": false,
          "name": "mintedKG",
          "type": "uint256"
        }
      ],
      "name": "MintedEeu",
      "type": "event"
    },
    {
      "anonymous": false,
      "inputs": [
        {
          "indexed": false,
          "name": "id",
          "type": "uint256"
        },
        {
          "indexed": false,
          "name": "name",
          "type": "string"
        },
        {
          "indexed": false,
          "name": "unit",
          "type": "string"
        }
      ],
      "name": "AddedCcyType",
      "type": "event"
    },
    {
      "anonymous": false,
      "inputs": [
        {
          "indexed": false,
          "name": "id",
          "type": "uint256"
        },
        {
          "indexed": false,
          "name": "name",
          "type": "string"
        }
      ],
      "name": "AddedEeuType",
      "type": "event"
    }
  ],
  "bytecode": "0x60806040523480156200001157600080fd5b5060008054600160a060020a0319163317815560408051808201909152600681527f554e464343430000000000000000000000000000000000000000000000000000602080830191825292805260019092525162000091917fa6eef7e35abe7026729641147f7915573c7e97b47efa546f5f6e3230263bcb4991620003ea565b5060408051808201909152600381527f56435300000000000000000000000000000000000000000000000000000000006020808301918252600160008190529052905162000101917fcc69885fda6bcc1a4ace058b4a62bf5e179ea78fd58a1ccd71c22cc9b688792f91620003ea565b50600280556040805160608101825260008082528251808401845260038082527f555344000000000000000000000000000000000000000000000000000000000060208381019190915280850192835285518087018752600581527f63656e7473000000000000000000000000000000000000000000000000000000818301529585019590955291805290835281517f3617319a054d772f909f7c479a2cebe5066e836a939412e32403c99029b92eff9081559051805192939192620001eb927f3617319a054d772f909f7c479a2cebe5066e836a939412e32403c99029b92f00920190620003ea565b506040820151805162000209916002840191602090910190620003ea565b50506040805160608101825260018082528251808401845260038082527f4554480000000000000000000000000000000000000000000000000000000000602083810191909152808501928352855180870187528281527f5765690000000000000000000000000000000000000000000000000000000000818301529585019590955260009290925290835281517fa15bc60c955c405d20d9149c709e2460f1c2d9a497496a7f46004d1772c3054c908155905180519294509092620002f5927fa15bc60c955c405d20d9149c709e2460f1c2d9a497496a7f46004d1772c3054d9290910190620003ea565b506040820151805162000313916002840191602090910190620003ea565b50506002600455506040805180820190915260058082527f302e302e3600000000000000000000000000000000000000000000000000000060209092019182526200036191601391620003ea565b506040805160208082018352600180835260008054600160a060020a039081168252600e9093529384209251835490151560ff19909116179092558254600f805493840181559093527f8d1108e10bcb7c27dddfc02ed9d693a074039d026cf4ea4240b40f7d581ac8029091018054600160a060020a031916929091169190911790556200048f565b828054600181600116156101000203166002900490600052602060002090601f016020900481019282601f106200042d57805160ff19168380011785556200045d565b828001600101855582156200045d579182015b828111156200045d57825182559160200191906001019062000440565b506200046b9291506200046f565b5090565b6200048c91905b808211156200046b576000815560010162000476565b90565b6137a6806200049f6000396000f3fe608060405234801561001057600080fd5b506004361061015f576000357c01000000000000000000000000000000000000000000000000000000009004806354fd4d50116100d5578063ba0138cb11610099578063ba0138cb146102c3578063bcc376c6146102cb578063c7e60f9f146102e0578063e3f64b35146102f3578063e87b886c146102fb578063e9b85fd3146103035761015f565b806354fd4d501461024657806370f753de1461025b578063963030df1461026e5780639ce9a4a614610283578063a89a8884146102a35761015f565b80633368402b116101275780633368402b146101dd5780633846d448146101f05780633e726e05146101f8578063448d74381461020b5780634dc26ae81461021e57806351664b26146102335761015f565b80630722a4ee146101645780630834e8641461018d5780630b503ab7146101a257806319b67615146101b55780631df839bb146101ca575b600080fd5b61017761017236600461258b565b610316565b60405161018491906134e5565b60405180910390f35b6101a061019b366004612522565b61036d565b005b6101a06101b03660046125a9565b6104e6565b6101bd61065e565b6040516101849190613534565b6101a06101d83660046123b2565b610665565b6101a06101eb3660046125a9565b6108e2565b6101bd610a66565b6101bd61020636600461258b565b610a9b565b6101bd61021936600461258b565b610adc565b610226610b1d565b6040516101849190613501565b6101a06102413660046124ed565b610d07565b61024e610e2e565b6040516101849190613374565b6101a06102693660046125ec565b610ebc565b6102766111c4565b6040516101849190613512565b61029661029136600461258b565b6112e2565b60405161018491906134f3565b6102b66102b136600461238c565b61133e565b6040516101849190613523565b6101bd6117d6565b6102d361180b565b6040516101849190613363565b6101a06102ee3660046124a0565b61189b565b6101bd611bb5565b6101bd611bea565b6101bd61031136600461258b565b611c1f565b61031e61212c565b50600090815260056020908152604091829020825160a0810184528154815260018201549281019290925260028101549282019290925260038201546060820152600490910154608082015290565b600054600160a060020a031633146103a35760405160e560020a62461bcd02815260040161039a90613435565b60405180910390fd5b60005b60045481101561043557826040516020016103c1919061322e565b60408051601f1981840301815282825280516020918201206000858152600383529290922091926103f692600101910161323a565b60405160208183030381529060405280519060200120141561042d5760405160e560020a62461bcd02815260040161039a90613455565b6001016103a6565b5060408051606081018252600454808252602080830186815283850186905260009283526003825293909120825181559251805192939261047c926001850192019061215b565b506040820151805161049891600284019160209091019061215b565b509050507f41c4a4be5d1fed810ab0ace2ffe78022538a72356773c24ed010e06bdf6454b760045483836040516104d19392919061358a565b60405180910390a15050600480546001019055565b600054600160a060020a031633146105135760405160e560020a62461bcd02815260040161039a90613435565b60045483106105375760405160e560020a62461bcd02815260040161039a90613425565b6000821361055a5760405160e560020a62461bcd02815260040161039a90613475565b600160a060020a0381166000908152600e602052604090205460ff16151560011461059a5760405160e560020a62461bcd02815260040161039a90613395565b600160a060020a0381166000908152600e602090815260408083208684526002019091529020548213156105e35760405160e560020a62461bcd02815260040161039a90613405565b600160a060020a0381166000908152600e60209081526040808320868452600201825280832080548690039055601190915290819020805484019055517fbc646e7e255ad4c6743251f213af7cae7d0cecfbf159c99ded6b6d7f85666a3f9061065190859084908690613542565b60405180910390a1505050565b6006545b90565b600054600160a060020a031633146106925760405160e560020a62461bcd02815260040161039a90613435565b600160a060020a038b166000908152600e602052604090205460ff1615156001146106d25760405160e560020a62461bcd02815260040161039a90613385565b600160a060020a038a166000908152600e602052604090205460ff1615156001146107125760405160e560020a62461bcd02815260040161039a906133c5565b60008911806107215750600087115b8061072c5750600085135b806107375750600083135b6107565760405160e560020a62461bcd02815260040161039a906133a5565b60008512806107655750600083125b156107855760405160e560020a62461bcd02815260040161039a90613465565b6000891180156107955750600085135b806107ab57506000871180156107ab5750600083135b156107cb5760405160e560020a62461bcd02815260040161039a906134a5565b6107d68b898b611c60565b15156001146107fa5760405160e560020a62461bcd02815260040161039a90613415565b6108058a8789611c60565b15156001146108295760405160e560020a62461bcd02815260040161039a906134b5565b6108348b8587611d01565b15156001146108585760405160e560020a62461bcd02815260040161039a906133b5565b6108638a8385611d01565b15156001146108875760405160e560020a62461bcd02815260040161039a906133e5565b600085131561089c5761089c8b8b8688611d2f565b60008313156108b1576108b18a8c8486611d2f565b88156108c3576108c38b8b8b8b611dcb565b86156108d5576108d58a8c8989611dcb565b5050505050505050505050565b600054600160a060020a0316331461090f5760405160e560020a62461bcd02815260040161039a90613435565b60045483106109335760405160e560020a62461bcd02815260040161039a90613425565b60008212156109575760405160e560020a62461bcd02815260040161039a906133d5565b600160a060020a0381166000908152600e602052604090205460ff166109f95760408051602080820183526001808352600160a060020a0385166000818152600e9093529382209251835460ff191690151517909255600f8054928301815590527f8d1108e10bcb7c27dddfc02ed9d693a074039d026cf4ea4240b40f7d581ac80201805473ffffffffffffffffffffffffffffffffffffffff191690911790555b600160a060020a0381166000908152600e602090815260408083208684526002018252808320805486019055601090915290819020805484019055517fbf9c9c4358c50927dd4152801ee5586a421fee0e6dd1c019635a6c4d0af915879061065190859084908690613542565b60008054600160a060020a03163314610a945760405160e560020a62461bcd02815260040161039a90613435565b50600d5490565b60008054600160a060020a03163314610ac95760405160e560020a62461bcd02815260040161039a90613435565b5060009081526011602052604090205490565b60008054600160a060020a03163314610b0a5760405160e560020a62461bcd02815260040161039a90613435565b5060009081526010602052604090205490565b610b256121d9565b6060600454604051908082528060200260200182016040528015610b6357816020015b610b506121ec565b815260200190600190039081610b485790505b50905060005b600454811015610cea57604080516060810182526000838152600360208181528483208054855292869052908152600191820180548551600294821615610100026000190190911693909304601f810183900483028401830190955284835292938185019391830182828015610c205780601f10610bf557610100808354040283529160200191610c20565b820191906000526020600020905b815481529060010190602001808311610c0357829003601f168201915b50505091835250506000838152600360209081526040918290206002908101805484516001821615610100026000190190911692909204601f81018490048402830184019094528382529382019390929091830182828015610cc35780601f10610c9857610100808354040283529160200191610cc3565b820191906000526020600020905b815481529060010190602001808311610ca657829003601f168201915b5050505050815250828281518110610cd757fe5b6020908102919091010152600101610b69565b50610cf36121d9565b506040805160208101909152908152905090565b600054600160a060020a03163314610d345760405160e560020a62461bcd02815260040161039a90613435565b60005b600254811015610dc35781604051602001610d52919061322e565b60408051601f198184030181528282528051602091820120600085815260018352929092209192610d8492910161323a565b604051602081830303815290604052805190602001201415610dbb5760405160e560020a62461bcd02815260040161039a906134d5565b600101610d37565b5060025460009081526001602090815260409091208251610de69284019061215b565b507ff42a31d05ee5f17e0f159b94b9402293e9cf2265c806b4a55168aeaa3fe275e260025482604051610e1a92919061356a565b60405180910390a150600280546001019055565b6013805460408051602060026001851615610100026000190190941693909304601f81018490048402820184019092528181529291830182828015610eb45780601f10610e8957610100808354040283529160200191610eb4565b820191906000526020600020905b815481529060010190602001808311610e9757829003601f168201915b505050505081565b600054600160a060020a03163314610ee95760405160e560020a62461bcd02815260040161039a90613435565b6002548410610f0d5760405160e560020a62461bcd02815260040161039a906133f5565b81600114610f305760405160e560020a62461bcd02815260040161039a90613445565b6103e8831215610f555760405160e560020a62461bcd02815260040161039a90613495565b818381610f5e57fe5b0715610f7f5760405160e560020a62461bcd02815260040161039a90613485565b610f8761212c565b506040805160a0810182526006805460019081018084524260208086019182528587018b8152606087018b81526000608089018181529581526005909352918890208751808255935181870155905160028201559051600382015591516004909201919091558254909101909155915190917f3b2a5f1232ad8fb6334d75c56a235d50209dc23e6b0b51325b2e98e17a6ffc3d9161102d919088908690899089906135e6565b60405180910390a1600160a060020a0382166000908152600e602052604090205460ff166110d75760408051602080820183526001808352600160a060020a0386166000818152600e9093529382209251835460ff191690151517909255600f8054928301815590527f8d1108e10bcb7c27dddfc02ed9d693a074039d026cf4ea4240b40f7d581ac80201805473ffffffffffffffffffffffffffffffffffffffff191690911790555b60005b838112156111ab57600d54810160010160008587816110f557fe5b8551600085815260076020908152604080832093909355600881528282209490930493849055600990925290819020829055855190519192507fbdf1b0fbadd676a593dc51c25399111b5cf1795fd1315c7545271c18c1b265cd916111619185918c908a90879061361b565b60405180910390a150600160a060020a0384166000908152600e602090815260408083208a84526001908101835290832080548083018255908452919092200191909155016110da565b5050600d805490920190915550600a8054909101905550565b6111cc6121d9565b606060025460405190808252806020026020018201604052801561120a57816020015b6111f761220d565b8152602001906001900390816111ef5790505b50905060005b600254811015610cea576040805180820182528281526000838152600160208181529184902080548551600293821615610100026000190190911692909204601f810184900484028301840190955284825292938285019391928301828280156112bb5780601f10611290576101008083540402835291602001916112bb565b820191906000526020600020905b81548152906001019060200180831161129e57829003601f168201915b50505050508152508282815181106112cf57fe5b6020908102919091010152600101611210565b6112ea612227565b506040805160a0810182526000838152600760208181528483205480151585528185018790528684526008825285842054858701528684526009825294832054606085015294909152909252608082015290565b611346612258565b606080600080805b60025481101561138d57600160a060020a0387166000908152600e6020908152604080832084845260019081019092529091205492909201910161134e565b50806040519080825280602002602001820160405280156113c857816020015b6113b5612282565b8152602001906001900390816113ad5790505b5093506000805b60025481101561158857600160a060020a0388166000908152600e6020908152604080832084845260010182529182902080548351818402810184019094528084526060939283018282801561144457602002820191906000526020600020905b815481526020019060010190808311611430575b50939450600093505050505b815181101561157e57600082828151811061146757fe5b602090810291909101810151600081815260098352604080822054815160a0810183528481528086018a905289845260018087529383902080548451600296821615610100026000190190911695909504601f810188900488028601880185528086529d9092019c9496509491850193909183018282801561152a5780601f106114ff5761010080835404028352916020019161152a565b820191906000526020600020905b81548152906001019060200180831161150d57829003601f168201915b5050509183525050600083815260076020908152604080832054828501528583526009909152908190205491015289518a908790811061156657fe5b60209081029190910101525060019384019301611450565b50506001016113cf565b506004546040519080825280602002602001820160405280156115c557816020015b6115b26122b1565b8152602001906001900390816115aa5790505b50935060005b600454811015611786576040518060800160405280828152602001600360008481526020019081526020016000206001018054600181600116156101000203166002900480601f0160208091040260200160405190810160405280929190818152602001828054600181600116156101000203166002900480156116905780601f1061166557610100808354040283529160200191611690565b820191906000526020600020905b81548152906001019060200180831161167357829003601f168201915b50505091835250506000838152600360209081526040918290206002908101805484516001821615610100026000190190911692909204601f810184900484028301840190945283825293820193909290918301828280156117335780601f1061170857610100808354040283529160200191611733565b820191906000526020600020905b81548152906001019060200180831161171657829003601f168201915b5050509183525050600160a060020a038a166000908152600e60209081526040808320868452600201825290912054910152855186908390811061177357fe5b60209081029190910101526001016115cb565b5061178f612258565b505060408051608081018252600160a060020a0388166000908152600e6020908152908390205460ff16151582528101959095528401919091525060608201529050919050565b60008054600160a060020a031633146118045760405160e560020a62461bcd02815260040161039a90613435565b50600a5490565b600054606090600160a060020a0316331461183b5760405160e560020a62461bcd02815260040161039a90613435565b600f80548060200260200160405190810160405280929190818152602001828054801561189157602002820191906000526020600020905b8154600160a060020a03168152600190910190602001808311611873575b5050505050905090565b600054600160a060020a031633146118c85760405160e560020a62461bcd02815260040161039a90613435565b600160a060020a0383166000908152600e602052604090205460ff1615156001146119085760405160e560020a62461bcd02815260040161039a90613395565b6103e881121561192d5760405160e560020a62461bcd02815260040161039a90613495565b60025482106119515760405160e560020a62461bcd02815260040161039a906133f5565b6000805b600160a060020a0385166000908152600e602090815260408083208784526001019091529020548110156119e557600160a060020a0385166000908152600e60209081526040808320878452600101909152812080546009929190849081106119ba57fe5b9060005260206000200154815260200190815260200160002054820191508080600101915050611955565b5081811015611a095760405160e560020a62461bcd02815260040161039a906134c5565b6000825b8015611ba457600160a060020a0386166000908152600e6020908152604080832088845260010190915281208054909190829085908110611a4a57fe5b60009182526020808320909101548083526009825260408084205460079093529092205491925090818510611b2d57600083815260096020526040812055835484906000198101908110611a9a57fe5b9060005260206000200154848781548110611ab157fe5b6000918252602090912001558354611acd8560001983016122d9565b50600081815260056020526040908190206004018054840190555194829003947ff214be5dc9cf391efd4738b59af95842784d47fd41a2b9057df440d144f3c67d90611b209085908c908e9087906135be565b60405180910390a1611b9b565b600083815260096020908152604080832080548990039055838352600590915290819020600401805487019055517fe304852108e009cdefa218a22b44f9a1f921fb5692ead9b6fb815d388e24869f90611b8e9085908c908e908a906135be565b60405180910390a1600094505b50505050611a0d565b5050600b8054909201909155505050565b60008054600160a060020a03163314611be35760405160e560020a62461bcd02815260040161039a90613435565b50600b5490565b60008054600160a060020a03163314611c185760405160e560020a62461bcd02815260040161039a90613435565b50600c5490565b60008054600160a060020a03163314611c4d5760405160e560020a62461bcd02815260040161039a90613435565b5060009081526012602052604090205490565b600080805b600160a060020a0386166000908152600e60209081526040808320888452600101909152902054811015611cf557600160a060020a0386166000908152600e6020908152604080832088845260010190915281208054600992919084908110611cca57fe5b9060005260206000200154815260200190815260200160002054820191508080600101915050611c65565b50909111159392505050565b600160a060020a03929092166000908152600e60209081526040808320938352600290930190522054121590565b600160a060020a038085166000908152600e602081815260408084208785526002908101835281852080548890039055948816845291815281832086845290930183528082208054850190556012909252819020805483019055517f84fefdcd41e7655d9681d6df648b41c6d93853951da1b10ad434fcea00fbd6d190611dbd908690869086908690613246565b60405180910390a150505050565b6000825b801561211b57600160a060020a038087166000908152600e6020818152604080842088855260019081018352818520958b168552928252808420888552909201905281208254909190839086908110611e2457fe5b60009182526020808320909101548083526009825260408084205460079093529092205491925090818610611ef957845485906000198101908110611e6557fe5b9060005260206000200154858881548110611e7c57fe5b6000918252602090912001558454611e988660001983016122d9565b5083546001810185556000858152602081209091018490556040517f4dd67c0d2d6c24f530078a5bbf15da227fa94f864c3972dedd57c09d08e729ed91611ee7918e918e918891908e9061327b565b60405180910390a18186039550612111565b6000805b855481101561200e578260076000888481548110611f1757fe5b90600052602060002001548152602001908152602001600020541415612006578760096000888481548110611f4857fe5b90600052602060002001548152602001908152602001600020600082825401925050819055508760086000888481548110611f7f57fe5b9060005260206000200154815260200190815260200160002060008282540192505081905550600191507f1653cd545a5ccf5e3c0fdc2847e305f5e5ec5f6036337b0c96dab0a78a0386778d8d8760008a8681548110611fdb57fe5b90600052602060002001548f604051611ff9969594939291906132c7565b60405180910390a161200e565b600101611efd565b50806120e7576000600d54600101905082600760008381526020019081526020016000208190555087600960008381526020019081526020016000208190555087600860008381526020019081526020016000208190555085819080600181540180825580915050906001820390600052602060002001600090919290919091505550600d600081548092919060010191905055507f1653cd545a5ccf5e3c0fdc2847e305f5e5ec5f6036337b0c96dab0a78a0386778d8d878460008f6040516120dd96959493929190613321565b60405180910390a1505b50600083815260096020908152604080832080548a90039055600890915281208054979097039096555b5050505050611dcf565b5050600c8054909201909155505050565b6040518060a0016040528060008152602001600081526020016000815260200160008152602001600081525090565b828054600181600116156101000203166002900490600052602060002090601f016020900481019282601f1061219c57805160ff19168380011785556121c9565b828001600101855582156121c9579182015b828111156121c95782518255916020019190600101906121ae565b506121d5929150612302565b5090565b6040518060200160405280606081525090565b60405180606001604052806000815260200160608152602001606081525090565b604051806040016040528060008152602001606081525090565b6040518060a00160405280600015158152602001600081526020016000815260200160008152602001600081525090565b60405180608001604052806000151581526020016060815260200160008152602001606081525090565b6040518060a0016040528060008152602001600081526020016060815260200160008152602001600081525090565b6040518060800160405280600081526020016060815260200160608152602001600081525090565b8154818355818111156122fd576000838152602090206122fd918101908301612302565b505050565b61066291905b808211156121d55760008155600101612308565b80356123278161372c565b92915050565b803561232781613743565b600082601f83011261234957600080fd5b813561235c61235782613677565b613650565b9150808252602083016020830185838301111561237857600080fd5b6123838382846136ea565b50505092915050565b60006020828403121561239e57600080fd5b60006123aa848461231c565b949350505050565b60008060008060008060008060008060006101608c8e0312156123d457600080fd5b60006123e08e8e61231c565b9b505060206123f18e828f0161231c565b9a505060406124028e828f0161232d565b99505060606124138e828f0161232d565b98505060806124248e828f0161232d565b97505060a06124358e828f0161232d565b96505060c06124468e828f0161232d565b95505060e06124578e828f0161232d565b9450506101006124698e828f0161232d565b93505061012061247b8e828f0161232d565b92505061014061248d8e828f0161232d565b9150509295989b509295989b9093969950565b6000806000606084860312156124b557600080fd5b60006124c1868661231c565b93505060206124d28682870161232d565b92505060406124e38682870161232d565b9150509250925092565b6000602082840312156124ff57600080fd5b813567ffffffffffffffff81111561251657600080fd5b6123aa84828501612338565b6000806040838503121561253557600080fd5b823567ffffffffffffffff81111561254c57600080fd5b61255885828601612338565b925050602083013567ffffffffffffffff81111561257557600080fd5b61258185828601612338565b9150509250929050565b60006020828403121561259d57600080fd5b60006123aa848461232d565b6000806000606084860312156125be57600080fd5b60006125ca868661232d565b93505060206125db8682870161232d565b92505060406124e38682870161231c565b6000806000806080858703121561260257600080fd5b600061260e878761232d565b945050602061261f8782880161232d565b93505060406126308782880161232d565b92505060606126418782880161231c565b91505092959194509250565b60006126598383612698565b505060200190565b600061266d8383612fec565b9392505050565b600061266d83836130af565b600061266d838361310b565b600061266d838361316e565b6126a1816136c3565b82525050565b60006126b2826136b1565b6126bc81856136b5565b93506126c78361369f565b8060005b838110156126f55781516126df888261264d565b97506126ea8361369f565b9250506001016126cb565b509495945050505050565b600061270b826136b1565b61271581856136b5565b9350836020820285016127278561369f565b8060005b8581101561276157848403895281516127448582612661565b945061274f8361369f565b60209a909a019992505060010161272b565b5091979650505050505050565b6000612779826136b1565b61278381856136b5565b9350836020820285016127958561369f565b8060005b8581101561276157848403895281516127b28582612674565b94506127bd8361369f565b60209a909a0199925050600101612799565b60006127da826136b1565b6127e481856136b5565b9350836020820285016127f68561369f565b8060005b8581101561276157848403895281516128138582612680565b945061281e8361369f565b60209a909a01999250506001016127fa565b600061283b826136b1565b61284581856136b5565b9350836020820285016128578561369f565b8060005b858110156127615784840389528151612874858261268c565b945061287f8361369f565b60209a909a019992505060010161285b565b6126a1816136ce565b6126a181610662565b6126a1816136df565b60006128b7826136b1565b6128c181856136b5565b93506128d18185602086016136f6565b6128da81613722565b9093019392505050565b60006128ef826136b1565b6128f981856136be565b93506129098185602086016136f6565b9290920192915050565b600081546001811660008114612930576001811461295357612992565b607f600283041661294181876136be565b60ff1984168152955085019250612992565b6002820461296181876136be565b955061296c856136a5565b60005b8281101561298b5781548882015260019091019060200161296f565b5050850192505b505092915050565b60006129a76016836136b5565b7f496e76616c6964206c6564676572206f776e6572204100000000000000000000815260200192915050565b60006129e06014836136b5565b7f496e76616c6964206c6564676572206f776e6572000000000000000000000000815260200192915050565b6000612a196010836136b5565b7f496e76616c6964207472616e7366657200000000000000000000000000000000815260200192915050565b6000612a52602c836136b5565b7f496e73756666696369656e742063757272656e63792068656c64206279206c6581527f64676572206f776e657220410000000000000000000000000000000000000000602082015260400192915050565b6000612ab16016836136b5565b7f496e76616c6964206c6564676572206f776e6572204200000000000000000000815260200192915050565b6000612aea600e836136b5565b7f496e76616c696420616d6f756e74000000000000000000000000000000000000815260200192915050565b6000612b23602c836136b5565b7f496e73756666696369656e742063757272656e63792068656c64206279206c6581527f64676572206f776e657220420000000000000000000000000000000000000000602082015260400192915050565b6000612b826010836136b5565b7f496e76616c696420454555207479706500000000000000000000000000000000815260200192915050565b6000612bbb6021836136b5565b7f496e73756666696369656e74206c6564676572206f776e65722062616c616e6381527f6500000000000000000000000000000000000000000000000000000000000000602082015260400192915050565b6000612c1a602a836136b5565b60008051602061374d83398151915281527f6572206f776e6572204100000000000000000000000000000000000000000000602082015260400192915050565b6000612c676015836136b5565b7f496e76616c69642063757272656e637920747970650000000000000000000000815260200192915050565b6000612ca06011836136b5565b7f52657374726963746564206d6574686f64000000000000000000000000000000815260200192915050565b6000612cd96018836136b5565b7f45786163746c79206f6e65204545552072657175697265640000000000000000815260200192915050565b6000612d126021836136b5565b7f43757272656e63792074797065206e616d6520616c726561647920657869737481527f7300000000000000000000000000000000000000000000000000000000000000602082015260400192915050565b6000612d716018836136b5565b7f496e76616c69642063757272656e637920616d6f756e74730000000000000000815260200192915050565b6000612daa6022836136b5565b7f4d696e696d756d206f6e652063757272656e637920756e69742072657175697281527f6564000000000000000000000000000000000000000000000000000000000000602082015260400192915050565b6000612e09602a836136b5565b7f436172626f6e20776569676874206d75737420646976696465206576656e6c7981527f20696e746f204545557300000000000000000000000000000000000000000000602082015260400192915050565b6000612e686029836136b5565b7f4d696e696d756d206f6e65206d657472696320746f6e206f6620636172626f6e81527f2072657175697265640000000000000000000000000000000000000000000000602082015260400192915050565b6000612ec76027836136b5565b7f53696e676c652d6f726967696e206d756c7469706c652061737365742064697381527f616c6c6f77656400000000000000000000000000000000000000000000000000602082015260400192915050565b6000612f26602a836136b5565b60008051602061374d83398151915281527f6572206f776e6572204200000000000000000000000000000000000000000000602082015260400192915050565b6000612f736028836136b5565b60008051602061374d83398151915281527f6572206f776e6572000000000000000000000000000000000000000000000000602082015260400192915050565b6000612fc0601c836136b5565b7f4545552074797065206e616d6520616c72656164792065786973747300000000815260200192915050565b80516000906060840190613000858261289a565b506020830151848203602086015261301882826128ac565b9150506040830151848203604086015261303282826128ac565b95945050505050565b805160a083019061304c848261289a565b50602082015161305f602085018261289a565b506040820151613072604085018261289a565b506060820151613085606085018261289a565b506080820151613098608085018261289a565b50505050565b805160a083019061304c8482612891565b805160009060408401906130c3858261289a565b506020830151848203602086015261303282826128ac565b80516020808452600091908401906130328282612700565b8051602080845260009190840190613032828261276e565b8051600090608084019061311f858261289a565b506020830151848203602086015261313782826128ac565b9150506040830151848203604086015261315182826128ac565b9150506060830151613166606086018261289a565b509392505050565b805160009060a0840190613182858261289a565b506020830151613195602086018261289a565b50604083015184820360408601526131ad82826128ac565b91505060608301516131c2606086018261289a565b506080830151613166608086018261289a565b805160009060808401906131e98582612891565b50602083015184820360208601526132018282612830565b9150506040830151613216604086018261289a565b506060830151848203606086015261303282826127cf565b600061266d82846128e4565b600061266d8284612913565b608081016132548287612698565b6132616020830186612698565b61326e604083018561289a565b613032606083018461289a565b60a081016132898288612698565b6132966020830187612698565b6132a3604083018661289a565b6132b060608301856128a3565b6132bd608083018461289a565b9695505050505050565b60c081016132d58289612698565b6132e26020830188612698565b6132ef604083018761289a565b6132fc60608301866128a3565b613309608083018561289a565b61331660a083018461289a565b979650505050505050565b60c0810161332f8289612698565b61333c6020830188612698565b613349604083018761289a565b613356606083018661289a565b61330960808301856128a3565b6020808252810161266d81846126a7565b6020808252810161266d81846128ac565b602080825281016123278161299a565b60208082528101612327816129d3565b6020808252810161232781612a0c565b6020808252810161232781612a45565b6020808252810161232781612aa4565b6020808252810161232781612add565b6020808252810161232781612b16565b6020808252810161232781612b75565b6020808252810161232781612bae565b6020808252810161232781612c0d565b6020808252810161232781612c5a565b6020808252810161232781612c93565b6020808252810161232781612ccc565b6020808252810161232781612d05565b6020808252810161232781612d64565b6020808252810161232781612d9d565b6020808252810161232781612dfc565b6020808252810161232781612e5b565b6020808252810161232781612eba565b6020808252810161232781612f19565b6020808252810161232781612f66565b6020808252810161232781612fb3565b60a08101612327828461303b565b60a08101612327828461309e565b6020808252810161266d81846130db565b6020808252810161266d81846130f3565b6020808252810161266d81846131d5565b60208101612327828461289a565b60608101613550828661289a565b61355d6020830185612698565b6123aa604083018461289a565b60408101613578828561289a565b81810360208301526123aa81846128ac565b60608101613598828661289a565b81810360208301526135aa81856128ac565b9050818103604083015261303281846128ac565b608081016135cc828761289a565b6135d9602083018661289a565b61326e6040830185612698565b60a081016135f4828861289a565b613601602083018761289a565b61360e6040830186612698565b6132b0606083018561289a565b60a08101613629828861289a565b613636602083018761289a565b613643604083018661289a565b6132b06060830185612698565b60405181810167ffffffffffffffff8111828210171561366f57600080fd5b604052919050565b600067ffffffffffffffff82111561368e57600080fd5b506020601f91909101601f19160190565b60200190565b60009081526020902090565b5190565b90815260200190565b919050565b6000612327826136d3565b151590565b600160a060020a031690565b600061232782610662565b82818337506000910152565b60005b838110156137115781810151838201526020016136f9565b838111156130985750506000910152565b601f01601f191690565b613735816136c3565b811461374057600080fd5b50565b6137358161066256fe496e73756666696369656e7420636172626f6e2068656c64206279206c656467a265627a7a723058202a843fa3cc46ae81b1f6e9f88dc6826b51b7935f17376a34c397ed447587d8616c6578706572696d656e74616cf50037",
  "source": "pragma solidity 0.5.8;\npragma experimental ABIEncoderV2;\n\nimport \"./EeuMintable.sol\";\nimport \"./EeuBurnable.sol\";\nimport \"./CcyFundable.sol\";\nimport \"./CcyWithdrawable.sol\";\nimport \"./EeuTransferable.sol\";\n\ncontract AcMaster is EeuMintable, EeuBurnable, CcyFundable, CcyWithdrawable, EeuTransferable {\n    string public version;\n\n    /**\n     * ctor\n     */\n    constructor() public {\n        version = \"0.0.6\";\n\n         // create ledger entry for contract owner - transfer fees are paid to this ledger entry\n        _ledger[owner] = Ledger({\n            exists: true\n        });\n        _ledgerOwners.push(owner);\n    }\n}\n",
  "sourcePath": "/Users/dom/ac/ac-monorepo/packages/erc20/contracts/AcMaster/AcMaster.sol",
  "compiler": {
    "name": "solc",
    "version": "0.5.8+commit.23d335f2.Emscripten.clang"
  },
  "schemaVersion": "3.0.11",
  "updatedAt": "2019-08-15T20:17:20.476Z",
  "devdoc": {
    "methods": {
      "addCcyType(string,string)": {
        "details": "Adds a new currency type",
        "params": {
          "name": "The new currency type name",
          "unit": "The base unit of the new currency type"
        }
      },
      "addEeuType(string)": {
        "details": "Adds a new EEU type",
        "params": {
          "name": "The new EEU type name"
        }
      },
      "fund(uint256,int256,address)": {
        "details": "Funds a ledger entry with a currency amount",
        "params": {
          "amount": "The mount of the currency to fund, in currency base units",
          "ccyTypeId": "The currency type ID",
          "ledgerOwner": "The ledger owner to fund"
        }
      },
      "getCcyTypes()": {
        "details": "Returns current currency types"
      },
      "getEeu(uint256)": {
        "details": "Returns an EEU by ID"
      },
      "getEeuBatch(uint256)": {
        "details": "Returns an EEU batch by ID"
      },
      "getEeuBatchCount()": {
        "details": "Returns the global EEU batch count"
      },
      "getEeuMintedCount()": {
        "details": "Returns the total global number of EEUs minted"
      },
      "getEeuTypes()": {
        "details": "Returns current EEU types"
      },
      "getKgCarbonBurned()": {
        "details": "Returns the total global tonnage of carbon burned"
      },
      "getKgCarbonMinted()": {
        "details": "Returns the total global tonnage of carbon minted"
      },
      "getLedgerEntry(address)": {
        "details": "Returns the ledger entry for a single account"
      },
      "getLedgerOwners()": {
        "details": "Returns all accounts in the ledger"
      },
      "getTotalCcyTransfered(uint256)": {
        "details": "Returns the total global currency amount transfered for the supplied currency"
      },
      "getTotalFunded(uint256)": {
        "details": "Returns the total global amount funded for the supplied currency"
      },
      "getTotalKgTransfered()": {
        "details": "Returns the total global tonnage of carbon transfered"
      },
      "getTotalWithdrawn(uint256)": {
        "details": "Returns the total global amount withdrawn for the supplied currency"
      },
      "mintEeuBatch(uint256,int256,int256,address)": {
        "details": "Mints and assigns initial ownership of a new EEU batch",
        "params": {
          "batchOwner": "The ledger owner to assign the minted EEUs to",
          "eeuTypeId": "The EEU-type for the batch",
          "qtyEeus": "The quantity of EEUs to mint - recommended, due to memory & gas cost, always set to 1",
          "qtyKG": "The KG quanity of carbon to mint across the EEUs"
        }
      },
      "retireCarbon(address,uint256,int256)": {
        "details": "Burns carbons by resizing EEUs, and/or removing EEUs from the ledgerRemoves EEUs (or fractions thereof) from the main list and from the ledger, resizing as necessaryThe supplied ledger owner must hold the supplied quantity of carbon in aggregate across ledger EEUs, and of the supplied type",
        "params": {
          "eeuTypeId": "The EEU type to burn",
          "ledgerOwner": "The ledger owner to burn",
          "qtyKG": "The tonnage to burn"
        }
      },
      "transfer(address,address,uint256,uint256,uint256,uint256,int256,uint256,int256,uint256,uint256)": {
        "details": "Transfers or trades assets between ledger accountsallows: one-sided transfers, allows transfers of same asset types and transfers (trades) of different asset typesdisallows: movement from a single origin of more than one asset-type",
        "params": {
          "ccyTypeId_A": "The currency type to move from A to B",
          "ccyTypeId_B": "The currency type to move from B to A     * configurable fees TODO: both sides - fixed value or % value FEE - with system/exchange account passed in as receiver      take fees (both sides possibly) before applying main transfer      throw if insufficient to cover fees TODO: events for fees",
          "ccy_amount_A": "The amount of currency to move from A to B",
          "ccy_amount_B": "The amount of currency to move from B to A",
          "eeuTypeId_A": "The EEU type to move from A to B",
          "eeuTypeId_B": "The EEU type to move from A to B",
          "kg_A": "The KG quantity of carbon to move from A to B",
          "kg_B": "The KG quanity of carbon to move from B to A",
          "ledger_A": "Ledger owner A",
          "ledger_B": "Ledger owner B"
        }
      },
      "withdraw(uint256,int256,address)": {
        "details": "Withdraws currency from a ledger entry",
        "params": {
          "amount": "The mount of the currency to withdraw, in currency base units",
          "ccyTypeId": "The currency type ID",
          "ledgerOwner": "The withdrawing ledger owner"
        }
      }
    }
  },
  "userdoc": {
    "methods": {
      "constructor": "ctor"
    }
  }
}