{
  "contractName": "AcStatic",
  "abi": [
    {
      "constant": true,
      "inputs": [],
      "name": "version",
      "outputs": [
        {
          "name": "",
          "type": "string"
        }
      ],
      "payable": false,
      "stateMutability": "view",
      "type": "function"
    },
    {
      "inputs": [],
      "payable": false,
      "stateMutability": "nonpayable",
      "type": "constructor"
    },
    {
      "constant": true,
      "inputs": [],
      "name": "getEeuTypeIds",
      "outputs": [
        {
          "components": [
            {
              "components": [
                {
                  "name": "eeuTypeId",
                  "type": "uint256"
                },
                {
                  "name": "eeuTypeName",
                  "type": "string"
                }
              ],
              "name": "eeuTypes",
              "type": "tuple[]"
            }
          ],
          "name": "eeuTypes",
          "type": "tuple"
        }
      ],
      "payable": false,
      "stateMutability": "view",
      "type": "function"
    }
  ],
  "bytecode": "0x608060405234801561001057600080fd5b506040518060400160405280600581526020017f302e302e340000000000000000000000000000000000000000000000000000008152506000908051906020019061005c929190610124565b506040518060400160405280600681526020017f554e4643434300000000000000000000000000000000000000000000000000008152506001600080815260200190815260200160002090805190602001906100b9929190610124565b506040518060400160405280600381526020017f564353000000000000000000000000000000000000000000000000000000000081525060016000600181526020019081526020016000209080519060200190610117929190610124565b50600280819055506101c9565b828054600181600116156101000203166002900490600052602060002090601f016020900481019282601f1061016557805160ff1916838001178555610193565b82800160010185558215610193579182015b82811115610192578251825591602001919060010190610177565b5b5090506101a091906101a4565b5090565b6101c691905b808211156101c25760008160009055506001016101aa565b5090565b90565b610541806101d86000396000f3fe608060405234801561001057600080fd5b50600436106100365760003560e01c806332de10e41461003b57806354fd4d5014610059575b600080fd5b610043610077565b6040516100509190610434565b60405180910390f35b6100616101d6565b60405161006e9190610412565b60405180910390f35b61007f610274565b60606002546040519080825280602002602001820160405280156100bd57816020015b6100aa610287565b8152602001906001900390816100a25790505b50905060008090505b6002548110156101b4576040518060400160405280828152602001600160008481526020019081526020016000208054600181600116156101000203166002900480601f0160208091040260200160405190810160405280929190818152602001828054600181600116156101000203166002900480156101885780601f1061015d57610100808354040283529160200191610188565b820191906000526020600020905b81548152906001019060200180831161016b57829003601f168201915b505050505081525082828151811061019c57fe5b602002602001018190525080806001019150506100c6565b506101bd610274565b6040518060200160405280838152509050809250505090565b60008054600181600116156101000203166002900480601f01602080910402602001604051908101604052809291908181526020018280546001816001161561010002031660029004801561026c5780601f106102415761010080835404028352916020019161026c565b820191906000526020600020905b81548152906001019060200180831161024f57829003601f168201915b505050505081565b6040518060200160405280606081525090565b604051806040016040528060008152602001606081525090565b60006102ad838361039c565b905092915050565b60006102c082610463565b6102ca8185610486565b9350836020820285016102dc85610456565b8060005b8581101561031857848403895281516102f985826102a1565b945061030483610479565b925060208a019950506001810190506102e0565b50829750879550505050505092915050565b60006103358261046e565b61033f8185610497565b935061034f8185602086016104c3565b610358816104f6565b840191505092915050565b600061036e8261046e565b61037881856104a8565b93506103888185602086016104c3565b610391816104f6565b840191505092915050565b60006040830160008301516103b46000860182610403565b50602083015184820360208601526103cc828261032a565b9150508091505092915050565b600060208301600083015184820360008601526103f682826102b5565b9150508091505092915050565b61040c816104b9565b82525050565b6000602082019050818103600083015261042c8184610363565b905092915050565b6000602082019050818103600083015261044e81846103d9565b905092915050565b6000602082019050919050565b600081519050919050565b600081519050919050565b6000602082019050919050565b600082825260208201905092915050565b600082825260208201905092915050565b600082825260208201905092915050565b6000819050919050565b60005b838110156104e15780820151818401526020810190506104c6565b838111156104f0576000848401525b50505050565b6000601f19601f830116905091905056fea265627a7a7230582069f6be24d1ebdf72e97444f6fc2dece3d2a327b2b03f8eba30b4744b90fd8bed6c6578706572696d656e74616cf50037",
  "source": "pragma solidity 0.5.8;\r\npragma experimental ABIEncoderV2;\r\n\r\n/**\r\n  * Manages static data used by AcMaster\r\n  */\r\ncontract AcStatic {\r\n    string public version;\r\n\r\n    mapping(uint256 => string) eeuTypeIds;\r\n    uint count_eeuTypeIds;\r\n    struct EeuTypeReturn {\r\n        uint256 eeuTypeId;\r\n        string eeuTypeName;\r\n    }\r\n    struct GetEeuTypeReturn {\r\n        EeuTypeReturn[] eeuTypes;\r\n    }\r\n\r\n    /**\r\n     * ctor\r\n     */\r\n    constructor() public {\r\n        version = \"0.0.4\";\r\n        eeuTypeIds[0] = 'UNFCCC';\r\n        eeuTypeIds[1] = 'VCS';\r\n        count_eeuTypeIds = 2;\r\n    }\r\n\r\n    /**\r\n     * @dev Returns EeuType enumeration\r\n     */\r\n    function getEeuTypeIds() external view returns (GetEeuTypeReturn memory eeuTypes) {\r\n        EeuTypeReturn[] memory eeuTypes;\r\n        eeuTypes = new EeuTypeReturn[](count_eeuTypeIds);\r\n\r\n        for (uint256 eeuTypeId = 0; eeuTypeId < count_eeuTypeIds; eeuTypeId++) {\r\n            eeuTypes[eeuTypeId] = EeuTypeReturn({\r\n                eeuTypeId: eeuTypeId,\r\n              eeuTypeName: eeuTypeIds[eeuTypeId]\r\n            });\r\n        }\r\n\r\n        GetEeuTypeReturn memory ret = GetEeuTypeReturn({\r\n            eeuTypes: eeuTypes\r\n        });\r\n        return ret;\r\n    }\r\n}\r\n",
  "sourcePath": "C:/ac/src/ac-monorepo/packages/erc20/contracts/AcStatic/AcMaster.sol",
  "compiler": {
    "name": "solc",
    "version": "0.5.8+commit.23d335f2.Emscripten.clang"
  },
  "schemaVersion": "3.0.11",
  "updatedAt": "2019-08-05T05:27:40.349Z",
  "devdoc": {
    "methods": {
      "getEeuTypeIds()": {
        "details": "Returns EeuType enumeration\r"
      }
    }
  },
  "userdoc": {
    "methods": {
      "constructor": "ctor\r"
    },
    "notice": "Manages static data used by AcMaster\r"
  }
}