{
  "contractName": "CcyTypes",
  "abi": [
    {
      "inputs": [],
      "payable": false,
      "stateMutability": "nonpayable",
      "type": "constructor"
    },
    {
      "anonymous": false,
      "inputs": [
        {
          "indexed": false,
          "name": "id",
          "type": "uint256"
        },
        {
          "indexed": false,
          "name": "name",
          "type": "string"
        },
        {
          "indexed": false,
          "name": "unit",
          "type": "string"
        }
      ],
      "name": "AddedCcyType",
      "type": "event"
    },
    {
      "constant": false,
      "inputs": [
        {
          "name": "name",
          "type": "string"
        },
        {
          "name": "unit",
          "type": "string"
        }
      ],
      "name": "addCcyType",
      "outputs": [],
      "payable": false,
      "stateMutability": "nonpayable",
      "type": "function"
    },
    {
      "constant": true,
      "inputs": [],
      "name": "getCcyTypes",
      "outputs": [
        {
          "components": [
            {
              "components": [
                {
                  "name": "id",
                  "type": "uint256"
                },
                {
                  "name": "name",
                  "type": "string"
                },
                {
                  "name": "unit",
                  "type": "string"
                }
              ],
              "name": "ccyTypes",
              "type": "tuple[]"
            }
          ],
          "name": "",
          "type": "tuple"
        }
      ],
      "payable": false,
      "stateMutability": "view",
      "type": "function"
    }
  ],
  "bytecode": "0x608060405234801561001057600080fd5b5060008054600160a060020a031916331781556040805160608101825282815281518083018352600381527f555344000000000000000000000000000000000000000000000000000000000060208281019190915280830191825283518085018552600581527f63656e747300000000000000000000000000000000000000000000000000000081830152938301939093529280526001825280517fa6eef7e35abe7026729641147f7915573c7e97b47efa546f5f6e3230263bcb4990815592518051919392610105927fa6eef7e35abe7026729641147f7915573c7e97b47efa546f5f6e3230263bcb4a929091019061022f565b506040820151805161012191600284019160209091019061022f565b50506040805160608101825260018082528251808401845260038082527f4554480000000000000000000000000000000000000000000000000000000000602083810191909152808501928352855180870187529182527f57656900000000000000000000000000000000000000000000000000000000008282015294840152600082905290835281517fcc69885fda6bcc1a4ace058b4a62bf5e179ea78fd58a1ccd71c22cc9b688792f908155905180519294509092610207927fcc69885fda6bcc1a4ace058b4a62bf5e179ea78fd58a1ccd71c22cc9b6887930929091019061022f565b506040820151805161022391600284019160209091019061022f565b505060028055506102ca565b828054600181600116156101000203166002900490600052602060002090601f016020900481019282601f1061027057805160ff191683800117855561029d565b8280016001018555821561029d579182015b8281111561029d578251825591602001919060010190610282565b506102a99291506102ad565b5090565b6102c791905b808211156102a957600081556001016102b3565b90565b6109bf806102d96000396000f3fe608060405234801561001057600080fd5b5060043610610052577c010000000000000000000000000000000000000000000000000000000060003504630834e86481146100575780634dc26ae81461006c575b600080fd5b61006a610065366004610563565b61008a565b005b610074610248565b6040516100819190610887565b60405180910390f35b60005473ffffffffffffffffffffffffffffffffffffffff1633146100e4576040517f08c379a00000000000000000000000000000000000000000000000000000000081526004016100db90610861565b60405180910390fd5b60005b60025481101561019457826040516020016101029190610849565b604051602081830303815290604052805190602001206001600083815260200190815260200160002060010160405160200161013e9190610855565b60405160208183030381529060405280519060200120141561018c576040517f08c379a00000000000000000000000000000000000000000000000000000000081526004016100db90610877565b6001016100e7565b5060408051606081018252600254808252602080830186815283850186905260009283526001808352949092208351815591518051939492936101de938501929190910190610443565b50604082015180516101fa916002840191602090910190610443565b509050507f41c4a4be5d1fed810ab0ace2ffe78022538a72356773c24ed010e06bdf6454b7600254838360405161023393929190610898565b60405180910390a15050600280546001019055565b6102506104c1565b606060025460405190808252806020026020018201604052801561028e57816020015b61027b6104d4565b8152602001906001900390816102735790505b50905060005b6002548110156104255760408051606081018252600083815260016020818152848320805485529286905281815291810180548551600293821615610100026000190190911692909204601f8101849004840283018401909552848252929382850193919283018282801561034a5780601f1061031f5761010080835404028352916020019161034a565b820191906000526020600020905b81548152906001019060200180831161032d57829003601f168201915b50505050508152602001600160008481526020019081526020016000206002018054600181600116156101000203166002900480601f0160208091040260200160405190810160405280929190818152602001828054600181600116156101000203166002900480156103fe5780601f106103d3576101008083540402835291602001916103fe565b820191906000526020600020905b8154815290600101906020018083116103e157829003601f168201915b505050505081525082828151811061041257fe5b6020908102919091010152600101610294565b5061042e6104c1565b50604080516020810190915290815290505b90565b828054600181600116156101000203166002900490600052602060002090601f016020900481019282601f1061048457805160ff19168380011785556104b1565b828001600101855582156104b1579182015b828111156104b1578251825591602001919060010190610496565b506104bd9291506104f5565b5090565b6040518060200160405280606081525090565b60405180606001604052806000815260200160608152602001606081525090565b61044091905b808211156104bd57600081556001016104fb565b600082601f83011261052057600080fd5b813561053361052e826108f3565b6108cc565b9150808252602083016020830185838301111561054f57600080fd5b61055a83828461093f565b50505092915050565b6000806040838503121561057657600080fd5b823567ffffffffffffffff81111561058d57600080fd5b6105998582860161050f565b925050602083013567ffffffffffffffff8111156105b657600080fd5b6105c28582860161050f565b9150509250929050565b60006105d883836107d3565b9392505050565b60006105ea8261092d565b6105f48185610931565b9350836020820285016106068561091b565b8060005b85811015610640578484038952815161062385826105cc565b945061062e8361091b565b60209a909a019992505060010161060a565b5091979650505050505050565b60006106588261092d565b6106628185610931565b935061067281856020860161094b565b61067b8161097b565b9093019392505050565b60006106908261092d565b61069a818561093a565b93506106aa81856020860161094b565b9290920192915050565b6000815460018116600081146106d157600181146106f457610733565b607f60028304166106e2818761093a565b60ff1984168152955085019250610733565b60028204610702818761093a565b955061070d85610921565b60005b8281101561072c57815488820152600190910190602001610710565b5050850192505b505092915050565b6000610748601183610931565b7f52657374726963746564206d6574686f64000000000000000000000000000000815260200192915050565b6000610781602183610931565b7f43757272656e63792074797065206e616d6520616c726561647920657869737481527f7300000000000000000000000000000000000000000000000000000000000000602082015260400192915050565b805160009060608401906107e7858261083a565b50602083015184820360208601526107ff828261064d565b91505060408301518482036040860152610819828261064d565b95945050505050565b805160208084526000919084019061081982826105df565b61084381610440565b82525050565b60006105d88284610685565b60006105d882846106b4565b602080825281016108718161073b565b92915050565b6020808252810161087181610774565b602080825281016105d88184610822565b606081016108a6828661083a565b81810360208301526108b8818561064d565b90508181036040830152610819818461064d565b60405181810167ffffffffffffffff811182821017156108eb57600080fd5b604052919050565b600067ffffffffffffffff82111561090a57600080fd5b506020601f91909101601f19160190565b60200190565b60009081526020902090565b5190565b90815260200190565b919050565b82818337506000910152565b60005b8381101561096657818101518382015260200161094e565b83811115610975576000848401525b50505050565b601f01601f19169056fea265627a7a7230582057f5134aa6f2c49ab853a963cb34583b8e118799c6d34bb8687ab7b71d3dc1836c6578706572696d656e74616cf50037",
  "source": "pragma solidity 0.5.8;\r\npragma experimental ABIEncoderV2;\r\n\r\nimport \"./Owned.sol\";\r\n\r\n/**\r\n  * Manages currency types used by AcMaster\r\n  */\r\ncontract CcyTypes is Owned {\r\n    event AddedCcyType(uint256 id, string name, string unit);\r\n\r\n    // *** CCY TYPES\r\n    struct Ccy {\r\n        uint256 id;\r\n        string  name; // e.g. \"USD\", \"BTC\", \"ETH\"\r\n        string  unit; // e.g. \"cents\", \"satoshi\", \"wei\"\r\n    }\r\n    mapping(uint256 => Ccy) _ccyTypes; // typeId -> ccy\r\n    uint256 _count_ccyTypes;\r\n    struct GetCcyTypesReturn {\r\n        Ccy[] ccyTypes;\r\n    }\r\n\r\n     constructor() public {\r\n        // default currency types\r\n        _ccyTypes[0] = Ccy({\r\n            id: 0,\r\n            name: 'USD',\r\n            unit: 'cents'\r\n        });\r\n        _ccyTypes[1] = Ccy({\r\n            id: 1,\r\n            name: 'ETH',\r\n            unit: 'Wei'\r\n        });\r\n        _count_ccyTypes = 2;\r\n    }\r\n\r\n    /**\r\n     * @dev Adds a new currency type\r\n     * @param name The new currency type name\r\n     * @param unit The base unit of the new currency type\r\n     */\r\n    function addCcyType(string memory name, string memory unit) public {\r\n        require(msg.sender == owner, \"Restricted method\");\r\n\r\n        for (uint256 ccyTypeId = 0; ccyTypeId < _count_ccyTypes; ccyTypeId++) {\r\n            require(keccak256(abi.encodePacked(_ccyTypes[ccyTypeId].name)) != keccak256(abi.encodePacked(name)),\r\n                    \"Currency type name already exists\");\r\n        }\r\n\r\n        _ccyTypes[_count_ccyTypes] = Ccy({\r\n              id: _count_ccyTypes,\r\n            name: name,\r\n            unit: unit\r\n        });\r\n        emit AddedCcyType(_count_ccyTypes, name, unit);\r\n        \r\n        _count_ccyTypes++;\r\n    }\r\n\r\n    /**\r\n     * @dev Returns current currency types\r\n     */\r\n    function getCcyTypes() external view returns (GetCcyTypesReturn memory) {\r\n        Ccy[] memory ccyTypes;\r\n        ccyTypes = new Ccy[](_count_ccyTypes);\r\n\r\n        for (uint256 ccyTypeId = 0; ccyTypeId < _count_ccyTypes; ccyTypeId++) {\r\n            ccyTypes[ccyTypeId] = Ccy({\r\n                    id: _ccyTypes[ccyTypeId].id,\r\n                  name: _ccyTypes[ccyTypeId].name,\r\n                  unit: _ccyTypes[ccyTypeId].unit\r\n            });\r\n        }\r\n\r\n        GetCcyTypesReturn memory ret = GetCcyTypesReturn({\r\n            ccyTypes: ccyTypes\r\n        });\r\n        return ret;\r\n    }\r\n}\r\n",
  "sourcePath": "C:\\ac\\src\\ac-monorepo\\packages\\erc20\\contracts\\AcMaster\\CcyTypes.sol",
  "compiler": {
    "name": "solc",
    "version": "0.5.8+commit.23d335f2.Emscripten.clang"
  },
  "schemaVersion": "3.0.11",
  "updatedAt": "2019-08-09T12:06:27.795Z",
  "devdoc": {
    "methods": {
      "addCcyType(string,string)": {
        "details": "Adds a new currency type\r",
        "params": {
          "name": "The new currency type name\r",
          "unit": "The base unit of the new currency type\r"
        }
      },
      "getCcyTypes()": {
        "details": "Returns current currency types\r"
      }
    }
  },
  "userdoc": {
    "methods": {},
    "notice": "Manages currency types used by AcMaster\r"
  }
}