{
  "contractName": "CcyTypes",
  "abi": [
    {
      "inputs": [],
      "payable": false,
      "stateMutability": "nonpayable",
      "type": "constructor"
    },
    {
      "anonymous": false,
      "inputs": [
        {
          "indexed": false,
          "name": "id",
          "type": "uint256"
        },
        {
          "indexed": false,
          "name": "name",
          "type": "string"
        },
        {
          "indexed": false,
          "name": "unit",
          "type": "string"
        }
      ],
      "name": "AddedCcyType",
      "type": "event"
    },
    {
      "constant": false,
      "inputs": [
        {
          "name": "name",
          "type": "string"
        },
        {
          "name": "unit",
          "type": "string"
        }
      ],
      "name": "addCcyType",
      "outputs": [],
      "payable": false,
      "stateMutability": "nonpayable",
      "type": "function"
    },
    {
      "constant": true,
      "inputs": [],
      "name": "getCcyTypes",
      "outputs": [
        {
          "components": [
            {
              "components": [
                {
                  "name": "id",
                  "type": "uint256"
                },
                {
                  "name": "name",
                  "type": "string"
                },
                {
                  "name": "unit",
                  "type": "string"
                }
              ],
              "name": "ccyTypes",
              "type": "tuple[]"
            }
          ],
          "name": "",
          "type": "tuple"
        }
      ],
      "payable": false,
      "stateMutability": "view",
      "type": "function"
    }
  ],
  "bytecode": "0x608060405234801561001057600080fd5b5060008054600160a060020a031916331781556040805160608101825282815281518083018352600381527f555344000000000000000000000000000000000000000000000000000000000060208281019190915280830191825283518085018552600581527f63656e747300000000000000000000000000000000000000000000000000000081830152938301939093529280526001825280517fa6eef7e35abe7026729641147f7915573c7e97b47efa546f5f6e3230263bcb4990815592518051919392610105927fa6eef7e35abe7026729641147f7915573c7e97b47efa546f5f6e3230263bcb4a929091019061022f565b506040820151805161012191600284019160209091019061022f565b50506040805160608101825260018082528251808401845260038082527f4554480000000000000000000000000000000000000000000000000000000000602083810191909152808501928352855180870187529182527f57656900000000000000000000000000000000000000000000000000000000008282015294840152600082905290835281517fcc69885fda6bcc1a4ace058b4a62bf5e179ea78fd58a1ccd71c22cc9b688792f908155905180519294509092610207927fcc69885fda6bcc1a4ace058b4a62bf5e179ea78fd58a1ccd71c22cc9b6887930929091019061022f565b506040820151805161022391600284019160209091019061022f565b505060028055506102ca565b828054600181600116156101000203166002900490600052602060002090601f016020900481019282601f1061027057805160ff191683800117855561029d565b8280016001018555821561029d579182015b8281111561029d578251825591602001919060010190610282565b506102a99291506102ad565b5090565b6102c791905b808211156102a957600081556001016102b3565b90565b610991806102d96000396000f3fe608060405234801561001057600080fd5b5060043610610052577c010000000000000000000000000000000000000000000000000000000060003504630834e86481146100575780634dc26ae81461006c575b600080fd5b61006a610065366004610535565b61008a565b005b61007461021a565b6040516100819190610859565b60405180910390f35b60005473ffffffffffffffffffffffffffffffffffffffff1633146100cd5760405160e560020a62461bcd0281526004016100c490610833565b60405180910390fd5b60005b60025481101561016657826040516020016100eb919061081b565b60405160208183030381529060405280519060200120600160008381526020019081526020016000206001016040516020016101279190610827565b60405160208183030381529060405280519060200120141561015e5760405160e560020a62461bcd0281526004016100c490610849565b6001016100d0565b5060408051606081018252600254808252602080830186815283850186905260009283526001808352949092208351815591518051939492936101b0938501929190910190610415565b50604082015180516101cc916002840191602090910190610415565b509050507f41c4a4be5d1fed810ab0ace2ffe78022538a72356773c24ed010e06bdf6454b760025483836040516102059392919061086a565b60405180910390a15050600280546001019055565b610222610493565b606060025460405190808252806020026020018201604052801561026057816020015b61024d6104a6565b8152602001906001900390816102455790505b50905060005b6002548110156103f75760408051606081018252600083815260016020818152848320805485529286905281815291810180548551600293821615610100026000190190911692909204601f8101849004840283018401909552848252929382850193919283018282801561031c5780601f106102f15761010080835404028352916020019161031c565b820191906000526020600020905b8154815290600101906020018083116102ff57829003601f168201915b50505050508152602001600160008481526020019081526020016000206002018054600181600116156101000203166002900480601f0160208091040260200160405190810160405280929190818152602001828054600181600116156101000203166002900480156103d05780601f106103a5576101008083540402835291602001916103d0565b820191906000526020600020905b8154815290600101906020018083116103b357829003601f168201915b50505050508152508282815181106103e457fe5b6020908102919091010152600101610266565b50610400610493565b50604080516020810190915290815290505b90565b828054600181600116156101000203166002900490600052602060002090601f016020900481019282601f1061045657805160ff1916838001178555610483565b82800160010185558215610483579182015b82811115610483578251825591602001919060010190610468565b5061048f9291506104c7565b5090565b6040518060200160405280606081525090565b60405180606001604052806000815260200160608152602001606081525090565b61041291905b8082111561048f57600081556001016104cd565b600082601f8301126104f257600080fd5b8135610505610500826108c5565b61089e565b9150808252602083016020830185838301111561052157600080fd5b61052c838284610911565b50505092915050565b6000806040838503121561054857600080fd5b823567ffffffffffffffff81111561055f57600080fd5b61056b858286016104e1565b925050602083013567ffffffffffffffff81111561058857600080fd5b610594858286016104e1565b9150509250929050565b60006105aa83836107a5565b9392505050565b60006105bc826108ff565b6105c68185610903565b9350836020820285016105d8856108ed565b8060005b8581101561061257848403895281516105f5858261059e565b9450610600836108ed565b60209a909a01999250506001016105dc565b5091979650505050505050565b600061062a826108ff565b6106348185610903565b935061064481856020860161091d565b61064d8161094d565b9093019392505050565b6000610662826108ff565b61066c818561090c565b935061067c81856020860161091d565b9290920192915050565b6000815460018116600081146106a357600181146106c657610705565b607f60028304166106b4818761090c565b60ff1984168152955085019250610705565b600282046106d4818761090c565b95506106df856108f3565b60005b828110156106fe578154888201526001909101906020016106e2565b5050850192505b505092915050565b600061071a601183610903565b7f52657374726963746564206d6574686f64000000000000000000000000000000815260200192915050565b6000610753602183610903565b7f43757272656e63792074797065206e616d6520616c726561647920657869737481527f7300000000000000000000000000000000000000000000000000000000000000602082015260400192915050565b805160009060608401906107b9858261080c565b50602083015184820360208601526107d1828261061f565b915050604083015184820360408601526107eb828261061f565b95945050505050565b80516020808452600091908401906107eb82826105b1565b61081581610412565b82525050565b60006105aa8284610657565b60006105aa8284610686565b602080825281016108438161070d565b92915050565b6020808252810161084381610746565b602080825281016105aa81846107f4565b60608101610878828661080c565b818103602083015261088a818561061f565b905081810360408301526107eb818461061f565b60405181810167ffffffffffffffff811182821017156108bd57600080fd5b604052919050565b600067ffffffffffffffff8211156108dc57600080fd5b506020601f91909101601f19160190565b60200190565b60009081526020902090565b5190565b90815260200190565b919050565b82818337506000910152565b60005b83811015610938578181015183820152602001610920565b83811115610947576000848401525b50505050565b601f01601f19169056fea265627a7a723058207280cb26220f752e9d87903c006713e88ebf7f725e490b8895498a8f15608e9d6c6578706572696d656e74616cf50037",
  "source": "pragma solidity 0.5.8;\npragma experimental ABIEncoderV2;\n\nimport \"./Owned.sol\";\n\n/**\n  * Manages currency types used by AcMaster\n  */\ncontract CcyTypes is Owned {\n    event AddedCcyType(uint256 id, string name, string unit);\n\n    // *** CCY TYPES\n    struct Ccy {\n        uint256 id;\n        string  name; // e.g. \"USD\", \"BTC\", \"ETH\"\n        string  unit; // e.g. \"cents\", \"satoshi\", \"wei\"\n    }\n    mapping(uint256 => Ccy) _ccyTypes; // typeId -> ccy\n    uint256 _count_ccyTypes;\n    struct GetCcyTypesReturn {\n        Ccy[] ccyTypes;\n    }\n\n     constructor() public {\n        // default currency types\n        _ccyTypes[0] = Ccy({\n            id: 0,\n            name: 'USD',\n            unit: 'cents'\n        });\n        _ccyTypes[1] = Ccy({\n            id: 1,\n            name: 'ETH',\n            unit: 'Wei'\n        });\n        _count_ccyTypes = 2;\n    }\n\n    /**\n     * @dev Adds a new currency type\n     * @param name The new currency type name\n     * @param unit The base unit of the new currency type\n     */\n    function addCcyType(string memory name, string memory unit) public {\n        require(msg.sender == owner, \"Restricted method\");\n\n        for (uint256 ccyTypeId = 0; ccyTypeId < _count_ccyTypes; ccyTypeId++) {\n            require(keccak256(abi.encodePacked(_ccyTypes[ccyTypeId].name)) != keccak256(abi.encodePacked(name)),\n                    \"Currency type name already exists\");\n        }\n\n        _ccyTypes[_count_ccyTypes] = Ccy({\n              id: _count_ccyTypes,\n            name: name,\n            unit: unit\n        });\n        emit AddedCcyType(_count_ccyTypes, name, unit);\n        \n        _count_ccyTypes++;\n    }\n\n    /**\n     * @dev Returns current currency types\n     */\n    function getCcyTypes() external view returns (GetCcyTypesReturn memory) {\n        Ccy[] memory ccyTypes;\n        ccyTypes = new Ccy[](_count_ccyTypes);\n\n        for (uint256 ccyTypeId = 0; ccyTypeId < _count_ccyTypes; ccyTypeId++) {\n            ccyTypes[ccyTypeId] = Ccy({\n                    id: _ccyTypes[ccyTypeId].id,\n                  name: _ccyTypes[ccyTypeId].name,\n                  unit: _ccyTypes[ccyTypeId].unit\n            });\n        }\n\n        GetCcyTypesReturn memory ret = GetCcyTypesReturn({\n            ccyTypes: ccyTypes\n        });\n        return ret;\n    }\n}\n",
  "sourcePath": "/Users/dom/ac/ac-monorepo/packages/erc20/contracts/AcMaster/CcyTypes.sol",
  "compiler": {
    "name": "solc",
    "version": "0.5.8+commit.23d335f2.Emscripten.clang"
  },
  "schemaVersion": "3.0.11",
  "updatedAt": "2019-08-15T20:17:20.487Z",
  "devdoc": {
    "methods": {
      "addCcyType(string,string)": {
        "details": "Adds a new currency type",
        "params": {
          "name": "The new currency type name",
          "unit": "The base unit of the new currency type"
        }
      },
      "getCcyTypes()": {
        "details": "Returns current currency types"
      }
    }
  },
  "userdoc": {
    "methods": {},
    "notice": "Manages currency types used by AcMaster"
  }
}