{
  "contractName": "EeuBurnable",
  "abi": [
    {
      "constant": true,
      "inputs": [
        {
          "name": "id",
          "type": "uint256"
        }
      ],
      "name": "getEeuBatch",
      "outputs": [
        {
          "components": [
            {
              "name": "id",
              "type": "uint256"
            },
            {
              "name": "mintedTimestamp",
              "type": "uint256"
            },
            {
              "name": "eeuTypeId",
              "type": "uint256"
            },
            {
              "name": "mintedKG",
              "type": "uint256"
            },
            {
              "name": "burnedKG",
              "type": "uint256"
            }
          ],
          "name": "",
          "type": "tuple"
        }
      ],
      "payable": false,
      "stateMutability": "view",
      "type": "function"
    },
    {
      "constant": false,
      "inputs": [
        {
          "name": "name",
          "type": "string"
        },
        {
          "name": "unit",
          "type": "string"
        }
      ],
      "name": "addCcyType",
      "outputs": [],
      "payable": false,
      "stateMutability": "nonpayable",
      "type": "function"
    },
    {
      "constant": true,
      "inputs": [],
      "name": "getEeuBatchCount",
      "outputs": [
        {
          "name": "",
          "type": "uint256"
        }
      ],
      "payable": false,
      "stateMutability": "view",
      "type": "function"
    },
    {
      "constant": true,
      "inputs": [],
      "name": "getCcyTypes",
      "outputs": [
        {
          "components": [
            {
              "components": [
                {
                  "name": "id",
                  "type": "uint256"
                },
                {
                  "name": "name",
                  "type": "string"
                },
                {
                  "name": "unit",
                  "type": "string"
                }
              ],
              "name": "ccyTypes",
              "type": "tuple[]"
            }
          ],
          "name": "",
          "type": "tuple"
        }
      ],
      "payable": false,
      "stateMutability": "view",
      "type": "function"
    },
    {
      "constant": false,
      "inputs": [
        {
          "name": "name",
          "type": "string"
        }
      ],
      "name": "addEeuType",
      "outputs": [],
      "payable": false,
      "stateMutability": "nonpayable",
      "type": "function"
    },
    {
      "constant": true,
      "inputs": [],
      "name": "getEeuTypes",
      "outputs": [
        {
          "components": [
            {
              "components": [
                {
                  "name": "id",
                  "type": "uint256"
                },
                {
                  "name": "name",
                  "type": "string"
                }
              ],
              "name": "eeuTypes",
              "type": "tuple[]"
            }
          ],
          "name": "",
          "type": "tuple"
        }
      ],
      "payable": false,
      "stateMutability": "view",
      "type": "function"
    },
    {
      "constant": true,
      "inputs": [
        {
          "name": "id",
          "type": "uint256"
        }
      ],
      "name": "getEeu",
      "outputs": [
        {
          "components": [
            {
              "name": "exists",
              "type": "bool"
            },
            {
              "name": "id",
              "type": "uint256"
            },
            {
              "name": "mintedKG",
              "type": "uint256"
            },
            {
              "name": "KG",
              "type": "uint256"
            },
            {
              "name": "batchId",
              "type": "uint256"
            },
            {
              "name": "mintedTimestamp",
              "type": "uint256"
            },
            {
              "name": "splitFromId",
              "type": "uint256"
            },
            {
              "name": "splitToId",
              "type": "uint256"
            }
          ],
          "name": "",
          "type": "tuple"
        }
      ],
      "payable": false,
      "stateMutability": "view",
      "type": "function"
    },
    {
      "constant": true,
      "inputs": [
        {
          "name": "account",
          "type": "address"
        }
      ],
      "name": "getLedgerEntry",
      "outputs": [
        {
          "components": [
            {
              "name": "exists",
              "type": "bool"
            },
            {
              "components": [
                {
                  "name": "eeuId",
                  "type": "uint256"
                },
                {
                  "name": "eeuTypeId",
                  "type": "uint256"
                },
                {
                  "name": "eeuTypeName",
                  "type": "string"
                },
                {
                  "name": "batchId",
                  "type": "uint256"
                },
                {
                  "name": "eeuKG",
                  "type": "uint256"
                },
                {
                  "name": "mintedTimestamp",
                  "type": "uint256"
                },
                {
                  "name": "splitFromId",
                  "type": "uint256"
                },
                {
                  "name": "splitToId",
                  "type": "uint256"
                }
              ],
              "name": "eeus",
              "type": "tuple[]"
            },
            {
              "name": "eeu_sumKG",
              "type": "uint256"
            },
            {
              "components": [
                {
                  "name": "typeId",
                  "type": "uint256"
                },
                {
                  "name": "name",
                  "type": "string"
                },
                {
                  "name": "unit",
                  "type": "string"
                },
                {
                  "name": "balance",
                  "type": "int256"
                }
              ],
              "name": "ccys",
              "type": "tuple[]"
            }
          ],
          "name": "",
          "type": "tuple"
        }
      ],
      "payable": false,
      "stateMutability": "view",
      "type": "function"
    },
    {
      "constant": true,
      "inputs": [],
      "name": "getLedgerOwners",
      "outputs": [
        {
          "name": "",
          "type": "address[]"
        }
      ],
      "payable": false,
      "stateMutability": "view",
      "type": "function"
    },
    {
      "anonymous": false,
      "inputs": [
        {
          "indexed": false,
          "name": "eeuId",
          "type": "uint256"
        },
        {
          "indexed": false,
          "name": "eeuTypeId",
          "type": "uint256"
        },
        {
          "indexed": false,
          "name": "ledgerOwner",
          "type": "address"
        },
        {
          "indexed": false,
          "name": "burnedKG",
          "type": "uint256"
        }
      ],
      "name": "BurnedFullEeu",
      "type": "event"
    },
    {
      "anonymous": false,
      "inputs": [
        {
          "indexed": false,
          "name": "eeuId",
          "type": "uint256"
        },
        {
          "indexed": false,
          "name": "eeuTypeId",
          "type": "uint256"
        },
        {
          "indexed": false,
          "name": "ledgerOwner",
          "type": "address"
        },
        {
          "indexed": false,
          "name": "burnedKG",
          "type": "uint256"
        }
      ],
      "name": "BurnedPartialEeu",
      "type": "event"
    },
    {
      "anonymous": false,
      "inputs": [
        {
          "indexed": false,
          "name": "id",
          "type": "uint256"
        },
        {
          "indexed": false,
          "name": "name",
          "type": "string"
        },
        {
          "indexed": false,
          "name": "unit",
          "type": "string"
        }
      ],
      "name": "AddedCcyType",
      "type": "event"
    },
    {
      "anonymous": false,
      "inputs": [
        {
          "indexed": false,
          "name": "id",
          "type": "uint256"
        },
        {
          "indexed": false,
          "name": "name",
          "type": "string"
        }
      ],
      "name": "AddedEeuType",
      "type": "event"
    },
    {
      "constant": false,
      "inputs": [
        {
          "name": "ledgerOwner",
          "type": "address"
        },
        {
          "name": "eeuTypeId",
          "type": "uint256"
        },
        {
          "name": "qtyKG",
          "type": "int256"
        }
      ],
      "name": "retireCarbon",
      "outputs": [],
      "payable": false,
      "stateMutability": "nonpayable",
      "type": "function"
    },
    {
      "constant": true,
      "inputs": [],
      "name": "getKgCarbonBurned",
      "outputs": [
        {
          "name": "count",
          "type": "uint256"
        }
      ],
      "payable": false,
      "stateMutability": "view",
      "type": "function"
    }
  ],
  "bytecode": "0x60008054600160a060020a0319163317815560c0604052600660808190527f554e46434343000000000000000000000000000000000000000000000000000060a0908152918052600160205262000078917fa6eef7e35abe7026729641147f7915573c7e97b47efa546f5f6e3230263bcb499162000308565b5060408051808201909152600381527f564353000000000000000000000000000000000000000000000000000000000060208083019182526001600081905290529051620000e8917fcc69885fda6bcc1a4ace058b4a62bf5e179ea78fd58a1ccd71c22cc9b688792f9162000308565b50600280556040805160608101825260008082528251808401845260038082527f555344000000000000000000000000000000000000000000000000000000000060208381019190915280850192835285518087018752600581527f63656e7473000000000000000000000000000000000000000000000000000000818301529585019590955291805290835281517f3617319a054d772f909f7c479a2cebe5066e836a939412e32403c99029b92eff9081559051805192939192620001d2927f3617319a054d772f909f7c479a2cebe5066e836a939412e32403c99029b92f0092019062000308565b5060408201518051620001f091600284019160209091019062000308565b50506040805160608101825260018082528251808401845260038082527f4554480000000000000000000000000000000000000000000000000000000000602083810191909152808501928352855180870187528281527f5765690000000000000000000000000000000000000000000000000000000000818301529585019590955260009290925290835281517fa15bc60c955c405d20d9149c709e2460f1c2d9a497496a7f46004d1772c3054c908155905180519294509092620002dc927fa15bc60c955c405d20d9149c709e2460f1c2d9a497496a7f46004d1772c3054d929091019062000308565b5060408201518051620002fa91600284019160209091019062000308565b5050600260045550620003ad565b828054600181600116156101000203166002900490600052602060002090601f016020900481019282601f106200034b57805160ff19168380011785556200037b565b828001600101855582156200037b579182015b828111156200037b5782518255916020019190600101906200035e565b50620003899291506200038d565b5090565b620003aa91905b8082111562000389576000815560010162000394565b90565b61210380620003bd6000396000f3fe608060405234801561001057600080fd5b50600436106100e6576000357c010000000000000000000000000000000000000000000000000000000090048063963030df1161009e578063bcc376c611610078578063bcc376c6146101bb578063c7e60f9f146101d0578063e3f64b35146101e3576100e6565b8063963030df146101665780639ce9a4a61461017b578063a89a88841461019b576100e6565b806319b67615116100cf57806319b67615146101295780634dc26ae81461013e57806351664b2614610153576100e6565b80630722a4ee146100eb5780630834e86414610114575b600080fd5b6100fe6100f93660046115c6565b6101eb565b60405161010b9190611ec4565b60405180910390f35b61012761012236600461155d565b610242565b005b6101316103d2565b60405161010b9190611f14565b6101466103d9565b60405161010b9190611ee1565b610127610161366004611528565b6105c3565b61016e610701565b60405161010b9190611ef2565b61018e6101893660046115c6565b61081f565b60405161010b9190611ed2565b6101ae6101a93660046114b5565b6108a5565b60405161010b9190611f03565b6101c3610dbf565b60405161010b9190611e43565b6101276101de3660046114db565b610e6e565b6101316111e2565b6101f3611229565b50600090815260056020908152604091829020825160a0810184528154815260018201549281019290925260028101549282019290925260038201546060820152600490910154608082015290565b60005473ffffffffffffffffffffffffffffffffffffffff16331461028a576040516000805160206120aa833981519152815260040161028190611e74565b60405180910390fd5b60005b60045481101561032157826040516020016102a89190611e2b565b60408051601f1981840301815282825280516020918201206000858152600383529290922091926102dd926001019101611e37565b604051602081830303815290604052805190602001201415610319576040516000805160206120aa833981519152815260040161028190611e84565b60010161028d565b506040805160608101825260045480825260208083018681528385018690526000928352600382529390912082518155925180519293926103689260018501920190611258565b5060408201518051610384916002840191602090910190611258565b509050507f41c4a4be5d1fed810ab0ace2ffe78022538a72356773c24ed010e06bdf6454b760045483836040516103bd93929190611f42565b60405180910390a15050600480546001019055565b6006545b90565b6103e16112d6565b606060045460405190808252806020026020018201604052801561041f57816020015b61040c6112e9565b8152602001906001900390816104045790505b50905060005b6004548110156105a657604080516060810182526000838152600360208181528483208054855292869052908152600191820180548551600294821615610100026000190190911693909304601f8101839004830284018301909552848352929381850193918301828280156104dc5780601f106104b1576101008083540402835291602001916104dc565b820191906000526020600020905b8154815290600101906020018083116104bf57829003601f168201915b50505091835250506000838152600360209081526040918290206002908101805484516001821615610100026000190190911692909204601f8101849004840283018401909452838252938201939092909183018282801561057f5780601f106105545761010080835404028352916020019161057f565b820191906000526020600020905b81548152906001019060200180831161056257829003601f168201915b505050505081525082828151811061059357fe5b6020908102919091010152600101610425565b506105af6112d6565b506040805160208101909152908152905090565b60005473ffffffffffffffffffffffffffffffffffffffff163314610602576040516000805160206120aa833981519152815260040161028190611e74565b60005b60025481101561069657816040516020016106209190611e2b565b60408051601f198184030181528282528051602091820120600085815260018352929092209192610652929101611e37565b60405160208183030381529060405280519060200120141561068e576040516000805160206120aa833981519152815260040161028190611eb4565b600101610605565b50600254600090815260016020908152604090912082516106b992840190611258565b507ff42a31d05ee5f17e0f159b94b9402293e9cf2265c806b4a55168aeaa3fe275e2600254826040516106ed929190611f22565b60405180910390a150600280546001019055565b6107096112d6565b606060025460405190808252806020026020018201604052801561074757816020015b61073461130a565b81526020019060019003908161072c5790505b50905060005b6002548110156105a6576040805180820182528281526000838152600160208181529184902080548551600293821615610100026000190190911692909204601f810184900484028301840190955284825292938285019391928301828280156107f85780601f106107cd576101008083540402835291602001916107f8565b820191906000526020600020905b8154815290600101906020018083116107db57829003601f168201915b505050505081525082828151811061080c57fe5b602090810291909101015260010161074d565b610827611324565b506040805161010081018252600083815260076020908152838220548015158452818401869052858352600882528483205484860152858352600982528483205460608501526080840152848252600a81528382205460a0840152848252600b81528382205460c0840152938152600c90935291205460e082015290565b6108ad61136b565b606080600080805b6002548110156109015773ffffffffffffffffffffffffffffffffffffffff871660009081526011602090815260408083208484526001908101909252909120549290920191016108b5565b508060405190808252806020026020018201604052801561093c57816020015b610929611395565b8152602001906001900390816109215790505b5093506000805b600254811015610b575773ffffffffffffffffffffffffffffffffffffffff881660009081526011602090815260408083208484526001018252918290208054835181840281018401909452808452606093928301828280156109c557602002820191906000526020600020905b8154815260200190600101908083116109b1575b50939450600093505050505b8151811015610b4d5760008282815181106109e857fe5b60200260200101519050600960008281526020019081526020016000205487019650604051806101000160405280828152602001858152602001600160008781526020019081526020016000208054600181600116156101000203166002900480601f016020809104026020016040519081016040528092919081815260200182805460018160011615610100020316600290048015610ac95780601f10610a9e57610100808354040283529160200191610ac9565b820191906000526020600020905b815481529060010190602001808311610aac57829003601f168201915b505050918352505060008381526007602090815260408083205482850152858352600982528083205481850152858352600a8252808320546060850152858352600b8252808320546080850152858352600c90915290205460a09091015289518a9087908110610b3557fe5b602090810291909101015250600193840193016109d1565b5050600101610943565b50600454604051908082528060200260200182016040528015610b9457816020015b610b816113da565b815260200190600190039081610b795790505b50935060005b600454811015610d62576040518060800160405280828152602001600360008481526020019081526020016000206001018054600181600116156101000203166002900480601f016020809104026020016040519081016040528092919081815260200182805460018160011615610100020316600290048015610c5f5780601f10610c3457610100808354040283529160200191610c5f565b820191906000526020600020905b815481529060010190602001808311610c4257829003601f168201915b50505091835250506000838152600360209081526040918290206002908101805484516001821615610100026000190190911692909204601f81018490048402830184019094528382529382019390929091830182828015610d025780601f10610cd757610100808354040283529160200191610d02565b820191906000526020600020905b815481529060010190602001808311610ce557829003601f168201915b505050918352505073ffffffffffffffffffffffffffffffffffffffff8a1660009081526011602090815260408083208684526002018252909120549101528551869083908110610d4f57fe5b6020908102919091010152600101610b9a565b50610d6b61136b565b50506040805160808101825273ffffffffffffffffffffffffffffffffffffffff8816600090815260116020908152908390205460ff16151582528101959095528401919091525060608201529050919050565b60005460609073ffffffffffffffffffffffffffffffffffffffff163314610e01576040516000805160206120aa833981519152815260040161028190611e74565b6012805480602002602001604051908101604052809291908181526020018280548015610e6457602002820191906000526020600020905b815473ffffffffffffffffffffffffffffffffffffffff168152600190910190602001808311610e39575b5050505050905090565b60005473ffffffffffffffffffffffffffffffffffffffff163314610ead576040516000805160206120aa833981519152815260040161028190611e74565b73ffffffffffffffffffffffffffffffffffffffff831660009081526011602052604090205460ff161515600114610eff576040516000805160206120aa833981519152815260040161028190611e54565b6103e8811215610f29576040516000805160206120aa833981519152815260040161028190611e94565b6002548210610f52576040516000805160206120aa833981519152815260040161028190611e64565b6000805b73ffffffffffffffffffffffffffffffffffffffff851660009081526011602090815260408083208784526001019091529020548110156110005773ffffffffffffffffffffffffffffffffffffffff8516600090815260116020908152604080832087845260010190915281208054600992919084908110610fd557fe5b9060005260206000200154815260200190815260200160002054820191508080600101915050610f56565b5081811015611029576040516000805160206120aa833981519152815260040161028190611ea4565b6000825b80156111d15773ffffffffffffffffffffffffffffffffffffffff861660009081526011602090815260408083208884526001019091528120805490919082908590811061107757fe5b6000918252602080832090910154808352600982526040808420546007909352909220549192509081851061115a576000838152600960205260408120558354849060001981019081106110c757fe5b90600052602060002001548487815481106110de57fe5b60009182526020909120015583546110fa856000198301611402565b50600081815260056020526040908190206004018054840190555194829003947ff214be5dc9cf391efd4738b59af95842784d47fd41a2b9057df440d144f3c67d9061114d9085908c908e908790611f76565b60405180910390a16111c8565b600083815260096020908152604080832080548990039055838352600590915290819020600401805487019055517fe304852108e009cdefa218a22b44f9a1f921fb5692ead9b6fb815d388e24869f906111bb9085908c908e908a90611f76565b60405180910390a1600094505b5050505061102d565b5050600e8054909201909155505050565b6000805473ffffffffffffffffffffffffffffffffffffffff163314611222576040516000805160206120aa833981519152815260040161028190611e74565b50600e5490565b6040518060a0016040528060008152602001600081526020016000815260200160008152602001600081525090565b828054600181600116156101000203166002900490600052602060002090601f016020900481019282601f1061129957805160ff19168380011785556112c6565b828001600101855582156112c6579182015b828111156112c65782518255916020019190600101906112ab565b506112d292915061142b565b5090565b6040518060200160405280606081525090565b60405180606001604052806000815260200160608152602001606081525090565b604051806040016040528060008152602001606081525090565b604051806101000160405280600015158152602001600081526020016000815260200160008152602001600081526020016000815260200160008152602001600081525090565b60405180608001604052806000151581526020016060815260200160008152602001606081525090565b60405180610100016040528060008152602001600081526020016060815260200160008152602001600081526020016000815260200160008152602001600081525090565b6040518060800160405280600081526020016060815260200160608152602001600081525090565b8154818355818111156114265760008381526020902061142691810190830161142b565b505050565b6103d691905b808211156112d25760008155600101611431565b803561145081612089565b92915050565b8035611450816120a0565b600082601f83011261147257600080fd5b813561148561148082611fd2565b611fab565b915080825260208301602083018583830111156114a157600080fd5b6114ac838284612047565b50505092915050565b6000602082840312156114c757600080fd5b60006114d38484611445565b949350505050565b6000806000606084860312156114f057600080fd5b60006114fc8686611445565b935050602061150d86828701611456565b925050604061151e86828701611456565b9150509250925092565b60006020828403121561153a57600080fd5b813567ffffffffffffffff81111561155157600080fd5b6114d384828501611461565b6000806040838503121561157057600080fd5b823567ffffffffffffffff81111561158757600080fd5b61159385828601611461565b925050602083013567ffffffffffffffff8111156115b057600080fd5b6115bc85828601611461565b9150509250929050565b6000602082840312156115d857600080fd5b60006114d38484611456565b60006115f0838361162f565b505060200190565b60006116048383611b29565b9392505050565b60006116048383611c72565b60006116048383611cce565b60006116048383611d31565b6116388161201e565b82525050565b60006116498261200c565b6116538185612010565b935061165e83611ffa565b8060005b8381101561168c57815161167688826115e4565b975061168183611ffa565b925050600101611662565b509495945050505050565b60006116a28261200c565b6116ac8185612010565b9350836020820285016116be85611ffa565b8060005b858110156116f857848403895281516116db85826115f8565b94506116e683611ffa565b60209a909a01999250506001016116c2565b5091979650505050505050565b60006117108261200c565b61171a8185612010565b93508360208202850161172c85611ffa565b8060005b858110156116f85784840389528151611749858261160b565b945061175483611ffa565b60209a909a0199925050600101611730565b60006117718261200c565b61177b8185612010565b93508360208202850161178d85611ffa565b8060005b858110156116f857848403895281516117aa8582611617565b94506117b583611ffa565b60209a909a0199925050600101611791565b60006117d28261200c565b6117dc8185612010565b9350836020820285016117ee85611ffa565b8060005b858110156116f8578484038952815161180b8582611623565b945061181683611ffa565b60209a909a01999250506001016117f2565b61163881612029565b611638816103d6565b60006118458261200c565b61184f8185612010565b935061185f818560208601612053565b6118688161207f565b9093019392505050565b600061187d8261200c565b6118878185612019565b9350611897818560208601612053565b9290920192915050565b6000815460018116600081146118be57600181146118e157611920565b607f60028304166118cf8187612019565b60ff1984168152955085019250611920565b600282046118ef8187612019565b95506118fa85612000565b60005b82811015611919578154888201526001909101906020016118fd565b5050850192505b505092915050565b6000611935601483612010565b7f496e76616c6964206c6564676572206f776e6572000000000000000000000000815260200192915050565b600061196e601083612010565b7f496e76616c696420454555207479706500000000000000000000000000000000815260200192915050565b60006119a7601183612010565b7f52657374726963746564206d6574686f64000000000000000000000000000000815260200192915050565b60006119e0602183612010565b7f43757272656e63792074797065206e616d6520616c726561647920657869737481527f7300000000000000000000000000000000000000000000000000000000000000602082015260400192915050565b6000611a3f602983612010565b7f4d696e696d756d206f6e65206d657472696320746f6e206f6620636172626f6e81527f2072657175697265640000000000000000000000000000000000000000000000602082015260400192915050565b6000611a9e602883612010565b7f496e73756666696369656e7420636172626f6e2068656c64206279206c65646781527f6572206f776e6572000000000000000000000000000000000000000000000000602082015260400192915050565b6000611afd601c83612010565b7f4545552074797065206e616d6520616c72656164792065786973747300000000815260200192915050565b80516000906060840190611b3d8582611831565b5060208301518482036020860152611b55828261183a565b91505060408301518482036040860152611b6f828261183a565b95945050505050565b805160a0830190611b898482611831565b506020820151611b9c6020850182611831565b506040820151611baf6040850182611831565b506060820151611bc26060850182611831565b506080820151611bd56080850182611831565b50505050565b8051610100830190611bed8482611828565b506020820151611c006020850182611831565b506040820151611c136040850182611831565b506060820151611c266060850182611831565b506080820151611c396080850182611831565b5060a0820151611c4c60a0850182611831565b5060c0820151611c5f60c0850182611831565b5060e0820151611bd560e0850182611831565b80516000906040840190611c868582611831565b5060208301518482036020860152611b6f828261183a565b8051602080845260009190840190611b6f8282611697565b8051602080845260009190840190611b6f8282611705565b80516000906080840190611ce28582611831565b5060208301518482036020860152611cfa828261183a565b91505060408301518482036040860152611d14828261183a565b9150506060830151611d296060860182611831565b509392505050565b8051600090610100840190611d468582611831565b506020830151611d596020860182611831565b5060408301518482036040860152611d71828261183a565b9150506060830151611d866060860182611831565b506080830151611d996080860182611831565b5060a0830151611dac60a0860182611831565b5060c0830151611dbf60c0860182611831565b5060e0830151611d2960e0860182611831565b80516000906080840190611de68582611828565b5060208301518482036020860152611dfe82826117c7565b9150506040830151611e136040860182611831565b5060608301518482036060860152611b6f8282611766565b60006116048284611872565b600061160482846118a1565b60208082528101611604818461163e565b6020808252810161145081611928565b6020808252810161145081611961565b602080825281016114508161199a565b60208082528101611450816119d3565b6020808252810161145081611a32565b6020808252810161145081611a91565b6020808252810161145081611af0565b60a081016114508284611b78565b61010081016114508284611bdb565b602080825281016116048184611c9e565b602080825281016116048184611cb6565b602080825281016116048184611dd2565b602081016114508284611831565b60408101611f308285611831565b81810360208301526114d3818461183a565b60608101611f508286611831565b8181036020830152611f62818561183a565b90508181036040830152611b6f818461183a565b60808101611f848287611831565b611f916020830186611831565b611f9e604083018561162f565b611b6f6060830184611831565b60405181810167ffffffffffffffff81118282101715611fca57600080fd5b604052919050565b600067ffffffffffffffff821115611fe957600080fd5b506020601f91909101601f19160190565b60200190565b60009081526020902090565b5190565b90815260200190565b919050565b60006114508261202e565b151590565b73ffffffffffffffffffffffffffffffffffffffff1690565b82818337506000910152565b60005b8381101561206e578181015183820152602001612056565b83811115611bd55750506000910152565b601f01601f191690565b6120928161201e565b811461209d57600080fd5b50565b612092816103d656fe08c379a000000000000000000000000000000000000000000000000000000000a265627a7a723058206fa1cb9e2e69532859496b9772ada4582c31ac11dd10fa3c8327452fe6120b0f6c6578706572696d656e74616cf50037",
  "source": "pragma solidity 0.5.8;\r\npragma experimental ABIEncoderV2;\r\n\r\nimport \"./Owned.sol\";\r\nimport \"./AcLedger.sol\";\r\n\r\ncontract EeuBurnable is Owned, AcLedger {\r\n    event BurnedFullEeu(uint256 eeuId, uint256 eeuTypeId, address ledgerOwner, uint256 burnedKG);\r\n    event BurnedPartialEeu(uint256 eeuId, uint256 eeuTypeId, address ledgerOwner, uint256 burnedKG);\r\n\r\n    /**\r\n     * @dev Burns carbons by resizing EEUs, and/or removing EEUs from the ledger\r\n     * @dev Removes EEUs (or fractions thereof) from the main list and from the ledger, resizing as necessary\r\n     * @dev The supplied ledger owner must hold the supplied quantity of carbon in aggregate across ledger EEUs, and of the supplied type\r\n     * @param ledgerOwner The ledger owner to burn\r\n     * @param eeuTypeId The EEU type to burn\r\n     * @param qtyKG The tonnage to burn\r\n     */\r\n    function retireCarbon(address ledgerOwner, uint256 eeuTypeId, int256 qtyKG) public {\r\n        require(msg.sender == owner, \"Restricted method\");\r\n        require(_ledger[ledgerOwner].exists == true, \"Invalid ledger owner\");\r\n        require(qtyKG >= 1000, \"Minimum one metric ton of carbon required\");\r\n        require(eeuTypeId >= 0 && eeuTypeId < _count_eeuTypes, \"Invalid EEU type\");\r\n\r\n        // check ledger owner has sufficient carbon tonnage of supplied type\r\n        uint256 kgAvailable = 0;\r\n        for (uint i = 0; i < _ledger[ledgerOwner].eeuType_eeuIds[eeuTypeId].length; i++) {\r\n            kgAvailable += _eeus_KG[_ledger[ledgerOwner].eeuType_eeuIds[eeuTypeId][i]];\r\n        }\r\n        require(kgAvailable >= uint256(qtyKG), \"Insufficient carbon held by ledger owner\");\r\n        //require(_ledger[ledgerOwner].eeuType_sumKG[eeuTypeId] >= uint256(qtyKG), \"Insufficient carbon held by ledger owner\");\r\n\r\n        // burn sufficient EEUs\r\n        uint256 ndx = 0;\r\n        uint256 remainingToBurn = uint256(qtyKG);\r\n        while (remainingToBurn > 0) {\r\n            uint256[] storage eeuType_eeuIds = _ledger[ledgerOwner].eeuType_eeuIds[eeuTypeId];\r\n            uint256 eeuId = eeuType_eeuIds[ndx];\r\n            uint256 eeuKg = _eeus_KG[eeuId];\r\n            uint256 batchId = _eeus_batchId[eeuId];\r\n\r\n            if (remainingToBurn >= eeuKg) {\r\n                // burn full EEU\r\n                _eeus_KG[eeuId] = 0;\r\n\r\n                // remove from ledger\r\n                eeuType_eeuIds[ndx] = eeuType_eeuIds[eeuType_eeuIds.length - 1];\r\n                eeuType_eeuIds.length--;\r\n                //_ledger[ledgerOwner].eeuType_sumKG[eeuTypeId] -= eeuKg;\r\n\r\n                // burn from batch\r\n                _eeuBatches[batchId].burnedKG += eeuKg;\r\n\r\n                remainingToBurn -= eeuKg;\r\n                emit BurnedFullEeu(eeuId, eeuTypeId, ledgerOwner, eeuKg);\r\n            } else {\r\n                // resize EEU\r\n                _eeus_KG[eeuId] -= remainingToBurn;\r\n\r\n                // retain on ledger\r\n                //_ledger[ledgerOwner].eeuType_sumKG[eeuTypeId] -= remainingToBurn;\r\n\r\n                // burn from batch\r\n                _eeuBatches[batchId].burnedKG += remainingToBurn;\r\n\r\n                emit BurnedPartialEeu(eeuId, eeuTypeId, ledgerOwner, remainingToBurn);\r\n                remainingToBurn = 0;\r\n            }\r\n        }\r\n        _eeu_totalBurnedKG += uint256(qtyKG);\r\n    }\r\n\r\n    /**\r\n     * @dev Returns the total global tonnage of carbon burned\r\n     */\r\n    function getKgCarbonBurned() external view returns (uint256 count) {\r\n        require(msg.sender == owner, \"Restricted method\");\r\n        return _eeu_totalBurnedKG;\r\n    }\r\n\r\n    /*function arrayRemoveSwapDelete(uint256 valueToFindAndRemove, uint256[] storage array) private returns (bool found)\r\n    {\r\n        for (uint256 i = 0; i < array.length; i++) {\r\n            if (array[i] == valueToFindAndRemove) {\r\n                array[i] = array[array.length - 1];\r\n                //delete array[array.length - 1]; // length-- is sufficient\r\n                array.length--;\r\n                return true;\r\n            }\r\n        }\r\n        return false;\r\n    }*/\r\n\r\n    /*function arrayRemoveNewArray(uint valueToFindAndRemove, uint[] memory array)\r\n    internal returns(uint[] memory)  {\r\n        uint[] storage auxArray;\r\n        for (uint i = 0; i < array.length; i++){\r\n            if(array[i] != valueToFindAndRemove)\r\n                auxArray.push(array[i]);\r\n        }\r\n        return auxArray;\r\n    }*/\r\n}\r\n",
  "sourcePath": "C:\\ac\\src\\ac-monorepo\\packages\\erc20\\contracts\\AcMaster\\EeuBurnable.sol",
  "compiler": {
    "name": "solc",
    "version": "0.5.8+commit.23d335f2.Emscripten.clang"
  },
  "schemaVersion": "3.0.11",
  "updatedAt": "2019-08-11T14:08:45.345Z",
  "devdoc": {
    "methods": {
      "addCcyType(string,string)": {
        "details": "Adds a new currency type\r",
        "params": {
          "name": "The new currency type name\r",
          "unit": "The base unit of the new currency type\r"
        }
      },
      "addEeuType(string)": {
        "details": "Adds a new EEU type\r",
        "params": {
          "name": "The new EEU type name\r"
        }
      },
      "getCcyTypes()": {
        "details": "Returns current currency types\r"
      },
      "getEeu(uint256)": {
        "details": "Returns an EEU by ID\r"
      },
      "getEeuBatch(uint256)": {
        "details": "Returns an EEU batch by ID\r"
      },
      "getEeuBatchCount()": {
        "details": "Returns the global EEU batch count\r"
      },
      "getEeuTypes()": {
        "details": "Returns current EEU types\r"
      },
      "getKgCarbonBurned()": {
        "details": "Returns the total global tonnage of carbon burned\r"
      },
      "getLedgerEntry(address)": {
        "details": "Returns the ledger entry for a single account\r"
      },
      "getLedgerOwners()": {
        "details": "Returns all accounts in the ledger\r"
      },
      "retireCarbon(address,uint256,int256)": {
        "details": "Burns carbons by resizing EEUs, and/or removing EEUs from the ledger\rRemoves EEUs (or fractions thereof) from the main list and from the ledger, resizing as necessary\rThe supplied ledger owner must hold the supplied quantity of carbon in aggregate across ledger EEUs, and of the supplied type\r",
        "params": {
          "eeuTypeId": "The EEU type to burn\r",
          "ledgerOwner": "The ledger owner to burn\r",
          "qtyKG": "The tonnage to burn\r"
        }
      }
    }
  },
  "userdoc": {
    "methods": {}
  }
}