{
  "contractName": "EeuBurnable",
  "abi": [
    {
      "constant": true,
      "inputs": [
        {
          "name": "id",
          "type": "uint256"
        }
      ],
      "name": "getEeuBatch",
      "outputs": [
        {
          "components": [
            {
              "name": "id",
              "type": "uint256"
            },
            {
              "name": "mintedTimestamp",
              "type": "uint256"
            },
            {
              "name": "eeuTypeId",
              "type": "uint256"
            },
            {
              "name": "mintedKG",
              "type": "uint256"
            },
            {
              "name": "burnedKG",
              "type": "uint256"
            }
          ],
          "name": "",
          "type": "tuple"
        }
      ],
      "payable": false,
      "stateMutability": "view",
      "type": "function"
    },
    {
      "constant": false,
      "inputs": [
        {
          "name": "name",
          "type": "string"
        },
        {
          "name": "unit",
          "type": "string"
        }
      ],
      "name": "addCcyType",
      "outputs": [],
      "payable": false,
      "stateMutability": "nonpayable",
      "type": "function"
    },
    {
      "constant": true,
      "inputs": [],
      "name": "getEeuBatchCount",
      "outputs": [
        {
          "name": "",
          "type": "uint256"
        }
      ],
      "payable": false,
      "stateMutability": "view",
      "type": "function"
    },
    {
      "constant": true,
      "inputs": [],
      "name": "getCcyTypes",
      "outputs": [
        {
          "components": [
            {
              "components": [
                {
                  "name": "id",
                  "type": "uint256"
                },
                {
                  "name": "name",
                  "type": "string"
                },
                {
                  "name": "unit",
                  "type": "string"
                }
              ],
              "name": "ccyTypes",
              "type": "tuple[]"
            }
          ],
          "name": "",
          "type": "tuple"
        }
      ],
      "payable": false,
      "stateMutability": "view",
      "type": "function"
    },
    {
      "constant": false,
      "inputs": [
        {
          "name": "name",
          "type": "string"
        }
      ],
      "name": "addEeuType",
      "outputs": [],
      "payable": false,
      "stateMutability": "nonpayable",
      "type": "function"
    },
    {
      "constant": true,
      "inputs": [],
      "name": "getEeuTypes",
      "outputs": [
        {
          "components": [
            {
              "components": [
                {
                  "name": "id",
                  "type": "uint256"
                },
                {
                  "name": "name",
                  "type": "string"
                }
              ],
              "name": "eeuTypes",
              "type": "tuple[]"
            }
          ],
          "name": "",
          "type": "tuple"
        }
      ],
      "payable": false,
      "stateMutability": "view",
      "type": "function"
    },
    {
      "constant": true,
      "inputs": [
        {
          "name": "id",
          "type": "uint256"
        }
      ],
      "name": "getEeu",
      "outputs": [
        {
          "components": [
            {
              "name": "exists",
              "type": "bool"
            },
            {
              "name": "id",
              "type": "uint256"
            },
            {
              "name": "mintedKG",
              "type": "uint256"
            },
            {
              "name": "KG",
              "type": "uint256"
            },
            {
              "name": "batchId",
              "type": "uint256"
            }
          ],
          "name": "",
          "type": "tuple"
        }
      ],
      "payable": false,
      "stateMutability": "view",
      "type": "function"
    },
    {
      "constant": true,
      "inputs": [
        {
          "name": "account",
          "type": "address"
        }
      ],
      "name": "getLedgerEntry",
      "outputs": [
        {
          "components": [
            {
              "name": "exists",
              "type": "bool"
            },
            {
              "components": [
                {
                  "name": "eeuId",
                  "type": "uint256"
                },
                {
                  "name": "eeuTypeId",
                  "type": "uint256"
                },
                {
                  "name": "eeuTypeName",
                  "type": "string"
                },
                {
                  "name": "batchId",
                  "type": "uint256"
                },
                {
                  "name": "eeuKG",
                  "type": "uint256"
                }
              ],
              "name": "eeus",
              "type": "tuple[]"
            },
            {
              "name": "eeu_sumKG",
              "type": "uint256"
            },
            {
              "components": [
                {
                  "name": "typeId",
                  "type": "uint256"
                },
                {
                  "name": "name",
                  "type": "string"
                },
                {
                  "name": "unit",
                  "type": "string"
                },
                {
                  "name": "balance",
                  "type": "int256"
                }
              ],
              "name": "ccys",
              "type": "tuple[]"
            }
          ],
          "name": "",
          "type": "tuple"
        }
      ],
      "payable": false,
      "stateMutability": "view",
      "type": "function"
    },
    {
      "constant": true,
      "inputs": [],
      "name": "getLedgerOwners",
      "outputs": [
        {
          "name": "",
          "type": "address[]"
        }
      ],
      "payable": false,
      "stateMutability": "view",
      "type": "function"
    },
    {
      "anonymous": false,
      "inputs": [
        {
          "indexed": false,
          "name": "eeuId",
          "type": "uint256"
        },
        {
          "indexed": false,
          "name": "eeuTypeId",
          "type": "uint256"
        },
        {
          "indexed": false,
          "name": "ledgerOwner",
          "type": "address"
        },
        {
          "indexed": false,
          "name": "burnedKG",
          "type": "uint256"
        }
      ],
      "name": "BurnedFullEeu",
      "type": "event"
    },
    {
      "anonymous": false,
      "inputs": [
        {
          "indexed": false,
          "name": "eeuId",
          "type": "uint256"
        },
        {
          "indexed": false,
          "name": "eeuTypeId",
          "type": "uint256"
        },
        {
          "indexed": false,
          "name": "ledgerOwner",
          "type": "address"
        },
        {
          "indexed": false,
          "name": "burnedKG",
          "type": "uint256"
        }
      ],
      "name": "BurnedPartialEeu",
      "type": "event"
    },
    {
      "anonymous": false,
      "inputs": [
        {
          "indexed": false,
          "name": "id",
          "type": "uint256"
        },
        {
          "indexed": false,
          "name": "name",
          "type": "string"
        },
        {
          "indexed": false,
          "name": "unit",
          "type": "string"
        }
      ],
      "name": "AddedCcyType",
      "type": "event"
    },
    {
      "anonymous": false,
      "inputs": [
        {
          "indexed": false,
          "name": "id",
          "type": "uint256"
        },
        {
          "indexed": false,
          "name": "name",
          "type": "string"
        }
      ],
      "name": "AddedEeuType",
      "type": "event"
    },
    {
      "constant": false,
      "inputs": [
        {
          "name": "ledgerOwner",
          "type": "address"
        },
        {
          "name": "eeuTypeId",
          "type": "uint256"
        },
        {
          "name": "qtyKG",
          "type": "int256"
        }
      ],
      "name": "retireCarbon",
      "outputs": [],
      "payable": false,
      "stateMutability": "nonpayable",
      "type": "function"
    },
    {
      "constant": true,
      "inputs": [],
      "name": "getKgCarbonBurned",
      "outputs": [
        {
          "name": "count",
          "type": "uint256"
        }
      ],
      "payable": false,
      "stateMutability": "view",
      "type": "function"
    }
  ],
  "bytecode": "0x60008054600160a060020a0319163317815560c0604052600660808190527f554e46434343000000000000000000000000000000000000000000000000000060a0908152918052600160205262000078917fa6eef7e35abe7026729641147f7915573c7e97b47efa546f5f6e3230263bcb499162000308565b5060408051808201909152600381527f564353000000000000000000000000000000000000000000000000000000000060208083019182526001600081905290529051620000e8917fcc69885fda6bcc1a4ace058b4a62bf5e179ea78fd58a1ccd71c22cc9b688792f9162000308565b50600280556040805160608101825260008082528251808401845260038082527f555344000000000000000000000000000000000000000000000000000000000060208381019190915280850192835285518087018752600581527f63656e7473000000000000000000000000000000000000000000000000000000818301529585019590955291805290835281517f3617319a054d772f909f7c479a2cebe5066e836a939412e32403c99029b92eff9081559051805192939192620001d2927f3617319a054d772f909f7c479a2cebe5066e836a939412e32403c99029b92f0092019062000308565b5060408201518051620001f091600284019160209091019062000308565b50506040805160608101825260018082528251808401845260038082527f4554480000000000000000000000000000000000000000000000000000000000602083810191909152808501928352855180870187528281527f5765690000000000000000000000000000000000000000000000000000000000818301529585019590955260009290925290835281517fa15bc60c955c405d20d9149c709e2460f1c2d9a497496a7f46004d1772c3054c908155905180519294509092620002dc927fa15bc60c955c405d20d9149c709e2460f1c2d9a497496a7f46004d1772c3054d929091019062000308565b5060408201518051620002fa91600284019160209091019062000308565b5050600260045550620003ad565b828054600181600116156101000203166002900490600052602060002090601f016020900481019282601f106200034b57805160ff19168380011785556200037b565b828001600101855582156200037b579182015b828111156200037b5782518255916020019190600101906200035e565b50620003899291506200038d565b5090565b620003aa91905b8082111562000389576000815560010162000394565b90565b611e6480620003bd6000396000f3fe608060405234801561001057600080fd5b50600436106100c6576000357c010000000000000000000000000000000000000000000000000000000090048063963030df1161008e578063963030df146101465780639ce9a4a61461015b578063a89a88841461017b578063bcc376c61461019b578063c7e60f9f146101b0578063e3f64b35146101c3576100c6565b80630722a4ee146100cb5780630834e864146100f457806319b67615146101095780634dc26ae81461011e57806351664b2614610133575b600080fd5b6100de6100d9366004611415565b6101cb565b6040516100eb9190611c53565b60405180910390f35b6101076101023660046113ac565b610222565b005b61011161039b565b6040516100eb9190611ca2565b6101266103a2565b6040516100eb9190611c6f565b610107610141366004611377565b61058c565b61014e6106b3565b6040516100eb9190611c80565b61016e610169366004611415565b6107d1565b6040516100eb9190611c61565b61018e610189366004611304565b61082d565b6040516100eb9190611c91565b6101a3610cc5565b6040516100eb9190611bd2565b6101076101be36600461132a565b610d55565b61011161106f565b6101d36110a4565b50600090815260056020908152604091829020825160a0810184528154815260018201549281019290925260028101549282019290925260038201546060820152600490910154608082015290565b600054600160a060020a031633146102585760405160e560020a62461bcd02815260040161024f90611c03565b60405180910390fd5b60005b6004548110156102ea57826040516020016102769190611bba565b60408051601f1981840301815282825280516020918201206000858152600383529290922091926102ab926001019101611bc6565b6040516020818303038152906040528051906020012014156102e25760405160e560020a62461bcd02815260040161024f90611c13565b60010161025b565b5060408051606081018252600454808252602080830186815283850186905260009283526003825293909120825181559251805192939261033192600185019201906110d3565b506040820151805161034d9160028401916020909101906110d3565b509050507f41c4a4be5d1fed810ab0ace2ffe78022538a72356773c24ed010e06bdf6454b7600454838360405161038693929190611cd0565b60405180910390a15050600480546001019055565b6006545b90565b6103aa611151565b60606004546040519080825280602002602001820160405280156103e857816020015b6103d5611164565b8152602001906001900390816103cd5790505b50905060005b60045481101561056f57604080516060810182526000838152600360208181528483208054855292869052908152600191820180548551600294821615610100026000190190911693909304601f8101839004830284018301909552848352929381850193918301828280156104a55780601f1061047a576101008083540402835291602001916104a5565b820191906000526020600020905b81548152906001019060200180831161048857829003601f168201915b50505091835250506000838152600360209081526040918290206002908101805484516001821615610100026000190190911692909204601f810184900484028301840190945283825293820193909290918301828280156105485780601f1061051d57610100808354040283529160200191610548565b820191906000526020600020905b81548152906001019060200180831161052b57829003601f168201915b505050505081525082828151811061055c57fe5b60209081029190910101526001016103ee565b50610578611151565b506040805160208101909152908152905090565b600054600160a060020a031633146105b95760405160e560020a62461bcd02815260040161024f90611c03565b60005b60025481101561064857816040516020016105d79190611bba565b60408051601f198184030181528282528051602091820120600085815260018352929092209192610609929101611bc6565b6040516020818303038152906040528051906020012014156106405760405160e560020a62461bcd02815260040161024f90611c43565b6001016105bc565b506002546000908152600160209081526040909120825161066b928401906110d3565b507ff42a31d05ee5f17e0f159b94b9402293e9cf2265c806b4a55168aeaa3fe275e26002548260405161069f929190611cb0565b60405180910390a150600280546001019055565b6106bb611151565b60606002546040519080825280602002602001820160405280156106f957816020015b6106e6611185565b8152602001906001900390816106de5790505b50905060005b60025481101561056f576040805180820182528281526000838152600160208181529184902080548551600293821615610100026000190190911692909204601f810184900484028301840190955284825292938285019391928301828280156107aa5780601f1061077f576101008083540402835291602001916107aa565b820191906000526020600020905b81548152906001019060200180831161078d57829003601f168201915b50505050508152508282815181106107be57fe5b60209081029190910101526001016106ff565b6107d961119f565b506040805160a0810182526000838152600760208181528483205480151585528185018790528684526008825285842054858701528684526009825294832054606085015294909152909252608082015290565b6108356111d0565b606080600080805b60025481101561087c57600160a060020a0387166000908152600e6020908152604080832084845260019081019092529091205492909201910161083d565b50806040519080825280602002602001820160405280156108b757816020015b6108a46111fa565b81526020019060019003908161089c5790505b5093506000805b600254811015610a7757600160a060020a0388166000908152600e6020908152604080832084845260010182529182902080548351818402810184019094528084526060939283018282801561093357602002820191906000526020600020905b81548152602001906001019080831161091f575b50939450600093505050505b8151811015610a6d57600082828151811061095657fe5b602090810291909101810151600081815260098352604080822054815160a0810183528481528086018a905289845260018087529383902080548451600296821615610100026000190190911695909504601f810188900488028601880185528086529d9092019c94965094918501939091830182828015610a195780601f106109ee57610100808354040283529160200191610a19565b820191906000526020600020905b8154815290600101906020018083116109fc57829003601f168201915b5050509183525050600083815260076020908152604080832054828501528583526009909152908190205491015289518a9087908110610a5557fe5b6020908102919091010152506001938401930161093f565b50506001016108be565b50600454604051908082528060200260200182016040528015610ab457816020015b610aa1611229565b815260200190600190039081610a995790505b50935060005b600454811015610c75576040518060800160405280828152602001600360008481526020019081526020016000206001018054600181600116156101000203166002900480601f016020809104026020016040519081016040528092919081815260200182805460018160011615610100020316600290048015610b7f5780601f10610b5457610100808354040283529160200191610b7f565b820191906000526020600020905b815481529060010190602001808311610b6257829003601f168201915b50505091835250506000838152600360209081526040918290206002908101805484516001821615610100026000190190911692909204601f81018490048402830184019094528382529382019390929091830182828015610c225780601f10610bf757610100808354040283529160200191610c22565b820191906000526020600020905b815481529060010190602001808311610c0557829003601f168201915b5050509183525050600160a060020a038a166000908152600e602090815260408083208684526002018252909120549101528551869083908110610c6257fe5b6020908102919091010152600101610aba565b50610c7e6111d0565b505060408051608081018252600160a060020a0388166000908152600e6020908152908390205460ff16151582528101959095528401919091525060608201529050919050565b600054606090600160a060020a03163314610cf55760405160e560020a62461bcd02815260040161024f90611c03565b600f805480602002602001604051908101604052809291908181526020018280548015610d4b57602002820191906000526020600020905b8154600160a060020a03168152600190910190602001808311610d2d575b5050505050905090565b600054600160a060020a03163314610d825760405160e560020a62461bcd02815260040161024f90611c03565b600160a060020a0383166000908152600e602052604090205460ff161515600114610dc25760405160e560020a62461bcd02815260040161024f90611be3565b6103e8811215610de75760405160e560020a62461bcd02815260040161024f90611c23565b6002548210610e0b5760405160e560020a62461bcd02815260040161024f90611bf3565b6000805b600160a060020a0385166000908152600e60209081526040808320878452600101909152902054811015610e9f57600160a060020a0385166000908152600e6020908152604080832087845260010190915281208054600992919084908110610e7457fe5b9060005260206000200154815260200190815260200160002054820191508080600101915050610e0f565b5081811015610ec35760405160e560020a62461bcd02815260040161024f90611c33565b6000825b801561105e57600160a060020a0386166000908152600e6020908152604080832088845260010190915281208054909190829085908110610f0457fe5b60009182526020808320909101548083526009825260408084205460079093529092205491925090818510610fe757600083815260096020526040812055835484906000198101908110610f5457fe5b9060005260206000200154848781548110610f6b57fe5b6000918252602090912001558354610f87856000198301611251565b50600081815260056020526040908190206004018054840190555194829003947ff214be5dc9cf391efd4738b59af95842784d47fd41a2b9057df440d144f3c67d90610fda9085908c908e908790611d04565b60405180910390a1611055565b600083815260096020908152604080832080548990039055838352600590915290819020600401805487019055517fe304852108e009cdefa218a22b44f9a1f921fb5692ead9b6fb815d388e24869f906110489085908c908e908a90611d04565b60405180910390a1600094505b50505050610ec7565b5050600b8054909201909155505050565b60008054600160a060020a0316331461109d5760405160e560020a62461bcd02815260040161024f90611c03565b50600b5490565b6040518060a0016040528060008152602001600081526020016000815260200160008152602001600081525090565b828054600181600116156101000203166002900490600052602060002090601f016020900481019282601f1061111457805160ff1916838001178555611141565b82800160010185558215611141579182015b82811115611141578251825591602001919060010190611126565b5061114d92915061127a565b5090565b6040518060200160405280606081525090565b60405180606001604052806000815260200160608152602001606081525090565b604051806040016040528060008152602001606081525090565b6040518060a00160405280600015158152602001600081526020016000815260200160008152602001600081525090565b60405180608001604052806000151581526020016060815260200160008152602001606081525090565b6040518060a0016040528060008152602001600081526020016060815260200160008152602001600081525090565b6040518060800160405280600081526020016060815260200160608152602001600081525090565b8154818355818111156112755760008381526020902061127591810190830161127a565b505050565b61039f91905b8082111561114d5760008155600101611280565b803561129f81611e0a565b92915050565b803561129f81611e21565b600082601f8301126112c157600080fd5b81356112d46112cf82611d60565b611d39565b915080825260208301602083018583830111156112f057600080fd5b6112fb838284611dc8565b50505092915050565b60006020828403121561131657600080fd5b60006113228484611294565b949350505050565b60008060006060848603121561133f57600080fd5b600061134b8686611294565b935050602061135c868287016112a5565b925050604061136d868287016112a5565b9150509250925092565b60006020828403121561138957600080fd5b813567ffffffffffffffff8111156113a057600080fd5b611322848285016112b0565b600080604083850312156113bf57600080fd5b823567ffffffffffffffff8111156113d657600080fd5b6113e2858286016112b0565b925050602083013567ffffffffffffffff8111156113ff57600080fd5b61140b858286016112b0565b9150509250929050565b60006020828403121561142757600080fd5b600061132284846112a5565b600061143f838361147e565b505060200190565b60006114538383611978565b9392505050565b60006114538383611a3b565b60006114538383611a97565b60006114538383611afa565b61148781611dac565b82525050565b600061149882611d9a565b6114a28185611d9e565b93506114ad83611d88565b8060005b838110156114db5781516114c58882611433565b97506114d083611d88565b9250506001016114b1565b509495945050505050565b60006114f182611d9a565b6114fb8185611d9e565b93508360208202850161150d85611d88565b8060005b85811015611547578484038952815161152a8582611447565b945061153583611d88565b60209a909a0199925050600101611511565b5091979650505050505050565b600061155f82611d9a565b6115698185611d9e565b93508360208202850161157b85611d88565b8060005b858110156115475784840389528151611598858261145a565b94506115a383611d88565b60209a909a019992505060010161157f565b60006115c082611d9a565b6115ca8185611d9e565b9350836020820285016115dc85611d88565b8060005b8581101561154757848403895281516115f98582611466565b945061160483611d88565b60209a909a01999250506001016115e0565b600061162182611d9a565b61162b8185611d9e565b93508360208202850161163d85611d88565b8060005b85811015611547578484038952815161165a8582611472565b945061166583611d88565b60209a909a0199925050600101611641565b61148781611db7565b6114878161039f565b600061169482611d9a565b61169e8185611d9e565b93506116ae818560208601611dd4565b6116b781611e00565b9093019392505050565b60006116cc82611d9a565b6116d68185611da7565b93506116e6818560208601611dd4565b9290920192915050565b60008154600181166000811461170d57600181146117305761176f565b607f600283041661171e8187611da7565b60ff198416815295508501925061176f565b6002820461173e8187611da7565b955061174985611d8e565b60005b828110156117685781548882015260019091019060200161174c565b5050850192505b505092915050565b6000611784601483611d9e565b7f496e76616c6964206c6564676572206f776e6572000000000000000000000000815260200192915050565b60006117bd601083611d9e565b7f496e76616c696420454555207479706500000000000000000000000000000000815260200192915050565b60006117f6601183611d9e565b7f52657374726963746564206d6574686f64000000000000000000000000000000815260200192915050565b600061182f602183611d9e565b7f43757272656e63792074797065206e616d6520616c726561647920657869737481527f7300000000000000000000000000000000000000000000000000000000000000602082015260400192915050565b600061188e602983611d9e565b7f4d696e696d756d206f6e65206d657472696320746f6e206f6620636172626f6e81527f2072657175697265640000000000000000000000000000000000000000000000602082015260400192915050565b60006118ed602883611d9e565b7f496e73756666696369656e7420636172626f6e2068656c64206279206c65646781527f6572206f776e6572000000000000000000000000000000000000000000000000602082015260400192915050565b600061194c601c83611d9e565b7f4545552074797065206e616d6520616c72656164792065786973747300000000815260200192915050565b8051600090606084019061198c8582611680565b50602083015184820360208601526119a48282611689565b915050604083015184820360408601526119be8282611689565b95945050505050565b805160a08301906119d88482611680565b5060208201516119eb6020850182611680565b5060408201516119fe6040850182611680565b506060820151611a116060850182611680565b506080820151611a246080850182611680565b50505050565b805160a08301906119d88482611677565b80516000906040840190611a4f8582611680565b50602083015184820360208601526119be8282611689565b80516020808452600091908401906119be82826114e6565b80516020808452600091908401906119be8282611554565b80516000906080840190611aab8582611680565b5060208301518482036020860152611ac38282611689565b91505060408301518482036040860152611add8282611689565b9150506060830151611af26060860182611680565b509392505050565b805160009060a0840190611b0e8582611680565b506020830151611b216020860182611680565b5060408301518482036040860152611b398282611689565b9150506060830151611b4e6060860182611680565b506080830151611af26080860182611680565b80516000906080840190611b758582611677565b5060208301518482036020860152611b8d8282611616565b9150506040830151611ba26040860182611680565b50606083015184820360608601526119be82826115b5565b600061145382846116c1565b600061145382846116f0565b60208082528101611453818461148d565b6020808252810161129f81611777565b6020808252810161129f816117b0565b6020808252810161129f816117e9565b6020808252810161129f81611822565b6020808252810161129f81611881565b6020808252810161129f816118e0565b6020808252810161129f8161193f565b60a0810161129f82846119c7565b60a0810161129f8284611a2a565b602080825281016114538184611a67565b602080825281016114538184611a7f565b602080825281016114538184611b61565b6020810161129f8284611680565b60408101611cbe8285611680565b81810360208301526113228184611689565b60608101611cde8286611680565b8181036020830152611cf08185611689565b905081810360408301526119be8184611689565b60808101611d128287611680565b611d1f6020830186611680565b611d2c604083018561147e565b6119be6060830184611680565b60405181810167ffffffffffffffff81118282101715611d5857600080fd5b604052919050565b600067ffffffffffffffff821115611d7757600080fd5b506020601f91909101601f19160190565b60200190565b60009081526020902090565b5190565b90815260200190565b919050565b600061129f82611dbc565b151590565b600160a060020a031690565b82818337506000910152565b60005b83811015611def578181015183820152602001611dd7565b83811115611a245750506000910152565b601f01601f191690565b611e1381611dac565b8114611e1e57600080fd5b50565b611e138161039f56fea265627a7a72305820f8b6c03cc6484616bf4e2d182e9dfaa82ae2e77d7d9be542627c7144d2247afc6c6578706572696d656e74616cf50037",
  "source": "pragma solidity 0.5.8;\npragma experimental ABIEncoderV2;\n\nimport \"./Owned.sol\";\nimport \"./AcLedger.sol\";\n\ncontract EeuBurnable is Owned, AcLedger {\n    event BurnedFullEeu(uint256 eeuId, uint256 eeuTypeId, address ledgerOwner, uint256 burnedKG);\n    event BurnedPartialEeu(uint256 eeuId, uint256 eeuTypeId, address ledgerOwner, uint256 burnedKG);\n\n    /**\n     * @dev Burns carbons by resizing EEUs, and/or removing EEUs from the ledger\n     * @dev Removes EEUs (or fractions thereof) from the main list and from the ledger, resizing as necessary\n     * @dev The supplied ledger owner must hold the supplied quantity of carbon in aggregate across ledger EEUs, and of the supplied type\n     * @param ledgerOwner The ledger owner to burn\n     * @param eeuTypeId The EEU type to burn\n     * @param qtyKG The tonnage to burn\n     */\n    function retireCarbon(address ledgerOwner, uint256 eeuTypeId, int256 qtyKG) public {\n        require(msg.sender == owner, \"Restricted method\");\n        require(_ledger[ledgerOwner].exists == true, \"Invalid ledger owner\");\n        require(qtyKG >= 1000, \"Minimum one metric ton of carbon required\");\n        require(eeuTypeId >= 0 && eeuTypeId < _count_eeuTypes, \"Invalid EEU type\");\n\n        // check ledger owner has sufficient carbon tonnage of supplied type\n        uint256 kgAvailable = 0;\n        for (uint i = 0; i < _ledger[ledgerOwner].eeuType_eeuIds[eeuTypeId].length; i++) {\n            kgAvailable += _eeus_KG[_ledger[ledgerOwner].eeuType_eeuIds[eeuTypeId][i]];\n        }\n        require(kgAvailable >= uint256(qtyKG), \"Insufficient carbon held by ledger owner\");\n        //require(_ledger[ledgerOwner].eeuType_sumKG[eeuTypeId] >= uint256(qtyKG), \"Insufficient carbon held by ledger owner\");\n\n        // burn sufficient EEUs\n        uint256 ndx = 0;\n        uint256 remainingToBurn = uint256(qtyKG);\n        while (remainingToBurn > 0) {\n            uint256[] storage eeuType_eeuIds = _ledger[ledgerOwner].eeuType_eeuIds[eeuTypeId];\n            uint256 eeuId = eeuType_eeuIds[ndx];\n            uint256 eeuKg = _eeus_KG[eeuId];\n            uint256 batchId = _eeus_batchId[eeuId];\n\n            if (remainingToBurn >= eeuKg) {\n                // burn full EEU\n                _eeus_KG[eeuId] = 0;\n\n                // remove from ledger\n                eeuType_eeuIds[ndx] = eeuType_eeuIds[eeuType_eeuIds.length - 1];\n                eeuType_eeuIds.length--;\n                //_ledger[ledgerOwner].eeuType_sumKG[eeuTypeId] -= eeuKg;\n\n                // burn from batch\n                _eeuBatches[batchId].burnedKG += eeuKg;\n\n                remainingToBurn -= eeuKg;\n                emit BurnedFullEeu(eeuId, eeuTypeId, ledgerOwner, eeuKg);\n            } else {\n                // resize EEU\n                _eeus_KG[eeuId] -= remainingToBurn;\n\n                // retain on ledger\n                //_ledger[ledgerOwner].eeuType_sumKG[eeuTypeId] -= remainingToBurn;\n\n                // burn from batch\n                _eeuBatches[batchId].burnedKG += remainingToBurn;\n\n                emit BurnedPartialEeu(eeuId, eeuTypeId, ledgerOwner, remainingToBurn);\n                remainingToBurn = 0;\n            }\n        }\n        _eeu_totalBurnedKG += uint256(qtyKG);\n    }\n\n    /**\n     * @dev Returns the total global tonnage of carbon burned\n     */\n    function getKgCarbonBurned() external view returns (uint256 count) {\n        require(msg.sender == owner, \"Restricted method\");\n        return _eeu_totalBurnedKG;\n    }\n\n    /*function arrayRemoveSwapDelete(uint256 valueToFindAndRemove, uint256[] storage array) private returns (bool found)\n    {\n        for (uint256 i = 0; i < array.length; i++) {\n            if (array[i] == valueToFindAndRemove) {\n                array[i] = array[array.length - 1];\n                //delete array[array.length - 1]; // length-- is sufficient\n                array.length--;\n                return true;\n            }\n        }\n        return false;\n    }*/\n\n    /*function arrayRemoveNewArray(uint valueToFindAndRemove, uint[] memory array)\n    internal returns(uint[] memory)  {\n        uint[] storage auxArray;\n        for (uint i = 0; i < array.length; i++){\n            if(array[i] != valueToFindAndRemove)\n                auxArray.push(array[i]);\n        }\n        return auxArray;\n    }*/\n}\n",
  "sourcePath": "/Users/dom/ac/ac-monorepo/packages/erc20/contracts/AcMaster/EeuBurnable.sol",
  "compiler": {
    "name": "solc",
    "version": "0.5.8+commit.23d335f2.Emscripten.clang"
  },
  "schemaVersion": "3.0.11",
  "updatedAt": "2019-08-15T20:17:20.500Z",
  "devdoc": {
    "methods": {
      "addCcyType(string,string)": {
        "details": "Adds a new currency type",
        "params": {
          "name": "The new currency type name",
          "unit": "The base unit of the new currency type"
        }
      },
      "addEeuType(string)": {
        "details": "Adds a new EEU type",
        "params": {
          "name": "The new EEU type name"
        }
      },
      "getCcyTypes()": {
        "details": "Returns current currency types"
      },
      "getEeu(uint256)": {
        "details": "Returns an EEU by ID"
      },
      "getEeuBatch(uint256)": {
        "details": "Returns an EEU batch by ID"
      },
      "getEeuBatchCount()": {
        "details": "Returns the global EEU batch count"
      },
      "getEeuTypes()": {
        "details": "Returns current EEU types"
      },
      "getKgCarbonBurned()": {
        "details": "Returns the total global tonnage of carbon burned"
      },
      "getLedgerEntry(address)": {
        "details": "Returns the ledger entry for a single account"
      },
      "getLedgerOwners()": {
        "details": "Returns all accounts in the ledger"
      },
      "retireCarbon(address,uint256,int256)": {
        "details": "Burns carbons by resizing EEUs, and/or removing EEUs from the ledgerRemoves EEUs (or fractions thereof) from the main list and from the ledger, resizing as necessaryThe supplied ledger owner must hold the supplied quantity of carbon in aggregate across ledger EEUs, and of the supplied type",
        "params": {
          "eeuTypeId": "The EEU type to burn",
          "ledgerOwner": "The ledger owner to burn",
          "qtyKG": "The tonnage to burn"
        }
      }
    }
  },
  "userdoc": {
    "methods": {}
  }
}