{
  "contractName": "EeuBurnable",
  "abi": [
    {
      "constant": true,
      "inputs": [
        {
          "name": "id",
          "type": "uint256"
        }
      ],
      "name": "getEeuBatch",
      "outputs": [
        {
          "components": [
            {
              "name": "id",
              "type": "uint256"
            },
            {
              "name": "mintedTimestamp",
              "type": "uint256"
            },
            {
              "name": "eeuTypeId",
              "type": "uint256"
            },
            {
              "name": "mintedKG",
              "type": "uint256"
            },
            {
              "name": "burnedKG",
              "type": "uint256"
            }
          ],
          "name": "",
          "type": "tuple"
        }
      ],
      "payable": false,
      "stateMutability": "view",
      "type": "function"
    },
    {
      "constant": false,
      "inputs": [
        {
          "name": "name",
          "type": "string"
        },
        {
          "name": "unit",
          "type": "string"
        }
      ],
      "name": "addCcyType",
      "outputs": [],
      "payable": false,
      "stateMutability": "nonpayable",
      "type": "function"
    },
    {
      "constant": true,
      "inputs": [],
      "name": "getEeuBatchCount",
      "outputs": [
        {
          "name": "",
          "type": "uint256"
        }
      ],
      "payable": false,
      "stateMutability": "view",
      "type": "function"
    },
    {
      "constant": true,
      "inputs": [],
      "name": "getCcyTypes",
      "outputs": [
        {
          "components": [
            {
              "components": [
                {
                  "name": "id",
                  "type": "uint256"
                },
                {
                  "name": "name",
                  "type": "string"
                },
                {
                  "name": "unit",
                  "type": "string"
                }
              ],
              "name": "ccyTypes",
              "type": "tuple[]"
            }
          ],
          "name": "",
          "type": "tuple"
        }
      ],
      "payable": false,
      "stateMutability": "view",
      "type": "function"
    },
    {
      "constant": false,
      "inputs": [
        {
          "name": "name",
          "type": "string"
        }
      ],
      "name": "addEeuType",
      "outputs": [],
      "payable": false,
      "stateMutability": "nonpayable",
      "type": "function"
    },
    {
      "constant": true,
      "inputs": [],
      "name": "getEeuTypes",
      "outputs": [
        {
          "components": [
            {
              "components": [
                {
                  "name": "typeId",
                  "type": "uint256"
                },
                {
                  "name": "typeName",
                  "type": "string"
                }
              ],
              "name": "eeuTypes",
              "type": "tuple[]"
            }
          ],
          "name": "",
          "type": "tuple"
        }
      ],
      "payable": false,
      "stateMutability": "view",
      "type": "function"
    },
    {
      "constant": true,
      "inputs": [
        {
          "name": "id",
          "type": "uint256"
        }
      ],
      "name": "getEeu",
      "outputs": [
        {
          "components": [
            {
              "name": "exists",
              "type": "bool"
            },
            {
              "name": "id",
              "type": "uint256"
            },
            {
              "name": "mintedKG",
              "type": "uint256"
            },
            {
              "name": "KG",
              "type": "uint256"
            },
            {
              "name": "batchId",
              "type": "uint256"
            },
            {
              "name": "mintedTimestamp",
              "type": "uint256"
            }
          ],
          "name": "",
          "type": "tuple"
        }
      ],
      "payable": false,
      "stateMutability": "view",
      "type": "function"
    },
    {
      "constant": true,
      "inputs": [
        {
          "name": "account",
          "type": "address"
        }
      ],
      "name": "getLedgerEntry",
      "outputs": [
        {
          "components": [
            {
              "name": "exists",
              "type": "bool"
            },
            {
              "components": [
                {
                  "name": "eeuId",
                  "type": "uint256"
                },
                {
                  "name": "eeuTypeId",
                  "type": "uint256"
                },
                {
                  "name": "eeuTypeName",
                  "type": "string"
                },
                {
                  "name": "batchId",
                  "type": "uint256"
                },
                {
                  "name": "eeuKG",
                  "type": "uint256"
                }
              ],
              "name": "eeus",
              "type": "tuple[]"
            },
            {
              "name": "eeu_sumKG",
              "type": "uint256"
            },
            {
              "components": [
                {
                  "name": "ccyTypeId",
                  "type": "uint256"
                },
                {
                  "name": "ccyBalance",
                  "type": "int256"
                }
              ],
              "name": "ccys",
              "type": "tuple[]"
            }
          ],
          "name": "",
          "type": "tuple"
        }
      ],
      "payable": false,
      "stateMutability": "view",
      "type": "function"
    },
    {
      "constant": true,
      "inputs": [],
      "name": "getLedgerOwners",
      "outputs": [
        {
          "name": "",
          "type": "address[]"
        }
      ],
      "payable": false,
      "stateMutability": "view",
      "type": "function"
    },
    {
      "anonymous": false,
      "inputs": [
        {
          "indexed": false,
          "name": "id",
          "type": "uint256"
        }
      ],
      "name": "BurnedFullEeu",
      "type": "event"
    },
    {
      "anonymous": false,
      "inputs": [
        {
          "indexed": false,
          "name": "id",
          "type": "uint256"
        }
      ],
      "name": "BurnedPartialEeu",
      "type": "event"
    },
    {
      "constant": false,
      "inputs": [
        {
          "name": "ledgerOwner",
          "type": "address"
        },
        {
          "name": "eeuTypeId",
          "type": "uint256"
        },
        {
          "name": "qtyKG",
          "type": "int256"
        }
      ],
      "name": "burnEeus",
      "outputs": [],
      "payable": false,
      "stateMutability": "nonpayable",
      "type": "function"
    },
    {
      "constant": true,
      "inputs": [],
      "name": "getKgCarbonBurned",
      "outputs": [
        {
          "name": "count",
          "type": "uint256"
        }
      ],
      "payable": false,
      "stateMutability": "view",
      "type": "function"
    }
  ],
  "bytecode": "0x6080604052336000806101000a81548173ffffffffffffffffffffffffffffffffffffffff021916908373ffffffffffffffffffffffffffffffffffffffff1602179055506040518060400160405280600681526020017f554e464343430000000000000000000000000000000000000000000000000000815250600160008081526020019081526020016000209080519060200190620000a292919062000110565b506040518060400160405280600381526020017f5643530000000000000000000000000000000000000000000000000000000000815250600160006001815260200190815260200160002090805190602001906200010292919062000110565b5060028081905550620001bf565b828054600181600116156101000203166002900490600052602060002090601f016020900481019282601f106200015357805160ff191683800117855562000184565b8280016001018555821562000184579182015b828111156200018357825182559160200191906001019062000166565b5b50905062000193919062000197565b5090565b620001bc91905b80821115620001b85760008160009055506001016200019e565b5090565b90565b61242e80620001cf6000396000f3fe608060405234801561001057600080fd5b50600436106100a95760003560e01c80637b2d412a116100715780637b2d412a14610152578063963030df1461016e5780639ce9a4a61461018c578063a89a8884146101bc578063bcc376c6146101ec578063e3f64b351461020a576100a9565b80630722a4ee146100ae5780630834e864146100de57806319b67615146100fa5780634dc26ae81461011857806351664b2614610136575b600080fd5b6100c860048036036100c391908101906116ee565b610228565b6040516100d59190612097565b60405180910390f35b6100f860048036036100f39190810190611682565b610287565b005b610102610338565b60405161010f9190612133565b60405180910390f35b610120610342565b60405161012d91906120cd565b60405180910390f35b610150600480360361014b9190810190611641565b61056e565b005b61016c600480360361016791908101906115f2565b6106fb565b005b610176610c37565b60405161018391906120ef565b60405180910390f35b6101a660048036036101a191908101906116ee565b610d96565b6040516101b391906120b2565b60405180910390f35b6101d660048036036101d191908101906115c9565b610e37565b6040516101e39190612111565b60405180910390f35b6101f4611292565b6040516102019190611fb5565b60405180910390f35b610212611320565b60405161021f9190612133565b60405180910390f35b61023061132a565b600560008381526020019081526020016000206040518060a0016040529081600082015481526020016001820154815260200160028201548152602001600382015481526020016004820154815250509050919050565b6000809054906101000a900473ffffffffffffffffffffffffffffffffffffffff1673ffffffffffffffffffffffffffffffffffffffff163373ffffffffffffffffffffffffffffffffffffffff1614610316576040517f08c379a000000000000000000000000000000000000000000000000000000000815260040161030d90612017565b60405180910390fd5b60008090505b60045481101561033357808060010191505061031c565b505050565b6000600654905090565b61034a611359565b606060045460405190808252806020026020018201604052801561038857816020015b61037561136c565b81526020019060019003908161036d5790505b50905060008090505b60045481101561054c57604051806060016040528060036000848152602001908152602001600020600001548152602001600360008481526020019081526020016000206001018054600181600116156101000203166002900480601f01602080910402602001604051908101604052809291908181526020018280546001816001161561010002031660029004801561046c5780601f106104415761010080835404028352916020019161046c565b820191906000526020600020905b81548152906001019060200180831161044f57829003601f168201915b50505050508152602001600360008481526020019081526020016000206002018054600181600116156101000203166002900480601f0160208091040260200160405190810160405280929190818152602001828054600181600116156101000203166002900480156105205780601f106104f557610100808354040283529160200191610520565b820191906000526020600020905b81548152906001019060200180831161050357829003601f168201915b505050505081525082828151811061053457fe5b60200260200101819052508080600101915050610391565b50610555611359565b6040518060200160405280838152509050809250505090565b6000809054906101000a900473ffffffffffffffffffffffffffffffffffffffff1673ffffffffffffffffffffffffffffffffffffffff163373ffffffffffffffffffffffffffffffffffffffff16146105fd576040517f08c379a00000000000000000000000000000000000000000000000000000000081526004016105f490612017565b60405180910390fd5b60008090505b6002548110156106bb578160405160200161061e9190611f87565b60405160208183030381529060405280519060200120600160008381526020019081526020016000206040516020016106579190611f9e565b6040516020818303038152906040528051906020012014156106ae576040517f08c379a00000000000000000000000000000000000000000000000000000000081526004016106a590612077565b60405180910390fd5b8080600101915050610603565b508060016000600254815260200190815260200160002090805190602001906106e592919061138d565b5060026000815480929190600101919050555050565b6000809054906101000a900473ffffffffffffffffffffffffffffffffffffffff1673ffffffffffffffffffffffffffffffffffffffff163373ffffffffffffffffffffffffffffffffffffffff161461078a576040517f08c379a000000000000000000000000000000000000000000000000000000000815260040161078190612017565b60405180910390fd5b60011515600e60008573ffffffffffffffffffffffffffffffffffffffff1673ffffffffffffffffffffffffffffffffffffffff16815260200190815260200160002060000160009054906101000a900460ff16151514610820576040517f08c379a000000000000000000000000000000000000000000000000000000000815260040161081790612037565b60405180910390fd5b6103e8811215610865576040517f08c379a000000000000000000000000000000000000000000000000000000000815260040161085c90612057565b60405180910390fd5b60008210158015610877575060025482105b6108b6576040517f08c379a00000000000000000000000000000000000000000000000000000000081526004016108ad90611ff7565b60405180910390fd5b80600e60008573ffffffffffffffffffffffffffffffffffffffff1673ffffffffffffffffffffffffffffffffffffffff168152602001908152602001600020600201600084815260200190815260200160002054101561094c576040517f08c379a000000000000000000000000000000000000000000000000000000000815260040161094390611fd7565b60405180910390fd5b600080905060008290505b6000811115610c20576000600e60008773ffffffffffffffffffffffffffffffffffffffff1673ffffffffffffffffffffffffffffffffffffffff1681526020019081526020016000206001016000868152602001908152602001600020905060008184815481106109c557fe5b90600052602060002001549050600060096000838152602001908152602001600020549050600060076000848152602001908152602001600020549050818510610b35576000600960008581526020019081526020016000208190555083600185805490500381548110610a3557fe5b9060005260206000200154848781548110610a4c57fe5b906000526020600020018190555083805480919060019003610a6e919061140d565b5081600e60008b73ffffffffffffffffffffffffffffffffffffffff1673ffffffffffffffffffffffffffffffffffffffff16815260200190815260200160002060020160008a81526020019081526020016000206000828254039250508190555081600560008381526020019081526020016000206004016000828254019250508190555081850394507f44d48a2d499b338571c4e4b0c39583cb65555390c814c6b5e16413725794d96483604051610b289190612133565b60405180910390a1610c17565b84600960008581526020019081526020016000206000828254039250508190555084600e60008b73ffffffffffffffffffffffffffffffffffffffff1673ffffffffffffffffffffffffffffffffffffffff16815260200190815260200160002060020160008a815260200190815260200160002060008282540392505081905550846005600083815260200190815260200160002060040160008282540192505081905550600094507fa5851f1622aa71caf9f97a923b1cc1710d7dad8784c6b8d52c7f1dcf760e96d783604051610c0e9190612133565b60405180910390a15b50505050610957565b82600c600082825401925050819055505050505050565b610c3f611439565b6060600254604051908082528060200260200182016040528015610c7d57816020015b610c6a61144c565b815260200190600190039081610c625790505b50905060008090505b600254811015610d74576040518060400160405280828152602001600160008481526020019081526020016000208054600181600116156101000203166002900480601f016020809104026020016040519081016040528092919081815260200182805460018160011615610100020316600290048015610d485780601f10610d1d57610100808354040283529160200191610d48565b820191906000526020600020905b815481529060010190602001808311610d2b57829003601f168201915b5050505050815250828281518110610d5c57fe5b60200260200101819052508080600101915050610c86565b50610d7d611439565b6040518060200160405280838152509050809250505090565b610d9e611466565b6040518060c0016040528060006007600086815260200190815260200160002054141515158152602001838152602001600860008581526020019081526020016000205481526020016009600085815260200190815260200160002054815260200160076000858152602001908152602001600020548152602001600a6000858152602001908152602001600020548152509050919050565b610e3f61149e565b6060806000809050600e60008673ffffffffffffffffffffffffffffffffffffffff1673ffffffffffffffffffffffffffffffffffffffff16815260200190815260200160002060000160009054906101000a900460ff161561118d57600080905060008090505b600254811015610f1957600e60008873ffffffffffffffffffffffffffffffffffffffff1673ffffffffffffffffffffffffffffffffffffffff168152602001908152602001600020600101600082815260200190815260200160002080549050820191508080600101915050610ea7565b5080604051908082528060200260200182016040528015610f5457816020015b610f416114c8565b815260200190600190039081610f395790505b509350600080905060008090505b600254811015611185576060600e60008a73ffffffffffffffffffffffffffffffffffffffff1673ffffffffffffffffffffffffffffffffffffffff168152602001908152602001600020600101600083815260200190815260200160002080548060200260200160405190810160405280929190818152602001828054801561100b57602002820191906000526020600020905b815481526020019060010190808311610ff7575b5050505050905060008090505b815181101561117657600082828151811061102f57fe5b602002602001015190506009600082815260200190815260200160002054870196506040518060a00160405280828152602001858152602001600160008781526020019081526020016000208054600181600116156101000203166002900480601f01602080910402602001604051908101604052809291908181526020018280546001816001161561010002031660029004801561110f5780601f106110e45761010080835404028352916020019161110f565b820191906000526020600020905b8154815290600101906020018083116110f257829003601f168201915b5050505050815260200160076000848152602001908152602001600020548152602001600960008481526020019081526020016000205481525089868151811061115557fe5b60200260200101819052508480600101955050508080600101915050611018565b50508080600101915050610f62565b50505061120a565b60006040519080825280602002602001820160405280156111c857816020015b6111b56114c8565b8152602001906001900390816111ad5790505b509250600060405190808252806020026020018201604052801561120657816020015b6111f36114f7565b8152602001906001900390816111eb5790505b5091505b61121261149e565b6040518060800160405280600e60008973ffffffffffffffffffffffffffffffffffffffff1673ffffffffffffffffffffffffffffffffffffffff16815260200190815260200160002060000160009054906101000a900460ff161515815260200185815260200183815260200184815250905080945050505050919050565b6060600f80548060200260200160405190810160405280929190818152602001828054801561131657602002820191906000526020600020905b8160009054906101000a900473ffffffffffffffffffffffffffffffffffffffff1673ffffffffffffffffffffffffffffffffffffffff16815260200190600101908083116112cc575b5050505050905090565b6000600c54905090565b6040518060a0016040528060008152602001600081526020016000815260200160008152602001600081525090565b6040518060200160405280606081525090565b60405180606001604052806000815260200160608152602001606081525090565b828054600181600116156101000203166002900490600052602060002090601f016020900481019282601f106113ce57805160ff19168380011785556113fc565b828001600101855582156113fc579182015b828111156113fb5782518255916020019190600101906113e0565b5b5090506114099190611511565b5090565b815481835581811115611434578183600052602060002091820191016114339190611511565b5b505050565b6040518060200160405280606081525090565b604051806040016040528060008152602001606081525090565b6040518060c0016040528060001515815260200160008152602001600081526020016000815260200160008152602001600081525090565b60405180608001604052806000151581526020016060815260200160008152602001606081525090565b6040518060a0016040528060008152602001600081526020016060815260200160008152602001600081525090565b604051806040016040528060008152602001600081525090565b61153391905b8082111561152f576000816000905550600101611517565b5090565b90565b600081359050611545816123af565b92915050565b60008135905061155a816123c6565b92915050565b600082601f83011261157157600080fd5b813561158461157f8261217b565b61214e565b915080825260208301602083018583830111156115a057600080fd5b6115ab83828461235c565b50505092915050565b6000813590506115c3816123dd565b92915050565b6000602082840312156115db57600080fd5b60006115e984828501611536565b91505092915050565b60008060006060848603121561160757600080fd5b600061161586828701611536565b9350506020611626868287016115b4565b92505060406116378682870161154b565b9150509250925092565b60006020828403121561165357600080fd5b600082013567ffffffffffffffff81111561166d57600080fd5b61167984828501611560565b91505092915050565b6000806040838503121561169557600080fd5b600083013567ffffffffffffffff8111156116af57600080fd5b6116bb85828601611560565b925050602083013567ffffffffffffffff8111156116d857600080fd5b6116e485828601611560565b9150509250929050565b60006020828403121561170057600080fd5b600061170e848285016115b4565b91505092915050565b60006117238383611783565b60208301905092915050565b600061173b8383611c8f565b905092915050565b600061174f8383611dc9565b905092915050565b60006117638383611e5a565b60408301905092915050565b600061177b8383611e89565b905092915050565b61178c8161230a565b82525050565b600061179d826121fa565b6117a78185612288565b93506117b2836121a7565b8060005b838110156117e35781516117ca8882611717565b97506117d583612247565b9250506001810190506117b6565b5085935050505092915050565b60006117fb82612205565b6118058185612299565b935083602082028501611817856121b4565b8060005b858110156118535784840389528151611834858261172f565b945061183f83612254565b925060208a0199505060018101905061181b565b50829750879550505050505092915050565b600061187082612210565b61187a81856122aa565b93508360208202850161188c856121c1565b8060005b858110156118c857848403895281516118a98582611743565b94506118b483612261565b925060208a01995050600181019050611890565b50829750879550505050505092915050565b60006118e58261221b565b6118ef81856122bb565b93506118fa836121ce565b8060005b8381101561192b5781516119128882611757565b975061191d8361226e565b9250506001810190506118fe565b5085935050505092915050565b600061194382612226565b61194d81856122cc565b93508360208202850161195f856121db565b8060005b8581101561199b578484038952815161197c858261176f565b94506119878361227b565b925060208a01995050600181019050611963565b50829750879550505050505092915050565b6119b68161231c565b82525050565b6119c581612328565b82525050565b60006119d68261223c565b6119e081856122ff565b93506119f081856020860161236b565b80840191505092915050565b6000611a0782612231565b611a1181856122dd565b9350611a2181856020860161236b565b611a2a8161239e565b840191505092915050565b600081546001811660008114611a525760018114611a7757611abb565b607f6002830416611a6381876122ff565b955060ff1983168652808601935050611abb565b60028204611a8581876122ff565b9550611a90856121e8565b60005b82811015611ab257815481890152600182019150602081019050611a93565b82880195505050505b505092915050565b6000611ad06029836122ee565b91507f496e73756666696369656e7420636172626f6e2068656c64206279205f6c656460008301527f676572206f776e657200000000000000000000000000000000000000000000006020830152604082019050919050565b6000611b366010836122ee565b91507f496e76616c6964204545552074797065000000000000000000000000000000006000830152602082019050919050565b6000611b766011836122ee565b91507f52657374726963746564206d6574686f640000000000000000000000000000006000830152602082019050919050565b6000611bb66015836122ee565b91507f496e76616c6964205f6c6564676572206f776e657200000000000000000000006000830152602082019050919050565b6000611bf66029836122ee565b91507f4d696e696d756d206f6e65206d657472696320746f6e206f6620636172626f6e60008301527f20726571756972656400000000000000000000000000000000000000000000006020830152604082019050919050565b6000611c5c601c836122ee565b91507f4545552074797065206e616d6520616c726561647920657869737473000000006000830152602082019050919050565b6000606083016000830151611ca76000860182611f69565b5060208301518482036020860152611cbf82826119fc565b91505060408301518482036040860152611cd982826119fc565b9150508091505092915050565b60a082016000820151611cfc6000850182611f69565b506020820151611d0f6020850182611f69565b506040820151611d226040850182611f69565b506060820151611d356060850182611f69565b506080820151611d486080850182611f69565b50505050565b60c082016000820151611d6460008501826119ad565b506020820151611d776020850182611f69565b506040820151611d8a6040850182611f69565b506060820151611d9d6060850182611f69565b506080820151611db06080850182611f69565b5060a0820151611dc360a0850182611f69565b50505050565b6000604083016000830151611de16000860182611f69565b5060208301518482036020860152611df982826119fc565b9150508091505092915050565b60006020830160008301518482036000860152611e2382826117f0565b9150508091505092915050565b60006020830160008301518482036000860152611e4d8282611865565b9150508091505092915050565b604082016000820151611e706000850182611f69565b506020820151611e8360208501826119bc565b50505050565b600060a083016000830151611ea16000860182611f69565b506020830151611eb46020860182611f69565b5060408301518482036040860152611ecc82826119fc565b9150506060830151611ee16060860182611f69565b506080830151611ef46080860182611f69565b508091505092915050565b6000608083016000830151611f1760008601826119ad565b5060208301518482036020860152611f2f8282611938565b9150506040830151611f446040860182611f69565b5060608301518482036060860152611f5c82826118da565b9150508091505092915050565b611f7281612352565b82525050565b611f8181612352565b82525050565b6000611f9382846119cb565b915081905092915050565b6000611faa8284611a35565b915081905092915050565b60006020820190508181036000830152611fcf8184611792565b905092915050565b60006020820190508181036000830152611ff081611ac3565b9050919050565b6000602082019050818103600083015261201081611b29565b9050919050565b6000602082019050818103600083015261203081611b69565b9050919050565b6000602082019050818103600083015261205081611ba9565b9050919050565b6000602082019050818103600083015261207081611be9565b9050919050565b6000602082019050818103600083015261209081611c4f565b9050919050565b600060a0820190506120ac6000830184611ce6565b92915050565b600060c0820190506120c76000830184611d4e565b92915050565b600060208201905081810360008301526120e78184611e06565b905092915050565b600060208201905081810360008301526121098184611e30565b905092915050565b6000602082019050818103600083015261212b8184611eff565b905092915050565b60006020820190506121486000830184611f78565b92915050565b6000604051905081810181811067ffffffffffffffff8211171561217157600080fd5b8060405250919050565b600067ffffffffffffffff82111561219257600080fd5b601f19601f8301169050602081019050919050565b6000602082019050919050565b6000602082019050919050565b6000602082019050919050565b6000602082019050919050565b6000602082019050919050565b60008160005260206000209050919050565b600081519050919050565b600081519050919050565b600081519050919050565b600081519050919050565b600081519050919050565b600081519050919050565b600081519050919050565b6000602082019050919050565b6000602082019050919050565b6000602082019050919050565b6000602082019050919050565b6000602082019050919050565b600082825260208201905092915050565b600082825260208201905092915050565b600082825260208201905092915050565b600082825260208201905092915050565b600082825260208201905092915050565b600082825260208201905092915050565b600082825260208201905092915050565b600081905092915050565b600061231582612332565b9050919050565b60008115159050919050565b6000819050919050565b600073ffffffffffffffffffffffffffffffffffffffff82169050919050565b6000819050919050565b82818337600083830152505050565b60005b8381101561238957808201518184015260208101905061236e565b83811115612398576000848401525b50505050565b6000601f19601f8301169050919050565b6123b88161230a565b81146123c357600080fd5b50565b6123cf81612328565b81146123da57600080fd5b50565b6123e681612352565b81146123f157600080fd5b5056fea265627a7a72305820a1df6d5e154a168d216171350931da8e94ea119f5d4863de393a8df63813ab4b6c6578706572696d656e74616cf50037",
  "source": "pragma solidity 0.5.8;\r\npragma experimental ABIEncoderV2;\r\n\r\nimport \"./Owned.sol\";\r\nimport \"./AcLedger.sol\";\r\n\r\ncontract EeuBurnable is Owned, AcLedger {\r\n    // Events -- TODO: encode full data in events\r\n    event BurnedFullEeu(uint256 id);\r\n    event BurnedPartialEeu(uint256 id);\r\n\r\n    /**\r\n     * burns carbons by resizing EEUs, and/or removing EEUs from the _ledger.\r\n     * removes EEUs (or fractions thereof) from the main list and from the _ledger, resizing as necessary.\r\n     * the supplied _ledger owner must hold the supplied quantity of carbon in aggregate across _ledger EEUs, and of the supplied type.\r\n     * @param ledgerOwner owner address of the EEUs in the _ledger\r\n     * @param eeuTypeId EEU type\r\n     * @param qtyKG tonnage to burn\r\n     */\r\n    function burnEeus(address ledgerOwner, /*EeuType eeuType*/uint256 eeuTypeId, int256 qtyKG) public {\r\n        require(msg.sender == owner, \"Restricted method\");\r\n        require(_ledger[ledgerOwner].exists == true, \"Invalid _ledger owner\");\r\n        require(qtyKG >= 1000, \"Minimum one metric ton of carbon required\");\r\n        //require(eeuType != EeuType.dummy_end, \"Invalid EEU type\");\r\n        require(eeuTypeId >= 0 && eeuTypeId < _count_eeuTypeIds, \"Invalid EEU type\");\r\n\r\n        // check _ledger owner has sufficient carbon tonnage of supplied type\r\n        require(_ledger[ledgerOwner].type_sumKG[eeuTypeId] >= uint256(qtyKG), \"Insufficient carbon held by _ledger owner\");\r\n\r\n        // burn sufficient EEUs\r\n        uint256 ndx = 0;\r\n        uint256 remainingToBurn = uint256(qtyKG);\r\n        while (remainingToBurn > 0) {\r\n            uint256[] storage type_eeuIds = _ledger[ledgerOwner].type_eeuIds[eeuTypeId]; // ??? proper ref. to storage\r\n            uint256 eeuId = type_eeuIds[ndx];\r\n            uint256 eeuKg = _eeus_KG[eeuId];\r\n            uint256 batchId = _eeus_batchId[eeuId];\r\n\r\n            if (remainingToBurn >= eeuKg) {\r\n                // burn full EEU\r\n                _eeus_KG[eeuId] = 0;\r\n\r\n                // remove from _ledger\r\n                type_eeuIds[ndx] = type_eeuIds[type_eeuIds.length - 1];\r\n                type_eeuIds.length--;\r\n                _ledger[ledgerOwner].type_sumKG[eeuTypeId] -= eeuKg;\r\n\r\n                // burn from batch\r\n                _eeuBatches[batchId].burnedKG += eeuKg;\r\n\r\n                remainingToBurn -= eeuKg;\r\n\r\n                emit BurnedFullEeu(eeuId);\r\n            } else {\r\n                // resize EEU\r\n                _eeus_KG[eeuId] -= remainingToBurn;\r\n\r\n                // retain on _ledger\r\n                _ledger[ledgerOwner].type_sumKG[eeuTypeId] -= remainingToBurn;\r\n\r\n                // burn from batch\r\n                _eeuBatches[batchId].burnedKG += remainingToBurn;\r\n\r\n                remainingToBurn = 0;\r\n\r\n                emit BurnedPartialEeu(eeuId);\r\n            }\r\n        }\r\n        _eeuKgBurned += uint256(qtyKG);\r\n    }\r\n\r\n    /**\r\n     * @dev Returns the global no. of KGs carbon burned in EEUs\r\n     */\r\n    function getKgCarbonBurned() external view returns (uint256 count) {\r\n        return _eeuKgBurned;\r\n    }\r\n\r\n    /*function arrayRemoveSwapDelete(uint256 valueToFindAndRemove, uint256[] storage array) private returns (bool found)\r\n    {\r\n        for (uint256 i = 0; i < array.length; i++) {\r\n            if (array[i] == valueToFindAndRemove) {\r\n                array[i] = array[array.length - 1];\r\n                //delete array[array.length - 1]; // length-- is sufficient\r\n                array.length--;\r\n                return true;\r\n            }\r\n        }\r\n        return false;\r\n    }*/\r\n\r\n    /*function arrayRemoveNewArray(uint valueToFindAndRemove, uint[] memory array)\r\n    internal returns(uint[] memory)  {\r\n        uint[] storage auxArray;\r\n        for (uint i = 0; i < array.length; i++){\r\n            if(array[i] != valueToFindAndRemove)\r\n                auxArray.push(array[i]);\r\n        }\r\n        return auxArray;\r\n    }*/\r\n}\r\n",
  "sourcePath": "C:\\ac\\src\\ac-monorepo\\packages\\erc20\\contracts\\AcMaster\\EeuBurnable.sol",
  "compiler": {
    "name": "solc",
    "version": "0.5.8+commit.23d335f2.Emscripten.clang"
  },
  "schemaVersion": "3.0.11",
  "updatedAt": "2019-08-05T15:35:04.403Z",
  "devdoc": {
    "methods": {
      "addCcyType(string,string)": {
        "details": "Adds a new currency type\r",
        "params": {
          "name": "The new currency type name\r",
          "unit": "The base unit of the new currency type\r"
        }
      },
      "addEeuType(string)": {
        "details": "Adds a new EEU type\r",
        "params": {
          "name": "The new EEU type name\r"
        }
      },
      "burnEeus(address,uint256,int256)": {
        "params": {
          "eeuTypeId": "EEU type\r",
          "ledgerOwner": "owner address of the EEUs in the _ledger\r",
          "qtyKG": "tonnage to burn\r"
        }
      },
      "getCcyTypes()": {
        "details": "Returns current currency types\r"
      },
      "getEeu(uint256)": {
        "details": "Returns an EEU by ID\r"
      },
      "getEeuBatch(uint256)": {
        "details": "Returns an EEU batch by ID\r"
      },
      "getEeuBatchCount()": {
        "details": "Returns the global EEU batch count\r"
      },
      "getEeuTypes()": {
        "details": "Returns current EEU types\r"
      },
      "getKgCarbonBurned()": {
        "details": "Returns the global no. of KGs carbon burned in EEUs\r"
      },
      "getLedgerEntry(address)": {
        "details": "Returns the _ledger entry for a single account\r"
      },
      "getLedgerOwners()": {
        "details": "Returns all accounts in the ledger\r"
      }
    }
  },
  "userdoc": {
    "methods": {
      "burnEeus(address,uint256,int256)": {
        "notice": "burns carbons by resizing EEUs, and/or removing EEUs from the _ledger.\r removes EEUs (or fractions thereof) from the main list and from the _ledger, resizing as necessary.\r the supplied _ledger owner must hold the supplied quantity of carbon in aggregate across _ledger EEUs, and of the supplied type.\r"
      }
    }
  }
}