{
  "contractName": "EeuBurnable",
  "abi": [
    {
      "constant": true,
      "inputs": [
        {
          "name": "id",
          "type": "uint256"
        }
      ],
      "name": "getEeuBatch",
      "outputs": [
        {
          "components": [
            {
              "name": "id",
              "type": "uint256"
            },
            {
              "name": "mintedTimestamp",
              "type": "uint256"
            },
            {
              "name": "eeuType",
              "type": "uint8"
            },
            {
              "name": "mintedKG",
              "type": "uint256"
            },
            {
              "name": "burnedKG",
              "type": "uint256"
            }
          ],
          "name": "batch",
          "type": "tuple"
        }
      ],
      "payable": false,
      "stateMutability": "view",
      "type": "function"
    },
    {
      "constant": true,
      "inputs": [],
      "name": "getEeuBatchCount",
      "outputs": [
        {
          "name": "count",
          "type": "uint256"
        }
      ],
      "payable": false,
      "stateMutability": "view",
      "type": "function"
    },
    {
      "constant": true,
      "inputs": [],
      "name": "getEeuMintedCount",
      "outputs": [
        {
          "name": "count",
          "type": "uint256"
        }
      ],
      "payable": false,
      "stateMutability": "view",
      "type": "function"
    },
    {
      "constant": true,
      "inputs": [
        {
          "name": "id",
          "type": "uint256"
        }
      ],
      "name": "getEeu",
      "outputs": [
        {
          "components": [
            {
              "name": "exists",
              "type": "bool"
            },
            {
              "name": "id",
              "type": "uint256"
            },
            {
              "name": "mintedKG",
              "type": "uint256"
            },
            {
              "name": "KG",
              "type": "uint256"
            },
            {
              "name": "batchId",
              "type": "uint256"
            },
            {
              "name": "mintedTimestamp",
              "type": "uint256"
            }
          ],
          "name": "eeu",
          "type": "tuple"
        }
      ],
      "payable": false,
      "stateMutability": "view",
      "type": "function"
    },
    {
      "constant": true,
      "inputs": [
        {
          "name": "account",
          "type": "address"
        }
      ],
      "name": "getLedgerEntry",
      "outputs": [
        {
          "components": [
            {
              "name": "exists",
              "type": "bool"
            },
            {
              "components": [
                {
                  "name": "eeuType",
                  "type": "uint8"
                },
                {
                  "name": "batchId",
                  "type": "uint256"
                },
                {
                  "name": "eeuId",
                  "type": "uint256"
                },
                {
                  "name": "eeuKG",
                  "type": "uint256"
                }
              ],
              "name": "eeus",
              "type": "tuple[]"
            },
            {
              "name": "eeuIds",
              "type": "uint256[]"
            },
            {
              "name": "eeu_sumKG",
              "type": "uint256"
            },
            {
              "name": "usdCents",
              "type": "uint256"
            },
            {
              "name": "ethWei",
              "type": "uint256"
            }
          ],
          "name": "entry",
          "type": "tuple"
        }
      ],
      "payable": false,
      "stateMutability": "view",
      "type": "function"
    },
    {
      "constant": true,
      "inputs": [],
      "name": "getKgCarbonMinted",
      "outputs": [
        {
          "name": "count",
          "type": "uint256"
        }
      ],
      "payable": false,
      "stateMutability": "view",
      "type": "function"
    },
    {
      "constant": true,
      "inputs": [],
      "name": "getKgCarbonBurned",
      "outputs": [
        {
          "name": "count",
          "type": "uint256"
        }
      ],
      "payable": false,
      "stateMutability": "view",
      "type": "function"
    },
    {
      "anonymous": false,
      "inputs": [
        {
          "indexed": false,
          "name": "id",
          "type": "uint256"
        }
      ],
      "name": "BurnedFullEeu",
      "type": "event"
    },
    {
      "anonymous": false,
      "inputs": [
        {
          "indexed": false,
          "name": "id",
          "type": "uint256"
        }
      ],
      "name": "BurnedPartialEeu",
      "type": "event"
    },
    {
      "constant": false,
      "inputs": [
        {
          "name": "ledgerOwner",
          "type": "address"
        },
        {
          "name": "eeuType",
          "type": "uint8"
        },
        {
          "name": "qtyKG",
          "type": "int256"
        }
      ],
      "name": "burnEeus",
      "outputs": [],
      "payable": false,
      "stateMutability": "nonpayable",
      "type": "function"
    }
  ],
  "bytecode": "0x6080604052336000806101000a81548173ffffffffffffffffffffffffffffffffffffffff021916908373ffffffffffffffffffffffffffffffffffffffff160217905550611650806100536000396000f3fe608060405234801561001057600080fd5b50600436106100885760003560e01c80639ce9a4a61161005b5780639ce9a4a614610115578063a89a888414610145578063ba0138cb14610175578063e3f64b351461019357610088565b80630722a4ee1461008d57806319b67615146100bd5780633846d448146100db57806371f2b147146100f9575b600080fd5b6100a760048036036100a29190810190610f08565b6101b1565b6040516100b4919061144d565b60405180910390f35b6100c5610233565b6040516100d291906114a5565b60405180910390f35b6100e361023d565b6040516100f091906114a5565b60405180910390f35b610113600480360361010e9190810190610eb9565b610247565b005b61012f600480360361012a9190810190610f08565b6107b7565b60405161013c9190611468565b60405180910390f35b61015f600480360361015a9190810190610e90565b610858565b60405161016c9190611483565b60405180910390f35b61017d610cfa565b60405161018a91906114a5565b60405180910390f35b61019b610d04565b6040516101a891906114a5565b60405180910390f35b6101b9610d0e565b600160008381526020019081526020016000206040518060a001604052908160008201548152602001600182015481526020016002820160009054906101000a900460ff16600281111561020957fe5b600281111561021457fe5b8152602001600382015481526020016004820154815250509050919050565b6000600254905090565b6000600954905090565b6000809054906101000a900473ffffffffffffffffffffffffffffffffffffffff1673ffffffffffffffffffffffffffffffffffffffff163373ffffffffffffffffffffffffffffffffffffffff16146102d6576040517f08c379a00000000000000000000000000000000000000000000000000000000081526004016102cd906113ed565b60405180910390fd5b60011515600a60008573ffffffffffffffffffffffffffffffffffffffff1673ffffffffffffffffffffffffffffffffffffffff16815260200190815260200160002060000160009054906101000a900460ff1615151461036c576040517f08c379a0000000000000000000000000000000000000000000000000000000008152600401610363906113ad565b60405180910390fd5b6103e88112156103b1576040517f08c379a00000000000000000000000000000000000000000000000000000000081526004016103a89061140d565b60405180910390fd5b6002808111156103bd57fe5b8260028111156103c957fe5b141561040a576040517f08c379a0000000000000000000000000000000000000000000000000000000008152600401610401906113cd565b60405180910390fd5b80600a60008573ffffffffffffffffffffffffffffffffffffffff1673ffffffffffffffffffffffffffffffffffffffff168152602001908152602001600020600201600084600281111561045b57fe5b81526020019081526020016000205410156104ab576040517f08c379a00000000000000000000000000000000000000000000000000000000081526004016104a29061142d565b60405180910390fd5b600080905060008290505b60008111156107a0576000600a60008773ffffffffffffffffffffffffffffffffffffffff1673ffffffffffffffffffffffffffffffffffffffff168152602001908152602001600020600101600086600281111561051157fe5b81526020019081526020016000209050600081848154811061052f57fe5b906000526020600020015490506000600560008381526020019081526020016000205490506000600360008481526020019081526020016000205490508185106106aa57600060056000858152602001908152602001600020819055508360018580549050038154811061059f57fe5b90600052602060002001548487815481106105b657fe5b9060005260206000200181905550838054809190600190036105d89190610d48565b5081600a60008b73ffffffffffffffffffffffffffffffffffffffff1673ffffffffffffffffffffffffffffffffffffffff16815260200190815260200160002060020160008a600281111561062a57fe5b81526020019081526020016000206000828254039250508190555081600160008381526020019081526020016000206004016000828254019250508190555081850394507f44d48a2d499b338571c4e4b0c39583cb65555390c814c6b5e16413725794d9648360405161069d91906114a5565b60405180910390a1610797565b84600560008581526020019081526020016000206000828254039250508190555084600a60008b73ffffffffffffffffffffffffffffffffffffffff1673ffffffffffffffffffffffffffffffffffffffff16815260200190815260200160002060020160008a600281111561071c57fe5b815260200190815260200160002060008282540392505081905550846001600083815260200190815260200160002060040160008282540192505081905550600094507fa5851f1622aa71caf9f97a923b1cc1710d7dad8784c6b8d52c7f1dcf760e96d78360405161078e91906114a5565b60405180910390a15b505050506104b6565b826008600082825401925050819055505050505050565b6107bf610d74565b6040518060c001604052806000600360008681526020019081526020016000205414151515815260200183815260200160046000858152602001908152602001600020548152602001600560008581526020019081526020016000205481526020016003600085815260200190815260200160002054815260200160066000858152602001908152602001600020548152509050919050565b610860610dac565b6060806000809050600a60008673ffffffffffffffffffffffffffffffffffffffff1673ffffffffffffffffffffffffffffffffffffffff16815260200190815260200160002060000160009054906101000a900460ff1615610b7057600080905060008090505b6002808111156108d457fe5b81101561094357600a60008873ffffffffffffffffffffffffffffffffffffffff1673ffffffffffffffffffffffffffffffffffffffff1681526020019081526020016000206001016000828152602001908152602001600020805490508201915080806001019150506108c8565b508060405190808252806020026020018201604052801561097e57816020015b61096b610de4565b8152602001906001900390816109635790505b509350806040519080825280602002602001820160405280156109b05781602001602082028038833980820191505090505b509250600080905060008090505b6002808111156109ca57fe5b811015610b68576060600a60008a73ffffffffffffffffffffffffffffffffffffffff1673ffffffffffffffffffffffffffffffffffffffff1681526020019081526020016000206001016000838152602001908152602001600020805480602002602001604051908101604052809291908181526020018280548015610a7057602002820191906000526020600020905b815481526020019060010190808311610a5c575b5050505050905060008090505b8151811015610b59576000828281518110610a9457fe5b6020026020010151905080888681518110610aab57fe5b6020026020010181815250506005600082815260200190815260200160002054870196506040518060800160405280856002811115610ae657fe5b6002811115610af157fe5b8152602001600360008481526020019081526020016000205481526020018281526020016005600084815260200190815260200160002054815250898681518110610b3857fe5b60200260200101819052508480600101955050508080600101915050610a7d565b505080806001019150506109be565b505050610be2565b6000604051908082528060200260200182016040528015610bab57816020015b610b98610de4565b815260200190600190039081610b905790505b5092506000604051908082528060200260200182016040528015610bde5781602001602082028038833980820191505090505b5091505b610bea610dac565b6040518060c00160405280600a60008973ffffffffffffffffffffffffffffffffffffffff1673ffffffffffffffffffffffffffffffffffffffff16815260200190815260200160002060000160009054906101000a900460ff1615158152602001858152602001848152602001838152602001600a60008973ffffffffffffffffffffffffffffffffffffffff1673ffffffffffffffffffffffffffffffffffffffff168152602001908152602001600020600301548152602001600a60008973ffffffffffffffffffffffffffffffffffffffff1673ffffffffffffffffffffffffffffffffffffffff16815260200190815260200160002060040154815250905080945050505050919050565b6000600754905090565b6000600854905090565b6040518060a00160405280600081526020016000815260200160006002811115610d3457fe5b815260200160008152602001600081525090565b815481835581811115610d6f57818360005260206000209182019101610d6e9190610e17565b5b505050565b6040518060c0016040528060001515815260200160008152602001600081526020016000815260200160008152602001600081525090565b6040518060c0016040528060001515815260200160608152602001606081526020016000815260200160008152602001600081525090565b604051806080016040528060006002811115610dfc57fe5b81526020016000815260200160008152602001600081525090565b610e3991905b80821115610e35576000816000905550600101610e1d565b5090565b90565b600081359050610e4b816115c1565b92915050565b600081359050610e60816115d8565b92915050565b600081359050610e75816115e8565b92915050565b600081359050610e8a816115ff565b92915050565b600060208284031215610ea257600080fd5b6000610eb084828501610e3c565b91505092915050565b600080600060608486031215610ece57600080fd5b6000610edc86828701610e3c565b9350506020610eed86828701610e51565b9250506040610efe86828701610e66565b9150509250925092565b600060208284031215610f1a57600080fd5b6000610f2884828501610e7b565b91505092915050565b6000610f3d83836112aa565b60808301905092915050565b6000610f55838361138f565b60208301905092915050565b6000610f6c826114da565b610f76818561150a565b9350610f81836114c0565b8060005b83811015610fb2578151610f998882610f31565b9750610fa4836114f0565b925050600181019050610f85565b5085935050505092915050565b6000610fca826114e5565b610fd4818561151b565b9350610fdf836114cd565b8060005b83811015611010578151610ff78882610f49565b9750611002836114fd565b925050600181019050610fe3565b5085935050505092915050565b6110268161154f565b82525050565b611035816115a2565b82525050565b600061104860148361152c565b91507f496e76616c6964206c6564676572206f776e65720000000000000000000000006000830152602082019050919050565b600061108860108361152c565b91507f496e76616c6964204545552074797065000000000000000000000000000000006000830152602082019050919050565b60006110c860118361152c565b91507f52657374726963746564206d6574686f640000000000000000000000000000006000830152602082019050919050565b600061110860298361152c565b91507f4d696e696d756d206f6e65206d657472696320746f6e206f6620636172626f6e60008301527f20726571756972656400000000000000000000000000000000000000000000006020830152604082019050919050565b600061116e60288361152c565b91507f496e73756666696369656e7420636172626f6e2068656c64206279206c65646760008301527f6572206f776e65720000000000000000000000000000000000000000000000006020830152604082019050919050565b60a0820160008201516111dd600085018261138f565b5060208201516111f0602085018261138f565b506040820151611203604085018261102c565b506060820151611216606085018261138f565b506080820151611229608085018261138f565b50505050565b60c082016000820151611245600085018261101d565b506020820151611258602085018261138f565b50604082015161126b604085018261138f565b50606082015161127e606085018261138f565b506080820151611291608085018261138f565b5060a08201516112a460a085018261138f565b50505050565b6080820160008201516112c0600085018261102c565b5060208201516112d3602085018261138f565b5060408201516112e6604085018261138f565b5060608201516112f9606085018261138f565b50505050565b600060c083016000830151611317600086018261101d565b506020830151848203602086015261132f8282610f61565b915050604083015184820360408601526113498282610fbf565b915050606083015161135e606086018261138f565b506080830151611371608086018261138f565b5060a083015161138460a086018261138f565b508091505092915050565b61139881611598565b82525050565b6113a781611598565b82525050565b600060208201905081810360008301526113c68161103b565b9050919050565b600060208201905081810360008301526113e68161107b565b9050919050565b60006020820190508181036000830152611406816110bb565b9050919050565b60006020820190508181036000830152611426816110fb565b9050919050565b6000602082019050818103600083015261144681611161565b9050919050565b600060a08201905061146260008301846111c7565b92915050565b600060c08201905061147d600083018461122f565b92915050565b6000602082019050818103600083015261149d81846112ff565b905092915050565b60006020820190506114ba600083018461139e565b92915050565b6000602082019050919050565b6000602082019050919050565b600081519050919050565b600081519050919050565b6000602082019050919050565b6000602082019050919050565b600082825260208201905092915050565b600082825260208201905092915050565b600082825260208201905092915050565b600061154882611578565b9050919050565b60008115159050919050565b6000819050611569826115b4565b919050565b6000819050919050565b600073ffffffffffffffffffffffffffffffffffffffff82169050919050565b6000819050919050565b60006115ad8261155b565b9050919050565b600381106115be57fe5b50565b6115ca8161153d565b81146115d557600080fd5b50565b600381106115e557600080fd5b50565b6115f18161156e565b81146115fc57600080fd5b50565b61160881611598565b811461161357600080fd5b5056fea265627a7a72305820218cf53c9a081a6d67313ac1d537dc0fdd76f5d4bff25e81a6bf04491174566b6c6578706572696d656e74616cf50037",
  "source": "pragma solidity 0.5.8;\r\npragma experimental ABIEncoderV2;\r\n\r\nimport \"./Owned.sol\";\r\nimport \"./AcLedger.sol\";\r\n\r\ncontract EeuBurnable is Owned, AcLedger {\r\n    // Events -- TODO: encode full data in events\r\n    event BurnedFullEeu(uint256 id);\r\n    event BurnedPartialEeu(uint256 id);\r\n\r\n    /**\r\n     * burns carbons by resizing EEUs, and/or removing EEUs from the ledger.\r\n     * removes EEUs (or fractions thereof) from the main list and from the ledger, resizing as necessary.\r\n     * the supplied ledger owner must hold the supplied quantity of carbon in aggregate across ledger EEUs, and of the supplied type.\r\n     * @param ledgerOwner owner address of the EEUs in the ledger\r\n     * @param eeuType EEU type\r\n     * @param qtyKG tonnage to burn\r\n     */\r\n    function burnEeus(address ledgerOwner, EeuType eeuType, int256 qtyKG) public {\r\n        require(msg.sender == owner, \"Restricted method\");\r\n        require(ledger[ledgerOwner].exists == true, \"Invalid ledger owner\");\r\n        require(qtyKG >= 1000, \"Minimum one metric ton of carbon required\");\r\n        require(eeuType != EeuType.dummy_end, \"Invalid EEU type\");\r\n        //require(eeuIds.length > 0, 'Invalid eeuIds');\r\n\r\n        // check ledger owner has sufficient carbon tonnage of supplied type\r\n        require(\r\n            ledger[ledgerOwner].type_sumKG[uint256(eeuType)] >= uint256(qtyKG),\r\n            \"Insufficient carbon held by ledger owner\"\r\n        );\r\n\r\n        // burn sufficient EEUs\r\n        uint256 ndx = 0;\r\n        uint256 remainingToBurn = uint256(qtyKG);\r\n        while (remainingToBurn > 0) {\r\n            uint256[] storage type_eeuIds = ledger[ledgerOwner].type_eeuIds[uint256(eeuType)]; // ??? proper ref. to storage\r\n            uint256 eeuId = type_eeuIds[ndx];\r\n            uint256 eeuKg = eeus_KG[eeuId];\r\n            uint256 batchId = eeus_batchId[eeuId];\r\n\r\n            if (remainingToBurn >= eeuKg) {\r\n                // burn full EEU\r\n                eeus_KG[eeuId] = 0;\r\n\r\n                // remove from ledger\r\n                type_eeuIds[ndx] = type_eeuIds[type_eeuIds.length - 1];\r\n                type_eeuIds.length--;\r\n                ledger[ledgerOwner].type_sumKG[uint256(eeuType)] -= eeuKg;\r\n\r\n                // burn from batch\r\n                eeuBatches[batchId].burnedKG += eeuKg;\r\n\r\n                remainingToBurn -= eeuKg;\r\n\r\n                emit BurnedFullEeu(eeuId);\r\n            } else {\r\n                // resize EEU\r\n                eeus_KG[eeuId] -= remainingToBurn;\r\n\r\n                // retain on ledger\r\n                ledger[ledgerOwner].type_sumKG[uint256(eeuType)] -= remainingToBurn;\r\n\r\n                // burn from batch\r\n                eeuBatches[batchId].burnedKG += remainingToBurn;\r\n\r\n                remainingToBurn = 0;\r\n\r\n                emit BurnedPartialEeu(eeuId);\r\n            }\r\n        }\r\n        eeuKgBurned += uint256(qtyKG);\r\n    }\r\n\r\n    function arrayRemoveSwapDelete(uint256 valueToFindAndRemove, uint256[] storage array)\r\n    private returns (bool found)\r\n    {\r\n        for (uint256 i = 0; i < array.length; i++) {\r\n            if (array[i] == valueToFindAndRemove) {\r\n                array[i] = array[array.length - 1];\r\n                //delete array[array.length - 1]; // length-- is sufficient\r\n                array.length--;\r\n                return true;\r\n            }\r\n        }\r\n        return false;\r\n    }\r\n\r\n    /*function arrayRemoveNewArray(uint valueToFindAndRemove, uint[] memory array)\r\n    internal returns(uint[] memory)  {\r\n        uint[] storage auxArray;\r\n        for (uint i = 0; i < array.length; i++){\r\n            if(array[i] != valueToFindAndRemove)\r\n                auxArray.push(array[i]);\r\n        }\r\n        return auxArray;\r\n    }*/\r\n\r\n}\r\n",
  "sourcePath": "C:\\ac\\src\\ac-monorepo\\packages\\erc20\\contracts\\EeuBurnable.sol",
  "compiler": {
    "name": "solc",
    "version": "0.5.8+commit.23d335f2.Emscripten.clang"
  },
  "schemaVersion": "3.0.11",
  "updatedAt": "2019-08-04T15:06:16.070Z",
  "devdoc": {
    "methods": {
      "burnEeus(address,uint8,int256)": {
        "params": {
          "eeuType": "EEU type\r",
          "ledgerOwner": "owner address of the EEUs in the ledger\r",
          "qtyKG": "tonnage to burn\r"
        }
      },
      "getEeu(uint256)": {
        "details": "Returns an EEU by ID\r"
      },
      "getEeuBatch(uint256)": {
        "details": "Returns an EEU batch by ID\r"
      },
      "getEeuBatchCount()": {
        "details": "Returns the global EEU batch count\r"
      },
      "getEeuMintedCount()": {
        "details": "Returns the global no. of EEUs minted\r"
      },
      "getKgCarbonBurned()": {
        "details": "Returns the global no. of KGs carbon burned in EEUs\r"
      },
      "getKgCarbonMinted()": {
        "details": "Returns the global no. of KGs carbon minted in EEUs\r"
      },
      "getLedgerEntry(address)": {
        "details": "Returns the ledger entry for an account\r"
      }
    }
  },
  "userdoc": {
    "methods": {
      "burnEeus(address,uint8,int256)": {
        "notice": "burns carbons by resizing EEUs, and/or removing EEUs from the ledger.\r removes EEUs (or fractions thereof) from the main list and from the ledger, resizing as necessary.\r the supplied ledger owner must hold the supplied quantity of carbon in aggregate across ledger EEUs, and of the supplied type.\r"
      }
    }
  }
}