{
  "contractName": "EeuBurnable",
  "abi": [
    {
      "constant": true,
      "inputs": [
        {
          "name": "id",
          "type": "uint256"
        }
      ],
      "name": "getEeuBatch",
      "outputs": [
        {
          "components": [
            {
              "name": "id",
              "type": "uint256"
            },
            {
              "name": "mintedTimestamp",
              "type": "uint256"
            },
            {
              "name": "eeuTypeId",
              "type": "uint256"
            },
            {
              "name": "mintedKG",
              "type": "uint256"
            },
            {
              "name": "burnedKG",
              "type": "uint256"
            }
          ],
          "name": "",
          "type": "tuple"
        }
      ],
      "payable": false,
      "stateMutability": "view",
      "type": "function"
    },
    {
      "constant": false,
      "inputs": [
        {
          "name": "name",
          "type": "string"
        },
        {
          "name": "unit",
          "type": "string"
        }
      ],
      "name": "addCcyType",
      "outputs": [],
      "payable": false,
      "stateMutability": "nonpayable",
      "type": "function"
    },
    {
      "constant": true,
      "inputs": [],
      "name": "getEeuBatchCount",
      "outputs": [
        {
          "name": "",
          "type": "uint256"
        }
      ],
      "payable": false,
      "stateMutability": "view",
      "type": "function"
    },
    {
      "constant": true,
      "inputs": [],
      "name": "getCcyTypes",
      "outputs": [
        {
          "components": [
            {
              "components": [
                {
                  "name": "id",
                  "type": "uint256"
                },
                {
                  "name": "name",
                  "type": "string"
                },
                {
                  "name": "unit",
                  "type": "string"
                }
              ],
              "name": "ccyTypes",
              "type": "tuple[]"
            }
          ],
          "name": "",
          "type": "tuple"
        }
      ],
      "payable": false,
      "stateMutability": "view",
      "type": "function"
    },
    {
      "constant": false,
      "inputs": [
        {
          "name": "name",
          "type": "string"
        }
      ],
      "name": "addEeuType",
      "outputs": [],
      "payable": false,
      "stateMutability": "nonpayable",
      "type": "function"
    },
    {
      "constant": true,
      "inputs": [],
      "name": "getEeuTypes",
      "outputs": [
        {
          "components": [
            {
              "components": [
                {
                  "name": "id",
                  "type": "uint256"
                },
                {
                  "name": "name",
                  "type": "string"
                }
              ],
              "name": "eeuTypes",
              "type": "tuple[]"
            }
          ],
          "name": "",
          "type": "tuple"
        }
      ],
      "payable": false,
      "stateMutability": "view",
      "type": "function"
    },
    {
      "constant": true,
      "inputs": [
        {
          "name": "id",
          "type": "uint256"
        }
      ],
      "name": "getEeu",
      "outputs": [
        {
          "components": [
            {
              "name": "exists",
              "type": "bool"
            },
            {
              "name": "id",
              "type": "uint256"
            },
            {
              "name": "mintedKG",
              "type": "uint256"
            },
            {
              "name": "KG",
              "type": "uint256"
            },
            {
              "name": "batchId",
              "type": "uint256"
            },
            {
              "name": "mintedTimestamp",
              "type": "uint256"
            }
          ],
          "name": "",
          "type": "tuple"
        }
      ],
      "payable": false,
      "stateMutability": "view",
      "type": "function"
    },
    {
      "constant": true,
      "inputs": [
        {
          "name": "account",
          "type": "address"
        }
      ],
      "name": "getLedgerEntry",
      "outputs": [
        {
          "components": [
            {
              "name": "exists",
              "type": "bool"
            },
            {
              "components": [
                {
                  "name": "eeuId",
                  "type": "uint256"
                },
                {
                  "name": "eeuTypeId",
                  "type": "uint256"
                },
                {
                  "name": "eeuTypeName",
                  "type": "string"
                },
                {
                  "name": "batchId",
                  "type": "uint256"
                },
                {
                  "name": "eeuKG",
                  "type": "uint256"
                }
              ],
              "name": "eeus",
              "type": "tuple[]"
            },
            {
              "name": "eeu_sumKG",
              "type": "uint256"
            },
            {
              "components": [
                {
                  "name": "typeId",
                  "type": "uint256"
                },
                {
                  "name": "name",
                  "type": "string"
                },
                {
                  "name": "unit",
                  "type": "string"
                },
                {
                  "name": "balance",
                  "type": "int256"
                }
              ],
              "name": "ccys",
              "type": "tuple[]"
            }
          ],
          "name": "",
          "type": "tuple"
        }
      ],
      "payable": false,
      "stateMutability": "view",
      "type": "function"
    },
    {
      "constant": true,
      "inputs": [],
      "name": "getLedgerOwners",
      "outputs": [
        {
          "name": "",
          "type": "address[]"
        }
      ],
      "payable": false,
      "stateMutability": "view",
      "type": "function"
    },
    {
      "anonymous": false,
      "inputs": [
        {
          "indexed": false,
          "name": "id",
          "type": "uint256"
        },
        {
          "indexed": false,
          "name": "eeuTypeId",
          "type": "uint256"
        },
        {
          "indexed": false,
          "name": "ledgerOwner",
          "type": "address"
        },
        {
          "indexed": false,
          "name": "burnedKG",
          "type": "uint256"
        }
      ],
      "name": "BurnedFullEeu",
      "type": "event"
    },
    {
      "anonymous": false,
      "inputs": [
        {
          "indexed": false,
          "name": "id",
          "type": "uint256"
        },
        {
          "indexed": false,
          "name": "eeuTypeId",
          "type": "uint256"
        },
        {
          "indexed": false,
          "name": "ledgerOwner",
          "type": "address"
        },
        {
          "indexed": false,
          "name": "burnedKG",
          "type": "uint256"
        }
      ],
      "name": "BurnedPartialEeu",
      "type": "event"
    },
    {
      "anonymous": false,
      "inputs": [
        {
          "indexed": false,
          "name": "id",
          "type": "uint256"
        },
        {
          "indexed": false,
          "name": "name",
          "type": "string"
        },
        {
          "indexed": false,
          "name": "unit",
          "type": "string"
        }
      ],
      "name": "AddedCcyType",
      "type": "event"
    },
    {
      "anonymous": false,
      "inputs": [
        {
          "indexed": false,
          "name": "id",
          "type": "uint256"
        },
        {
          "indexed": false,
          "name": "name",
          "type": "string"
        }
      ],
      "name": "AddedEeuType",
      "type": "event"
    },
    {
      "constant": false,
      "inputs": [
        {
          "name": "ledgerOwner",
          "type": "address"
        },
        {
          "name": "eeuTypeId",
          "type": "uint256"
        },
        {
          "name": "qtyKG",
          "type": "int256"
        }
      ],
      "name": "burnEeus",
      "outputs": [],
      "payable": false,
      "stateMutability": "nonpayable",
      "type": "function"
    },
    {
      "constant": true,
      "inputs": [],
      "name": "getKgCarbonBurned",
      "outputs": [
        {
          "name": "count",
          "type": "uint256"
        }
      ],
      "payable": false,
      "stateMutability": "view",
      "type": "function"
    }
  ],
  "bytecode": "0x6080604052336000806101000a81548173ffffffffffffffffffffffffffffffffffffffff021916908373ffffffffffffffffffffffffffffffffffffffff1602179055506040518060400160405280600681526020017f554e464343430000000000000000000000000000000000000000000000000000815250600160008081526020019081526020016000209080519060200190620000a2929190620002e1565b506040518060400160405280600381526020017f56435300000000000000000000000000000000000000000000000000000000008152506001600060018152602001908152602001600020908051906020019062000102929190620002e1565b50600280819055506040518060600160405280600081526020016040518060400160405280600381526020017f555344000000000000000000000000000000000000000000000000000000000081525081526020016040518060400160405280600581526020017f63656e747300000000000000000000000000000000000000000000000000000081525081525060036000808152602001908152602001600020600082015181600001556020820151816001019080519060200190620001cb92919062000368565b506040820151816002019080519060200190620001ea92919062000368565b509050506040518060600160405280600181526020016040518060400160405280600381526020017f455448000000000000000000000000000000000000000000000000000000000081525081526020016040518060400160405280600381526020017f57656900000000000000000000000000000000000000000000000000000000008152508152506003600060018152602001908152602001600020600082015181600001556020820151816001019080519060200190620002b092919062000368565b506040820151816002019080519060200190620002cf92919062000368565b50905050600260048190555062000417565b828054600181600116156101000203166002900490600052602060002090601f016020900481019282601f106200032457805160ff191683800117855562000355565b8280016001018555821562000355579182015b828111156200035457825182559160200191906001019062000337565b5b509050620003649190620003ef565b5090565b828054600181600116156101000203166002900490600052602060002090601f016020900481019282601f10620003ab57805160ff1916838001178555620003dc565b82800160010185558215620003dc579182015b82811115620003db578251825591602001919060010190620003be565b5b509050620003eb9190620003ef565b5090565b6200041491905b8082111562000410576000816000905550600101620003f6565b5090565b90565b612a4180620004276000396000f3fe608060405234801561001057600080fd5b50600436106100a95760003560e01c80637b2d412a116100715780637b2d412a14610152578063963030df1461016e5780639ce9a4a61461018c578063a89a8884146101bc578063bcc376c6146101ec578063e3f64b351461020a576100a9565b80630722a4ee146100ae5780630834e864146100de57806319b67615146100fa5780634dc26ae81461011857806351664b2614610136575b600080fd5b6100c860048036036100c39190810190611b2b565b610228565b6040516100d591906125f0565b60405180910390f35b6100f860048036036100f39190810190611abf565b610287565b005b6101026104a4565b60405161010f919061268c565b60405180910390f35b6101206104ae565b60405161012d9190612626565b60405180910390f35b610150600480360361014b9190810190611a7e565b6106da565b005b61016c60048036036101679190810190611a2f565b6108a2565b005b610176610dea565b6040516101839190612648565b60405180910390f35b6101a660048036036101a19190810190611b2b565b610f49565b6040516101b3919061260b565b60405180910390f35b6101d660048036036101d19190810190611a06565b610fea565b6040516101e3919061266a565b60405180910390f35b6101f46115b2565b60405161020191906124ee565b60405180910390f35b6102126116cf565b60405161021f919061268c565b60405180910390f35b6102306116d9565b600560008381526020019081526020016000206040518060a0016040529081600082015481526020016001820154815260200160028201548152602001600382015481526020016004820154815250509050919050565b6000809054906101000a900473ffffffffffffffffffffffffffffffffffffffff1673ffffffffffffffffffffffffffffffffffffffff163373ffffffffffffffffffffffffffffffffffffffff1614610316576040517f08c379a000000000000000000000000000000000000000000000000000000000815260040161030d90612550565b60405180910390fd5b60008090505b6004548110156103d7578260405160200161033791906124c0565b604051602081830303815290604052805190602001206003600083815260200190815260200160002060010160405160200161037391906124d7565b6040516020818303038152906040528051906020012014156103ca576040517f08c379a00000000000000000000000000000000000000000000000000000000081526004016103c190612570565b60405180910390fd5b808060010191505061031c565b506040518060600160405280600454815260200183815260200182815250600360006004548152602001908152602001600020600082015181600001556020820151816001019080519060200190610430929190611708565b50604082015181600201908051906020019061044d929190611708565b509050507f41c4a4be5d1fed810ab0ace2ffe78022538a72356773c24ed010e06bdf6454b76004548383604051610486939291906126d7565b60405180910390a16004600081548092919060010191905055505050565b6000600654905090565b6104b6611788565b60606004546040519080825280602002602001820160405280156104f457816020015b6104e161179b565b8152602001906001900390816104d95790505b50905060008090505b6004548110156106b857604051806060016040528060036000848152602001908152602001600020600001548152602001600360008481526020019081526020016000206001018054600181600116156101000203166002900480601f0160208091040260200160405190810160405280929190818152602001828054600181600116156101000203166002900480156105d85780601f106105ad576101008083540402835291602001916105d8565b820191906000526020600020905b8154815290600101906020018083116105bb57829003601f168201915b50505050508152602001600360008481526020019081526020016000206002018054600181600116156101000203166002900480601f01602080910402602001604051908101604052809291908181526020018280546001816001161561010002031660029004801561068c5780601f106106615761010080835404028352916020019161068c565b820191906000526020600020905b81548152906001019060200180831161066f57829003601f168201915b50505050508152508282815181106106a057fe5b602002602001018190525080806001019150506104fd565b506106c1611788565b6040518060200160405280838152509050809250505090565b6000809054906101000a900473ffffffffffffffffffffffffffffffffffffffff1673ffffffffffffffffffffffffffffffffffffffff163373ffffffffffffffffffffffffffffffffffffffff1614610769576040517f08c379a000000000000000000000000000000000000000000000000000000000815260040161076090612550565b60405180910390fd5b60008090505b600254811015610827578160405160200161078a91906124c0565b60405160208183030381529060405280519060200120600160008381526020019081526020016000206040516020016107c391906124d7565b60405160208183030381529060405280519060200120141561081a576040517f08c379a0000000000000000000000000000000000000000000000000000000008152600401610811906125d0565b60405180910390fd5b808060010191505061076f565b508060016000600254815260200190815260200160002090805190602001906108519291906117bc565b507ff42a31d05ee5f17e0f159b94b9402293e9cf2265c806b4a55168aeaa3fe275e2600254826040516108859291906126a7565b60405180910390a160026000815480929190600101919050555050565b6000809054906101000a900473ffffffffffffffffffffffffffffffffffffffff1673ffffffffffffffffffffffffffffffffffffffff163373ffffffffffffffffffffffffffffffffffffffff1614610931576040517f08c379a000000000000000000000000000000000000000000000000000000000815260040161092890612550565b60405180910390fd5b60011515600e60008573ffffffffffffffffffffffffffffffffffffffff1673ffffffffffffffffffffffffffffffffffffffff16815260200190815260200160002060000160009054906101000a900460ff161515146109c7576040517f08c379a00000000000000000000000000000000000000000000000000000000081526004016109be90612510565b60405180910390fd5b6103e8811215610a0c576040517f08c379a0000000000000000000000000000000000000000000000000000000008152600401610a0390612590565b60405180910390fd5b60008210158015610a1e575060025482105b610a5d576040517f08c379a0000000000000000000000000000000000000000000000000000000008152600401610a5490612530565b60405180910390fd5b80600e60008573ffffffffffffffffffffffffffffffffffffffff1673ffffffffffffffffffffffffffffffffffffffff1681526020019081526020016000206002016000848152602001908152602001600020541015610af3576040517f08c379a0000000000000000000000000000000000000000000000000000000008152600401610aea906125b0565b60405180910390fd5b600080905060008290505b6000811115610dd3576000600e60008773ffffffffffffffffffffffffffffffffffffffff1673ffffffffffffffffffffffffffffffffffffffff168152602001908152602001600020600101600086815260200190815260200160002090506000818481548110610b6c57fe5b90600052602060002001549050600060096000838152602001908152602001600020549050600060076000848152602001908152602001600020549050818510610ce2576000600960008581526020019081526020016000208190555083600185805490500381548110610bdc57fe5b9060005260206000200154848781548110610bf357fe5b906000526020600020018190555083805480919060019003610c15919061183c565b5081600e60008b73ffffffffffffffffffffffffffffffffffffffff1673ffffffffffffffffffffffffffffffffffffffff16815260200190815260200160002060020160008a81526020019081526020016000206000828254039250508190555081600560008381526020019081526020016000206004016000828254019250508190555081850394507ff214be5dc9cf391efd4738b59af95842784d47fd41a2b9057df440d144f3c67d83898b85604051610cd5949392919061271c565b60405180910390a1610dca565b84600960008581526020019081526020016000206000828254039250508190555084600e60008b73ffffffffffffffffffffffffffffffffffffffff1673ffffffffffffffffffffffffffffffffffffffff16815260200190815260200160002060020160008a8152602001908152602001600020600082825403925050819055508460056000838152602001908152602001600020600401600082825401925050819055507fe304852108e009cdefa218a22b44f9a1f921fb5692ead9b6fb815d388e24869f83898b88604051610dbd949392919061271c565b60405180910390a1600094505b50505050610afe565b82600c600082825401925050819055505050505050565b610df2611868565b6060600254604051908082528060200260200182016040528015610e3057816020015b610e1d61187b565b815260200190600190039081610e155790505b50905060008090505b600254811015610f27576040518060400160405280828152602001600160008481526020019081526020016000208054600181600116156101000203166002900480601f016020809104026020016040519081016040528092919081815260200182805460018160011615610100020316600290048015610efb5780601f10610ed057610100808354040283529160200191610efb565b820191906000526020600020905b815481529060010190602001808311610ede57829003601f168201915b5050505050815250828281518110610f0f57fe5b60200260200101819052508080600101915050610e39565b50610f30611868565b6040518060200160405280838152509050809250505090565b610f51611895565b6040518060c0016040528060006007600086815260200190815260200160002054141515158152602001838152602001600860008581526020019081526020016000205481526020016009600085815260200190815260200160002054815260200160076000858152602001908152602001600020548152602001600a6000858152602001908152602001600020548152509050919050565b610ff26118cd565b6060806000809050600080905060008090505b60025481101561107757600e60008873ffffffffffffffffffffffffffffffffffffffff1673ffffffffffffffffffffffffffffffffffffffff168152602001908152602001600020600101600082815260200190815260200160002080549050820191508080600101915050611005565b50806040519080825280602002602001820160405280156110b257816020015b61109f6118f7565b8152602001906001900390816110975790505b509350600080905060008090505b6002548110156112e3576060600e60008a73ffffffffffffffffffffffffffffffffffffffff1673ffffffffffffffffffffffffffffffffffffffff168152602001908152602001600020600101600083815260200190815260200160002080548060200260200160405190810160405280929190818152602001828054801561116957602002820191906000526020600020905b815481526020019060010190808311611155575b5050505050905060008090505b81518110156112d457600082828151811061118d57fe5b602002602001015190506009600082815260200190815260200160002054870196506040518060a00160405280828152602001858152602001600160008781526020019081526020016000208054600181600116156101000203166002900480601f01602080910402602001604051908101604052809291908181526020018280546001816001161561010002031660029004801561126d5780601f106112425761010080835404028352916020019161126d565b820191906000526020600020905b81548152906001019060200180831161125057829003601f168201915b505050505081526020016007600084815260200190815260200160002054815260200160096000848152602001908152602001600020548152508986815181106112b357fe5b60200260200101819052508480600101955050508080600101915050611176565b505080806001019150506110c0565b5060045460405190808252806020026020018201604052801561132057816020015b61130d611926565b8152602001906001900390816113055790505b50935060008090505b600454811015611527576040518060800160405280828152602001600360008481526020019081526020016000206001018054600181600116156101000203166002900480601f0160208091040260200160405190810160405280929190818152602001828054600181600116156101000203166002900480156113ee5780601f106113c3576101008083540402835291602001916113ee565b820191906000526020600020905b8154815290600101906020018083116113d157829003601f168201915b50505050508152602001600360008481526020019081526020016000206002018054600181600116156101000203166002900480601f0160208091040260200160405190810160405280929190818152602001828054600181600116156101000203166002900480156114a25780601f10611477576101008083540402835291602001916114a2565b820191906000526020600020905b81548152906001019060200180831161148557829003601f168201915b50505050508152602001600e60008b73ffffffffffffffffffffffffffffffffffffffff1673ffffffffffffffffffffffffffffffffffffffff16815260200190815260200160002060030160008481526020019081526020016000205481525085828151811061150f57fe5b60200260200101819052508080600101915050611329565b506115306118cd565b6040518060800160405280600e60008b73ffffffffffffffffffffffffffffffffffffffff1673ffffffffffffffffffffffffffffffffffffffff16815260200190815260200160002060000160009054906101000a900460ff1615158152602001878152602001858152602001868152509050809650505050505050919050565b60606000809054906101000a900473ffffffffffffffffffffffffffffffffffffffff1673ffffffffffffffffffffffffffffffffffffffff163373ffffffffffffffffffffffffffffffffffffffff1614611643576040517f08c379a000000000000000000000000000000000000000000000000000000000815260040161163a90612550565b60405180910390fd5b600f8054806020026020016040519081016040528092919081815260200182805480156116c557602002820191906000526020600020905b8160009054906101000a900473ffffffffffffffffffffffffffffffffffffffff1673ffffffffffffffffffffffffffffffffffffffff168152602001906001019080831161167b575b5050505050905090565b6000600c54905090565b6040518060a0016040528060008152602001600081526020016000815260200160008152602001600081525090565b828054600181600116156101000203166002900490600052602060002090601f016020900481019282601f1061174957805160ff1916838001178555611777565b82800160010185558215611777579182015b8281111561177657825182559160200191906001019061175b565b5b509050611784919061194e565b5090565b6040518060200160405280606081525090565b60405180606001604052806000815260200160608152602001606081525090565b828054600181600116156101000203166002900490600052602060002090601f016020900481019282601f106117fd57805160ff191683800117855561182b565b8280016001018555821561182b579182015b8281111561182a57825182559160200191906001019061180f565b5b509050611838919061194e565b5090565b81548183558181111561186357818360005260206000209182019101611862919061194e565b5b505050565b6040518060200160405280606081525090565b604051806040016040528060008152602001606081525090565b6040518060c0016040528060001515815260200160008152602001600081526020016000815260200160008152602001600081525090565b60405180608001604052806000151581526020016060815260200160008152602001606081525090565b6040518060a0016040528060008152602001600081526020016060815260200160008152602001600081525090565b6040518060800160405280600081526020016060815260200160608152602001600081525090565b61197091905b8082111561196c576000816000905550600101611954565b5090565b90565b600081359050611982816129c2565b92915050565b600081359050611997816129d9565b92915050565b600082601f8301126119ae57600080fd5b81356119c16119bc8261278e565b612761565b915080825260208301602083018583830111156119dd57600080fd5b6119e883828461296f565b50505092915050565b600081359050611a00816129f0565b92915050565b600060208284031215611a1857600080fd5b6000611a2684828501611973565b91505092915050565b600080600060608486031215611a4457600080fd5b6000611a5286828701611973565b9350506020611a63868287016119f1565b9250506040611a7486828701611988565b9150509250925092565b600060208284031215611a9057600080fd5b600082013567ffffffffffffffff811115611aaa57600080fd5b611ab68482850161199d565b91505092915050565b60008060408385031215611ad257600080fd5b600083013567ffffffffffffffff811115611aec57600080fd5b611af88582860161199d565b925050602083013567ffffffffffffffff811115611b1557600080fd5b611b218582860161199d565b9150509250929050565b600060208284031215611b3d57600080fd5b6000611b4b848285016119f1565b91505092915050565b6000611b608383611bbc565b60208301905092915050565b6000611b78838361218d565b905092915050565b6000611b8c83836122c7565b905092915050565b6000611ba08383612358565b905092915050565b6000611bb483836123c2565b905092915050565b611bc58161291d565b82525050565b611bd48161291d565b82525050565b6000611be58261280d565b611bef818561289b565b9350611bfa836127ba565b8060005b83811015611c2b578151611c128882611b54565b9750611c1d8361285a565b925050600181019050611bfe565b5085935050505092915050565b6000611c4382612818565b611c4d81856128ac565b935083602082028501611c5f856127c7565b8060005b85811015611c9b5784840389528151611c7c8582611b6c565b9450611c8783612867565b925060208a01995050600181019050611c63565b50829750879550505050505092915050565b6000611cb882612823565b611cc281856128bd565b935083602082028501611cd4856127d4565b8060005b85811015611d105784840389528151611cf18582611b80565b9450611cfc83612874565b925060208a01995050600181019050611cd8565b50829750879550505050505092915050565b6000611d2d8261282e565b611d3781856128ce565b935083602082028501611d49856127e1565b8060005b85811015611d855784840389528151611d668582611b94565b9450611d7183612881565b925060208a01995050600181019050611d4d565b50829750879550505050505092915050565b6000611da282612839565b611dac81856128df565b935083602082028501611dbe856127ee565b8060005b85811015611dfa5784840389528151611ddb8582611ba8565b9450611de68361288e565b925060208a01995050600181019050611dc2565b50829750879550505050505092915050565b611e158161292f565b82525050565b611e248161293b565b82525050565b6000611e358261284f565b611e3f8185612901565b9350611e4f81856020860161297e565b611e58816129b1565b840191505092915050565b6000611e6e8261284f565b611e788185612912565b9350611e8881856020860161297e565b80840191505092915050565b6000611e9f82612844565b611ea981856128f0565b9350611eb981856020860161297e565b611ec2816129b1565b840191505092915050565b600081546001811660008114611eea5760018114611f0f57611f53565b607f6002830416611efb8187612912565b955060ff1983168652808601935050611f53565b60028204611f1d8187612912565b9550611f28856127fb565b60005b82811015611f4a57815481890152600182019150602081019050611f2b565b82880195505050505b505092915050565b6000611f68601483612901565b91507f496e76616c6964206c6564676572206f776e65720000000000000000000000006000830152602082019050919050565b6000611fa8601083612901565b91507f496e76616c6964204545552074797065000000000000000000000000000000006000830152602082019050919050565b6000611fe8601183612901565b91507f52657374726963746564206d6574686f640000000000000000000000000000006000830152602082019050919050565b6000612028602183612901565b91507f43757272656e63792074797065206e616d6520616c726561647920657869737460008301527f73000000000000000000000000000000000000000000000000000000000000006020830152604082019050919050565b600061208e602983612901565b91507f4d696e696d756d206f6e65206d657472696320746f6e206f6620636172626f6e60008301527f20726571756972656400000000000000000000000000000000000000000000006020830152604082019050919050565b60006120f4602883612901565b91507f496e73756666696369656e7420636172626f6e2068656c64206279206c65646760008301527f6572206f776e65720000000000000000000000000000000000000000000000006020830152604082019050919050565b600061215a601c83612901565b91507f4545552074797065206e616d6520616c726561647920657869737473000000006000830152602082019050919050565b60006060830160008301516121a560008601826124a2565b50602083015184820360208601526121bd8282611e94565b915050604083015184820360408601526121d78282611e94565b9150508091505092915050565b60a0820160008201516121fa60008501826124a2565b50602082015161220d60208501826124a2565b50604082015161222060408501826124a2565b50606082015161223360608501826124a2565b50608082015161224660808501826124a2565b50505050565b60c0820160008201516122626000850182611e0c565b50602082015161227560208501826124a2565b50604082015161228860408501826124a2565b50606082015161229b60608501826124a2565b5060808201516122ae60808501826124a2565b5060a08201516122c160a08501826124a2565b50505050565b60006040830160008301516122df60008601826124a2565b50602083015184820360208601526122f78282611e94565b9150508091505092915050565b600060208301600083015184820360008601526123218282611c38565b9150508091505092915050565b6000602083016000830151848203600086015261234b8282611cad565b9150508091505092915050565b600060808301600083015161237060008601826124a2565b50602083015184820360208601526123888282611e94565b915050604083015184820360408601526123a28282611e94565b91505060608301516123b76060860182611e1b565b508091505092915050565b600060a0830160008301516123da60008601826124a2565b5060208301516123ed60208601826124a2565b50604083015184820360408601526124058282611e94565b915050606083015161241a60608601826124a2565b50608083015161242d60808601826124a2565b508091505092915050565b60006080830160008301516124506000860182611e0c565b50602083015184820360208601526124688282611d97565b915050604083015161247d60408601826124a2565b50606083015184820360608601526124958282611d22565b9150508091505092915050565b6124ab81612965565b82525050565b6124ba81612965565b82525050565b60006124cc8284611e63565b915081905092915050565b60006124e38284611ecd565b915081905092915050565b600060208201905081810360008301526125088184611bda565b905092915050565b6000602082019050818103600083015261252981611f5b565b9050919050565b6000602082019050818103600083015261254981611f9b565b9050919050565b6000602082019050818103600083015261256981611fdb565b9050919050565b600060208201905081810360008301526125898161201b565b9050919050565b600060208201905081810360008301526125a981612081565b9050919050565b600060208201905081810360008301526125c9816120e7565b9050919050565b600060208201905081810360008301526125e98161214d565b9050919050565b600060a08201905061260560008301846121e4565b92915050565b600060c082019050612620600083018461224c565b92915050565b600060208201905081810360008301526126408184612304565b905092915050565b60006020820190508181036000830152612662818461232e565b905092915050565b600060208201905081810360008301526126848184612438565b905092915050565b60006020820190506126a160008301846124b1565b92915050565b60006040820190506126bc60008301856124b1565b81810360208301526126ce8184611e2a565b90509392505050565b60006060820190506126ec60008301866124b1565b81810360208301526126fe8185611e2a565b905081810360408301526127128184611e2a565b9050949350505050565b600060808201905061273160008301876124b1565b61273e60208301866124b1565b61274b6040830185611bcb565b61275860608301846124b1565b95945050505050565b6000604051905081810181811067ffffffffffffffff8211171561278457600080fd5b8060405250919050565b600067ffffffffffffffff8211156127a557600080fd5b601f19601f8301169050602081019050919050565b6000602082019050919050565b6000602082019050919050565b6000602082019050919050565b6000602082019050919050565b6000602082019050919050565b60008160005260206000209050919050565b600081519050919050565b600081519050919050565b600081519050919050565b600081519050919050565b600081519050919050565b600081519050919050565b600081519050919050565b6000602082019050919050565b6000602082019050919050565b6000602082019050919050565b6000602082019050919050565b6000602082019050919050565b600082825260208201905092915050565b600082825260208201905092915050565b600082825260208201905092915050565b600082825260208201905092915050565b600082825260208201905092915050565b600082825260208201905092915050565b600082825260208201905092915050565b600081905092915050565b600061292882612945565b9050919050565b60008115159050919050565b6000819050919050565b600073ffffffffffffffffffffffffffffffffffffffff82169050919050565b6000819050919050565b82818337600083830152505050565b60005b8381101561299c578082015181840152602081019050612981565b838111156129ab576000848401525b50505050565b6000601f19601f8301169050919050565b6129cb8161291d565b81146129d657600080fd5b50565b6129e28161293b565b81146129ed57600080fd5b50565b6129f981612965565b8114612a0457600080fd5b5056fea265627a7a72305820f99d698dd471635f48de434690ae674d651f14923d48f8a7fff3ecda9d716cd46c6578706572696d656e74616cf50037",
  "source": "pragma solidity 0.5.8;\r\npragma experimental ABIEncoderV2;\r\n\r\nimport \"./Owned.sol\";\r\nimport \"./AcLedger.sol\";\r\n\r\ncontract EeuBurnable is Owned, AcLedger {\r\n    // todo: test new fields\r\n    event BurnedFullEeu(uint256 id, uint256 eeuTypeId, address ledgerOwner, uint256 burnedKG);\r\n    event BurnedPartialEeu(uint256 id, uint256 eeuTypeId, address ledgerOwner, uint256 burnedKG);\r\n\r\n    /**\r\n     * @dev Burns carbons by resizing EEUs, and/or removing EEUs from the ledger\r\n     * @dev Removes EEUs (or fractions thereof) from the main list and from the ledger, resizing as necessary\r\n     * @dev The supplied ledger owner must hold the supplied quantity of carbon in aggregate across ledger EEUs, and of the supplied type\r\n     * @param ledgerOwner The ledger owner to burn\r\n     * @param eeuTypeId The EEU type to burn\r\n     * @param qtyKG The tonnage to burn\r\n     */\r\n    function burnEeus(address ledgerOwner, uint256 eeuTypeId, int256 qtyKG) public {\r\n        require(msg.sender == owner, \"Restricted method\");\r\n        require(_ledger[ledgerOwner].exists == true, \"Invalid ledger owner\");\r\n        require(qtyKG >= 1000, \"Minimum one metric ton of carbon required\");\r\n        require(eeuTypeId >= 0 && eeuTypeId < _count_eeuTypes, \"Invalid EEU type\");\r\n\r\n        // check ledger owner has sufficient carbon tonnage of supplied type\r\n        require(_ledger[ledgerOwner].eeuType_sumKG[eeuTypeId] >= uint256(qtyKG), \"Insufficient carbon held by ledger owner\");\r\n\r\n        // burn sufficient EEUs\r\n        uint256 ndx = 0;\r\n        uint256 remainingToBurn = uint256(qtyKG);\r\n        while (remainingToBurn > 0) {\r\n            uint256[] storage eeuType_eeuIds = _ledger[ledgerOwner].eeuType_eeuIds[eeuTypeId];\r\n            uint256 eeuId = eeuType_eeuIds[ndx];\r\n            uint256 eeuKg = _eeus_KG[eeuId];\r\n            uint256 batchId = _eeus_batchId[eeuId];\r\n\r\n            if (remainingToBurn >= eeuKg) {\r\n                // burn full EEU\r\n                _eeus_KG[eeuId] = 0;\r\n\r\n                // remove from _ledger\r\n                eeuType_eeuIds[ndx] = eeuType_eeuIds[eeuType_eeuIds.length - 1];\r\n                eeuType_eeuIds.length--;\r\n                _ledger[ledgerOwner].eeuType_sumKG[eeuTypeId] -= eeuKg;\r\n\r\n                // burn from batch\r\n                _eeuBatches[batchId].burnedKG += eeuKg;\r\n\r\n                remainingToBurn -= eeuKg;\r\n\r\n                emit BurnedFullEeu(eeuId, eeuTypeId, ledgerOwner, eeuKg);\r\n            } else {\r\n                // resize EEU\r\n                _eeus_KG[eeuId] -= remainingToBurn;\r\n\r\n                // retain on _ledger\r\n                _ledger[ledgerOwner].eeuType_sumKG[eeuTypeId] -= remainingToBurn;\r\n\r\n                // burn from batch\r\n                _eeuBatches[batchId].burnedKG += remainingToBurn;\r\n\r\n                emit BurnedPartialEeu(eeuId, eeuTypeId, ledgerOwner, remainingToBurn);\r\n                remainingToBurn = 0;\r\n            }\r\n        }\r\n        _eeu_totalBurnedKG += uint256(qtyKG);\r\n    }\r\n\r\n    /**\r\n     * @dev Returns the global no. of KGs carbon burned in EEUs\r\n     */\r\n    function getKgCarbonBurned() external view returns (uint256 count) {\r\n        return _eeu_totalBurnedKG;\r\n    }\r\n\r\n    /*function arrayRemoveSwapDelete(uint256 valueToFindAndRemove, uint256[] storage array) private returns (bool found)\r\n    {\r\n        for (uint256 i = 0; i < array.length; i++) {\r\n            if (array[i] == valueToFindAndRemove) {\r\n                array[i] = array[array.length - 1];\r\n                //delete array[array.length - 1]; // length-- is sufficient\r\n                array.length--;\r\n                return true;\r\n            }\r\n        }\r\n        return false;\r\n    }*/\r\n\r\n    /*function arrayRemoveNewArray(uint valueToFindAndRemove, uint[] memory array)\r\n    internal returns(uint[] memory)  {\r\n        uint[] storage auxArray;\r\n        for (uint i = 0; i < array.length; i++){\r\n            if(array[i] != valueToFindAndRemove)\r\n                auxArray.push(array[i]);\r\n        }\r\n        return auxArray;\r\n    }*/\r\n}\r\n",
  "sourcePath": "C:\\ac\\src\\ac-monorepo\\packages\\erc20\\contracts\\AcMaster\\EeuBurnable.sol",
  "compiler": {
    "name": "solc",
    "version": "0.5.8+commit.23d335f2.Emscripten.clang"
  },
  "schemaVersion": "3.0.11",
  "updatedAt": "2019-08-07T04:58:40.328Z",
  "devdoc": {
    "methods": {
      "addCcyType(string,string)": {
        "details": "Adds a new currency type\r",
        "params": {
          "name": "The new currency type name\r",
          "unit": "The base unit of the new currency type\r"
        }
      },
      "addEeuType(string)": {
        "details": "Adds a new EEU type\r",
        "params": {
          "name": "The new EEU type name\r"
        }
      },
      "burnEeus(address,uint256,int256)": {
        "details": "Burns carbons by resizing EEUs, and/or removing EEUs from the ledger\rRemoves EEUs (or fractions thereof) from the main list and from the ledger, resizing as necessary\rThe supplied ledger owner must hold the supplied quantity of carbon in aggregate across ledger EEUs, and of the supplied type\r",
        "params": {
          "eeuTypeId": "The EEU type to burn\r",
          "ledgerOwner": "The ledger owner to burn\r",
          "qtyKG": "The tonnage to burn\r"
        }
      },
      "getCcyTypes()": {
        "details": "Returns current currency types\r"
      },
      "getEeu(uint256)": {
        "details": "Returns an EEU by ID\r"
      },
      "getEeuBatch(uint256)": {
        "details": "Returns an EEU batch by ID\r"
      },
      "getEeuBatchCount()": {
        "details": "Returns the global EEU batch count\r"
      },
      "getEeuTypes()": {
        "details": "Returns current EEU types\r"
      },
      "getKgCarbonBurned()": {
        "details": "Returns the global no. of KGs carbon burned in EEUs\r"
      },
      "getLedgerEntry(address)": {
        "details": "Returns the ledger entry for a single account\r"
      },
      "getLedgerOwners()": {
        "details": "Returns all accounts in the ledger\r"
      }
    }
  },
  "userdoc": {
    "methods": {}
  }
}