{
  "contractName": "EeuBurnable",
  "abi": [
    {
      "constant": true,
      "inputs": [
        {
          "name": "id",
          "type": "uint256"
        }
      ],
      "name": "getEeuBatch",
      "outputs": [
        {
          "components": [
            {
              "name": "id",
              "type": "uint256"
            },
            {
              "name": "mintedTimestamp",
              "type": "uint256"
            },
            {
              "name": "eeuTypeId",
              "type": "uint256"
            },
            {
              "name": "mintedKG",
              "type": "uint256"
            },
            {
              "name": "burnedKG",
              "type": "uint256"
            }
          ],
          "name": "batch",
          "type": "tuple"
        }
      ],
      "payable": false,
      "stateMutability": "view",
      "type": "function"
    },
    {
      "constant": true,
      "inputs": [],
      "name": "getEeuBatchCount",
      "outputs": [
        {
          "name": "count",
          "type": "uint256"
        }
      ],
      "payable": false,
      "stateMutability": "view",
      "type": "function"
    },
    {
      "constant": true,
      "inputs": [],
      "name": "getEeuTypeIds",
      "outputs": [
        {
          "components": [
            {
              "components": [
                {
                  "name": "eeuTypeId",
                  "type": "uint256"
                },
                {
                  "name": "eeuTypeName",
                  "type": "string"
                }
              ],
              "name": "eeuTypes",
              "type": "tuple[]"
            }
          ],
          "name": "retData",
          "type": "tuple"
        }
      ],
      "payable": false,
      "stateMutability": "view",
      "type": "function"
    },
    {
      "constant": true,
      "inputs": [
        {
          "name": "id",
          "type": "uint256"
        }
      ],
      "name": "getEeu",
      "outputs": [
        {
          "components": [
            {
              "name": "exists",
              "type": "bool"
            },
            {
              "name": "id",
              "type": "uint256"
            },
            {
              "name": "mintedKG",
              "type": "uint256"
            },
            {
              "name": "KG",
              "type": "uint256"
            },
            {
              "name": "batchId",
              "type": "uint256"
            },
            {
              "name": "mintedTimestamp",
              "type": "uint256"
            }
          ],
          "name": "eeu",
          "type": "tuple"
        }
      ],
      "payable": false,
      "stateMutability": "view",
      "type": "function"
    },
    {
      "constant": true,
      "inputs": [
        {
          "name": "account",
          "type": "address"
        }
      ],
      "name": "getLedgerEntry",
      "outputs": [
        {
          "components": [
            {
              "name": "exists",
              "type": "bool"
            },
            {
              "components": [
                {
                  "name": "eeuId",
                  "type": "uint256"
                },
                {
                  "name": "eeuTypeId",
                  "type": "uint256"
                },
                {
                  "name": "eeuTypeName",
                  "type": "string"
                },
                {
                  "name": "batchId",
                  "type": "uint256"
                },
                {
                  "name": "eeuKG",
                  "type": "uint256"
                }
              ],
              "name": "eeus",
              "type": "tuple[]"
            },
            {
              "name": "eeuIds",
              "type": "uint256[]"
            },
            {
              "name": "eeu_sumKG",
              "type": "uint256"
            },
            {
              "name": "usdCents",
              "type": "uint256"
            },
            {
              "name": "ethWei",
              "type": "uint256"
            }
          ],
          "name": "",
          "type": "tuple"
        }
      ],
      "payable": false,
      "stateMutability": "view",
      "type": "function"
    },
    {
      "constant": true,
      "inputs": [],
      "name": "getLedgerOwners",
      "outputs": [
        {
          "name": "",
          "type": "address[]"
        }
      ],
      "payable": false,
      "stateMutability": "view",
      "type": "function"
    },
    {
      "anonymous": false,
      "inputs": [
        {
          "indexed": false,
          "name": "id",
          "type": "uint256"
        }
      ],
      "name": "BurnedFullEeu",
      "type": "event"
    },
    {
      "anonymous": false,
      "inputs": [
        {
          "indexed": false,
          "name": "id",
          "type": "uint256"
        }
      ],
      "name": "BurnedPartialEeu",
      "type": "event"
    },
    {
      "constant": false,
      "inputs": [
        {
          "name": "ledgerOwner",
          "type": "address"
        },
        {
          "name": "eeuTypeId",
          "type": "uint256"
        },
        {
          "name": "qtyKG",
          "type": "int256"
        }
      ],
      "name": "burnEeus",
      "outputs": [],
      "payable": false,
      "stateMutability": "nonpayable",
      "type": "function"
    },
    {
      "constant": true,
      "inputs": [],
      "name": "getKgCarbonBurned",
      "outputs": [
        {
          "name": "count",
          "type": "uint256"
        }
      ],
      "payable": false,
      "stateMutability": "view",
      "type": "function"
    }
  ],
  "bytecode": "0x6080604052336000806101000a81548173ffffffffffffffffffffffffffffffffffffffff021916908373ffffffffffffffffffffffffffffffffffffffff1602179055506040518060400160405280600681526020017f554e464343430000000000000000000000000000000000000000000000000000815250600160008081526020019081526020016000209080519060200190620000a292919062000110565b506040518060400160405280600381526020017f5643530000000000000000000000000000000000000000000000000000000000815250600160006001815260200190815260200160002090805190602001906200010292919062000110565b5060028081905550620001bf565b828054600181600116156101000203166002900490600052602060002090601f016020900481019282601f106200015357805160ff191683800117855562000184565b8280016001018555821562000184579182015b828111156200018357825182559160200191906001019062000166565b5b50905062000193919062000197565b5090565b620001bc91905b80821115620001b85760008160009055506001016200019e565b5090565b90565b611b0480620001cf6000396000f3fe608060405234801561001057600080fd5b50600436106100885760003560e01c80639ce9a4a61161005b5780639ce9a4a614610115578063a89a888414610145578063bcc376c614610175578063e3f64b351461019357610088565b80630722a4ee1461008d57806319b67615146100bd57806332de10e4146100db5780637b2d412a146100f9575b600080fd5b6100a760048036036100a2919081019061111b565b6101b1565b6040516100b49190611855565b60405180910390f35b6100c5610210565b6040516100d291906118cf565b60405180910390f35b6100e361021a565b6040516100f0919061188b565b60405180910390f35b610113600480360361010e91908101906110cc565b610379565b005b61012f600480360361012a919081019061111b565b6108b4565b60405161013c9190611870565b60405180910390f35b61015f600480360361015a91908101906110a3565b610955565b60405161016c91906118ad565b60405180910390f35b61017d610e80565b60405161018a9190611793565b60405180910390f35b61019b610f0e565b6040516101a891906118cf565b60405180910390f35b6101b9610f18565b600360008381526020019081526020016000206040518060a0016040529081600082015481526020016001820154815260200160028201548152602001600382015481526020016004820154815250509050919050565b6000600454905090565b610222610f47565b606060025460405190808252806020026020018201604052801561026057816020015b61024d610f5a565b8152602001906001900390816102455790505b50905060008090505b600254811015610357576040518060400160405280828152602001600160008481526020019081526020016000208054600181600116156101000203166002900480601f01602080910402602001604051908101604052809291908181526020018280546001816001161561010002031660029004801561032b5780601f106103005761010080835404028352916020019161032b565b820191906000526020600020905b81548152906001019060200180831161030e57829003601f168201915b505050505081525082828151811061033f57fe5b60200260200101819052508080600101915050610269565b50610360610f47565b6040518060200160405280838152509050809250505090565b6000809054906101000a900473ffffffffffffffffffffffffffffffffffffffff1673ffffffffffffffffffffffffffffffffffffffff163373ffffffffffffffffffffffffffffffffffffffff1614610408576040517f08c379a00000000000000000000000000000000000000000000000000000000081526004016103ff906117f5565b60405180910390fd5b60011515600c60008573ffffffffffffffffffffffffffffffffffffffff1673ffffffffffffffffffffffffffffffffffffffff16815260200190815260200160002060000160009054906101000a900460ff1615151461049e576040517f08c379a000000000000000000000000000000000000000000000000000000000815260040161049590611815565b60405180910390fd5b6103e88112156104e3576040517f08c379a00000000000000000000000000000000000000000000000000000000081526004016104da90611835565b60405180910390fd5b6000821180156104f4575060025482105b610533576040517f08c379a000000000000000000000000000000000000000000000000000000000815260040161052a906117d5565b60405180910390fd5b80600c60008573ffffffffffffffffffffffffffffffffffffffff1673ffffffffffffffffffffffffffffffffffffffff16815260200190815260200160002060020160008481526020019081526020016000205410156105c9576040517f08c379a00000000000000000000000000000000000000000000000000000000081526004016105c0906117b5565b60405180910390fd5b600080905060008290505b600081111561089d576000600c60008773ffffffffffffffffffffffffffffffffffffffff1673ffffffffffffffffffffffffffffffffffffffff16815260200190815260200160002060010160008681526020019081526020016000209050600081848154811061064257fe5b906000526020600020015490506000600760008381526020019081526020016000205490506000600560008481526020019081526020016000205490508185106107b25760006007600085815260200190815260200160002081905550836001858054905003815481106106b257fe5b90600052602060002001548487815481106106c957fe5b9060005260206000200181905550838054809190600190036106eb9190610f74565b5081600c60008b73ffffffffffffffffffffffffffffffffffffffff1673ffffffffffffffffffffffffffffffffffffffff16815260200190815260200160002060020160008a81526020019081526020016000206000828254039250508190555081600360008381526020019081526020016000206004016000828254019250508190555081850394507f44d48a2d499b338571c4e4b0c39583cb65555390c814c6b5e16413725794d964836040516107a591906118cf565b60405180910390a1610894565b84600760008581526020019081526020016000206000828254039250508190555084600c60008b73ffffffffffffffffffffffffffffffffffffffff1673ffffffffffffffffffffffffffffffffffffffff16815260200190815260200160002060020160008a815260200190815260200160002060008282540392505081905550846003600083815260200190815260200160002060040160008282540192505081905550600094507fa5851f1622aa71caf9f97a923b1cc1710d7dad8784c6b8d52c7f1dcf760e96d78360405161088b91906118cf565b60405180910390a15b505050506105d4565b82600a600082825401925050819055505050505050565b6108bc610fa0565b6040518060c001604052806000600560008681526020019081526020016000205414151515815260200183815260200160066000858152602001908152602001600020548152602001600760008581526020019081526020016000205481526020016005600085815260200190815260200160002054815260200160086000858152602001908152602001600020548152509050919050565b61095d610fd8565b6060806000809050600c60008673ffffffffffffffffffffffffffffffffffffffff1673ffffffffffffffffffffffffffffffffffffffff16815260200190815260200160002060000160009054906101000a900460ff1615610cf657600080905060008090505b600254811015610a3757600c60008873ffffffffffffffffffffffffffffffffffffffff1673ffffffffffffffffffffffffffffffffffffffff1681526020019081526020016000206001016000828152602001908152602001600020805490508201915080806001019150506109c5565b5080604051908082528060200260200182016040528015610a7257816020015b610a5f611010565b815260200190600190039081610a575790505b50935080604051908082528060200260200182016040528015610aa45781602001602082028038833980820191505090505b509250600080905060008090505b600254811015610cee576060600c60008a73ffffffffffffffffffffffffffffffffffffffff1673ffffffffffffffffffffffffffffffffffffffff1681526020019081526020016000206001016000838152602001908152602001600020805480602002602001604051908101604052809291908181526020018280548015610b5b57602002820191906000526020600020905b815481526020019060010190808311610b47575b5050505050905060008090505b8151811015610cdf576000828281518110610b7f57fe5b6020026020010151905080888681518110610b9657fe5b6020026020010181815250506007600082815260200190815260200160002054870196506040518060a00160405280828152602001858152602001600160008781526020019081526020016000208054600181600116156101000203166002900480601f016020809104026020016040519081016040528092919081815260200182805460018160011615610100020316600290048015610c785780601f10610c4d57610100808354040283529160200191610c78565b820191906000526020600020905b815481529060010190602001808311610c5b57829003601f168201915b50505050508152602001600560008481526020019081526020016000205481526020016007600084815260200190815260200160002054815250898681518110610cbe57fe5b60200260200101819052508480600101955050508080600101915050610b68565b50508080600101915050610ab2565b505050610d68565b6000604051908082528060200260200182016040528015610d3157816020015b610d1e611010565b815260200190600190039081610d165790505b5092506000604051908082528060200260200182016040528015610d645781602001602082028038833980820191505090505b5091505b610d70610fd8565b6040518060c00160405280600c60008973ffffffffffffffffffffffffffffffffffffffff1673ffffffffffffffffffffffffffffffffffffffff16815260200190815260200160002060000160009054906101000a900460ff1615158152602001858152602001848152602001838152602001600c60008973ffffffffffffffffffffffffffffffffffffffff1673ffffffffffffffffffffffffffffffffffffffff168152602001908152602001600020600301548152602001600c60008973ffffffffffffffffffffffffffffffffffffffff1673ffffffffffffffffffffffffffffffffffffffff16815260200190815260200160002060040154815250905080945050505050919050565b6060600d805480602002602001604051908101604052809291908181526020018280548015610f0457602002820191906000526020600020905b8160009054906101000a900473ffffffffffffffffffffffffffffffffffffffff1673ffffffffffffffffffffffffffffffffffffffff1681526020019060010190808311610eba575b5050505050905090565b6000600a54905090565b6040518060a0016040528060008152602001600081526020016000815260200160008152602001600081525090565b6040518060200160405280606081525090565b604051806040016040528060008152602001606081525090565b815481835581811115610f9b57818360005260206000209182019101610f9a919061103f565b5b505050565b6040518060c0016040528060001515815260200160008152602001600081526020016000815260200160008152602001600081525090565b6040518060c0016040528060001515815260200160608152602001606081526020016000815260200160008152602001600081525090565b6040518060a0016040528060008152602001600081526020016060815260200160008152602001600081525090565b61106191905b8082111561105d576000816000905550600101611045565b5090565b90565b60008135905061107381611a85565b92915050565b60008135905061108881611a9c565b92915050565b60008135905061109d81611ab3565b92915050565b6000602082840312156110b557600080fd5b60006110c384828501611064565b91505092915050565b6000806000606084860312156110e157600080fd5b60006110ef86828701611064565b93505060206111008682870161108e565b925050604061111186828701611079565b9150509250925092565b60006020828403121561112d57600080fd5b600061113b8482850161108e565b91505092915050565b6000611150838361119c565b60208301905092915050565b60006111688383611608565b905092915050565b600061117c838361166f565b905092915050565b60006111908383611775565b60208301905092915050565b6111a5816119ef565b82525050565b60006111b68261191e565b6111c08185611989565b93506111cb836118ea565b8060005b838110156111fc5781516111e38882611144565b97506111ee83611955565b9250506001810190506111cf565b5085935050505092915050565b600061121482611929565b61121e818561199a565b935083602082028501611230856118f7565b8060005b8581101561126c578484038952815161124d858261115c565b945061125883611962565b925060208a01995050600181019050611234565b50829750879550505050505092915050565b600061128982611934565b61129381856119ab565b9350836020820285016112a585611904565b8060005b858110156112e157848403895281516112c28582611170565b94506112cd8361196f565b925060208a019950506001810190506112a9565b50829750879550505050505092915050565b60006112fe8261193f565b61130881856119bc565b935061131383611911565b8060005b8381101561134457815161132b8882611184565b97506113368361197c565b925050600181019050611317565b5085935050505092915050565b61135a81611a01565b82525050565b600061136b8261194a565b61137581856119cd565b9350611385818560208601611a41565b61138e81611a74565b840191505092915050565b60006113a66029836119de565b91507f496e73756666696369656e7420636172626f6e2068656c64206279205f6c656460008301527f676572206f776e657200000000000000000000000000000000000000000000006020830152604082019050919050565b600061140c6010836119de565b91507f496e76616c6964204545552074797065000000000000000000000000000000006000830152602082019050919050565b600061144c6011836119de565b91507f52657374726963746564206d6574686f640000000000000000000000000000006000830152602082019050919050565b600061148c6015836119de565b91507f496e76616c6964205f6c6564676572206f776e657200000000000000000000006000830152602082019050919050565b60006114cc6029836119de565b91507f4d696e696d756d206f6e65206d657472696320746f6e206f6620636172626f6e60008301527f20726571756972656400000000000000000000000000000000000000000000006020830152604082019050919050565b60a08201600082015161153b6000850182611775565b50602082015161154e6020850182611775565b5060408201516115616040850182611775565b5060608201516115746060850182611775565b5060808201516115876080850182611775565b50505050565b60c0820160008201516115a36000850182611351565b5060208201516115b66020850182611775565b5060408201516115c96040850182611775565b5060608201516115dc6060850182611775565b5060808201516115ef6080850182611775565b5060a082015161160260a0850182611775565b50505050565b60006040830160008301516116206000860182611775565b50602083015184820360208601526116388282611360565b9150508091505092915050565b600060208301600083015184820360008601526116628282611209565b9150508091505092915050565b600060a0830160008301516116876000860182611775565b50602083015161169a6020860182611775565b50604083015184820360408601526116b28282611360565b91505060608301516116c76060860182611775565b5060808301516116da6080860182611775565b508091505092915050565b600060c0830160008301516116fd6000860182611351565b5060208301518482036020860152611715828261127e565b9150506040830151848203604086015261172f82826112f3565b91505060608301516117446060860182611775565b5060808301516117576080860182611775565b5060a083015161176a60a0860182611775565b508091505092915050565b61177e81611a37565b82525050565b61178d81611a37565b82525050565b600060208201905081810360008301526117ad81846111ab565b905092915050565b600060208201905081810360008301526117ce81611399565b9050919050565b600060208201905081810360008301526117ee816113ff565b9050919050565b6000602082019050818103600083015261180e8161143f565b9050919050565b6000602082019050818103600083015261182e8161147f565b9050919050565b6000602082019050818103600083015261184e816114bf565b9050919050565b600060a08201905061186a6000830184611525565b92915050565b600060c082019050611885600083018461158d565b92915050565b600060208201905081810360008301526118a58184611645565b905092915050565b600060208201905081810360008301526118c781846116e5565b905092915050565b60006020820190506118e46000830184611784565b92915050565b6000602082019050919050565b6000602082019050919050565b6000602082019050919050565b6000602082019050919050565b600081519050919050565b600081519050919050565b600081519050919050565b600081519050919050565b600081519050919050565b6000602082019050919050565b6000602082019050919050565b6000602082019050919050565b6000602082019050919050565b600082825260208201905092915050565b600082825260208201905092915050565b600082825260208201905092915050565b600082825260208201905092915050565b600082825260208201905092915050565b600082825260208201905092915050565b60006119fa82611a17565b9050919050565b60008115159050919050565b6000819050919050565b600073ffffffffffffffffffffffffffffffffffffffff82169050919050565b6000819050919050565b60005b83811015611a5f578082015181840152602081019050611a44565b83811115611a6e576000848401525b50505050565b6000601f19601f8301169050919050565b611a8e816119ef565b8114611a9957600080fd5b50565b611aa581611a0d565b8114611ab057600080fd5b50565b611abc81611a37565b8114611ac757600080fd5b5056fea265627a7a72305820227629657dac0c9911564e38661faa545a502d4b76696121322d1e6c03ce5bed6c6578706572696d656e74616cf50037",
  "source": "pragma solidity 0.5.8;\r\npragma experimental ABIEncoderV2;\r\n\r\nimport \"./Owned.sol\";\r\nimport \"./AcLedger.sol\";\r\n\r\ncontract EeuBurnable is Owned, AcLedger {\r\n    // Events -- TODO: encode full data in events\r\n    event BurnedFullEeu(uint256 id);\r\n    event BurnedPartialEeu(uint256 id);\r\n\r\n    /**\r\n     * burns carbons by resizing EEUs, and/or removing EEUs from the _ledger.\r\n     * removes EEUs (or fractions thereof) from the main list and from the _ledger, resizing as necessary.\r\n     * the supplied _ledger owner must hold the supplied quantity of carbon in aggregate across _ledger EEUs, and of the supplied type.\r\n     * @param ledgerOwner owner address of the EEUs in the _ledger\r\n     * @param eeuTypeId EEU type\r\n     * @param qtyKG tonnage to burn\r\n     */\r\n    function burnEeus(address ledgerOwner, /*EeuType eeuType*/uint256 eeuTypeId, int256 qtyKG) public {\r\n        require(msg.sender == owner, \"Restricted method\");\r\n        require(_ledger[ledgerOwner].exists == true, \"Invalid _ledger owner\");\r\n        require(qtyKG >= 1000, \"Minimum one metric ton of carbon required\");\r\n        //require(eeuType != EeuType.dummy_end, \"Invalid EEU type\");\r\n        require(eeuTypeId > 0 && eeuTypeId < _count_eeuTypeIds, \"Invalid EEU type\");\r\n\r\n        // check _ledger owner has sufficient carbon tonnage of supplied type\r\n        require(_ledger[ledgerOwner].type_sumKG[eeuTypeId] >= uint256(qtyKG), \"Insufficient carbon held by _ledger owner\");\r\n\r\n        // burn sufficient EEUs\r\n        uint256 ndx = 0;\r\n        uint256 remainingToBurn = uint256(qtyKG);\r\n        while (remainingToBurn > 0) {\r\n            uint256[] storage type_eeuIds = _ledger[ledgerOwner].type_eeuIds[eeuTypeId]; // ??? proper ref. to storage\r\n            uint256 eeuId = type_eeuIds[ndx];\r\n            uint256 eeuKg = _eeus_KG[eeuId];\r\n            uint256 batchId = _eeus_batchId[eeuId];\r\n\r\n            if (remainingToBurn >= eeuKg) {\r\n                // burn full EEU\r\n                _eeus_KG[eeuId] = 0;\r\n\r\n                // remove from _ledger\r\n                type_eeuIds[ndx] = type_eeuIds[type_eeuIds.length - 1];\r\n                type_eeuIds.length--;\r\n                _ledger[ledgerOwner].type_sumKG[eeuTypeId] -= eeuKg;\r\n\r\n                // burn from batch\r\n                _eeuBatches[batchId].burnedKG += eeuKg;\r\n\r\n                remainingToBurn -= eeuKg;\r\n\r\n                emit BurnedFullEeu(eeuId);\r\n            } else {\r\n                // resize EEU\r\n                _eeus_KG[eeuId] -= remainingToBurn;\r\n\r\n                // retain on _ledger\r\n                _ledger[ledgerOwner].type_sumKG[eeuTypeId] -= remainingToBurn;\r\n\r\n                // burn from batch\r\n                _eeuBatches[batchId].burnedKG += remainingToBurn;\r\n\r\n                remainingToBurn = 0;\r\n\r\n                emit BurnedPartialEeu(eeuId);\r\n            }\r\n        }\r\n        _eeuKgBurned += uint256(qtyKG);\r\n    }\r\n\r\n    /**\r\n     * @dev Returns the global no. of KGs carbon burned in EEUs\r\n     */\r\n    function getKgCarbonBurned() external view returns (uint256 count) {\r\n        return _eeuKgBurned;\r\n    }\r\n\r\n    /*function arrayRemoveSwapDelete(uint256 valueToFindAndRemove, uint256[] storage array) private returns (bool found)\r\n    {\r\n        for (uint256 i = 0; i < array.length; i++) {\r\n            if (array[i] == valueToFindAndRemove) {\r\n                array[i] = array[array.length - 1];\r\n                //delete array[array.length - 1]; // length-- is sufficient\r\n                array.length--;\r\n                return true;\r\n            }\r\n        }\r\n        return false;\r\n    }*/\r\n\r\n    /*function arrayRemoveNewArray(uint valueToFindAndRemove, uint[] memory array)\r\n    internal returns(uint[] memory)  {\r\n        uint[] storage auxArray;\r\n        for (uint i = 0; i < array.length; i++){\r\n            if(array[i] != valueToFindAndRemove)\r\n                auxArray.push(array[i]);\r\n        }\r\n        return auxArray;\r\n    }*/\r\n}\r\n",
  "sourcePath": "C:\\ac\\src\\ac-monorepo\\packages\\erc20\\contracts\\AcMaster\\EeuBurnable.sol",
  "compiler": {
    "name": "solc",
    "version": "0.5.8+commit.23d335f2.Emscripten.clang"
  },
  "schemaVersion": "3.0.11",
  "updatedAt": "2019-08-05T11:21:19.597Z",
  "devdoc": {
    "methods": {
      "burnEeus(address,uint256,int256)": {
        "params": {
          "eeuTypeId": "EEU type\r",
          "ledgerOwner": "owner address of the EEUs in the _ledger\r",
          "qtyKG": "tonnage to burn\r"
        }
      },
      "getEeu(uint256)": {
        "details": "Returns an EEU by ID\r"
      },
      "getEeuBatch(uint256)": {
        "details": "Returns an EEU batch by ID\r"
      },
      "getEeuBatchCount()": {
        "details": "Returns the global EEU batch count\r"
      },
      "getEeuTypeIds()": {
        "details": "Returns EEU types\r"
      },
      "getKgCarbonBurned()": {
        "details": "Returns the global no. of KGs carbon burned in EEUs\r"
      },
      "getLedgerEntry(address)": {
        "details": "Returns the _ledger entry for a single account\r"
      },
      "getLedgerOwners()": {
        "details": "Returns all accounts in the ledger\r"
      }
    }
  },
  "userdoc": {
    "methods": {
      "burnEeus(address,uint256,int256)": {
        "notice": "burns carbons by resizing EEUs, and/or removing EEUs from the _ledger.\r removes EEUs (or fractions thereof) from the main list and from the _ledger, resizing as necessary.\r the supplied _ledger owner must hold the supplied quantity of carbon in aggregate across _ledger EEUs, and of the supplied type.\r"
      }
    }
  }
}