{
  "contractName": "EeuMintable",
  "abi": [
    {
      "constant": true,
      "inputs": [
        {
          "name": "id",
          "type": "uint256"
        }
      ],
      "name": "getEeuBatch",
      "outputs": [
        {
          "components": [
            {
              "name": "id",
              "type": "uint256"
            },
            {
              "name": "mintedTimestamp",
              "type": "uint256"
            },
            {
              "name": "eeuTypeId",
              "type": "uint256"
            },
            {
              "name": "mintedKG",
              "type": "uint256"
            },
            {
              "name": "burnedKG",
              "type": "uint256"
            }
          ],
          "name": "batch",
          "type": "tuple"
        }
      ],
      "payable": false,
      "stateMutability": "view",
      "type": "function"
    },
    {
      "constant": true,
      "inputs": [],
      "name": "getEeuBatchCount",
      "outputs": [
        {
          "name": "count",
          "type": "uint256"
        }
      ],
      "payable": false,
      "stateMutability": "view",
      "type": "function"
    },
    {
      "constant": true,
      "inputs": [],
      "name": "getEeuTypeIds",
      "outputs": [
        {
          "components": [
            {
              "components": [
                {
                  "name": "eeuTypeId",
                  "type": "uint256"
                },
                {
                  "name": "eeuTypeName",
                  "type": "string"
                }
              ],
              "name": "eeuTypes",
              "type": "tuple[]"
            }
          ],
          "name": "retData",
          "type": "tuple"
        }
      ],
      "payable": false,
      "stateMutability": "view",
      "type": "function"
    },
    {
      "constant": true,
      "inputs": [
        {
          "name": "id",
          "type": "uint256"
        }
      ],
      "name": "getEeu",
      "outputs": [
        {
          "components": [
            {
              "name": "exists",
              "type": "bool"
            },
            {
              "name": "id",
              "type": "uint256"
            },
            {
              "name": "mintedKG",
              "type": "uint256"
            },
            {
              "name": "KG",
              "type": "uint256"
            },
            {
              "name": "batchId",
              "type": "uint256"
            },
            {
              "name": "mintedTimestamp",
              "type": "uint256"
            }
          ],
          "name": "eeu",
          "type": "tuple"
        }
      ],
      "payable": false,
      "stateMutability": "view",
      "type": "function"
    },
    {
      "constant": true,
      "inputs": [
        {
          "name": "account",
          "type": "address"
        }
      ],
      "name": "getLedgerEntry",
      "outputs": [
        {
          "components": [
            {
              "name": "exists",
              "type": "bool"
            },
            {
              "components": [
                {
                  "name": "eeuId",
                  "type": "uint256"
                },
                {
                  "name": "eeuTypeId",
                  "type": "uint256"
                },
                {
                  "name": "eeuTypeName",
                  "type": "string"
                },
                {
                  "name": "batchId",
                  "type": "uint256"
                },
                {
                  "name": "eeuKG",
                  "type": "uint256"
                }
              ],
              "name": "eeus",
              "type": "tuple[]"
            },
            {
              "name": "eeuIds",
              "type": "uint256[]"
            },
            {
              "name": "eeu_sumKG",
              "type": "uint256"
            },
            {
              "name": "usdCents",
              "type": "uint256"
            },
            {
              "name": "ethWei",
              "type": "uint256"
            }
          ],
          "name": "",
          "type": "tuple"
        }
      ],
      "payable": false,
      "stateMutability": "view",
      "type": "function"
    },
    {
      "constant": true,
      "inputs": [],
      "name": "getLedgerOwners",
      "outputs": [
        {
          "name": "",
          "type": "address[]"
        }
      ],
      "payable": false,
      "stateMutability": "view",
      "type": "function"
    },
    {
      "anonymous": false,
      "inputs": [
        {
          "indexed": false,
          "name": "id",
          "type": "uint256"
        }
      ],
      "name": "MintedEeuBatch",
      "type": "event"
    },
    {
      "anonymous": false,
      "inputs": [
        {
          "indexed": false,
          "name": "id",
          "type": "uint256"
        }
      ],
      "name": "MintedEeu",
      "type": "event"
    },
    {
      "constant": false,
      "inputs": [
        {
          "name": "eeuTypeId",
          "type": "uint256"
        },
        {
          "name": "qtyKG",
          "type": "int256"
        },
        {
          "name": "qtyEeus",
          "type": "int256"
        },
        {
          "name": "batchOwner",
          "type": "address"
        }
      ],
      "name": "mintEeuBatch",
      "outputs": [],
      "payable": false,
      "stateMutability": "nonpayable",
      "type": "function"
    },
    {
      "constant": true,
      "inputs": [],
      "name": "getEeuMintedCount",
      "outputs": [
        {
          "name": "count",
          "type": "uint256"
        }
      ],
      "payable": false,
      "stateMutability": "view",
      "type": "function"
    },
    {
      "constant": true,
      "inputs": [],
      "name": "getKgCarbonMinted",
      "outputs": [
        {
          "name": "count",
          "type": "uint256"
        }
      ],
      "payable": false,
      "stateMutability": "view",
      "type": "function"
    }
  ],
  "bytecode": "0x6080604052336000806101000a81548173ffffffffffffffffffffffffffffffffffffffff021916908373ffffffffffffffffffffffffffffffffffffffff1602179055506040518060400160405280600681526020017f554e464343430000000000000000000000000000000000000000000000000000815250600160008081526020019081526020016000209080519060200190620000a292919062000110565b506040518060400160405280600381526020017f5643530000000000000000000000000000000000000000000000000000000000815250600160006001815260200190815260200160002090805190602001906200010292919062000110565b5060028081905550620001bf565b828054600181600116156101000203166002900490600052602060002090601f016020900481019282601f106200015357805160ff191683800117855562000184565b8280016001018555821562000184579182015b828111156200018357825182559160200191906001019062000166565b5b50905062000193919062000197565b5090565b620001bc91905b80821115620001b85760008160009055506001016200019e565b5090565b90565b611b7580620001cf6000396000f3fe608060405234801561001057600080fd5b50600436106100935760003560e01c806370f753de1161006657806370f753de146101225780639ce9a4a61461013e578063a89a88841461016e578063ba0138cb1461019e578063bcc376c6146101bc57610093565b80630722a4ee1461009857806319b67615146100c857806332de10e4146100e65780633846d44814610104575b600080fd5b6100b260048036036100ad9190810190611129565b6101da565b6040516100bf91906118c6565b60405180910390f35b6100d0610239565b6040516100dd9190611940565b60405180910390f35b6100ee610243565b6040516100fb91906118fc565b60405180910390f35b61010c6103a2565b6040516101199190611940565b60405180910390f35b61013c60048036036101379190810190611152565b6103ac565b005b61015860048036036101539190810190611129565b610962565b60405161016591906118e1565b60405180910390f35b61018860048036036101839190810190611100565b610a03565b604051610195919061191e565b60405180910390f35b6101a6610f2e565b6040516101b39190611940565b60405180910390f35b6101c4610f38565b6040516101d19190611804565b60405180910390f35b6101e2610fc6565b600360008381526020019081526020016000206040518060a0016040529081600082015481526020016001820154815260200160028201548152602001600382015481526020016004820154815250509050919050565b6000600454905090565b61024b610ff5565b606060025460405190808252806020026020018201604052801561028957816020015b610276611008565b81526020019060019003908161026e5790505b50905060008090505b600254811015610380576040518060400160405280828152602001600160008481526020019081526020016000208054600181600116156101000203166002900480601f0160208091040260200160405190810160405280929190818152602001828054600181600116156101000203166002900480156103545780601f1061032957610100808354040283529160200191610354565b820191906000526020600020905b81548152906001019060200180831161033757829003601f168201915b505050505081525082828151811061036857fe5b60200260200101819052508080600101915050610292565b50610389610ff5565b6040518060200160405280838152509050809250505090565b6000600b54905090565b6000809054906101000a900473ffffffffffffffffffffffffffffffffffffffff1673ffffffffffffffffffffffffffffffffffffffff163373ffffffffffffffffffffffffffffffffffffffff161461043b576040517f08c379a000000000000000000000000000000000000000000000000000000000815260040161043290611846565b60405180910390fd5b6103e8831215610480576040517f08c379a000000000000000000000000000000000000000000000000000000000815260040161047790611886565b60405180910390fd5b600084118015610491575060025484105b6104d0576040517f08c379a00000000000000000000000000000000000000000000000000000000081526004016104c790611826565b60405180910390fd5b6001821215610514576040517f08c379a000000000000000000000000000000000000000000000000000000000815260040161050b906118a6565b60405180910390fd5b600082848161051f57fe5b0714610560576040517f08c379a000000000000000000000000000000000000000000000000000000000815260040161055790611866565b60405180910390fd5b610568610fc6565b6040518060a0016040528060016004540181526020014281526020018681526020018581526020016000815250905080600360008360000151815260200190815260200160002060008201518160000155602082015181600101556040820151816002015560608201518160030155608082015181600401559050506004600081548092919060010191905055507fba7d8b85a9434f2fd64b297bb950e65e9e5ecb740a5849858b2d0feaa060dc7f81600001516040516106299190611940565b60405180910390a160001515600c60008473ffffffffffffffffffffffffffffffffffffffff1673ffffffffffffffffffffffffffffffffffffffff16815260200190815260200160002060000160009054906101000a900460ff161515141561078a576040518060600160405280600115158152602001600081526020016000815250600c60008473ffffffffffffffffffffffffffffffffffffffff1673ffffffffffffffffffffffffffffffffffffffff16815260200190815260200160002060008201518160000160006101000a81548160ff0219169083151502179055506020820151816003015560408201518160040155905050600d8290806001815401808255809150509060018203906000526020600020016000909192909190916101000a81548173ffffffffffffffffffffffffffffffffffffffff021916908373ffffffffffffffffffffffffffffffffffffffff160217905550505b60008090505b838112156108d9576000816001600b540101905060008587816107af57fe5b049050836000015160056000848152602001908152602001600020819055508060066000848152602001908152602001600020819055508060076000848152602001908152602001600020819055504260086000848152602001908152602001600020819055507f1caa6478e2895200416932562f54b40f7cb48c9b101106ba5872fa749e116977826040516108459190611940565b60405180910390a1600c60008673ffffffffffffffffffffffffffffffffffffffff1673ffffffffffffffffffffffffffffffffffffffff168152602001908152602001600020600101600089815260200190815260200160002082908060018154018082558091505090600182039060005260206000200160009091929091909150555050508080600101915050610790565b5083600c60008473ffffffffffffffffffffffffffffffffffffffff1673ffffffffffffffffffffffffffffffffffffffff16815260200190815260200160002060020160008781526020019081526020016000206000828254019250508190555082600b60008282540192505081905550836009600082825401925050819055505050505050565b61096a611022565b6040518060c001604052806000600560008681526020019081526020016000205414151515815260200183815260200160066000858152602001908152602001600020548152602001600760008581526020019081526020016000205481526020016005600085815260200190815260200160002054815260200160086000858152602001908152602001600020548152509050919050565b610a0b61105a565b6060806000809050600c60008673ffffffffffffffffffffffffffffffffffffffff1673ffffffffffffffffffffffffffffffffffffffff16815260200190815260200160002060000160009054906101000a900460ff1615610da457600080905060008090505b600254811015610ae557600c60008873ffffffffffffffffffffffffffffffffffffffff1673ffffffffffffffffffffffffffffffffffffffff168152602001908152602001600020600101600082815260200190815260200160002080549050820191508080600101915050610a73565b5080604051908082528060200260200182016040528015610b2057816020015b610b0d611092565b815260200190600190039081610b055790505b50935080604051908082528060200260200182016040528015610b525781602001602082028038833980820191505090505b509250600080905060008090505b600254811015610d9c576060600c60008a73ffffffffffffffffffffffffffffffffffffffff1673ffffffffffffffffffffffffffffffffffffffff1681526020019081526020016000206001016000838152602001908152602001600020805480602002602001604051908101604052809291908181526020018280548015610c0957602002820191906000526020600020905b815481526020019060010190808311610bf5575b5050505050905060008090505b8151811015610d8d576000828281518110610c2d57fe5b6020026020010151905080888681518110610c4457fe5b6020026020010181815250506007600082815260200190815260200160002054870196506040518060a00160405280828152602001858152602001600160008781526020019081526020016000208054600181600116156101000203166002900480601f016020809104026020016040519081016040528092919081815260200182805460018160011615610100020316600290048015610d265780601f10610cfb57610100808354040283529160200191610d26565b820191906000526020600020905b815481529060010190602001808311610d0957829003601f168201915b50505050508152602001600560008481526020019081526020016000205481526020016007600084815260200190815260200160002054815250898681518110610d6c57fe5b60200260200101819052508480600101955050508080600101915050610c16565b50508080600101915050610b60565b505050610e16565b6000604051908082528060200260200182016040528015610ddf57816020015b610dcc611092565b815260200190600190039081610dc45790505b5092506000604051908082528060200260200182016040528015610e125781602001602082028038833980820191505090505b5091505b610e1e61105a565b6040518060c00160405280600c60008973ffffffffffffffffffffffffffffffffffffffff1673ffffffffffffffffffffffffffffffffffffffff16815260200190815260200160002060000160009054906101000a900460ff1615158152602001858152602001848152602001838152602001600c60008973ffffffffffffffffffffffffffffffffffffffff1673ffffffffffffffffffffffffffffffffffffffff168152602001908152602001600020600301548152602001600c60008973ffffffffffffffffffffffffffffffffffffffff1673ffffffffffffffffffffffffffffffffffffffff16815260200190815260200160002060040154815250905080945050505050919050565b6000600954905090565b6060600d805480602002602001604051908101604052809291908181526020018280548015610fbc57602002820191906000526020600020905b8160009054906101000a900473ffffffffffffffffffffffffffffffffffffffff1673ffffffffffffffffffffffffffffffffffffffff1681526020019060010190808311610f72575b5050505050905090565b6040518060a0016040528060008152602001600081526020016000815260200160008152602001600081525090565b6040518060200160405280606081525090565b604051806040016040528060008152602001606081525090565b6040518060c0016040528060001515815260200160008152602001600081526020016000815260200160008152602001600081525090565b6040518060c0016040528060001515815260200160608152602001606081526020016000815260200160008152602001600081525090565b6040518060a0016040528060008152602001600081526020016060815260200160008152602001600081525090565b6000813590506110d081611af6565b92915050565b6000813590506110e581611b0d565b92915050565b6000813590506110fa81611b24565b92915050565b60006020828403121561111257600080fd5b6000611120848285016110c1565b91505092915050565b60006020828403121561113b57600080fd5b6000611149848285016110eb565b91505092915050565b6000806000806080858703121561116857600080fd5b6000611176878288016110eb565b9450506020611187878288016110d6565b9350506040611198878288016110d6565b92505060606111a9878288016110c1565b91505092959194509250565b60006111c1838361120d565b60208301905092915050565b60006111d98383611679565b905092915050565b60006111ed83836116e0565b905092915050565b600061120183836117e6565b60208301905092915050565b61121681611a60565b82525050565b60006112278261198f565b61123181856119fa565b935061123c8361195b565b8060005b8381101561126d57815161125488826111b5565b975061125f836119c6565b925050600181019050611240565b5085935050505092915050565b60006112858261199a565b61128f8185611a0b565b9350836020820285016112a185611968565b8060005b858110156112dd57848403895281516112be85826111cd565b94506112c9836119d3565b925060208a019950506001810190506112a5565b50829750879550505050505092915050565b60006112fa826119a5565b6113048185611a1c565b93508360208202850161131685611975565b8060005b85811015611352578484038952815161133385826111e1565b945061133e836119e0565b925060208a0199505060018101905061131a565b50829750879550505050505092915050565b600061136f826119b0565b6113798185611a2d565b935061138483611982565b8060005b838110156113b557815161139c88826111f5565b97506113a7836119ed565b925050600181019050611388565b5085935050505092915050565b6113cb81611a72565b82525050565b60006113dc826119bb565b6113e68185611a3e565b93506113f6818560208601611ab2565b6113ff81611ae5565b840191505092915050565b6000611417601083611a4f565b91507f496e76616c6964204545552074797065000000000000000000000000000000006000830152602082019050919050565b6000611457601183611a4f565b91507f52657374726963746564206d6574686f640000000000000000000000000000006000830152602082019050919050565b6000611497602a83611a4f565b91507f436172626f6e20776569676874206d75737420646976696465206576656e6c7960008301527f20696e746f2045455573000000000000000000000000000000000000000000006020830152604082019050919050565b60006114fd602983611a4f565b91507f4d696e696d756d206f6e65206d657472696320746f6e206f6620636172626f6e60008301527f20726571756972656400000000000000000000000000000000000000000000006020830152604082019050919050565b6000611563601883611a4f565b91507f4d696e696d756d206f6e652045455520726571756972656400000000000000006000830152602082019050919050565b60a0820160008201516115ac60008501826117e6565b5060208201516115bf60208501826117e6565b5060408201516115d260408501826117e6565b5060608201516115e560608501826117e6565b5060808201516115f860808501826117e6565b50505050565b60c08201600082015161161460008501826113c2565b50602082015161162760208501826117e6565b50604082015161163a60408501826117e6565b50606082015161164d60608501826117e6565b50608082015161166060808501826117e6565b5060a082015161167360a08501826117e6565b50505050565b600060408301600083015161169160008601826117e6565b50602083015184820360208601526116a982826113d1565b9150508091505092915050565b600060208301600083015184820360008601526116d3828261127a565b9150508091505092915050565b600060a0830160008301516116f860008601826117e6565b50602083015161170b60208601826117e6565b506040830151848203604086015261172382826113d1565b915050606083015161173860608601826117e6565b50608083015161174b60808601826117e6565b508091505092915050565b600060c08301600083015161176e60008601826113c2565b506020830151848203602086015261178682826112ef565b915050604083015184820360408601526117a08282611364565b91505060608301516117b560608601826117e6565b5060808301516117c860808601826117e6565b5060a08301516117db60a08601826117e6565b508091505092915050565b6117ef81611aa8565b82525050565b6117fe81611aa8565b82525050565b6000602082019050818103600083015261181e818461121c565b905092915050565b6000602082019050818103600083015261183f8161140a565b9050919050565b6000602082019050818103600083015261185f8161144a565b9050919050565b6000602082019050818103600083015261187f8161148a565b9050919050565b6000602082019050818103600083015261189f816114f0565b9050919050565b600060208201905081810360008301526118bf81611556565b9050919050565b600060a0820190506118db6000830184611596565b92915050565b600060c0820190506118f660008301846115fe565b92915050565b6000602082019050818103600083015261191681846116b6565b905092915050565b600060208201905081810360008301526119388184611756565b905092915050565b600060208201905061195560008301846117f5565b92915050565b6000602082019050919050565b6000602082019050919050565b6000602082019050919050565b6000602082019050919050565b600081519050919050565b600081519050919050565b600081519050919050565b600081519050919050565b600081519050919050565b6000602082019050919050565b6000602082019050919050565b6000602082019050919050565b6000602082019050919050565b600082825260208201905092915050565b600082825260208201905092915050565b600082825260208201905092915050565b600082825260208201905092915050565b600082825260208201905092915050565b600082825260208201905092915050565b6000611a6b82611a88565b9050919050565b60008115159050919050565b6000819050919050565b600073ffffffffffffffffffffffffffffffffffffffff82169050919050565b6000819050919050565b60005b83811015611ad0578082015181840152602081019050611ab5565b83811115611adf576000848401525b50505050565b6000601f19601f8301169050919050565b611aff81611a60565b8114611b0a57600080fd5b50565b611b1681611a7e565b8114611b2157600080fd5b50565b611b2d81611aa8565b8114611b3857600080fd5b5056fea265627a7a723058209825164705893e7f7ffaf887ee8be7372dc9bc9d6c773fed2893137a072bc9266c6578706572696d656e74616cf50037",
  "source": "pragma solidity 0.5.8;\r\npragma experimental ABIEncoderV2;\r\n\r\nimport \"./Owned.sol\";\r\nimport \"./AcLedger.sol\";\r\n\r\ncontract EeuMintable is Owned, AcLedger {\r\n    // Events -- TODO: encode full data in events\r\n    event MintedEeuBatch(uint256 id);\r\n    event MintedEeu(uint256 id);\r\n\r\n    /**\r\n     * mint and assign ownership new EEU batch\r\n     * @param eeuTypeId EEU-type for the batch\r\n     * @param qtyKG KG quanity of carbon to mint across the EEUs\r\n     * @param qtyEeus quantity of EEUs in the batch\r\n     * @param batchOwner who to assign the minted EEUs to\r\n     */\r\n    function mintEeuBatch(/*EeuType eeuType*/uint256 eeuTypeId, int256 qtyKG, int256 qtyEeus, address batchOwner) public {\r\n        require(msg.sender == owner, \"Restricted method\");\r\n        require(qtyKG >= 1000, \"Minimum one metric ton of carbon required\");\r\n        //require(eeuType != EeuType.dummy_end, \"Invalid EEU type\");\r\n        require(eeuTypeId > 0 && eeuTypeId < _count_eeuTypeIds, \"Invalid EEU type\");\r\n        require(qtyEeus >= 1, \"Minimum one EEU required\");\r\n        require(qtyKG % qtyEeus == 0, \"Carbon weight must divide evenly into EEUs\");\r\n\r\n        // create new EEU batch\r\n        EeuBatch memory newBatch = EeuBatch({\r\n                         id: _batchCurMaxId + 1,\r\n            mintedTimestamp: block.timestamp,\r\n                  eeuTypeId: eeuTypeId,\r\n                   mintedKG: uint256(qtyKG),\r\n                   burnedKG: 0\r\n        });\r\n        //_eeuBatches.push(newBatch);\r\n        _eeuBatches[newBatch.id] = newBatch;\r\n        _batchCurMaxId++;\r\n        emit MintedEeuBatch(newBatch.id);\r\n\r\n        // create _ledger entry as required\r\n        if (_ledger[batchOwner].exists == false) {\r\n            _ledger[batchOwner] = Ledger({\r\n                  exists: true,\r\n                usdCents: 0,\r\n                  ethWei: 0\r\n            });\r\n            _ledgerOwners.push(batchOwner);\r\n        }\r\n\r\n        // mint & assign EEUs\r\n        for (int256 ndx = 0; ndx < qtyEeus; ndx++) {\r\n            uint256 newId = _eeuCurMaxId + 1 + uint256(ndx);\r\n\r\n            // mint EEU\r\n            uint256 eeuKG = uint256(qtyKG) / uint256(qtyEeus);\r\n            _eeus_batchId[newId] = newBatch.id;\r\n            _eeus_mintedKG[newId] = eeuKG;\r\n            _eeus_KG[newId] = eeuKG;\r\n            _eeus_mintedTimestamp[newId] = block.timestamp;\r\n\r\n            emit MintedEeu(newId);\r\n\r\n            // assign\r\n            //_ledger[batchOwner].eeuIds.push(newId);\r\n            _ledger[batchOwner].type_eeuIds[eeuTypeId].push(newId);\r\n\r\n            // maintain fast EEU ownership lookup - by keccak256(ledgerOwner||eeuId)\r\n            // not currently used (was used when burning by eeuId)\r\n            //_ownsEeuId[keccak256(abi.encodePacked(batchOwner, newId))] = true;\r\n        }\r\n        //_ledger[batchOwner].eeu_sumKG += uint(qtyKG);\r\n        _ledger[batchOwner].type_sumKG[eeuTypeId] += uint256(qtyKG);\r\n\r\n        _eeuCurMaxId += uint256(qtyEeus);\r\n        _eeuKgMinted += uint256(qtyKG);\r\n    }\r\n\r\n    \r\n    /**\r\n     * @dev Returns the global no. of EEUs minted\r\n     */\r\n    function getEeuMintedCount() external view returns (uint256 count) {\r\n        return _eeuCurMaxId;\r\n    }\r\n    \r\n    /**\r\n     * @dev Returns the global no. of KGs carbon minted in EEUs\r\n     */\r\n    function getKgCarbonMinted() external view returns (uint256 count) {\r\n        return _eeuKgMinted;\r\n    }\r\n}\r\n",
  "sourcePath": "C:\\ac\\src\\ac-monorepo\\packages\\erc20\\contracts\\AcMaster\\EeuMintable.sol",
  "compiler": {
    "name": "solc",
    "version": "0.5.8+commit.23d335f2.Emscripten.clang"
  },
  "schemaVersion": "3.0.11",
  "updatedAt": "2019-08-05T11:21:19.601Z",
  "devdoc": {
    "methods": {
      "getEeu(uint256)": {
        "details": "Returns an EEU by ID\r"
      },
      "getEeuBatch(uint256)": {
        "details": "Returns an EEU batch by ID\r"
      },
      "getEeuBatchCount()": {
        "details": "Returns the global EEU batch count\r"
      },
      "getEeuMintedCount()": {
        "details": "Returns the global no. of EEUs minted\r"
      },
      "getEeuTypeIds()": {
        "details": "Returns EEU types\r"
      },
      "getKgCarbonMinted()": {
        "details": "Returns the global no. of KGs carbon minted in EEUs\r"
      },
      "getLedgerEntry(address)": {
        "details": "Returns the _ledger entry for a single account\r"
      },
      "getLedgerOwners()": {
        "details": "Returns all accounts in the ledger\r"
      },
      "mintEeuBatch(uint256,int256,int256,address)": {
        "params": {
          "batchOwner": "who to assign the minted EEUs to\r",
          "eeuTypeId": "EEU-type for the batch\r",
          "qtyEeus": "quantity of EEUs in the batch\r",
          "qtyKG": "KG quanity of carbon to mint across the EEUs\r"
        }
      }
    }
  },
  "userdoc": {
    "methods": {
      "mintEeuBatch(uint256,int256,int256,address)": {
        "notice": "mint and assign ownership new EEU batch\r"
      }
    }
  }
}