{
  "contractName": "EeuMintable",
  "abi": [
    {
      "constant": true,
      "inputs": [
        {
          "name": "id",
          "type": "uint256"
        }
      ],
      "name": "getEeuBatch",
      "outputs": [
        {
          "components": [
            {
              "name": "id",
              "type": "uint256"
            },
            {
              "name": "mintedTimestamp",
              "type": "uint256"
            },
            {
              "name": "eeuType",
              "type": "uint8"
            },
            {
              "name": "mintedKG",
              "type": "uint256"
            },
            {
              "name": "burnedKG",
              "type": "uint256"
            }
          ],
          "name": "batch",
          "type": "tuple"
        }
      ],
      "payable": false,
      "stateMutability": "view",
      "type": "function"
    },
    {
      "constant": true,
      "inputs": [],
      "name": "getEeuBatchCount",
      "outputs": [
        {
          "name": "count",
          "type": "uint256"
        }
      ],
      "payable": false,
      "stateMutability": "view",
      "type": "function"
    },
    {
      "constant": true,
      "inputs": [],
      "name": "getEeuMintedCount",
      "outputs": [
        {
          "name": "count",
          "type": "uint256"
        }
      ],
      "payable": false,
      "stateMutability": "view",
      "type": "function"
    },
    {
      "constant": true,
      "inputs": [
        {
          "name": "id",
          "type": "uint256"
        }
      ],
      "name": "getEeu",
      "outputs": [
        {
          "components": [
            {
              "name": "exists",
              "type": "bool"
            },
            {
              "name": "id",
              "type": "uint256"
            },
            {
              "name": "mintedKG",
              "type": "uint256"
            },
            {
              "name": "KG",
              "type": "uint256"
            },
            {
              "name": "batchId",
              "type": "uint256"
            },
            {
              "name": "mintedTimestamp",
              "type": "uint256"
            }
          ],
          "name": "eeu",
          "type": "tuple"
        }
      ],
      "payable": false,
      "stateMutability": "view",
      "type": "function"
    },
    {
      "constant": true,
      "inputs": [
        {
          "name": "account",
          "type": "address"
        }
      ],
      "name": "getLedgerEntry",
      "outputs": [
        {
          "components": [
            {
              "name": "exists",
              "type": "bool"
            },
            {
              "components": [
                {
                  "name": "eeuType",
                  "type": "uint8"
                },
                {
                  "name": "batchId",
                  "type": "uint256"
                },
                {
                  "name": "eeuId",
                  "type": "uint256"
                },
                {
                  "name": "eeuKG",
                  "type": "uint256"
                }
              ],
              "name": "eeus",
              "type": "tuple[]"
            },
            {
              "name": "eeuIds",
              "type": "uint256[]"
            },
            {
              "name": "eeu_sumKG",
              "type": "uint256"
            },
            {
              "name": "usdCents",
              "type": "uint256"
            },
            {
              "name": "ethWei",
              "type": "uint256"
            }
          ],
          "name": "entry",
          "type": "tuple"
        }
      ],
      "payable": false,
      "stateMutability": "view",
      "type": "function"
    },
    {
      "constant": true,
      "inputs": [],
      "name": "getKgCarbonMinted",
      "outputs": [
        {
          "name": "count",
          "type": "uint256"
        }
      ],
      "payable": false,
      "stateMutability": "view",
      "type": "function"
    },
    {
      "constant": true,
      "inputs": [],
      "name": "getKgCarbonBurned",
      "outputs": [
        {
          "name": "count",
          "type": "uint256"
        }
      ],
      "payable": false,
      "stateMutability": "view",
      "type": "function"
    },
    {
      "anonymous": false,
      "inputs": [
        {
          "indexed": false,
          "name": "id",
          "type": "uint256"
        }
      ],
      "name": "MintedEeuBatch",
      "type": "event"
    },
    {
      "anonymous": false,
      "inputs": [
        {
          "indexed": false,
          "name": "id",
          "type": "uint256"
        }
      ],
      "name": "MintedEeu",
      "type": "event"
    },
    {
      "constant": false,
      "inputs": [
        {
          "name": "eeuType",
          "type": "uint8"
        },
        {
          "name": "qtyKG",
          "type": "int256"
        },
        {
          "name": "qtyEeus",
          "type": "int256"
        },
        {
          "name": "batchOwner",
          "type": "address"
        }
      ],
      "name": "mintEeuBatch",
      "outputs": [],
      "payable": false,
      "stateMutability": "nonpayable",
      "type": "function"
    }
  ],
  "bytecode": "0x6080604052336000806101000a81548173ffffffffffffffffffffffffffffffffffffffff021916908373ffffffffffffffffffffffffffffffffffffffff160217905550611725806100536000396000f3fe608060405234801561001057600080fd5b50600436106100885760003560e01c80639ce9a4a61161005b5780639ce9a4a614610115578063a89a888414610145578063ba0138cb14610175578063e3f64b351461019357610088565b80630722a4ee1461008d57806319b67615146100bd5780633846d448146100db5780633dc74114146100f9575b600080fd5b6100a760048036036100a29190810190610f48565b6101b1565b6040516100b491906114e7565b60405180910390f35b6100c5610233565b6040516100d2919061153f565b60405180910390f35b6100e361023d565b6040516100f0919061153f565b60405180910390f35b610113600480360361010e9190810190610ee5565b610247565b005b61012f600480360361012a9190810190610f48565b610834565b60405161013c9190611502565b60405180910390f35b61015f600480360361015a9190810190610ebc565b6108d5565b60405161016c919061151d565b60405180910390f35b61017d610d77565b60405161018a919061153f565b60405180910390f35b61019b610d81565b6040516101a8919061153f565b60405180910390f35b6101b9610d8b565b600160008381526020019081526020016000206040518060a001604052908160008201548152602001600182015481526020016002820160009054906101000a900460ff16600281111561020957fe5b600281111561021457fe5b8152602001600382015481526020016004820154815250509050919050565b6000600254905090565b6000600954905090565b6000809054906101000a900473ffffffffffffffffffffffffffffffffffffffff1673ffffffffffffffffffffffffffffffffffffffff163373ffffffffffffffffffffffffffffffffffffffff16146102d6576040517f08c379a00000000000000000000000000000000000000000000000000000000081526004016102cd90611467565b60405180910390fd5b6103e883121561031b576040517f08c379a0000000000000000000000000000000000000000000000000000000008152600401610312906114a7565b60405180910390fd5b60028081111561032757fe5b84600281111561033357fe5b1415610374576040517f08c379a000000000000000000000000000000000000000000000000000000000815260040161036b90611447565b60405180910390fd5b60018212156103b8576040517f08c379a00000000000000000000000000000000000000000000000000000000081526004016103af906114c7565b60405180910390fd5b60008284816103c357fe5b0714610404576040517f08c379a00000000000000000000000000000000000000000000000000000000081526004016103fb90611487565b60405180910390fd5b61040c610d8b565b6040518060a00160405280600160025401815260200142815260200186600281111561043457fe5b815260200185815260200160008152509050806001600083600001518152602001908152602001600020600082015181600001556020820151816001015560408201518160020160006101000a81548160ff0219169083600281111561049657fe5b021790555060608201518160030155608082015181600401559050506002600081548092919060010191905055507fba7d8b85a9434f2fd64b297bb950e65e9e5ecb740a5849858b2d0feaa060dc7f81600001516040516104f7919061153f565b60405180910390a160001515600a60008473ffffffffffffffffffffffffffffffffffffffff1673ffffffffffffffffffffffffffffffffffffffff16815260200190815260200160002060000160009054906101000a900460ff16151514156105f2576040518060600160405280600115158152602001600081526020016000815250600a60008473ffffffffffffffffffffffffffffffffffffffff1673ffffffffffffffffffffffffffffffffffffffff16815260200190815260200160002060008201518160000160006101000a81548160ff02191690831515021790555060208201518160030155604082015181600401559050505b60008090505b838112156107a057600081600160095401019050600085878161061757fe5b049050836000015160036000848152602001908152602001600020819055508060046000848152602001908152602001600020819055508060056000848152602001908152602001600020819055504260066000848152602001908152602001600020819055507f1caa6478e2895200416932562f54b40f7cb48c9b101106ba5872fa749e116977826040516106ad919061153f565b60405180910390a1600a60008673ffffffffffffffffffffffffffffffffffffffff1673ffffffffffffffffffffffffffffffffffffffff168152602001908152602001600020600101600089600281111561070557fe5b81526020019081526020016000208290806001815401808255809150509060018203906000526020600020016000909192909190915055506001600b6000878560405160200161075692919061141b565b60405160208183030381529060405280519060200120815260200190815260200160002060006101000a81548160ff021916908315150217905550505080806001019150506105f8565b5083600a60008473ffffffffffffffffffffffffffffffffffffffff1673ffffffffffffffffffffffffffffffffffffffff16815260200190815260200160002060020160008760028111156107f257fe5b81526020019081526020016000206000828254019250508190555082600960008282540192505081905550836007600082825401925050819055505050505050565b61083c610dc5565b6040518060c001604052806000600360008681526020019081526020016000205414151515815260200183815260200160046000858152602001908152602001600020548152602001600560008581526020019081526020016000205481526020016003600085815260200190815260200160002054815260200160066000858152602001908152602001600020548152509050919050565b6108dd610dfd565b6060806000809050600a60008673ffffffffffffffffffffffffffffffffffffffff1673ffffffffffffffffffffffffffffffffffffffff16815260200190815260200160002060000160009054906101000a900460ff1615610bed57600080905060008090505b60028081111561095157fe5b8110156109c057600a60008873ffffffffffffffffffffffffffffffffffffffff1673ffffffffffffffffffffffffffffffffffffffff168152602001908152602001600020600101600082815260200190815260200160002080549050820191508080600101915050610945565b50806040519080825280602002602001820160405280156109fb57816020015b6109e8610e35565b8152602001906001900390816109e05790505b50935080604051908082528060200260200182016040528015610a2d5781602001602082028038833980820191505090505b509250600080905060008090505b600280811115610a4757fe5b811015610be5576060600a60008a73ffffffffffffffffffffffffffffffffffffffff1673ffffffffffffffffffffffffffffffffffffffff1681526020019081526020016000206001016000838152602001908152602001600020805480602002602001604051908101604052809291908181526020018280548015610aed57602002820191906000526020600020905b815481526020019060010190808311610ad9575b5050505050905060008090505b8151811015610bd6576000828281518110610b1157fe5b6020026020010151905080888681518110610b2857fe5b6020026020010181815250506005600082815260200190815260200160002054870196506040518060800160405280856002811115610b6357fe5b6002811115610b6e57fe5b8152602001600360008481526020019081526020016000205481526020018281526020016005600084815260200190815260200160002054815250898681518110610bb557fe5b60200260200101819052508480600101955050508080600101915050610afa565b50508080600101915050610a3b565b505050610c5f565b6000604051908082528060200260200182016040528015610c2857816020015b610c15610e35565b815260200190600190039081610c0d5790505b5092506000604051908082528060200260200182016040528015610c5b5781602001602082028038833980820191505090505b5091505b610c67610dfd565b6040518060c00160405280600a60008973ffffffffffffffffffffffffffffffffffffffff1673ffffffffffffffffffffffffffffffffffffffff16815260200190815260200160002060000160009054906101000a900460ff1615158152602001858152602001848152602001838152602001600a60008973ffffffffffffffffffffffffffffffffffffffff1673ffffffffffffffffffffffffffffffffffffffff168152602001908152602001600020600301548152602001600a60008973ffffffffffffffffffffffffffffffffffffffff1673ffffffffffffffffffffffffffffffffffffffff16815260200190815260200160002060040154815250905080945050505050919050565b6000600754905090565b6000600854905090565b6040518060a00160405280600081526020016000815260200160006002811115610db157fe5b815260200160008152602001600081525090565b6040518060c0016040528060001515815260200160008152602001600081526020016000815260200160008152602001600081525090565b6040518060c0016040528060001515815260200160608152602001606081526020016000815260200160008152602001600081525090565b604051806080016040528060006002811115610e4d57fe5b81526020016000815260200160008152602001600081525090565b600081359050610e7781611696565b92915050565b600081359050610e8c816116ad565b92915050565b600081359050610ea1816116bd565b92915050565b600081359050610eb6816116d4565b92915050565b600060208284031215610ece57600080fd5b6000610edc84828501610e68565b91505092915050565b60008060008060808587031215610efb57600080fd5b6000610f0987828801610e7d565b9450506020610f1a87828801610e92565b9350506040610f2b87828801610e92565b9250506060610f3c87828801610e68565b91505092959194509250565b600060208284031215610f5a57600080fd5b6000610f6884828501610ea7565b91505092915050565b6000610f7d8383611301565b60808301905092915050565b6000610f9583836113e6565b60208301905092915050565b610fb2610fad826115d7565b61164e565b82525050565b6000610fc382611574565b610fcd81856115a4565b9350610fd88361155a565b8060005b83811015611009578151610ff08882610f71565b9750610ffb8361158a565b925050600181019050610fdc565b5085935050505092915050565b60006110218261157f565b61102b81856115b5565b935061103683611567565b8060005b8381101561106757815161104e8882610f89565b975061105983611597565b92505060018101905061103a565b5085935050505092915050565b61107d816115e9565b82525050565b61108c8161163c565b82525050565b600061109f6010836115c6565b91507f496e76616c6964204545552074797065000000000000000000000000000000006000830152602082019050919050565b60006110df6011836115c6565b91507f52657374726963746564206d6574686f640000000000000000000000000000006000830152602082019050919050565b600061111f602a836115c6565b91507f436172626f6e20776569676874206d75737420646976696465206576656e6c7960008301527f20696e746f2045455573000000000000000000000000000000000000000000006020830152604082019050919050565b60006111856029836115c6565b91507f4d696e696d756d206f6e65206d657472696320746f6e206f6620636172626f6e60008301527f20726571756972656400000000000000000000000000000000000000000000006020830152604082019050919050565b60006111eb6018836115c6565b91507f4d696e696d756d206f6e652045455520726571756972656400000000000000006000830152602082019050919050565b60a08201600082015161123460008501826113e6565b50602082015161124760208501826113e6565b50604082015161125a6040850182611083565b50606082015161126d60608501826113e6565b50608082015161128060808501826113e6565b50505050565b60c08201600082015161129c6000850182611074565b5060208201516112af60208501826113e6565b5060408201516112c260408501826113e6565b5060608201516112d560608501826113e6565b5060808201516112e860808501826113e6565b5060a08201516112fb60a08501826113e6565b50505050565b6080820160008201516113176000850182611083565b50602082015161132a60208501826113e6565b50604082015161133d60408501826113e6565b50606082015161135060608501826113e6565b50505050565b600060c08301600083015161136e6000860182611074565b50602083015184820360208601526113868282610fb8565b915050604083015184820360408601526113a08282611016565b91505060608301516113b560608601826113e6565b5060808301516113c860808601826113e6565b5060a08301516113db60a08601826113e6565b508091505092915050565b6113ef81611632565b82525050565b6113fe81611632565b82525050565b61141561141082611632565b611672565b82525050565b60006114278285610fa1565b6014820191506114378284611404565b6020820191508190509392505050565b6000602082019050818103600083015261146081611092565b9050919050565b60006020820190508181036000830152611480816110d2565b9050919050565b600060208201905081810360008301526114a081611112565b9050919050565b600060208201905081810360008301526114c081611178565b9050919050565b600060208201905081810360008301526114e0816111de565b9050919050565b600060a0820190506114fc600083018461121e565b92915050565b600060c0820190506115176000830184611286565b92915050565b600060208201905081810360008301526115378184611356565b905092915050565b600060208201905061155460008301846113f5565b92915050565b6000602082019050919050565b6000602082019050919050565b600081519050919050565b600081519050919050565b6000602082019050919050565b6000602082019050919050565b600082825260208201905092915050565b600082825260208201905092915050565b600082825260208201905092915050565b60006115e282611612565b9050919050565b60008115159050919050565b600081905061160382611689565b919050565b6000819050919050565b600073ffffffffffffffffffffffffffffffffffffffff82169050919050565b6000819050919050565b6000611647826115f5565b9050919050565b600061165982611660565b9050919050565b600061166b8261167c565b9050919050565b6000819050919050565b60008160601b9050919050565b6003811061169357fe5b50565b61169f816115d7565b81146116aa57600080fd5b50565b600381106116ba57600080fd5b50565b6116c681611608565b81146116d157600080fd5b50565b6116dd81611632565b81146116e857600080fd5b5056fea265627a7a72305820c6d2ce7c60743d55548912bfdb7bc614c3ab45f2ec9d8f877e451ac8a3bd05f36c6578706572696d656e74616cf50037",
  "source": "pragma solidity 0.5.8;\r\npragma experimental ABIEncoderV2;\r\n\r\nimport \"./Owned.sol\";\r\nimport \"./AcLedger.sol\";\r\n\r\ncontract EeuMintable is Owned, AcLedger {\r\n    // Events -- TODO: encode full data in events\r\n    event MintedEeuBatch(uint256 id);\r\n    event MintedEeu(uint256 id);\r\n\r\n    /**\r\n     * mint and assign ownership new EEU batch\r\n     * @param eeuType EEU-type for the batch\r\n     * @param qtyKG KG quanity of carbon to mint across the EEUs\r\n     * @param qtyEeus quantity of EEUs in the batch\r\n     * @param batchOwner who to assign the minted EEUs to\r\n     */\r\n    function mintEeuBatch(EeuType eeuType, int256 qtyKG, int256 qtyEeus, address batchOwner) public {\r\n        require(msg.sender == owner, \"Restricted method\");\r\n        require(qtyKG >= 1000, \"Minimum one metric ton of carbon required\");\r\n        require(eeuType != EeuType.dummy_end, \"Invalid EEU type\");\r\n        require(qtyEeus >= 1, \"Minimum one EEU required\");\r\n        require(qtyKG % qtyEeus == 0, \"Carbon weight must divide evenly into EEUs\");\r\n\r\n        // create new EEU batch\r\n        EeuBatch memory newBatch = EeuBatch({\r\n            id: batchCurMaxId + 1,\r\n            mintedTimestamp: block.timestamp,\r\n            eeuType: eeuType,\r\n            mintedKG: uint256(qtyKG),\r\n            burnedKG: 0\r\n        });\r\n        //eeuBatches.push(newBatch);\r\n        eeuBatches[newBatch.id] = newBatch;\r\n        batchCurMaxId++;\r\n        emit MintedEeuBatch(newBatch.id);\r\n\r\n        // create ledger entry as required\r\n        if (ledger[batchOwner].exists == false) {\r\n            ledger[batchOwner] = Ledger({\r\n                exists: true,\r\n                //eeuIds: new uint[](0),\r\n                //eeu_sumKG: 0,\r\n                usdCents: 0,\r\n                ethWei: 0\r\n            });\r\n        }\r\n\r\n        // mint & assign EEUs\r\n        for (int256 ndx = 0; ndx < qtyEeus; ndx++) {\r\n            uint256 newId = eeuCurMaxId + 1 + uint256(ndx);\r\n\r\n            // mint EEU\r\n            uint256 eeuKG = uint256(qtyKG) / uint256(qtyEeus);\r\n            eeus_batchId[newId] = newBatch.id;\r\n            eeus_mintedKG[newId] = eeuKG;\r\n            eeus_KG[newId] = eeuKG;\r\n            eeus_mintedTimestamp[newId] = block.timestamp;\r\n\r\n            emit MintedEeu(newId);\r\n\r\n            // assign\r\n            //ledger[batchOwner].eeuIds.push(newId);\r\n            ledger[batchOwner].type_eeuIds[uint256(eeuType)].push(newId);\r\n\r\n            // maintain fast EEU ownership lookup - by keccak256(ledgerOwner||eeuId)\r\n            ownsEeuId[keccak256(abi.encodePacked(batchOwner, newId))] = true;\r\n        }\r\n        //ledger[batchOwner].eeu_sumKG += uint(qtyKG);\r\n        ledger[batchOwner].type_sumKG[uint256(eeuType)] += uint256(qtyKG);\r\n\r\n        eeuCurMaxId += uint256(qtyEeus);\r\n        eeuKgMinted += uint256(qtyKG);\r\n    }\r\n}\r\n",
  "sourcePath": "C:\\ac\\src\\ac-monorepo\\packages\\erc20\\contracts\\EeuMintable.sol",
  "compiler": {
    "name": "solc",
    "version": "0.5.8+commit.23d335f2.Emscripten.clang"
  },
  "schemaVersion": "3.0.11",
  "updatedAt": "2019-08-04T15:06:16.075Z",
  "devdoc": {
    "methods": {
      "getEeu(uint256)": {
        "details": "Returns an EEU by ID\r"
      },
      "getEeuBatch(uint256)": {
        "details": "Returns an EEU batch by ID\r"
      },
      "getEeuBatchCount()": {
        "details": "Returns the global EEU batch count\r"
      },
      "getEeuMintedCount()": {
        "details": "Returns the global no. of EEUs minted\r"
      },
      "getKgCarbonBurned()": {
        "details": "Returns the global no. of KGs carbon burned in EEUs\r"
      },
      "getKgCarbonMinted()": {
        "details": "Returns the global no. of KGs carbon minted in EEUs\r"
      },
      "getLedgerEntry(address)": {
        "details": "Returns the ledger entry for an account\r"
      },
      "mintEeuBatch(uint8,int256,int256,address)": {
        "params": {
          "batchOwner": "who to assign the minted EEUs to\r",
          "eeuType": "EEU-type for the batch\r",
          "qtyEeus": "quantity of EEUs in the batch\r",
          "qtyKG": "KG quanity of carbon to mint across the EEUs\r"
        }
      }
    }
  },
  "userdoc": {
    "methods": {
      "mintEeuBatch(uint8,int256,int256,address)": {
        "notice": "mint and assign ownership new EEU batch\r"
      }
    }
  }
}