{
  "contractName": "EeuMintable",
  "abi": [
    {
      "constant": true,
      "inputs": [
        {
          "name": "id",
          "type": "uint256"
        }
      ],
      "name": "getEeuBatch",
      "outputs": [
        {
          "components": [
            {
              "name": "id",
              "type": "uint256"
            },
            {
              "name": "mintedTimestamp",
              "type": "uint256"
            },
            {
              "name": "eeuTypeId",
              "type": "uint256"
            },
            {
              "name": "mintedKG",
              "type": "uint256"
            },
            {
              "name": "burnedKG",
              "type": "uint256"
            }
          ],
          "name": "",
          "type": "tuple"
        }
      ],
      "payable": false,
      "stateMutability": "view",
      "type": "function"
    },
    {
      "constant": false,
      "inputs": [
        {
          "name": "name",
          "type": "string"
        },
        {
          "name": "unit",
          "type": "string"
        }
      ],
      "name": "addCcyType",
      "outputs": [],
      "payable": false,
      "stateMutability": "nonpayable",
      "type": "function"
    },
    {
      "constant": true,
      "inputs": [],
      "name": "getEeuBatchCount",
      "outputs": [
        {
          "name": "",
          "type": "uint256"
        }
      ],
      "payable": false,
      "stateMutability": "view",
      "type": "function"
    },
    {
      "constant": true,
      "inputs": [],
      "name": "getCcyTypes",
      "outputs": [
        {
          "components": [
            {
              "components": [
                {
                  "name": "id",
                  "type": "uint256"
                },
                {
                  "name": "name",
                  "type": "string"
                },
                {
                  "name": "unit",
                  "type": "string"
                }
              ],
              "name": "ccyTypes",
              "type": "tuple[]"
            }
          ],
          "name": "",
          "type": "tuple"
        }
      ],
      "payable": false,
      "stateMutability": "view",
      "type": "function"
    },
    {
      "constant": false,
      "inputs": [
        {
          "name": "name",
          "type": "string"
        }
      ],
      "name": "addEeuType",
      "outputs": [],
      "payable": false,
      "stateMutability": "nonpayable",
      "type": "function"
    },
    {
      "constant": true,
      "inputs": [],
      "name": "getEeuTypes",
      "outputs": [
        {
          "components": [
            {
              "components": [
                {
                  "name": "id",
                  "type": "uint256"
                },
                {
                  "name": "name",
                  "type": "string"
                }
              ],
              "name": "eeuTypes",
              "type": "tuple[]"
            }
          ],
          "name": "",
          "type": "tuple"
        }
      ],
      "payable": false,
      "stateMutability": "view",
      "type": "function"
    },
    {
      "constant": true,
      "inputs": [
        {
          "name": "id",
          "type": "uint256"
        }
      ],
      "name": "getEeu",
      "outputs": [
        {
          "components": [
            {
              "name": "exists",
              "type": "bool"
            },
            {
              "name": "id",
              "type": "uint256"
            },
            {
              "name": "mintedKG",
              "type": "uint256"
            },
            {
              "name": "KG",
              "type": "uint256"
            },
            {
              "name": "batchId",
              "type": "uint256"
            },
            {
              "name": "mintedTimestamp",
              "type": "uint256"
            },
            {
              "name": "splitFromId",
              "type": "uint256"
            },
            {
              "name": "splitToId",
              "type": "uint256"
            }
          ],
          "name": "",
          "type": "tuple"
        }
      ],
      "payable": false,
      "stateMutability": "view",
      "type": "function"
    },
    {
      "constant": true,
      "inputs": [
        {
          "name": "account",
          "type": "address"
        }
      ],
      "name": "getLedgerEntry",
      "outputs": [
        {
          "components": [
            {
              "name": "exists",
              "type": "bool"
            },
            {
              "components": [
                {
                  "name": "eeuId",
                  "type": "uint256"
                },
                {
                  "name": "eeuTypeId",
                  "type": "uint256"
                },
                {
                  "name": "eeuTypeName",
                  "type": "string"
                },
                {
                  "name": "batchId",
                  "type": "uint256"
                },
                {
                  "name": "eeuKG",
                  "type": "uint256"
                },
                {
                  "name": "mintedTimestamp",
                  "type": "uint256"
                },
                {
                  "name": "splitFromId",
                  "type": "uint256"
                },
                {
                  "name": "splitToId",
                  "type": "uint256"
                }
              ],
              "name": "eeus",
              "type": "tuple[]"
            },
            {
              "name": "eeu_sumKG",
              "type": "uint256"
            },
            {
              "components": [
                {
                  "name": "typeId",
                  "type": "uint256"
                },
                {
                  "name": "name",
                  "type": "string"
                },
                {
                  "name": "unit",
                  "type": "string"
                },
                {
                  "name": "balance",
                  "type": "int256"
                }
              ],
              "name": "ccys",
              "type": "tuple[]"
            }
          ],
          "name": "",
          "type": "tuple"
        }
      ],
      "payable": false,
      "stateMutability": "view",
      "type": "function"
    },
    {
      "constant": true,
      "inputs": [],
      "name": "getLedgerOwners",
      "outputs": [
        {
          "name": "",
          "type": "address[]"
        }
      ],
      "payable": false,
      "stateMutability": "view",
      "type": "function"
    },
    {
      "anonymous": false,
      "inputs": [
        {
          "indexed": false,
          "name": "id",
          "type": "uint256"
        },
        {
          "indexed": false,
          "name": "eeuTypeId",
          "type": "uint256"
        },
        {
          "indexed": false,
          "name": "batchOwner",
          "type": "address"
        },
        {
          "indexed": false,
          "name": "qtyKG",
          "type": "uint256"
        },
        {
          "indexed": false,
          "name": "qtyEeus",
          "type": "uint256"
        }
      ],
      "name": "MintedEeuBatch",
      "type": "event"
    },
    {
      "anonymous": false,
      "inputs": [
        {
          "indexed": false,
          "name": "id",
          "type": "uint256"
        },
        {
          "indexed": false,
          "name": "batchId",
          "type": "uint256"
        },
        {
          "indexed": false,
          "name": "eeuTypeId",
          "type": "uint256"
        },
        {
          "indexed": false,
          "name": "ledgerOwner",
          "type": "address"
        },
        {
          "indexed": false,
          "name": "mintedKG",
          "type": "uint256"
        }
      ],
      "name": "MintedEeu",
      "type": "event"
    },
    {
      "anonymous": false,
      "inputs": [
        {
          "indexed": false,
          "name": "id",
          "type": "uint256"
        },
        {
          "indexed": false,
          "name": "name",
          "type": "string"
        },
        {
          "indexed": false,
          "name": "unit",
          "type": "string"
        }
      ],
      "name": "AddedCcyType",
      "type": "event"
    },
    {
      "anonymous": false,
      "inputs": [
        {
          "indexed": false,
          "name": "id",
          "type": "uint256"
        },
        {
          "indexed": false,
          "name": "name",
          "type": "string"
        }
      ],
      "name": "AddedEeuType",
      "type": "event"
    },
    {
      "constant": false,
      "inputs": [
        {
          "name": "eeuTypeId",
          "type": "uint256"
        },
        {
          "name": "qtyKG",
          "type": "int256"
        },
        {
          "name": "qtyEeus",
          "type": "int256"
        },
        {
          "name": "batchOwner",
          "type": "address"
        }
      ],
      "name": "mintEeuBatch",
      "outputs": [],
      "payable": false,
      "stateMutability": "nonpayable",
      "type": "function"
    },
    {
      "constant": true,
      "inputs": [],
      "name": "getEeuMintedCount",
      "outputs": [
        {
          "name": "",
          "type": "uint256"
        }
      ],
      "payable": false,
      "stateMutability": "view",
      "type": "function"
    },
    {
      "constant": true,
      "inputs": [],
      "name": "getKgCarbonMinted",
      "outputs": [
        {
          "name": "",
          "type": "uint256"
        }
      ],
      "payable": false,
      "stateMutability": "view",
      "type": "function"
    }
  ],
  "bytecode": "0x60008054600160a060020a0319163317815560c0604052600660808190527f554e46434343000000000000000000000000000000000000000000000000000060a0908152918052600160205262000078917fa6eef7e35abe7026729641147f7915573c7e97b47efa546f5f6e3230263bcb499162000308565b5060408051808201909152600381527f564353000000000000000000000000000000000000000000000000000000000060208083019182526001600081905290529051620000e8917fcc69885fda6bcc1a4ace058b4a62bf5e179ea78fd58a1ccd71c22cc9b688792f9162000308565b50600280556040805160608101825260008082528251808401845260038082527f555344000000000000000000000000000000000000000000000000000000000060208381019190915280850192835285518087018752600581527f63656e7473000000000000000000000000000000000000000000000000000000818301529585019590955291805290835281517f3617319a054d772f909f7c479a2cebe5066e836a939412e32403c99029b92eff9081559051805192939192620001d2927f3617319a054d772f909f7c479a2cebe5066e836a939412e32403c99029b92f0092019062000308565b5060408201518051620001f091600284019160209091019062000308565b50506040805160608101825260018082528251808401845260038082527f4554480000000000000000000000000000000000000000000000000000000000602083810191909152808501928352855180870187528281527f5765690000000000000000000000000000000000000000000000000000000000818301529585019590955260009290925290835281517fa15bc60c955c405d20d9149c709e2460f1c2d9a497496a7f46004d1772c3054c908155905180519294509092620002dc927fa15bc60c955c405d20d9149c709e2460f1c2d9a497496a7f46004d1772c3054d929091019062000308565b5060408201518051620002fa91600284019160209091019062000308565b5050600260045550620003ad565b828054600181600116156101000203166002900490600052602060002090601f016020900481019282601f106200034b57805160ff19168380011785556200037b565b828001600101855582156200037b579182015b828111156200037b5782518255916020019190600101906200035e565b50620003899291506200038d565b5090565b620003aa91905b8082111562000389576000815560010162000394565b90565b6121c480620003bd6000396000f3fe608060405234801561001057600080fd5b50600436106100f1576000357c01000000000000000000000000000000000000000000000000000000009004806370f753de1161009e578063a89a888411610078578063a89a8884146101c1578063ba0138cb146101e1578063bcc376c6146101e9576100f1565b806370f753de14610179578063963030df1461018c5780639ce9a4a6146101a1576100f1565b80633846d448116100cf5780633846d448146101495780634dc26ae81461015157806351664b2614610166576100f1565b80630722a4ee146100f65780630834e8641461011f57806319b6761514610134575b600080fd5b6101096101043660046115da565b6101fe565b6040516101169190611f39565b60405180910390f35b61013261012d366004611571565b610255565b005b61013c6103e5565b6040516101169190611f89565b61013c6103ec565b610159610433565b6040516101169190611f56565b61013261017436600461153c565b61061d565b6101326101873660046115f8565b61075b565b610194610aff565b6040516101169190611f67565b6101b46101af3660046115da565b610c1d565b6040516101169190611f47565b6101d46101cf366004611516565b610ca3565b6040516101169190611f78565b61013c6111bd565b6101f1611204565b6040516101169190611eb8565b6102066112b3565b50600090815260056020908152604091829020825160a0810184528154815260018201549281019290925260028101549282019290925260038201546060820152600490910154608082015290565b60005473ffffffffffffffffffffffffffffffffffffffff16331461029d5760405160008051602061216b833981519152815260040161029490611ed9565b60405180910390fd5b60005b60045481101561033457826040516020016102bb9190611ea0565b60408051601f1981840301815282825280516020918201206000858152600383529290922091926102f0926001019101611eac565b60405160208183030381529060405280519060200120141561032c5760405160008051602061216b833981519152815260040161029490611ee9565b6001016102a0565b5060408051606081018252600454808252602080830186815283850186905260009283526003825293909120825181559251805192939261037b92600185019201906112e2565b50604082015180516103979160028401916020909101906112e2565b509050507f41c4a4be5d1fed810ab0ace2ffe78022538a72356773c24ed010e06bdf6454b760045483836040516103d093929190611fb7565b60405180910390a15050600480546001019055565b6006545b90565b6000805473ffffffffffffffffffffffffffffffffffffffff16331461042c5760405160008051602061216b833981519152815260040161029490611ed9565b5060105490565b61043b611360565b606060045460405190808252806020026020018201604052801561047957816020015b610466611373565b81526020019060019003908161045e5790505b50905060005b60045481101561060057604080516060810182526000838152600360208181528483208054855292869052908152600191820180548551600294821615610100026000190190911693909304601f8101839004830284018301909552848352929381850193918301828280156105365780601f1061050b57610100808354040283529160200191610536565b820191906000526020600020905b81548152906001019060200180831161051957829003601f168201915b50505091835250506000838152600360209081526040918290206002908101805484516001821615610100026000190190911692909204601f810184900484028301840190945283825293820193909290918301828280156105d95780601f106105ae576101008083540402835291602001916105d9565b820191906000526020600020905b8154815290600101906020018083116105bc57829003601f168201915b50505050508152508282815181106105ed57fe5b602090810291909101015260010161047f565b50610609611360565b506040805160208101909152908152905090565b60005473ffffffffffffffffffffffffffffffffffffffff16331461065c5760405160008051602061216b833981519152815260040161029490611ed9565b60005b6002548110156106f0578160405160200161067a9190611ea0565b60408051601f1981840301815282825280516020918201206000858152600183529290922091926106ac929101611eac565b6040516020818303038152906040528051906020012014156106e85760405160008051602061216b833981519152815260040161029490611f19565b60010161065f565b5060025460009081526001602090815260409091208251610713928401906112e2565b507ff42a31d05ee5f17e0f159b94b9402293e9cf2265c806b4a55168aeaa3fe275e260025482604051610747929190611f97565b60405180910390a150600280546001019055565b60005473ffffffffffffffffffffffffffffffffffffffff16331461079a5760405160008051602061216b833981519152815260040161029490611ed9565b60025484106107c35760405160008051602061216b833981519152815260040161029490611ec9565b60018212156107ec5760405160008051602061216b833981519152815260040161029490611f29565b6103e88312156108165760405160008051602061216b833981519152815260040161029490611f09565b81838161081f57fe5b07156108455760405160008051602061216b833981519152815260040161029490611ef9565b61084d6112b3565b506040805160a0810182526006805460019081018084524260208086019182528587018b8152606087018b81526000608089018181529581526005909352918890208751808255935181870155905160028201559051600382015591516004909201919091558254909101909155915190917f3b2a5f1232ad8fb6334d75c56a235d50209dc23e6b0b51325b2e98e17a6ffc3d916108f391908890869089908990611feb565b60405180910390a173ffffffffffffffffffffffffffffffffffffffff821660009081526011602052604090205460ff166109c2576040805160208082018352600180835273ffffffffffffffffffffffffffffffffffffffff8616600081815260119093529382209251835460ff19169015151790925560128054928301815590527fbb8a6a4669ba250d26cd7a459eca9d215f8307e33aebe50379bc5a3617ec34440180547fffffffffffffffffffffffff00000000000000000000000000000000000000001690911790555b60005b83811215610aad57601054810160010160008587816109e057fe5b855160008581526007602090815260408083209390935560088152828220949093049384905560098352818120849055600a90925290819020429055855190519192507fbdf1b0fbadd676a593dc51c25399111b5cf1795fd1315c7545271c18c1b265cd91610a569185918c908a908790612037565b60405180910390a15073ffffffffffffffffffffffffffffffffffffffff841660009081526011602090815260408083208a84526001908101835290832080548083018255908452919092200191909155016109c5565b505073ffffffffffffffffffffffffffffffffffffffff166000908152601160209081526040808320958352600290950190529290922080548201905560108054909201909155600d80549091019055565b610b07611360565b6060600254604051908082528060200260200182016040528015610b4557816020015b610b32611394565b815260200190600190039081610b2a5790505b50905060005b600254811015610600576040805180820182528281526000838152600160208181529184902080548551600293821615610100026000190190911692909204601f81018490048402830184019095528482529293828501939192830182828015610bf65780601f10610bcb57610100808354040283529160200191610bf6565b820191906000526020600020905b815481529060010190602001808311610bd957829003601f168201915b5050505050815250828281518110610c0a57fe5b6020908102919091010152600101610b4b565b610c256113ae565b506040805161010081018252600083815260076020908152838220548015158452818401869052858352600882528483205484860152858352600982528483205460608501526080840152848252600a81528382205460a0840152848252600b81528382205460c0840152938152600c90935291205460e082015290565b610cab6113f5565b606080600080805b600254811015610cff5773ffffffffffffffffffffffffffffffffffffffff87166000908152601160209081526040808320848452600190810190925290912054929092019101610cb3565b5080604051908082528060200260200182016040528015610d3a57816020015b610d2761141f565b815260200190600190039081610d1f5790505b5093506000805b600254811015610f555773ffffffffffffffffffffffffffffffffffffffff88166000908152601160209081526040808320848452600101825291829020805483518184028101840190945280845260609392830182828015610dc357602002820191906000526020600020905b815481526020019060010190808311610daf575b50939450600093505050505b8151811015610f4b576000828281518110610de657fe5b60200260200101519050600960008281526020019081526020016000205487019650604051806101000160405280828152602001858152602001600160008781526020019081526020016000208054600181600116156101000203166002900480601f016020809104026020016040519081016040528092919081815260200182805460018160011615610100020316600290048015610ec75780601f10610e9c57610100808354040283529160200191610ec7565b820191906000526020600020905b815481529060010190602001808311610eaa57829003601f168201915b505050918352505060008381526007602090815260408083205482850152858352600982528083205481850152858352600a8252808320546060850152858352600b8252808320546080850152858352600c90915290205460a09091015289518a9087908110610f3357fe5b60209081029190910101525060019384019301610dcf565b5050600101610d41565b50600454604051908082528060200260200182016040528015610f9257816020015b610f7f611464565b815260200190600190039081610f775790505b50935060005b600454811015611160576040518060800160405280828152602001600360008481526020019081526020016000206001018054600181600116156101000203166002900480601f01602080910402602001604051908101604052809291908181526020018280546001816001161561010002031660029004801561105d5780601f106110325761010080835404028352916020019161105d565b820191906000526020600020905b81548152906001019060200180831161104057829003601f168201915b50505091835250506000838152600360209081526040918290206002908101805484516001821615610100026000190190911692909204601f810184900484028301840190945283825293820193909290918301828280156111005780601f106110d557610100808354040283529160200191611100565b820191906000526020600020905b8154815290600101906020018083116110e357829003601f168201915b505050918352505073ffffffffffffffffffffffffffffffffffffffff8a166000908152601160209081526040808320868452600301825290912054910152855186908390811061114d57fe5b6020908102919091010152600101610f98565b506111696113f5565b50506040805160808101825273ffffffffffffffffffffffffffffffffffffffff8816600090815260116020908152908390205460ff16151582528101959095528401919091525060608201529050919050565b6000805473ffffffffffffffffffffffffffffffffffffffff1633146111fd5760405160008051602061216b833981519152815260040161029490611ed9565b50600d5490565b60005460609073ffffffffffffffffffffffffffffffffffffffff1633146112465760405160008051602061216b833981519152815260040161029490611ed9565b60128054806020026020016040519081016040528092919081815260200182805480156112a957602002820191906000526020600020905b815473ffffffffffffffffffffffffffffffffffffffff16815260019091019060200180831161127e575b5050505050905090565b6040518060a0016040528060008152602001600081526020016000815260200160008152602001600081525090565b828054600181600116156101000203166002900490600052602060002090601f016020900481019282601f1061132357805160ff1916838001178555611350565b82800160010185558215611350579182015b82811115611350578251825591602001919060010190611335565b5061135c92915061148c565b5090565b6040518060200160405280606081525090565b60405180606001604052806000815260200160608152602001606081525090565b604051806040016040528060008152602001606081525090565b604051806101000160405280600015158152602001600081526020016000815260200160008152602001600081526020016000815260200160008152602001600081525090565b60405180608001604052806000151581526020016060815260200160008152602001606081525090565b60405180610100016040528060008152602001600081526020016060815260200160008152602001600081526020016000815260200160008152602001600081525090565b6040518060800160405280600081526020016060815260200160608152602001600081525090565b6103e991905b8082111561135c5760008155600101611492565b80356114b18161214a565b92915050565b80356114b181612161565b600082601f8301126114d357600080fd5b81356114e66114e182612093565b61206c565b9150808252602083016020830185838301111561150257600080fd5b61150d838284612108565b50505092915050565b60006020828403121561152857600080fd5b600061153484846114a6565b949350505050565b60006020828403121561154e57600080fd5b813567ffffffffffffffff81111561156557600080fd5b611534848285016114c2565b6000806040838503121561158457600080fd5b823567ffffffffffffffff81111561159b57600080fd5b6115a7858286016114c2565b925050602083013567ffffffffffffffff8111156115c457600080fd5b6115d0858286016114c2565b9150509250929050565b6000602082840312156115ec57600080fd5b600061153484846114b7565b6000806000806080858703121561160e57600080fd5b600061161a87876114b7565b945050602061162b878288016114b7565b935050604061163c878288016114b7565b925050606061164d878288016114a6565b91505092959194509250565b600061166583836116a4565b505060200190565b60006116798383611b9e565b9392505050565b60006116798383611ce7565b60006116798383611d43565b60006116798383611da6565b6116ad816120df565b82525050565b60006116be826120cd565b6116c881856120d1565b93506116d3836120bb565b8060005b838110156117015781516116eb8882611659565b97506116f6836120bb565b9250506001016116d7565b509495945050505050565b6000611717826120cd565b61172181856120d1565b935083602082028501611733856120bb565b8060005b8581101561176d5784840389528151611750858261166d565b945061175b836120bb565b60209a909a0199925050600101611737565b5091979650505050505050565b6000611785826120cd565b61178f81856120d1565b9350836020820285016117a1856120bb565b8060005b8581101561176d57848403895281516117be8582611680565b94506117c9836120bb565b60209a909a01999250506001016117a5565b60006117e6826120cd565b6117f081856120d1565b935083602082028501611802856120bb565b8060005b8581101561176d578484038952815161181f858261168c565b945061182a836120bb565b60209a909a0199925050600101611806565b6000611847826120cd565b61185181856120d1565b935083602082028501611863856120bb565b8060005b8581101561176d57848403895281516118808582611698565b945061188b836120bb565b60209a909a0199925050600101611867565b6116ad816120ea565b6116ad816103e9565b60006118ba826120cd565b6118c481856120d1565b93506118d4818560208601612114565b6118dd81612140565b9093019392505050565b60006118f2826120cd565b6118fc81856120da565b935061190c818560208601612114565b9290920192915050565b600081546001811660008114611933576001811461195657611995565b607f600283041661194481876120da565b60ff1984168152955085019250611995565b6002820461196481876120da565b955061196f856120c1565b60005b8281101561198e57815488820152600190910190602001611972565b5050850192505b505092915050565b60006119aa6010836120d1565b7f496e76616c696420454555207479706500000000000000000000000000000000815260200192915050565b60006119e36011836120d1565b7f52657374726963746564206d6574686f64000000000000000000000000000000815260200192915050565b6000611a1c6021836120d1565b7f43757272656e63792074797065206e616d6520616c726561647920657869737481527f7300000000000000000000000000000000000000000000000000000000000000602082015260400192915050565b6000611a7b602a836120d1565b7f436172626f6e20776569676874206d75737420646976696465206576656e6c7981527f20696e746f204545557300000000000000000000000000000000000000000000602082015260400192915050565b6000611ada6029836120d1565b7f4d696e696d756d206f6e65206d657472696320746f6e206f6620636172626f6e81527f2072657175697265640000000000000000000000000000000000000000000000602082015260400192915050565b6000611b39601c836120d1565b7f4545552074797065206e616d6520616c72656164792065786973747300000000815260200192915050565b6000611b726018836120d1565b7f4d696e696d756d206f6e65204545552072657175697265640000000000000000815260200192915050565b80516000906060840190611bb285826118a6565b5060208301518482036020860152611bca82826118af565b91505060408301518482036040860152611be482826118af565b95945050505050565b805160a0830190611bfe84826118a6565b506020820151611c1160208501826118a6565b506040820151611c2460408501826118a6565b506060820151611c3760608501826118a6565b506080820151611c4a60808501826118a6565b50505050565b8051610100830190611c62848261189d565b506020820151611c7560208501826118a6565b506040820151611c8860408501826118a6565b506060820151611c9b60608501826118a6565b506080820151611cae60808501826118a6565b5060a0820151611cc160a08501826118a6565b5060c0820151611cd460c08501826118a6565b5060e0820151611c4a60e08501826118a6565b80516000906040840190611cfb85826118a6565b5060208301518482036020860152611be482826118af565b8051602080845260009190840190611be4828261170c565b8051602080845260009190840190611be4828261177a565b80516000906080840190611d5785826118a6565b5060208301518482036020860152611d6f82826118af565b91505060408301518482036040860152611d8982826118af565b9150506060830151611d9e60608601826118a6565b509392505050565b8051600090610100840190611dbb85826118a6565b506020830151611dce60208601826118a6565b5060408301518482036040860152611de682826118af565b9150506060830151611dfb60608601826118a6565b506080830151611e0e60808601826118a6565b5060a0830151611e2160a08601826118a6565b5060c0830151611e3460c08601826118a6565b5060e0830151611d9e60e08601826118a6565b80516000906080840190611e5b858261189d565b5060208301518482036020860152611e73828261183c565b9150506040830151611e8860408601826118a6565b5060608301518482036060860152611be482826117db565b600061167982846118e7565b60006116798284611916565b6020808252810161167981846116b3565b602080825281016114b18161199d565b602080825281016114b1816119d6565b602080825281016114b181611a0f565b602080825281016114b181611a6e565b602080825281016114b181611acd565b602080825281016114b181611b2c565b602080825281016114b181611b65565b60a081016114b18284611bed565b61010081016114b18284611c50565b602080825281016116798184611d13565b602080825281016116798184611d2b565b602080825281016116798184611e47565b602081016114b182846118a6565b60408101611fa582856118a6565b818103602083015261153481846118af565b60608101611fc582866118a6565b8181036020830152611fd781856118af565b90508181036040830152611be481846118af565b60a08101611ff982886118a6565b61200660208301876118a6565b61201360408301866116a4565b61202060608301856118a6565b61202d60808301846118a6565b9695505050505050565b60a0810161204582886118a6565b61205260208301876118a6565b61205f60408301866118a6565b61202060608301856116a4565b60405181810167ffffffffffffffff8111828210171561208b57600080fd5b604052919050565b600067ffffffffffffffff8211156120aa57600080fd5b506020601f91909101601f19160190565b60200190565b60009081526020902090565b5190565b90815260200190565b919050565b60006114b1826120ef565b151590565b73ffffffffffffffffffffffffffffffffffffffff1690565b82818337506000910152565b60005b8381101561212f578181015183820152602001612117565b83811115611c4a5750506000910152565b601f01601f191690565b612153816120df565b811461215e57600080fd5b50565b612153816103e956fe08c379a000000000000000000000000000000000000000000000000000000000a265627a7a723058200b97a4e79565c7a639af70234e952eaebcdf79b6d1f49cf63b9bca27391aacd26c6578706572696d656e74616cf50037",
  "source": "pragma solidity 0.5.8;\r\npragma experimental ABIEncoderV2;\r\n\r\nimport \"./Owned.sol\";\r\nimport \"./AcLedger.sol\";\r\n\r\ncontract EeuMintable is Owned, AcLedger {\r\n    event MintedEeuBatch(uint256 id, uint256 eeuTypeId, address batchOwner, uint256 qtyKG, uint256 qtyEeus);\r\n    event MintedEeu(uint256 id, uint256 batchId, uint256 eeuTypeId, address ledgerOwner, uint256 mintedKG);\r\n\r\n    /**\r\n     * @dev Mints and assigns initial ownership of a new EEU batch\r\n     * @param eeuTypeId The EEU-type for the batch\r\n     * @param qtyKG The KG quanity of carbon to mint across the EEUs\r\n     * @param qtyEeus The quantity of EEUs to mint - recommended, due to memory & gas cost, always set to 1\r\n     * @param batchOwner The ledger owner to assign the minted EEUs to\r\n     */\r\n    function mintEeuBatch(uint256 eeuTypeId, int256 qtyKG, int256 qtyEeus, address batchOwner) public {\r\n        require(msg.sender == owner, \"Restricted method\");\r\n        require(eeuTypeId >= 0 && eeuTypeId < _count_eeuTypes, \"Invalid EEU type\");\r\n        require(qtyEeus >= 1, \"Minimum one EEU required\");\r\n        require(qtyKG >= 1000, \"Minimum one metric ton of carbon required\");\r\n        require(qtyKG % qtyEeus == 0, \"Carbon weight must divide evenly into EEUs\");\r\n\r\n        // create new EEU batch\r\n        EeuBatch memory newBatch = EeuBatch({\r\n                         id: _batchCurMaxId + 1,\r\n            mintedTimestamp: block.timestamp,\r\n                  eeuTypeId: eeuTypeId,\r\n                   mintedKG: uint256(qtyKG),\r\n                   burnedKG: 0\r\n        });\r\n        //_eeuBatches.push(newBatch);\r\n        _eeuBatches[newBatch.id] = newBatch;\r\n        _batchCurMaxId++;\r\n        emit MintedEeuBatch(newBatch.id, eeuTypeId, batchOwner, uint256(qtyKG), uint256(qtyEeus));\r\n\r\n        // create ledger entry as required\r\n        if (_ledger[batchOwner].exists == false) {\r\n            _ledger[batchOwner] = Ledger({\r\n                  exists: true\r\n            });\r\n            _ledgerOwners.push(batchOwner);\r\n        }\r\n\r\n        // mint & assign EEUs\r\n        for (int256 ndx = 0; ndx < qtyEeus; ndx++) {\r\n            uint256 newId = _eeuCurMaxId + 1 + uint256(ndx);\r\n\r\n            // mint EEU\r\n            uint256 eeuKG = uint256(qtyKG) / uint256(qtyEeus);\r\n            _eeus_batchId[newId] = newBatch.id;\r\n            _eeus_mintedKG[newId] = eeuKG;\r\n            _eeus_KG[newId] = eeuKG;\r\n            _eeus_mintedTimestamp[newId] = block.timestamp;\r\n\r\n            emit MintedEeu(newId, newBatch.id, eeuTypeId, batchOwner, eeuKG);\r\n\r\n            // assign\r\n            _ledger[batchOwner].eeuType_eeuIds[eeuTypeId].push(newId);\r\n\r\n            // maintain fast EEU ownership lookup - by keccak256(ledgerOwner||eeuId)\r\n            // not currently used (was used when burning by eeuId)\r\n            //_ownsEeuId[keccak256(abi.encodePacked(batchOwner, newId))] = true;\r\n        }\r\n        _ledger[batchOwner].eeuType_sumKG[eeuTypeId] += uint256(qtyKG);\r\n\r\n        _eeuCurMaxId += uint256(qtyEeus);\r\n        _eeu_totalMintedKG += uint256(qtyKG);\r\n    }\r\n\r\n    /**\r\n     * @dev Returns the total global number of EEUs minted\r\n     */\r\n    function getEeuMintedCount() external view returns (uint256) {\r\n        require(msg.sender == owner, \"Restricted method\");\r\n        return _eeuCurMaxId; // 1-based\r\n    }\r\n\r\n    /**\r\n     * @dev Returns the total global tonnage of carbon minted\r\n     */\r\n    function getKgCarbonMinted() external view returns (uint256) {\r\n        require(msg.sender == owner, \"Restricted method\");\r\n        return _eeu_totalMintedKG;\r\n    }\r\n}\r\n",
  "sourcePath": "C:\\ac\\src\\ac-monorepo\\packages\\erc20\\contracts\\AcMaster\\EeuMintable.sol",
  "compiler": {
    "name": "solc",
    "version": "0.5.8+commit.23d335f2.Emscripten.clang"
  },
  "schemaVersion": "3.0.11",
  "updatedAt": "2019-08-09T20:27:42.910Z",
  "devdoc": {
    "methods": {
      "addCcyType(string,string)": {
        "details": "Adds a new currency type\r",
        "params": {
          "name": "The new currency type name\r",
          "unit": "The base unit of the new currency type\r"
        }
      },
      "addEeuType(string)": {
        "details": "Adds a new EEU type\r",
        "params": {
          "name": "The new EEU type name\r"
        }
      },
      "getCcyTypes()": {
        "details": "Returns current currency types\r"
      },
      "getEeu(uint256)": {
        "details": "Returns an EEU by ID\r"
      },
      "getEeuBatch(uint256)": {
        "details": "Returns an EEU batch by ID\r"
      },
      "getEeuBatchCount()": {
        "details": "Returns the global EEU batch count\r"
      },
      "getEeuMintedCount()": {
        "details": "Returns the total global number of EEUs minted\r"
      },
      "getEeuTypes()": {
        "details": "Returns current EEU types\r"
      },
      "getKgCarbonMinted()": {
        "details": "Returns the total global tonnage of carbon minted\r"
      },
      "getLedgerEntry(address)": {
        "details": "Returns the ledger entry for a single account\r"
      },
      "getLedgerOwners()": {
        "details": "Returns all accounts in the ledger\r"
      },
      "mintEeuBatch(uint256,int256,int256,address)": {
        "details": "Mints and assigns initial ownership of a new EEU batch\r",
        "params": {
          "batchOwner": "The ledger owner to assign the minted EEUs to\r",
          "eeuTypeId": "The EEU-type for the batch\r",
          "qtyEeus": "The quantity of EEUs to mint - recommended, due to memory & gas cost, always set to 1\r",
          "qtyKG": "The KG quanity of carbon to mint across the EEUs\r"
        }
      }
    }
  },
  "userdoc": {
    "methods": {}
  }
}