{
  "contractName": "EeuMintable",
  "abi": [
    {
      "constant": true,
      "inputs": [
        {
          "name": "id",
          "type": "uint256"
        }
      ],
      "name": "getEeuBatch",
      "outputs": [
        {
          "components": [
            {
              "name": "id",
              "type": "uint256"
            },
            {
              "name": "mintedTimestamp",
              "type": "uint256"
            },
            {
              "name": "eeuTypeId",
              "type": "uint256"
            },
            {
              "name": "mintedKG",
              "type": "uint256"
            },
            {
              "name": "burnedKG",
              "type": "uint256"
            }
          ],
          "name": "",
          "type": "tuple"
        }
      ],
      "payable": false,
      "stateMutability": "view",
      "type": "function"
    },
    {
      "constant": false,
      "inputs": [
        {
          "name": "name",
          "type": "string"
        },
        {
          "name": "unit",
          "type": "string"
        }
      ],
      "name": "addCcyType",
      "outputs": [],
      "payable": false,
      "stateMutability": "nonpayable",
      "type": "function"
    },
    {
      "constant": true,
      "inputs": [],
      "name": "getEeuBatchCount",
      "outputs": [
        {
          "name": "",
          "type": "uint256"
        }
      ],
      "payable": false,
      "stateMutability": "view",
      "type": "function"
    },
    {
      "constant": true,
      "inputs": [],
      "name": "getCcyTypes",
      "outputs": [
        {
          "components": [
            {
              "components": [
                {
                  "name": "id",
                  "type": "uint256"
                },
                {
                  "name": "name",
                  "type": "string"
                },
                {
                  "name": "unit",
                  "type": "string"
                }
              ],
              "name": "ccyTypes",
              "type": "tuple[]"
            }
          ],
          "name": "",
          "type": "tuple"
        }
      ],
      "payable": false,
      "stateMutability": "view",
      "type": "function"
    },
    {
      "constant": false,
      "inputs": [
        {
          "name": "name",
          "type": "string"
        }
      ],
      "name": "addEeuType",
      "outputs": [],
      "payable": false,
      "stateMutability": "nonpayable",
      "type": "function"
    },
    {
      "constant": true,
      "inputs": [],
      "name": "getEeuTypes",
      "outputs": [
        {
          "components": [
            {
              "components": [
                {
                  "name": "id",
                  "type": "uint256"
                },
                {
                  "name": "name",
                  "type": "string"
                }
              ],
              "name": "eeuTypes",
              "type": "tuple[]"
            }
          ],
          "name": "",
          "type": "tuple"
        }
      ],
      "payable": false,
      "stateMutability": "view",
      "type": "function"
    },
    {
      "constant": true,
      "inputs": [
        {
          "name": "id",
          "type": "uint256"
        }
      ],
      "name": "getEeu",
      "outputs": [
        {
          "components": [
            {
              "name": "exists",
              "type": "bool"
            },
            {
              "name": "id",
              "type": "uint256"
            },
            {
              "name": "mintedKG",
              "type": "uint256"
            },
            {
              "name": "KG",
              "type": "uint256"
            },
            {
              "name": "batchId",
              "type": "uint256"
            }
          ],
          "name": "",
          "type": "tuple"
        }
      ],
      "payable": false,
      "stateMutability": "view",
      "type": "function"
    },
    {
      "constant": true,
      "inputs": [
        {
          "name": "account",
          "type": "address"
        }
      ],
      "name": "getLedgerEntry",
      "outputs": [
        {
          "components": [
            {
              "name": "exists",
              "type": "bool"
            },
            {
              "components": [
                {
                  "name": "eeuId",
                  "type": "uint256"
                },
                {
                  "name": "eeuTypeId",
                  "type": "uint256"
                },
                {
                  "name": "eeuTypeName",
                  "type": "string"
                },
                {
                  "name": "batchId",
                  "type": "uint256"
                },
                {
                  "name": "eeuKG",
                  "type": "uint256"
                }
              ],
              "name": "eeus",
              "type": "tuple[]"
            },
            {
              "name": "eeu_sumKG",
              "type": "uint256"
            },
            {
              "components": [
                {
                  "name": "typeId",
                  "type": "uint256"
                },
                {
                  "name": "name",
                  "type": "string"
                },
                {
                  "name": "unit",
                  "type": "string"
                },
                {
                  "name": "balance",
                  "type": "int256"
                }
              ],
              "name": "ccys",
              "type": "tuple[]"
            }
          ],
          "name": "",
          "type": "tuple"
        }
      ],
      "payable": false,
      "stateMutability": "view",
      "type": "function"
    },
    {
      "constant": true,
      "inputs": [],
      "name": "getLedgerOwners",
      "outputs": [
        {
          "name": "",
          "type": "address[]"
        }
      ],
      "payable": false,
      "stateMutability": "view",
      "type": "function"
    },
    {
      "anonymous": false,
      "inputs": [
        {
          "indexed": false,
          "name": "batchId",
          "type": "uint256"
        },
        {
          "indexed": false,
          "name": "eeuTypeId",
          "type": "uint256"
        },
        {
          "indexed": false,
          "name": "batchOwner",
          "type": "address"
        },
        {
          "indexed": false,
          "name": "qtyKG",
          "type": "uint256"
        },
        {
          "indexed": false,
          "name": "qtyEeus",
          "type": "uint256"
        }
      ],
      "name": "MintedEeuBatch",
      "type": "event"
    },
    {
      "anonymous": false,
      "inputs": [
        {
          "indexed": false,
          "name": "eeuId",
          "type": "uint256"
        },
        {
          "indexed": false,
          "name": "batchId",
          "type": "uint256"
        },
        {
          "indexed": false,
          "name": "eeuTypeId",
          "type": "uint256"
        },
        {
          "indexed": false,
          "name": "ledgerOwner",
          "type": "address"
        },
        {
          "indexed": false,
          "name": "mintedKG",
          "type": "uint256"
        }
      ],
      "name": "MintedEeu",
      "type": "event"
    },
    {
      "anonymous": false,
      "inputs": [
        {
          "indexed": false,
          "name": "id",
          "type": "uint256"
        },
        {
          "indexed": false,
          "name": "name",
          "type": "string"
        },
        {
          "indexed": false,
          "name": "unit",
          "type": "string"
        }
      ],
      "name": "AddedCcyType",
      "type": "event"
    },
    {
      "anonymous": false,
      "inputs": [
        {
          "indexed": false,
          "name": "id",
          "type": "uint256"
        },
        {
          "indexed": false,
          "name": "name",
          "type": "string"
        }
      ],
      "name": "AddedEeuType",
      "type": "event"
    },
    {
      "constant": false,
      "inputs": [
        {
          "name": "eeuTypeId",
          "type": "uint256"
        },
        {
          "name": "qtyKG",
          "type": "int256"
        },
        {
          "name": "qtyEeus",
          "type": "int256"
        },
        {
          "name": "batchOwner",
          "type": "address"
        }
      ],
      "name": "mintEeuBatch",
      "outputs": [],
      "payable": false,
      "stateMutability": "nonpayable",
      "type": "function"
    },
    {
      "constant": true,
      "inputs": [],
      "name": "getEeuMintedCount",
      "outputs": [
        {
          "name": "",
          "type": "uint256"
        }
      ],
      "payable": false,
      "stateMutability": "view",
      "type": "function"
    },
    {
      "constant": true,
      "inputs": [],
      "name": "getKgCarbonMinted",
      "outputs": [
        {
          "name": "",
          "type": "uint256"
        }
      ],
      "payable": false,
      "stateMutability": "view",
      "type": "function"
    }
  ],
  "bytecode": "0x60008054600160a060020a0319163317815560c0604052600660808190527f554e46434343000000000000000000000000000000000000000000000000000060a0908152918052600160205262000078917fa6eef7e35abe7026729641147f7915573c7e97b47efa546f5f6e3230263bcb499162000308565b5060408051808201909152600381527f564353000000000000000000000000000000000000000000000000000000000060208083019182526001600081905290529051620000e8917fcc69885fda6bcc1a4ace058b4a62bf5e179ea78fd58a1ccd71c22cc9b688792f9162000308565b50600280556040805160608101825260008082528251808401845260038082527f555344000000000000000000000000000000000000000000000000000000000060208381019190915280850192835285518087018752600581527f63656e7473000000000000000000000000000000000000000000000000000000818301529585019590955291805290835281517f3617319a054d772f909f7c479a2cebe5066e836a939412e32403c99029b92eff9081559051805192939192620001d2927f3617319a054d772f909f7c479a2cebe5066e836a939412e32403c99029b92f0092019062000308565b5060408201518051620001f091600284019160209091019062000308565b50506040805160608101825260018082528251808401845260038082527f4554480000000000000000000000000000000000000000000000000000000000602083810191909152808501928352855180870187528281527f5765690000000000000000000000000000000000000000000000000000000000818301529585019590955260009290925290835281517fa15bc60c955c405d20d9149c709e2460f1c2d9a497496a7f46004d1772c3054c908155905180519294509092620002dc927fa15bc60c955c405d20d9149c709e2460f1c2d9a497496a7f46004d1772c3054d929091019062000308565b5060408201518051620002fa91600284019160209091019062000308565b5050600260045550620003ad565b828054600181600116156101000203166002900490600052602060002090601f016020900481019282601f106200034b57805160ff19168380011785556200037b565b828001600101855582156200037b579182015b828111156200037b5782518255916020019190600101906200035e565b50620003899291506200038d565b5090565b620003aa91905b8082111562000389576000815560010162000394565b90565b611ed180620003bd6000396000f3fe608060405234801561001057600080fd5b50600436106100d1576000357c01000000000000000000000000000000000000000000000000000000009004806370f753de1161008e57806370f753de14610159578063963030df1461016c5780639ce9a4a614610181578063a89a8884146101a1578063ba0138cb146101c1578063bcc376c6146101c9576100d1565b80630722a4ee146100d65780630834e864146100ff57806319b67615146101145780633846d448146101295780634dc26ae81461013157806351664b2614610146575b600080fd5b6100e96100e43660046113d5565b6101de565b6040516100f69190611c74565b60405180910390f35b61011261010d36600461136c565b610235565b005b61011c6103ae565b6040516100f69190611cc3565b61011c6103b5565b6101396103ea565b6040516100f69190611c90565b610112610154366004611337565b6105d4565b6101126101673660046113f3565b6106fb565b610174610a03565b6040516100f69190611ca1565b61019461018f3660046113d5565b610b21565b6040516100f69190611c82565b6101b46101af366004611311565b610b7d565b6040516100f69190611cb2565b61011c611015565b6101d161104a565b6040516100f69190611bf3565b6101e66110da565b50600090815260056020908152604091829020825160a0810184528154815260018201549281019290925260028101549282019290925260038201546060820152600490910154608082015290565b600054600160a060020a0316331461026b5760405160e560020a62461bcd02815260040161026290611c14565b60405180910390fd5b60005b6004548110156102fd57826040516020016102899190611bdb565b60408051601f1981840301815282825280516020918201206000858152600383529290922091926102be926001019101611be7565b6040516020818303038152906040528051906020012014156102f55760405160e560020a62461bcd02815260040161026290611c34565b60010161026e565b506040805160608101825260045480825260208083018681528385018690526000928352600382529390912082518155925180519293926103449260018501920190611109565b5060408201518051610360916002840191602090910190611109565b509050507f41c4a4be5d1fed810ab0ace2ffe78022538a72356773c24ed010e06bdf6454b7600454838360405161039993929190611cf1565b60405180910390a15050600480546001019055565b6006545b90565b60008054600160a060020a031633146103e35760405160e560020a62461bcd02815260040161026290611c14565b50600d5490565b6103f2611187565b606060045460405190808252806020026020018201604052801561043057816020015b61041d61119a565b8152602001906001900390816104155790505b50905060005b6004548110156105b757604080516060810182526000838152600360208181528483208054855292869052908152600191820180548551600294821615610100026000190190911693909304601f8101839004830284018301909552848352929381850193918301828280156104ed5780601f106104c2576101008083540402835291602001916104ed565b820191906000526020600020905b8154815290600101906020018083116104d057829003601f168201915b50505091835250506000838152600360209081526040918290206002908101805484516001821615610100026000190190911692909204601f810184900484028301840190945283825293820193909290918301828280156105905780601f1061056557610100808354040283529160200191610590565b820191906000526020600020905b81548152906001019060200180831161057357829003601f168201915b50505050508152508282815181106105a457fe5b6020908102919091010152600101610436565b506105c0611187565b506040805160208101909152908152905090565b600054600160a060020a031633146106015760405160e560020a62461bcd02815260040161026290611c14565b60005b600254811015610690578160405160200161061f9190611bdb565b60408051601f198184030181528282528051602091820120600085815260018352929092209192610651929101611be7565b6040516020818303038152906040528051906020012014156106885760405160e560020a62461bcd02815260040161026290611c64565b600101610604565b50600254600090815260016020908152604090912082516106b392840190611109565b507ff42a31d05ee5f17e0f159b94b9402293e9cf2265c806b4a55168aeaa3fe275e2600254826040516106e7929190611cd1565b60405180910390a150600280546001019055565b600054600160a060020a031633146107285760405160e560020a62461bcd02815260040161026290611c14565b600254841061074c5760405160e560020a62461bcd02815260040161026290611c04565b8160011461076f5760405160e560020a62461bcd02815260040161026290611c24565b6103e88312156107945760405160e560020a62461bcd02815260040161026290611c54565b81838161079d57fe5b07156107be5760405160e560020a62461bcd02815260040161026290611c44565b6107c66110da565b506040805160a0810182526006805460019081018084524260208086019182528587018b8152606087018b81526000608089018181529581526005909352918890208751808255935181870155905160028201559051600382015591516004909201919091558254909101909155915190917f3b2a5f1232ad8fb6334d75c56a235d50209dc23e6b0b51325b2e98e17a6ffc3d9161086c91908890869089908990611d25565b60405180910390a1600160a060020a0382166000908152600e602052604090205460ff166109165760408051602080820183526001808352600160a060020a0386166000818152600e9093529382209251835460ff191690151517909255600f8054928301815590527f8d1108e10bcb7c27dddfc02ed9d693a074039d026cf4ea4240b40f7d581ac80201805473ffffffffffffffffffffffffffffffffffffffff191690911790555b60005b838112156109ea57600d548101600101600085878161093457fe5b8551600085815260076020908152604080832093909355600881528282209490930493849055600990925290819020829055855190519192507fbdf1b0fbadd676a593dc51c25399111b5cf1795fd1315c7545271c18c1b265cd916109a09185918c908a908790611d71565b60405180910390a150600160a060020a0384166000908152600e602090815260408083208a8452600190810183529083208054808301825590845291909220019190915501610919565b5050600d805490920190915550600a8054909101905550565b610a0b611187565b6060600254604051908082528060200260200182016040528015610a4957816020015b610a366111bb565b815260200190600190039081610a2e5790505b50905060005b6002548110156105b7576040805180820182528281526000838152600160208181529184902080548551600293821615610100026000190190911692909204601f81018490048402830184019095528482529293828501939192830182828015610afa5780601f10610acf57610100808354040283529160200191610afa565b820191906000526020600020905b815481529060010190602001808311610add57829003601f168201915b5050505050815250828281518110610b0e57fe5b6020908102919091010152600101610a4f565b610b296111d5565b506040805160a0810182526000838152600760208181528483205480151585528185018790528684526008825285842054858701528684526009825294832054606085015294909152909252608082015290565b610b85611206565b606080600080805b600254811015610bcc57600160a060020a0387166000908152600e60209081526040808320848452600190810190925290912054929092019101610b8d565b5080604051908082528060200260200182016040528015610c0757816020015b610bf4611230565b815260200190600190039081610bec5790505b5093506000805b600254811015610dc757600160a060020a0388166000908152600e60209081526040808320848452600101825291829020805483518184028101840190945280845260609392830182828015610c8357602002820191906000526020600020905b815481526020019060010190808311610c6f575b50939450600093505050505b8151811015610dbd576000828281518110610ca657fe5b602090810291909101810151600081815260098352604080822054815160a0810183528481528086018a905289845260018087529383902080548451600296821615610100026000190190911695909504601f810188900488028601880185528086529d9092019c94965094918501939091830182828015610d695780601f10610d3e57610100808354040283529160200191610d69565b820191906000526020600020905b815481529060010190602001808311610d4c57829003601f168201915b5050509183525050600083815260076020908152604080832054828501528583526009909152908190205491015289518a9087908110610da557fe5b60209081029190910101525060019384019301610c8f565b5050600101610c0e565b50600454604051908082528060200260200182016040528015610e0457816020015b610df161125f565b815260200190600190039081610de95790505b50935060005b600454811015610fc5576040518060800160405280828152602001600360008481526020019081526020016000206001018054600181600116156101000203166002900480601f016020809104026020016040519081016040528092919081815260200182805460018160011615610100020316600290048015610ecf5780601f10610ea457610100808354040283529160200191610ecf565b820191906000526020600020905b815481529060010190602001808311610eb257829003601f168201915b50505091835250506000838152600360209081526040918290206002908101805484516001821615610100026000190190911692909204601f81018490048402830184019094528382529382019390929091830182828015610f725780601f10610f4757610100808354040283529160200191610f72565b820191906000526020600020905b815481529060010190602001808311610f5557829003601f168201915b5050509183525050600160a060020a038a166000908152600e602090815260408083208684526002018252909120549101528551869083908110610fb257fe5b6020908102919091010152600101610e0a565b50610fce611206565b505060408051608081018252600160a060020a0388166000908152600e6020908152908390205460ff16151582528101959095528401919091525060608201529050919050565b60008054600160a060020a031633146110435760405160e560020a62461bcd02815260040161026290611c14565b50600a5490565b600054606090600160a060020a0316331461107a5760405160e560020a62461bcd02815260040161026290611c14565b600f8054806020026020016040519081016040528092919081815260200182805480156110d057602002820191906000526020600020905b8154600160a060020a031681526001909101906020018083116110b2575b5050505050905090565b6040518060a0016040528060008152602001600081526020016000815260200160008152602001600081525090565b828054600181600116156101000203166002900490600052602060002090601f016020900481019282601f1061114a57805160ff1916838001178555611177565b82800160010185558215611177579182015b8281111561117757825182559160200191906001019061115c565b50611183929150611287565b5090565b6040518060200160405280606081525090565b60405180606001604052806000815260200160608152602001606081525090565b604051806040016040528060008152602001606081525090565b6040518060a00160405280600015158152602001600081526020016000815260200160008152602001600081525090565b60405180608001604052806000151581526020016060815260200160008152602001606081525090565b6040518060a0016040528060008152602001600081526020016060815260200160008152602001600081525090565b6040518060800160405280600081526020016060815260200160608152602001600081525090565b6103b291905b80821115611183576000815560010161128d565b80356112ac81611e77565b92915050565b80356112ac81611e8e565b600082601f8301126112ce57600080fd5b81356112e16112dc82611dcd565b611da6565b915080825260208301602083018583830111156112fd57600080fd5b611308838284611e35565b50505092915050565b60006020828403121561132357600080fd5b600061132f84846112a1565b949350505050565b60006020828403121561134957600080fd5b813567ffffffffffffffff81111561136057600080fd5b61132f848285016112bd565b6000806040838503121561137f57600080fd5b823567ffffffffffffffff81111561139657600080fd5b6113a2858286016112bd565b925050602083013567ffffffffffffffff8111156113bf57600080fd5b6113cb858286016112bd565b9150509250929050565b6000602082840312156113e757600080fd5b600061132f84846112b2565b6000806000806080858703121561140957600080fd5b600061141587876112b2565b9450506020611426878288016112b2565b9350506040611437878288016112b2565b9250506060611448878288016112a1565b91505092959194509250565b6000611460838361149f565b505060200190565b60006114748383611999565b9392505050565b60006114748383611a5c565b60006114748383611ab8565b60006114748383611b1b565b6114a881611e19565b82525050565b60006114b982611e07565b6114c38185611e0b565b93506114ce83611df5565b8060005b838110156114fc5781516114e68882611454565b97506114f183611df5565b9250506001016114d2565b509495945050505050565b600061151282611e07565b61151c8185611e0b565b93508360208202850161152e85611df5565b8060005b85811015611568578484038952815161154b8582611468565b945061155683611df5565b60209a909a0199925050600101611532565b5091979650505050505050565b600061158082611e07565b61158a8185611e0b565b93508360208202850161159c85611df5565b8060005b8581101561156857848403895281516115b9858261147b565b94506115c483611df5565b60209a909a01999250506001016115a0565b60006115e182611e07565b6115eb8185611e0b565b9350836020820285016115fd85611df5565b8060005b85811015611568578484038952815161161a8582611487565b945061162583611df5565b60209a909a0199925050600101611601565b600061164282611e07565b61164c8185611e0b565b93508360208202850161165e85611df5565b8060005b85811015611568578484038952815161167b8582611493565b945061168683611df5565b60209a909a0199925050600101611662565b6114a881611e24565b6114a8816103b2565b60006116b582611e07565b6116bf8185611e0b565b93506116cf818560208601611e41565b6116d881611e6d565b9093019392505050565b60006116ed82611e07565b6116f78185611e14565b9350611707818560208601611e41565b9290920192915050565b60008154600181166000811461172e576001811461175157611790565b607f600283041661173f8187611e14565b60ff1984168152955085019250611790565b6002820461175f8187611e14565b955061176a85611dfb565b60005b828110156117895781548882015260019091019060200161176d565b5050850192505b505092915050565b60006117a5601083611e0b565b7f496e76616c696420454555207479706500000000000000000000000000000000815260200192915050565b60006117de601183611e0b565b7f52657374726963746564206d6574686f64000000000000000000000000000000815260200192915050565b6000611817601883611e0b565b7f45786163746c79206f6e65204545552072657175697265640000000000000000815260200192915050565b6000611850602183611e0b565b7f43757272656e63792074797065206e616d6520616c726561647920657869737481527f7300000000000000000000000000000000000000000000000000000000000000602082015260400192915050565b60006118af602a83611e0b565b7f436172626f6e20776569676874206d75737420646976696465206576656e6c7981527f20696e746f204545557300000000000000000000000000000000000000000000602082015260400192915050565b600061190e602983611e0b565b7f4d696e696d756d206f6e65206d657472696320746f6e206f6620636172626f6e81527f2072657175697265640000000000000000000000000000000000000000000000602082015260400192915050565b600061196d601c83611e0b565b7f4545552074797065206e616d6520616c72656164792065786973747300000000815260200192915050565b805160009060608401906119ad85826116a1565b50602083015184820360208601526119c582826116aa565b915050604083015184820360408601526119df82826116aa565b95945050505050565b805160a08301906119f984826116a1565b506020820151611a0c60208501826116a1565b506040820151611a1f60408501826116a1565b506060820151611a3260608501826116a1565b506080820151611a4560808501826116a1565b50505050565b805160a08301906119f98482611698565b80516000906040840190611a7085826116a1565b50602083015184820360208601526119df82826116aa565b80516020808452600091908401906119df8282611507565b80516020808452600091908401906119df8282611575565b80516000906080840190611acc85826116a1565b5060208301518482036020860152611ae482826116aa565b91505060408301518482036040860152611afe82826116aa565b9150506060830151611b1360608601826116a1565b509392505050565b805160009060a0840190611b2f85826116a1565b506020830151611b4260208601826116a1565b5060408301518482036040860152611b5a82826116aa565b9150506060830151611b6f60608601826116a1565b506080830151611b1360808601826116a1565b80516000906080840190611b968582611698565b5060208301518482036020860152611bae8282611637565b9150506040830151611bc360408601826116a1565b50606083015184820360608601526119df82826115d6565b600061147482846116e2565b60006114748284611711565b6020808252810161147481846114ae565b602080825281016112ac81611798565b602080825281016112ac816117d1565b602080825281016112ac8161180a565b602080825281016112ac81611843565b602080825281016112ac816118a2565b602080825281016112ac81611901565b602080825281016112ac81611960565b60a081016112ac82846119e8565b60a081016112ac8284611a4b565b602080825281016114748184611a88565b602080825281016114748184611aa0565b602080825281016114748184611b82565b602081016112ac82846116a1565b60408101611cdf82856116a1565b818103602083015261132f81846116aa565b60608101611cff82866116a1565b8181036020830152611d1181856116aa565b905081810360408301526119df81846116aa565b60a08101611d3382886116a1565b611d4060208301876116a1565b611d4d604083018661149f565b611d5a60608301856116a1565b611d6760808301846116a1565b9695505050505050565b60a08101611d7f82886116a1565b611d8c60208301876116a1565b611d9960408301866116a1565b611d5a606083018561149f565b60405181810167ffffffffffffffff81118282101715611dc557600080fd5b604052919050565b600067ffffffffffffffff821115611de457600080fd5b506020601f91909101601f19160190565b60200190565b60009081526020902090565b5190565b90815260200190565b919050565b60006112ac82611e29565b151590565b600160a060020a031690565b82818337506000910152565b60005b83811015611e5c578181015183820152602001611e44565b83811115611a455750506000910152565b601f01601f191690565b611e8081611e19565b8114611e8b57600080fd5b50565b611e80816103b256fea265627a7a72305820592228f9a40fddfc8ecdc7c8dadf529d1a6d204ae0f2967668498933a8c4faf66c6578706572696d656e74616cf50037",
  "source": "pragma solidity 0.5.8;\npragma experimental ABIEncoderV2;\n\nimport \"./Owned.sol\";\nimport \"./AcLedger.sol\";\n\ncontract EeuMintable is Owned, AcLedger {\n    event MintedEeuBatch(uint256 batchId, uint256 eeuTypeId, address batchOwner, uint256 qtyKG, uint256 qtyEeus);\n    event MintedEeu(uint256 eeuId, uint256 batchId, uint256 eeuTypeId, address ledgerOwner, uint256 mintedKG);\n\n    /**\n     * @dev Mints and assigns initial ownership of a new EEU batch\n     * @param eeuTypeId The EEU-type for the batch\n     * @param qtyKG The KG quanity of carbon to mint across the EEUs\n     * @param qtyEeus The quantity of EEUs to mint - recommended, due to memory & gas cost, always set to 1\n     * @param batchOwner The ledger owner to assign the minted EEUs to\n     */\n    function mintEeuBatch(uint256 eeuTypeId, int256 qtyKG, int256 qtyEeus, address batchOwner) public {\n        require(msg.sender == owner, \"Restricted method\");\n        require(eeuTypeId >= 0 && eeuTypeId < _count_eeuTypes, \"Invalid EEU type\");\n        //require(qtyEeus >= 1, \"Minimum one EEU required\");\n        require(qtyEeus == 1, \"Exactly one EEU required\");\n        require(qtyKG >= 1000, \"Minimum one metric ton of carbon required\");\n        require(qtyKG % qtyEeus == 0, \"Carbon weight must divide evenly into EEUs\");\n\n        // create new EEU batch\n        EeuBatch memory newBatch = EeuBatch({\n                         id: _batchCurMaxId + 1,\n            mintedTimestamp: block.timestamp,\n                  eeuTypeId: eeuTypeId,\n                   mintedKG: uint256(qtyKG),\n                   burnedKG: 0\n        });\n        _eeuBatches[newBatch.id] = newBatch;\n        _batchCurMaxId++;\n        emit MintedEeuBatch(newBatch.id, eeuTypeId, batchOwner, uint256(qtyKG), uint256(qtyEeus));\n\n        // create ledger entry as required\n        if (_ledger[batchOwner].exists == false) {\n            _ledger[batchOwner] = Ledger({\n                  exists: true\n            });\n            _ledgerOwners.push(batchOwner);\n        }\n\n        // mint & assign EEUs\n        for (int256 ndx = 0; ndx < qtyEeus; ndx++) {\n            uint256 newId = _eeuCurMaxId + 1 + uint256(ndx);\n\n            // mint EEU\n            uint256 eeuKG = uint256(qtyKG) / uint256(qtyEeus);\n            _eeus_batchId[newId] = newBatch.id;\n            _eeus_mintedKG[newId] = eeuKG;\n            _eeus_KG[newId] = eeuKG;\n            //_eeus_mintedTimestamp[newId] = block.timestamp;\n\n            emit MintedEeu(newId, newBatch.id, eeuTypeId, batchOwner, eeuKG);\n\n            // assign\n            _ledger[batchOwner].eeuType_eeuIds[eeuTypeId].push(newId);\n\n            // maintain fast EEU ownership lookup - by keccak256(ledgerOwner||eeuId)\n            // not currently used (was used when burning by eeuId)\n            //_ownsEeuId[keccak256(abi.encodePacked(batchOwner, newId))] = true;\n        }\n        //_ledger[batchOwner].eeuType_sumKG[eeuTypeId] += uint256(qtyKG);\n\n        _eeuCurMaxId += uint256(qtyEeus);\n        _eeu_totalMintedKG += uint256(qtyKG);\n    }\n\n    /**\n     * @dev Returns the total global number of EEUs minted\n     */\n    function getEeuMintedCount() external view returns (uint256) {\n        require(msg.sender == owner, \"Restricted method\");\n        return _eeuCurMaxId; // 1-based\n    }\n\n    /**\n     * @dev Returns the total global tonnage of carbon minted\n     */\n    function getKgCarbonMinted() external view returns (uint256) {\n        require(msg.sender == owner, \"Restricted method\");\n        return _eeu_totalMintedKG;\n    }\n}\n",
  "sourcePath": "/Users/dom/ac/ac-monorepo/packages/erc20/contracts/AcMaster/EeuMintable.sol",
  "compiler": {
    "name": "solc",
    "version": "0.5.8+commit.23d335f2.Emscripten.clang"
  },
  "schemaVersion": "3.0.11",
  "updatedAt": "2019-08-15T20:17:20.509Z",
  "devdoc": {
    "methods": {
      "addCcyType(string,string)": {
        "details": "Adds a new currency type",
        "params": {
          "name": "The new currency type name",
          "unit": "The base unit of the new currency type"
        }
      },
      "addEeuType(string)": {
        "details": "Adds a new EEU type",
        "params": {
          "name": "The new EEU type name"
        }
      },
      "getCcyTypes()": {
        "details": "Returns current currency types"
      },
      "getEeu(uint256)": {
        "details": "Returns an EEU by ID"
      },
      "getEeuBatch(uint256)": {
        "details": "Returns an EEU batch by ID"
      },
      "getEeuBatchCount()": {
        "details": "Returns the global EEU batch count"
      },
      "getEeuMintedCount()": {
        "details": "Returns the total global number of EEUs minted"
      },
      "getEeuTypes()": {
        "details": "Returns current EEU types"
      },
      "getKgCarbonMinted()": {
        "details": "Returns the total global tonnage of carbon minted"
      },
      "getLedgerEntry(address)": {
        "details": "Returns the ledger entry for a single account"
      },
      "getLedgerOwners()": {
        "details": "Returns all accounts in the ledger"
      },
      "mintEeuBatch(uint256,int256,int256,address)": {
        "details": "Mints and assigns initial ownership of a new EEU batch",
        "params": {
          "batchOwner": "The ledger owner to assign the minted EEUs to",
          "eeuTypeId": "The EEU-type for the batch",
          "qtyEeus": "The quantity of EEUs to mint - recommended, due to memory & gas cost, always set to 1",
          "qtyKG": "The KG quanity of carbon to mint across the EEUs"
        }
      }
    }
  },
  "userdoc": {
    "methods": {}
  }
}