{
  "contractName": "EeuTradable",
  "abi": [
    {
      "constant": true,
      "inputs": [
        {
          "name": "id",
          "type": "uint256"
        }
      ],
      "name": "getEeuBatch",
      "outputs": [
        {
          "components": [
            {
              "name": "id",
              "type": "uint256"
            },
            {
              "name": "mintedTimestamp",
              "type": "uint256"
            },
            {
              "name": "eeuTypeId",
              "type": "uint256"
            },
            {
              "name": "mintedKG",
              "type": "uint256"
            },
            {
              "name": "burnedKG",
              "type": "uint256"
            }
          ],
          "name": "",
          "type": "tuple"
        }
      ],
      "payable": false,
      "stateMutability": "view",
      "type": "function"
    },
    {
      "constant": false,
      "inputs": [
        {
          "name": "name",
          "type": "string"
        },
        {
          "name": "unit",
          "type": "string"
        }
      ],
      "name": "addCcyType",
      "outputs": [],
      "payable": false,
      "stateMutability": "nonpayable",
      "type": "function"
    },
    {
      "constant": true,
      "inputs": [],
      "name": "getEeuBatchCount",
      "outputs": [
        {
          "name": "",
          "type": "uint256"
        }
      ],
      "payable": false,
      "stateMutability": "view",
      "type": "function"
    },
    {
      "constant": true,
      "inputs": [],
      "name": "getCcyTypes",
      "outputs": [
        {
          "components": [
            {
              "components": [
                {
                  "name": "id",
                  "type": "uint256"
                },
                {
                  "name": "name",
                  "type": "string"
                },
                {
                  "name": "unit",
                  "type": "string"
                }
              ],
              "name": "ccyTypes",
              "type": "tuple[]"
            }
          ],
          "name": "",
          "type": "tuple"
        }
      ],
      "payable": false,
      "stateMutability": "view",
      "type": "function"
    },
    {
      "constant": false,
      "inputs": [
        {
          "name": "name",
          "type": "string"
        }
      ],
      "name": "addEeuType",
      "outputs": [],
      "payable": false,
      "stateMutability": "nonpayable",
      "type": "function"
    },
    {
      "constant": true,
      "inputs": [],
      "name": "getEeuTypes",
      "outputs": [
        {
          "components": [
            {
              "components": [
                {
                  "name": "id",
                  "type": "uint256"
                },
                {
                  "name": "name",
                  "type": "string"
                }
              ],
              "name": "eeuTypes",
              "type": "tuple[]"
            }
          ],
          "name": "",
          "type": "tuple"
        }
      ],
      "payable": false,
      "stateMutability": "view",
      "type": "function"
    },
    {
      "constant": true,
      "inputs": [
        {
          "name": "id",
          "type": "uint256"
        }
      ],
      "name": "getEeu",
      "outputs": [
        {
          "components": [
            {
              "name": "exists",
              "type": "bool"
            },
            {
              "name": "id",
              "type": "uint256"
            },
            {
              "name": "mintedKG",
              "type": "uint256"
            },
            {
              "name": "KG",
              "type": "uint256"
            },
            {
              "name": "batchId",
              "type": "uint256"
            },
            {
              "name": "mintedTimestamp",
              "type": "uint256"
            },
            {
              "name": "splitFromId",
              "type": "uint256"
            },
            {
              "name": "splitToId",
              "type": "uint256"
            }
          ],
          "name": "",
          "type": "tuple"
        }
      ],
      "payable": false,
      "stateMutability": "view",
      "type": "function"
    },
    {
      "constant": true,
      "inputs": [
        {
          "name": "account",
          "type": "address"
        }
      ],
      "name": "getLedgerEntry",
      "outputs": [
        {
          "components": [
            {
              "name": "exists",
              "type": "bool"
            },
            {
              "components": [
                {
                  "name": "eeuId",
                  "type": "uint256"
                },
                {
                  "name": "eeuTypeId",
                  "type": "uint256"
                },
                {
                  "name": "eeuTypeName",
                  "type": "string"
                },
                {
                  "name": "batchId",
                  "type": "uint256"
                },
                {
                  "name": "eeuKG",
                  "type": "uint256"
                },
                {
                  "name": "mintedTimestamp",
                  "type": "uint256"
                },
                {
                  "name": "splitFromId",
                  "type": "uint256"
                },
                {
                  "name": "splitToId",
                  "type": "uint256"
                }
              ],
              "name": "eeus",
              "type": "tuple[]"
            },
            {
              "name": "eeu_sumKG",
              "type": "uint256"
            },
            {
              "components": [
                {
                  "name": "typeId",
                  "type": "uint256"
                },
                {
                  "name": "name",
                  "type": "string"
                },
                {
                  "name": "unit",
                  "type": "string"
                },
                {
                  "name": "balance",
                  "type": "int256"
                }
              ],
              "name": "ccys",
              "type": "tuple[]"
            }
          ],
          "name": "",
          "type": "tuple"
        }
      ],
      "payable": false,
      "stateMutability": "view",
      "type": "function"
    },
    {
      "constant": true,
      "inputs": [],
      "name": "getLedgerOwners",
      "outputs": [
        {
          "name": "",
          "type": "address[]"
        }
      ],
      "payable": false,
      "stateMutability": "view",
      "type": "function"
    },
    {
      "anonymous": false,
      "inputs": [
        {
          "indexed": false,
          "name": "id",
          "type": "uint256"
        },
        {
          "indexed": false,
          "name": "name",
          "type": "string"
        },
        {
          "indexed": false,
          "name": "unit",
          "type": "string"
        }
      ],
      "name": "AddedCcyType",
      "type": "event"
    },
    {
      "anonymous": false,
      "inputs": [
        {
          "indexed": false,
          "name": "id",
          "type": "uint256"
        },
        {
          "indexed": false,
          "name": "name",
          "type": "string"
        }
      ],
      "name": "AddedEeuType",
      "type": "event"
    },
    {
      "constant": false,
      "inputs": [
        {
          "name": "ledger_A",
          "type": "address"
        },
        {
          "name": "ledger_B",
          "type": "address"
        },
        {
          "name": "kg_A",
          "type": "uint256"
        },
        {
          "name": "eeuTypeId_A",
          "type": "uint256"
        },
        {
          "name": "kg_B",
          "type": "uint256"
        },
        {
          "name": "eeuTypeId_B",
          "type": "uint256"
        },
        {
          "name": "ccy_amount_A",
          "type": "int256"
        },
        {
          "name": "ccyTypeId_A",
          "type": "uint256"
        },
        {
          "name": "ccy_amount_B",
          "type": "int256"
        },
        {
          "name": "ccyTypeId_B",
          "type": "uint256"
        }
      ],
      "name": "transfer",
      "outputs": [],
      "payable": false,
      "stateMutability": "nonpayable",
      "type": "function"
    },
    {
      "constant": true,
      "inputs": [
        {
          "name": "ccyTypeId",
          "type": "uint256"
        }
      ],
      "name": "getTotalCcyTransfered",
      "outputs": [
        {
          "name": "",
          "type": "uint256"
        }
      ],
      "payable": false,
      "stateMutability": "view",
      "type": "function"
    },
    {
      "constant": true,
      "inputs": [],
      "name": "getTotalKgTransfered",
      "outputs": [
        {
          "name": "",
          "type": "uint256"
        }
      ],
      "payable": false,
      "stateMutability": "view",
      "type": "function"
    }
  ],
  "bytecode": "0x60008054600160a060020a0319163317815560c0604052600660808190527f554e46434343000000000000000000000000000000000000000000000000000060a0908152918052600160205262000078917fa6eef7e35abe7026729641147f7915573c7e97b47efa546f5f6e3230263bcb499162000308565b5060408051808201909152600381527f564353000000000000000000000000000000000000000000000000000000000060208083019182526001600081905290529051620000e8917fcc69885fda6bcc1a4ace058b4a62bf5e179ea78fd58a1ccd71c22cc9b688792f9162000308565b50600280556040805160608101825260008082528251808401845260038082527f555344000000000000000000000000000000000000000000000000000000000060208381019190915280850192835285518087018752600581527f63656e7473000000000000000000000000000000000000000000000000000000818301529585019590955291805290835281517f3617319a054d772f909f7c479a2cebe5066e836a939412e32403c99029b92eff9081559051805192939192620001d2927f3617319a054d772f909f7c479a2cebe5066e836a939412e32403c99029b92f0092019062000308565b5060408201518051620001f091600284019160209091019062000308565b50506040805160608101825260018082528251808401845260038082527f4554480000000000000000000000000000000000000000000000000000000000602083810191909152808501928352855180870187528281527f5765690000000000000000000000000000000000000000000000000000000000818301529585019590955260009290925290835281517fa15bc60c955c405d20d9149c709e2460f1c2d9a497496a7f46004d1772c3054c908155905180519294509092620002dc927fa15bc60c955c405d20d9149c709e2460f1c2d9a497496a7f46004d1772c3054d929091019062000308565b5060408201518051620002fa91600284019160209091019062000308565b5050600260045550620003ad565b828054600181600116156101000203166002900490600052602060002090601f016020900481019282601f106200034b57805160ff19168380011785556200037b565b828001600101855582156200037b579182015b828111156200037b5782518255916020019190600101906200035e565b50620003899291506200038d565b5090565b620003aa91905b8082111562000389576000815560010162000394565b90565b6126a080620003bd6000396000f3fe608060405234801561001057600080fd5b50600436106100f1576000357c010000000000000000000000000000000000000000000000000000000090048063963030df1161009e578063bcc376c611610078578063bcc376c6146101d9578063e87b886c146101ee578063e9b85fd3146101f6576100f1565b8063963030df146101845780639ce9a4a614610199578063a89a8884146101b9576100f1565b80634dc26ae8116100cf5780634dc26ae81461014957806351664b261461015e5780638de389b614610171576100f1565b80630722a4ee146100f65780630834e8641461011f57806319b6761514610134575b600080fd5b610109610104366004611a71565b610209565b6040516101169190612496565b60405180910390f35b61013261012d366004611a08565b610260565b005b61013c6103f0565b60405161011691906124e6565b6101516103f7565b60405161011691906124b3565b61013261016c3660046119d3565b6105e1565b61013261017f3660046118fa565b61071f565b61018c610aa4565b60405161011691906124c4565b6101ac6101a7366004611a71565b610bc2565b60405161011691906124a4565b6101cc6101c73660046118d4565b610c48565b60405161011691906124d5565b6101e1611162565b60405161011691906123e5565b61013c611211565b61013c610204366004611a71565b611258565b610211611648565b50600090815260056020908152604091829020825160a0810184528154815260018201549281019290925260028101549282019290925260038201546060820152600490910154608082015290565b60005473ffffffffffffffffffffffffffffffffffffffff1633146102a857604051600080516020612647833981519152815260040161029f90612446565b60405180910390fd5b60005b60045481101561033f57826040516020016102c691906123cd565b60408051601f1981840301815282825280516020918201206000858152600383529290922091926102fb9260010191016123d9565b60405160208183030381529060405280519060200120141561033757604051600080516020612647833981519152815260040161029f90612456565b6001016102ab565b506040805160608101825260045480825260208083018681528385018690526000928352600382529390912082518155925180519293926103869260018501920190611677565b50604082015180516103a2916002840191602090910190611677565b509050507f41c4a4be5d1fed810ab0ace2ffe78022538a72356773c24ed010e06bdf6454b760045483836040516103db93929190612514565b60405180910390a15050600480546001019055565b6006545b90565b6103ff6116f5565b606060045460405190808252806020026020018201604052801561043d57816020015b61042a611708565b8152602001906001900390816104225790505b50905060005b6004548110156105c457604080516060810182526000838152600360208181528483208054855292869052908152600191820180548551600294821615610100026000190190911693909304601f8101839004830284018301909552848352929381850193918301828280156104fa5780601f106104cf576101008083540402835291602001916104fa565b820191906000526020600020905b8154815290600101906020018083116104dd57829003601f168201915b50505091835250506000838152600360209081526040918290206002908101805484516001821615610100026000190190911692909204601f8101849004840283018401909452838252938201939092909183018282801561059d5780601f106105725761010080835404028352916020019161059d565b820191906000526020600020905b81548152906001019060200180831161058057829003601f168201915b50505050508152508282815181106105b157fe5b6020908102919091010152600101610443565b506105cd6116f5565b506040805160208101909152908152905090565b60005473ffffffffffffffffffffffffffffffffffffffff16331461062057604051600080516020612647833981519152815260040161029f90612446565b60005b6002548110156106b4578160405160200161063e91906123cd565b60408051601f1981840301815282825280516020918201206000858152600183529290922091926106709291016123d9565b6040516020818303038152906040528051906020012014156106ac57604051600080516020612647833981519152815260040161029f90612486565b600101610623565b50600254600090815260016020908152604090912082516106d792840190611677565b507ff42a31d05ee5f17e0f159b94b9402293e9cf2265c806b4a55168aeaa3fe275e26002548260405161070b9291906124f4565b60405180910390a150600280546001019055565b60005473ffffffffffffffffffffffffffffffffffffffff16331461075e57604051600080516020612647833981519152815260040161029f90612446565b73ffffffffffffffffffffffffffffffffffffffff8a1660009081526011602052604090205460ff1615156001146107b057604051600080516020612647833981519152815260040161029f906123f6565b73ffffffffffffffffffffffffffffffffffffffff891660009081526011602052604090205460ff16151560011461080257604051600080516020612647833981519152815260040161029f90612416565b60008412806108115750600082125b1561083657604051600080516020612647833981519152815260040161029f90612466565b73ffffffffffffffffffffffffffffffffffffffff8a1660009081526011602090815260408083208a845260020190915290205488111561089157604051600080516020612647833981519152815260040161029f90612436565b73ffffffffffffffffffffffffffffffffffffffff891660009081526011602090815260408083208884526002019091529020548611156108ec57604051600080516020612647833981519152815260040161029f90612476565b73ffffffffffffffffffffffffffffffffffffffff8a16600090815260116020908152604080832086845260030190915290205484131561094757604051600080516020612647833981519152815260040161029f90612406565b73ffffffffffffffffffffffffffffffffffffffff891660009081526011602090815260408083208484526003019091529020548213156109a257604051600080516020612647833981519152815260040161029f90612426565b6000841315610a115773ffffffffffffffffffffffffffffffffffffffff808b1660009081526011602081815260408084208885526003908101835281852080548b90039055948e16845291815281832087845290930183528082208054880190556015909252208054850190555b6000821315610a805773ffffffffffffffffffffffffffffffffffffffff808a1660009081526011602081815260408084208685526003908101835281852080548990039055948f16845291815281832085845290930183528082208054860190556015909252208054830190555b610a8c8a8a8a8a6112ab565b610a98898b88886112ab565b50505050505050505050565b610aac6116f5565b6060600254604051908082528060200260200182016040528015610aea57816020015b610ad7611729565b815260200190600190039081610acf5790505b50905060005b6002548110156105c4576040805180820182528281526000838152600160208181529184902080548551600293821615610100026000190190911692909204601f81018490048402830184019095528482529293828501939192830182828015610b9b5780601f10610b7057610100808354040283529160200191610b9b565b820191906000526020600020905b815481529060010190602001808311610b7e57829003601f168201915b5050505050815250828281518110610baf57fe5b6020908102919091010152600101610af0565b610bca611743565b506040805161010081018252600083815260076020908152838220548015158452818401869052858352600882528483205484860152858352600982528483205460608501526080840152848252600a81528382205460a0840152848252600b81528382205460c0840152938152600c90935291205460e082015290565b610c5061178a565b606080600080805b600254811015610ca45773ffffffffffffffffffffffffffffffffffffffff87166000908152601160209081526040808320848452600190810190925290912054929092019101610c58565b5080604051908082528060200260200182016040528015610cdf57816020015b610ccc6117b4565b815260200190600190039081610cc45790505b5093506000805b600254811015610efa5773ffffffffffffffffffffffffffffffffffffffff88166000908152601160209081526040808320848452600101825291829020805483518184028101840190945280845260609392830182828015610d6857602002820191906000526020600020905b815481526020019060010190808311610d54575b50939450600093505050505b8151811015610ef0576000828281518110610d8b57fe5b60200260200101519050600960008281526020019081526020016000205487019650604051806101000160405280828152602001858152602001600160008781526020019081526020016000208054600181600116156101000203166002900480601f016020809104026020016040519081016040528092919081815260200182805460018160011615610100020316600290048015610e6c5780601f10610e4157610100808354040283529160200191610e6c565b820191906000526020600020905b815481529060010190602001808311610e4f57829003601f168201915b505050918352505060008381526007602090815260408083205482850152858352600982528083205481850152858352600a8252808320546060850152858352600b8252808320546080850152858352600c90915290205460a09091015289518a9087908110610ed857fe5b60209081029190910101525060019384019301610d74565b5050600101610ce6565b50600454604051908082528060200260200182016040528015610f3757816020015b610f246117f9565b815260200190600190039081610f1c5790505b50935060005b600454811015611105576040518060800160405280828152602001600360008481526020019081526020016000206001018054600181600116156101000203166002900480601f0160208091040260200160405190810160405280929190818152602001828054600181600116156101000203166002900480156110025780601f10610fd757610100808354040283529160200191611002565b820191906000526020600020905b815481529060010190602001808311610fe557829003601f168201915b50505091835250506000838152600360209081526040918290206002908101805484516001821615610100026000190190911692909204601f810184900484028301840190945283825293820193909290918301828280156110a55780601f1061107a576101008083540402835291602001916110a5565b820191906000526020600020905b81548152906001019060200180831161108857829003601f168201915b505050918352505073ffffffffffffffffffffffffffffffffffffffff8a16600090815260116020908152604080832086845260030182529091205491015285518690839081106110f257fe5b6020908102919091010152600101610f3d565b5061110e61178a565b50506040805160808101825273ffffffffffffffffffffffffffffffffffffffff8816600090815260116020908152908390205460ff16151582528101959095528401919091525060608201529050919050565b60005460609073ffffffffffffffffffffffffffffffffffffffff1633146111a457604051600080516020612647833981519152815260040161029f90612446565b601280548060200260200160405190810160405280929190818152602001828054801561120757602002820191906000526020600020905b815473ffffffffffffffffffffffffffffffffffffffff1681526001909101906020018083116111dc575b5050505050905090565b6000805473ffffffffffffffffffffffffffffffffffffffff16331461125157604051600080516020612647833981519152815260040161029f90612446565b50600f5490565b6000805473ffffffffffffffffffffffffffffffffffffffff16331461129857604051600080516020612647833981519152815260040161029f90612446565b5060009081526015602052604090205490565b6000825b80156116375773ffffffffffffffffffffffffffffffffffffffff808716600090815260116020818152604080842088855260019081018352818520958b16855292825280842088855290920190528120825490919083908690811061131157fe5b600091825260208083209091015480835260098252604080842054600790935290922054919250908186106113fa5784548590600019810190811061135257fe5b906000526020600020015485888154811061136957fe5b6000918252602090912001558454611385866000198301611821565b5073ffffffffffffffffffffffffffffffffffffffff808c1660009081526011602081815260408084208d855260029081018352818520805489900390558954600181018b558a865283862001899055948f1684529181528183208c845290930190925220805483019055948190039461162d565b6000601054600101905081600760008381526020019081526020016000208190555086600860008381526020019081526020016000208190555086600960008381526020019081526020016000208190555042600a60008381526020019081526020016000208190555083600b60008381526020019081526020016000208190555060106000815480929190600101919050555086600960008681526020019081526020016000206000828254039250508190555086600860008681526020019081526020016000206000828254039250508190555080600c60008681526020019081526020016000208190555086601160008e73ffffffffffffffffffffffffffffffffffffffff1673ffffffffffffffffffffffffffffffffffffffff16815260200190815260200160002060020160008b815260200190815260200160002060008282540392505081905550601160008c73ffffffffffffffffffffffffffffffffffffffff1673ffffffffffffffffffffffffffffffffffffffff16815260200190815260200160002060010160008a815260200190815260200160002081908060018154018082558091505090600182039060005260206000200160009091929091909150555086601160008d73ffffffffffffffffffffffffffffffffffffffff1673ffffffffffffffffffffffffffffffffffffffff16815260200190815260200160002060020160008b81526020019081526020016000206000828254019250508190555060009650505b50505050506112af565b5050600f8054909201909155505050565b6040518060a0016040528060008152602001600081526020016000815260200160008152602001600081525090565b828054600181600116156101000203166002900490600052602060002090601f016020900481019282601f106116b857805160ff19168380011785556116e5565b828001600101855582156116e5579182015b828111156116e55782518255916020019190600101906116ca565b506116f192915061184a565b5090565b6040518060200160405280606081525090565b60405180606001604052806000815260200160608152602001606081525090565b604051806040016040528060008152602001606081525090565b604051806101000160405280600015158152602001600081526020016000815260200160008152602001600081526020016000815260200160008152602001600081525090565b60405180608001604052806000151581526020016060815260200160008152602001606081525090565b60405180610100016040528060008152602001600081526020016060815260200160008152602001600081526020016000815260200160008152602001600081525090565b6040518060800160405280600081526020016060815260200160608152602001600081525090565b8154818355818111156118455760008381526020902061184591810190830161184a565b505050565b6103f491905b808211156116f15760008155600101611850565b803561186f81612626565b92915050565b803561186f8161263d565b600082601f83011261189157600080fd5b81356118a461189f8261256f565b612548565b915080825260208301602083018583830111156118c057600080fd5b6118cb8382846125e4565b50505092915050565b6000602082840312156118e657600080fd5b60006118f28484611864565b949350505050565b6000806000806000806000806000806101408b8d03121561191a57600080fd5b60006119268d8d611864565b9a505060206119378d828e01611864565b99505060406119488d828e01611875565b98505060606119598d828e01611875565b975050608061196a8d828e01611875565b96505060a061197b8d828e01611875565b95505060c061198c8d828e01611875565b94505060e061199d8d828e01611875565b9350506101006119af8d828e01611875565b9250506101206119c18d828e01611875565b9150509295989b9194979a5092959850565b6000602082840312156119e557600080fd5b813567ffffffffffffffff8111156119fc57600080fd5b6118f284828501611880565b60008060408385031215611a1b57600080fd5b823567ffffffffffffffff811115611a3257600080fd5b611a3e85828601611880565b925050602083013567ffffffffffffffff811115611a5b57600080fd5b611a6785828601611880565b9150509250929050565b600060208284031215611a8357600080fd5b60006118f28484611875565b6000611a9b8383611ada565b505060200190565b6000611aaf83836120cb565b9392505050565b6000611aaf8383612214565b6000611aaf8383612270565b6000611aaf83836122d3565b611ae3816125bb565b82525050565b6000611af4826125a9565b611afe81856125ad565b9350611b0983612597565b8060005b83811015611b37578151611b218882611a8f565b9750611b2c83612597565b925050600101611b0d565b509495945050505050565b6000611b4d826125a9565b611b5781856125ad565b935083602082028501611b6985612597565b8060005b85811015611ba35784840389528151611b868582611aa3565b9450611b9183612597565b60209a909a0199925050600101611b6d565b5091979650505050505050565b6000611bbb826125a9565b611bc581856125ad565b935083602082028501611bd785612597565b8060005b85811015611ba35784840389528151611bf48582611ab6565b9450611bff83612597565b60209a909a0199925050600101611bdb565b6000611c1c826125a9565b611c2681856125ad565b935083602082028501611c3885612597565b8060005b85811015611ba35784840389528151611c558582611ac2565b9450611c6083612597565b60209a909a0199925050600101611c3c565b6000611c7d826125a9565b611c8781856125ad565b935083602082028501611c9985612597565b8060005b85811015611ba35784840389528151611cb68582611ace565b9450611cc183612597565b60209a909a0199925050600101611c9d565b611ae3816125c6565b611ae3816103f4565b6000611cf0826125a9565b611cfa81856125ad565b9350611d0a8185602086016125f0565b611d138161261c565b9093019392505050565b6000611d28826125a9565b611d3281856125b6565b9350611d428185602086016125f0565b9290920192915050565b600081546001811660008114611d695760018114611d8c57611dcb565b607f6002830416611d7a81876125b6565b60ff1984168152955085019250611dcb565b60028204611d9a81876125b6565b9550611da58561259d565b60005b82811015611dc457815488820152600190910190602001611da8565b5050850192505b505092915050565b6000611de06016836125ad565b7f496e76616c6964206c6564676572206f776e6572204100000000000000000000815260200192915050565b6000611e19602c836125ad565b7f496e73756666696369656e742063757272656e63792068656c64206279206c6581527f64676572206f776e657220410000000000000000000000000000000000000000602082015260400192915050565b6000611e786016836125ad565b7f496e76616c6964206c6564676572206f776e6572204200000000000000000000815260200192915050565b6000611eb1602c836125ad565b7f496e73756666696369656e742063757272656e63792068656c64206279206c6581527f64676572206f776e657220420000000000000000000000000000000000000000602082015260400192915050565b6000611f10602a836125ad565b7f496e73756666696369656e7420636172626f6e2068656c64206279206c65646781527f6572206f776e6572204100000000000000000000000000000000000000000000602082015260400192915050565b6000611f6f6011836125ad565b7f52657374726963746564206d6574686f64000000000000000000000000000000815260200192915050565b6000611fa86021836125ad565b7f43757272656e63792074797065206e616d6520616c726561647920657869737481527f7300000000000000000000000000000000000000000000000000000000000000602082015260400192915050565b60006120076018836125ad565b7f496e76616c69642063757272656e637920616d6f756e74730000000000000000815260200192915050565b6000612040602a836125ad565b7f496e73756666696369656e7420636172626f6e2068656c64206279206c65646781527f6572206f776e6572204200000000000000000000000000000000000000000000602082015260400192915050565b600061209f601c836125ad565b7f4545552074797065206e616d6520616c72656164792065786973747300000000815260200192915050565b805160009060608401906120df8582611cdc565b50602083015184820360208601526120f78282611ce5565b915050604083015184820360408601526121118282611ce5565b95945050505050565b805160a083019061212b8482611cdc565b50602082015161213e6020850182611cdc565b5060408201516121516040850182611cdc565b5060608201516121646060850182611cdc565b5060808201516121776080850182611cdc565b50505050565b805161010083019061218f8482611cd3565b5060208201516121a26020850182611cdc565b5060408201516121b56040850182611cdc565b5060608201516121c86060850182611cdc565b5060808201516121db6080850182611cdc565b5060a08201516121ee60a0850182611cdc565b5060c082015161220160c0850182611cdc565b5060e082015161217760e0850182611cdc565b805160009060408401906122288582611cdc565b50602083015184820360208601526121118282611ce5565b80516020808452600091908401906121118282611b42565b80516020808452600091908401906121118282611bb0565b805160009060808401906122848582611cdc565b506020830151848203602086015261229c8282611ce5565b915050604083015184820360408601526122b68282611ce5565b91505060608301516122cb6060860182611cdc565b509392505050565b80516000906101008401906122e88582611cdc565b5060208301516122fb6020860182611cdc565b50604083015184820360408601526123138282611ce5565b91505060608301516123286060860182611cdc565b50608083015161233b6080860182611cdc565b5060a083015161234e60a0860182611cdc565b5060c083015161236160c0860182611cdc565b5060e08301516122cb60e0860182611cdc565b805160009060808401906123888582611cd3565b50602083015184820360208601526123a08282611c72565b91505060408301516123b56040860182611cdc565b50606083015184820360608601526121118282611c11565b6000611aaf8284611d1d565b6000611aaf8284611d4c565b60208082528101611aaf8184611ae9565b6020808252810161186f81611dd3565b6020808252810161186f81611e0c565b6020808252810161186f81611e6b565b6020808252810161186f81611ea4565b6020808252810161186f81611f03565b6020808252810161186f81611f62565b6020808252810161186f81611f9b565b6020808252810161186f81611ffa565b6020808252810161186f81612033565b6020808252810161186f81612092565b60a0810161186f828461211a565b610100810161186f828461217d565b60208082528101611aaf8184612240565b60208082528101611aaf8184612258565b60208082528101611aaf8184612374565b6020810161186f8284611cdc565b604081016125028285611cdc565b81810360208301526118f28184611ce5565b606081016125228286611cdc565b81810360208301526125348185611ce5565b905081810360408301526121118184611ce5565b60405181810167ffffffffffffffff8111828210171561256757600080fd5b604052919050565b600067ffffffffffffffff82111561258657600080fd5b506020601f91909101601f19160190565b60200190565b60009081526020902090565b5190565b90815260200190565b919050565b600061186f826125cb565b151590565b73ffffffffffffffffffffffffffffffffffffffff1690565b82818337506000910152565b60005b8381101561260b5781810151838201526020016125f3565b838111156121775750506000910152565b601f01601f191690565b61262f816125bb565b811461263a57600080fd5b50565b61262f816103f456fe08c379a000000000000000000000000000000000000000000000000000000000a265627a7a7230582078886926e870bc46fab1d2bcad932128b6f0491444ea1fa6e4bb0756afc0591a6c6578706572696d656e74616cf50037",
  "source": "pragma solidity 0.5.8;\r\npragma experimental ABIEncoderV2;\r\n\r\nimport \"./Owned.sol\";\r\nimport \"./AcLedger.sol\";\r\n\r\ncontract EeuTradable is Owned, AcLedger {\r\n    // events...\r\n\r\n    /**\r\n     * @dev Transfers or trades assets between ledger accounts\r\n     * @dev (allows one-sided transfers, and allows transfers of same asset types)\r\n     * @param ledger_A Ledger owner A\r\n     * @param ledger_B Ledger owner B\r\n     * @param kg_A The KG quantity of carbon to move from A to B\r\n     * @param eeuTypeId_A The EEU type to move from A to B\r\n     * @param kg_B The KG quanity of carbon to move from B to A\r\n     * @param eeuTypeId_B The EEU type to move from A to B\r\n     * @param ccy_amount_A The amount of currency to move from A to B\r\n     * @param ccyTypeId_A The currency type to move from A to B\r\n     * @param ccy_amount_B The amount of currency to move from B to A\r\n     * @param ccyTypeId_B The currency type to move from B to A\r\n     */\r\n    function transfer(\r\n        address ledger_A,\r\n        address ledger_B,\r\n        uint256 kg_A,\r\n        uint256 eeuTypeId_A,\r\n        uint256 kg_B,\r\n        uint256 eeuTypeId_B,\r\n        int256 ccy_amount_A,\r\n        uint256 ccyTypeId_A,\r\n        int256 ccy_amount_B,\r\n        uint256 ccyTypeId_B)\r\n    public {\r\n        require(msg.sender == owner, \"Restricted method\");\r\n\r\n        require(_ledger[ledger_A].exists == true, \"Invalid ledger owner A\");\r\n        require(_ledger[ledger_B].exists == true, \"Invalid ledger owner B\");\r\n        require(kg_A >= 0 || kg_B >= 0 || ccy_amount_A >= 0 || ccy_amount_B >= 0, \"Invalid transfer\");\r\n        require(!(ccy_amount_A < 0 || ccy_amount_B < 0), \"Invalid currency amounts\");\r\n        require(_ledger[ledger_A].eeuType_sumKG[eeuTypeId_A] >= kg_A, \"Insufficient carbon held by ledger owner A\");\r\n        require(_ledger[ledger_B].eeuType_sumKG[eeuTypeId_B] >= kg_B, \"Insufficient carbon held by ledger owner B\");\r\n        require(_ledger[ledger_A].ccyType_balance[ccyTypeId_A] >= ccy_amount_A, \"Insufficient currency held by ledger owner A\");\r\n        require(_ledger[ledger_B].ccyType_balance[ccyTypeId_B] >= ccy_amount_B, \"Insufficient currency held by ledger owner B\");\r\n\r\n        // transfer currencies\r\n        if (ccy_amount_A > 0) {\r\n            _ledger[ledger_A].ccyType_balance[ccyTypeId_A] -= ccy_amount_A;\r\n            _ledger[ledger_B].ccyType_balance[ccyTypeId_A] += ccy_amount_A;\r\n\r\n            _ccyType_totalTransfered[ccyTypeId_A] += uint256(ccy_amount_A);\r\n            // todo: emit event...\r\n        }\r\n        if (ccy_amount_B > 0) {\r\n            _ledger[ledger_B].ccyType_balance[ccyTypeId_B] -= ccy_amount_B;\r\n            _ledger[ledger_A].ccyType_balance[ccyTypeId_B] += ccy_amount_B;\r\n\r\n            _ccyType_totalTransfered[ccyTypeId_B] += uint256(ccy_amount_B);\r\n            // todo: emit event...\r\n        }\r\n\r\n        // transfer EEUs\r\n        transferSplitEeus(ledger_A, ledger_B, kg_A, eeuTypeId_A);\r\n        transferSplitEeus(ledger_B, ledger_A, kg_B, eeuTypeId_B);\r\n\r\n        // TODO...\r\n        // merge (optimization): for both sender and receiver - after split:\r\n        // simply combine same-type ** AND SAME BATCH ** EEUs into a single larger EEU\r\n        // so, only ever should be a single EEU per owner per type per batch in the ledger\r\n        // (implies the \"retirement\" of old merged EEU IDs)\r\n    }\r\n\r\n    /**\r\n     * @dev Transfers EEUs across ledger owners, splitting (soft-minting) the last EEU as necessary\r\n     * @dev (the residual amount left in the origin last EEU after splitting is similar to a UTXO change output)\r\n     * @param from Transfer from\r\n     * @param to Transfer to\r\n     * @param qtyKG The KG quantity of carbon to transfer\r\n     * @param eeuTypeId The EEU type to transfer\r\n     */\r\n    function transferSplitEeus(address from, address to, uint256 qtyKG, uint256 eeuTypeId) private {\r\n        // transfer sufficient EEUs (last one may gets split)\r\n        uint256 ndx = 0;\r\n        uint256 remainingToTransfer = uint256(qtyKG);\r\n        while (remainingToTransfer > 0) {\r\n            uint256[] storage from_eeuIds = _ledger[from].eeuType_eeuIds[eeuTypeId];\r\n            uint256[] storage to_eeuIds = _ledger[to].eeuType_eeuIds[eeuTypeId];\r\n            uint256 eeuId = from_eeuIds[ndx];\r\n            uint256 eeuKg = _eeus_KG[eeuId];\r\n            uint256 batchId = _eeus_batchId[eeuId];\r\n\r\n            if (remainingToTransfer >= eeuKg) {\r\n                // reassign the full EEU across the ledger entries\r\n\r\n                // remove from origin\r\n                from_eeuIds[ndx] = from_eeuIds[from_eeuIds.length - 1];\r\n                from_eeuIds.length--;\r\n                _ledger[from].eeuType_sumKG[eeuTypeId] -= eeuKg;\r\n\r\n                // assign to destination\r\n                to_eeuIds.push(eeuId);\r\n                _ledger[to].eeuType_sumKG[eeuTypeId] += eeuKg;\r\n\r\n                remainingToTransfer -= eeuKg;\r\n                // todo: emit event...\r\n            }\r\n            else {\r\n                // split the last EEU across the ledger entries, soft-minting a new EEU in the destination\r\n                // note: the parent (origin) EEU's minted qty also gets split across the two EEUS;\r\n                //         this is so the total minted in the system is unchanged,\r\n                //         and also so the total burned amount in the EEU can still be calculated by _eeus_mintedKG[x] - _eeus_KG[x]\r\n                // note: both parent and child EEU point to each other like a double-linked list\r\n\r\n                // soft-mint a new EEU\r\n                uint256 newId = _eeuCurMaxId + 1;\r\n                _eeus_batchId[newId] = batchId; // inherit batch from parent EEU\r\n                _eeus_mintedKG[newId] = remainingToTransfer;\r\n                _eeus_KG[newId] = remainingToTransfer;\r\n                _eeus_mintedTimestamp[newId] = block.timestamp;\r\n                _eeus_splitFromEeuId[newId] = eeuId;\r\n                _eeuCurMaxId++;\r\n\r\n                // resize the origin EEU\r\n                _eeus_KG[eeuId] -= remainingToTransfer;\r\n                _eeus_mintedKG[eeuId] -= remainingToTransfer;\r\n                _eeus_splitToEeuId[eeuId] = newId;\r\n                _ledger[from].eeuType_sumKG[eeuTypeId] -= remainingToTransfer;\r\n\r\n                // assign new EEU\r\n                _ledger[to].eeuType_eeuIds[eeuTypeId].push(newId);\r\n                _ledger[to].eeuType_sumKG[eeuTypeId] += remainingToTransfer;\r\n\r\n                // todo: emit event...\r\n                remainingToTransfer = 0;\r\n            }\r\n        }\r\n        _eeu_totalTransferedKG += qtyKG;\r\n    }\r\n\r\n    /**\r\n     * @dev Returns the total global currency amount transfered for the supplied currency\r\n     */\r\n    function getTotalCcyTransfered(uint256 ccyTypeId) external view returns (uint256) {\r\n        require(msg.sender == owner, \"Restricted method\");\r\n        return _ccyType_totalTransfered[ccyTypeId];\r\n    }\r\n\r\n    /**\r\n     * @dev Returns the total global tonnage of carbon transfered\r\n     */\r\n    function getTotalKgTransfered() external view returns (uint256) {\r\n        require(msg.sender == owner, \"Restricted method\");\r\n        return _eeu_totalTransferedKG;\r\n    }\r\n}\r\n",
  "sourcePath": "C:\\ac\\src\\ac-monorepo\\packages\\erc20\\contracts\\AcMaster\\EeuTradable.sol",
  "compiler": {
    "name": "solc",
    "version": "0.5.8+commit.23d335f2.Emscripten.clang"
  },
  "schemaVersion": "3.0.11",
  "updatedAt": "2019-08-09T20:29:09.098Z",
  "devdoc": {
    "methods": {
      "addCcyType(string,string)": {
        "details": "Adds a new currency type\r",
        "params": {
          "name": "The new currency type name\r",
          "unit": "The base unit of the new currency type\r"
        }
      },
      "addEeuType(string)": {
        "details": "Adds a new EEU type\r",
        "params": {
          "name": "The new EEU type name\r"
        }
      },
      "getCcyTypes()": {
        "details": "Returns current currency types\r"
      },
      "getEeu(uint256)": {
        "details": "Returns an EEU by ID\r"
      },
      "getEeuBatch(uint256)": {
        "details": "Returns an EEU batch by ID\r"
      },
      "getEeuBatchCount()": {
        "details": "Returns the global EEU batch count\r"
      },
      "getEeuTypes()": {
        "details": "Returns current EEU types\r"
      },
      "getLedgerEntry(address)": {
        "details": "Returns the ledger entry for a single account\r"
      },
      "getLedgerOwners()": {
        "details": "Returns all accounts in the ledger\r"
      },
      "getTotalCcyTransfered(uint256)": {
        "details": "Returns the total global currency amount transfered for the supplied currency\r"
      },
      "getTotalKgTransfered()": {
        "details": "Returns the total global tonnage of carbon transfered\r"
      },
      "transfer(address,address,uint256,uint256,uint256,uint256,int256,uint256,int256,uint256)": {
        "details": "Transfers or trades assets between ledger accounts\r(allows one-sided transfers, and allows transfers of same asset types)\r",
        "params": {
          "ccyTypeId_A": "The currency type to move from A to B\r",
          "ccyTypeId_B": "The currency type to move from B to A\r",
          "ccy_amount_A": "The amount of currency to move from A to B\r",
          "ccy_amount_B": "The amount of currency to move from B to A\r",
          "eeuTypeId_A": "The EEU type to move from A to B\r",
          "eeuTypeId_B": "The EEU type to move from A to B\r",
          "kg_A": "The KG quantity of carbon to move from A to B\r",
          "kg_B": "The KG quanity of carbon to move from B to A\r",
          "ledger_A": "Ledger owner A\r",
          "ledger_B": "Ledger owner B\r"
        }
      }
    }
  },
  "userdoc": {
    "methods": {}
  }
}