{
  "contractName": "EeuTypes",
  "abi": [
    {
      "inputs": [],
      "payable": false,
      "stateMutability": "nonpayable",
      "type": "constructor"
    },
    {
      "anonymous": false,
      "inputs": [
        {
          "indexed": false,
          "name": "id",
          "type": "uint256"
        },
        {
          "indexed": false,
          "name": "name",
          "type": "string"
        }
      ],
      "name": "AddedEeuType",
      "type": "event"
    },
    {
      "constant": false,
      "inputs": [
        {
          "name": "name",
          "type": "string"
        }
      ],
      "name": "addEeuType",
      "outputs": [],
      "payable": false,
      "stateMutability": "nonpayable",
      "type": "function"
    },
    {
      "constant": true,
      "inputs": [],
      "name": "getEeuTypes",
      "outputs": [
        {
          "components": [
            {
              "components": [
                {
                  "name": "id",
                  "type": "uint256"
                },
                {
                  "name": "name",
                  "type": "string"
                }
              ],
              "name": "eeuTypes",
              "type": "tuple[]"
            }
          ],
          "name": "",
          "type": "tuple"
        }
      ],
      "payable": false,
      "stateMutability": "view",
      "type": "function"
    }
  ],
  "bytecode": "0x608060405234801561001057600080fd5b50336000806101000a81548173ffffffffffffffffffffffffffffffffffffffff021916908373ffffffffffffffffffffffffffffffffffffffff1602179055506040518060400160405280600681526020017f554e4643434300000000000000000000000000000000000000000000000000008152506001600080815260200190815260200160002090805190602001906100ad929190610118565b506040518060400160405280600381526020017f56435300000000000000000000000000000000000000000000000000000000008152506001600060018152602001908152602001600020908051906020019061010b929190610118565b50600280819055506101bd565b828054600181600116156101000203166002900490600052602060002090601f016020900481019282601f1061015957805160ff1916838001178555610187565b82800160010185558215610187579182015b8281111561018657825182559160200191906001019061016b565b5b5090506101949190610198565b5090565b6101ba91905b808211156101b657600081600090555060010161019e565b5090565b90565b6109fd806101cc6000396000f3fe608060405234801561001057600080fd5b50600436106100365760003560e01c806351664b261461003b578063963030df14610057575b600080fd5b610055600480360361005091908101906104c2565b610075565b005b61005f61023d565b60405161006c9190610830565b60405180910390f35b6000809054906101000a900473ffffffffffffffffffffffffffffffffffffffff1673ffffffffffffffffffffffffffffffffffffffff163373ffffffffffffffffffffffffffffffffffffffff1614610104576040517f08c379a00000000000000000000000000000000000000000000000000000000081526004016100fb906107f0565b60405180910390fd5b60008090505b6002548110156101c2578160405160200161012591906107c2565b604051602081830303815290604052805190602001206001600083815260200190815260200160002060405160200161015e91906107d9565b6040516020818303038152906040528051906020012014156101b5576040517f08c379a00000000000000000000000000000000000000000000000000000000081526004016101ac90610810565b60405180910390fd5b808060010191505061010a565b508060016000600254815260200190815260200160002090805190602001906101ec92919061039c565b507ff42a31d05ee5f17e0f159b94b9402293e9cf2265c806b4a55168aeaa3fe275e260025482604051610220929190610852565b60405180910390a160026000815480929190600101919050555050565b61024561041c565b606060025460405190808252806020026020018201604052801561028357816020015b61027061042f565b8152602001906001900390816102685790505b50905060008090505b60025481101561037a576040518060400160405280828152602001600160008481526020019081526020016000208054600181600116156101000203166002900480601f01602080910402602001604051908101604052809291908181526020018280546001816001161561010002031660029004801561034e5780601f106103235761010080835404028352916020019161034e565b820191906000526020600020905b81548152906001019060200180831161033157829003601f168201915b505050505081525082828151811061036257fe5b6020026020010181905250808060010191505061028c565b5061038361041c565b6040518060200160405280838152509050809250505090565b828054600181600116156101000203166002900490600052602060002090601f016020900481019282601f106103dd57805160ff191683800117855561040b565b8280016001018555821561040b579182015b8281111561040a5782518255916020019190600101906103ef565b5b5090506104189190610449565b5090565b6040518060200160405280606081525090565b604051806040016040528060008152602001606081525090565b61046b91905b8082111561046757600081600090555060010161044f565b5090565b90565b600082601f83011261047f57600080fd5b813561049261048d826108af565b610882565b915080825260208301602083018583830111156104ae57600080fd5b6104b9838284610970565b50505092915050565b6000602082840312156104d457600080fd5b600082013567ffffffffffffffff8111156104ee57600080fd5b6104fa8482850161046e565b91505092915050565b600061050f838361073d565b905092915050565b6000610522826108fa565b61052c8185610928565b93508360208202850161053e856108db565b8060005b8581101561057a578484038952815161055b8582610503565b94506105668361091b565b925060208a01995050600181019050610542565b50829750879550505050505092915050565b600061059782610910565b6105a1818561094a565b93506105b181856020860161097f565b6105ba816109b2565b840191505092915050565b60006105d082610910565b6105da818561095b565b93506105ea81856020860161097f565b80840191505092915050565b600061060182610905565b61060b8185610939565b935061061b81856020860161097f565b610624816109b2565b840191505092915050565b60008154600181166000811461064c5760018114610671576106b5565b607f600283041661065d818761095b565b955060ff19831686528086019350506106b5565b6002820461067f818761095b565b955061068a856108e8565b60005b828110156106ac5781548189015260018201915060208101905061068d565b82880195505050505b505092915050565b60006106ca60118361094a565b91507f52657374726963746564206d6574686f640000000000000000000000000000006000830152602082019050919050565b600061070a601c8361094a565b91507f4545552074797065206e616d6520616c726561647920657869737473000000006000830152602082019050919050565b600060408301600083015161075560008601826107a4565b506020830151848203602086015261076d82826105f6565b9150508091505092915050565b600060208301600083015184820360008601526107978282610517565b9150508091505092915050565b6107ad81610966565b82525050565b6107bc81610966565b82525050565b60006107ce82846105c5565b915081905092915050565b60006107e5828461062f565b915081905092915050565b60006020820190508181036000830152610809816106bd565b9050919050565b60006020820190508181036000830152610829816106fd565b9050919050565b6000602082019050818103600083015261084a818461077a565b905092915050565b600060408201905061086760008301856107b3565b8181036020830152610879818461058c565b90509392505050565b6000604051905081810181811067ffffffffffffffff821117156108a557600080fd5b8060405250919050565b600067ffffffffffffffff8211156108c657600080fd5b601f19601f8301169050602081019050919050565b6000602082019050919050565b60008160005260206000209050919050565b600081519050919050565b600081519050919050565b600081519050919050565b6000602082019050919050565b600082825260208201905092915050565b600082825260208201905092915050565b600082825260208201905092915050565b600081905092915050565b6000819050919050565b82818337600083830152505050565b60005b8381101561099d578082015181840152602081019050610982565b838111156109ac576000848401525b50505050565b6000601f19601f830116905091905056fea265627a7a72305820ae7e5e3f9b4f0ffe477f7ae2092c085f80c3c08eea07eefbb5b1c0bf7fa1fe956c6578706572696d656e74616cf50037",
  "source": "pragma solidity 0.5.8;\r\npragma experimental ABIEncoderV2;\r\n\r\nimport \"./Owned.sol\";\r\n\r\n/**\r\n  * Manages EEU types used by AcMaster\r\n  */\r\ncontract EeuTypes is Owned {\r\n    event AddedEeuType(uint256 id, string name);\r\n\r\n    // *** EEU TYPES\r\n    mapping(uint256 => string) _eeuTypeNames; // typeId -> typeName\r\n    uint256 _count_eeuTypes;\r\n    struct EeuTypeReturn {\r\n        uint256 id;\r\n        string  name;\r\n    }\r\n    struct GetEeuTypesReturn {\r\n        EeuTypeReturn[] eeuTypes;\r\n    }\r\n\r\n    constructor() public {\r\n        // default EEU types\r\n        _eeuTypeNames[0] = 'UNFCCC';\r\n        _eeuTypeNames[1] = 'VCS';\r\n        _count_eeuTypes = 2;\r\n    }\r\n\r\n    /**\r\n     * @dev Adds a new EEU type\r\n     * @param name The new EEU type name\r\n     */\r\n    function addEeuType(string memory name) public {\r\n        require(msg.sender == owner, \"Restricted method\");\r\n\r\n        for (uint256 eeuTypeId = 0; eeuTypeId < _count_eeuTypes; eeuTypeId++) {\r\n            require(keccak256(abi.encodePacked(_eeuTypeNames[eeuTypeId])) != keccak256(abi.encodePacked(name)),\r\n                    \"EEU type name already exists\");\r\n        }\r\n\r\n        _eeuTypeNames[_count_eeuTypes] = name;\r\n        emit AddedEeuType(_count_eeuTypes, name);\r\n\r\n        _count_eeuTypes++;\r\n    }\r\n\r\n    /**\r\n     * @dev Returns current EEU types\r\n     */\r\n    function getEeuTypes() external view returns (GetEeuTypesReturn memory) {\r\n        EeuTypeReturn[] memory eeuTypes;\r\n        eeuTypes = new EeuTypeReturn[](_count_eeuTypes);\r\n\r\n        for (uint256 eeuTypeId = 0; eeuTypeId < _count_eeuTypes; eeuTypeId++) {\r\n            eeuTypes[eeuTypeId] = EeuTypeReturn({\r\n                id: eeuTypeId,\r\n              name: _eeuTypeNames[eeuTypeId]\r\n            });\r\n        }\r\n\r\n        GetEeuTypesReturn memory ret = GetEeuTypesReturn({\r\n            eeuTypes: eeuTypes\r\n        });\r\n        return ret;\r\n    }\r\n}\r\n",
  "sourcePath": "C:\\ac\\src\\ac-monorepo\\packages\\erc20\\contracts\\AcMaster\\EeuTypes.sol",
  "compiler": {
    "name": "solc",
    "version": "0.5.8+commit.23d335f2.Emscripten.clang"
  },
  "schemaVersion": "3.0.11",
  "updatedAt": "2019-08-07T05:01:01.525Z",
  "devdoc": {
    "methods": {
      "addEeuType(string)": {
        "details": "Adds a new EEU type\r",
        "params": {
          "name": "The new EEU type name\r"
        }
      },
      "getEeuTypes()": {
        "details": "Returns current EEU types\r"
      }
    }
  },
  "userdoc": {
    "methods": {},
    "notice": "Manages EEU types used by AcMaster\r"
  }
}