{
  "contractName": "EeuTypes",
  "abi": [
    {
      "inputs": [],
      "payable": false,
      "stateMutability": "nonpayable",
      "type": "constructor"
    },
    {
      "anonymous": false,
      "inputs": [
        {
          "indexed": false,
          "name": "id",
          "type": "uint256"
        },
        {
          "indexed": false,
          "name": "name",
          "type": "string"
        }
      ],
      "name": "AddedEeuType",
      "type": "event"
    },
    {
      "constant": false,
      "inputs": [
        {
          "name": "name",
          "type": "string"
        }
      ],
      "name": "addEeuType",
      "outputs": [],
      "payable": false,
      "stateMutability": "nonpayable",
      "type": "function"
    },
    {
      "constant": true,
      "inputs": [],
      "name": "getEeuTypes",
      "outputs": [
        {
          "components": [
            {
              "components": [
                {
                  "name": "id",
                  "type": "uint256"
                },
                {
                  "name": "name",
                  "type": "string"
                }
              ],
              "name": "eeuTypes",
              "type": "tuple[]"
            }
          ],
          "name": "",
          "type": "tuple"
        }
      ],
      "payable": false,
      "stateMutability": "view",
      "type": "function"
    }
  ],
  "bytecode": "0x608060405234801561001057600080fd5b5060008054600160a060020a0319163317815560408051808201909152600681527f554e464343430000000000000000000000000000000000000000000000000000602080830191825292805260019092525161008e917fa6eef7e35abe7026729641147f7915573c7e97b47efa546f5f6e3230263bcb4991610106565b5060408051808201909152600381527f5643530000000000000000000000000000000000000000000000000000000000602080830191825260016000819052905290516100fc917fcc69885fda6bcc1a4ace058b4a62bf5e179ea78fd58a1ccd71c22cc9b688792f91610106565b50600280556101a1565b828054600181600116156101000203166002900490600052602060002090601f016020900481019282601f1061014757805160ff1916838001178555610174565b82800160010185558215610174579182015b82811115610174578251825591602001919060010190610159565b50610180929150610184565b5090565b61019e91905b80821115610180576000815560010161018a565b90565b6107c6806101b06000396000f3fe608060405234801561001057600080fd5b50600436106100395760e060020a600035046351664b26811461003e578063963030df14610053575b600080fd5b61005161004c3660046103f6565b610071565b005b61005b6101a1565b60405161006891906106a4565b60405180910390f35b600054600160a060020a031633146100a75760405160e560020a62461bcd02815260040161009e9061067e565b60405180910390fd5b60005b60025481101561013657816040516020016100c59190610666565b60408051601f1981840301815282825280516020918201206000858152600183529290922091926100f7929101610672565b60405160208183030381529060405280519060200120141561012e5760405160e560020a62461bcd02815260040161009e90610694565b6001016100aa565b5060025460009081526001602090815260409091208251610159928401906102dd565b507ff42a31d05ee5f17e0f159b94b9402293e9cf2265c806b4a55168aeaa3fe275e26002548260405161018d9291906106b5565b60405180910390a150600280546001019055565b6101a961035b565b60606002546040519080825280602002602001820160405280156101e757816020015b6101d461036e565b8152602001906001900390816101cc5790505b50905060005b6002548110156102bf576040805180820182528281526000838152600160208181529184902080548551600293821615610100026000190190911692909204601f810184900484028301840190955284825292938285019391928301828280156102985780601f1061026d57610100808354040283529160200191610298565b820191906000526020600020905b81548152906001019060200180831161027b57829003601f168201915b50505050508152508282815181106102ac57fe5b60209081029190910101526001016101ed565b506102c861035b565b50604080516020810190915290815290505b90565b828054600181600116156101000203166002900490600052602060002090601f016020900481019282601f1061031e57805160ff191683800117855561034b565b8280016001018555821561034b579182015b8281111561034b578251825591602001919060010190610330565b50610357929150610388565b5090565b6040518060200160405280606081525090565b604051806040016040528060008152602001606081525090565b6102da91905b80821115610357576000815560010161038e565b600082601f8301126103b357600080fd5b81356103c66103c1826106fb565b6106d5565b915080825260208301602083018583830111156103e257600080fd5b6103ed838284610746565b50505092915050565b60006020828403121561040857600080fd5b81356001604060020a0381111561041e57600080fd5b61042a848285016103a2565b949350505050565b600061043e838361060a565b9392505050565b600061045082610734565b61045a8185610738565b93508360208202850161046c85610722565b8060005b858110156104a657848403895281516104898582610432565b945061049483610722565b60209a909a0199925050600101610470565b5091979650505050505050565b60006104be82610734565b6104c88185610738565b93506104d8818560208601610752565b6104e181610782565b9093019392505050565b60006104f682610734565b6105008185610741565b9350610510818560208601610752565b9290920192915050565b600081546001811660008114610537576001811461055a57610599565b607f60028304166105488187610741565b60ff1984168152955085019250610599565b600282046105688187610741565b955061057385610728565b60005b8281101561059257815488820152600190910190602001610576565b5050850192505b505092915050565b60006105ae601183610738565b607a60020a7014995cdd1c9a58dd1959081b595d1a1bd902815260200192915050565b60006105de601c83610738565b7f4545552074797065206e616d6520616c72656164792065786973747300000000815260200192915050565b8051600090604084019061061e8582610657565b506020830151848203602086015261063682826104b3565b95945050505050565b80516020808452600091908401906106368282610445565b610660816102da565b82525050565b600061043e82846104eb565b600061043e828461051a565b6020808252810161068e816105a1565b92915050565b6020808252810161068e816105d1565b6020808252810161043e818461063f565b604081016106c38285610657565b818103602083015261042a81846104b3565b6040518181016001604060020a03811182821017156106f357600080fd5b604052919050565b60006001604060020a0382111561071157600080fd5b506020601f91909101601f19160190565b60200190565b60009081526020902090565b5190565b90815260200190565b919050565b82818337506000910152565b60005b8381101561076d578181015183820152602001610755565b8381111561077c576000848401525b50505050565b601f01601f19169056fea265627a7a723058200261accee8f15b620a55a67972cf243f96cb733099620c9f5afbc7f82f1258806c6578706572696d656e74616cf50037",
  "source": "pragma solidity 0.5.8;\r\npragma experimental ABIEncoderV2;\r\n\r\nimport \"./Owned.sol\";\r\n\r\n/**\r\n  * Manages EEU types used by AcMaster\r\n  */\r\ncontract EeuTypes is Owned {\r\n    event AddedEeuType(uint256 id, string name);\r\n\r\n    // *** EEU TYPES\r\n    mapping(uint256 => string) _eeuTypeNames; // typeId -> typeName\r\n    uint256 _count_eeuTypes;\r\n    struct EeuTypeReturn {\r\n        uint256 id;\r\n        string  name;\r\n    }\r\n    struct GetEeuTypesReturn {\r\n        EeuTypeReturn[] eeuTypes;\r\n    }\r\n\r\n    constructor() public {\r\n        // default EEU types\r\n        _eeuTypeNames[0] = 'UNFCCC';\r\n        _eeuTypeNames[1] = 'VCS';\r\n        _count_eeuTypes = 2;\r\n    }\r\n\r\n    /**\r\n     * @dev Adds a new EEU type\r\n     * @param name The new EEU type name\r\n     */\r\n    function addEeuType(string memory name) public {\r\n        require(msg.sender == owner, \"Restricted method\");\r\n\r\n        for (uint256 eeuTypeId = 0; eeuTypeId < _count_eeuTypes; eeuTypeId++) {\r\n            require(keccak256(abi.encodePacked(_eeuTypeNames[eeuTypeId])) != keccak256(abi.encodePacked(name)),\r\n                    \"EEU type name already exists\");\r\n        }\r\n\r\n        _eeuTypeNames[_count_eeuTypes] = name;\r\n        emit AddedEeuType(_count_eeuTypes, name);\r\n\r\n        _count_eeuTypes++;\r\n    }\r\n\r\n    /**\r\n     * @dev Returns current EEU types\r\n     */\r\n    function getEeuTypes() external view returns (GetEeuTypesReturn memory) {\r\n        EeuTypeReturn[] memory eeuTypes;\r\n        eeuTypes = new EeuTypeReturn[](_count_eeuTypes);\r\n\r\n        for (uint256 eeuTypeId = 0; eeuTypeId < _count_eeuTypes; eeuTypeId++) {\r\n            eeuTypes[eeuTypeId] = EeuTypeReturn({\r\n                id: eeuTypeId,\r\n              name: _eeuTypeNames[eeuTypeId]\r\n            });\r\n        }\r\n\r\n        GetEeuTypesReturn memory ret = GetEeuTypesReturn({\r\n            eeuTypes: eeuTypes\r\n        });\r\n        return ret;\r\n    }\r\n}\r\n",
  "sourcePath": "C:\\ac\\src\\ac-monorepo\\packages\\erc20\\contracts\\AcMaster\\EeuTypes.sol",
  "compiler": {
    "name": "solc",
    "version": "0.5.8+commit.23d335f2.Emscripten.clang"
  },
  "schemaVersion": "3.0.11",
  "updatedAt": "2019-08-09T14:17:38.184Z",
  "devdoc": {
    "methods": {
      "addEeuType(string)": {
        "details": "Adds a new EEU type\r",
        "params": {
          "name": "The new EEU type name\r"
        }
      },
      "getEeuTypes()": {
        "details": "Returns current EEU types\r"
      }
    }
  },
  "userdoc": {
    "methods": {},
    "notice": "Manages EEU types used by AcMaster\r"
  }
}