{
  "contractName": "EeuTradable",
  "abi": [
    {
      "constant": true,
      "inputs": [
        {
          "name": "id",
          "type": "uint256"
        }
      ],
      "name": "getEeuBatch",
      "outputs": [
        {
          "components": [
            {
              "name": "id",
              "type": "uint256"
            },
            {
              "name": "mintedTimestamp",
              "type": "uint256"
            },
            {
              "name": "eeuType",
              "type": "uint8"
            },
            {
              "name": "mintedKG",
              "type": "uint256"
            },
            {
              "name": "burnedKG",
              "type": "uint256"
            }
          ],
          "name": "batch",
          "type": "tuple"
        }
      ],
      "payable": false,
      "stateMutability": "view",
      "type": "function"
    },
    {
      "constant": true,
      "inputs": [],
      "name": "getEeuBatchCount",
      "outputs": [
        {
          "name": "count",
          "type": "uint256"
        }
      ],
      "payable": false,
      "stateMutability": "view",
      "type": "function"
    },
    {
      "constant": true,
      "inputs": [],
      "name": "getEeuMintedCount",
      "outputs": [
        {
          "name": "count",
          "type": "uint256"
        }
      ],
      "payable": false,
      "stateMutability": "view",
      "type": "function"
    },
    {
      "constant": true,
      "inputs": [
        {
          "name": "id",
          "type": "uint256"
        }
      ],
      "name": "getEeu",
      "outputs": [
        {
          "components": [
            {
              "name": "exists",
              "type": "bool"
            },
            {
              "name": "id",
              "type": "uint256"
            },
            {
              "name": "mintedKG",
              "type": "uint256"
            },
            {
              "name": "KG",
              "type": "uint256"
            },
            {
              "name": "batchId",
              "type": "uint256"
            },
            {
              "name": "mintedTimestamp",
              "type": "uint256"
            }
          ],
          "name": "eeu",
          "type": "tuple"
        }
      ],
      "payable": false,
      "stateMutability": "view",
      "type": "function"
    },
    {
      "constant": true,
      "inputs": [
        {
          "name": "account",
          "type": "address"
        }
      ],
      "name": "getLedgerEntry",
      "outputs": [
        {
          "components": [
            {
              "name": "exists",
              "type": "bool"
            },
            {
              "components": [
                {
                  "name": "eeuType",
                  "type": "uint8"
                },
                {
                  "name": "batchId",
                  "type": "uint256"
                },
                {
                  "name": "eeuId",
                  "type": "uint256"
                },
                {
                  "name": "eeuKG",
                  "type": "uint256"
                }
              ],
              "name": "eeus",
              "type": "tuple[]"
            },
            {
              "name": "eeuIds",
              "type": "uint256[]"
            },
            {
              "name": "eeu_sumKG",
              "type": "uint256"
            },
            {
              "name": "usdCents",
              "type": "uint256"
            },
            {
              "name": "ethWei",
              "type": "uint256"
            }
          ],
          "name": "entry",
          "type": "tuple"
        }
      ],
      "payable": false,
      "stateMutability": "view",
      "type": "function"
    },
    {
      "constant": true,
      "inputs": [],
      "name": "getKgCarbonMinted",
      "outputs": [
        {
          "name": "count",
          "type": "uint256"
        }
      ],
      "payable": false,
      "stateMutability": "view",
      "type": "function"
    },
    {
      "constant": true,
      "inputs": [],
      "name": "getKgCarbonBurned",
      "outputs": [
        {
          "name": "count",
          "type": "uint256"
        }
      ],
      "payable": false,
      "stateMutability": "view",
      "type": "function"
    },
    {
      "inputs": [],
      "payable": false,
      "stateMutability": "nonpayable",
      "type": "constructor"
    }
  ],
  "bytecode": "0x608060405234801561001057600080fd5b50336000806101000a81548173ffffffffffffffffffffffffffffffffffffffff021916908373ffffffffffffffffffffffffffffffffffffffff160217905550610d81806100606000396000f3fe608060405234801561001057600080fd5b506004361061007d5760003560e01c80639ce9a4a61161005b5780639ce9a4a6146100ee578063a89a88841461011e578063ba0138cb1461014e578063e3f64b351461016c5761007d565b80630722a4ee1461008257806319b67615146100b25780633846d448146100d0575b600080fd5b61009c600480360361009791908101906108a7565b61018a565b6040516100a99190610bc0565b60405180910390f35b6100ba61020c565b6040516100c79190610c18565b60405180910390f35b6100d8610216565b6040516100e59190610c18565b60405180910390f35b610108600480360361010391908101906108a7565b610220565b6040516101159190610bdb565b60405180910390f35b6101386004803603610133919081019061087e565b6102c1565b6040516101459190610bf6565b60405180910390f35b610156610763565b6040516101639190610c18565b60405180910390f35b61017461076d565b6040516101819190610c18565b60405180910390f35b610192610777565b600160008381526020019081526020016000206040518060a001604052908160008201548152602001600182015481526020016002820160009054906101000a900460ff1660028111156101e257fe5b60028111156101ed57fe5b8152602001600382015481526020016004820154815250509050919050565b6000600254905090565b6000600954905090565b6102286107b1565b6040518060c001604052806000600360008681526020019081526020016000205414151515815260200183815260200160046000858152602001908152602001600020548152602001600560008581526020019081526020016000205481526020016003600085815260200190815260200160002054815260200160066000858152602001908152602001600020548152509050919050565b6102c96107e9565b6060806000809050600a60008673ffffffffffffffffffffffffffffffffffffffff1673ffffffffffffffffffffffffffffffffffffffff16815260200190815260200160002060000160009054906101000a900460ff16156105d957600080905060008090505b60028081111561033d57fe5b8110156103ac57600a60008873ffffffffffffffffffffffffffffffffffffffff1673ffffffffffffffffffffffffffffffffffffffff168152602001908152602001600020600101600082815260200190815260200160002080549050820191508080600101915050610331565b50806040519080825280602002602001820160405280156103e757816020015b6103d4610821565b8152602001906001900390816103cc5790505b509350806040519080825280602002602001820160405280156104195781602001602082028038833980820191505090505b509250600080905060008090505b60028081111561043357fe5b8110156105d1576060600a60008a73ffffffffffffffffffffffffffffffffffffffff1673ffffffffffffffffffffffffffffffffffffffff16815260200190815260200160002060010160008381526020019081526020016000208054806020026020016040519081016040528092919081815260200182805480156104d957602002820191906000526020600020905b8154815260200190600101908083116104c5575b5050505050905060008090505b81518110156105c25760008282815181106104fd57fe5b602002602001015190508088868151811061051457fe5b602002602001018181525050600560008281526020019081526020016000205487019650604051806080016040528085600281111561054f57fe5b600281111561055a57fe5b81526020016003600084815260200190815260200160002054815260200182815260200160056000848152602001908152602001600020548152508986815181106105a157fe5b602002602001018190525084806001019550505080806001019150506104e6565b50508080600101915050610427565b50505061064b565b600060405190808252806020026020018201604052801561061457816020015b610601610821565b8152602001906001900390816105f95790505b50925060006040519080825280602002602001820160405280156106475781602001602082028038833980820191505090505b5091505b6106536107e9565b6040518060c00160405280600a60008973ffffffffffffffffffffffffffffffffffffffff1673ffffffffffffffffffffffffffffffffffffffff16815260200190815260200160002060000160009054906101000a900460ff1615158152602001858152602001848152602001838152602001600a60008973ffffffffffffffffffffffffffffffffffffffff1673ffffffffffffffffffffffffffffffffffffffff168152602001908152602001600020600301548152602001600a60008973ffffffffffffffffffffffffffffffffffffffff1673ffffffffffffffffffffffffffffffffffffffff16815260200190815260200160002060040154815250905080945050505050919050565b6000600754905090565b6000600854905090565b6040518060a0016040528060008152602001600081526020016000600281111561079d57fe5b815260200160008152602001600081525090565b6040518060c0016040528060001515815260200160008152602001600081526020016000815260200160008152602001600081525090565b6040518060c0016040528060001515815260200160608152602001606081526020016000815260200160008152602001600081525090565b60405180608001604052806000600281111561083957fe5b81526020016000815260200160008152602001600081525090565b60008135905061086381610d19565b92915050565b60008135905061087881610d30565b92915050565b60006020828403121561089057600080fd5b600061089e84828501610854565b91505092915050565b6000602082840312156108b957600080fd5b60006108c784828501610869565b91505092915050565b60006108dc8383610abd565b60808301905092915050565b60006108f48383610ba2565b60208301905092915050565b600061090b82610c4d565b6109158185610c7d565b935061092083610c33565b8060005b8381101561095157815161093888826108d0565b975061094383610c63565b925050600181019050610924565b5085935050505092915050565b600061096982610c58565b6109738185610c8e565b935061097e83610c40565b8060005b838110156109af57815161099688826108e8565b97506109a183610c70565b925050600181019050610982565b5085935050505092915050565b6109c581610cb1565b82525050565b6109d481610cfa565b82525050565b60a0820160008201516109f06000850182610ba2565b506020820151610a036020850182610ba2565b506040820151610a1660408501826109cb565b506060820151610a296060850182610ba2565b506080820151610a3c6080850182610ba2565b50505050565b60c082016000820151610a5860008501826109bc565b506020820151610a6b6020850182610ba2565b506040820151610a7e6040850182610ba2565b506060820151610a916060850182610ba2565b506080820151610aa46080850182610ba2565b5060a0820151610ab760a0850182610ba2565b50505050565b608082016000820151610ad360008501826109cb565b506020820151610ae66020850182610ba2565b506040820151610af96040850182610ba2565b506060820151610b0c6060850182610ba2565b50505050565b600060c083016000830151610b2a60008601826109bc565b5060208301518482036020860152610b428282610900565b91505060408301518482036040860152610b5c828261095e565b9150506060830151610b716060860182610ba2565b506080830151610b846080860182610ba2565b5060a0830151610b9760a0860182610ba2565b508091505092915050565b610bab81610cf0565b82525050565b610bba81610cf0565b82525050565b600060a082019050610bd560008301846109da565b92915050565b600060c082019050610bf06000830184610a42565b92915050565b60006020820190508181036000830152610c108184610b12565b905092915050565b6000602082019050610c2d6000830184610bb1565b92915050565b6000602082019050919050565b6000602082019050919050565b600081519050919050565b600081519050919050565b6000602082019050919050565b6000602082019050919050565b600082825260208201905092915050565b600082825260208201905092915050565b6000610caa82610cd0565b9050919050565b60008115159050919050565b6000819050610ccb82610d0c565b919050565b600073ffffffffffffffffffffffffffffffffffffffff82169050919050565b6000819050919050565b6000610d0582610cbd565b9050919050565b60038110610d1657fe5b50565b610d2281610c9f565b8114610d2d57600080fd5b50565b610d3981610cf0565b8114610d4457600080fd5b5056fea265627a7a72305820ad8b165c9b9933579f1c517e96d9eec48245d8170c8227b9f5d687e09db29cde6c6578706572696d656e74616cf50037",
  "source": "pragma solidity 0.5.8;\r\npragma experimental ABIEncoderV2;\r\n\r\nimport \"./Owned.sol\";\r\nimport \"./AcLedger.sol\";\r\n\r\ncontract EeuTradable is Owned, AcLedger {\r\n    /**\r\n     * ctor\r\n     */\r\n    constructor() public {}\r\n}\r\n",
  "sourcePath": "C:\\ac\\src\\ac-monorepo\\packages\\erc20\\contracts\\AcMaster\\EeuTradable.sol",
  "compiler": {
    "name": "solc",
    "version": "0.5.8+commit.23d335f2.Emscripten.clang"
  },
  "schemaVersion": "3.0.11",
  "updatedAt": "2019-08-05T05:27:40.346Z",
  "devdoc": {
    "methods": {
      "getEeu(uint256)": {
        "details": "Returns an EEU by ID\r"
      },
      "getEeuBatch(uint256)": {
        "details": "Returns an EEU batch by ID\r"
      },
      "getEeuBatchCount()": {
        "details": "Returns the global EEU batch count\r"
      },
      "getEeuMintedCount()": {
        "details": "Returns the global no. of EEUs minted\r"
      },
      "getKgCarbonBurned()": {
        "details": "Returns the global no. of KGs carbon burned in EEUs\r"
      },
      "getKgCarbonMinted()": {
        "details": "Returns the global no. of KGs carbon minted in EEUs\r"
      },
      "getLedgerEntry(address)": {
        "details": "Returns the _ledger entry for an account\r"
      }
    }
  },
  "userdoc": {
    "methods": {
      "constructor": "ctor\r"
    }
  }
}