{
  "contractName": "StaticExtendable",
  "abi": [
    {
      "inputs": [],
      "payable": false,
      "stateMutability": "nonpayable",
      "type": "constructor"
    },
    {
      "constant": true,
      "inputs": [],
      "name": "getEeuTypeIds",
      "outputs": [
        {
          "components": [
            {
              "components": [
                {
                  "name": "eeuTypeId",
                  "type": "uint256"
                },
                {
                  "name": "eeuTypeName",
                  "type": "string"
                }
              ],
              "name": "eeuTypes",
              "type": "tuple[]"
            }
          ],
          "name": "retData",
          "type": "tuple"
        }
      ],
      "payable": false,
      "stateMutability": "view",
      "type": "function"
    }
  ],
  "bytecode": "0x608060405234801561001057600080fd5b506040518060400160405280600681526020017f554e464343430000000000000000000000000000000000000000000000000000815250600080808152602001908152602001600020908051906020019061006c9291906100d7565b506040518060400160405280600381526020017f56435300000000000000000000000000000000000000000000000000000000008152506000806001815260200190815260200160002090805190602001906100c99291906100d7565b50600260018190555061017c565b828054600181600116156101000203166002900490600052602060002090601f016020900481019282601f1061011857805160ff1916838001178555610146565b82800160010185558215610146579182015b8281111561014557825182559160200191906001019061012a565b5b5090506101539190610157565b5090565b61017991905b8082111561017557600081600090555060010161015d565b5090565b90565b61040d8061018b6000396000f3fe608060405234801561001057600080fd5b506004361061002b5760003560e01c806332de10e414610030575b600080fd5b61003861004e565b6040516100459190610311565b60405180910390f35b6100566101ac565b606060015460405190808252806020026020018201604052801561009457816020015b6100816101bf565b8152602001906001900390816100795790505b50905060008090505b60015481101561018a5760405180604001604052808281526020016000808481526020019081526020016000208054600181600116156101000203166002900480601f01602080910402602001604051908101604052809291908181526020018280546001816001161561010002031660029004801561015e5780601f106101335761010080835404028352916020019161015e565b820191906000526020600020905b81548152906001019060200180831161014157829003601f168201915b505050505081525082828151811061017257fe5b6020026020010181905250808060010191505061009d565b506101936101ac565b6040518060200160405280838152509050809250505090565b6040518060200160405280606081525090565b604051806040016040528060008152602001606081525090565b60006101e5838361029b565b905092915050565b60006101f882610340565b6102028185610363565b93508360208202850161021485610333565b8060005b85811015610250578484038952815161023185826101d9565b945061023c83610356565b925060208a01995050600181019050610218565b50829750879550505050505092915050565b600061026d8261034b565b6102778185610374565b935061028781856020860161038f565b610290816103c2565b840191505092915050565b60006040830160008301516102b36000860182610302565b50602083015184820360208601526102cb8282610262565b9150508091505092915050565b600060208301600083015184820360008601526102f582826101ed565b9150508091505092915050565b61030b81610385565b82525050565b6000602082019050818103600083015261032b81846102d8565b905092915050565b6000602082019050919050565b600081519050919050565b600081519050919050565b6000602082019050919050565b600082825260208201905092915050565b600082825260208201905092915050565b6000819050919050565b60005b838110156103ad578082015181840152602081019050610392565b838111156103bc576000848401525b50505050565b6000601f19601f830116905091905056fea265627a7a72305820f9f8cdef371c32e460040efa748a89da53a0f4d6b93783e20e3d972999ad5ebd6c6578706572696d656e74616cf50037",
  "source": "pragma solidity 0.5.8;\r\npragma experimental ABIEncoderV2;\r\n\r\n/**\r\n  * Manages static data used by AcMaster\r\n  */\r\ncontract StaticExtendable {\r\n\r\n    // *** EEU TYPES\r\n    mapping(uint256 => string) _eeuTypeIds; // typeId -> typeName\r\n    uint256 _count_eeuTypeIds;\r\n    struct EeuTypeReturn {\r\n        uint256 eeuTypeId;\r\n        string eeuTypeName;\r\n    }\r\n    struct GetEeuTypeReturn {\r\n        EeuTypeReturn[] eeuTypes;\r\n    }\r\n\r\n    /**\r\n     * ctor\r\n     */\r\n    constructor() public {\r\n        // default EEU types\r\n        _eeuTypeIds[0] = 'UNFCCC';\r\n        _eeuTypeIds[1] = 'VCS';\r\n        _count_eeuTypeIds = 2;\r\n    }\r\n\r\n    /**\r\n     * @dev Returns EEU types\r\n     */\r\n    function getEeuTypeIds() external view returns (GetEeuTypeReturn memory retData) {\r\n        EeuTypeReturn[] memory eeuTypes;\r\n        eeuTypes = new EeuTypeReturn[](_count_eeuTypeIds);\r\n\r\n        for (uint256 eeuTypeId = 0; eeuTypeId < _count_eeuTypeIds; eeuTypeId++) {\r\n            eeuTypes[eeuTypeId] = EeuTypeReturn({\r\n                eeuTypeId: eeuTypeId,\r\n              eeuTypeName: _eeuTypeIds[eeuTypeId]\r\n            });\r\n        }\r\n\r\n        GetEeuTypeReturn memory ret = GetEeuTypeReturn({\r\n            eeuTypes: eeuTypes\r\n        });\r\n        return ret;\r\n    }\r\n}\r\n",
  "sourcePath": "C:\\ac\\src\\ac-monorepo\\packages\\erc20\\contracts\\AcMaster\\StaticExtendable.sol",
  "compiler": {
    "name": "solc",
    "version": "0.5.8+commit.23d335f2.Emscripten.clang"
  },
  "schemaVersion": "3.0.11",
  "updatedAt": "2019-08-05T11:21:19.605Z",
  "devdoc": {
    "methods": {
      "getEeuTypeIds()": {
        "details": "Returns EEU types\r"
      }
    }
  },
  "userdoc": {
    "methods": {
      "constructor": "ctor\r"
    },
    "notice": "Manages static data used by AcMaster\r"
  }
}